{
	"contracts/basics/04-StartStopUpdateExample.sol": {
		"StartStopUpdateExample": {
			"abi": [
				{
					"inputs": [],
					"stateMutability": "nonpayable",
					"type": "constructor"
				},
				{
					"inputs": [],
					"name": "sendMoney",
					"outputs": [],
					"stateMutability": "payable",
					"type": "function"
				},
				{
					"inputs": [
						{
							"internalType": "bool",
							"name": "_paused",
							"type": "bool"
						}
					],
					"name": "setPaused",
					"outputs": [],
					"stateMutability": "nonpayable",
					"type": "function"
				},
				{
					"inputs": [
						{
							"internalType": "address payable",
							"name": "_to",
							"type": "address"
						}
					],
					"name": "withdrawMoney",
					"outputs": [],
					"stateMutability": "nonpayable",
					"type": "function"
				}
			],
			"devdoc": {
				"kind": "dev",
				"methods": {},
				"version": 1
			},
			"evm": {
				"assembly": "    /* \"contracts/basics/04-StartStopUpdateExample.sol\":58:606  contract StartStopUpdateExample{\r... */\n  mstore(0x40, 0x80)\n    /* \"contracts/basics/04-StartStopUpdateExample.sol\":134:184  constructor(){\r... */\n  callvalue\n  dup1\n  iszero\n  tag_1\n  jumpi\n  0x00\n  dup1\n  revert\ntag_1:\n  pop\n    /* \"contracts/basics/04-StartStopUpdateExample.sol\":166:176  msg.sender */\n  caller\n    /* \"contracts/basics/04-StartStopUpdateExample.sol\":158:163  owner */\n  0x00\n  dup1\n    /* \"contracts/basics/04-StartStopUpdateExample.sol\":158:176  owner = msg.sender */\n  0x0100\n  exp\n  dup2\n  sload\n  dup2\n  0xffffffffffffffffffffffffffffffffffffffff\n  mul\n  not\n  and\n  swap1\n  dup4\n  0xffffffffffffffffffffffffffffffffffffffff\n  and\n  mul\n  or\n  swap1\n  sstore\n  pop\n    /* \"contracts/basics/04-StartStopUpdateExample.sol\":58:606  contract StartStopUpdateExample{\r... */\n  dataSize(sub_0)\n  dup1\n  dataOffset(sub_0)\n  0x00\n  codecopy\n  0x00\n  return\nstop\n\nsub_0: assembly {\n        /* \"contracts/basics/04-StartStopUpdateExample.sol\":58:606  contract StartStopUpdateExample{\r... */\n      mstore(0x40, 0x80)\n      jumpi(tag_1, lt(calldatasize, 0x04))\n      shr(0xe0, calldataload(0x00))\n      dup1\n      0x16c38b3c\n      eq\n      tag_2\n      jumpi\n      dup1\n      0x2f971029\n      eq\n      tag_3\n      jumpi\n      dup1\n      0xcbedbf5a\n      eq\n      tag_4\n      jumpi\n    tag_1:\n      0x00\n      dup1\n      revert\n        /* \"contracts/basics/04-StartStopUpdateExample.sol\":245:379  function setPaused(bool _paused) public{\r... */\n    tag_2:\n      callvalue\n      dup1\n      iszero\n      tag_5\n      jumpi\n      0x00\n      dup1\n      revert\n    tag_5:\n      pop\n      tag_6\n      0x04\n      dup1\n      calldatasize\n      sub\n      dup2\n      add\n      swap1\n      tag_7\n      swap2\n      swap1\n      tag_8\n      jump\t// in\n    tag_7:\n      tag_9\n      jump\t// in\n    tag_6:\n      stop\n        /* \"contracts/basics/04-StartStopUpdateExample.sol\":387:595  function withdrawMoney(address payable _to) public{\r... */\n    tag_3:\n      callvalue\n      dup1\n      iszero\n      tag_10\n      jumpi\n      0x00\n      dup1\n      revert\n    tag_10:\n      pop\n      tag_11\n      0x04\n      dup1\n      calldatasize\n      sub\n      dup2\n      add\n      swap1\n      tag_12\n      swap2\n      swap1\n      tag_13\n      jump\t// in\n    tag_12:\n      tag_14\n      jump\t// in\n    tag_11:\n      stop\n        /* \"contracts/basics/04-StartStopUpdateExample.sol\":192:237  function sendMoney() public payable{\r... */\n    tag_4:\n      tag_15\n      tag_16\n      jump\t// in\n    tag_15:\n      stop\n        /* \"contracts/basics/04-StartStopUpdateExample.sol\":245:379  function setPaused(bool _paused) public{\r... */\n    tag_9:\n        /* \"contracts/basics/04-StartStopUpdateExample.sol\":315:320  owner */\n      0x00\n      dup1\n      sload\n      swap1\n      0x0100\n      exp\n      swap1\n      div\n      0xffffffffffffffffffffffffffffffffffffffff\n      and\n        /* \"contracts/basics/04-StartStopUpdateExample.sol\":303:320  msg.sender==owner */\n      0xffffffffffffffffffffffffffffffffffffffff\n      and\n        /* \"contracts/basics/04-StartStopUpdateExample.sol\":303:313  msg.sender */\n      caller\n        /* \"contracts/basics/04-StartStopUpdateExample.sol\":303:320  msg.sender==owner */\n      0xffffffffffffffffffffffffffffffffffffffff\n      and\n      eq\n        /* \"contracts/basics/04-StartStopUpdateExample.sol\":295:345  require(msg.sender==owner,\"You are not the owner\") */\n      tag_18\n      jumpi\n      mload(0x40)\n      0x08c379a000000000000000000000000000000000000000000000000000000000\n      dup2\n      mstore\n      0x04\n      add\n      tag_19\n      swap1\n      tag_20\n      jump\t// in\n    tag_19:\n      mload(0x40)\n      dup1\n      swap2\n      sub\n      swap1\n      revert\n    tag_18:\n        /* \"contracts/basics/04-StartStopUpdateExample.sol\":364:371  _paused */\n      dup1\n        /* \"contracts/basics/04-StartStopUpdateExample.sol\":356:362  paused */\n      0x00\n      0x14\n        /* \"contracts/basics/04-StartStopUpdateExample.sol\":356:371  paused= _paused */\n      0x0100\n      exp\n      dup2\n      sload\n      dup2\n      0xff\n      mul\n      not\n      and\n      swap1\n      dup4\n      iszero\n      iszero\n      mul\n      or\n      swap1\n      sstore\n      pop\n        /* \"contracts/basics/04-StartStopUpdateExample.sol\":245:379  function setPaused(bool _paused) public{\r... */\n      pop\n      jump\t// out\n        /* \"contracts/basics/04-StartStopUpdateExample.sol\":387:595  function withdrawMoney(address payable _to) public{\r... */\n    tag_14:\n        /* \"contracts/basics/04-StartStopUpdateExample.sol\":468:473  owner */\n      0x00\n      dup1\n      sload\n      swap1\n      0x0100\n      exp\n      swap1\n      div\n      0xffffffffffffffffffffffffffffffffffffffff\n      and\n        /* \"contracts/basics/04-StartStopUpdateExample.sol\":456:473  msg.sender==owner */\n      0xffffffffffffffffffffffffffffffffffffffff\n      and\n        /* \"contracts/basics/04-StartStopUpdateExample.sol\":456:466  msg.sender */\n      caller\n        /* \"contracts/basics/04-StartStopUpdateExample.sol\":456:473  msg.sender==owner */\n      0xffffffffffffffffffffffffffffffffffffffff\n      and\n      eq\n        /* \"contracts/basics/04-StartStopUpdateExample.sol\":448:498  require(msg.sender==owner,\"You are not the owner\") */\n      tag_22\n      jumpi\n      mload(0x40)\n      0x08c379a000000000000000000000000000000000000000000000000000000000\n      dup2\n      mstore\n      0x04\n      add\n      tag_23\n      swap1\n      tag_20\n      jump\t// in\n    tag_23:\n      mload(0x40)\n      dup1\n      swap2\n      sub\n      swap1\n      revert\n    tag_22:\n        /* \"contracts/basics/04-StartStopUpdateExample.sol\":518:524  paused */\n      0x00\n      0x14\n      swap1\n      sload\n      swap1\n      0x0100\n      exp\n      swap1\n      div\n      0xff\n      and\n        /* \"contracts/basics/04-StartStopUpdateExample.sol\":517:524  !paused */\n      iszero\n        /* \"contracts/basics/04-StartStopUpdateExample.sol\":509:541  require(!paused,\"Contract is n\") */\n      tag_24\n      jumpi\n      mload(0x40)\n      0x08c379a000000000000000000000000000000000000000000000000000000000\n      dup2\n      mstore\n      0x04\n      add\n      tag_25\n      swap1\n      tag_26\n      jump\t// in\n    tag_25:\n      mload(0x40)\n      dup1\n      swap2\n      sub\n      swap1\n      revert\n    tag_24:\n        /* \"contracts/basics/04-StartStopUpdateExample.sol\":552:555  _to */\n      dup1\n        /* \"contracts/basics/04-StartStopUpdateExample.sol\":552:564  _to.transfer */\n      0xffffffffffffffffffffffffffffffffffffffff\n      and\n        /* \"contracts/basics/04-StartStopUpdateExample.sol\":552:587  _to.transfer(address(this).balance) */\n      0x08fc\n        /* \"contracts/basics/04-StartStopUpdateExample.sol\":565:586  address(this).balance */\n      selfbalance\n        /* \"contracts/basics/04-StartStopUpdateExample.sol\":552:587  _to.transfer(address(this).balance) */\n      swap1\n      dup2\n      iszero\n      mul\n      swap1\n      mload(0x40)\n      0x00\n      mload(0x40)\n      dup1\n      dup4\n      sub\n      dup2\n      dup6\n      dup9\n      dup9\n      call\n      swap4\n      pop\n      pop\n      pop\n      pop\n      iszero\n      dup1\n      iszero\n      tag_28\n      jumpi\n      returndatasize\n      0x00\n      dup1\n      returndatacopy\n      revert(0x00, returndatasize)\n    tag_28:\n      pop\n        /* \"contracts/basics/04-StartStopUpdateExample.sol\":387:595  function withdrawMoney(address payable _to) public{\r... */\n      pop\n      jump\t// out\n        /* \"contracts/basics/04-StartStopUpdateExample.sol\":192:237  function sendMoney() public payable{\r... */\n    tag_16:\n      jump\t// out\n        /* \"#utility.yul\":7:162   */\n    tag_31:\n        /* \"#utility.yul\":61:66   */\n      0x00\n        /* \"#utility.yul\":99:105   */\n      dup2\n        /* \"#utility.yul\":86:106   */\n      calldataload\n        /* \"#utility.yul\":77:106   */\n      swap1\n      pop\n        /* \"#utility.yul\":115:156   */\n      tag_33\n        /* \"#utility.yul\":150:155   */\n      dup2\n        /* \"#utility.yul\":115:156   */\n      tag_34\n      jump\t// in\n    tag_33:\n        /* \"#utility.yul\":7:162   */\n      swap3\n      swap2\n      pop\n      pop\n      jump\t// out\n        /* \"#utility.yul\":168:301   */\n    tag_35:\n        /* \"#utility.yul\":211:216   */\n      0x00\n        /* \"#utility.yul\":249:255   */\n      dup2\n        /* \"#utility.yul\":236:256   */\n      calldataload\n        /* \"#utility.yul\":227:256   */\n      swap1\n      pop\n        /* \"#utility.yul\":265:295   */\n      tag_37\n        /* \"#utility.yul\":289:294   */\n      dup2\n        /* \"#utility.yul\":265:295   */\n      tag_38\n      jump\t// in\n    tag_37:\n        /* \"#utility.yul\":168:301   */\n      swap3\n      swap2\n      pop\n      pop\n      jump\t// out\n        /* \"#utility.yul\":307:652   */\n    tag_13:\n        /* \"#utility.yul\":374:380   */\n      0x00\n        /* \"#utility.yul\":423:425   */\n      0x20\n        /* \"#utility.yul\":411:420   */\n      dup3\n        /* \"#utility.yul\":402:409   */\n      dup5\n        /* \"#utility.yul\":398:421   */\n      sub\n        /* \"#utility.yul\":394:426   */\n      slt\n        /* \"#utility.yul\":391:510   */\n      iszero\n      tag_40\n      jumpi\n        /* \"#utility.yul\":429:508   */\n      tag_41\n      tag_42\n      jump\t// in\n    tag_41:\n        /* \"#utility.yul\":391:510   */\n    tag_40:\n        /* \"#utility.yul\":549:550   */\n      0x00\n        /* \"#utility.yul\":574:635   */\n      tag_43\n        /* \"#utility.yul\":627:634   */\n      dup5\n        /* \"#utility.yul\":618:624   */\n      dup3\n        /* \"#utility.yul\":607:616   */\n      dup6\n        /* \"#utility.yul\":603:625   */\n      add\n        /* \"#utility.yul\":574:635   */\n      tag_31\n      jump\t// in\n    tag_43:\n        /* \"#utility.yul\":564:635   */\n      swap2\n      pop\n        /* \"#utility.yul\":520:645   */\n      pop\n        /* \"#utility.yul\":307:652   */\n      swap3\n      swap2\n      pop\n      pop\n      jump\t// out\n        /* \"#utility.yul\":658:981   */\n    tag_8:\n        /* \"#utility.yul\":714:720   */\n      0x00\n        /* \"#utility.yul\":763:765   */\n      0x20\n        /* \"#utility.yul\":751:760   */\n      dup3\n        /* \"#utility.yul\":742:749   */\n      dup5\n        /* \"#utility.yul\":738:761   */\n      sub\n        /* \"#utility.yul\":734:766   */\n      slt\n        /* \"#utility.yul\":731:850   */\n      iszero\n      tag_45\n      jumpi\n        /* \"#utility.yul\":769:848   */\n      tag_46\n      tag_42\n      jump\t// in\n    tag_46:\n        /* \"#utility.yul\":731:850   */\n    tag_45:\n        /* \"#utility.yul\":889:890   */\n      0x00\n        /* \"#utility.yul\":914:964   */\n      tag_47\n        /* \"#utility.yul\":956:963   */\n      dup5\n        /* \"#utility.yul\":947:953   */\n      dup3\n        /* \"#utility.yul\":936:945   */\n      dup6\n        /* \"#utility.yul\":932:954   */\n      add\n        /* \"#utility.yul\":914:964   */\n      tag_35\n      jump\t// in\n    tag_47:\n        /* \"#utility.yul\":904:964   */\n      swap2\n      pop\n        /* \"#utility.yul\":860:974   */\n      pop\n        /* \"#utility.yul\":658:981   */\n      swap3\n      swap2\n      pop\n      pop\n      jump\t// out\n        /* \"#utility.yul\":987:1353   */\n    tag_48:\n        /* \"#utility.yul\":1129:1132   */\n      0x00\n        /* \"#utility.yul\":1150:1217   */\n      tag_50\n        /* \"#utility.yul\":1214:1216   */\n      0x15\n        /* \"#utility.yul\":1209:1212   */\n      dup4\n        /* \"#utility.yul\":1150:1217   */\n      tag_51\n      jump\t// in\n    tag_50:\n        /* \"#utility.yul\":1143:1217   */\n      swap2\n      pop\n        /* \"#utility.yul\":1226:1319   */\n      tag_52\n        /* \"#utility.yul\":1315:1318   */\n      dup3\n        /* \"#utility.yul\":1226:1319   */\n      tag_53\n      jump\t// in\n    tag_52:\n        /* \"#utility.yul\":1344:1346   */\n      0x20\n        /* \"#utility.yul\":1339:1342   */\n      dup3\n        /* \"#utility.yul\":1335:1347   */\n      add\n        /* \"#utility.yul\":1328:1347   */\n      swap1\n      pop\n        /* \"#utility.yul\":987:1353   */\n      swap2\n      swap1\n      pop\n      jump\t// out\n        /* \"#utility.yul\":1359:1725   */\n    tag_54:\n        /* \"#utility.yul\":1501:1504   */\n      0x00\n        /* \"#utility.yul\":1522:1589   */\n      tag_56\n        /* \"#utility.yul\":1586:1588   */\n      0x0d\n        /* \"#utility.yul\":1581:1584   */\n      dup4\n        /* \"#utility.yul\":1522:1589   */\n      tag_51\n      jump\t// in\n    tag_56:\n        /* \"#utility.yul\":1515:1589   */\n      swap2\n      pop\n        /* \"#utility.yul\":1598:1691   */\n      tag_57\n        /* \"#utility.yul\":1687:1690   */\n      dup3\n        /* \"#utility.yul\":1598:1691   */\n      tag_58\n      jump\t// in\n    tag_57:\n        /* \"#utility.yul\":1716:1718   */\n      0x20\n        /* \"#utility.yul\":1711:1714   */\n      dup3\n        /* \"#utility.yul\":1707:1719   */\n      add\n        /* \"#utility.yul\":1700:1719   */\n      swap1\n      pop\n        /* \"#utility.yul\":1359:1725   */\n      swap2\n      swap1\n      pop\n      jump\t// out\n        /* \"#utility.yul\":1731:2150   */\n    tag_20:\n        /* \"#utility.yul\":1897:1901   */\n      0x00\n        /* \"#utility.yul\":1935:1937   */\n      0x20\n        /* \"#utility.yul\":1924:1933   */\n      dup3\n        /* \"#utility.yul\":1920:1938   */\n      add\n        /* \"#utility.yul\":1912:1938   */\n      swap1\n      pop\n        /* \"#utility.yul\":1984:1993   */\n      dup2\n        /* \"#utility.yul\":1978:1982   */\n      dup2\n        /* \"#utility.yul\":1974:1994   */\n      sub\n        /* \"#utility.yul\":1970:1971   */\n      0x00\n        /* \"#utility.yul\":1959:1968   */\n      dup4\n        /* \"#utility.yul\":1955:1972   */\n      add\n        /* \"#utility.yul\":1948:1995   */\n      mstore\n        /* \"#utility.yul\":2012:2143   */\n      tag_60\n        /* \"#utility.yul\":2138:2142   */\n      dup2\n        /* \"#utility.yul\":2012:2143   */\n      tag_48\n      jump\t// in\n    tag_60:\n        /* \"#utility.yul\":2004:2143   */\n      swap1\n      pop\n        /* \"#utility.yul\":1731:2150   */\n      swap2\n      swap1\n      pop\n      jump\t// out\n        /* \"#utility.yul\":2156:2575   */\n    tag_26:\n        /* \"#utility.yul\":2322:2326   */\n      0x00\n        /* \"#utility.yul\":2360:2362   */\n      0x20\n        /* \"#utility.yul\":2349:2358   */\n      dup3\n        /* \"#utility.yul\":2345:2363   */\n      add\n        /* \"#utility.yul\":2337:2363   */\n      swap1\n      pop\n        /* \"#utility.yul\":2409:2418   */\n      dup2\n        /* \"#utility.yul\":2403:2407   */\n      dup2\n        /* \"#utility.yul\":2399:2419   */\n      sub\n        /* \"#utility.yul\":2395:2396   */\n      0x00\n        /* \"#utility.yul\":2384:2393   */\n      dup4\n        /* \"#utility.yul\":2380:2397   */\n      add\n        /* \"#utility.yul\":2373:2420   */\n      mstore\n        /* \"#utility.yul\":2437:2568   */\n      tag_62\n        /* \"#utility.yul\":2563:2567   */\n      dup2\n        /* \"#utility.yul\":2437:2568   */\n      tag_54\n      jump\t// in\n    tag_62:\n        /* \"#utility.yul\":2429:2568   */\n      swap1\n      pop\n        /* \"#utility.yul\":2156:2575   */\n      swap2\n      swap1\n      pop\n      jump\t// out\n        /* \"#utility.yul\":2662:2831   */\n    tag_51:\n        /* \"#utility.yul\":2746:2757   */\n      0x00\n        /* \"#utility.yul\":2780:2786   */\n      dup3\n        /* \"#utility.yul\":2775:2778   */\n      dup3\n        /* \"#utility.yul\":2768:2787   */\n      mstore\n        /* \"#utility.yul\":2820:2824   */\n      0x20\n        /* \"#utility.yul\":2815:2818   */\n      dup3\n        /* \"#utility.yul\":2811:2825   */\n      add\n        /* \"#utility.yul\":2796:2825   */\n      swap1\n      pop\n        /* \"#utility.yul\":2662:2831   */\n      swap3\n      swap2\n      pop\n      pop\n      jump\t// out\n        /* \"#utility.yul\":2837:2941   */\n    tag_66:\n        /* \"#utility.yul\":2882:2889   */\n      0x00\n        /* \"#utility.yul\":2911:2935   */\n      tag_68\n        /* \"#utility.yul\":2929:2934   */\n      dup3\n        /* \"#utility.yul\":2911:2935   */\n      tag_69\n      jump\t// in\n    tag_68:\n        /* \"#utility.yul\":2900:2935   */\n      swap1\n      pop\n        /* \"#utility.yul\":2837:2941   */\n      swap2\n      swap1\n      pop\n      jump\t// out\n        /* \"#utility.yul\":2947:3037   */\n    tag_70:\n        /* \"#utility.yul\":2981:2988   */\n      0x00\n        /* \"#utility.yul\":3024:3029   */\n      dup2\n        /* \"#utility.yul\":3017:3030   */\n      iszero\n        /* \"#utility.yul\":3010:3031   */\n      iszero\n        /* \"#utility.yul\":2999:3031   */\n      swap1\n      pop\n        /* \"#utility.yul\":2947:3037   */\n      swap2\n      swap1\n      pop\n      jump\t// out\n        /* \"#utility.yul\":3043:3169   */\n    tag_69:\n        /* \"#utility.yul\":3080:3087   */\n      0x00\n        /* \"#utility.yul\":3120:3162   */\n      0xffffffffffffffffffffffffffffffffffffffff\n        /* \"#utility.yul\":3113:3118   */\n      dup3\n        /* \"#utility.yul\":3109:3163   */\n      and\n        /* \"#utility.yul\":3098:3163   */\n      swap1\n      pop\n        /* \"#utility.yul\":3043:3169   */\n      swap2\n      swap1\n      pop\n      jump\t// out\n        /* \"#utility.yul\":3298:3415   */\n    tag_42:\n        /* \"#utility.yul\":3407:3408   */\n      0x00\n        /* \"#utility.yul\":3404:3405   */\n      dup1\n        /* \"#utility.yul\":3397:3409   */\n      revert\n        /* \"#utility.yul\":3421:3592   */\n    tag_53:\n        /* \"#utility.yul\":3561:3584   */\n      0x596f7520617265206e6f7420746865206f776e65720000000000000000000000\n        /* \"#utility.yul\":3557:3558   */\n      0x00\n        /* \"#utility.yul\":3549:3555   */\n      dup3\n        /* \"#utility.yul\":3545:3559   */\n      add\n        /* \"#utility.yul\":3538:3585   */\n      mstore\n        /* \"#utility.yul\":3421:3592   */\n      pop\n      jump\t// out\n        /* \"#utility.yul\":3598:3761   */\n    tag_58:\n        /* \"#utility.yul\":3738:3753   */\n      0x436f6e7472616374206973206e00000000000000000000000000000000000000\n        /* \"#utility.yul\":3734:3735   */\n      0x00\n        /* \"#utility.yul\":3726:3732   */\n      dup3\n        /* \"#utility.yul\":3722:3736   */\n      add\n        /* \"#utility.yul\":3715:3754   */\n      mstore\n        /* \"#utility.yul\":3598:3761   */\n      pop\n      jump\t// out\n        /* \"#utility.yul\":3767:3905   */\n    tag_34:\n        /* \"#utility.yul\":3848:3880   */\n      tag_79\n        /* \"#utility.yul\":3874:3879   */\n      dup2\n        /* \"#utility.yul\":3848:3880   */\n      tag_66\n      jump\t// in\n    tag_79:\n        /* \"#utility.yul\":3841:3846   */\n      dup2\n        /* \"#utility.yul\":3838:3881   */\n      eq\n        /* \"#utility.yul\":3828:3899   */\n      tag_80\n      jumpi\n        /* \"#utility.yul\":3895:3896   */\n      0x00\n        /* \"#utility.yul\":3892:3893   */\n      dup1\n        /* \"#utility.yul\":3885:3897   */\n      revert\n        /* \"#utility.yul\":3828:3899   */\n    tag_80:\n        /* \"#utility.yul\":3767:3905   */\n      pop\n      jump\t// out\n        /* \"#utility.yul\":3911:4027   */\n    tag_38:\n        /* \"#utility.yul\":3981:4002   */\n      tag_82\n        /* \"#utility.yul\":3996:4001   */\n      dup2\n        /* \"#utility.yul\":3981:4002   */\n      tag_70\n      jump\t// in\n    tag_82:\n        /* \"#utility.yul\":3974:3979   */\n      dup2\n        /* \"#utility.yul\":3971:4003   */\n      eq\n        /* \"#utility.yul\":3961:4021   */\n      tag_83\n      jumpi\n        /* \"#utility.yul\":4017:4018   */\n      0x00\n        /* \"#utility.yul\":4014:4015   */\n      dup1\n        /* \"#utility.yul\":4007:4019   */\n      revert\n        /* \"#utility.yul\":3961:4021   */\n    tag_83:\n        /* \"#utility.yul\":3911:4027   */\n      pop\n      jump\t// out\n\n    auxdata: 0xa2646970667358221220cdd083bfed22812bbaa562be8f02ad9e61bc5e1f90483671ab5cd8715676391464736f6c63430008070033\n}\n",
				"bytecode": {
					"linkReferences": {},
					"object": "608060405234801561001057600080fd5b50336000806101000a81548173ffffffffffffffffffffffffffffffffffffffff021916908373ffffffffffffffffffffffffffffffffffffffff16021790555061047e806100606000396000f3fe6080604052600436106100345760003560e01c806316c38b3c146100395780632f97102914610062578063cbedbf5a1461008b575b600080fd5b34801561004557600080fd5b50610060600480360381019061005b91906102c1565b610095565b005b34801561006e57600080fd5b5061008960048036038101906100849190610294565b610140565b005b610093610268565b005b60008054906101000a900473ffffffffffffffffffffffffffffffffffffffff1673ffffffffffffffffffffffffffffffffffffffff163373ffffffffffffffffffffffffffffffffffffffff1614610123576040517f08c379a000000000000000000000000000000000000000000000000000000000815260040161011a90610334565b60405180910390fd5b80600060146101000a81548160ff02191690831515021790555050565b60008054906101000a900473ffffffffffffffffffffffffffffffffffffffff1673ffffffffffffffffffffffffffffffffffffffff163373ffffffffffffffffffffffffffffffffffffffff16146101ce576040517f08c379a00000000000000000000000000000000000000000000000000000000081526004016101c590610334565b60405180910390fd5b600060149054906101000a900460ff161561021e576040517f08c379a000000000000000000000000000000000000000000000000000000000815260040161021590610354565b60405180910390fd5b8073ffffffffffffffffffffffffffffffffffffffff166108fc479081150290604051600060405180830381858888f19350505050158015610264573d6000803e3d6000fd5b5050565b565b6000813590506102798161041a565b92915050565b60008135905061028e81610431565b92915050565b6000602082840312156102aa576102a96103c3565b5b60006102b88482850161026a565b91505092915050565b6000602082840312156102d7576102d66103c3565b5b60006102e58482850161027f565b91505092915050565b60006102fb601583610374565b9150610306826103c8565b602082019050919050565b600061031e600d83610374565b9150610329826103f1565b602082019050919050565b6000602082019050818103600083015261034d816102ee565b9050919050565b6000602082019050818103600083015261036d81610311565b9050919050565b600082825260208201905092915050565b6000610390826103a3565b9050919050565b60008115159050919050565b600073ffffffffffffffffffffffffffffffffffffffff82169050919050565b600080fd5b7f596f7520617265206e6f7420746865206f776e65720000000000000000000000600082015250565b7f436f6e7472616374206973206e00000000000000000000000000000000000000600082015250565b61042381610385565b811461042e57600080fd5b50565b61043a81610397565b811461044557600080fd5b5056fea2646970667358221220cdd083bfed22812bbaa562be8f02ad9e61bc5e1f90483671ab5cd8715676391464736f6c63430008070033",
					"opcodes": "PUSH1 0x80 PUSH1 0x40 MSTORE CALLVALUE DUP1 ISZERO PUSH2 0x10 JUMPI PUSH1 0x0 DUP1 REVERT JUMPDEST POP CALLER PUSH1 0x0 DUP1 PUSH2 0x100 EXP DUP2 SLOAD DUP2 PUSH20 0xFFFFFFFFFFFFFFFFFFFFFFFFFFFFFFFFFFFFFFFF MUL NOT AND SWAP1 DUP4 PUSH20 0xFFFFFFFFFFFFFFFFFFFFFFFFFFFFFFFFFFFFFFFF AND MUL OR SWAP1 SSTORE POP PUSH2 0x47E DUP1 PUSH2 0x60 PUSH1 0x0 CODECOPY PUSH1 0x0 RETURN INVALID PUSH1 0x80 PUSH1 0x40 MSTORE PUSH1 0x4 CALLDATASIZE LT PUSH2 0x34 JUMPI PUSH1 0x0 CALLDATALOAD PUSH1 0xE0 SHR DUP1 PUSH4 0x16C38B3C EQ PUSH2 0x39 JUMPI DUP1 PUSH4 0x2F971029 EQ PUSH2 0x62 JUMPI DUP1 PUSH4 0xCBEDBF5A EQ PUSH2 0x8B JUMPI JUMPDEST PUSH1 0x0 DUP1 REVERT JUMPDEST CALLVALUE DUP1 ISZERO PUSH2 0x45 JUMPI PUSH1 0x0 DUP1 REVERT JUMPDEST POP PUSH2 0x60 PUSH1 0x4 DUP1 CALLDATASIZE SUB DUP2 ADD SWAP1 PUSH2 0x5B SWAP2 SWAP1 PUSH2 0x2C1 JUMP JUMPDEST PUSH2 0x95 JUMP JUMPDEST STOP JUMPDEST CALLVALUE DUP1 ISZERO PUSH2 0x6E JUMPI PUSH1 0x0 DUP1 REVERT JUMPDEST POP PUSH2 0x89 PUSH1 0x4 DUP1 CALLDATASIZE SUB DUP2 ADD SWAP1 PUSH2 0x84 SWAP2 SWAP1 PUSH2 0x294 JUMP JUMPDEST PUSH2 0x140 JUMP JUMPDEST STOP JUMPDEST PUSH2 0x93 PUSH2 0x268 JUMP JUMPDEST STOP JUMPDEST PUSH1 0x0 DUP1 SLOAD SWAP1 PUSH2 0x100 EXP SWAP1 DIV PUSH20 0xFFFFFFFFFFFFFFFFFFFFFFFFFFFFFFFFFFFFFFFF AND PUSH20 0xFFFFFFFFFFFFFFFFFFFFFFFFFFFFFFFFFFFFFFFF AND CALLER PUSH20 0xFFFFFFFFFFFFFFFFFFFFFFFFFFFFFFFFFFFFFFFF AND EQ PUSH2 0x123 JUMPI PUSH1 0x40 MLOAD PUSH32 0x8C379A000000000000000000000000000000000000000000000000000000000 DUP2 MSTORE PUSH1 0x4 ADD PUSH2 0x11A SWAP1 PUSH2 0x334 JUMP JUMPDEST PUSH1 0x40 MLOAD DUP1 SWAP2 SUB SWAP1 REVERT JUMPDEST DUP1 PUSH1 0x0 PUSH1 0x14 PUSH2 0x100 EXP DUP2 SLOAD DUP2 PUSH1 0xFF MUL NOT AND SWAP1 DUP4 ISZERO ISZERO MUL OR SWAP1 SSTORE POP POP JUMP JUMPDEST PUSH1 0x0 DUP1 SLOAD SWAP1 PUSH2 0x100 EXP SWAP1 DIV PUSH20 0xFFFFFFFFFFFFFFFFFFFFFFFFFFFFFFFFFFFFFFFF AND PUSH20 0xFFFFFFFFFFFFFFFFFFFFFFFFFFFFFFFFFFFFFFFF AND CALLER PUSH20 0xFFFFFFFFFFFFFFFFFFFFFFFFFFFFFFFFFFFFFFFF AND EQ PUSH2 0x1CE JUMPI PUSH1 0x40 MLOAD PUSH32 0x8C379A000000000000000000000000000000000000000000000000000000000 DUP2 MSTORE PUSH1 0x4 ADD PUSH2 0x1C5 SWAP1 PUSH2 0x334 JUMP JUMPDEST PUSH1 0x40 MLOAD DUP1 SWAP2 SUB SWAP1 REVERT JUMPDEST PUSH1 0x0 PUSH1 0x14 SWAP1 SLOAD SWAP1 PUSH2 0x100 EXP SWAP1 DIV PUSH1 0xFF AND ISZERO PUSH2 0x21E JUMPI PUSH1 0x40 MLOAD PUSH32 0x8C379A000000000000000000000000000000000000000000000000000000000 DUP2 MSTORE PUSH1 0x4 ADD PUSH2 0x215 SWAP1 PUSH2 0x354 JUMP JUMPDEST PUSH1 0x40 MLOAD DUP1 SWAP2 SUB SWAP1 REVERT JUMPDEST DUP1 PUSH20 0xFFFFFFFFFFFFFFFFFFFFFFFFFFFFFFFFFFFFFFFF AND PUSH2 0x8FC SELFBALANCE SWAP1 DUP2 ISZERO MUL SWAP1 PUSH1 0x40 MLOAD PUSH1 0x0 PUSH1 0x40 MLOAD DUP1 DUP4 SUB DUP2 DUP6 DUP9 DUP9 CALL SWAP4 POP POP POP POP ISZERO DUP1 ISZERO PUSH2 0x264 JUMPI RETURNDATASIZE PUSH1 0x0 DUP1 RETURNDATACOPY RETURNDATASIZE PUSH1 0x0 REVERT JUMPDEST POP POP JUMP JUMPDEST JUMP JUMPDEST PUSH1 0x0 DUP2 CALLDATALOAD SWAP1 POP PUSH2 0x279 DUP2 PUSH2 0x41A JUMP JUMPDEST SWAP3 SWAP2 POP POP JUMP JUMPDEST PUSH1 0x0 DUP2 CALLDATALOAD SWAP1 POP PUSH2 0x28E DUP2 PUSH2 0x431 JUMP JUMPDEST SWAP3 SWAP2 POP POP JUMP JUMPDEST PUSH1 0x0 PUSH1 0x20 DUP3 DUP5 SUB SLT ISZERO PUSH2 0x2AA JUMPI PUSH2 0x2A9 PUSH2 0x3C3 JUMP JUMPDEST JUMPDEST PUSH1 0x0 PUSH2 0x2B8 DUP5 DUP3 DUP6 ADD PUSH2 0x26A JUMP JUMPDEST SWAP2 POP POP SWAP3 SWAP2 POP POP JUMP JUMPDEST PUSH1 0x0 PUSH1 0x20 DUP3 DUP5 SUB SLT ISZERO PUSH2 0x2D7 JUMPI PUSH2 0x2D6 PUSH2 0x3C3 JUMP JUMPDEST JUMPDEST PUSH1 0x0 PUSH2 0x2E5 DUP5 DUP3 DUP6 ADD PUSH2 0x27F JUMP JUMPDEST SWAP2 POP POP SWAP3 SWAP2 POP POP JUMP JUMPDEST PUSH1 0x0 PUSH2 0x2FB PUSH1 0x15 DUP4 PUSH2 0x374 JUMP JUMPDEST SWAP2 POP PUSH2 0x306 DUP3 PUSH2 0x3C8 JUMP JUMPDEST PUSH1 0x20 DUP3 ADD SWAP1 POP SWAP2 SWAP1 POP JUMP JUMPDEST PUSH1 0x0 PUSH2 0x31E PUSH1 0xD DUP4 PUSH2 0x374 JUMP JUMPDEST SWAP2 POP PUSH2 0x329 DUP3 PUSH2 0x3F1 JUMP JUMPDEST PUSH1 0x20 DUP3 ADD SWAP1 POP SWAP2 SWAP1 POP JUMP JUMPDEST PUSH1 0x0 PUSH1 0x20 DUP3 ADD SWAP1 POP DUP2 DUP2 SUB PUSH1 0x0 DUP4 ADD MSTORE PUSH2 0x34D DUP2 PUSH2 0x2EE JUMP JUMPDEST SWAP1 POP SWAP2 SWAP1 POP JUMP JUMPDEST PUSH1 0x0 PUSH1 0x20 DUP3 ADD SWAP1 POP DUP2 DUP2 SUB PUSH1 0x0 DUP4 ADD MSTORE PUSH2 0x36D DUP2 PUSH2 0x311 JUMP JUMPDEST SWAP1 POP SWAP2 SWAP1 POP JUMP JUMPDEST PUSH1 0x0 DUP3 DUP3 MSTORE PUSH1 0x20 DUP3 ADD SWAP1 POP SWAP3 SWAP2 POP POP JUMP JUMPDEST PUSH1 0x0 PUSH2 0x390 DUP3 PUSH2 0x3A3 JUMP JUMPDEST SWAP1 POP SWAP2 SWAP1 POP JUMP JUMPDEST PUSH1 0x0 DUP2 ISZERO ISZERO SWAP1 POP SWAP2 SWAP1 POP JUMP JUMPDEST PUSH1 0x0 PUSH20 0xFFFFFFFFFFFFFFFFFFFFFFFFFFFFFFFFFFFFFFFF DUP3 AND SWAP1 POP SWAP2 SWAP1 POP JUMP JUMPDEST PUSH1 0x0 DUP1 REVERT JUMPDEST PUSH32 0x596F7520617265206E6F7420746865206F776E65720000000000000000000000 PUSH1 0x0 DUP3 ADD MSTORE POP JUMP JUMPDEST PUSH32 0x436F6E7472616374206973206E00000000000000000000000000000000000000 PUSH1 0x0 DUP3 ADD MSTORE POP JUMP JUMPDEST PUSH2 0x423 DUP2 PUSH2 0x385 JUMP JUMPDEST DUP2 EQ PUSH2 0x42E JUMPI PUSH1 0x0 DUP1 REVERT JUMPDEST POP JUMP JUMPDEST PUSH2 0x43A DUP2 PUSH2 0x397 JUMP JUMPDEST DUP2 EQ PUSH2 0x445 JUMPI PUSH1 0x0 DUP1 REVERT JUMPDEST POP JUMP INVALID LOG2 PUSH5 0x6970667358 0x22 SLT KECCAK256 0xCD 0xD0 DUP4 0xBF 0xED 0x22 DUP2 0x2B 0xBA 0xA5 PUSH3 0xBE8F02 0xAD SWAP15 PUSH2 0xBC5E 0x1F SWAP1 BASEFEE CALLDATASIZE PUSH18 0xAB5CD8715676391464736F6C634300080700 CALLER "
				},
				"gasEstimates": {
					"creation": {
						"codeDepositCost": "230000",
						"executionCost": "24535",
						"totalCost": "254535"
					},
					"external": {
						"sendMoney()": "142",
						"setPaused(bool)": "26874",
						"withdrawMoney(address)": "infinite"
					}
				},
				"methodIdentifiers": {
					"sendMoney()": "cbedbf5a",
					"setPaused(bool)": "16c38b3c",
					"withdrawMoney(address)": "2f971029"
				}
			},
			"storageLayout": {
				"storage": [
					{
						"astId": 3,
						"contract": "contracts/basics/04-StartStopUpdateExample.sol:StartStopUpdateExample",
						"label": "owner",
						"offset": 0,
						"slot": "0",
						"type": "t_address"
					},
					{
						"astId": 5,
						"contract": "contracts/basics/04-StartStopUpdateExample.sol:StartStopUpdateExample",
						"label": "paused",
						"offset": 20,
						"slot": "0",
						"type": "t_bool"
					}
				],
				"types": {
					"t_address": {
						"encoding": "inplace",
						"label": "address",
						"numberOfBytes": "20"
					},
					"t_bool": {
						"encoding": "inplace",
						"label": "bool",
						"numberOfBytes": "1"
					}
				}
			},
			"userdoc": {
				"kind": "user",
				"methods": {},
				"version": 1
			}
		}
	}
}