{
	"contracts/basics/03-SendMoneyExample.sol": {
		"SendMoneyExamples": {
			"abi": [
				{
					"inputs": [],
					"name": "balanceReceived",
					"outputs": [
						{
							"internalType": "uint256",
							"name": "",
							"type": "uint256"
						}
					],
					"stateMutability": "view",
					"type": "function"
				},
				{
					"inputs": [],
					"name": "getBalance",
					"outputs": [
						{
							"internalType": "uint256",
							"name": "",
							"type": "uint256"
						}
					],
					"stateMutability": "view",
					"type": "function"
				},
				{
					"inputs": [],
					"name": "lockedUntil",
					"outputs": [
						{
							"internalType": "uint256",
							"name": "",
							"type": "uint256"
						}
					],
					"stateMutability": "view",
					"type": "function"
				},
				{
					"inputs": [],
					"name": "recieveMoney",
					"outputs": [],
					"stateMutability": "payable",
					"type": "function"
				},
				{
					"inputs": [
						{
							"internalType": "address payable",
							"name": "_to",
							"type": "address"
						}
					],
					"name": "sendMoney",
					"outputs": [],
					"stateMutability": "nonpayable",
					"type": "function"
				},
				{
					"inputs": [],
					"name": "withdrawMoney",
					"outputs": [],
					"stateMutability": "nonpayable",
					"type": "function"
				}
			],
			"devdoc": {
				"kind": "dev",
				"methods": {},
				"version": 1
			},
			"evm": {
				"assembly": "    /* \"contracts/basics/03-SendMoneyExample.sol\":58:710  contract SendMoneyExamples{\r... */\n  mstore(0x40, 0x80)\n  callvalue\n  dup1\n  iszero\n  tag_1\n  jumpi\n  0x00\n  dup1\n  revert\ntag_1:\n  pop\n  dataSize(sub_0)\n  dup1\n  dataOffset(sub_0)\n  0x00\n  codecopy\n  0x00\n  return\nstop\n\nsub_0: assembly {\n        /* \"contracts/basics/03-SendMoneyExample.sol\":58:710  contract SendMoneyExamples{\r... */\n      mstore(0x40, 0x80)\n      jumpi(tag_1, lt(calldatasize, 0x04))\n      shr(0xe0, calldataload(0x00))\n      dup1\n      0x12065fe0\n      eq\n      tag_2\n      jumpi\n      dup1\n      0x338ccd78\n      eq\n      tag_3\n      jumpi\n      dup1\n      0x52a90c42\n      eq\n      tag_4\n      jumpi\n      dup1\n      0xac446002\n      eq\n      tag_5\n      jumpi\n      dup1\n      0xcca955a0\n      eq\n      tag_6\n      jumpi\n      dup1\n      0xce0617ec\n      eq\n      tag_7\n      jumpi\n    tag_1:\n      0x00\n      dup1\n      revert\n        /* \"contracts/basics/03-SendMoneyExample.sol\":300:394  function getBalance() public view returns(uint){\r... */\n    tag_2:\n      callvalue\n      dup1\n      iszero\n      tag_8\n      jumpi\n      0x00\n      dup1\n      revert\n    tag_8:\n      pop\n      tag_9\n      tag_10\n      jump\t// in\n    tag_9:\n      mload(0x40)\n      tag_11\n      swap2\n      swap1\n      tag_12\n      jump\t// in\n    tag_11:\n      mload(0x40)\n      dup1\n      swap2\n      sub\n      swap1\n      return\n        /* \"contracts/basics/03-SendMoneyExample.sol\":607:707  function sendMoney(address payable _to) public{\r... */\n    tag_3:\n      callvalue\n      dup1\n      iszero\n      tag_13\n      jumpi\n      0x00\n      dup1\n      revert\n    tag_13:\n      pop\n      tag_14\n      0x04\n      dup1\n      calldatasize\n      sub\n      dup2\n      add\n      swap1\n      tag_15\n      swap2\n      swap1\n      tag_16\n      jump\t// in\n    tag_15:\n      tag_17\n      jump\t// in\n    tag_14:\n      stop\n        /* \"contracts/basics/03-SendMoneyExample.sol\":91:118  uint public balanceReceived */\n    tag_4:\n      callvalue\n      dup1\n      iszero\n      tag_18\n      jumpi\n      0x00\n      dup1\n      revert\n    tag_18:\n      pop\n      tag_19\n      tag_20\n      jump\t// in\n    tag_19:\n      mload(0x40)\n      tag_21\n      swap2\n      swap1\n      tag_12\n      jump\t// in\n    tag_21:\n      mload(0x40)\n      dup1\n      swap2\n      sub\n      swap1\n      return\n        /* \"contracts/basics/03-SendMoneyExample.sol\":402:599  function withdrawMoney() public{\r... */\n    tag_5:\n      callvalue\n      dup1\n      iszero\n      tag_22\n      jumpi\n      0x00\n      dup1\n      revert\n    tag_22:\n      pop\n      tag_23\n      tag_24\n      jump\t// in\n    tag_23:\n      stop\n        /* \"contracts/basics/03-SendMoneyExample.sol\":155:292  function recieveMoney() public payable{\r... */\n    tag_6:\n      tag_25\n      tag_26\n      jump\t// in\n    tag_25:\n      stop\n        /* \"contracts/basics/03-SendMoneyExample.sol\":125:148  uint public lockedUntil */\n    tag_7:\n      callvalue\n      dup1\n      iszero\n      tag_27\n      jumpi\n      0x00\n      dup1\n      revert\n    tag_27:\n      pop\n      tag_28\n      tag_29\n      jump\t// in\n    tag_28:\n      mload(0x40)\n      tag_30\n      swap2\n      swap1\n      tag_12\n      jump\t// in\n    tag_30:\n      mload(0x40)\n      dup1\n      swap2\n      sub\n      swap1\n      return\n        /* \"contracts/basics/03-SendMoneyExample.sol\":300:394  function getBalance() public view returns(uint){\r... */\n    tag_10:\n        /* \"contracts/basics/03-SendMoneyExample.sol\":342:346  uint */\n      0x00\n        /* \"contracts/basics/03-SendMoneyExample.sol\":365:386  address(this).balance */\n      selfbalance\n        /* \"contracts/basics/03-SendMoneyExample.sol\":358:386  return address(this).balance */\n      swap1\n      pop\n        /* \"contracts/basics/03-SendMoneyExample.sol\":300:394  function getBalance() public view returns(uint){\r... */\n      swap1\n      jump\t// out\n        /* \"contracts/basics/03-SendMoneyExample.sol\":607:707  function sendMoney(address payable _to) public{\r... */\n    tag_17:\n        /* \"contracts/basics/03-SendMoneyExample.sol\":664:667  _to */\n      dup1\n        /* \"contracts/basics/03-SendMoneyExample.sol\":664:676  _to.transfer */\n      0xffffffffffffffffffffffffffffffffffffffff\n      and\n        /* \"contracts/basics/03-SendMoneyExample.sol\":664:699  _to.transfer(address(this).balance) */\n      0x08fc\n        /* \"contracts/basics/03-SendMoneyExample.sol\":677:698  address(this).balance */\n      selfbalance\n        /* \"contracts/basics/03-SendMoneyExample.sol\":664:699  _to.transfer(address(this).balance) */\n      swap1\n      dup2\n      iszero\n      mul\n      swap1\n      mload(0x40)\n      0x00\n      mload(0x40)\n      dup1\n      dup4\n      sub\n      dup2\n      dup6\n      dup9\n      dup9\n      call\n      swap4\n      pop\n      pop\n      pop\n      pop\n      iszero\n      dup1\n      iszero\n      tag_34\n      jumpi\n      returndatasize\n      0x00\n      dup1\n      returndatacopy\n      revert(0x00, returndatasize)\n    tag_34:\n      pop\n        /* \"contracts/basics/03-SendMoneyExample.sol\":607:707  function sendMoney(address payable _to) public{\r... */\n      pop\n      jump\t// out\n        /* \"contracts/basics/03-SendMoneyExample.sol\":91:118  uint public balanceReceived */\n    tag_20:\n      sload(0x00)\n      dup2\n      jump\t// out\n        /* \"contracts/basics/03-SendMoneyExample.sol\":402:599  function withdrawMoney() public{\r... */\n    tag_24:\n        /* \"contracts/basics/03-SendMoneyExample.sol\":459:474  block.timestamp */\n      timestamp\n        /* \"contracts/basics/03-SendMoneyExample.sol\":447:458  lockedUntil */\n      sload(0x01)\n        /* \"contracts/basics/03-SendMoneyExample.sol\":447:474  lockedUntil<block.timestamp */\n      lt\n        /* \"contracts/basics/03-SendMoneyExample.sol\":444:583  if(lockedUntil<block.timestamp){\r... */\n      iszero\n      tag_36\n      jumpi\n        /* \"contracts/basics/03-SendMoneyExample.sol\":490:508  address payable to */\n      0x00\n        /* \"contracts/basics/03-SendMoneyExample.sol\":519:529  msg.sender */\n      caller\n        /* \"contracts/basics/03-SendMoneyExample.sol\":490:530  address payable to = payable(msg.sender) */\n      swap1\n      pop\n        /* \"contracts/basics/03-SendMoneyExample.sol\":541:543  to */\n      dup1\n        /* \"contracts/basics/03-SendMoneyExample.sol\":541:552  to.transfer */\n      0xffffffffffffffffffffffffffffffffffffffff\n      and\n        /* \"contracts/basics/03-SendMoneyExample.sol\":541:571  to.transfer(this.getBalance()) */\n      0x08fc\n        /* \"contracts/basics/03-SendMoneyExample.sol\":553:557  this */\n      address\n        /* \"contracts/basics/03-SendMoneyExample.sol\":553:568  this.getBalance */\n      0xffffffffffffffffffffffffffffffffffffffff\n      and\n      0x12065fe0\n        /* \"contracts/basics/03-SendMoneyExample.sol\":553:570  this.getBalance() */\n      mload(0x40)\n      dup2\n      0xffffffff\n      and\n      0xe0\n      shl\n      dup2\n      mstore\n      0x04\n      add\n      0x20\n      mload(0x40)\n      dup1\n      dup4\n      sub\n      dup2\n      dup7\n      dup1\n      extcodesize\n      iszero\n      dup1\n      iszero\n      tag_37\n      jumpi\n      0x00\n      dup1\n      revert\n    tag_37:\n      pop\n      gas\n      staticcall\n      iszero\n      dup1\n      iszero\n      tag_39\n      jumpi\n      returndatasize\n      0x00\n      dup1\n      returndatacopy\n      revert(0x00, returndatasize)\n    tag_39:\n      pop\n      pop\n      pop\n      pop\n      mload(0x40)\n      returndatasize\n      not(0x1f)\n      0x1f\n      dup3\n      add\n      and\n      dup3\n      add\n      dup1\n      0x40\n      mstore\n      pop\n      dup2\n      add\n      swap1\n      tag_40\n      swap2\n      swap1\n      tag_41\n      jump\t// in\n    tag_40:\n        /* \"contracts/basics/03-SendMoneyExample.sol\":541:571  to.transfer(this.getBalance()) */\n      swap1\n      dup2\n      iszero\n      mul\n      swap1\n      mload(0x40)\n      0x00\n      mload(0x40)\n      dup1\n      dup4\n      sub\n      dup2\n      dup6\n      dup9\n      dup9\n      call\n      swap4\n      pop\n      pop\n      pop\n      pop\n      iszero\n      dup1\n      iszero\n      tag_43\n      jumpi\n      returndatasize\n      0x00\n      dup1\n      returndatacopy\n      revert(0x00, returndatasize)\n    tag_43:\n      pop\n        /* \"contracts/basics/03-SendMoneyExample.sol\":475:583  {\r... */\n      pop\n        /* \"contracts/basics/03-SendMoneyExample.sol\":444:583  if(lockedUntil<block.timestamp){\r... */\n    tag_36:\n        /* \"contracts/basics/03-SendMoneyExample.sol\":402:599  function withdrawMoney() public{\r... */\n      jump\t// out\n        /* \"contracts/basics/03-SendMoneyExample.sol\":155:292  function recieveMoney() public payable{\r... */\n    tag_26:\n        /* \"contracts/basics/03-SendMoneyExample.sol\":223:232  msg.value */\n      callvalue\n        /* \"contracts/basics/03-SendMoneyExample.sol\":204:219  balanceReceived */\n      0x00\n      dup1\n        /* \"contracts/basics/03-SendMoneyExample.sol\":204:232  balanceReceived += msg.value */\n      dup3\n      dup3\n      sload\n      tag_45\n      swap2\n      swap1\n      tag_46\n      jump\t// in\n    tag_45:\n      swap3\n      pop\n      pop\n      dup2\n      swap1\n      sstore\n      pop\n        /* \"contracts/basics/03-SendMoneyExample.sol\":275:284  1 minutes */\n      0x3c\n        /* \"contracts/basics/03-SendMoneyExample.sol\":257:272  block.timestamp */\n      timestamp\n        /* \"contracts/basics/03-SendMoneyExample.sol\":257:284  block.timestamp + 1 minutes */\n      tag_47\n      swap2\n      swap1\n      tag_46\n      jump\t// in\n    tag_47:\n        /* \"contracts/basics/03-SendMoneyExample.sol\":243:254  lockedUntil */\n      0x01\n        /* \"contracts/basics/03-SendMoneyExample.sol\":243:284  lockedUntil = block.timestamp + 1 minutes */\n      dup2\n      swap1\n      sstore\n      pop\n        /* \"contracts/basics/03-SendMoneyExample.sol\":155:292  function recieveMoney() public payable{\r... */\n      jump\t// out\n        /* \"contracts/basics/03-SendMoneyExample.sol\":125:148  uint public lockedUntil */\n    tag_29:\n      sload(0x01)\n      dup2\n      jump\t// out\n        /* \"#utility.yul\":7:162   */\n    tag_49:\n        /* \"#utility.yul\":61:66   */\n      0x00\n        /* \"#utility.yul\":99:105   */\n      dup2\n        /* \"#utility.yul\":86:106   */\n      calldataload\n        /* \"#utility.yul\":77:106   */\n      swap1\n      pop\n        /* \"#utility.yul\":115:156   */\n      tag_51\n        /* \"#utility.yul\":150:155   */\n      dup2\n        /* \"#utility.yul\":115:156   */\n      tag_52\n      jump\t// in\n    tag_51:\n        /* \"#utility.yul\":7:162   */\n      swap3\n      swap2\n      pop\n      pop\n      jump\t// out\n        /* \"#utility.yul\":168:311   */\n    tag_53:\n        /* \"#utility.yul\":225:230   */\n      0x00\n        /* \"#utility.yul\":256:262   */\n      dup2\n        /* \"#utility.yul\":250:263   */\n      mload\n        /* \"#utility.yul\":241:263   */\n      swap1\n      pop\n        /* \"#utility.yul\":272:305   */\n      tag_55\n        /* \"#utility.yul\":299:304   */\n      dup2\n        /* \"#utility.yul\":272:305   */\n      tag_56\n      jump\t// in\n    tag_55:\n        /* \"#utility.yul\":168:311   */\n      swap3\n      swap2\n      pop\n      pop\n      jump\t// out\n        /* \"#utility.yul\":317:662   */\n    tag_16:\n        /* \"#utility.yul\":384:390   */\n      0x00\n        /* \"#utility.yul\":433:435   */\n      0x20\n        /* \"#utility.yul\":421:430   */\n      dup3\n        /* \"#utility.yul\":412:419   */\n      dup5\n        /* \"#utility.yul\":408:431   */\n      sub\n        /* \"#utility.yul\":404:436   */\n      slt\n        /* \"#utility.yul\":401:520   */\n      iszero\n      tag_58\n      jumpi\n        /* \"#utility.yul\":439:518   */\n      tag_59\n      tag_60\n      jump\t// in\n    tag_59:\n        /* \"#utility.yul\":401:520   */\n    tag_58:\n        /* \"#utility.yul\":559:560   */\n      0x00\n        /* \"#utility.yul\":584:645   */\n      tag_61\n        /* \"#utility.yul\":637:644   */\n      dup5\n        /* \"#utility.yul\":628:634   */\n      dup3\n        /* \"#utility.yul\":617:626   */\n      dup6\n        /* \"#utility.yul\":613:635   */\n      add\n        /* \"#utility.yul\":584:645   */\n      tag_49\n      jump\t// in\n    tag_61:\n        /* \"#utility.yul\":574:645   */\n      swap2\n      pop\n        /* \"#utility.yul\":530:655   */\n      pop\n        /* \"#utility.yul\":317:662   */\n      swap3\n      swap2\n      pop\n      pop\n      jump\t// out\n        /* \"#utility.yul\":668:1019   */\n    tag_41:\n        /* \"#utility.yul\":738:744   */\n      0x00\n        /* \"#utility.yul\":787:789   */\n      0x20\n        /* \"#utility.yul\":775:784   */\n      dup3\n        /* \"#utility.yul\":766:773   */\n      dup5\n        /* \"#utility.yul\":762:785   */\n      sub\n        /* \"#utility.yul\":758:790   */\n      slt\n        /* \"#utility.yul\":755:874   */\n      iszero\n      tag_63\n      jumpi\n        /* \"#utility.yul\":793:872   */\n      tag_64\n      tag_60\n      jump\t// in\n    tag_64:\n        /* \"#utility.yul\":755:874   */\n    tag_63:\n        /* \"#utility.yul\":913:914   */\n      0x00\n        /* \"#utility.yul\":938:1002   */\n      tag_65\n        /* \"#utility.yul\":994:1001   */\n      dup5\n        /* \"#utility.yul\":985:991   */\n      dup3\n        /* \"#utility.yul\":974:983   */\n      dup6\n        /* \"#utility.yul\":970:992   */\n      add\n        /* \"#utility.yul\":938:1002   */\n      tag_53\n      jump\t// in\n    tag_65:\n        /* \"#utility.yul\":928:1002   */\n      swap2\n      pop\n        /* \"#utility.yul\":884:1012   */\n      pop\n        /* \"#utility.yul\":668:1019   */\n      swap3\n      swap2\n      pop\n      pop\n      jump\t// out\n        /* \"#utility.yul\":1025:1143   */\n    tag_66:\n        /* \"#utility.yul\":1112:1136   */\n      tag_68\n        /* \"#utility.yul\":1130:1135   */\n      dup2\n        /* \"#utility.yul\":1112:1136   */\n      tag_69\n      jump\t// in\n    tag_68:\n        /* \"#utility.yul\":1107:1110   */\n      dup3\n        /* \"#utility.yul\":1100:1137   */\n      mstore\n        /* \"#utility.yul\":1025:1143   */\n      pop\n      pop\n      jump\t// out\n        /* \"#utility.yul\":1149:1371   */\n    tag_12:\n        /* \"#utility.yul\":1242:1246   */\n      0x00\n        /* \"#utility.yul\":1280:1282   */\n      0x20\n        /* \"#utility.yul\":1269:1278   */\n      dup3\n        /* \"#utility.yul\":1265:1283   */\n      add\n        /* \"#utility.yul\":1257:1283   */\n      swap1\n      pop\n        /* \"#utility.yul\":1293:1364   */\n      tag_71\n        /* \"#utility.yul\":1361:1362   */\n      0x00\n        /* \"#utility.yul\":1350:1359   */\n      dup4\n        /* \"#utility.yul\":1346:1363   */\n      add\n        /* \"#utility.yul\":1337:1343   */\n      dup5\n        /* \"#utility.yul\":1293:1364   */\n      tag_66\n      jump\t// in\n    tag_71:\n        /* \"#utility.yul\":1149:1371   */\n      swap3\n      swap2\n      pop\n      pop\n      jump\t// out\n        /* \"#utility.yul\":1458:1763   */\n    tag_46:\n        /* \"#utility.yul\":1498:1501   */\n      0x00\n        /* \"#utility.yul\":1517:1537   */\n      tag_75\n        /* \"#utility.yul\":1535:1536   */\n      dup3\n        /* \"#utility.yul\":1517:1537   */\n      tag_69\n      jump\t// in\n    tag_75:\n        /* \"#utility.yul\":1512:1537   */\n      swap2\n      pop\n        /* \"#utility.yul\":1551:1571   */\n      tag_76\n        /* \"#utility.yul\":1569:1570   */\n      dup4\n        /* \"#utility.yul\":1551:1571   */\n      tag_69\n      jump\t// in\n    tag_76:\n        /* \"#utility.yul\":1546:1571   */\n      swap3\n      pop\n        /* \"#utility.yul\":1705:1706   */\n      dup3\n        /* \"#utility.yul\":1637:1703   */\n      0xffffffffffffffffffffffffffffffffffffffffffffffffffffffffffffffff\n        /* \"#utility.yul\":1633:1707   */\n      sub\n        /* \"#utility.yul\":1630:1631   */\n      dup3\n        /* \"#utility.yul\":1627:1708   */\n      gt\n        /* \"#utility.yul\":1624:1731   */\n      iszero\n      tag_77\n      jumpi\n        /* \"#utility.yul\":1711:1729   */\n      tag_78\n      tag_79\n      jump\t// in\n    tag_78:\n        /* \"#utility.yul\":1624:1731   */\n    tag_77:\n        /* \"#utility.yul\":1755:1756   */\n      dup3\n        /* \"#utility.yul\":1752:1753   */\n      dup3\n        /* \"#utility.yul\":1748:1757   */\n      add\n        /* \"#utility.yul\":1741:1757   */\n      swap1\n      pop\n        /* \"#utility.yul\":1458:1763   */\n      swap3\n      swap2\n      pop\n      pop\n      jump\t// out\n        /* \"#utility.yul\":1769:1873   */\n    tag_80:\n        /* \"#utility.yul\":1814:1821   */\n      0x00\n        /* \"#utility.yul\":1843:1867   */\n      tag_82\n        /* \"#utility.yul\":1861:1866   */\n      dup3\n        /* \"#utility.yul\":1843:1867   */\n      tag_83\n      jump\t// in\n    tag_82:\n        /* \"#utility.yul\":1832:1867   */\n      swap1\n      pop\n        /* \"#utility.yul\":1769:1873   */\n      swap2\n      swap1\n      pop\n      jump\t// out\n        /* \"#utility.yul\":1879:2005   */\n    tag_83:\n        /* \"#utility.yul\":1916:1923   */\n      0x00\n        /* \"#utility.yul\":1956:1998   */\n      0xffffffffffffffffffffffffffffffffffffffff\n        /* \"#utility.yul\":1949:1954   */\n      dup3\n        /* \"#utility.yul\":1945:1999   */\n      and\n        /* \"#utility.yul\":1934:1999   */\n      swap1\n      pop\n        /* \"#utility.yul\":1879:2005   */\n      swap2\n      swap1\n      pop\n      jump\t// out\n        /* \"#utility.yul\":2011:2088   */\n    tag_69:\n        /* \"#utility.yul\":2048:2055   */\n      0x00\n        /* \"#utility.yul\":2077:2082   */\n      dup2\n        /* \"#utility.yul\":2066:2082   */\n      swap1\n      pop\n        /* \"#utility.yul\":2011:2088   */\n      swap2\n      swap1\n      pop\n      jump\t// out\n        /* \"#utility.yul\":2094:2274   */\n    tag_79:\n        /* \"#utility.yul\":2142:2219   */\n      0x4e487b7100000000000000000000000000000000000000000000000000000000\n        /* \"#utility.yul\":2139:2140   */\n      0x00\n        /* \"#utility.yul\":2132:2220   */\n      mstore\n        /* \"#utility.yul\":2239:2243   */\n      0x11\n        /* \"#utility.yul\":2236:2237   */\n      0x04\n        /* \"#utility.yul\":2229:2244   */\n      mstore\n        /* \"#utility.yul\":2263:2267   */\n      0x24\n        /* \"#utility.yul\":2260:2261   */\n      0x00\n        /* \"#utility.yul\":2253:2268   */\n      revert\n        /* \"#utility.yul\":2403:2520   */\n    tag_60:\n        /* \"#utility.yul\":2512:2513   */\n      0x00\n        /* \"#utility.yul\":2509:2510   */\n      dup1\n        /* \"#utility.yul\":2502:2514   */\n      revert\n        /* \"#utility.yul\":2526:2664   */\n    tag_52:\n        /* \"#utility.yul\":2607:2639   */\n      tag_91\n        /* \"#utility.yul\":2633:2638   */\n      dup2\n        /* \"#utility.yul\":2607:2639   */\n      tag_80\n      jump\t// in\n    tag_91:\n        /* \"#utility.yul\":2600:2605   */\n      dup2\n        /* \"#utility.yul\":2597:2640   */\n      eq\n        /* \"#utility.yul\":2587:2658   */\n      tag_92\n      jumpi\n        /* \"#utility.yul\":2654:2655   */\n      0x00\n        /* \"#utility.yul\":2651:2652   */\n      dup1\n        /* \"#utility.yul\":2644:2656   */\n      revert\n        /* \"#utility.yul\":2587:2658   */\n    tag_92:\n        /* \"#utility.yul\":2526:2664   */\n      pop\n      jump\t// out\n        /* \"#utility.yul\":2670:2792   */\n    tag_56:\n        /* \"#utility.yul\":2743:2767   */\n      tag_94\n        /* \"#utility.yul\":2761:2766   */\n      dup2\n        /* \"#utility.yul\":2743:2767   */\n      tag_69\n      jump\t// in\n    tag_94:\n        /* \"#utility.yul\":2736:2741   */\n      dup2\n        /* \"#utility.yul\":2733:2768   */\n      eq\n        /* \"#utility.yul\":2723:2786   */\n      tag_95\n      jumpi\n        /* \"#utility.yul\":2782:2783   */\n      0x00\n        /* \"#utility.yul\":2779:2780   */\n      dup1\n        /* \"#utility.yul\":2772:2784   */\n      revert\n        /* \"#utility.yul\":2723:2786   */\n    tag_95:\n        /* \"#utility.yul\":2670:2792   */\n      pop\n      jump\t// out\n\n    auxdata: 0xa264697066735822122026674ed5bf27a4caa03d96182e5d596aea022b91557289fd9dfe2269fbbd838b64736f6c63430008070033\n}\n",
				"bytecode": {
					"linkReferences": {},
					"object": "608060405234801561001057600080fd5b5061045f806100206000396000f3fe6080604052600436106100555760003560e01c806312065fe01461005a578063338ccd781461008557806352a90c42146100ae578063ac446002146100d9578063cca955a0146100f0578063ce0617ec146100fa575b600080fd5b34801561006657600080fd5b5061006f610125565b60405161007c919061031a565b60405180910390f35b34801561009157600080fd5b506100ac60048036038101906100a791906102b1565b61012d565b005b3480156100ba57600080fd5b506100c3610177565b6040516100d0919061031a565b60405180910390f35b3480156100e557600080fd5b506100ee61017d565b005b6100f8610254565b005b34801561010657600080fd5b5061010f610281565b60405161011c919061031a565b60405180910390f35b600047905090565b8073ffffffffffffffffffffffffffffffffffffffff166108fc479081150290604051600060405180830381858888f19350505050158015610173573d6000803e3d6000fd5b5050565b60005481565b4260015410156102525760003390508073ffffffffffffffffffffffffffffffffffffffff166108fc3073ffffffffffffffffffffffffffffffffffffffff166312065fe06040518163ffffffff1660e01b815260040160206040518083038186803b1580156101ec57600080fd5b505afa158015610200573d6000803e3d6000fd5b505050506040513d601f19601f8201168201806040525081019061022491906102de565b9081150290604051600060405180830381858888f1935050505015801561024f573d6000803e3d6000fd5b50505b565b346000808282546102659190610335565b92505081905550603c426102799190610335565b600181905550565b60015481565b600081359050610296816103fb565b92915050565b6000815190506102ab81610412565b92915050565b6000602082840312156102c7576102c66103f6565b5b60006102d584828501610287565b91505092915050565b6000602082840312156102f4576102f36103f6565b5b60006103028482850161029c565b91505092915050565b610314816103bd565b82525050565b600060208201905061032f600083018461030b565b92915050565b6000610340826103bd565b915061034b836103bd565b9250827fffffffffffffffffffffffffffffffffffffffffffffffffffffffffffffffff038211156103805761037f6103c7565b5b828201905092915050565b60006103968261039d565b9050919050565b600073ffffffffffffffffffffffffffffffffffffffff82169050919050565b6000819050919050565b7f4e487b7100000000000000000000000000000000000000000000000000000000600052601160045260246000fd5b600080fd5b6104048161038b565b811461040f57600080fd5b50565b61041b816103bd565b811461042657600080fd5b5056fea264697066735822122026674ed5bf27a4caa03d96182e5d596aea022b91557289fd9dfe2269fbbd838b64736f6c63430008070033",
					"opcodes": "PUSH1 0x80 PUSH1 0x40 MSTORE CALLVALUE DUP1 ISZERO PUSH2 0x10 JUMPI PUSH1 0x0 DUP1 REVERT JUMPDEST POP PUSH2 0x45F DUP1 PUSH2 0x20 PUSH1 0x0 CODECOPY PUSH1 0x0 RETURN INVALID PUSH1 0x80 PUSH1 0x40 MSTORE PUSH1 0x4 CALLDATASIZE LT PUSH2 0x55 JUMPI PUSH1 0x0 CALLDATALOAD PUSH1 0xE0 SHR DUP1 PUSH4 0x12065FE0 EQ PUSH2 0x5A JUMPI DUP1 PUSH4 0x338CCD78 EQ PUSH2 0x85 JUMPI DUP1 PUSH4 0x52A90C42 EQ PUSH2 0xAE JUMPI DUP1 PUSH4 0xAC446002 EQ PUSH2 0xD9 JUMPI DUP1 PUSH4 0xCCA955A0 EQ PUSH2 0xF0 JUMPI DUP1 PUSH4 0xCE0617EC EQ PUSH2 0xFA JUMPI JUMPDEST PUSH1 0x0 DUP1 REVERT JUMPDEST CALLVALUE DUP1 ISZERO PUSH2 0x66 JUMPI PUSH1 0x0 DUP1 REVERT JUMPDEST POP PUSH2 0x6F PUSH2 0x125 JUMP JUMPDEST PUSH1 0x40 MLOAD PUSH2 0x7C SWAP2 SWAP1 PUSH2 0x31A JUMP JUMPDEST PUSH1 0x40 MLOAD DUP1 SWAP2 SUB SWAP1 RETURN JUMPDEST CALLVALUE DUP1 ISZERO PUSH2 0x91 JUMPI PUSH1 0x0 DUP1 REVERT JUMPDEST POP PUSH2 0xAC PUSH1 0x4 DUP1 CALLDATASIZE SUB DUP2 ADD SWAP1 PUSH2 0xA7 SWAP2 SWAP1 PUSH2 0x2B1 JUMP JUMPDEST PUSH2 0x12D JUMP JUMPDEST STOP JUMPDEST CALLVALUE DUP1 ISZERO PUSH2 0xBA JUMPI PUSH1 0x0 DUP1 REVERT JUMPDEST POP PUSH2 0xC3 PUSH2 0x177 JUMP JUMPDEST PUSH1 0x40 MLOAD PUSH2 0xD0 SWAP2 SWAP1 PUSH2 0x31A JUMP JUMPDEST PUSH1 0x40 MLOAD DUP1 SWAP2 SUB SWAP1 RETURN JUMPDEST CALLVALUE DUP1 ISZERO PUSH2 0xE5 JUMPI PUSH1 0x0 DUP1 REVERT JUMPDEST POP PUSH2 0xEE PUSH2 0x17D JUMP JUMPDEST STOP JUMPDEST PUSH2 0xF8 PUSH2 0x254 JUMP JUMPDEST STOP JUMPDEST CALLVALUE DUP1 ISZERO PUSH2 0x106 JUMPI PUSH1 0x0 DUP1 REVERT JUMPDEST POP PUSH2 0x10F PUSH2 0x281 JUMP JUMPDEST PUSH1 0x40 MLOAD PUSH2 0x11C SWAP2 SWAP1 PUSH2 0x31A JUMP JUMPDEST PUSH1 0x40 MLOAD DUP1 SWAP2 SUB SWAP1 RETURN JUMPDEST PUSH1 0x0 SELFBALANCE SWAP1 POP SWAP1 JUMP JUMPDEST DUP1 PUSH20 0xFFFFFFFFFFFFFFFFFFFFFFFFFFFFFFFFFFFFFFFF AND PUSH2 0x8FC SELFBALANCE SWAP1 DUP2 ISZERO MUL SWAP1 PUSH1 0x40 MLOAD PUSH1 0x0 PUSH1 0x40 MLOAD DUP1 DUP4 SUB DUP2 DUP6 DUP9 DUP9 CALL SWAP4 POP POP POP POP ISZERO DUP1 ISZERO PUSH2 0x173 JUMPI RETURNDATASIZE PUSH1 0x0 DUP1 RETURNDATACOPY RETURNDATASIZE PUSH1 0x0 REVERT JUMPDEST POP POP JUMP JUMPDEST PUSH1 0x0 SLOAD DUP2 JUMP JUMPDEST TIMESTAMP PUSH1 0x1 SLOAD LT ISZERO PUSH2 0x252 JUMPI PUSH1 0x0 CALLER SWAP1 POP DUP1 PUSH20 0xFFFFFFFFFFFFFFFFFFFFFFFFFFFFFFFFFFFFFFFF AND PUSH2 0x8FC ADDRESS PUSH20 0xFFFFFFFFFFFFFFFFFFFFFFFFFFFFFFFFFFFFFFFF AND PUSH4 0x12065FE0 PUSH1 0x40 MLOAD DUP2 PUSH4 0xFFFFFFFF AND PUSH1 0xE0 SHL DUP2 MSTORE PUSH1 0x4 ADD PUSH1 0x20 PUSH1 0x40 MLOAD DUP1 DUP4 SUB DUP2 DUP7 DUP1 EXTCODESIZE ISZERO DUP1 ISZERO PUSH2 0x1EC JUMPI PUSH1 0x0 DUP1 REVERT JUMPDEST POP GAS STATICCALL ISZERO DUP1 ISZERO PUSH2 0x200 JUMPI RETURNDATASIZE PUSH1 0x0 DUP1 RETURNDATACOPY RETURNDATASIZE PUSH1 0x0 REVERT JUMPDEST POP POP POP POP PUSH1 0x40 MLOAD RETURNDATASIZE PUSH1 0x1F NOT PUSH1 0x1F DUP3 ADD AND DUP3 ADD DUP1 PUSH1 0x40 MSTORE POP DUP2 ADD SWAP1 PUSH2 0x224 SWAP2 SWAP1 PUSH2 0x2DE JUMP JUMPDEST SWAP1 DUP2 ISZERO MUL SWAP1 PUSH1 0x40 MLOAD PUSH1 0x0 PUSH1 0x40 MLOAD DUP1 DUP4 SUB DUP2 DUP6 DUP9 DUP9 CALL SWAP4 POP POP POP POP ISZERO DUP1 ISZERO PUSH2 0x24F JUMPI RETURNDATASIZE PUSH1 0x0 DUP1 RETURNDATACOPY RETURNDATASIZE PUSH1 0x0 REVERT JUMPDEST POP POP JUMPDEST JUMP JUMPDEST CALLVALUE PUSH1 0x0 DUP1 DUP3 DUP3 SLOAD PUSH2 0x265 SWAP2 SWAP1 PUSH2 0x335 JUMP JUMPDEST SWAP3 POP POP DUP2 SWAP1 SSTORE POP PUSH1 0x3C TIMESTAMP PUSH2 0x279 SWAP2 SWAP1 PUSH2 0x335 JUMP JUMPDEST PUSH1 0x1 DUP2 SWAP1 SSTORE POP JUMP JUMPDEST PUSH1 0x1 SLOAD DUP2 JUMP JUMPDEST PUSH1 0x0 DUP2 CALLDATALOAD SWAP1 POP PUSH2 0x296 DUP2 PUSH2 0x3FB JUMP JUMPDEST SWAP3 SWAP2 POP POP JUMP JUMPDEST PUSH1 0x0 DUP2 MLOAD SWAP1 POP PUSH2 0x2AB DUP2 PUSH2 0x412 JUMP JUMPDEST SWAP3 SWAP2 POP POP JUMP JUMPDEST PUSH1 0x0 PUSH1 0x20 DUP3 DUP5 SUB SLT ISZERO PUSH2 0x2C7 JUMPI PUSH2 0x2C6 PUSH2 0x3F6 JUMP JUMPDEST JUMPDEST PUSH1 0x0 PUSH2 0x2D5 DUP5 DUP3 DUP6 ADD PUSH2 0x287 JUMP JUMPDEST SWAP2 POP POP SWAP3 SWAP2 POP POP JUMP JUMPDEST PUSH1 0x0 PUSH1 0x20 DUP3 DUP5 SUB SLT ISZERO PUSH2 0x2F4 JUMPI PUSH2 0x2F3 PUSH2 0x3F6 JUMP JUMPDEST JUMPDEST PUSH1 0x0 PUSH2 0x302 DUP5 DUP3 DUP6 ADD PUSH2 0x29C JUMP JUMPDEST SWAP2 POP POP SWAP3 SWAP2 POP POP JUMP JUMPDEST PUSH2 0x314 DUP2 PUSH2 0x3BD JUMP JUMPDEST DUP3 MSTORE POP POP JUMP JUMPDEST PUSH1 0x0 PUSH1 0x20 DUP3 ADD SWAP1 POP PUSH2 0x32F PUSH1 0x0 DUP4 ADD DUP5 PUSH2 0x30B JUMP JUMPDEST SWAP3 SWAP2 POP POP JUMP JUMPDEST PUSH1 0x0 PUSH2 0x340 DUP3 PUSH2 0x3BD JUMP JUMPDEST SWAP2 POP PUSH2 0x34B DUP4 PUSH2 0x3BD JUMP JUMPDEST SWAP3 POP DUP3 PUSH32 0xFFFFFFFFFFFFFFFFFFFFFFFFFFFFFFFFFFFFFFFFFFFFFFFFFFFFFFFFFFFFFFFF SUB DUP3 GT ISZERO PUSH2 0x380 JUMPI PUSH2 0x37F PUSH2 0x3C7 JUMP JUMPDEST JUMPDEST DUP3 DUP3 ADD SWAP1 POP SWAP3 SWAP2 POP POP JUMP JUMPDEST PUSH1 0x0 PUSH2 0x396 DUP3 PUSH2 0x39D JUMP JUMPDEST SWAP1 POP SWAP2 SWAP1 POP JUMP JUMPDEST PUSH1 0x0 PUSH20 0xFFFFFFFFFFFFFFFFFFFFFFFFFFFFFFFFFFFFFFFF DUP3 AND SWAP1 POP SWAP2 SWAP1 POP JUMP JUMPDEST PUSH1 0x0 DUP2 SWAP1 POP SWAP2 SWAP1 POP JUMP JUMPDEST PUSH32 0x4E487B7100000000000000000000000000000000000000000000000000000000 PUSH1 0x0 MSTORE PUSH1 0x11 PUSH1 0x4 MSTORE PUSH1 0x24 PUSH1 0x0 REVERT JUMPDEST PUSH1 0x0 DUP1 REVERT JUMPDEST PUSH2 0x404 DUP2 PUSH2 0x38B JUMP JUMPDEST DUP2 EQ PUSH2 0x40F JUMPI PUSH1 0x0 DUP1 REVERT JUMPDEST POP JUMP JUMPDEST PUSH2 0x41B DUP2 PUSH2 0x3BD JUMP JUMPDEST DUP2 EQ PUSH2 0x426 JUMPI PUSH1 0x0 DUP1 REVERT JUMPDEST POP JUMP INVALID LOG2 PUSH5 0x6970667358 0x22 SLT KECCAK256 0x26 PUSH8 0x4ED5BF27A4CAA03D SWAP7 XOR 0x2E 0x5D MSIZE PUSH11 0xEA022B91557289FD9DFE22 PUSH10 0xFBBD838B64736F6C6343 STOP ADDMOD SMOD STOP CALLER "
				},
				"gasEstimates": {
					"creation": {
						"codeDepositCost": "223800",
						"executionCost": "263",
						"totalCost": "224063"
					},
					"external": {
						"balanceReceived()": "2451",
						"getBalance()": "317",
						"lockedUntil()": "2517",
						"recieveMoney()": "infinite",
						"sendMoney(address)": "infinite",
						"withdrawMoney()": "infinite"
					}
				},
				"methodIdentifiers": {
					"balanceReceived()": "52a90c42",
					"getBalance()": "12065fe0",
					"lockedUntil()": "ce0617ec",
					"recieveMoney()": "cca955a0",
					"sendMoney(address)": "338ccd78",
					"withdrawMoney()": "ac446002"
				}
			},
			"storageLayout": {
				"storage": [
					{
						"astId": 3,
						"contract": "contracts/basics/03-SendMoneyExample.sol:SendMoneyExamples",
						"label": "balanceReceived",
						"offset": 0,
						"slot": "0",
						"type": "t_uint256"
					},
					{
						"astId": 5,
						"contract": "contracts/basics/03-SendMoneyExample.sol:SendMoneyExamples",
						"label": "lockedUntil",
						"offset": 0,
						"slot": "1",
						"type": "t_uint256"
					}
				],
				"types": {
					"t_uint256": {
						"encoding": "inplace",
						"label": "uint256",
						"numberOfBytes": "32"
					}
				}
			},
			"userdoc": {
				"kind": "user",
				"methods": {},
				"version": 1
			}
		}
	}
}