{
	"contracts/basics/09-FunctionsExample.sol": {
		"FunctionsExample": {
			"abi": [
				{
					"inputs": [],
					"stateMutability": "nonpayable",
					"type": "constructor"
				},
				{
					"inputs": [
						{
							"internalType": "address",
							"name": "",
							"type": "address"
						}
					],
					"name": "balanceReceived",
					"outputs": [
						{
							"internalType": "uint256",
							"name": "",
							"type": "uint256"
						}
					],
					"stateMutability": "view",
					"type": "function"
				},
				{
					"inputs": [
						{
							"internalType": "uint256",
							"name": "amount",
							"type": "uint256"
						}
					],
					"name": "convertWeitoEther",
					"outputs": [
						{
							"internalType": "uint256",
							"name": "",
							"type": "uint256"
						}
					],
					"stateMutability": "pure",
					"type": "function"
				},
				{
					"inputs": [],
					"name": "destroySmartContract",
					"outputs": [],
					"stateMutability": "nonpayable",
					"type": "function"
				},
				{
					"inputs": [],
					"name": "fall",
					"outputs": [],
					"stateMutability": "payable",
					"type": "function"
				},
				{
					"inputs": [],
					"name": "getOwner",
					"outputs": [
						{
							"internalType": "address",
							"name": "",
							"type": "address"
						}
					],
					"stateMutability": "view",
					"type": "function"
				},
				{
					"inputs": [],
					"name": "receiveMoney",
					"outputs": [],
					"stateMutability": "payable",
					"type": "function"
				},
				{
					"inputs": [
						{
							"internalType": "address payable",
							"name": "_to",
							"type": "address"
						},
						{
							"internalType": "uint256",
							"name": "_amount",
							"type": "uint256"
						}
					],
					"name": "withdrawMoney",
					"outputs": [],
					"stateMutability": "nonpayable",
					"type": "function"
				}
			],
			"devdoc": {
				"kind": "dev",
				"methods": {},
				"version": 1
			},
			"evm": {
				"assembly": "    /* \"contracts/basics/09-FunctionsExample.sol\":55:1153  contract FunctionsExample{\r... */\n  mstore(0x40, 0x80)\n    /* \"contracts/basics/09-FunctionsExample.sol\":170:229  constructor(){\r... */\n  callvalue\n  dup1\n  iszero\n  tag_1\n  jumpi\n  0x00\n  dup1\n  revert\ntag_1:\n  pop\n    /* \"contracts/basics/09-FunctionsExample.sol\":210:220  msg.sender */\n  caller\n    /* \"contracts/basics/09-FunctionsExample.sol\":194:199  owner */\n  0x01\n  0x00\n    /* \"contracts/basics/09-FunctionsExample.sol\":194:221  owner = payable(msg.sender) */\n  0x0100\n  exp\n  dup2\n  sload\n  dup2\n  0xffffffffffffffffffffffffffffffffffffffff\n  mul\n  not\n  and\n  swap1\n  dup4\n  0xffffffffffffffffffffffffffffffffffffffff\n  and\n  mul\n  or\n  swap1\n  sstore\n  pop\n    /* \"contracts/basics/09-FunctionsExample.sol\":55:1153  contract FunctionsExample{\r... */\n  dataSize(sub_0)\n  dup1\n  dataOffset(sub_0)\n  0x00\n  codecopy\n  0x00\n  return\nstop\n\nsub_0: assembly {\n        /* \"contracts/basics/09-FunctionsExample.sol\":55:1153  contract FunctionsExample{\r... */\n      mstore(0x40, 0x80)\n      jumpi(tag_1, lt(calldatasize, 0x04))\n      shr(0xe0, calldataload(0x00))\n      dup1\n      0x893d20e8\n      gt\n      tag_9\n      jumpi\n      dup1\n      0x893d20e8\n      eq\n      tag_5\n      jumpi\n      dup1\n      0x935fb73d\n      eq\n      tag_6\n      jumpi\n      dup1\n      0xd18a42e1\n      eq\n      tag_7\n      jumpi\n      dup1\n      0xf274c897\n      eq\n      tag_8\n      jumpi\n      jump(tag_1)\n    tag_9:\n      dup1\n      0x0cf2f2c1\n      eq\n      tag_2\n      jumpi\n      dup1\n      0x6d26ec18\n      eq\n      tag_3\n      jumpi\n      dup1\n      0x85474728\n      eq\n      tag_4\n      jumpi\n    tag_1:\n      0x00\n      dup1\n      revert\n        /* \"contracts/basics/09-FunctionsExample.sol\":1085:1150  function fall() external payable{\r... */\n    tag_2:\n      tag_10\n      tag_11\n      jump\t// in\n    tag_10:\n      stop\n        /* \"contracts/basics/09-FunctionsExample.sol\":560:752  function receiveMoney() public payable{\r... */\n    tag_3:\n      tag_12\n      tag_13\n      jump\t// in\n    tag_12:\n      stop\n        /* \"contracts/basics/09-FunctionsExample.sol\":415:552  function destroySmartContract() public{\r... */\n    tag_4:\n      callvalue\n      dup1\n      iszero\n      tag_14\n      jumpi\n      0x00\n      dup1\n      revert\n    tag_14:\n      pop\n      tag_15\n      tag_16\n      jump\t// in\n    tag_15:\n      stop\n        /* \"contracts/basics/09-FunctionsExample.sol\":237:316  function getOwner() public view returns(address){\r... */\n    tag_5:\n      callvalue\n      dup1\n      iszero\n      tag_17\n      jumpi\n      0x00\n      dup1\n      revert\n    tag_17:\n      pop\n      tag_18\n      tag_19\n      jump\t// in\n    tag_18:\n      mload(0x40)\n      tag_20\n      swap2\n      swap1\n      tag_21\n      jump\t// in\n    tag_20:\n      mload(0x40)\n      dup1\n      swap2\n      sub\n      swap1\n      return\n        /* \"contracts/basics/09-FunctionsExample.sol\":324:407  function convertWeitoEther(uint amount) public pure returns(uint){\r... */\n    tag_6:\n      callvalue\n      dup1\n      iszero\n      tag_22\n      jumpi\n      0x00\n      dup1\n      revert\n    tag_22:\n      pop\n      tag_23\n      0x04\n      dup1\n      calldatasize\n      sub\n      dup2\n      add\n      swap1\n      tag_24\n      swap2\n      swap1\n      tag_25\n      jump\t// in\n    tag_24:\n      tag_26\n      jump\t// in\n    tag_23:\n      mload(0x40)\n      tag_27\n      swap2\n      swap1\n      tag_28\n      jump\t// in\n    tag_27:\n      mload(0x40)\n      dup1\n      swap2\n      sub\n      swap1\n      return\n        /* \"contracts/basics/09-FunctionsExample.sol\":87:133  mapping(address=> uint) public balanceReceived */\n    tag_7:\n      callvalue\n      dup1\n      iszero\n      tag_29\n      jumpi\n      0x00\n      dup1\n      revert\n    tag_29:\n      pop\n      tag_30\n      0x04\n      dup1\n      calldatasize\n      sub\n      dup2\n      add\n      swap1\n      tag_31\n      swap2\n      swap1\n      tag_32\n      jump\t// in\n    tag_31:\n      tag_33\n      jump\t// in\n    tag_30:\n      mload(0x40)\n      tag_34\n      swap2\n      swap1\n      tag_28\n      jump\t// in\n    tag_34:\n      mload(0x40)\n      dup1\n      swap2\n      sub\n      swap1\n      return\n        /* \"contracts/basics/09-FunctionsExample.sol\":760:1077  function withdrawMoney(address payable _to, uint _amount) public{\r... */\n    tag_8:\n      callvalue\n      dup1\n      iszero\n      tag_35\n      jumpi\n      0x00\n      dup1\n      revert\n    tag_35:\n      pop\n      tag_36\n      0x04\n      dup1\n      calldatasize\n      sub\n      dup2\n      add\n      swap1\n      tag_37\n      swap2\n      swap1\n      tag_38\n      jump\t// in\n    tag_37:\n      tag_39\n      jump\t// in\n    tag_36:\n      stop\n        /* \"contracts/basics/09-FunctionsExample.sol\":1085:1150  function fall() external payable{\r... */\n    tag_11:\n        /* \"contracts/basics/09-FunctionsExample.sol\":1128:1142  receiveMoney() */\n      tag_41\n        /* \"contracts/basics/09-FunctionsExample.sol\":1128:1140  receiveMoney */\n      tag_13\n        /* \"contracts/basics/09-FunctionsExample.sol\":1128:1142  receiveMoney() */\n      jump\t// in\n    tag_41:\n        /* \"contracts/basics/09-FunctionsExample.sol\":1085:1150  function fall() external payable{\r... */\n      jump\t// out\n        /* \"contracts/basics/09-FunctionsExample.sol\":560:752  function receiveMoney() public payable{\r... */\n    tag_13:\n        /* \"contracts/basics/09-FunctionsExample.sol\":661:676  balanceReceived */\n      0x00\n        /* \"contracts/basics/09-FunctionsExample.sol\":661:688  balanceReceived[msg.sender] */\n      dup1\n        /* \"contracts/basics/09-FunctionsExample.sol\":677:687  msg.sender */\n      caller\n        /* \"contracts/basics/09-FunctionsExample.sol\":661:688  balanceReceived[msg.sender] */\n      0xffffffffffffffffffffffffffffffffffffffff\n      and\n      0xffffffffffffffffffffffffffffffffffffffff\n      and\n      dup2\n      mstore\n      0x20\n      add\n      swap1\n      dup2\n      mstore\n      0x20\n      add\n      0x00\n      keccak256\n      sload\n        /* \"contracts/basics/09-FunctionsExample.sol\":649:658  msg.value */\n      callvalue\n        /* \"contracts/basics/09-FunctionsExample.sol\":616:631  balanceReceived */\n      0x00\n        /* \"contracts/basics/09-FunctionsExample.sol\":616:643  balanceReceived[msg.sender] */\n      dup1\n        /* \"contracts/basics/09-FunctionsExample.sol\":632:642  msg.sender */\n      caller\n        /* \"contracts/basics/09-FunctionsExample.sol\":616:643  balanceReceived[msg.sender] */\n      0xffffffffffffffffffffffffffffffffffffffff\n      and\n      0xffffffffffffffffffffffffffffffffffffffff\n      and\n      dup2\n      mstore\n      0x20\n      add\n      swap1\n      dup2\n      mstore\n      0x20\n      add\n      0x00\n      keccak256\n      sload\n        /* \"contracts/basics/09-FunctionsExample.sol\":616:659  balanceReceived[msg.sender]+uint(msg.value) */\n      tag_43\n      swap2\n      swap1\n      tag_44\n      jump\t// in\n    tag_43:\n        /* \"contracts/basics/09-FunctionsExample.sol\":616:688  balanceReceived[msg.sender]+uint(msg.value)>=balanceReceived[msg.sender] */\n      lt\n      iszero\n        /* \"contracts/basics/09-FunctionsExample.sol\":609:689  assert(balanceReceived[msg.sender]+uint(msg.value)>=balanceReceived[msg.sender]) */\n      tag_45\n      jumpi\n      mstore(0x00, 0x4e487b7100000000000000000000000000000000000000000000000000000000)\n      mstore(0x04, 0x01)\n      revert(0x00, 0x24)\n    tag_45:\n        /* \"contracts/basics/09-FunctionsExample.sol\":734:743  msg.value */\n      callvalue\n        /* \"contracts/basics/09-FunctionsExample.sol\":700:715  balanceReceived */\n      0x00\n        /* \"contracts/basics/09-FunctionsExample.sol\":700:727  balanceReceived[msg.sender] */\n      dup1\n        /* \"contracts/basics/09-FunctionsExample.sol\":716:726  msg.sender */\n      caller\n        /* \"contracts/basics/09-FunctionsExample.sol\":700:727  balanceReceived[msg.sender] */\n      0xffffffffffffffffffffffffffffffffffffffff\n      and\n      0xffffffffffffffffffffffffffffffffffffffff\n      and\n      dup2\n      mstore\n      0x20\n      add\n      swap1\n      dup2\n      mstore\n      0x20\n      add\n      0x00\n      keccak256\n      0x00\n        /* \"contracts/basics/09-FunctionsExample.sol\":700:744  balanceReceived[msg.sender]+=uint(msg.value) */\n      dup3\n      dup3\n      sload\n      tag_46\n      swap2\n      swap1\n      tag_44\n      jump\t// in\n    tag_46:\n      swap3\n      pop\n      pop\n      dup2\n      swap1\n      sstore\n      pop\n        /* \"contracts/basics/09-FunctionsExample.sol\":560:752  function receiveMoney() public payable{\r... */\n      jump\t// out\n        /* \"contracts/basics/09-FunctionsExample.sol\":415:552  function destroySmartContract() public{\r... */\n    tag_16:\n        /* \"contracts/basics/09-FunctionsExample.sol\":484:489  owner */\n      0x01\n      0x00\n      swap1\n      sload\n      swap1\n      0x0100\n      exp\n      swap1\n      div\n      0xffffffffffffffffffffffffffffffffffffffff\n      and\n        /* \"contracts/basics/09-FunctionsExample.sol\":472:489  msg.sender==owner */\n      0xffffffffffffffffffffffffffffffffffffffff\n      and\n        /* \"contracts/basics/09-FunctionsExample.sol\":472:482  msg.sender */\n      caller\n        /* \"contracts/basics/09-FunctionsExample.sol\":472:489  msg.sender==owner */\n      0xffffffffffffffffffffffffffffffffffffffff\n      and\n      eq\n        /* \"contracts/basics/09-FunctionsExample.sol\":464:514  require(msg.sender==owner,'You are not the owner') */\n      tag_48\n      jumpi\n      mload(0x40)\n      0x08c379a000000000000000000000000000000000000000000000000000000000\n      dup2\n      mstore\n      0x04\n      add\n      tag_49\n      swap1\n      tag_50\n      jump\t// in\n    tag_49:\n      mload(0x40)\n      dup1\n      swap2\n      sub\n      swap1\n      revert\n    tag_48:\n        /* \"contracts/basics/09-FunctionsExample.sol\":538:543  owner */\n      0x01\n      0x00\n      swap1\n      sload\n      swap1\n      0x0100\n      exp\n      swap1\n      div\n      0xffffffffffffffffffffffffffffffffffffffff\n      and\n        /* \"contracts/basics/09-FunctionsExample.sol\":525:544  selfdestruct(owner) */\n      0xffffffffffffffffffffffffffffffffffffffff\n      and\n      selfdestruct\n        /* \"contracts/basics/09-FunctionsExample.sol\":237:316  function getOwner() public view returns(address){\r... */\n    tag_19:\n        /* \"contracts/basics/09-FunctionsExample.sol\":277:284  address */\n      0x00\n        /* \"contracts/basics/09-FunctionsExample.sol\":303:308  owner */\n      0x01\n      0x00\n      swap1\n      sload\n      swap1\n      0x0100\n      exp\n      swap1\n      div\n      0xffffffffffffffffffffffffffffffffffffffff\n      and\n        /* \"contracts/basics/09-FunctionsExample.sol\":296:308  return owner */\n      swap1\n      pop\n        /* \"contracts/basics/09-FunctionsExample.sol\":237:316  function getOwner() public view returns(address){\r... */\n      swap1\n      jump\t// out\n        /* \"contracts/basics/09-FunctionsExample.sol\":324:407  function convertWeitoEther(uint amount) public pure returns(uint){\r... */\n    tag_26:\n        /* \"contracts/basics/09-FunctionsExample.sol\":384:388  uint */\n      0x00\n        /* \"contracts/basics/09-FunctionsExample.sol\":324:407  function convertWeitoEther(uint amount) public pure returns(uint){\r... */\n      swap2\n      swap1\n      pop\n      jump\t// out\n        /* \"contracts/basics/09-FunctionsExample.sol\":87:133  mapping(address=> uint) public balanceReceived */\n    tag_33:\n      mstore(0x20, 0x00)\n      dup1\n      0x00\n      mstore\n      keccak256(0x00, 0x40)\n      0x00\n      swap2\n      pop\n      swap1\n      pop\n      sload\n      dup2\n      jump\t// out\n        /* \"contracts/basics/09-FunctionsExample.sol\":760:1077  function withdrawMoney(address payable _to, uint _amount) public{\r... */\n    tag_39:\n        /* \"contracts/basics/09-FunctionsExample.sol\":851:866  balanceReceived */\n      0x00\n        /* \"contracts/basics/09-FunctionsExample.sol\":851:878  balanceReceived[msg.sender] */\n      dup1\n        /* \"contracts/basics/09-FunctionsExample.sol\":867:877  msg.sender */\n      caller\n        /* \"contracts/basics/09-FunctionsExample.sol\":851:878  balanceReceived[msg.sender] */\n      0xffffffffffffffffffffffffffffffffffffffff\n      and\n      0xffffffffffffffffffffffffffffffffffffffff\n      and\n      dup2\n      mstore\n      0x20\n      add\n      swap1\n      dup2\n      mstore\n      0x20\n      add\n      0x00\n      keccak256\n      sload\n        /* \"contracts/basics/09-FunctionsExample.sol\":842:849  _amount */\n      dup2\n        /* \"contracts/basics/09-FunctionsExample.sol\":842:878  _amount<=balanceReceived[msg.sender] */\n      gt\n      iszero\n        /* \"contracts/basics/09-FunctionsExample.sol\":834:908  require(_amount<=balanceReceived[msg.sender],'You dont have enough funds') */\n      tag_54\n      jumpi\n      mload(0x40)\n      0x08c379a000000000000000000000000000000000000000000000000000000000\n      dup2\n      mstore\n      0x04\n      add\n      tag_55\n      swap1\n      tag_56\n      jump\t// in\n    tag_55:\n      mload(0x40)\n      dup1\n      swap2\n      sub\n      swap1\n      revert\n    tag_54:\n        /* \"contracts/basics/09-FunctionsExample.sol\":982:989  _amount */\n      dup1\n        /* \"contracts/basics/09-FunctionsExample.sol\":954:969  balanceReceived */\n      0x00\n        /* \"contracts/basics/09-FunctionsExample.sol\":954:981  balanceReceived[msg.sender] */\n      dup1\n        /* \"contracts/basics/09-FunctionsExample.sol\":970:980  msg.sender */\n      caller\n        /* \"contracts/basics/09-FunctionsExample.sol\":954:981  balanceReceived[msg.sender] */\n      0xffffffffffffffffffffffffffffffffffffffff\n      and\n      0xffffffffffffffffffffffffffffffffffffffff\n      and\n      dup2\n      mstore\n      0x20\n      add\n      swap1\n      dup2\n      mstore\n      0x20\n      add\n      0x00\n      keccak256\n      sload\n        /* \"contracts/basics/09-FunctionsExample.sol\":954:989  balanceReceived[msg.sender]-_amount */\n      tag_57\n      swap2\n      swap1\n      tag_58\n      jump\t// in\n    tag_57:\n        /* \"contracts/basics/09-FunctionsExample.sol\":925:940  balanceReceived */\n      0x00\n        /* \"contracts/basics/09-FunctionsExample.sol\":925:952  balanceReceived[msg.sender] */\n      dup1\n        /* \"contracts/basics/09-FunctionsExample.sol\":941:951  msg.sender */\n      caller\n        /* \"contracts/basics/09-FunctionsExample.sol\":925:952  balanceReceived[msg.sender] */\n      0xffffffffffffffffffffffffffffffffffffffff\n      and\n      0xffffffffffffffffffffffffffffffffffffffff\n      and\n      dup2\n      mstore\n      0x20\n      add\n      swap1\n      dup2\n      mstore\n      0x20\n      add\n      0x00\n      keccak256\n      sload\n        /* \"contracts/basics/09-FunctionsExample.sol\":925:989  balanceReceived[msg.sender]>=balanceReceived[msg.sender]-_amount */\n      lt\n      iszero\n        /* \"contracts/basics/09-FunctionsExample.sol\":918:990  assert(balanceReceived[msg.sender]>=balanceReceived[msg.sender]-_amount) */\n      tag_59\n      jumpi\n      mstore(0x00, 0x4e487b7100000000000000000000000000000000000000000000000000000000)\n      mstore(0x04, 0x01)\n      revert(0x00, 0x24)\n    tag_59:\n        /* \"contracts/basics/09-FunctionsExample.sol\":1031:1038  _amount */\n      dup1\n        /* \"contracts/basics/09-FunctionsExample.sol\":1000:1015  balanceReceived */\n      0x00\n        /* \"contracts/basics/09-FunctionsExample.sol\":1000:1027  balanceReceived[msg.sender] */\n      dup1\n        /* \"contracts/basics/09-FunctionsExample.sol\":1016:1026  msg.sender */\n      caller\n        /* \"contracts/basics/09-FunctionsExample.sol\":1000:1027  balanceReceived[msg.sender] */\n      0xffffffffffffffffffffffffffffffffffffffff\n      and\n      0xffffffffffffffffffffffffffffffffffffffff\n      and\n      dup2\n      mstore\n      0x20\n      add\n      swap1\n      dup2\n      mstore\n      0x20\n      add\n      0x00\n      keccak256\n      0x00\n        /* \"contracts/basics/09-FunctionsExample.sol\":1000:1038  balanceReceived[msg.sender] -= _amount */\n      dup3\n      dup3\n      sload\n      tag_60\n      swap2\n      swap1\n      tag_58\n      jump\t// in\n    tag_60:\n      swap3\n      pop\n      pop\n      dup2\n      swap1\n      sstore\n      pop\n        /* \"contracts/basics/09-FunctionsExample.sol\":1048:1051  _to */\n      dup2\n        /* \"contracts/basics/09-FunctionsExample.sol\":1048:1060  _to.transfer */\n      0xffffffffffffffffffffffffffffffffffffffff\n      and\n        /* \"contracts/basics/09-FunctionsExample.sol\":1048:1069  _to.transfer(_amount) */\n      0x08fc\n        /* \"contracts/basics/09-FunctionsExample.sol\":1061:1068  _amount */\n      dup3\n        /* \"contracts/basics/09-FunctionsExample.sol\":1048:1069  _to.transfer(_amount) */\n      swap1\n      dup2\n      iszero\n      mul\n      swap1\n      mload(0x40)\n      0x00\n      mload(0x40)\n      dup1\n      dup4\n      sub\n      dup2\n      dup6\n      dup9\n      dup9\n      call\n      swap4\n      pop\n      pop\n      pop\n      pop\n      iszero\n      dup1\n      iszero\n      tag_62\n      jumpi\n      returndatasize\n      0x00\n      dup1\n      returndatacopy\n      revert(0x00, returndatasize)\n    tag_62:\n      pop\n        /* \"contracts/basics/09-FunctionsExample.sol\":760:1077  function withdrawMoney(address payable _to, uint _amount) public{\r... */\n      pop\n      pop\n      jump\t// out\n        /* \"#utility.yul\":7:146   */\n    tag_64:\n        /* \"#utility.yul\":53:58   */\n      0x00\n        /* \"#utility.yul\":91:97   */\n      dup2\n        /* \"#utility.yul\":78:98   */\n      calldataload\n        /* \"#utility.yul\":69:98   */\n      swap1\n      pop\n        /* \"#utility.yul\":107:140   */\n      tag_66\n        /* \"#utility.yul\":134:139   */\n      dup2\n        /* \"#utility.yul\":107:140   */\n      tag_67\n      jump\t// in\n    tag_66:\n        /* \"#utility.yul\":59:146   */\n      swap3\n      swap2\n      pop\n      pop\n      jump\t// out\n        /* \"#utility.yul\":152:307   */\n    tag_68:\n        /* \"#utility.yul\":206:211   */\n      0x00\n        /* \"#utility.yul\":244:250   */\n      dup2\n        /* \"#utility.yul\":231:251   */\n      calldataload\n        /* \"#utility.yul\":222:251   */\n      swap1\n      pop\n        /* \"#utility.yul\":260:301   */\n      tag_70\n        /* \"#utility.yul\":295:300   */\n      dup2\n        /* \"#utility.yul\":260:301   */\n      tag_71\n      jump\t// in\n    tag_70:\n        /* \"#utility.yul\":212:307   */\n      swap3\n      swap2\n      pop\n      pop\n      jump\t// out\n        /* \"#utility.yul\":313:452   */\n    tag_72:\n        /* \"#utility.yul\":359:364   */\n      0x00\n        /* \"#utility.yul\":397:403   */\n      dup2\n        /* \"#utility.yul\":384:404   */\n      calldataload\n        /* \"#utility.yul\":375:404   */\n      swap1\n      pop\n        /* \"#utility.yul\":413:446   */\n      tag_74\n        /* \"#utility.yul\":440:445   */\n      dup2\n        /* \"#utility.yul\":413:446   */\n      tag_75\n      jump\t// in\n    tag_74:\n        /* \"#utility.yul\":365:452   */\n      swap3\n      swap2\n      pop\n      pop\n      jump\t// out\n        /* \"#utility.yul\":458:720   */\n    tag_32:\n        /* \"#utility.yul\":517:523   */\n      0x00\n        /* \"#utility.yul\":566:568   */\n      0x20\n        /* \"#utility.yul\":554:563   */\n      dup3\n        /* \"#utility.yul\":545:552   */\n      dup5\n        /* \"#utility.yul\":541:564   */\n      sub\n        /* \"#utility.yul\":537:569   */\n      slt\n        /* \"#utility.yul\":534:536   */\n      iszero\n      tag_77\n      jumpi\n        /* \"#utility.yul\":582:583   */\n      0x00\n        /* \"#utility.yul\":579:580   */\n      dup1\n        /* \"#utility.yul\":572:584   */\n      revert\n        /* \"#utility.yul\":534:536   */\n    tag_77:\n        /* \"#utility.yul\":625:626   */\n      0x00\n        /* \"#utility.yul\":650:703   */\n      tag_78\n        /* \"#utility.yul\":695:702   */\n      dup5\n        /* \"#utility.yul\":686:692   */\n      dup3\n        /* \"#utility.yul\":675:684   */\n      dup6\n        /* \"#utility.yul\":671:693   */\n      add\n        /* \"#utility.yul\":650:703   */\n      tag_64\n      jump\t// in\n    tag_78:\n        /* \"#utility.yul\":640:703   */\n      swap2\n      pop\n        /* \"#utility.yul\":596:713   */\n      pop\n        /* \"#utility.yul\":524:720   */\n      swap3\n      swap2\n      pop\n      pop\n      jump\t// out\n        /* \"#utility.yul\":726:1149   */\n    tag_38:\n        /* \"#utility.yul\":802:808   */\n      0x00\n        /* \"#utility.yul\":810:816   */\n      dup1\n        /* \"#utility.yul\":859:861   */\n      0x40\n        /* \"#utility.yul\":847:856   */\n      dup4\n        /* \"#utility.yul\":838:845   */\n      dup6\n        /* \"#utility.yul\":834:857   */\n      sub\n        /* \"#utility.yul\":830:862   */\n      slt\n        /* \"#utility.yul\":827:829   */\n      iszero\n      tag_80\n      jumpi\n        /* \"#utility.yul\":875:876   */\n      0x00\n        /* \"#utility.yul\":872:873   */\n      dup1\n        /* \"#utility.yul\":865:877   */\n      revert\n        /* \"#utility.yul\":827:829   */\n    tag_80:\n        /* \"#utility.yul\":918:919   */\n      0x00\n        /* \"#utility.yul\":943:1004   */\n      tag_81\n        /* \"#utility.yul\":996:1003   */\n      dup6\n        /* \"#utility.yul\":987:993   */\n      dup3\n        /* \"#utility.yul\":976:985   */\n      dup7\n        /* \"#utility.yul\":972:994   */\n      add\n        /* \"#utility.yul\":943:1004   */\n      tag_68\n      jump\t// in\n    tag_81:\n        /* \"#utility.yul\":933:1004   */\n      swap3\n      pop\n        /* \"#utility.yul\":889:1014   */\n      pop\n        /* \"#utility.yul\":1053:1055   */\n      0x20\n        /* \"#utility.yul\":1079:1132   */\n      tag_82\n        /* \"#utility.yul\":1124:1131   */\n      dup6\n        /* \"#utility.yul\":1115:1121   */\n      dup3\n        /* \"#utility.yul\":1104:1113   */\n      dup7\n        /* \"#utility.yul\":1100:1122   */\n      add\n        /* \"#utility.yul\":1079:1132   */\n      tag_72\n      jump\t// in\n    tag_82:\n        /* \"#utility.yul\":1069:1132   */\n      swap2\n      pop\n        /* \"#utility.yul\":1024:1142   */\n      pop\n        /* \"#utility.yul\":817:1149   */\n      swap3\n      pop\n      swap3\n      swap1\n      pop\n      jump\t// out\n        /* \"#utility.yul\":1155:1417   */\n    tag_25:\n        /* \"#utility.yul\":1214:1220   */\n      0x00\n        /* \"#utility.yul\":1263:1265   */\n      0x20\n        /* \"#utility.yul\":1251:1260   */\n      dup3\n        /* \"#utility.yul\":1242:1249   */\n      dup5\n        /* \"#utility.yul\":1238:1261   */\n      sub\n        /* \"#utility.yul\":1234:1266   */\n      slt\n        /* \"#utility.yul\":1231:1233   */\n      iszero\n      tag_84\n      jumpi\n        /* \"#utility.yul\":1279:1280   */\n      0x00\n        /* \"#utility.yul\":1276:1277   */\n      dup1\n        /* \"#utility.yul\":1269:1281   */\n      revert\n        /* \"#utility.yul\":1231:1233   */\n    tag_84:\n        /* \"#utility.yul\":1322:1323   */\n      0x00\n        /* \"#utility.yul\":1347:1400   */\n      tag_85\n        /* \"#utility.yul\":1392:1399   */\n      dup5\n        /* \"#utility.yul\":1383:1389   */\n      dup3\n        /* \"#utility.yul\":1372:1381   */\n      dup6\n        /* \"#utility.yul\":1368:1390   */\n      add\n        /* \"#utility.yul\":1347:1400   */\n      tag_72\n      jump\t// in\n    tag_85:\n        /* \"#utility.yul\":1337:1400   */\n      swap2\n      pop\n        /* \"#utility.yul\":1293:1410   */\n      pop\n        /* \"#utility.yul\":1221:1417   */\n      swap3\n      swap2\n      pop\n      pop\n      jump\t// out\n        /* \"#utility.yul\":1423:1541   */\n    tag_86:\n        /* \"#utility.yul\":1510:1534   */\n      tag_88\n        /* \"#utility.yul\":1528:1533   */\n      dup2\n        /* \"#utility.yul\":1510:1534   */\n      tag_89\n      jump\t// in\n    tag_88:\n        /* \"#utility.yul\":1505:1508   */\n      dup3\n        /* \"#utility.yul\":1498:1535   */\n      mstore\n        /* \"#utility.yul\":1488:1541   */\n      pop\n      pop\n      jump\t// out\n        /* \"#utility.yul\":1547:1913   */\n    tag_90:\n        /* \"#utility.yul\":1689:1692   */\n      0x00\n        /* \"#utility.yul\":1710:1777   */\n      tag_92\n        /* \"#utility.yul\":1774:1776   */\n      0x1a\n        /* \"#utility.yul\":1769:1772   */\n      dup4\n        /* \"#utility.yul\":1710:1777   */\n      tag_93\n      jump\t// in\n    tag_92:\n        /* \"#utility.yul\":1703:1777   */\n      swap2\n      pop\n        /* \"#utility.yul\":1786:1879   */\n      tag_94\n        /* \"#utility.yul\":1875:1878   */\n      dup3\n        /* \"#utility.yul\":1786:1879   */\n      tag_95\n      jump\t// in\n    tag_94:\n        /* \"#utility.yul\":1904:1906   */\n      0x20\n        /* \"#utility.yul\":1899:1902   */\n      dup3\n        /* \"#utility.yul\":1895:1907   */\n      add\n        /* \"#utility.yul\":1888:1907   */\n      swap1\n      pop\n        /* \"#utility.yul\":1693:1913   */\n      swap2\n      swap1\n      pop\n      jump\t// out\n        /* \"#utility.yul\":1919:2285   */\n    tag_96:\n        /* \"#utility.yul\":2061:2064   */\n      0x00\n        /* \"#utility.yul\":2082:2149   */\n      tag_98\n        /* \"#utility.yul\":2146:2148   */\n      0x15\n        /* \"#utility.yul\":2141:2144   */\n      dup4\n        /* \"#utility.yul\":2082:2149   */\n      tag_93\n      jump\t// in\n    tag_98:\n        /* \"#utility.yul\":2075:2149   */\n      swap2\n      pop\n        /* \"#utility.yul\":2158:2251   */\n      tag_99\n        /* \"#utility.yul\":2247:2250   */\n      dup3\n        /* \"#utility.yul\":2158:2251   */\n      tag_100\n      jump\t// in\n    tag_99:\n        /* \"#utility.yul\":2276:2278   */\n      0x20\n        /* \"#utility.yul\":2271:2274   */\n      dup3\n        /* \"#utility.yul\":2267:2279   */\n      add\n        /* \"#utility.yul\":2260:2279   */\n      swap1\n      pop\n        /* \"#utility.yul\":2065:2285   */\n      swap2\n      swap1\n      pop\n      jump\t// out\n        /* \"#utility.yul\":2291:2409   */\n    tag_101:\n        /* \"#utility.yul\":2378:2402   */\n      tag_103\n        /* \"#utility.yul\":2396:2401   */\n      dup2\n        /* \"#utility.yul\":2378:2402   */\n      tag_104\n      jump\t// in\n    tag_103:\n        /* \"#utility.yul\":2373:2376   */\n      dup3\n        /* \"#utility.yul\":2366:2403   */\n      mstore\n        /* \"#utility.yul\":2356:2409   */\n      pop\n      pop\n      jump\t// out\n        /* \"#utility.yul\":2415:2637   */\n    tag_21:\n        /* \"#utility.yul\":2508:2512   */\n      0x00\n        /* \"#utility.yul\":2546:2548   */\n      0x20\n        /* \"#utility.yul\":2535:2544   */\n      dup3\n        /* \"#utility.yul\":2531:2549   */\n      add\n        /* \"#utility.yul\":2523:2549   */\n      swap1\n      pop\n        /* \"#utility.yul\":2559:2630   */\n      tag_106\n        /* \"#utility.yul\":2627:2628   */\n      0x00\n        /* \"#utility.yul\":2616:2625   */\n      dup4\n        /* \"#utility.yul\":2612:2629   */\n      add\n        /* \"#utility.yul\":2603:2609   */\n      dup5\n        /* \"#utility.yul\":2559:2630   */\n      tag_86\n      jump\t// in\n    tag_106:\n        /* \"#utility.yul\":2513:2637   */\n      swap3\n      swap2\n      pop\n      pop\n      jump\t// out\n        /* \"#utility.yul\":2643:3062   */\n    tag_56:\n        /* \"#utility.yul\":2809:2813   */\n      0x00\n        /* \"#utility.yul\":2847:2849   */\n      0x20\n        /* \"#utility.yul\":2836:2845   */\n      dup3\n        /* \"#utility.yul\":2832:2850   */\n      add\n        /* \"#utility.yul\":2824:2850   */\n      swap1\n      pop\n        /* \"#utility.yul\":2896:2905   */\n      dup2\n        /* \"#utility.yul\":2890:2894   */\n      dup2\n        /* \"#utility.yul\":2886:2906   */\n      sub\n        /* \"#utility.yul\":2882:2883   */\n      0x00\n        /* \"#utility.yul\":2871:2880   */\n      dup4\n        /* \"#utility.yul\":2867:2884   */\n      add\n        /* \"#utility.yul\":2860:2907   */\n      mstore\n        /* \"#utility.yul\":2924:3055   */\n      tag_108\n        /* \"#utility.yul\":3050:3054   */\n      dup2\n        /* \"#utility.yul\":2924:3055   */\n      tag_90\n      jump\t// in\n    tag_108:\n        /* \"#utility.yul\":2916:3055   */\n      swap1\n      pop\n        /* \"#utility.yul\":2814:3062   */\n      swap2\n      swap1\n      pop\n      jump\t// out\n        /* \"#utility.yul\":3068:3487   */\n    tag_50:\n        /* \"#utility.yul\":3234:3238   */\n      0x00\n        /* \"#utility.yul\":3272:3274   */\n      0x20\n        /* \"#utility.yul\":3261:3270   */\n      dup3\n        /* \"#utility.yul\":3257:3275   */\n      add\n        /* \"#utility.yul\":3249:3275   */\n      swap1\n      pop\n        /* \"#utility.yul\":3321:3330   */\n      dup2\n        /* \"#utility.yul\":3315:3319   */\n      dup2\n        /* \"#utility.yul\":3311:3331   */\n      sub\n        /* \"#utility.yul\":3307:3308   */\n      0x00\n        /* \"#utility.yul\":3296:3305   */\n      dup4\n        /* \"#utility.yul\":3292:3309   */\n      add\n        /* \"#utility.yul\":3285:3332   */\n      mstore\n        /* \"#utility.yul\":3349:3480   */\n      tag_110\n        /* \"#utility.yul\":3475:3479   */\n      dup2\n        /* \"#utility.yul\":3349:3480   */\n      tag_96\n      jump\t// in\n    tag_110:\n        /* \"#utility.yul\":3341:3480   */\n      swap1\n      pop\n        /* \"#utility.yul\":3239:3487   */\n      swap2\n      swap1\n      pop\n      jump\t// out\n        /* \"#utility.yul\":3493:3715   */\n    tag_28:\n        /* \"#utility.yul\":3586:3590   */\n      0x00\n        /* \"#utility.yul\":3624:3626   */\n      0x20\n        /* \"#utility.yul\":3613:3622   */\n      dup3\n        /* \"#utility.yul\":3609:3627   */\n      add\n        /* \"#utility.yul\":3601:3627   */\n      swap1\n      pop\n        /* \"#utility.yul\":3637:3708   */\n      tag_112\n        /* \"#utility.yul\":3705:3706   */\n      0x00\n        /* \"#utility.yul\":3694:3703   */\n      dup4\n        /* \"#utility.yul\":3690:3707   */\n      add\n        /* \"#utility.yul\":3681:3687   */\n      dup5\n        /* \"#utility.yul\":3637:3708   */\n      tag_101\n      jump\t// in\n    tag_112:\n        /* \"#utility.yul\":3591:3715   */\n      swap3\n      swap2\n      pop\n      pop\n      jump\t// out\n        /* \"#utility.yul\":3721:3890   */\n    tag_93:\n        /* \"#utility.yul\":3805:3816   */\n      0x00\n        /* \"#utility.yul\":3839:3845   */\n      dup3\n        /* \"#utility.yul\":3834:3837   */\n      dup3\n        /* \"#utility.yul\":3827:3846   */\n      mstore\n        /* \"#utility.yul\":3879:3883   */\n      0x20\n        /* \"#utility.yul\":3874:3877   */\n      dup3\n        /* \"#utility.yul\":3870:3884   */\n      add\n        /* \"#utility.yul\":3855:3884   */\n      swap1\n      pop\n        /* \"#utility.yul\":3817:3890   */\n      swap3\n      swap2\n      pop\n      pop\n      jump\t// out\n        /* \"#utility.yul\":3896:4201   */\n    tag_44:\n        /* \"#utility.yul\":3936:3939   */\n      0x00\n        /* \"#utility.yul\":3955:3975   */\n      tag_115\n        /* \"#utility.yul\":3973:3974   */\n      dup3\n        /* \"#utility.yul\":3955:3975   */\n      tag_104\n      jump\t// in\n    tag_115:\n        /* \"#utility.yul\":3950:3975   */\n      swap2\n      pop\n        /* \"#utility.yul\":3989:4009   */\n      tag_116\n        /* \"#utility.yul\":4007:4008   */\n      dup4\n        /* \"#utility.yul\":3989:4009   */\n      tag_104\n      jump\t// in\n    tag_116:\n        /* \"#utility.yul\":3984:4009   */\n      swap3\n      pop\n        /* \"#utility.yul\":4143:4144   */\n      dup3\n        /* \"#utility.yul\":4075:4141   */\n      0xffffffffffffffffffffffffffffffffffffffffffffffffffffffffffffffff\n        /* \"#utility.yul\":4071:4145   */\n      sub\n        /* \"#utility.yul\":4068:4069   */\n      dup3\n        /* \"#utility.yul\":4065:4146   */\n      gt\n        /* \"#utility.yul\":4062:4064   */\n      iszero\n      tag_117\n      jumpi\n        /* \"#utility.yul\":4149:4167   */\n      tag_118\n      tag_119\n      jump\t// in\n    tag_118:\n        /* \"#utility.yul\":4062:4064   */\n    tag_117:\n        /* \"#utility.yul\":4193:4194   */\n      dup3\n        /* \"#utility.yul\":4190:4191   */\n      dup3\n        /* \"#utility.yul\":4186:4195   */\n      add\n        /* \"#utility.yul\":4179:4195   */\n      swap1\n      pop\n        /* \"#utility.yul\":3940:4201   */\n      swap3\n      swap2\n      pop\n      pop\n      jump\t// out\n        /* \"#utility.yul\":4207:4398   */\n    tag_58:\n        /* \"#utility.yul\":4247:4251   */\n      0x00\n        /* \"#utility.yul\":4267:4287   */\n      tag_121\n        /* \"#utility.yul\":4285:4286   */\n      dup3\n        /* \"#utility.yul\":4267:4287   */\n      tag_104\n      jump\t// in\n    tag_121:\n        /* \"#utility.yul\":4262:4287   */\n      swap2\n      pop\n        /* \"#utility.yul\":4301:4321   */\n      tag_122\n        /* \"#utility.yul\":4319:4320   */\n      dup4\n        /* \"#utility.yul\":4301:4321   */\n      tag_104\n      jump\t// in\n    tag_122:\n        /* \"#utility.yul\":4296:4321   */\n      swap3\n      pop\n        /* \"#utility.yul\":4340:4341   */\n      dup3\n        /* \"#utility.yul\":4337:4338   */\n      dup3\n        /* \"#utility.yul\":4334:4342   */\n      lt\n        /* \"#utility.yul\":4331:4333   */\n      iszero\n      tag_123\n      jumpi\n        /* \"#utility.yul\":4345:4363   */\n      tag_124\n      tag_119\n      jump\t// in\n    tag_124:\n        /* \"#utility.yul\":4331:4333   */\n    tag_123:\n        /* \"#utility.yul\":4390:4391   */\n      dup3\n        /* \"#utility.yul\":4387:4388   */\n      dup3\n        /* \"#utility.yul\":4383:4392   */\n      sub\n        /* \"#utility.yul\":4375:4392   */\n      swap1\n      pop\n        /* \"#utility.yul\":4252:4398   */\n      swap3\n      swap2\n      pop\n      pop\n      jump\t// out\n        /* \"#utility.yul\":4404:4500   */\n    tag_89:\n        /* \"#utility.yul\":4441:4448   */\n      0x00\n        /* \"#utility.yul\":4470:4494   */\n      tag_126\n        /* \"#utility.yul\":4488:4493   */\n      dup3\n        /* \"#utility.yul\":4470:4494   */\n      tag_127\n      jump\t// in\n    tag_126:\n        /* \"#utility.yul\":4459:4494   */\n      swap1\n      pop\n        /* \"#utility.yul\":4449:4500   */\n      swap2\n      swap1\n      pop\n      jump\t// out\n        /* \"#utility.yul\":4506:4610   */\n    tag_128:\n        /* \"#utility.yul\":4551:4558   */\n      0x00\n        /* \"#utility.yul\":4580:4604   */\n      tag_130\n        /* \"#utility.yul\":4598:4603   */\n      dup3\n        /* \"#utility.yul\":4580:4604   */\n      tag_127\n      jump\t// in\n    tag_130:\n        /* \"#utility.yul\":4569:4604   */\n      swap1\n      pop\n        /* \"#utility.yul\":4559:4610   */\n      swap2\n      swap1\n      pop\n      jump\t// out\n        /* \"#utility.yul\":4616:4742   */\n    tag_127:\n        /* \"#utility.yul\":4653:4660   */\n      0x00\n        /* \"#utility.yul\":4693:4735   */\n      0xffffffffffffffffffffffffffffffffffffffff\n        /* \"#utility.yul\":4686:4691   */\n      dup3\n        /* \"#utility.yul\":4682:4736   */\n      and\n        /* \"#utility.yul\":4671:4736   */\n      swap1\n      pop\n        /* \"#utility.yul\":4661:4742   */\n      swap2\n      swap1\n      pop\n      jump\t// out\n        /* \"#utility.yul\":4748:4825   */\n    tag_104:\n        /* \"#utility.yul\":4785:4792   */\n      0x00\n        /* \"#utility.yul\":4814:4819   */\n      dup2\n        /* \"#utility.yul\":4803:4819   */\n      swap1\n      pop\n        /* \"#utility.yul\":4793:4825   */\n      swap2\n      swap1\n      pop\n      jump\t// out\n        /* \"#utility.yul\":4831:5011   */\n    tag_119:\n        /* \"#utility.yul\":4879:4956   */\n      0x4e487b7100000000000000000000000000000000000000000000000000000000\n        /* \"#utility.yul\":4876:4877   */\n      0x00\n        /* \"#utility.yul\":4869:4957   */\n      mstore\n        /* \"#utility.yul\":4976:4980   */\n      0x11\n        /* \"#utility.yul\":4973:4974   */\n      0x04\n        /* \"#utility.yul\":4966:4981   */\n      mstore\n        /* \"#utility.yul\":5000:5004   */\n      0x24\n        /* \"#utility.yul\":4997:4998   */\n      0x00\n        /* \"#utility.yul\":4990:5005   */\n      revert\n        /* \"#utility.yul\":5017:5193   */\n    tag_95:\n        /* \"#utility.yul\":5157:5185   */\n      0x596f7520646f6e74206861766520656e6f7567682066756e6473000000000000\n        /* \"#utility.yul\":5153:5154   */\n      0x00\n        /* \"#utility.yul\":5145:5151   */\n      dup3\n        /* \"#utility.yul\":5141:5155   */\n      add\n        /* \"#utility.yul\":5134:5186   */\n      mstore\n        /* \"#utility.yul\":5123:5193   */\n      pop\n      jump\t// out\n        /* \"#utility.yul\":5199:5370   */\n    tag_100:\n        /* \"#utility.yul\":5339:5362   */\n      0x596f7520617265206e6f7420746865206f776e65720000000000000000000000\n        /* \"#utility.yul\":5335:5336   */\n      0x00\n        /* \"#utility.yul\":5327:5333   */\n      dup3\n        /* \"#utility.yul\":5323:5337   */\n      add\n        /* \"#utility.yul\":5316:5363   */\n      mstore\n        /* \"#utility.yul\":5305:5370   */\n      pop\n      jump\t// out\n        /* \"#utility.yul\":5376:5498   */\n    tag_67:\n        /* \"#utility.yul\":5449:5473   */\n      tag_137\n        /* \"#utility.yul\":5467:5472   */\n      dup2\n        /* \"#utility.yul\":5449:5473   */\n      tag_89\n      jump\t// in\n    tag_137:\n        /* \"#utility.yul\":5442:5447   */\n      dup2\n        /* \"#utility.yul\":5439:5474   */\n      eq\n        /* \"#utility.yul\":5429:5431   */\n      tag_138\n      jumpi\n        /* \"#utility.yul\":5488:5489   */\n      0x00\n        /* \"#utility.yul\":5485:5486   */\n      dup1\n        /* \"#utility.yul\":5478:5490   */\n      revert\n        /* \"#utility.yul\":5429:5431   */\n    tag_138:\n        /* \"#utility.yul\":5419:5498   */\n      pop\n      jump\t// out\n        /* \"#utility.yul\":5504:5642   */\n    tag_71:\n        /* \"#utility.yul\":5585:5617   */\n      tag_140\n        /* \"#utility.yul\":5611:5616   */\n      dup2\n        /* \"#utility.yul\":5585:5617   */\n      tag_128\n      jump\t// in\n    tag_140:\n        /* \"#utility.yul\":5578:5583   */\n      dup2\n        /* \"#utility.yul\":5575:5618   */\n      eq\n        /* \"#utility.yul\":5565:5567   */\n      tag_141\n      jumpi\n        /* \"#utility.yul\":5632:5633   */\n      0x00\n        /* \"#utility.yul\":5629:5630   */\n      dup1\n        /* \"#utility.yul\":5622:5634   */\n      revert\n        /* \"#utility.yul\":5565:5567   */\n    tag_141:\n        /* \"#utility.yul\":5555:5642   */\n      pop\n      jump\t// out\n        /* \"#utility.yul\":5648:5770   */\n    tag_75:\n        /* \"#utility.yul\":5721:5745   */\n      tag_143\n        /* \"#utility.yul\":5739:5744   */\n      dup2\n        /* \"#utility.yul\":5721:5745   */\n      tag_104\n      jump\t// in\n    tag_143:\n        /* \"#utility.yul\":5714:5719   */\n      dup2\n        /* \"#utility.yul\":5711:5746   */\n      eq\n        /* \"#utility.yul\":5701:5703   */\n      tag_144\n      jumpi\n        /* \"#utility.yul\":5760:5761   */\n      0x00\n        /* \"#utility.yul\":5757:5758   */\n      dup1\n        /* \"#utility.yul\":5750:5762   */\n      revert\n        /* \"#utility.yul\":5701:5703   */\n    tag_144:\n        /* \"#utility.yul\":5691:5770   */\n      pop\n      jump\t// out\n\n    auxdata: 0xa264697066735822122093f9e46eea0d59d5a5ec56b0f3c32a3758dc822d73e49880948f1363485cbecc64736f6c63430008040033\n}\n",
				"bytecode": {
					"linkReferences": {},
					"object": "608060405234801561001057600080fd5b5033600160006101000a81548173ffffffffffffffffffffffffffffffffffffffff021916908373ffffffffffffffffffffffffffffffffffffffff16021790555061090c806100616000396000f3fe6080604052600436106100705760003560e01c8063893d20e81161004e578063893d20e8146100a0578063935fb73d146100cb578063d18a42e114610108578063f274c8971461014557610070565b80630cf2f2c1146100755780636d26ec181461007f5780638547472814610089575b600080fd5b61007d61016e565b005b610087610178565b005b34801561009557600080fd5b5061009e61028d565b005b3480156100ac57600080fd5b506100b5610358565b6040516100c291906106b1565b60405180910390f35b3480156100d757600080fd5b506100f260048036038101906100ed9190610624565b610382565b6040516100ff919061070c565b60405180910390f35b34801561011457600080fd5b5061012f600480360381019061012a91906105bf565b610389565b60405161013c919061070c565b60405180910390f35b34801561015157600080fd5b5061016c600480360381019061016791906105e8565b6103a1565b005b610176610178565b565b6000803373ffffffffffffffffffffffffffffffffffffffff1673ffffffffffffffffffffffffffffffffffffffff16815260200190815260200160002054346000803373ffffffffffffffffffffffffffffffffffffffff1673ffffffffffffffffffffffffffffffffffffffff168152602001908152602001600020546102019190610738565b1015610236577f4e487b7100000000000000000000000000000000000000000000000000000000600052600160045260246000fd5b346000803373ffffffffffffffffffffffffffffffffffffffff1673ffffffffffffffffffffffffffffffffffffffff16815260200190815260200160002060008282546102849190610738565b92505081905550565b600160009054906101000a900473ffffffffffffffffffffffffffffffffffffffff1673ffffffffffffffffffffffffffffffffffffffff163373ffffffffffffffffffffffffffffffffffffffff161461031d576040517f08c379a0000000000000000000000000000000000000000000000000000000008152600401610314906106ec565b60405180910390fd5b600160009054906101000a900473ffffffffffffffffffffffffffffffffffffffff1673ffffffffffffffffffffffffffffffffffffffff16ff5b6000600160009054906101000a900473ffffffffffffffffffffffffffffffffffffffff16905090565b6000919050565b60006020528060005260406000206000915090505481565b6000803373ffffffffffffffffffffffffffffffffffffffff1673ffffffffffffffffffffffffffffffffffffffff16815260200190815260200160002054811115610422576040517f08c379a0000000000000000000000000000000000000000000000000000000008152600401610419906106cc565b60405180910390fd5b806000803373ffffffffffffffffffffffffffffffffffffffff1673ffffffffffffffffffffffffffffffffffffffff1681526020019081526020016000205461046c919061078e565b6000803373ffffffffffffffffffffffffffffffffffffffff1673ffffffffffffffffffffffffffffffffffffffff1681526020019081526020016000205410156104e0577f4e487b7100000000000000000000000000000000000000000000000000000000600052600160045260246000fd5b806000803373ffffffffffffffffffffffffffffffffffffffff1673ffffffffffffffffffffffffffffffffffffffff168152602001908152602001600020600082825461052e919061078e565b925050819055508173ffffffffffffffffffffffffffffffffffffffff166108fc829081150290604051600060405180830381858888f1935050505015801561057b573d6000803e3d6000fd5b505050565b60008135905061058f81610891565b92915050565b6000813590506105a4816108a8565b92915050565b6000813590506105b9816108bf565b92915050565b6000602082840312156105d157600080fd5b60006105df84828501610580565b91505092915050565b600080604083850312156105fb57600080fd5b600061060985828601610595565b925050602061061a858286016105aa565b9150509250929050565b60006020828403121561063657600080fd5b6000610644848285016105aa565b91505092915050565b610656816107c2565b82525050565b6000610669601a83610727565b91506106748261083f565b602082019050919050565b600061068c601583610727565b915061069782610868565b602082019050919050565b6106ab81610806565b82525050565b60006020820190506106c6600083018461064d565b92915050565b600060208201905081810360008301526106e58161065c565b9050919050565b600060208201905081810360008301526107058161067f565b9050919050565b600060208201905061072160008301846106a2565b92915050565b600082825260208201905092915050565b600061074382610806565b915061074e83610806565b9250827fffffffffffffffffffffffffffffffffffffffffffffffffffffffffffffffff0382111561078357610782610810565b5b828201905092915050565b600061079982610806565b91506107a483610806565b9250828210156107b7576107b6610810565b5b828203905092915050565b60006107cd826107e6565b9050919050565b60006107df826107e6565b9050919050565b600073ffffffffffffffffffffffffffffffffffffffff82169050919050565b6000819050919050565b7f4e487b7100000000000000000000000000000000000000000000000000000000600052601160045260246000fd5b7f596f7520646f6e74206861766520656e6f7567682066756e6473000000000000600082015250565b7f596f7520617265206e6f7420746865206f776e65720000000000000000000000600082015250565b61089a816107c2565b81146108a557600080fd5b50565b6108b1816107d4565b81146108bc57600080fd5b50565b6108c881610806565b81146108d357600080fd5b5056fea264697066735822122093f9e46eea0d59d5a5ec56b0f3c32a3758dc822d73e49880948f1363485cbecc64736f6c63430008040033",
					"opcodes": "PUSH1 0x80 PUSH1 0x40 MSTORE CALLVALUE DUP1 ISZERO PUSH2 0x10 JUMPI PUSH1 0x0 DUP1 REVERT JUMPDEST POP CALLER PUSH1 0x1 PUSH1 0x0 PUSH2 0x100 EXP DUP2 SLOAD DUP2 PUSH20 0xFFFFFFFFFFFFFFFFFFFFFFFFFFFFFFFFFFFFFFFF MUL NOT AND SWAP1 DUP4 PUSH20 0xFFFFFFFFFFFFFFFFFFFFFFFFFFFFFFFFFFFFFFFF AND MUL OR SWAP1 SSTORE POP PUSH2 0x90C DUP1 PUSH2 0x61 PUSH1 0x0 CODECOPY PUSH1 0x0 RETURN INVALID PUSH1 0x80 PUSH1 0x40 MSTORE PUSH1 0x4 CALLDATASIZE LT PUSH2 0x70 JUMPI PUSH1 0x0 CALLDATALOAD PUSH1 0xE0 SHR DUP1 PUSH4 0x893D20E8 GT PUSH2 0x4E JUMPI DUP1 PUSH4 0x893D20E8 EQ PUSH2 0xA0 JUMPI DUP1 PUSH4 0x935FB73D EQ PUSH2 0xCB JUMPI DUP1 PUSH4 0xD18A42E1 EQ PUSH2 0x108 JUMPI DUP1 PUSH4 0xF274C897 EQ PUSH2 0x145 JUMPI PUSH2 0x70 JUMP JUMPDEST DUP1 PUSH4 0xCF2F2C1 EQ PUSH2 0x75 JUMPI DUP1 PUSH4 0x6D26EC18 EQ PUSH2 0x7F JUMPI DUP1 PUSH4 0x85474728 EQ PUSH2 0x89 JUMPI JUMPDEST PUSH1 0x0 DUP1 REVERT JUMPDEST PUSH2 0x7D PUSH2 0x16E JUMP JUMPDEST STOP JUMPDEST PUSH2 0x87 PUSH2 0x178 JUMP JUMPDEST STOP JUMPDEST CALLVALUE DUP1 ISZERO PUSH2 0x95 JUMPI PUSH1 0x0 DUP1 REVERT JUMPDEST POP PUSH2 0x9E PUSH2 0x28D JUMP JUMPDEST STOP JUMPDEST CALLVALUE DUP1 ISZERO PUSH2 0xAC JUMPI PUSH1 0x0 DUP1 REVERT JUMPDEST POP PUSH2 0xB5 PUSH2 0x358 JUMP JUMPDEST PUSH1 0x40 MLOAD PUSH2 0xC2 SWAP2 SWAP1 PUSH2 0x6B1 JUMP JUMPDEST PUSH1 0x40 MLOAD DUP1 SWAP2 SUB SWAP1 RETURN JUMPDEST CALLVALUE DUP1 ISZERO PUSH2 0xD7 JUMPI PUSH1 0x0 DUP1 REVERT JUMPDEST POP PUSH2 0xF2 PUSH1 0x4 DUP1 CALLDATASIZE SUB DUP2 ADD SWAP1 PUSH2 0xED SWAP2 SWAP1 PUSH2 0x624 JUMP JUMPDEST PUSH2 0x382 JUMP JUMPDEST PUSH1 0x40 MLOAD PUSH2 0xFF SWAP2 SWAP1 PUSH2 0x70C JUMP JUMPDEST PUSH1 0x40 MLOAD DUP1 SWAP2 SUB SWAP1 RETURN JUMPDEST CALLVALUE DUP1 ISZERO PUSH2 0x114 JUMPI PUSH1 0x0 DUP1 REVERT JUMPDEST POP PUSH2 0x12F PUSH1 0x4 DUP1 CALLDATASIZE SUB DUP2 ADD SWAP1 PUSH2 0x12A SWAP2 SWAP1 PUSH2 0x5BF JUMP JUMPDEST PUSH2 0x389 JUMP JUMPDEST PUSH1 0x40 MLOAD PUSH2 0x13C SWAP2 SWAP1 PUSH2 0x70C JUMP JUMPDEST PUSH1 0x40 MLOAD DUP1 SWAP2 SUB SWAP1 RETURN JUMPDEST CALLVALUE DUP1 ISZERO PUSH2 0x151 JUMPI PUSH1 0x0 DUP1 REVERT JUMPDEST POP PUSH2 0x16C PUSH1 0x4 DUP1 CALLDATASIZE SUB DUP2 ADD SWAP1 PUSH2 0x167 SWAP2 SWAP1 PUSH2 0x5E8 JUMP JUMPDEST PUSH2 0x3A1 JUMP JUMPDEST STOP JUMPDEST PUSH2 0x176 PUSH2 0x178 JUMP JUMPDEST JUMP JUMPDEST PUSH1 0x0 DUP1 CALLER PUSH20 0xFFFFFFFFFFFFFFFFFFFFFFFFFFFFFFFFFFFFFFFF AND PUSH20 0xFFFFFFFFFFFFFFFFFFFFFFFFFFFFFFFFFFFFFFFF AND DUP2 MSTORE PUSH1 0x20 ADD SWAP1 DUP2 MSTORE PUSH1 0x20 ADD PUSH1 0x0 KECCAK256 SLOAD CALLVALUE PUSH1 0x0 DUP1 CALLER PUSH20 0xFFFFFFFFFFFFFFFFFFFFFFFFFFFFFFFFFFFFFFFF AND PUSH20 0xFFFFFFFFFFFFFFFFFFFFFFFFFFFFFFFFFFFFFFFF AND DUP2 MSTORE PUSH1 0x20 ADD SWAP1 DUP2 MSTORE PUSH1 0x20 ADD PUSH1 0x0 KECCAK256 SLOAD PUSH2 0x201 SWAP2 SWAP1 PUSH2 0x738 JUMP JUMPDEST LT ISZERO PUSH2 0x236 JUMPI PUSH32 0x4E487B7100000000000000000000000000000000000000000000000000000000 PUSH1 0x0 MSTORE PUSH1 0x1 PUSH1 0x4 MSTORE PUSH1 0x24 PUSH1 0x0 REVERT JUMPDEST CALLVALUE PUSH1 0x0 DUP1 CALLER PUSH20 0xFFFFFFFFFFFFFFFFFFFFFFFFFFFFFFFFFFFFFFFF AND PUSH20 0xFFFFFFFFFFFFFFFFFFFFFFFFFFFFFFFFFFFFFFFF AND DUP2 MSTORE PUSH1 0x20 ADD SWAP1 DUP2 MSTORE PUSH1 0x20 ADD PUSH1 0x0 KECCAK256 PUSH1 0x0 DUP3 DUP3 SLOAD PUSH2 0x284 SWAP2 SWAP1 PUSH2 0x738 JUMP JUMPDEST SWAP3 POP POP DUP2 SWAP1 SSTORE POP JUMP JUMPDEST PUSH1 0x1 PUSH1 0x0 SWAP1 SLOAD SWAP1 PUSH2 0x100 EXP SWAP1 DIV PUSH20 0xFFFFFFFFFFFFFFFFFFFFFFFFFFFFFFFFFFFFFFFF AND PUSH20 0xFFFFFFFFFFFFFFFFFFFFFFFFFFFFFFFFFFFFFFFF AND CALLER PUSH20 0xFFFFFFFFFFFFFFFFFFFFFFFFFFFFFFFFFFFFFFFF AND EQ PUSH2 0x31D JUMPI PUSH1 0x40 MLOAD PUSH32 0x8C379A000000000000000000000000000000000000000000000000000000000 DUP2 MSTORE PUSH1 0x4 ADD PUSH2 0x314 SWAP1 PUSH2 0x6EC JUMP JUMPDEST PUSH1 0x40 MLOAD DUP1 SWAP2 SUB SWAP1 REVERT JUMPDEST PUSH1 0x1 PUSH1 0x0 SWAP1 SLOAD SWAP1 PUSH2 0x100 EXP SWAP1 DIV PUSH20 0xFFFFFFFFFFFFFFFFFFFFFFFFFFFFFFFFFFFFFFFF AND PUSH20 0xFFFFFFFFFFFFFFFFFFFFFFFFFFFFFFFFFFFFFFFF AND SELFDESTRUCT JUMPDEST PUSH1 0x0 PUSH1 0x1 PUSH1 0x0 SWAP1 SLOAD SWAP1 PUSH2 0x100 EXP SWAP1 DIV PUSH20 0xFFFFFFFFFFFFFFFFFFFFFFFFFFFFFFFFFFFFFFFF AND SWAP1 POP SWAP1 JUMP JUMPDEST PUSH1 0x0 SWAP2 SWAP1 POP JUMP JUMPDEST PUSH1 0x0 PUSH1 0x20 MSTORE DUP1 PUSH1 0x0 MSTORE PUSH1 0x40 PUSH1 0x0 KECCAK256 PUSH1 0x0 SWAP2 POP SWAP1 POP SLOAD DUP2 JUMP JUMPDEST PUSH1 0x0 DUP1 CALLER PUSH20 0xFFFFFFFFFFFFFFFFFFFFFFFFFFFFFFFFFFFFFFFF AND PUSH20 0xFFFFFFFFFFFFFFFFFFFFFFFFFFFFFFFFFFFFFFFF AND DUP2 MSTORE PUSH1 0x20 ADD SWAP1 DUP2 MSTORE PUSH1 0x20 ADD PUSH1 0x0 KECCAK256 SLOAD DUP2 GT ISZERO PUSH2 0x422 JUMPI PUSH1 0x40 MLOAD PUSH32 0x8C379A000000000000000000000000000000000000000000000000000000000 DUP2 MSTORE PUSH1 0x4 ADD PUSH2 0x419 SWAP1 PUSH2 0x6CC JUMP JUMPDEST PUSH1 0x40 MLOAD DUP1 SWAP2 SUB SWAP1 REVERT JUMPDEST DUP1 PUSH1 0x0 DUP1 CALLER PUSH20 0xFFFFFFFFFFFFFFFFFFFFFFFFFFFFFFFFFFFFFFFF AND PUSH20 0xFFFFFFFFFFFFFFFFFFFFFFFFFFFFFFFFFFFFFFFF AND DUP2 MSTORE PUSH1 0x20 ADD SWAP1 DUP2 MSTORE PUSH1 0x20 ADD PUSH1 0x0 KECCAK256 SLOAD PUSH2 0x46C SWAP2 SWAP1 PUSH2 0x78E JUMP JUMPDEST PUSH1 0x0 DUP1 CALLER PUSH20 0xFFFFFFFFFFFFFFFFFFFFFFFFFFFFFFFFFFFFFFFF AND PUSH20 0xFFFFFFFFFFFFFFFFFFFFFFFFFFFFFFFFFFFFFFFF AND DUP2 MSTORE PUSH1 0x20 ADD SWAP1 DUP2 MSTORE PUSH1 0x20 ADD PUSH1 0x0 KECCAK256 SLOAD LT ISZERO PUSH2 0x4E0 JUMPI PUSH32 0x4E487B7100000000000000000000000000000000000000000000000000000000 PUSH1 0x0 MSTORE PUSH1 0x1 PUSH1 0x4 MSTORE PUSH1 0x24 PUSH1 0x0 REVERT JUMPDEST DUP1 PUSH1 0x0 DUP1 CALLER PUSH20 0xFFFFFFFFFFFFFFFFFFFFFFFFFFFFFFFFFFFFFFFF AND PUSH20 0xFFFFFFFFFFFFFFFFFFFFFFFFFFFFFFFFFFFFFFFF AND DUP2 MSTORE PUSH1 0x20 ADD SWAP1 DUP2 MSTORE PUSH1 0x20 ADD PUSH1 0x0 KECCAK256 PUSH1 0x0 DUP3 DUP3 SLOAD PUSH2 0x52E SWAP2 SWAP1 PUSH2 0x78E JUMP JUMPDEST SWAP3 POP POP DUP2 SWAP1 SSTORE POP DUP2 PUSH20 0xFFFFFFFFFFFFFFFFFFFFFFFFFFFFFFFFFFFFFFFF AND PUSH2 0x8FC DUP3 SWAP1 DUP2 ISZERO MUL SWAP1 PUSH1 0x40 MLOAD PUSH1 0x0 PUSH1 0x40 MLOAD DUP1 DUP4 SUB DUP2 DUP6 DUP9 DUP9 CALL SWAP4 POP POP POP POP ISZERO DUP1 ISZERO PUSH2 0x57B JUMPI RETURNDATASIZE PUSH1 0x0 DUP1 RETURNDATACOPY RETURNDATASIZE PUSH1 0x0 REVERT JUMPDEST POP POP POP JUMP JUMPDEST PUSH1 0x0 DUP2 CALLDATALOAD SWAP1 POP PUSH2 0x58F DUP2 PUSH2 0x891 JUMP JUMPDEST SWAP3 SWAP2 POP POP JUMP JUMPDEST PUSH1 0x0 DUP2 CALLDATALOAD SWAP1 POP PUSH2 0x5A4 DUP2 PUSH2 0x8A8 JUMP JUMPDEST SWAP3 SWAP2 POP POP JUMP JUMPDEST PUSH1 0x0 DUP2 CALLDATALOAD SWAP1 POP PUSH2 0x5B9 DUP2 PUSH2 0x8BF JUMP JUMPDEST SWAP3 SWAP2 POP POP JUMP JUMPDEST PUSH1 0x0 PUSH1 0x20 DUP3 DUP5 SUB SLT ISZERO PUSH2 0x5D1 JUMPI PUSH1 0x0 DUP1 REVERT JUMPDEST PUSH1 0x0 PUSH2 0x5DF DUP5 DUP3 DUP6 ADD PUSH2 0x580 JUMP JUMPDEST SWAP2 POP POP SWAP3 SWAP2 POP POP JUMP JUMPDEST PUSH1 0x0 DUP1 PUSH1 0x40 DUP4 DUP6 SUB SLT ISZERO PUSH2 0x5FB JUMPI PUSH1 0x0 DUP1 REVERT JUMPDEST PUSH1 0x0 PUSH2 0x609 DUP6 DUP3 DUP7 ADD PUSH2 0x595 JUMP JUMPDEST SWAP3 POP POP PUSH1 0x20 PUSH2 0x61A DUP6 DUP3 DUP7 ADD PUSH2 0x5AA JUMP JUMPDEST SWAP2 POP POP SWAP3 POP SWAP3 SWAP1 POP JUMP JUMPDEST PUSH1 0x0 PUSH1 0x20 DUP3 DUP5 SUB SLT ISZERO PUSH2 0x636 JUMPI PUSH1 0x0 DUP1 REVERT JUMPDEST PUSH1 0x0 PUSH2 0x644 DUP5 DUP3 DUP6 ADD PUSH2 0x5AA JUMP JUMPDEST SWAP2 POP POP SWAP3 SWAP2 POP POP JUMP JUMPDEST PUSH2 0x656 DUP2 PUSH2 0x7C2 JUMP JUMPDEST DUP3 MSTORE POP POP JUMP JUMPDEST PUSH1 0x0 PUSH2 0x669 PUSH1 0x1A DUP4 PUSH2 0x727 JUMP JUMPDEST SWAP2 POP PUSH2 0x674 DUP3 PUSH2 0x83F JUMP JUMPDEST PUSH1 0x20 DUP3 ADD SWAP1 POP SWAP2 SWAP1 POP JUMP JUMPDEST PUSH1 0x0 PUSH2 0x68C PUSH1 0x15 DUP4 PUSH2 0x727 JUMP JUMPDEST SWAP2 POP PUSH2 0x697 DUP3 PUSH2 0x868 JUMP JUMPDEST PUSH1 0x20 DUP3 ADD SWAP1 POP SWAP2 SWAP1 POP JUMP JUMPDEST PUSH2 0x6AB DUP2 PUSH2 0x806 JUMP JUMPDEST DUP3 MSTORE POP POP JUMP JUMPDEST PUSH1 0x0 PUSH1 0x20 DUP3 ADD SWAP1 POP PUSH2 0x6C6 PUSH1 0x0 DUP4 ADD DUP5 PUSH2 0x64D JUMP JUMPDEST SWAP3 SWAP2 POP POP JUMP JUMPDEST PUSH1 0x0 PUSH1 0x20 DUP3 ADD SWAP1 POP DUP2 DUP2 SUB PUSH1 0x0 DUP4 ADD MSTORE PUSH2 0x6E5 DUP2 PUSH2 0x65C JUMP JUMPDEST SWAP1 POP SWAP2 SWAP1 POP JUMP JUMPDEST PUSH1 0x0 PUSH1 0x20 DUP3 ADD SWAP1 POP DUP2 DUP2 SUB PUSH1 0x0 DUP4 ADD MSTORE PUSH2 0x705 DUP2 PUSH2 0x67F JUMP JUMPDEST SWAP1 POP SWAP2 SWAP1 POP JUMP JUMPDEST PUSH1 0x0 PUSH1 0x20 DUP3 ADD SWAP1 POP PUSH2 0x721 PUSH1 0x0 DUP4 ADD DUP5 PUSH2 0x6A2 JUMP JUMPDEST SWAP3 SWAP2 POP POP JUMP JUMPDEST PUSH1 0x0 DUP3 DUP3 MSTORE PUSH1 0x20 DUP3 ADD SWAP1 POP SWAP3 SWAP2 POP POP JUMP JUMPDEST PUSH1 0x0 PUSH2 0x743 DUP3 PUSH2 0x806 JUMP JUMPDEST SWAP2 POP PUSH2 0x74E DUP4 PUSH2 0x806 JUMP JUMPDEST SWAP3 POP DUP3 PUSH32 0xFFFFFFFFFFFFFFFFFFFFFFFFFFFFFFFFFFFFFFFFFFFFFFFFFFFFFFFFFFFFFFFF SUB DUP3 GT ISZERO PUSH2 0x783 JUMPI PUSH2 0x782 PUSH2 0x810 JUMP JUMPDEST JUMPDEST DUP3 DUP3 ADD SWAP1 POP SWAP3 SWAP2 POP POP JUMP JUMPDEST PUSH1 0x0 PUSH2 0x799 DUP3 PUSH2 0x806 JUMP JUMPDEST SWAP2 POP PUSH2 0x7A4 DUP4 PUSH2 0x806 JUMP JUMPDEST SWAP3 POP DUP3 DUP3 LT ISZERO PUSH2 0x7B7 JUMPI PUSH2 0x7B6 PUSH2 0x810 JUMP JUMPDEST JUMPDEST DUP3 DUP3 SUB SWAP1 POP SWAP3 SWAP2 POP POP JUMP JUMPDEST PUSH1 0x0 PUSH2 0x7CD DUP3 PUSH2 0x7E6 JUMP JUMPDEST SWAP1 POP SWAP2 SWAP1 POP JUMP JUMPDEST PUSH1 0x0 PUSH2 0x7DF DUP3 PUSH2 0x7E6 JUMP JUMPDEST SWAP1 POP SWAP2 SWAP1 POP JUMP JUMPDEST PUSH1 0x0 PUSH20 0xFFFFFFFFFFFFFFFFFFFFFFFFFFFFFFFFFFFFFFFF DUP3 AND SWAP1 POP SWAP2 SWAP1 POP JUMP JUMPDEST PUSH1 0x0 DUP2 SWAP1 POP SWAP2 SWAP1 POP JUMP JUMPDEST PUSH32 0x4E487B7100000000000000000000000000000000000000000000000000000000 PUSH1 0x0 MSTORE PUSH1 0x11 PUSH1 0x4 MSTORE PUSH1 0x24 PUSH1 0x0 REVERT JUMPDEST PUSH32 0x596F7520646F6E74206861766520656E6F7567682066756E6473000000000000 PUSH1 0x0 DUP3 ADD MSTORE POP JUMP JUMPDEST PUSH32 0x596F7520617265206E6F7420746865206F776E65720000000000000000000000 PUSH1 0x0 DUP3 ADD MSTORE POP JUMP JUMPDEST PUSH2 0x89A DUP2 PUSH2 0x7C2 JUMP JUMPDEST DUP2 EQ PUSH2 0x8A5 JUMPI PUSH1 0x0 DUP1 REVERT JUMPDEST POP JUMP JUMPDEST PUSH2 0x8B1 DUP2 PUSH2 0x7D4 JUMP JUMPDEST DUP2 EQ PUSH2 0x8BC JUMPI PUSH1 0x0 DUP1 REVERT JUMPDEST POP JUMP JUMPDEST PUSH2 0x8C8 DUP2 PUSH2 0x806 JUMP JUMPDEST DUP2 EQ PUSH2 0x8D3 JUMPI PUSH1 0x0 DUP1 REVERT JUMPDEST POP JUMP INVALID LOG2 PUSH5 0x6970667358 0x22 SLT KECCAK256 SWAP4 0xF9 0xE4 PUSH15 0xEA0D59D5A5EC56B0F3C32A3758DC82 0x2D PUSH20 0xE49880948F1363485CBECC64736F6C6343000804 STOP CALLER "
				},
				"gasEstimates": {
					"creation": {
						"codeDepositCost": "463200",
						"executionCost": "21365",
						"totalCost": "484565"
					},
					"external": {
						"balanceReceived(address)": "1558",
						"convertWeitoEther(uint256)": "infinite",
						"destroySmartContract()": "31895",
						"fall()": "infinite",
						"getOwner()": "1222",
						"receiveMoney()": "infinite",
						"withdrawMoney(address,uint256)": "infinite"
					}
				},
				"methodIdentifiers": {
					"balanceReceived(address)": "d18a42e1",
					"convertWeitoEther(uint256)": "935fb73d",
					"destroySmartContract()": "85474728",
					"fall()": "0cf2f2c1",
					"getOwner()": "893d20e8",
					"receiveMoney()": "6d26ec18",
					"withdrawMoney(address,uint256)": "f274c897"
				}
			},
			"storageLayout": {
				"storage": [
					{
						"astId": 5,
						"contract": "contracts/basics/09-FunctionsExample.sol:FunctionsExample",
						"label": "balanceReceived",
						"offset": 0,
						"slot": "0",
						"type": "t_mapping(t_address,t_uint256)"
					},
					{
						"astId": 7,
						"contract": "contracts/basics/09-FunctionsExample.sol:FunctionsExample",
						"label": "owner",
						"offset": 0,
						"slot": "1",
						"type": "t_address_payable"
					}
				],
				"types": {
					"t_address": {
						"encoding": "inplace",
						"label": "address",
						"numberOfBytes": "20"
					},
					"t_address_payable": {
						"encoding": "inplace",
						"label": "address payable",
						"numberOfBytes": "20"
					},
					"t_mapping(t_address,t_uint256)": {
						"encoding": "mapping",
						"key": "t_address",
						"label": "mapping(address => uint256)",
						"numberOfBytes": "32",
						"value": "t_uint256"
					},
					"t_uint256": {
						"encoding": "inplace",
						"label": "uint256",
						"numberOfBytes": "32"
					}
				}
			},
			"userdoc": {
				"kind": "user",
				"methods": {},
				"version": 1
			}
		}
	}
}