{
	"contracts/basics/05-SimpleMappingsExample.sol": {
		"SimpleMappingsExample": {
			"abi": [
				{
					"inputs": [
						{
							"internalType": "uint256",
							"name": "_index1",
							"type": "uint256"
						},
						{
							"internalType": "uint256",
							"name": "_index2",
							"type": "uint256"
						}
					],
					"name": "getUintUintBoolMapping",
					"outputs": [
						{
							"internalType": "bool",
							"name": "",
							"type": "bool"
						}
					],
					"stateMutability": "view",
					"type": "function"
				},
				{
					"inputs": [
						{
							"internalType": "address",
							"name": "",
							"type": "address"
						}
					],
					"name": "myAddressMapping",
					"outputs": [
						{
							"internalType": "bool",
							"name": "",
							"type": "bool"
						}
					],
					"stateMutability": "view",
					"type": "function"
				},
				{
					"inputs": [
						{
							"internalType": "uint256",
							"name": "",
							"type": "uint256"
						}
					],
					"name": "myMapping",
					"outputs": [
						{
							"internalType": "bool",
							"name": "",
							"type": "bool"
						}
					],
					"stateMutability": "view",
					"type": "function"
				},
				{
					"inputs": [],
					"name": "setMyAddresstoTrue",
					"outputs": [],
					"stateMutability": "nonpayable",
					"type": "function"
				},
				{
					"inputs": [
						{
							"internalType": "uint256",
							"name": "_index1",
							"type": "uint256"
						},
						{
							"internalType": "uint256",
							"name": "_index2",
							"type": "uint256"
						},
						{
							"internalType": "bool",
							"name": "_value",
							"type": "bool"
						}
					],
					"name": "setUintUintBoolMapping",
					"outputs": [],
					"stateMutability": "nonpayable",
					"type": "function"
				},
				{
					"inputs": [
						{
							"internalType": "uint256",
							"name": "_index",
							"type": "uint256"
						}
					],
					"name": "setValue",
					"outputs": [],
					"stateMutability": "nonpayable",
					"type": "function"
				}
			],
			"devdoc": {
				"kind": "dev",
				"methods": {},
				"version": 1
			},
			"evm": {
				"assembly": "    /* \"contracts/basics/05-SimpleMappingsExample.sol\":55:749  contract SimpleMappingsExample{\r... */\n  mstore(0x40, 0x80)\n  callvalue\n  dup1\n  iszero\n  tag_1\n  jumpi\n  0x00\n  dup1\n  revert\ntag_1:\n  pop\n  dataSize(sub_0)\n  dup1\n  dataOffset(sub_0)\n  0x00\n  codecopy\n  0x00\n  return\nstop\n\nsub_0: assembly {\n        /* \"contracts/basics/05-SimpleMappingsExample.sol\":55:749  contract SimpleMappingsExample{\r... */\n      mstore(0x40, 0x80)\n      callvalue\n      dup1\n      iszero\n      tag_1\n      jumpi\n      0x00\n      dup1\n      revert\n    tag_1:\n      pop\n      jumpi(tag_2, lt(calldatasize, 0x04))\n      shr(0xe0, calldataload(0x00))\n      dup1\n      0x276c3b63\n      eq\n      tag_3\n      jumpi\n      dup1\n      0x55241077\n      eq\n      tag_4\n      jumpi\n      dup1\n      0x63717d30\n      eq\n      tag_5\n      jumpi\n      dup1\n      0x7c668844\n      eq\n      tag_6\n      jumpi\n      dup1\n      0xb92ba3b8\n      eq\n      tag_7\n      jumpi\n      dup1\n      0xbc65030e\n      eq\n      tag_8\n      jumpi\n    tag_2:\n      0x00\n      dup1\n      revert\n        /* \"contracts/basics/05-SimpleMappingsExample.sol\":344:434  function setMyAddresstoTrue() public{\r... */\n    tag_3:\n      tag_9\n      tag_10\n      jump\t// in\n    tag_9:\n      stop\n        /* \"contracts/basics/05-SimpleMappingsExample.sol\":258:336  function setValue(uint _index) public{\r... */\n    tag_4:\n      tag_11\n      0x04\n      dup1\n      calldatasize\n      sub\n      dup2\n      add\n      swap1\n      tag_12\n      swap2\n      swap1\n      tag_13\n      jump\t// in\n    tag_12:\n      tag_14\n      jump\t// in\n    tag_11:\n      stop\n        /* \"contracts/basics/05-SimpleMappingsExample.sol\":596:746  function getUintUintBoolMapping(uint _index1, uint _index2) public view returns (bool) {\r... */\n    tag_5:\n      tag_15\n      0x04\n      dup1\n      calldatasize\n      sub\n      dup2\n      add\n      swap1\n      tag_16\n      swap2\n      swap1\n      tag_17\n      jump\t// in\n    tag_16:\n      tag_18\n      jump\t// in\n    tag_15:\n      mload(0x40)\n      tag_19\n      swap2\n      swap1\n      tag_20\n      jump\t// in\n    tag_19:\n      mload(0x40)\n      dup1\n      swap2\n      sub\n      swap1\n      return\n        /* \"contracts/basics/05-SimpleMappingsExample.sol\":92:128  mapping(uint=>bool) public myMapping */\n    tag_6:\n      tag_21\n      0x04\n      dup1\n      calldatasize\n      sub\n      dup2\n      add\n      swap1\n      tag_22\n      swap2\n      swap1\n      tag_13\n      jump\t// in\n    tag_22:\n      tag_23\n      jump\t// in\n    tag_21:\n      mload(0x40)\n      tag_24\n      swap2\n      swap1\n      tag_20\n      jump\t// in\n    tag_24:\n      mload(0x40)\n      dup1\n      swap2\n      sub\n      swap1\n      return\n        /* \"contracts/basics/05-SimpleMappingsExample.sol\":135:181  mapping(address=>bool) public myAddressMapping */\n    tag_7:\n      tag_25\n      0x04\n      dup1\n      calldatasize\n      sub\n      dup2\n      add\n      swap1\n      tag_26\n      swap2\n      swap1\n      tag_27\n      jump\t// in\n    tag_26:\n      tag_28\n      jump\t// in\n    tag_25:\n      mload(0x40)\n      tag_29\n      swap2\n      swap1\n      tag_20\n      jump\t// in\n    tag_29:\n      mload(0x40)\n      dup1\n      swap2\n      sub\n      swap1\n      return\n        /* \"contracts/basics/05-SimpleMappingsExample.sol\":443:588  function setUintUintBoolMapping(uint _index1, uint _index2, bool _value) public {\r... */\n    tag_8:\n      tag_30\n      0x04\n      dup1\n      calldatasize\n      sub\n      dup2\n      add\n      swap1\n      tag_31\n      swap2\n      swap1\n      tag_32\n      jump\t// in\n    tag_31:\n      tag_33\n      jump\t// in\n    tag_30:\n      stop\n        /* \"contracts/basics/05-SimpleMappingsExample.sol\":344:434  function setMyAddresstoTrue() public{\r... */\n    tag_10:\n        /* \"contracts/basics/05-SimpleMappingsExample.sol\":422:426  true */\n      0x01\n        /* \"contracts/basics/05-SimpleMappingsExample.sol\":391:407  myAddressMapping */\n      dup1\n        /* \"contracts/basics/05-SimpleMappingsExample.sol\":391:419  myAddressMapping[msg.sender] */\n      0x00\n        /* \"contracts/basics/05-SimpleMappingsExample.sol\":408:418  msg.sender */\n      caller\n        /* \"contracts/basics/05-SimpleMappingsExample.sol\":391:419  myAddressMapping[msg.sender] */\n      0xffffffffffffffffffffffffffffffffffffffff\n      and\n      0xffffffffffffffffffffffffffffffffffffffff\n      and\n      dup2\n      mstore\n      0x20\n      add\n      swap1\n      dup2\n      mstore\n      0x20\n      add\n      0x00\n      keccak256\n      0x00\n        /* \"contracts/basics/05-SimpleMappingsExample.sol\":391:426  myAddressMapping[msg.sender] = true */\n      0x0100\n      exp\n      dup2\n      sload\n      dup2\n      0xff\n      mul\n      not\n      and\n      swap1\n      dup4\n      iszero\n      iszero\n      mul\n      or\n      swap1\n      sstore\n      pop\n        /* \"contracts/basics/05-SimpleMappingsExample.sol\":344:434  function setMyAddresstoTrue() public{\r... */\n      jump\t// out\n        /* \"contracts/basics/05-SimpleMappingsExample.sol\":258:336  function setValue(uint _index) public{\r... */\n    tag_14:\n        /* \"contracts/basics/05-SimpleMappingsExample.sol\":324:328  true */\n      0x01\n        /* \"contracts/basics/05-SimpleMappingsExample.sol\":306:315  myMapping */\n      0x00\n        /* \"contracts/basics/05-SimpleMappingsExample.sol\":306:323  myMapping[_index] */\n      dup1\n        /* \"contracts/basics/05-SimpleMappingsExample.sol\":316:322  _index */\n      dup4\n        /* \"contracts/basics/05-SimpleMappingsExample.sol\":306:323  myMapping[_index] */\n      dup2\n      mstore\n      0x20\n      add\n      swap1\n      dup2\n      mstore\n      0x20\n      add\n      0x00\n      keccak256\n      0x00\n        /* \"contracts/basics/05-SimpleMappingsExample.sol\":306:328  myMapping[_index]=true */\n      0x0100\n      exp\n      dup2\n      sload\n      dup2\n      0xff\n      mul\n      not\n      and\n      swap1\n      dup4\n      iszero\n      iszero\n      mul\n      or\n      swap1\n      sstore\n      pop\n        /* \"contracts/basics/05-SimpleMappingsExample.sol\":258:336  function setValue(uint _index) public{\r... */\n      pop\n      jump\t// out\n        /* \"contracts/basics/05-SimpleMappingsExample.sol\":596:746  function getUintUintBoolMapping(uint _index1, uint _index2) public view returns (bool) {\r... */\n    tag_18:\n        /* \"contracts/basics/05-SimpleMappingsExample.sol\":677:681  bool */\n      0x00\n        /* \"contracts/basics/05-SimpleMappingsExample.sol\":701:720  uintUintBoolMapping */\n      0x02\n        /* \"contracts/basics/05-SimpleMappingsExample.sol\":701:729  uintUintBoolMapping[_index1] */\n      0x00\n        /* \"contracts/basics/05-SimpleMappingsExample.sol\":721:728  _index1 */\n      dup5\n        /* \"contracts/basics/05-SimpleMappingsExample.sol\":701:729  uintUintBoolMapping[_index1] */\n      dup2\n      mstore\n      0x20\n      add\n      swap1\n      dup2\n      mstore\n      0x20\n      add\n      0x00\n      keccak256\n        /* \"contracts/basics/05-SimpleMappingsExample.sol\":701:738  uintUintBoolMapping[_index1][_index2] */\n      0x00\n        /* \"contracts/basics/05-SimpleMappingsExample.sol\":730:737  _index2 */\n      dup4\n        /* \"contracts/basics/05-SimpleMappingsExample.sol\":701:738  uintUintBoolMapping[_index1][_index2] */\n      dup2\n      mstore\n      0x20\n      add\n      swap1\n      dup2\n      mstore\n      0x20\n      add\n      0x00\n      keccak256\n      0x00\n      swap1\n      sload\n      swap1\n      0x0100\n      exp\n      swap1\n      div\n      0xff\n      and\n        /* \"contracts/basics/05-SimpleMappingsExample.sol\":694:738  return uintUintBoolMapping[_index1][_index2] */\n      swap1\n      pop\n        /* \"contracts/basics/05-SimpleMappingsExample.sol\":596:746  function getUintUintBoolMapping(uint _index1, uint _index2) public view returns (bool) {\r... */\n      swap3\n      swap2\n      pop\n      pop\n      jump\t// out\n        /* \"contracts/basics/05-SimpleMappingsExample.sol\":92:128  mapping(uint=>bool) public myMapping */\n    tag_23:\n      mstore(0x20, 0x00)\n      dup1\n      0x00\n      mstore\n      keccak256(0x00, 0x40)\n      0x00\n      swap2\n      pop\n      sload\n      swap1\n      0x0100\n      exp\n      swap1\n      div\n      0xff\n      and\n      dup2\n      jump\t// out\n        /* \"contracts/basics/05-SimpleMappingsExample.sol\":135:181  mapping(address=>bool) public myAddressMapping */\n    tag_28:\n      mstore(0x20, 0x01)\n      dup1\n      0x00\n      mstore\n      keccak256(0x00, 0x40)\n      0x00\n      swap2\n      pop\n      sload\n      swap1\n      0x0100\n      exp\n      swap1\n      div\n      0xff\n      and\n      dup2\n      jump\t// out\n        /* \"contracts/basics/05-SimpleMappingsExample.sol\":443:588  function setUintUintBoolMapping(uint _index1, uint _index2, bool _value) public {\r... */\n    tag_33:\n        /* \"contracts/basics/05-SimpleMappingsExample.sol\":574:580  _value */\n      dup1\n        /* \"contracts/basics/05-SimpleMappingsExample.sol\":534:553  uintUintBoolMapping */\n      0x02\n        /* \"contracts/basics/05-SimpleMappingsExample.sol\":534:562  uintUintBoolMapping[_index1] */\n      0x00\n        /* \"contracts/basics/05-SimpleMappingsExample.sol\":554:561  _index1 */\n      dup6\n        /* \"contracts/basics/05-SimpleMappingsExample.sol\":534:562  uintUintBoolMapping[_index1] */\n      dup2\n      mstore\n      0x20\n      add\n      swap1\n      dup2\n      mstore\n      0x20\n      add\n      0x00\n      keccak256\n        /* \"contracts/basics/05-SimpleMappingsExample.sol\":534:571  uintUintBoolMapping[_index1][_index2] */\n      0x00\n        /* \"contracts/basics/05-SimpleMappingsExample.sol\":563:570  _index2 */\n      dup5\n        /* \"contracts/basics/05-SimpleMappingsExample.sol\":534:571  uintUintBoolMapping[_index1][_index2] */\n      dup2\n      mstore\n      0x20\n      add\n      swap1\n      dup2\n      mstore\n      0x20\n      add\n      0x00\n      keccak256\n      0x00\n        /* \"contracts/basics/05-SimpleMappingsExample.sol\":534:580  uintUintBoolMapping[_index1][_index2] = _value */\n      0x0100\n      exp\n      dup2\n      sload\n      dup2\n      0xff\n      mul\n      not\n      and\n      swap1\n      dup4\n      iszero\n      iszero\n      mul\n      or\n      swap1\n      sstore\n      pop\n        /* \"contracts/basics/05-SimpleMappingsExample.sol\":443:588  function setUintUintBoolMapping(uint _index1, uint _index2, bool _value) public {\r... */\n      pop\n      pop\n      pop\n      jump\t// out\n        /* \"#utility.yul\":7:146   */\n    tag_39:\n        /* \"#utility.yul\":53:58   */\n      0x00\n        /* \"#utility.yul\":91:97   */\n      dup2\n        /* \"#utility.yul\":78:98   */\n      calldataload\n        /* \"#utility.yul\":69:98   */\n      swap1\n      pop\n        /* \"#utility.yul\":107:140   */\n      tag_41\n        /* \"#utility.yul\":134:139   */\n      dup2\n        /* \"#utility.yul\":107:140   */\n      tag_42\n      jump\t// in\n    tag_41:\n        /* \"#utility.yul\":7:146   */\n      swap3\n      swap2\n      pop\n      pop\n      jump\t// out\n        /* \"#utility.yul\":152:285   */\n    tag_43:\n        /* \"#utility.yul\":195:200   */\n      0x00\n        /* \"#utility.yul\":233:239   */\n      dup2\n        /* \"#utility.yul\":220:240   */\n      calldataload\n        /* \"#utility.yul\":211:240   */\n      swap1\n      pop\n        /* \"#utility.yul\":249:279   */\n      tag_45\n        /* \"#utility.yul\":273:278   */\n      dup2\n        /* \"#utility.yul\":249:279   */\n      tag_46\n      jump\t// in\n    tag_45:\n        /* \"#utility.yul\":152:285   */\n      swap3\n      swap2\n      pop\n      pop\n      jump\t// out\n        /* \"#utility.yul\":291:430   */\n    tag_47:\n        /* \"#utility.yul\":337:342   */\n      0x00\n        /* \"#utility.yul\":375:381   */\n      dup2\n        /* \"#utility.yul\":362:382   */\n      calldataload\n        /* \"#utility.yul\":353:382   */\n      swap1\n      pop\n        /* \"#utility.yul\":391:424   */\n      tag_49\n        /* \"#utility.yul\":418:423   */\n      dup2\n        /* \"#utility.yul\":391:424   */\n      tag_50\n      jump\t// in\n    tag_49:\n        /* \"#utility.yul\":291:430   */\n      swap3\n      swap2\n      pop\n      pop\n      jump\t// out\n        /* \"#utility.yul\":436:765   */\n    tag_27:\n        /* \"#utility.yul\":495:501   */\n      0x00\n        /* \"#utility.yul\":544:546   */\n      0x20\n        /* \"#utility.yul\":532:541   */\n      dup3\n        /* \"#utility.yul\":523:530   */\n      dup5\n        /* \"#utility.yul\":519:542   */\n      sub\n        /* \"#utility.yul\":515:547   */\n      slt\n        /* \"#utility.yul\":512:631   */\n      iszero\n      tag_52\n      jumpi\n        /* \"#utility.yul\":550:629   */\n      tag_53\n      tag_54\n      jump\t// in\n    tag_53:\n        /* \"#utility.yul\":512:631   */\n    tag_52:\n        /* \"#utility.yul\":670:671   */\n      0x00\n        /* \"#utility.yul\":695:748   */\n      tag_55\n        /* \"#utility.yul\":740:747   */\n      dup5\n        /* \"#utility.yul\":731:737   */\n      dup3\n        /* \"#utility.yul\":720:729   */\n      dup6\n        /* \"#utility.yul\":716:738   */\n      add\n        /* \"#utility.yul\":695:748   */\n      tag_39\n      jump\t// in\n    tag_55:\n        /* \"#utility.yul\":685:748   */\n      swap2\n      pop\n        /* \"#utility.yul\":641:758   */\n      pop\n        /* \"#utility.yul\":436:765   */\n      swap3\n      swap2\n      pop\n      pop\n      jump\t// out\n        /* \"#utility.yul\":771:1100   */\n    tag_13:\n        /* \"#utility.yul\":830:836   */\n      0x00\n        /* \"#utility.yul\":879:881   */\n      0x20\n        /* \"#utility.yul\":867:876   */\n      dup3\n        /* \"#utility.yul\":858:865   */\n      dup5\n        /* \"#utility.yul\":854:877   */\n      sub\n        /* \"#utility.yul\":850:882   */\n      slt\n        /* \"#utility.yul\":847:966   */\n      iszero\n      tag_57\n      jumpi\n        /* \"#utility.yul\":885:964   */\n      tag_58\n      tag_54\n      jump\t// in\n    tag_58:\n        /* \"#utility.yul\":847:966   */\n    tag_57:\n        /* \"#utility.yul\":1005:1006   */\n      0x00\n        /* \"#utility.yul\":1030:1083   */\n      tag_59\n        /* \"#utility.yul\":1075:1082   */\n      dup5\n        /* \"#utility.yul\":1066:1072   */\n      dup3\n        /* \"#utility.yul\":1055:1064   */\n      dup6\n        /* \"#utility.yul\":1051:1073   */\n      add\n        /* \"#utility.yul\":1030:1083   */\n      tag_47\n      jump\t// in\n    tag_59:\n        /* \"#utility.yul\":1020:1083   */\n      swap2\n      pop\n        /* \"#utility.yul\":976:1093   */\n      pop\n        /* \"#utility.yul\":771:1100   */\n      swap3\n      swap2\n      pop\n      pop\n      jump\t// out\n        /* \"#utility.yul\":1106:1580   */\n    tag_17:\n        /* \"#utility.yul\":1174:1180   */\n      0x00\n        /* \"#utility.yul\":1182:1188   */\n      dup1\n        /* \"#utility.yul\":1231:1233   */\n      0x40\n        /* \"#utility.yul\":1219:1228   */\n      dup4\n        /* \"#utility.yul\":1210:1217   */\n      dup6\n        /* \"#utility.yul\":1206:1229   */\n      sub\n        /* \"#utility.yul\":1202:1234   */\n      slt\n        /* \"#utility.yul\":1199:1318   */\n      iszero\n      tag_61\n      jumpi\n        /* \"#utility.yul\":1237:1316   */\n      tag_62\n      tag_54\n      jump\t// in\n    tag_62:\n        /* \"#utility.yul\":1199:1318   */\n    tag_61:\n        /* \"#utility.yul\":1357:1358   */\n      0x00\n        /* \"#utility.yul\":1382:1435   */\n      tag_63\n        /* \"#utility.yul\":1427:1434   */\n      dup6\n        /* \"#utility.yul\":1418:1424   */\n      dup3\n        /* \"#utility.yul\":1407:1416   */\n      dup7\n        /* \"#utility.yul\":1403:1425   */\n      add\n        /* \"#utility.yul\":1382:1435   */\n      tag_47\n      jump\t// in\n    tag_63:\n        /* \"#utility.yul\":1372:1435   */\n      swap3\n      pop\n        /* \"#utility.yul\":1328:1445   */\n      pop\n        /* \"#utility.yul\":1484:1486   */\n      0x20\n        /* \"#utility.yul\":1510:1563   */\n      tag_64\n        /* \"#utility.yul\":1555:1562   */\n      dup6\n        /* \"#utility.yul\":1546:1552   */\n      dup3\n        /* \"#utility.yul\":1535:1544   */\n      dup7\n        /* \"#utility.yul\":1531:1553   */\n      add\n        /* \"#utility.yul\":1510:1563   */\n      tag_47\n      jump\t// in\n    tag_64:\n        /* \"#utility.yul\":1500:1563   */\n      swap2\n      pop\n        /* \"#utility.yul\":1455:1573   */\n      pop\n        /* \"#utility.yul\":1106:1580   */\n      swap3\n      pop\n      swap3\n      swap1\n      pop\n      jump\t// out\n        /* \"#utility.yul\":1586:2199   */\n    tag_32:\n        /* \"#utility.yul\":1660:1666   */\n      0x00\n        /* \"#utility.yul\":1668:1674   */\n      dup1\n        /* \"#utility.yul\":1676:1682   */\n      0x00\n        /* \"#utility.yul\":1725:1727   */\n      0x60\n        /* \"#utility.yul\":1713:1722   */\n      dup5\n        /* \"#utility.yul\":1704:1711   */\n      dup7\n        /* \"#utility.yul\":1700:1723   */\n      sub\n        /* \"#utility.yul\":1696:1728   */\n      slt\n        /* \"#utility.yul\":1693:1812   */\n      iszero\n      tag_66\n      jumpi\n        /* \"#utility.yul\":1731:1810   */\n      tag_67\n      tag_54\n      jump\t// in\n    tag_67:\n        /* \"#utility.yul\":1693:1812   */\n    tag_66:\n        /* \"#utility.yul\":1851:1852   */\n      0x00\n        /* \"#utility.yul\":1876:1929   */\n      tag_68\n        /* \"#utility.yul\":1921:1928   */\n      dup7\n        /* \"#utility.yul\":1912:1918   */\n      dup3\n        /* \"#utility.yul\":1901:1910   */\n      dup8\n        /* \"#utility.yul\":1897:1919   */\n      add\n        /* \"#utility.yul\":1876:1929   */\n      tag_47\n      jump\t// in\n    tag_68:\n        /* \"#utility.yul\":1866:1929   */\n      swap4\n      pop\n        /* \"#utility.yul\":1822:1939   */\n      pop\n        /* \"#utility.yul\":1978:1980   */\n      0x20\n        /* \"#utility.yul\":2004:2057   */\n      tag_69\n        /* \"#utility.yul\":2049:2056   */\n      dup7\n        /* \"#utility.yul\":2040:2046   */\n      dup3\n        /* \"#utility.yul\":2029:2038   */\n      dup8\n        /* \"#utility.yul\":2025:2047   */\n      add\n        /* \"#utility.yul\":2004:2057   */\n      tag_47\n      jump\t// in\n    tag_69:\n        /* \"#utility.yul\":1994:2057   */\n      swap3\n      pop\n        /* \"#utility.yul\":1949:2067   */\n      pop\n        /* \"#utility.yul\":2106:2108   */\n      0x40\n        /* \"#utility.yul\":2132:2182   */\n      tag_70\n        /* \"#utility.yul\":2174:2181   */\n      dup7\n        /* \"#utility.yul\":2165:2171   */\n      dup3\n        /* \"#utility.yul\":2154:2163   */\n      dup8\n        /* \"#utility.yul\":2150:2172   */\n      add\n        /* \"#utility.yul\":2132:2182   */\n      tag_43\n      jump\t// in\n    tag_70:\n        /* \"#utility.yul\":2122:2182   */\n      swap2\n      pop\n        /* \"#utility.yul\":2077:2192   */\n      pop\n        /* \"#utility.yul\":1586:2199   */\n      swap3\n      pop\n      swap3\n      pop\n      swap3\n      jump\t// out\n        /* \"#utility.yul\":2205:2314   */\n    tag_71:\n        /* \"#utility.yul\":2286:2307   */\n      tag_73\n        /* \"#utility.yul\":2301:2306   */\n      dup2\n        /* \"#utility.yul\":2286:2307   */\n      tag_74\n      jump\t// in\n    tag_73:\n        /* \"#utility.yul\":2281:2284   */\n      dup3\n        /* \"#utility.yul\":2274:2308   */\n      mstore\n        /* \"#utility.yul\":2205:2314   */\n      pop\n      pop\n      jump\t// out\n        /* \"#utility.yul\":2320:2530   */\n    tag_20:\n        /* \"#utility.yul\":2407:2411   */\n      0x00\n        /* \"#utility.yul\":2445:2447   */\n      0x20\n        /* \"#utility.yul\":2434:2443   */\n      dup3\n        /* \"#utility.yul\":2430:2448   */\n      add\n        /* \"#utility.yul\":2422:2448   */\n      swap1\n      pop\n        /* \"#utility.yul\":2458:2523   */\n      tag_76\n        /* \"#utility.yul\":2520:2521   */\n      0x00\n        /* \"#utility.yul\":2509:2518   */\n      dup4\n        /* \"#utility.yul\":2505:2522   */\n      add\n        /* \"#utility.yul\":2496:2502   */\n      dup5\n        /* \"#utility.yul\":2458:2523   */\n      tag_71\n      jump\t// in\n    tag_76:\n        /* \"#utility.yul\":2320:2530   */\n      swap3\n      swap2\n      pop\n      pop\n      jump\t// out\n        /* \"#utility.yul\":2617:2713   */\n    tag_79:\n        /* \"#utility.yul\":2654:2661   */\n      0x00\n        /* \"#utility.yul\":2683:2707   */\n      tag_81\n        /* \"#utility.yul\":2701:2706   */\n      dup3\n        /* \"#utility.yul\":2683:2707   */\n      tag_82\n      jump\t// in\n    tag_81:\n        /* \"#utility.yul\":2672:2707   */\n      swap1\n      pop\n        /* \"#utility.yul\":2617:2713   */\n      swap2\n      swap1\n      pop\n      jump\t// out\n        /* \"#utility.yul\":2719:2809   */\n    tag_74:\n        /* \"#utility.yul\":2753:2760   */\n      0x00\n        /* \"#utility.yul\":2796:2801   */\n      dup2\n        /* \"#utility.yul\":2789:2802   */\n      iszero\n        /* \"#utility.yul\":2782:2803   */\n      iszero\n        /* \"#utility.yul\":2771:2803   */\n      swap1\n      pop\n        /* \"#utility.yul\":2719:2809   */\n      swap2\n      swap1\n      pop\n      jump\t// out\n        /* \"#utility.yul\":2815:2941   */\n    tag_82:\n        /* \"#utility.yul\":2852:2859   */\n      0x00\n        /* \"#utility.yul\":2892:2934   */\n      0xffffffffffffffffffffffffffffffffffffffff\n        /* \"#utility.yul\":2885:2890   */\n      dup3\n        /* \"#utility.yul\":2881:2935   */\n      and\n        /* \"#utility.yul\":2870:2935   */\n      swap1\n      pop\n        /* \"#utility.yul\":2815:2941   */\n      swap2\n      swap1\n      pop\n      jump\t// out\n        /* \"#utility.yul\":2947:3024   */\n    tag_85:\n        /* \"#utility.yul\":2984:2991   */\n      0x00\n        /* \"#utility.yul\":3013:3018   */\n      dup2\n        /* \"#utility.yul\":3002:3018   */\n      swap1\n      pop\n        /* \"#utility.yul\":2947:3024   */\n      swap2\n      swap1\n      pop\n      jump\t// out\n        /* \"#utility.yul\":3153:3270   */\n    tag_54:\n        /* \"#utility.yul\":3262:3263   */\n      0x00\n        /* \"#utility.yul\":3259:3260   */\n      dup1\n        /* \"#utility.yul\":3252:3264   */\n      revert\n        /* \"#utility.yul\":3276:3398   */\n    tag_42:\n        /* \"#utility.yul\":3349:3373   */\n      tag_91\n        /* \"#utility.yul\":3367:3372   */\n      dup2\n        /* \"#utility.yul\":3349:3373   */\n      tag_79\n      jump\t// in\n    tag_91:\n        /* \"#utility.yul\":3342:3347   */\n      dup2\n        /* \"#utility.yul\":3339:3374   */\n      eq\n        /* \"#utility.yul\":3329:3392   */\n      tag_92\n      jumpi\n        /* \"#utility.yul\":3388:3389   */\n      0x00\n        /* \"#utility.yul\":3385:3386   */\n      dup1\n        /* \"#utility.yul\":3378:3390   */\n      revert\n        /* \"#utility.yul\":3329:3392   */\n    tag_92:\n        /* \"#utility.yul\":3276:3398   */\n      pop\n      jump\t// out\n        /* \"#utility.yul\":3404:3520   */\n    tag_46:\n        /* \"#utility.yul\":3474:3495   */\n      tag_94\n        /* \"#utility.yul\":3489:3494   */\n      dup2\n        /* \"#utility.yul\":3474:3495   */\n      tag_74\n      jump\t// in\n    tag_94:\n        /* \"#utility.yul\":3467:3472   */\n      dup2\n        /* \"#utility.yul\":3464:3496   */\n      eq\n        /* \"#utility.yul\":3454:3514   */\n      tag_95\n      jumpi\n        /* \"#utility.yul\":3510:3511   */\n      0x00\n        /* \"#utility.yul\":3507:3508   */\n      dup1\n        /* \"#utility.yul\":3500:3512   */\n      revert\n        /* \"#utility.yul\":3454:3514   */\n    tag_95:\n        /* \"#utility.yul\":3404:3520   */\n      pop\n      jump\t// out\n        /* \"#utility.yul\":3526:3648   */\n    tag_50:\n        /* \"#utility.yul\":3599:3623   */\n      tag_97\n        /* \"#utility.yul\":3617:3622   */\n      dup2\n        /* \"#utility.yul\":3599:3623   */\n      tag_85\n      jump\t// in\n    tag_97:\n        /* \"#utility.yul\":3592:3597   */\n      dup2\n        /* \"#utility.yul\":3589:3624   */\n      eq\n        /* \"#utility.yul\":3579:3642   */\n      tag_98\n      jumpi\n        /* \"#utility.yul\":3638:3639   */\n      0x00\n        /* \"#utility.yul\":3635:3636   */\n      dup1\n        /* \"#utility.yul\":3628:3640   */\n      revert\n        /* \"#utility.yul\":3579:3642   */\n    tag_98:\n        /* \"#utility.yul\":3526:3648   */\n      pop\n      jump\t// out\n\n    auxdata: 0xa264697066735822122090326f913e3e10e9391d761a624391e7bef04f534fa77398edd0509fcd844f9f64736f6c63430008070033\n}\n",
				"bytecode": {
					"linkReferences": {},
					"object": "608060405234801561001057600080fd5b5061049b806100206000396000f3fe608060405234801561001057600080fd5b50600436106100625760003560e01c8063276c3b6314610067578063552410771461007157806363717d301461008d5780637c668844146100bd578063b92ba3b8146100ed578063bc65030e1461011d575b600080fd5b61006f610139565b005b61008b600480360381019061008691906102e9565b610192565b005b6100a760048036038101906100a29190610316565b6101c0565b6040516100b491906103b8565b60405180910390f35b6100d760048036038101906100d291906102e9565b6101fc565b6040516100e491906103b8565b60405180910390f35b610107600480360381019061010291906102bc565b61021c565b60405161011491906103b8565b60405180910390f35b61013760048036038101906101329190610356565b61023c565b005b60018060003373ffffffffffffffffffffffffffffffffffffffff1673ffffffffffffffffffffffffffffffffffffffff16815260200190815260200160002060006101000a81548160ff021916908315150217905550565b600160008083815260200190815260200160002060006101000a81548160ff02191690831515021790555050565b600060026000848152602001908152602001600020600083815260200190815260200160002060009054906101000a900460ff16905092915050565b60006020528060005260406000206000915054906101000a900460ff1681565b60016020528060005260406000206000915054906101000a900460ff1681565b8060026000858152602001908152602001600020600084815260200190815260200160002060006101000a81548160ff021916908315150217905550505050565b60008135905061028c81610420565b92915050565b6000813590506102a181610437565b92915050565b6000813590506102b68161044e565b92915050565b6000602082840312156102d2576102d161041b565b5b60006102e08482850161027d565b91505092915050565b6000602082840312156102ff576102fe61041b565b5b600061030d848285016102a7565b91505092915050565b6000806040838503121561032d5761032c61041b565b5b600061033b858286016102a7565b925050602061034c858286016102a7565b9150509250929050565b60008060006060848603121561036f5761036e61041b565b5b600061037d868287016102a7565b935050602061038e868287016102a7565b925050604061039f86828701610292565b9150509250925092565b6103b2816103e5565b82525050565b60006020820190506103cd60008301846103a9565b92915050565b60006103de826103f1565b9050919050565b60008115159050919050565b600073ffffffffffffffffffffffffffffffffffffffff82169050919050565b6000819050919050565b600080fd5b610429816103d3565b811461043457600080fd5b50565b610440816103e5565b811461044b57600080fd5b50565b61045781610411565b811461046257600080fd5b5056fea264697066735822122090326f913e3e10e9391d761a624391e7bef04f534fa77398edd0509fcd844f9f64736f6c63430008070033",
					"opcodes": "PUSH1 0x80 PUSH1 0x40 MSTORE CALLVALUE DUP1 ISZERO PUSH2 0x10 JUMPI PUSH1 0x0 DUP1 REVERT JUMPDEST POP PUSH2 0x49B DUP1 PUSH2 0x20 PUSH1 0x0 CODECOPY PUSH1 0x0 RETURN INVALID PUSH1 0x80 PUSH1 0x40 MSTORE CALLVALUE DUP1 ISZERO PUSH2 0x10 JUMPI PUSH1 0x0 DUP1 REVERT JUMPDEST POP PUSH1 0x4 CALLDATASIZE LT PUSH2 0x62 JUMPI PUSH1 0x0 CALLDATALOAD PUSH1 0xE0 SHR DUP1 PUSH4 0x276C3B63 EQ PUSH2 0x67 JUMPI DUP1 PUSH4 0x55241077 EQ PUSH2 0x71 JUMPI DUP1 PUSH4 0x63717D30 EQ PUSH2 0x8D JUMPI DUP1 PUSH4 0x7C668844 EQ PUSH2 0xBD JUMPI DUP1 PUSH4 0xB92BA3B8 EQ PUSH2 0xED JUMPI DUP1 PUSH4 0xBC65030E EQ PUSH2 0x11D JUMPI JUMPDEST PUSH1 0x0 DUP1 REVERT JUMPDEST PUSH2 0x6F PUSH2 0x139 JUMP JUMPDEST STOP JUMPDEST PUSH2 0x8B PUSH1 0x4 DUP1 CALLDATASIZE SUB DUP2 ADD SWAP1 PUSH2 0x86 SWAP2 SWAP1 PUSH2 0x2E9 JUMP JUMPDEST PUSH2 0x192 JUMP JUMPDEST STOP JUMPDEST PUSH2 0xA7 PUSH1 0x4 DUP1 CALLDATASIZE SUB DUP2 ADD SWAP1 PUSH2 0xA2 SWAP2 SWAP1 PUSH2 0x316 JUMP JUMPDEST PUSH2 0x1C0 JUMP JUMPDEST PUSH1 0x40 MLOAD PUSH2 0xB4 SWAP2 SWAP1 PUSH2 0x3B8 JUMP JUMPDEST PUSH1 0x40 MLOAD DUP1 SWAP2 SUB SWAP1 RETURN JUMPDEST PUSH2 0xD7 PUSH1 0x4 DUP1 CALLDATASIZE SUB DUP2 ADD SWAP1 PUSH2 0xD2 SWAP2 SWAP1 PUSH2 0x2E9 JUMP JUMPDEST PUSH2 0x1FC JUMP JUMPDEST PUSH1 0x40 MLOAD PUSH2 0xE4 SWAP2 SWAP1 PUSH2 0x3B8 JUMP JUMPDEST PUSH1 0x40 MLOAD DUP1 SWAP2 SUB SWAP1 RETURN JUMPDEST PUSH2 0x107 PUSH1 0x4 DUP1 CALLDATASIZE SUB DUP2 ADD SWAP1 PUSH2 0x102 SWAP2 SWAP1 PUSH2 0x2BC JUMP JUMPDEST PUSH2 0x21C JUMP JUMPDEST PUSH1 0x40 MLOAD PUSH2 0x114 SWAP2 SWAP1 PUSH2 0x3B8 JUMP JUMPDEST PUSH1 0x40 MLOAD DUP1 SWAP2 SUB SWAP1 RETURN JUMPDEST PUSH2 0x137 PUSH1 0x4 DUP1 CALLDATASIZE SUB DUP2 ADD SWAP1 PUSH2 0x132 SWAP2 SWAP1 PUSH2 0x356 JUMP JUMPDEST PUSH2 0x23C JUMP JUMPDEST STOP JUMPDEST PUSH1 0x1 DUP1 PUSH1 0x0 CALLER PUSH20 0xFFFFFFFFFFFFFFFFFFFFFFFFFFFFFFFFFFFFFFFF AND PUSH20 0xFFFFFFFFFFFFFFFFFFFFFFFFFFFFFFFFFFFFFFFF AND DUP2 MSTORE PUSH1 0x20 ADD SWAP1 DUP2 MSTORE PUSH1 0x20 ADD PUSH1 0x0 KECCAK256 PUSH1 0x0 PUSH2 0x100 EXP DUP2 SLOAD DUP2 PUSH1 0xFF MUL NOT AND SWAP1 DUP4 ISZERO ISZERO MUL OR SWAP1 SSTORE POP JUMP JUMPDEST PUSH1 0x1 PUSH1 0x0 DUP1 DUP4 DUP2 MSTORE PUSH1 0x20 ADD SWAP1 DUP2 MSTORE PUSH1 0x20 ADD PUSH1 0x0 KECCAK256 PUSH1 0x0 PUSH2 0x100 EXP DUP2 SLOAD DUP2 PUSH1 0xFF MUL NOT AND SWAP1 DUP4 ISZERO ISZERO MUL OR SWAP1 SSTORE POP POP JUMP JUMPDEST PUSH1 0x0 PUSH1 0x2 PUSH1 0x0 DUP5 DUP2 MSTORE PUSH1 0x20 ADD SWAP1 DUP2 MSTORE PUSH1 0x20 ADD PUSH1 0x0 KECCAK256 PUSH1 0x0 DUP4 DUP2 MSTORE PUSH1 0x20 ADD SWAP1 DUP2 MSTORE PUSH1 0x20 ADD PUSH1 0x0 KECCAK256 PUSH1 0x0 SWAP1 SLOAD SWAP1 PUSH2 0x100 EXP SWAP1 DIV PUSH1 0xFF AND SWAP1 POP SWAP3 SWAP2 POP POP JUMP JUMPDEST PUSH1 0x0 PUSH1 0x20 MSTORE DUP1 PUSH1 0x0 MSTORE PUSH1 0x40 PUSH1 0x0 KECCAK256 PUSH1 0x0 SWAP2 POP SLOAD SWAP1 PUSH2 0x100 EXP SWAP1 DIV PUSH1 0xFF AND DUP2 JUMP JUMPDEST PUSH1 0x1 PUSH1 0x20 MSTORE DUP1 PUSH1 0x0 MSTORE PUSH1 0x40 PUSH1 0x0 KECCAK256 PUSH1 0x0 SWAP2 POP SLOAD SWAP1 PUSH2 0x100 EXP SWAP1 DIV PUSH1 0xFF AND DUP2 JUMP JUMPDEST DUP1 PUSH1 0x2 PUSH1 0x0 DUP6 DUP2 MSTORE PUSH1 0x20 ADD SWAP1 DUP2 MSTORE PUSH1 0x20 ADD PUSH1 0x0 KECCAK256 PUSH1 0x0 DUP5 DUP2 MSTORE PUSH1 0x20 ADD SWAP1 DUP2 MSTORE PUSH1 0x20 ADD PUSH1 0x0 KECCAK256 PUSH1 0x0 PUSH2 0x100 EXP DUP2 SLOAD DUP2 PUSH1 0xFF MUL NOT AND SWAP1 DUP4 ISZERO ISZERO MUL OR SWAP1 SSTORE POP POP POP POP JUMP JUMPDEST PUSH1 0x0 DUP2 CALLDATALOAD SWAP1 POP PUSH2 0x28C DUP2 PUSH2 0x420 JUMP JUMPDEST SWAP3 SWAP2 POP POP JUMP JUMPDEST PUSH1 0x0 DUP2 CALLDATALOAD SWAP1 POP PUSH2 0x2A1 DUP2 PUSH2 0x437 JUMP JUMPDEST SWAP3 SWAP2 POP POP JUMP JUMPDEST PUSH1 0x0 DUP2 CALLDATALOAD SWAP1 POP PUSH2 0x2B6 DUP2 PUSH2 0x44E JUMP JUMPDEST SWAP3 SWAP2 POP POP JUMP JUMPDEST PUSH1 0x0 PUSH1 0x20 DUP3 DUP5 SUB SLT ISZERO PUSH2 0x2D2 JUMPI PUSH2 0x2D1 PUSH2 0x41B JUMP JUMPDEST JUMPDEST PUSH1 0x0 PUSH2 0x2E0 DUP5 DUP3 DUP6 ADD PUSH2 0x27D JUMP JUMPDEST SWAP2 POP POP SWAP3 SWAP2 POP POP JUMP JUMPDEST PUSH1 0x0 PUSH1 0x20 DUP3 DUP5 SUB SLT ISZERO PUSH2 0x2FF JUMPI PUSH2 0x2FE PUSH2 0x41B JUMP JUMPDEST JUMPDEST PUSH1 0x0 PUSH2 0x30D DUP5 DUP3 DUP6 ADD PUSH2 0x2A7 JUMP JUMPDEST SWAP2 POP POP SWAP3 SWAP2 POP POP JUMP JUMPDEST PUSH1 0x0 DUP1 PUSH1 0x40 DUP4 DUP6 SUB SLT ISZERO PUSH2 0x32D JUMPI PUSH2 0x32C PUSH2 0x41B JUMP JUMPDEST JUMPDEST PUSH1 0x0 PUSH2 0x33B DUP6 DUP3 DUP7 ADD PUSH2 0x2A7 JUMP JUMPDEST SWAP3 POP POP PUSH1 0x20 PUSH2 0x34C DUP6 DUP3 DUP7 ADD PUSH2 0x2A7 JUMP JUMPDEST SWAP2 POP POP SWAP3 POP SWAP3 SWAP1 POP JUMP JUMPDEST PUSH1 0x0 DUP1 PUSH1 0x0 PUSH1 0x60 DUP5 DUP7 SUB SLT ISZERO PUSH2 0x36F JUMPI PUSH2 0x36E PUSH2 0x41B JUMP JUMPDEST JUMPDEST PUSH1 0x0 PUSH2 0x37D DUP7 DUP3 DUP8 ADD PUSH2 0x2A7 JUMP JUMPDEST SWAP4 POP POP PUSH1 0x20 PUSH2 0x38E DUP7 DUP3 DUP8 ADD PUSH2 0x2A7 JUMP JUMPDEST SWAP3 POP POP PUSH1 0x40 PUSH2 0x39F DUP7 DUP3 DUP8 ADD PUSH2 0x292 JUMP JUMPDEST SWAP2 POP POP SWAP3 POP SWAP3 POP SWAP3 JUMP JUMPDEST PUSH2 0x3B2 DUP2 PUSH2 0x3E5 JUMP JUMPDEST DUP3 MSTORE POP POP JUMP JUMPDEST PUSH1 0x0 PUSH1 0x20 DUP3 ADD SWAP1 POP PUSH2 0x3CD PUSH1 0x0 DUP4 ADD DUP5 PUSH2 0x3A9 JUMP JUMPDEST SWAP3 SWAP2 POP POP JUMP JUMPDEST PUSH1 0x0 PUSH2 0x3DE DUP3 PUSH2 0x3F1 JUMP JUMPDEST SWAP1 POP SWAP2 SWAP1 POP JUMP JUMPDEST PUSH1 0x0 DUP2 ISZERO ISZERO SWAP1 POP SWAP2 SWAP1 POP JUMP JUMPDEST PUSH1 0x0 PUSH20 0xFFFFFFFFFFFFFFFFFFFFFFFFFFFFFFFFFFFFFFFF DUP3 AND SWAP1 POP SWAP2 SWAP1 POP JUMP JUMPDEST PUSH1 0x0 DUP2 SWAP1 POP SWAP2 SWAP1 POP JUMP JUMPDEST PUSH1 0x0 DUP1 REVERT JUMPDEST PUSH2 0x429 DUP2 PUSH2 0x3D3 JUMP JUMPDEST DUP2 EQ PUSH2 0x434 JUMPI PUSH1 0x0 DUP1 REVERT JUMPDEST POP JUMP JUMPDEST PUSH2 0x440 DUP2 PUSH2 0x3E5 JUMP JUMPDEST DUP2 EQ PUSH2 0x44B JUMPI PUSH1 0x0 DUP1 REVERT JUMPDEST POP JUMP JUMPDEST PUSH2 0x457 DUP2 PUSH2 0x411 JUMP JUMPDEST DUP2 EQ PUSH2 0x462 JUMPI PUSH1 0x0 DUP1 REVERT JUMPDEST POP JUMP INVALID LOG2 PUSH5 0x6970667358 0x22 SLT KECCAK256 SWAP1 ORIGIN PUSH16 0x913E3E10E9391D761A624391E7BEF04F MSTORE8 0x4F 0xA7 PUSH20 0x98EDD0509FCD844F9F64736F6C63430008070033 "
				},
				"gasEstimates": {
					"creation": {
						"codeDepositCost": "235800",
						"executionCost": "275",
						"totalCost": "236075"
					},
					"external": {
						"getUintUintBoolMapping(uint256,uint256)": "infinite",
						"myAddressMapping(address)": "2911",
						"myMapping(uint256)": "2840",
						"setMyAddresstoTrue()": "24478",
						"setUintUintBoolMapping(uint256,uint256,bool)": "infinite",
						"setValue(uint256)": "24751"
					}
				},
				"methodIdentifiers": {
					"getUintUintBoolMapping(uint256,uint256)": "63717d30",
					"myAddressMapping(address)": "b92ba3b8",
					"myMapping(uint256)": "7c668844",
					"setMyAddresstoTrue()": "276c3b63",
					"setUintUintBoolMapping(uint256,uint256,bool)": "bc65030e",
					"setValue(uint256)": "55241077"
				}
			},
			"storageLayout": {
				"storage": [
					{
						"astId": 5,
						"contract": "contracts/basics/05-SimpleMappingsExample.sol:SimpleMappingsExample",
						"label": "myMapping",
						"offset": 0,
						"slot": "0",
						"type": "t_mapping(t_uint256,t_bool)"
					},
					{
						"astId": 9,
						"contract": "contracts/basics/05-SimpleMappingsExample.sol:SimpleMappingsExample",
						"label": "myAddressMapping",
						"offset": 0,
						"slot": "1",
						"type": "t_mapping(t_address,t_bool)"
					},
					{
						"astId": 15,
						"contract": "contracts/basics/05-SimpleMappingsExample.sol:SimpleMappingsExample",
						"label": "uintUintBoolMapping",
						"offset": 0,
						"slot": "2",
						"type": "t_mapping(t_uint256,t_mapping(t_uint256,t_bool))"
					}
				],
				"types": {
					"t_address": {
						"encoding": "inplace",
						"label": "address",
						"numberOfBytes": "20"
					},
					"t_bool": {
						"encoding": "inplace",
						"label": "bool",
						"numberOfBytes": "1"
					},
					"t_mapping(t_address,t_bool)": {
						"encoding": "mapping",
						"key": "t_address",
						"label": "mapping(address => bool)",
						"numberOfBytes": "32",
						"value": "t_bool"
					},
					"t_mapping(t_uint256,t_bool)": {
						"encoding": "mapping",
						"key": "t_uint256",
						"label": "mapping(uint256 => bool)",
						"numberOfBytes": "32",
						"value": "t_bool"
					},
					"t_mapping(t_uint256,t_mapping(t_uint256,t_bool))": {
						"encoding": "mapping",
						"key": "t_uint256",
						"label": "mapping(uint256 => mapping(uint256 => bool))",
						"numberOfBytes": "32",
						"value": "t_mapping(t_uint256,t_bool)"
					},
					"t_uint256": {
						"encoding": "inplace",
						"label": "uint256",
						"numberOfBytes": "32"
					}
				}
			},
			"userdoc": {
				"kind": "user",
				"methods": {},
				"version": 1
			}
		}
	}
}