{
	"contracts/basics/09-FunctionsExample.sol": {
		"FunctionsExample": {
			"abi": [
				{
					"inputs": [],
					"stateMutability": "nonpayable",
					"type": "constructor"
				},
				{
					"inputs": [
						{
							"internalType": "address",
							"name": "",
							"type": "address"
						}
					],
					"name": "balanceReceived",
					"outputs": [
						{
							"internalType": "uint256",
							"name": "",
							"type": "uint256"
						}
					],
					"stateMutability": "view",
					"type": "function"
				},
				{
					"inputs": [],
					"name": "destroySmartContract",
					"outputs": [],
					"stateMutability": "nonpayable",
					"type": "function"
				},
				{
					"inputs": [],
					"name": "fall",
					"outputs": [],
					"stateMutability": "payable",
					"type": "function"
				},
				{
					"inputs": [],
					"name": "getOwner",
					"outputs": [
						{
							"internalType": "address",
							"name": "",
							"type": "address"
						}
					],
					"stateMutability": "pure",
					"type": "function"
				},
				{
					"inputs": [],
					"name": "receiveMoney",
					"outputs": [],
					"stateMutability": "payable",
					"type": "function"
				},
				{
					"inputs": [
						{
							"internalType": "address payable",
							"name": "_to",
							"type": "address"
						},
						{
							"internalType": "uint256",
							"name": "_amount",
							"type": "uint256"
						}
					],
					"name": "withdrawMoney",
					"outputs": [],
					"stateMutability": "nonpayable",
					"type": "function"
				}
			],
			"devdoc": {
				"kind": "dev",
				"methods": {},
				"version": 1
			},
			"evm": {
				"assembly": "    /* \"contracts/basics/09-FunctionsExample.sol\":55:1049  contract FunctionsExample{\r... */\n  mstore(0x40, 0x80)\n    /* \"contracts/basics/09-FunctionsExample.sol\":170:229  constructor(){\r... */\n  callvalue\n  dup1\n  iszero\n  tag_1\n  jumpi\n  0x00\n  dup1\n  revert\ntag_1:\n  pop\n    /* \"contracts/basics/09-FunctionsExample.sol\":210:220  msg.sender */\n  caller\n    /* \"contracts/basics/09-FunctionsExample.sol\":194:199  owner */\n  0x01\n  0x00\n    /* \"contracts/basics/09-FunctionsExample.sol\":194:221  owner = payable(msg.sender) */\n  0x0100\n  exp\n  dup2\n  sload\n  dup2\n  0xffffffffffffffffffffffffffffffffffffffff\n  mul\n  not\n  and\n  swap1\n  dup4\n  0xffffffffffffffffffffffffffffffffffffffff\n  and\n  mul\n  or\n  swap1\n  sstore\n  pop\n    /* \"contracts/basics/09-FunctionsExample.sol\":55:1049  contract FunctionsExample{\r... */\n  dataSize(sub_0)\n  dup1\n  dataOffset(sub_0)\n  0x00\n  codecopy\n  0x00\n  return\nstop\n\nsub_0: assembly {\n        /* \"contracts/basics/09-FunctionsExample.sol\":55:1049  contract FunctionsExample{\r... */\n      mstore(0x40, 0x80)\n      jumpi(tag_1, lt(calldatasize, 0x04))\n      shr(0xe0, calldataload(0x00))\n      dup1\n      0x0cf2f2c1\n      eq\n      tag_2\n      jumpi\n      dup1\n      0x6d26ec18\n      eq\n      tag_3\n      jumpi\n      dup1\n      0x85474728\n      eq\n      tag_4\n      jumpi\n      dup1\n      0x893d20e8\n      eq\n      tag_5\n      jumpi\n      dup1\n      0xd18a42e1\n      eq\n      tag_6\n      jumpi\n      dup1\n      0xf274c897\n      eq\n      tag_7\n      jumpi\n    tag_1:\n      0x00\n      dup1\n      revert\n        /* \"contracts/basics/09-FunctionsExample.sol\":981:1046  function fall() external payable{\r... */\n    tag_2:\n      tag_8\n      tag_9\n      jump\t// in\n    tag_8:\n      stop\n        /* \"contracts/basics/09-FunctionsExample.sol\":456:648  function receiveMoney() public payable{\r... */\n    tag_3:\n      tag_10\n      tag_11\n      jump\t// in\n    tag_10:\n      stop\n        /* \"contracts/basics/09-FunctionsExample.sol\":311:448  function destroySmartContract() public{\r... */\n    tag_4:\n      callvalue\n      dup1\n      iszero\n      tag_12\n      jumpi\n      0x00\n      dup1\n      revert\n    tag_12:\n      pop\n      tag_13\n      tag_14\n      jump\t// in\n    tag_13:\n      stop\n        /* \"contracts/basics/09-FunctionsExample.sol\":237:303  function getOwner() public pure returns(address){\r... */\n    tag_5:\n      callvalue\n      dup1\n      iszero\n      tag_15\n      jumpi\n      0x00\n      dup1\n      revert\n    tag_15:\n      pop\n      tag_16\n      tag_17\n      jump\t// in\n    tag_16:\n      mload(0x40)\n      tag_18\n      swap2\n      swap1\n      tag_19\n      jump\t// in\n    tag_18:\n      mload(0x40)\n      dup1\n      swap2\n      sub\n      swap1\n      return\n        /* \"contracts/basics/09-FunctionsExample.sol\":87:133  mapping(address=> uint) public balanceReceived */\n    tag_6:\n      callvalue\n      dup1\n      iszero\n      tag_20\n      jumpi\n      0x00\n      dup1\n      revert\n    tag_20:\n      pop\n      tag_21\n      0x04\n      dup1\n      calldatasize\n      sub\n      dup2\n      add\n      swap1\n      tag_22\n      swap2\n      swap1\n      tag_23\n      jump\t// in\n    tag_22:\n      tag_24\n      jump\t// in\n    tag_21:\n      mload(0x40)\n      tag_25\n      swap2\n      swap1\n      tag_26\n      jump\t// in\n    tag_25:\n      mload(0x40)\n      dup1\n      swap2\n      sub\n      swap1\n      return\n        /* \"contracts/basics/09-FunctionsExample.sol\":656:973  function withdrawMoney(address payable _to, uint _amount) public{\r... */\n    tag_7:\n      callvalue\n      dup1\n      iszero\n      tag_27\n      jumpi\n      0x00\n      dup1\n      revert\n    tag_27:\n      pop\n      tag_28\n      0x04\n      dup1\n      calldatasize\n      sub\n      dup2\n      add\n      swap1\n      tag_29\n      swap2\n      swap1\n      tag_30\n      jump\t// in\n    tag_29:\n      tag_31\n      jump\t// in\n    tag_28:\n      stop\n        /* \"contracts/basics/09-FunctionsExample.sol\":981:1046  function fall() external payable{\r... */\n    tag_9:\n        /* \"contracts/basics/09-FunctionsExample.sol\":1024:1038  receiveMoney() */\n      tag_33\n        /* \"contracts/basics/09-FunctionsExample.sol\":1024:1036  receiveMoney */\n      tag_11\n        /* \"contracts/basics/09-FunctionsExample.sol\":1024:1038  receiveMoney() */\n      jump\t// in\n    tag_33:\n        /* \"contracts/basics/09-FunctionsExample.sol\":981:1046  function fall() external payable{\r... */\n      jump\t// out\n        /* \"contracts/basics/09-FunctionsExample.sol\":456:648  function receiveMoney() public payable{\r... */\n    tag_11:\n        /* \"contracts/basics/09-FunctionsExample.sol\":557:572  balanceReceived */\n      0x00\n        /* \"contracts/basics/09-FunctionsExample.sol\":557:584  balanceReceived[msg.sender] */\n      dup1\n        /* \"contracts/basics/09-FunctionsExample.sol\":573:583  msg.sender */\n      caller\n        /* \"contracts/basics/09-FunctionsExample.sol\":557:584  balanceReceived[msg.sender] */\n      0xffffffffffffffffffffffffffffffffffffffff\n      and\n      0xffffffffffffffffffffffffffffffffffffffff\n      and\n      dup2\n      mstore\n      0x20\n      add\n      swap1\n      dup2\n      mstore\n      0x20\n      add\n      0x00\n      keccak256\n      sload\n        /* \"contracts/basics/09-FunctionsExample.sol\":545:554  msg.value */\n      callvalue\n        /* \"contracts/basics/09-FunctionsExample.sol\":512:527  balanceReceived */\n      0x00\n        /* \"contracts/basics/09-FunctionsExample.sol\":512:539  balanceReceived[msg.sender] */\n      dup1\n        /* \"contracts/basics/09-FunctionsExample.sol\":528:538  msg.sender */\n      caller\n        /* \"contracts/basics/09-FunctionsExample.sol\":512:539  balanceReceived[msg.sender] */\n      0xffffffffffffffffffffffffffffffffffffffff\n      and\n      0xffffffffffffffffffffffffffffffffffffffff\n      and\n      dup2\n      mstore\n      0x20\n      add\n      swap1\n      dup2\n      mstore\n      0x20\n      add\n      0x00\n      keccak256\n      sload\n        /* \"contracts/basics/09-FunctionsExample.sol\":512:555  balanceReceived[msg.sender]+uint(msg.value) */\n      tag_35\n      swap2\n      swap1\n      tag_36\n      jump\t// in\n    tag_35:\n        /* \"contracts/basics/09-FunctionsExample.sol\":512:584  balanceReceived[msg.sender]+uint(msg.value)>=balanceReceived[msg.sender] */\n      lt\n      iszero\n        /* \"contracts/basics/09-FunctionsExample.sol\":505:585  assert(balanceReceived[msg.sender]+uint(msg.value)>=balanceReceived[msg.sender]) */\n      tag_37\n      jumpi\n      mstore(0x00, 0x4e487b7100000000000000000000000000000000000000000000000000000000)\n      mstore(0x04, 0x01)\n      revert(0x00, 0x24)\n    tag_37:\n        /* \"contracts/basics/09-FunctionsExample.sol\":630:639  msg.value */\n      callvalue\n        /* \"contracts/basics/09-FunctionsExample.sol\":596:611  balanceReceived */\n      0x00\n        /* \"contracts/basics/09-FunctionsExample.sol\":596:623  balanceReceived[msg.sender] */\n      dup1\n        /* \"contracts/basics/09-FunctionsExample.sol\":612:622  msg.sender */\n      caller\n        /* \"contracts/basics/09-FunctionsExample.sol\":596:623  balanceReceived[msg.sender] */\n      0xffffffffffffffffffffffffffffffffffffffff\n      and\n      0xffffffffffffffffffffffffffffffffffffffff\n      and\n      dup2\n      mstore\n      0x20\n      add\n      swap1\n      dup2\n      mstore\n      0x20\n      add\n      0x00\n      keccak256\n      0x00\n        /* \"contracts/basics/09-FunctionsExample.sol\":596:640  balanceReceived[msg.sender]+=uint(msg.value) */\n      dup3\n      dup3\n      sload\n      tag_38\n      swap2\n      swap1\n      tag_36\n      jump\t// in\n    tag_38:\n      swap3\n      pop\n      pop\n      dup2\n      swap1\n      sstore\n      pop\n        /* \"contracts/basics/09-FunctionsExample.sol\":456:648  function receiveMoney() public payable{\r... */\n      jump\t// out\n        /* \"contracts/basics/09-FunctionsExample.sol\":311:448  function destroySmartContract() public{\r... */\n    tag_14:\n        /* \"contracts/basics/09-FunctionsExample.sol\":380:385  owner */\n      0x01\n      0x00\n      swap1\n      sload\n      swap1\n      0x0100\n      exp\n      swap1\n      div\n      0xffffffffffffffffffffffffffffffffffffffff\n      and\n        /* \"contracts/basics/09-FunctionsExample.sol\":368:385  msg.sender==owner */\n      0xffffffffffffffffffffffffffffffffffffffff\n      and\n        /* \"contracts/basics/09-FunctionsExample.sol\":368:378  msg.sender */\n      caller\n        /* \"contracts/basics/09-FunctionsExample.sol\":368:385  msg.sender==owner */\n      0xffffffffffffffffffffffffffffffffffffffff\n      and\n      eq\n        /* \"contracts/basics/09-FunctionsExample.sol\":360:410  require(msg.sender==owner,'You are not the owner') */\n      tag_40\n      jumpi\n      mload(0x40)\n      0x08c379a000000000000000000000000000000000000000000000000000000000\n      dup2\n      mstore\n      0x04\n      add\n      tag_41\n      swap1\n      tag_42\n      jump\t// in\n    tag_41:\n      mload(0x40)\n      dup1\n      swap2\n      sub\n      swap1\n      revert\n    tag_40:\n        /* \"contracts/basics/09-FunctionsExample.sol\":434:439  owner */\n      0x01\n      0x00\n      swap1\n      sload\n      swap1\n      0x0100\n      exp\n      swap1\n      div\n      0xffffffffffffffffffffffffffffffffffffffff\n      and\n        /* \"contracts/basics/09-FunctionsExample.sol\":421:440  selfdestruct(owner) */\n      0xffffffffffffffffffffffffffffffffffffffff\n      and\n      selfdestruct\n        /* \"contracts/basics/09-FunctionsExample.sol\":237:303  function getOwner() public pure returns(address){\r... */\n    tag_17:\n        /* \"contracts/basics/09-FunctionsExample.sol\":277:284  address */\n      0x00\n        /* \"contracts/basics/09-FunctionsExample.sol\":237:303  function getOwner() public pure returns(address){\r... */\n      swap1\n      jump\t// out\n        /* \"contracts/basics/09-FunctionsExample.sol\":87:133  mapping(address=> uint) public balanceReceived */\n    tag_24:\n      mstore(0x20, 0x00)\n      dup1\n      0x00\n      mstore\n      keccak256(0x00, 0x40)\n      0x00\n      swap2\n      pop\n      swap1\n      pop\n      sload\n      dup2\n      jump\t// out\n        /* \"contracts/basics/09-FunctionsExample.sol\":656:973  function withdrawMoney(address payable _to, uint _amount) public{\r... */\n    tag_31:\n        /* \"contracts/basics/09-FunctionsExample.sol\":747:762  balanceReceived */\n      0x00\n        /* \"contracts/basics/09-FunctionsExample.sol\":747:774  balanceReceived[msg.sender] */\n      dup1\n        /* \"contracts/basics/09-FunctionsExample.sol\":763:773  msg.sender */\n      caller\n        /* \"contracts/basics/09-FunctionsExample.sol\":747:774  balanceReceived[msg.sender] */\n      0xffffffffffffffffffffffffffffffffffffffff\n      and\n      0xffffffffffffffffffffffffffffffffffffffff\n      and\n      dup2\n      mstore\n      0x20\n      add\n      swap1\n      dup2\n      mstore\n      0x20\n      add\n      0x00\n      keccak256\n      sload\n        /* \"contracts/basics/09-FunctionsExample.sol\":738:745  _amount */\n      dup2\n        /* \"contracts/basics/09-FunctionsExample.sol\":738:774  _amount<=balanceReceived[msg.sender] */\n      gt\n      iszero\n        /* \"contracts/basics/09-FunctionsExample.sol\":730:804  require(_amount<=balanceReceived[msg.sender],'You dont have enough funds') */\n      tag_45\n      jumpi\n      mload(0x40)\n      0x08c379a000000000000000000000000000000000000000000000000000000000\n      dup2\n      mstore\n      0x04\n      add\n      tag_46\n      swap1\n      tag_47\n      jump\t// in\n    tag_46:\n      mload(0x40)\n      dup1\n      swap2\n      sub\n      swap1\n      revert\n    tag_45:\n        /* \"contracts/basics/09-FunctionsExample.sol\":878:885  _amount */\n      dup1\n        /* \"contracts/basics/09-FunctionsExample.sol\":850:865  balanceReceived */\n      0x00\n        /* \"contracts/basics/09-FunctionsExample.sol\":850:877  balanceReceived[msg.sender] */\n      dup1\n        /* \"contracts/basics/09-FunctionsExample.sol\":866:876  msg.sender */\n      caller\n        /* \"contracts/basics/09-FunctionsExample.sol\":850:877  balanceReceived[msg.sender] */\n      0xffffffffffffffffffffffffffffffffffffffff\n      and\n      0xffffffffffffffffffffffffffffffffffffffff\n      and\n      dup2\n      mstore\n      0x20\n      add\n      swap1\n      dup2\n      mstore\n      0x20\n      add\n      0x00\n      keccak256\n      sload\n        /* \"contracts/basics/09-FunctionsExample.sol\":850:885  balanceReceived[msg.sender]-_amount */\n      tag_48\n      swap2\n      swap1\n      tag_49\n      jump\t// in\n    tag_48:\n        /* \"contracts/basics/09-FunctionsExample.sol\":821:836  balanceReceived */\n      0x00\n        /* \"contracts/basics/09-FunctionsExample.sol\":821:848  balanceReceived[msg.sender] */\n      dup1\n        /* \"contracts/basics/09-FunctionsExample.sol\":837:847  msg.sender */\n      caller\n        /* \"contracts/basics/09-FunctionsExample.sol\":821:848  balanceReceived[msg.sender] */\n      0xffffffffffffffffffffffffffffffffffffffff\n      and\n      0xffffffffffffffffffffffffffffffffffffffff\n      and\n      dup2\n      mstore\n      0x20\n      add\n      swap1\n      dup2\n      mstore\n      0x20\n      add\n      0x00\n      keccak256\n      sload\n        /* \"contracts/basics/09-FunctionsExample.sol\":821:885  balanceReceived[msg.sender]>=balanceReceived[msg.sender]-_amount */\n      lt\n      iszero\n        /* \"contracts/basics/09-FunctionsExample.sol\":814:886  assert(balanceReceived[msg.sender]>=balanceReceived[msg.sender]-_amount) */\n      tag_50\n      jumpi\n      mstore(0x00, 0x4e487b7100000000000000000000000000000000000000000000000000000000)\n      mstore(0x04, 0x01)\n      revert(0x00, 0x24)\n    tag_50:\n        /* \"contracts/basics/09-FunctionsExample.sol\":927:934  _amount */\n      dup1\n        /* \"contracts/basics/09-FunctionsExample.sol\":896:911  balanceReceived */\n      0x00\n        /* \"contracts/basics/09-FunctionsExample.sol\":896:923  balanceReceived[msg.sender] */\n      dup1\n        /* \"contracts/basics/09-FunctionsExample.sol\":912:922  msg.sender */\n      caller\n        /* \"contracts/basics/09-FunctionsExample.sol\":896:923  balanceReceived[msg.sender] */\n      0xffffffffffffffffffffffffffffffffffffffff\n      and\n      0xffffffffffffffffffffffffffffffffffffffff\n      and\n      dup2\n      mstore\n      0x20\n      add\n      swap1\n      dup2\n      mstore\n      0x20\n      add\n      0x00\n      keccak256\n      0x00\n        /* \"contracts/basics/09-FunctionsExample.sol\":896:934  balanceReceived[msg.sender] -= _amount */\n      dup3\n      dup3\n      sload\n      tag_51\n      swap2\n      swap1\n      tag_49\n      jump\t// in\n    tag_51:\n      swap3\n      pop\n      pop\n      dup2\n      swap1\n      sstore\n      pop\n        /* \"contracts/basics/09-FunctionsExample.sol\":944:947  _to */\n      dup2\n        /* \"contracts/basics/09-FunctionsExample.sol\":944:956  _to.transfer */\n      0xffffffffffffffffffffffffffffffffffffffff\n      and\n        /* \"contracts/basics/09-FunctionsExample.sol\":944:965  _to.transfer(_amount) */\n      0x08fc\n        /* \"contracts/basics/09-FunctionsExample.sol\":957:964  _amount */\n      dup3\n        /* \"contracts/basics/09-FunctionsExample.sol\":944:965  _to.transfer(_amount) */\n      swap1\n      dup2\n      iszero\n      mul\n      swap1\n      mload(0x40)\n      0x00\n      mload(0x40)\n      dup1\n      dup4\n      sub\n      dup2\n      dup6\n      dup9\n      dup9\n      call\n      swap4\n      pop\n      pop\n      pop\n      pop\n      iszero\n      dup1\n      iszero\n      tag_53\n      jumpi\n      returndatasize\n      0x00\n      dup1\n      returndatacopy\n      revert(0x00, returndatasize)\n    tag_53:\n      pop\n        /* \"contracts/basics/09-FunctionsExample.sol\":656:973  function withdrawMoney(address payable _to, uint _amount) public{\r... */\n      pop\n      pop\n      jump\t// out\n        /* \"#utility.yul\":7:146   */\n    tag_55:\n        /* \"#utility.yul\":53:58   */\n      0x00\n        /* \"#utility.yul\":91:97   */\n      dup2\n        /* \"#utility.yul\":78:98   */\n      calldataload\n        /* \"#utility.yul\":69:98   */\n      swap1\n      pop\n        /* \"#utility.yul\":107:140   */\n      tag_57\n        /* \"#utility.yul\":134:139   */\n      dup2\n        /* \"#utility.yul\":107:140   */\n      tag_58\n      jump\t// in\n    tag_57:\n        /* \"#utility.yul\":59:146   */\n      swap3\n      swap2\n      pop\n      pop\n      jump\t// out\n        /* \"#utility.yul\":152:307   */\n    tag_59:\n        /* \"#utility.yul\":206:211   */\n      0x00\n        /* \"#utility.yul\":244:250   */\n      dup2\n        /* \"#utility.yul\":231:251   */\n      calldataload\n        /* \"#utility.yul\":222:251   */\n      swap1\n      pop\n        /* \"#utility.yul\":260:301   */\n      tag_61\n        /* \"#utility.yul\":295:300   */\n      dup2\n        /* \"#utility.yul\":260:301   */\n      tag_62\n      jump\t// in\n    tag_61:\n        /* \"#utility.yul\":212:307   */\n      swap3\n      swap2\n      pop\n      pop\n      jump\t// out\n        /* \"#utility.yul\":313:452   */\n    tag_63:\n        /* \"#utility.yul\":359:364   */\n      0x00\n        /* \"#utility.yul\":397:403   */\n      dup2\n        /* \"#utility.yul\":384:404   */\n      calldataload\n        /* \"#utility.yul\":375:404   */\n      swap1\n      pop\n        /* \"#utility.yul\":413:446   */\n      tag_65\n        /* \"#utility.yul\":440:445   */\n      dup2\n        /* \"#utility.yul\":413:446   */\n      tag_66\n      jump\t// in\n    tag_65:\n        /* \"#utility.yul\":365:452   */\n      swap3\n      swap2\n      pop\n      pop\n      jump\t// out\n        /* \"#utility.yul\":458:720   */\n    tag_23:\n        /* \"#utility.yul\":517:523   */\n      0x00\n        /* \"#utility.yul\":566:568   */\n      0x20\n        /* \"#utility.yul\":554:563   */\n      dup3\n        /* \"#utility.yul\":545:552   */\n      dup5\n        /* \"#utility.yul\":541:564   */\n      sub\n        /* \"#utility.yul\":537:569   */\n      slt\n        /* \"#utility.yul\":534:536   */\n      iszero\n      tag_68\n      jumpi\n        /* \"#utility.yul\":582:583   */\n      0x00\n        /* \"#utility.yul\":579:580   */\n      dup1\n        /* \"#utility.yul\":572:584   */\n      revert\n        /* \"#utility.yul\":534:536   */\n    tag_68:\n        /* \"#utility.yul\":625:626   */\n      0x00\n        /* \"#utility.yul\":650:703   */\n      tag_69\n        /* \"#utility.yul\":695:702   */\n      dup5\n        /* \"#utility.yul\":686:692   */\n      dup3\n        /* \"#utility.yul\":675:684   */\n      dup6\n        /* \"#utility.yul\":671:693   */\n      add\n        /* \"#utility.yul\":650:703   */\n      tag_55\n      jump\t// in\n    tag_69:\n        /* \"#utility.yul\":640:703   */\n      swap2\n      pop\n        /* \"#utility.yul\":596:713   */\n      pop\n        /* \"#utility.yul\":524:720   */\n      swap3\n      swap2\n      pop\n      pop\n      jump\t// out\n        /* \"#utility.yul\":726:1149   */\n    tag_30:\n        /* \"#utility.yul\":802:808   */\n      0x00\n        /* \"#utility.yul\":810:816   */\n      dup1\n        /* \"#utility.yul\":859:861   */\n      0x40\n        /* \"#utility.yul\":847:856   */\n      dup4\n        /* \"#utility.yul\":838:845   */\n      dup6\n        /* \"#utility.yul\":834:857   */\n      sub\n        /* \"#utility.yul\":830:862   */\n      slt\n        /* \"#utility.yul\":827:829   */\n      iszero\n      tag_71\n      jumpi\n        /* \"#utility.yul\":875:876   */\n      0x00\n        /* \"#utility.yul\":872:873   */\n      dup1\n        /* \"#utility.yul\":865:877   */\n      revert\n        /* \"#utility.yul\":827:829   */\n    tag_71:\n        /* \"#utility.yul\":918:919   */\n      0x00\n        /* \"#utility.yul\":943:1004   */\n      tag_72\n        /* \"#utility.yul\":996:1003   */\n      dup6\n        /* \"#utility.yul\":987:993   */\n      dup3\n        /* \"#utility.yul\":976:985   */\n      dup7\n        /* \"#utility.yul\":972:994   */\n      add\n        /* \"#utility.yul\":943:1004   */\n      tag_59\n      jump\t// in\n    tag_72:\n        /* \"#utility.yul\":933:1004   */\n      swap3\n      pop\n        /* \"#utility.yul\":889:1014   */\n      pop\n        /* \"#utility.yul\":1053:1055   */\n      0x20\n        /* \"#utility.yul\":1079:1132   */\n      tag_73\n        /* \"#utility.yul\":1124:1131   */\n      dup6\n        /* \"#utility.yul\":1115:1121   */\n      dup3\n        /* \"#utility.yul\":1104:1113   */\n      dup7\n        /* \"#utility.yul\":1100:1122   */\n      add\n        /* \"#utility.yul\":1079:1132   */\n      tag_63\n      jump\t// in\n    tag_73:\n        /* \"#utility.yul\":1069:1132   */\n      swap2\n      pop\n        /* \"#utility.yul\":1024:1142   */\n      pop\n        /* \"#utility.yul\":817:1149   */\n      swap3\n      pop\n      swap3\n      swap1\n      pop\n      jump\t// out\n        /* \"#utility.yul\":1155:1273   */\n    tag_74:\n        /* \"#utility.yul\":1242:1266   */\n      tag_76\n        /* \"#utility.yul\":1260:1265   */\n      dup2\n        /* \"#utility.yul\":1242:1266   */\n      tag_77\n      jump\t// in\n    tag_76:\n        /* \"#utility.yul\":1237:1240   */\n      dup3\n        /* \"#utility.yul\":1230:1267   */\n      mstore\n        /* \"#utility.yul\":1220:1273   */\n      pop\n      pop\n      jump\t// out\n        /* \"#utility.yul\":1279:1645   */\n    tag_78:\n        /* \"#utility.yul\":1421:1424   */\n      0x00\n        /* \"#utility.yul\":1442:1509   */\n      tag_80\n        /* \"#utility.yul\":1506:1508   */\n      0x1a\n        /* \"#utility.yul\":1501:1504   */\n      dup4\n        /* \"#utility.yul\":1442:1509   */\n      tag_81\n      jump\t// in\n    tag_80:\n        /* \"#utility.yul\":1435:1509   */\n      swap2\n      pop\n        /* \"#utility.yul\":1518:1611   */\n      tag_82\n        /* \"#utility.yul\":1607:1610   */\n      dup3\n        /* \"#utility.yul\":1518:1611   */\n      tag_83\n      jump\t// in\n    tag_82:\n        /* \"#utility.yul\":1636:1638   */\n      0x20\n        /* \"#utility.yul\":1631:1634   */\n      dup3\n        /* \"#utility.yul\":1627:1639   */\n      add\n        /* \"#utility.yul\":1620:1639   */\n      swap1\n      pop\n        /* \"#utility.yul\":1425:1645   */\n      swap2\n      swap1\n      pop\n      jump\t// out\n        /* \"#utility.yul\":1651:2017   */\n    tag_84:\n        /* \"#utility.yul\":1793:1796   */\n      0x00\n        /* \"#utility.yul\":1814:1881   */\n      tag_86\n        /* \"#utility.yul\":1878:1880   */\n      0x15\n        /* \"#utility.yul\":1873:1876   */\n      dup4\n        /* \"#utility.yul\":1814:1881   */\n      tag_81\n      jump\t// in\n    tag_86:\n        /* \"#utility.yul\":1807:1881   */\n      swap2\n      pop\n        /* \"#utility.yul\":1890:1983   */\n      tag_87\n        /* \"#utility.yul\":1979:1982   */\n      dup3\n        /* \"#utility.yul\":1890:1983   */\n      tag_88\n      jump\t// in\n    tag_87:\n        /* \"#utility.yul\":2008:2010   */\n      0x20\n        /* \"#utility.yul\":2003:2006   */\n      dup3\n        /* \"#utility.yul\":1999:2011   */\n      add\n        /* \"#utility.yul\":1992:2011   */\n      swap1\n      pop\n        /* \"#utility.yul\":1797:2017   */\n      swap2\n      swap1\n      pop\n      jump\t// out\n        /* \"#utility.yul\":2023:2141   */\n    tag_89:\n        /* \"#utility.yul\":2110:2134   */\n      tag_91\n        /* \"#utility.yul\":2128:2133   */\n      dup2\n        /* \"#utility.yul\":2110:2134   */\n      tag_92\n      jump\t// in\n    tag_91:\n        /* \"#utility.yul\":2105:2108   */\n      dup3\n        /* \"#utility.yul\":2098:2135   */\n      mstore\n        /* \"#utility.yul\":2088:2141   */\n      pop\n      pop\n      jump\t// out\n        /* \"#utility.yul\":2147:2369   */\n    tag_19:\n        /* \"#utility.yul\":2240:2244   */\n      0x00\n        /* \"#utility.yul\":2278:2280   */\n      0x20\n        /* \"#utility.yul\":2267:2276   */\n      dup3\n        /* \"#utility.yul\":2263:2281   */\n      add\n        /* \"#utility.yul\":2255:2281   */\n      swap1\n      pop\n        /* \"#utility.yul\":2291:2362   */\n      tag_94\n        /* \"#utility.yul\":2359:2360   */\n      0x00\n        /* \"#utility.yul\":2348:2357   */\n      dup4\n        /* \"#utility.yul\":2344:2361   */\n      add\n        /* \"#utility.yul\":2335:2341   */\n      dup5\n        /* \"#utility.yul\":2291:2362   */\n      tag_74\n      jump\t// in\n    tag_94:\n        /* \"#utility.yul\":2245:2369   */\n      swap3\n      swap2\n      pop\n      pop\n      jump\t// out\n        /* \"#utility.yul\":2375:2794   */\n    tag_47:\n        /* \"#utility.yul\":2541:2545   */\n      0x00\n        /* \"#utility.yul\":2579:2581   */\n      0x20\n        /* \"#utility.yul\":2568:2577   */\n      dup3\n        /* \"#utility.yul\":2564:2582   */\n      add\n        /* \"#utility.yul\":2556:2582   */\n      swap1\n      pop\n        /* \"#utility.yul\":2628:2637   */\n      dup2\n        /* \"#utility.yul\":2622:2626   */\n      dup2\n        /* \"#utility.yul\":2618:2638   */\n      sub\n        /* \"#utility.yul\":2614:2615   */\n      0x00\n        /* \"#utility.yul\":2603:2612   */\n      dup4\n        /* \"#utility.yul\":2599:2616   */\n      add\n        /* \"#utility.yul\":2592:2639   */\n      mstore\n        /* \"#utility.yul\":2656:2787   */\n      tag_96\n        /* \"#utility.yul\":2782:2786   */\n      dup2\n        /* \"#utility.yul\":2656:2787   */\n      tag_78\n      jump\t// in\n    tag_96:\n        /* \"#utility.yul\":2648:2787   */\n      swap1\n      pop\n        /* \"#utility.yul\":2546:2794   */\n      swap2\n      swap1\n      pop\n      jump\t// out\n        /* \"#utility.yul\":2800:3219   */\n    tag_42:\n        /* \"#utility.yul\":2966:2970   */\n      0x00\n        /* \"#utility.yul\":3004:3006   */\n      0x20\n        /* \"#utility.yul\":2993:3002   */\n      dup3\n        /* \"#utility.yul\":2989:3007   */\n      add\n        /* \"#utility.yul\":2981:3007   */\n      swap1\n      pop\n        /* \"#utility.yul\":3053:3062   */\n      dup2\n        /* \"#utility.yul\":3047:3051   */\n      dup2\n        /* \"#utility.yul\":3043:3063   */\n      sub\n        /* \"#utility.yul\":3039:3040   */\n      0x00\n        /* \"#utility.yul\":3028:3037   */\n      dup4\n        /* \"#utility.yul\":3024:3041   */\n      add\n        /* \"#utility.yul\":3017:3064   */\n      mstore\n        /* \"#utility.yul\":3081:3212   */\n      tag_98\n        /* \"#utility.yul\":3207:3211   */\n      dup2\n        /* \"#utility.yul\":3081:3212   */\n      tag_84\n      jump\t// in\n    tag_98:\n        /* \"#utility.yul\":3073:3212   */\n      swap1\n      pop\n        /* \"#utility.yul\":2971:3219   */\n      swap2\n      swap1\n      pop\n      jump\t// out\n        /* \"#utility.yul\":3225:3447   */\n    tag_26:\n        /* \"#utility.yul\":3318:3322   */\n      0x00\n        /* \"#utility.yul\":3356:3358   */\n      0x20\n        /* \"#utility.yul\":3345:3354   */\n      dup3\n        /* \"#utility.yul\":3341:3359   */\n      add\n        /* \"#utility.yul\":3333:3359   */\n      swap1\n      pop\n        /* \"#utility.yul\":3369:3440   */\n      tag_100\n        /* \"#utility.yul\":3437:3438   */\n      0x00\n        /* \"#utility.yul\":3426:3435   */\n      dup4\n        /* \"#utility.yul\":3422:3439   */\n      add\n        /* \"#utility.yul\":3413:3419   */\n      dup5\n        /* \"#utility.yul\":3369:3440   */\n      tag_89\n      jump\t// in\n    tag_100:\n        /* \"#utility.yul\":3323:3447   */\n      swap3\n      swap2\n      pop\n      pop\n      jump\t// out\n        /* \"#utility.yul\":3453:3622   */\n    tag_81:\n        /* \"#utility.yul\":3537:3548   */\n      0x00\n        /* \"#utility.yul\":3571:3577   */\n      dup3\n        /* \"#utility.yul\":3566:3569   */\n      dup3\n        /* \"#utility.yul\":3559:3578   */\n      mstore\n        /* \"#utility.yul\":3611:3615   */\n      0x20\n        /* \"#utility.yul\":3606:3609   */\n      dup3\n        /* \"#utility.yul\":3602:3616   */\n      add\n        /* \"#utility.yul\":3587:3616   */\n      swap1\n      pop\n        /* \"#utility.yul\":3549:3622   */\n      swap3\n      swap2\n      pop\n      pop\n      jump\t// out\n        /* \"#utility.yul\":3628:3933   */\n    tag_36:\n        /* \"#utility.yul\":3668:3671   */\n      0x00\n        /* \"#utility.yul\":3687:3707   */\n      tag_103\n        /* \"#utility.yul\":3705:3706   */\n      dup3\n        /* \"#utility.yul\":3687:3707   */\n      tag_92\n      jump\t// in\n    tag_103:\n        /* \"#utility.yul\":3682:3707   */\n      swap2\n      pop\n        /* \"#utility.yul\":3721:3741   */\n      tag_104\n        /* \"#utility.yul\":3739:3740   */\n      dup4\n        /* \"#utility.yul\":3721:3741   */\n      tag_92\n      jump\t// in\n    tag_104:\n        /* \"#utility.yul\":3716:3741   */\n      swap3\n      pop\n        /* \"#utility.yul\":3875:3876   */\n      dup3\n        /* \"#utility.yul\":3807:3873   */\n      0xffffffffffffffffffffffffffffffffffffffffffffffffffffffffffffffff\n        /* \"#utility.yul\":3803:3877   */\n      sub\n        /* \"#utility.yul\":3800:3801   */\n      dup3\n        /* \"#utility.yul\":3797:3878   */\n      gt\n        /* \"#utility.yul\":3794:3796   */\n      iszero\n      tag_105\n      jumpi\n        /* \"#utility.yul\":3881:3899   */\n      tag_106\n      tag_107\n      jump\t// in\n    tag_106:\n        /* \"#utility.yul\":3794:3796   */\n    tag_105:\n        /* \"#utility.yul\":3925:3926   */\n      dup3\n        /* \"#utility.yul\":3922:3923   */\n      dup3\n        /* \"#utility.yul\":3918:3927   */\n      add\n        /* \"#utility.yul\":3911:3927   */\n      swap1\n      pop\n        /* \"#utility.yul\":3672:3933   */\n      swap3\n      swap2\n      pop\n      pop\n      jump\t// out\n        /* \"#utility.yul\":3939:4130   */\n    tag_49:\n        /* \"#utility.yul\":3979:3983   */\n      0x00\n        /* \"#utility.yul\":3999:4019   */\n      tag_109\n        /* \"#utility.yul\":4017:4018   */\n      dup3\n        /* \"#utility.yul\":3999:4019   */\n      tag_92\n      jump\t// in\n    tag_109:\n        /* \"#utility.yul\":3994:4019   */\n      swap2\n      pop\n        /* \"#utility.yul\":4033:4053   */\n      tag_110\n        /* \"#utility.yul\":4051:4052   */\n      dup4\n        /* \"#utility.yul\":4033:4053   */\n      tag_92\n      jump\t// in\n    tag_110:\n        /* \"#utility.yul\":4028:4053   */\n      swap3\n      pop\n        /* \"#utility.yul\":4072:4073   */\n      dup3\n        /* \"#utility.yul\":4069:4070   */\n      dup3\n        /* \"#utility.yul\":4066:4074   */\n      lt\n        /* \"#utility.yul\":4063:4065   */\n      iszero\n      tag_111\n      jumpi\n        /* \"#utility.yul\":4077:4095   */\n      tag_112\n      tag_107\n      jump\t// in\n    tag_112:\n        /* \"#utility.yul\":4063:4065   */\n    tag_111:\n        /* \"#utility.yul\":4122:4123   */\n      dup3\n        /* \"#utility.yul\":4119:4120   */\n      dup3\n        /* \"#utility.yul\":4115:4124   */\n      sub\n        /* \"#utility.yul\":4107:4124   */\n      swap1\n      pop\n        /* \"#utility.yul\":3984:4130   */\n      swap3\n      swap2\n      pop\n      pop\n      jump\t// out\n        /* \"#utility.yul\":4136:4232   */\n    tag_77:\n        /* \"#utility.yul\":4173:4180   */\n      0x00\n        /* \"#utility.yul\":4202:4226   */\n      tag_114\n        /* \"#utility.yul\":4220:4225   */\n      dup3\n        /* \"#utility.yul\":4202:4226   */\n      tag_115\n      jump\t// in\n    tag_114:\n        /* \"#utility.yul\":4191:4226   */\n      swap1\n      pop\n        /* \"#utility.yul\":4181:4232   */\n      swap2\n      swap1\n      pop\n      jump\t// out\n        /* \"#utility.yul\":4238:4342   */\n    tag_116:\n        /* \"#utility.yul\":4283:4290   */\n      0x00\n        /* \"#utility.yul\":4312:4336   */\n      tag_118\n        /* \"#utility.yul\":4330:4335   */\n      dup3\n        /* \"#utility.yul\":4312:4336   */\n      tag_115\n      jump\t// in\n    tag_118:\n        /* \"#utility.yul\":4301:4336   */\n      swap1\n      pop\n        /* \"#utility.yul\":4291:4342   */\n      swap2\n      swap1\n      pop\n      jump\t// out\n        /* \"#utility.yul\":4348:4474   */\n    tag_115:\n        /* \"#utility.yul\":4385:4392   */\n      0x00\n        /* \"#utility.yul\":4425:4467   */\n      0xffffffffffffffffffffffffffffffffffffffff\n        /* \"#utility.yul\":4418:4423   */\n      dup3\n        /* \"#utility.yul\":4414:4468   */\n      and\n        /* \"#utility.yul\":4403:4468   */\n      swap1\n      pop\n        /* \"#utility.yul\":4393:4474   */\n      swap2\n      swap1\n      pop\n      jump\t// out\n        /* \"#utility.yul\":4480:4557   */\n    tag_92:\n        /* \"#utility.yul\":4517:4524   */\n      0x00\n        /* \"#utility.yul\":4546:4551   */\n      dup2\n        /* \"#utility.yul\":4535:4551   */\n      swap1\n      pop\n        /* \"#utility.yul\":4525:4557   */\n      swap2\n      swap1\n      pop\n      jump\t// out\n        /* \"#utility.yul\":4563:4743   */\n    tag_107:\n        /* \"#utility.yul\":4611:4688   */\n      0x4e487b7100000000000000000000000000000000000000000000000000000000\n        /* \"#utility.yul\":4608:4609   */\n      0x00\n        /* \"#utility.yul\":4601:4689   */\n      mstore\n        /* \"#utility.yul\":4708:4712   */\n      0x11\n        /* \"#utility.yul\":4705:4706   */\n      0x04\n        /* \"#utility.yul\":4698:4713   */\n      mstore\n        /* \"#utility.yul\":4732:4736   */\n      0x24\n        /* \"#utility.yul\":4729:4730   */\n      0x00\n        /* \"#utility.yul\":4722:4737   */\n      revert\n        /* \"#utility.yul\":4749:4925   */\n    tag_83:\n        /* \"#utility.yul\":4889:4917   */\n      0x596f7520646f6e74206861766520656e6f7567682066756e6473000000000000\n        /* \"#utility.yul\":4885:4886   */\n      0x00\n        /* \"#utility.yul\":4877:4883   */\n      dup3\n        /* \"#utility.yul\":4873:4887   */\n      add\n        /* \"#utility.yul\":4866:4918   */\n      mstore\n        /* \"#utility.yul\":4855:4925   */\n      pop\n      jump\t// out\n        /* \"#utility.yul\":4931:5102   */\n    tag_88:\n        /* \"#utility.yul\":5071:5094   */\n      0x596f7520617265206e6f7420746865206f776e65720000000000000000000000\n        /* \"#utility.yul\":5067:5068   */\n      0x00\n        /* \"#utility.yul\":5059:5065   */\n      dup3\n        /* \"#utility.yul\":5055:5069   */\n      add\n        /* \"#utility.yul\":5048:5095   */\n      mstore\n        /* \"#utility.yul\":5037:5102   */\n      pop\n      jump\t// out\n        /* \"#utility.yul\":5108:5230   */\n    tag_58:\n        /* \"#utility.yul\":5181:5205   */\n      tag_125\n        /* \"#utility.yul\":5199:5204   */\n      dup2\n        /* \"#utility.yul\":5181:5205   */\n      tag_77\n      jump\t// in\n    tag_125:\n        /* \"#utility.yul\":5174:5179   */\n      dup2\n        /* \"#utility.yul\":5171:5206   */\n      eq\n        /* \"#utility.yul\":5161:5163   */\n      tag_126\n      jumpi\n        /* \"#utility.yul\":5220:5221   */\n      0x00\n        /* \"#utility.yul\":5217:5218   */\n      dup1\n        /* \"#utility.yul\":5210:5222   */\n      revert\n        /* \"#utility.yul\":5161:5163   */\n    tag_126:\n        /* \"#utility.yul\":5151:5230   */\n      pop\n      jump\t// out\n        /* \"#utility.yul\":5236:5374   */\n    tag_62:\n        /* \"#utility.yul\":5317:5349   */\n      tag_128\n        /* \"#utility.yul\":5343:5348   */\n      dup2\n        /* \"#utility.yul\":5317:5349   */\n      tag_116\n      jump\t// in\n    tag_128:\n        /* \"#utility.yul\":5310:5315   */\n      dup2\n        /* \"#utility.yul\":5307:5350   */\n      eq\n        /* \"#utility.yul\":5297:5299   */\n      tag_129\n      jumpi\n        /* \"#utility.yul\":5364:5365   */\n      0x00\n        /* \"#utility.yul\":5361:5362   */\n      dup1\n        /* \"#utility.yul\":5354:5366   */\n      revert\n        /* \"#utility.yul\":5297:5299   */\n    tag_129:\n        /* \"#utility.yul\":5287:5374   */\n      pop\n      jump\t// out\n        /* \"#utility.yul\":5380:5502   */\n    tag_66:\n        /* \"#utility.yul\":5453:5477   */\n      tag_131\n        /* \"#utility.yul\":5471:5476   */\n      dup2\n        /* \"#utility.yul\":5453:5477   */\n      tag_92\n      jump\t// in\n    tag_131:\n        /* \"#utility.yul\":5446:5451   */\n      dup2\n        /* \"#utility.yul\":5443:5478   */\n      eq\n        /* \"#utility.yul\":5433:5435   */\n      tag_132\n      jumpi\n        /* \"#utility.yul\":5492:5493   */\n      0x00\n        /* \"#utility.yul\":5489:5490   */\n      dup1\n        /* \"#utility.yul\":5482:5494   */\n      revert\n        /* \"#utility.yul\":5433:5435   */\n    tag_132:\n        /* \"#utility.yul\":5423:5502   */\n      pop\n      jump\t// out\n\n    auxdata: 0xa2646970667358221220501a9a2c74251291521a8483ce244a747bb7e7f191a52d15e95d1efc64a655df64736f6c63430008040033\n}\n",
				"bytecode": {
					"linkReferences": {},
					"object": "608060405234801561001057600080fd5b5033600160006101000a81548173ffffffffffffffffffffffffffffffffffffffff021916908373ffffffffffffffffffffffffffffffffffffffff16021790555061085f806100616000396000f3fe6080604052600436106100555760003560e01c80630cf2f2c11461005a5780636d26ec1814610064578063854747281461006e578063893d20e814610085578063d18a42e1146100b0578063f274c897146100ed575b600080fd5b610062610116565b005b61006c610120565b005b34801561007a57600080fd5b50610083610235565b005b34801561009157600080fd5b5061009a610300565b6040516100a79190610604565b60405180910390f35b3480156100bc57600080fd5b506100d760048036038101906100d2919061053b565b610305565b6040516100e4919061065f565b60405180910390f35b3480156100f957600080fd5b50610114600480360381019061010f9190610564565b61031d565b005b61011e610120565b565b6000803373ffffffffffffffffffffffffffffffffffffffff1673ffffffffffffffffffffffffffffffffffffffff16815260200190815260200160002054346000803373ffffffffffffffffffffffffffffffffffffffff1673ffffffffffffffffffffffffffffffffffffffff168152602001908152602001600020546101a9919061068b565b10156101de577f4e487b7100000000000000000000000000000000000000000000000000000000600052600160045260246000fd5b346000803373ffffffffffffffffffffffffffffffffffffffff1673ffffffffffffffffffffffffffffffffffffffff168152602001908152602001600020600082825461022c919061068b565b92505081905550565b600160009054906101000a900473ffffffffffffffffffffffffffffffffffffffff1673ffffffffffffffffffffffffffffffffffffffff163373ffffffffffffffffffffffffffffffffffffffff16146102c5576040517f08c379a00000000000000000000000000000000000000000000000000000000081526004016102bc9061063f565b60405180910390fd5b600160009054906101000a900473ffffffffffffffffffffffffffffffffffffffff1673ffffffffffffffffffffffffffffffffffffffff16ff5b600090565b60006020528060005260406000206000915090505481565b6000803373ffffffffffffffffffffffffffffffffffffffff1673ffffffffffffffffffffffffffffffffffffffff1681526020019081526020016000205481111561039e576040517f08c379a00000000000000000000000000000000000000000000000000000000081526004016103959061061f565b60405180910390fd5b806000803373ffffffffffffffffffffffffffffffffffffffff1673ffffffffffffffffffffffffffffffffffffffff168152602001908152602001600020546103e891906106e1565b6000803373ffffffffffffffffffffffffffffffffffffffff1673ffffffffffffffffffffffffffffffffffffffff16815260200190815260200160002054101561045c577f4e487b7100000000000000000000000000000000000000000000000000000000600052600160045260246000fd5b806000803373ffffffffffffffffffffffffffffffffffffffff1673ffffffffffffffffffffffffffffffffffffffff16815260200190815260200160002060008282546104aa91906106e1565b925050819055508173ffffffffffffffffffffffffffffffffffffffff166108fc829081150290604051600060405180830381858888f193505050501580156104f7573d6000803e3d6000fd5b505050565b60008135905061050b816107e4565b92915050565b600081359050610520816107fb565b92915050565b60008135905061053581610812565b92915050565b60006020828403121561054d57600080fd5b600061055b848285016104fc565b91505092915050565b6000806040838503121561057757600080fd5b600061058585828601610511565b925050602061059685828601610526565b9150509250929050565b6105a981610715565b82525050565b60006105bc601a8361067a565b91506105c782610792565b602082019050919050565b60006105df60158361067a565b91506105ea826107bb565b602082019050919050565b6105fe81610759565b82525050565b600060208201905061061960008301846105a0565b92915050565b60006020820190508181036000830152610638816105af565b9050919050565b60006020820190508181036000830152610658816105d2565b9050919050565b600060208201905061067460008301846105f5565b92915050565b600082825260208201905092915050565b600061069682610759565b91506106a183610759565b9250827fffffffffffffffffffffffffffffffffffffffffffffffffffffffffffffffff038211156106d6576106d5610763565b5b828201905092915050565b60006106ec82610759565b91506106f783610759565b92508282101561070a57610709610763565b5b828203905092915050565b600061072082610739565b9050919050565b600061073282610739565b9050919050565b600073ffffffffffffffffffffffffffffffffffffffff82169050919050565b6000819050919050565b7f4e487b7100000000000000000000000000000000000000000000000000000000600052601160045260246000fd5b7f596f7520646f6e74206861766520656e6f7567682066756e6473000000000000600082015250565b7f596f7520617265206e6f7420746865206f776e65720000000000000000000000600082015250565b6107ed81610715565b81146107f857600080fd5b50565b61080481610727565b811461080f57600080fd5b50565b61081b81610759565b811461082657600080fd5b5056fea2646970667358221220501a9a2c74251291521a8483ce244a747bb7e7f191a52d15e95d1efc64a655df64736f6c63430008040033",
					"opcodes": "PUSH1 0x80 PUSH1 0x40 MSTORE CALLVALUE DUP1 ISZERO PUSH2 0x10 JUMPI PUSH1 0x0 DUP1 REVERT JUMPDEST POP CALLER PUSH1 0x1 PUSH1 0x0 PUSH2 0x100 EXP DUP2 SLOAD DUP2 PUSH20 0xFFFFFFFFFFFFFFFFFFFFFFFFFFFFFFFFFFFFFFFF MUL NOT AND SWAP1 DUP4 PUSH20 0xFFFFFFFFFFFFFFFFFFFFFFFFFFFFFFFFFFFFFFFF AND MUL OR SWAP1 SSTORE POP PUSH2 0x85F DUP1 PUSH2 0x61 PUSH1 0x0 CODECOPY PUSH1 0x0 RETURN INVALID PUSH1 0x80 PUSH1 0x40 MSTORE PUSH1 0x4 CALLDATASIZE LT PUSH2 0x55 JUMPI PUSH1 0x0 CALLDATALOAD PUSH1 0xE0 SHR DUP1 PUSH4 0xCF2F2C1 EQ PUSH2 0x5A JUMPI DUP1 PUSH4 0x6D26EC18 EQ PUSH2 0x64 JUMPI DUP1 PUSH4 0x85474728 EQ PUSH2 0x6E JUMPI DUP1 PUSH4 0x893D20E8 EQ PUSH2 0x85 JUMPI DUP1 PUSH4 0xD18A42E1 EQ PUSH2 0xB0 JUMPI DUP1 PUSH4 0xF274C897 EQ PUSH2 0xED JUMPI JUMPDEST PUSH1 0x0 DUP1 REVERT JUMPDEST PUSH2 0x62 PUSH2 0x116 JUMP JUMPDEST STOP JUMPDEST PUSH2 0x6C PUSH2 0x120 JUMP JUMPDEST STOP JUMPDEST CALLVALUE DUP1 ISZERO PUSH2 0x7A JUMPI PUSH1 0x0 DUP1 REVERT JUMPDEST POP PUSH2 0x83 PUSH2 0x235 JUMP JUMPDEST STOP JUMPDEST CALLVALUE DUP1 ISZERO PUSH2 0x91 JUMPI PUSH1 0x0 DUP1 REVERT JUMPDEST POP PUSH2 0x9A PUSH2 0x300 JUMP JUMPDEST PUSH1 0x40 MLOAD PUSH2 0xA7 SWAP2 SWAP1 PUSH2 0x604 JUMP JUMPDEST PUSH1 0x40 MLOAD DUP1 SWAP2 SUB SWAP1 RETURN JUMPDEST CALLVALUE DUP1 ISZERO PUSH2 0xBC JUMPI PUSH1 0x0 DUP1 REVERT JUMPDEST POP PUSH2 0xD7 PUSH1 0x4 DUP1 CALLDATASIZE SUB DUP2 ADD SWAP1 PUSH2 0xD2 SWAP2 SWAP1 PUSH2 0x53B JUMP JUMPDEST PUSH2 0x305 JUMP JUMPDEST PUSH1 0x40 MLOAD PUSH2 0xE4 SWAP2 SWAP1 PUSH2 0x65F JUMP JUMPDEST PUSH1 0x40 MLOAD DUP1 SWAP2 SUB SWAP1 RETURN JUMPDEST CALLVALUE DUP1 ISZERO PUSH2 0xF9 JUMPI PUSH1 0x0 DUP1 REVERT JUMPDEST POP PUSH2 0x114 PUSH1 0x4 DUP1 CALLDATASIZE SUB DUP2 ADD SWAP1 PUSH2 0x10F SWAP2 SWAP1 PUSH2 0x564 JUMP JUMPDEST PUSH2 0x31D JUMP JUMPDEST STOP JUMPDEST PUSH2 0x11E PUSH2 0x120 JUMP JUMPDEST JUMP JUMPDEST PUSH1 0x0 DUP1 CALLER PUSH20 0xFFFFFFFFFFFFFFFFFFFFFFFFFFFFFFFFFFFFFFFF AND PUSH20 0xFFFFFFFFFFFFFFFFFFFFFFFFFFFFFFFFFFFFFFFF AND DUP2 MSTORE PUSH1 0x20 ADD SWAP1 DUP2 MSTORE PUSH1 0x20 ADD PUSH1 0x0 KECCAK256 SLOAD CALLVALUE PUSH1 0x0 DUP1 CALLER PUSH20 0xFFFFFFFFFFFFFFFFFFFFFFFFFFFFFFFFFFFFFFFF AND PUSH20 0xFFFFFFFFFFFFFFFFFFFFFFFFFFFFFFFFFFFFFFFF AND DUP2 MSTORE PUSH1 0x20 ADD SWAP1 DUP2 MSTORE PUSH1 0x20 ADD PUSH1 0x0 KECCAK256 SLOAD PUSH2 0x1A9 SWAP2 SWAP1 PUSH2 0x68B JUMP JUMPDEST LT ISZERO PUSH2 0x1DE JUMPI PUSH32 0x4E487B7100000000000000000000000000000000000000000000000000000000 PUSH1 0x0 MSTORE PUSH1 0x1 PUSH1 0x4 MSTORE PUSH1 0x24 PUSH1 0x0 REVERT JUMPDEST CALLVALUE PUSH1 0x0 DUP1 CALLER PUSH20 0xFFFFFFFFFFFFFFFFFFFFFFFFFFFFFFFFFFFFFFFF AND PUSH20 0xFFFFFFFFFFFFFFFFFFFFFFFFFFFFFFFFFFFFFFFF AND DUP2 MSTORE PUSH1 0x20 ADD SWAP1 DUP2 MSTORE PUSH1 0x20 ADD PUSH1 0x0 KECCAK256 PUSH1 0x0 DUP3 DUP3 SLOAD PUSH2 0x22C SWAP2 SWAP1 PUSH2 0x68B JUMP JUMPDEST SWAP3 POP POP DUP2 SWAP1 SSTORE POP JUMP JUMPDEST PUSH1 0x1 PUSH1 0x0 SWAP1 SLOAD SWAP1 PUSH2 0x100 EXP SWAP1 DIV PUSH20 0xFFFFFFFFFFFFFFFFFFFFFFFFFFFFFFFFFFFFFFFF AND PUSH20 0xFFFFFFFFFFFFFFFFFFFFFFFFFFFFFFFFFFFFFFFF AND CALLER PUSH20 0xFFFFFFFFFFFFFFFFFFFFFFFFFFFFFFFFFFFFFFFF AND EQ PUSH2 0x2C5 JUMPI PUSH1 0x40 MLOAD PUSH32 0x8C379A000000000000000000000000000000000000000000000000000000000 DUP2 MSTORE PUSH1 0x4 ADD PUSH2 0x2BC SWAP1 PUSH2 0x63F JUMP JUMPDEST PUSH1 0x40 MLOAD DUP1 SWAP2 SUB SWAP1 REVERT JUMPDEST PUSH1 0x1 PUSH1 0x0 SWAP1 SLOAD SWAP1 PUSH2 0x100 EXP SWAP1 DIV PUSH20 0xFFFFFFFFFFFFFFFFFFFFFFFFFFFFFFFFFFFFFFFF AND PUSH20 0xFFFFFFFFFFFFFFFFFFFFFFFFFFFFFFFFFFFFFFFF AND SELFDESTRUCT JUMPDEST PUSH1 0x0 SWAP1 JUMP JUMPDEST PUSH1 0x0 PUSH1 0x20 MSTORE DUP1 PUSH1 0x0 MSTORE PUSH1 0x40 PUSH1 0x0 KECCAK256 PUSH1 0x0 SWAP2 POP SWAP1 POP SLOAD DUP2 JUMP JUMPDEST PUSH1 0x0 DUP1 CALLER PUSH20 0xFFFFFFFFFFFFFFFFFFFFFFFFFFFFFFFFFFFFFFFF AND PUSH20 0xFFFFFFFFFFFFFFFFFFFFFFFFFFFFFFFFFFFFFFFF AND DUP2 MSTORE PUSH1 0x20 ADD SWAP1 DUP2 MSTORE PUSH1 0x20 ADD PUSH1 0x0 KECCAK256 SLOAD DUP2 GT ISZERO PUSH2 0x39E JUMPI PUSH1 0x40 MLOAD PUSH32 0x8C379A000000000000000000000000000000000000000000000000000000000 DUP2 MSTORE PUSH1 0x4 ADD PUSH2 0x395 SWAP1 PUSH2 0x61F JUMP JUMPDEST PUSH1 0x40 MLOAD DUP1 SWAP2 SUB SWAP1 REVERT JUMPDEST DUP1 PUSH1 0x0 DUP1 CALLER PUSH20 0xFFFFFFFFFFFFFFFFFFFFFFFFFFFFFFFFFFFFFFFF AND PUSH20 0xFFFFFFFFFFFFFFFFFFFFFFFFFFFFFFFFFFFFFFFF AND DUP2 MSTORE PUSH1 0x20 ADD SWAP1 DUP2 MSTORE PUSH1 0x20 ADD PUSH1 0x0 KECCAK256 SLOAD PUSH2 0x3E8 SWAP2 SWAP1 PUSH2 0x6E1 JUMP JUMPDEST PUSH1 0x0 DUP1 CALLER PUSH20 0xFFFFFFFFFFFFFFFFFFFFFFFFFFFFFFFFFFFFFFFF AND PUSH20 0xFFFFFFFFFFFFFFFFFFFFFFFFFFFFFFFFFFFFFFFF AND DUP2 MSTORE PUSH1 0x20 ADD SWAP1 DUP2 MSTORE PUSH1 0x20 ADD PUSH1 0x0 KECCAK256 SLOAD LT ISZERO PUSH2 0x45C JUMPI PUSH32 0x4E487B7100000000000000000000000000000000000000000000000000000000 PUSH1 0x0 MSTORE PUSH1 0x1 PUSH1 0x4 MSTORE PUSH1 0x24 PUSH1 0x0 REVERT JUMPDEST DUP1 PUSH1 0x0 DUP1 CALLER PUSH20 0xFFFFFFFFFFFFFFFFFFFFFFFFFFFFFFFFFFFFFFFF AND PUSH20 0xFFFFFFFFFFFFFFFFFFFFFFFFFFFFFFFFFFFFFFFF AND DUP2 MSTORE PUSH1 0x20 ADD SWAP1 DUP2 MSTORE PUSH1 0x20 ADD PUSH1 0x0 KECCAK256 PUSH1 0x0 DUP3 DUP3 SLOAD PUSH2 0x4AA SWAP2 SWAP1 PUSH2 0x6E1 JUMP JUMPDEST SWAP3 POP POP DUP2 SWAP1 SSTORE POP DUP2 PUSH20 0xFFFFFFFFFFFFFFFFFFFFFFFFFFFFFFFFFFFFFFFF AND PUSH2 0x8FC DUP3 SWAP1 DUP2 ISZERO MUL SWAP1 PUSH1 0x40 MLOAD PUSH1 0x0 PUSH1 0x40 MLOAD DUP1 DUP4 SUB DUP2 DUP6 DUP9 DUP9 CALL SWAP4 POP POP POP POP ISZERO DUP1 ISZERO PUSH2 0x4F7 JUMPI RETURNDATASIZE PUSH1 0x0 DUP1 RETURNDATACOPY RETURNDATASIZE PUSH1 0x0 REVERT JUMPDEST POP POP POP JUMP JUMPDEST PUSH1 0x0 DUP2 CALLDATALOAD SWAP1 POP PUSH2 0x50B DUP2 PUSH2 0x7E4 JUMP JUMPDEST SWAP3 SWAP2 POP POP JUMP JUMPDEST PUSH1 0x0 DUP2 CALLDATALOAD SWAP1 POP PUSH2 0x520 DUP2 PUSH2 0x7FB JUMP JUMPDEST SWAP3 SWAP2 POP POP JUMP JUMPDEST PUSH1 0x0 DUP2 CALLDATALOAD SWAP1 POP PUSH2 0x535 DUP2 PUSH2 0x812 JUMP JUMPDEST SWAP3 SWAP2 POP POP JUMP JUMPDEST PUSH1 0x0 PUSH1 0x20 DUP3 DUP5 SUB SLT ISZERO PUSH2 0x54D JUMPI PUSH1 0x0 DUP1 REVERT JUMPDEST PUSH1 0x0 PUSH2 0x55B DUP5 DUP3 DUP6 ADD PUSH2 0x4FC JUMP JUMPDEST SWAP2 POP POP SWAP3 SWAP2 POP POP JUMP JUMPDEST PUSH1 0x0 DUP1 PUSH1 0x40 DUP4 DUP6 SUB SLT ISZERO PUSH2 0x577 JUMPI PUSH1 0x0 DUP1 REVERT JUMPDEST PUSH1 0x0 PUSH2 0x585 DUP6 DUP3 DUP7 ADD PUSH2 0x511 JUMP JUMPDEST SWAP3 POP POP PUSH1 0x20 PUSH2 0x596 DUP6 DUP3 DUP7 ADD PUSH2 0x526 JUMP JUMPDEST SWAP2 POP POP SWAP3 POP SWAP3 SWAP1 POP JUMP JUMPDEST PUSH2 0x5A9 DUP2 PUSH2 0x715 JUMP JUMPDEST DUP3 MSTORE POP POP JUMP JUMPDEST PUSH1 0x0 PUSH2 0x5BC PUSH1 0x1A DUP4 PUSH2 0x67A JUMP JUMPDEST SWAP2 POP PUSH2 0x5C7 DUP3 PUSH2 0x792 JUMP JUMPDEST PUSH1 0x20 DUP3 ADD SWAP1 POP SWAP2 SWAP1 POP JUMP JUMPDEST PUSH1 0x0 PUSH2 0x5DF PUSH1 0x15 DUP4 PUSH2 0x67A JUMP JUMPDEST SWAP2 POP PUSH2 0x5EA DUP3 PUSH2 0x7BB JUMP JUMPDEST PUSH1 0x20 DUP3 ADD SWAP1 POP SWAP2 SWAP1 POP JUMP JUMPDEST PUSH2 0x5FE DUP2 PUSH2 0x759 JUMP JUMPDEST DUP3 MSTORE POP POP JUMP JUMPDEST PUSH1 0x0 PUSH1 0x20 DUP3 ADD SWAP1 POP PUSH2 0x619 PUSH1 0x0 DUP4 ADD DUP5 PUSH2 0x5A0 JUMP JUMPDEST SWAP3 SWAP2 POP POP JUMP JUMPDEST PUSH1 0x0 PUSH1 0x20 DUP3 ADD SWAP1 POP DUP2 DUP2 SUB PUSH1 0x0 DUP4 ADD MSTORE PUSH2 0x638 DUP2 PUSH2 0x5AF JUMP JUMPDEST SWAP1 POP SWAP2 SWAP1 POP JUMP JUMPDEST PUSH1 0x0 PUSH1 0x20 DUP3 ADD SWAP1 POP DUP2 DUP2 SUB PUSH1 0x0 DUP4 ADD MSTORE PUSH2 0x658 DUP2 PUSH2 0x5D2 JUMP JUMPDEST SWAP1 POP SWAP2 SWAP1 POP JUMP JUMPDEST PUSH1 0x0 PUSH1 0x20 DUP3 ADD SWAP1 POP PUSH2 0x674 PUSH1 0x0 DUP4 ADD DUP5 PUSH2 0x5F5 JUMP JUMPDEST SWAP3 SWAP2 POP POP JUMP JUMPDEST PUSH1 0x0 DUP3 DUP3 MSTORE PUSH1 0x20 DUP3 ADD SWAP1 POP SWAP3 SWAP2 POP POP JUMP JUMPDEST PUSH1 0x0 PUSH2 0x696 DUP3 PUSH2 0x759 JUMP JUMPDEST SWAP2 POP PUSH2 0x6A1 DUP4 PUSH2 0x759 JUMP JUMPDEST SWAP3 POP DUP3 PUSH32 0xFFFFFFFFFFFFFFFFFFFFFFFFFFFFFFFFFFFFFFFFFFFFFFFFFFFFFFFFFFFFFFFF SUB DUP3 GT ISZERO PUSH2 0x6D6 JUMPI PUSH2 0x6D5 PUSH2 0x763 JUMP JUMPDEST JUMPDEST DUP3 DUP3 ADD SWAP1 POP SWAP3 SWAP2 POP POP JUMP JUMPDEST PUSH1 0x0 PUSH2 0x6EC DUP3 PUSH2 0x759 JUMP JUMPDEST SWAP2 POP PUSH2 0x6F7 DUP4 PUSH2 0x759 JUMP JUMPDEST SWAP3 POP DUP3 DUP3 LT ISZERO PUSH2 0x70A JUMPI PUSH2 0x709 PUSH2 0x763 JUMP JUMPDEST JUMPDEST DUP3 DUP3 SUB SWAP1 POP SWAP3 SWAP2 POP POP JUMP JUMPDEST PUSH1 0x0 PUSH2 0x720 DUP3 PUSH2 0x739 JUMP JUMPDEST SWAP1 POP SWAP2 SWAP1 POP JUMP JUMPDEST PUSH1 0x0 PUSH2 0x732 DUP3 PUSH2 0x739 JUMP JUMPDEST SWAP1 POP SWAP2 SWAP1 POP JUMP JUMPDEST PUSH1 0x0 PUSH20 0xFFFFFFFFFFFFFFFFFFFFFFFFFFFFFFFFFFFFFFFF DUP3 AND SWAP1 POP SWAP2 SWAP1 POP JUMP JUMPDEST PUSH1 0x0 DUP2 SWAP1 POP SWAP2 SWAP1 POP JUMP JUMPDEST PUSH32 0x4E487B7100000000000000000000000000000000000000000000000000000000 PUSH1 0x0 MSTORE PUSH1 0x11 PUSH1 0x4 MSTORE PUSH1 0x24 PUSH1 0x0 REVERT JUMPDEST PUSH32 0x596F7520646F6E74206861766520656E6F7567682066756E6473000000000000 PUSH1 0x0 DUP3 ADD MSTORE POP JUMP JUMPDEST PUSH32 0x596F7520617265206E6F7420746865206F776E65720000000000000000000000 PUSH1 0x0 DUP3 ADD MSTORE POP JUMP JUMPDEST PUSH2 0x7ED DUP2 PUSH2 0x715 JUMP JUMPDEST DUP2 EQ PUSH2 0x7F8 JUMPI PUSH1 0x0 DUP1 REVERT JUMPDEST POP JUMP JUMPDEST PUSH2 0x804 DUP2 PUSH2 0x727 JUMP JUMPDEST DUP2 EQ PUSH2 0x80F JUMPI PUSH1 0x0 DUP1 REVERT JUMPDEST POP JUMP JUMPDEST PUSH2 0x81B DUP2 PUSH2 0x759 JUMP JUMPDEST DUP2 EQ PUSH2 0x826 JUMPI PUSH1 0x0 DUP1 REVERT JUMPDEST POP JUMP INVALID LOG2 PUSH5 0x6970667358 0x22 SLT KECCAK256 POP BYTE SWAP11 0x2C PUSH21 0x251291521A8483CE244A747BB7E7F191A52D15E95D 0x1E 0xFC PUSH5 0xA655DF6473 PUSH16 0x6C634300080400330000000000000000 "
				},
				"gasEstimates": {
					"creation": {
						"codeDepositCost": "428600",
						"executionCost": "21327",
						"totalCost": "449927"
					},
					"external": {
						"balanceReceived(address)": "1580",
						"destroySmartContract()": "31872",
						"fall()": "infinite",
						"getOwner()": "422",
						"receiveMoney()": "infinite",
						"withdrawMoney(address,uint256)": "infinite"
					}
				},
				"methodIdentifiers": {
					"balanceReceived(address)": "d18a42e1",
					"destroySmartContract()": "85474728",
					"fall()": "0cf2f2c1",
					"getOwner()": "893d20e8",
					"receiveMoney()": "6d26ec18",
					"withdrawMoney(address,uint256)": "f274c897"
				}
			},
			"storageLayout": {
				"storage": [
					{
						"astId": 5,
						"contract": "contracts/basics/09-FunctionsExample.sol:FunctionsExample",
						"label": "balanceReceived",
						"offset": 0,
						"slot": "0",
						"type": "t_mapping(t_address,t_uint256)"
					},
					{
						"astId": 7,
						"contract": "contracts/basics/09-FunctionsExample.sol:FunctionsExample",
						"label": "owner",
						"offset": 0,
						"slot": "1",
						"type": "t_address_payable"
					}
				],
				"types": {
					"t_address": {
						"encoding": "inplace",
						"label": "address",
						"numberOfBytes": "20"
					},
					"t_address_payable": {
						"encoding": "inplace",
						"label": "address payable",
						"numberOfBytes": "20"
					},
					"t_mapping(t_address,t_uint256)": {
						"encoding": "mapping",
						"key": "t_address",
						"label": "mapping(address => uint256)",
						"numberOfBytes": "32",
						"value": "t_uint256"
					},
					"t_uint256": {
						"encoding": "inplace",
						"label": "uint256",
						"numberOfBytes": "32"
					}
				}
			},
			"userdoc": {
				"kind": "user",
				"methods": {},
				"version": 1
			}
		}
	}
}