{
	"contracts/basics/06-MappingStructsExample.sol": {
		"MappingStructsExample": {
			"abi": [
				{
					"inputs": [
						{
							"internalType": "address",
							"name": "",
							"type": "address"
						}
					],
					"name": "balanceReceived",
					"outputs": [
						{
							"internalType": "uint256",
							"name": "",
							"type": "uint256"
						}
					],
					"stateMutability": "view",
					"type": "function"
				},
				{
					"inputs": [],
					"name": "getBalance",
					"outputs": [
						{
							"internalType": "uint256",
							"name": "",
							"type": "uint256"
						}
					],
					"stateMutability": "view",
					"type": "function"
				},
				{
					"inputs": [],
					"name": "sendMoney",
					"outputs": [],
					"stateMutability": "payable",
					"type": "function"
				},
				{
					"inputs": [
						{
							"internalType": "address payable",
							"name": "_to",
							"type": "address"
						}
					],
					"name": "withdrawAllMoney",
					"outputs": [],
					"stateMutability": "nonpayable",
					"type": "function"
				},
				{
					"inputs": [
						{
							"internalType": "address payable",
							"name": "_to",
							"type": "address"
						},
						{
							"internalType": "uint256",
							"name": "_amount",
							"type": "uint256"
						}
					],
					"name": "withdrawMoney",
					"outputs": [],
					"stateMutability": "nonpayable",
					"type": "function"
				}
			],
			"devdoc": {
				"kind": "dev",
				"methods": {},
				"version": 1
			},
			"evm": {
				"assembly": "    /* \"contracts/basics/06-MappingStructsExample.sol\":55:821  contract MappingStructsExample{\r... */\n  mstore(0x40, 0x80)\n  callvalue\n  dup1\n  iszero\n  tag_1\n  jumpi\n  0x00\n  dup1\n  revert\ntag_1:\n  pop\n  dataSize(sub_0)\n  dup1\n  dataOffset(sub_0)\n  0x00\n  codecopy\n  0x00\n  return\nstop\n\nsub_0: assembly {\n        /* \"contracts/basics/06-MappingStructsExample.sol\":55:821  contract MappingStructsExample{\r... */\n      mstore(0x40, 0x80)\n      jumpi(tag_1, lt(calldatasize, 0x04))\n      shr(0xe0, calldataload(0x00))\n      dup1\n      0x0adec93c\n      eq\n      tag_2\n      jumpi\n      dup1\n      0x12065fe0\n      eq\n      tag_3\n      jumpi\n      dup1\n      0xcbedbf5a\n      eq\n      tag_4\n      jumpi\n      dup1\n      0xd18a42e1\n      eq\n      tag_5\n      jumpi\n      dup1\n      0xf274c897\n      eq\n      tag_6\n      jumpi\n    tag_1:\n      0x00\n      dup1\n      revert\n        /* \"contracts/basics/06-MappingStructsExample.sol\":664:818  function withdrawAllMoney(address payable _to) public{\r... */\n    tag_2:\n      callvalue\n      dup1\n      iszero\n      tag_7\n      jumpi\n      0x00\n      dup1\n      revert\n    tag_7:\n      pop\n      tag_8\n      0x04\n      dup1\n      calldatasize\n      sub\n      dup2\n      add\n      swap1\n      tag_9\n      swap2\n      swap1\n      tag_10\n      jump\t// in\n    tag_9:\n      tag_11\n      jump\t// in\n    tag_8:\n      stop\n        /* \"contracts/basics/06-MappingStructsExample.sol\":223:317  function getBalance() public view returns(uint){\r... */\n    tag_3:\n      callvalue\n      dup1\n      iszero\n      tag_12\n      jumpi\n      0x00\n      dup1\n      revert\n    tag_12:\n      pop\n      tag_13\n      tag_14\n      jump\t// in\n    tag_13:\n      mload(0x40)\n      tag_15\n      swap2\n      swap1\n      tag_16\n      jump\t// in\n    tag_15:\n      mload(0x40)\n      dup1\n      swap2\n      sub\n      swap1\n      return\n        /* \"contracts/basics/06-MappingStructsExample.sol\":325:417  function sendMoney() public payable{\r... */\n    tag_4:\n      tag_17\n      tag_18\n      jump\t// in\n    tag_17:\n      stop\n        /* \"contracts/basics/06-MappingStructsExample.sol\":94:139  mapping(address=>uint) public balanceReceived */\n    tag_5:\n      callvalue\n      dup1\n      iszero\n      tag_19\n      jumpi\n      0x00\n      dup1\n      revert\n    tag_19:\n      pop\n      tag_20\n      0x04\n      dup1\n      calldatasize\n      sub\n      dup2\n      add\n      swap1\n      tag_21\n      swap2\n      swap1\n      tag_22\n      jump\t// in\n    tag_21:\n      tag_23\n      jump\t// in\n    tag_20:\n      mload(0x40)\n      tag_24\n      swap2\n      swap1\n      tag_16\n      jump\t// in\n    tag_24:\n      mload(0x40)\n      dup1\n      swap2\n      sub\n      swap1\n      return\n        /* \"contracts/basics/06-MappingStructsExample.sol\":425:656  function withdrawMoney(address payable _to, uint _amount) public{\r... */\n    tag_6:\n      callvalue\n      dup1\n      iszero\n      tag_25\n      jumpi\n      0x00\n      dup1\n      revert\n    tag_25:\n      pop\n      tag_26\n      0x04\n      dup1\n      calldatasize\n      sub\n      dup2\n      add\n      swap1\n      tag_27\n      swap2\n      swap1\n      tag_28\n      jump\t// in\n    tag_27:\n      tag_29\n      jump\t// in\n    tag_26:\n      stop\n        /* \"contracts/basics/06-MappingStructsExample.sol\":664:818  function withdrawAllMoney(address payable _to) public{\r... */\n    tag_11:\n        /* \"contracts/basics/06-MappingStructsExample.sol\":757:758  0 */\n      0x00\n        /* \"contracts/basics/06-MappingStructsExample.sol\":728:743  balanceReceived */\n      dup1\n        /* \"contracts/basics/06-MappingStructsExample.sol\":728:755  balanceReceived[msg.sender] */\n      0x00\n        /* \"contracts/basics/06-MappingStructsExample.sol\":744:754  msg.sender */\n      caller\n        /* \"contracts/basics/06-MappingStructsExample.sol\":728:755  balanceReceived[msg.sender] */\n      0xffffffffffffffffffffffffffffffffffffffff\n      and\n      0xffffffffffffffffffffffffffffffffffffffff\n      and\n      dup2\n      mstore\n      0x20\n      add\n      swap1\n      dup2\n      mstore\n      0x20\n      add\n      0x00\n      keccak256\n        /* \"contracts/basics/06-MappingStructsExample.sol\":728:758  balanceReceived[msg.sender] =0 */\n      dup2\n      swap1\n      sstore\n      pop\n        /* \"contracts/basics/06-MappingStructsExample.sol\":769:772  _to */\n      dup1\n        /* \"contracts/basics/06-MappingStructsExample.sol\":769:781  _to.transfer */\n      0xffffffffffffffffffffffffffffffffffffffff\n      and\n        /* \"contracts/basics/06-MappingStructsExample.sol\":769:810  _to.transfer(balanceReceived[msg.sender]) */\n      0x08fc\n        /* \"contracts/basics/06-MappingStructsExample.sol\":782:797  balanceReceived */\n      0x00\n        /* \"contracts/basics/06-MappingStructsExample.sol\":782:809  balanceReceived[msg.sender] */\n      dup1\n        /* \"contracts/basics/06-MappingStructsExample.sol\":798:808  msg.sender */\n      caller\n        /* \"contracts/basics/06-MappingStructsExample.sol\":782:809  balanceReceived[msg.sender] */\n      0xffffffffffffffffffffffffffffffffffffffff\n      and\n      0xffffffffffffffffffffffffffffffffffffffff\n      and\n      dup2\n      mstore\n      0x20\n      add\n      swap1\n      dup2\n      mstore\n      0x20\n      add\n      0x00\n      keccak256\n      sload\n        /* \"contracts/basics/06-MappingStructsExample.sol\":769:810  _to.transfer(balanceReceived[msg.sender]) */\n      swap1\n      dup2\n      iszero\n      mul\n      swap1\n      mload(0x40)\n      0x00\n      mload(0x40)\n      dup1\n      dup4\n      sub\n      dup2\n      dup6\n      dup9\n      dup9\n      call\n      swap4\n      pop\n      pop\n      pop\n      pop\n      iszero\n      dup1\n      iszero\n      tag_32\n      jumpi\n      returndatasize\n      0x00\n      dup1\n      returndatacopy\n      revert(0x00, returndatasize)\n    tag_32:\n      pop\n        /* \"contracts/basics/06-MappingStructsExample.sol\":664:818  function withdrawAllMoney(address payable _to) public{\r... */\n      pop\n      jump\t// out\n        /* \"contracts/basics/06-MappingStructsExample.sol\":223:317  function getBalance() public view returns(uint){\r... */\n    tag_14:\n        /* \"contracts/basics/06-MappingStructsExample.sol\":265:269  uint */\n      0x00\n        /* \"contracts/basics/06-MappingStructsExample.sol\":288:309  address(this).balance */\n      selfbalance\n        /* \"contracts/basics/06-MappingStructsExample.sol\":281:309  return address(this).balance */\n      swap1\n      pop\n        /* \"contracts/basics/06-MappingStructsExample.sol\":223:317  function getBalance() public view returns(uint){\r... */\n      swap1\n      jump\t// out\n        /* \"contracts/basics/06-MappingStructsExample.sol\":325:417  function sendMoney() public payable{\r... */\n    tag_18:\n        /* \"contracts/basics/06-MappingStructsExample.sol\":400:409  msg.value */\n      callvalue\n        /* \"contracts/basics/06-MappingStructsExample.sol\":371:386  balanceReceived */\n      0x00\n        /* \"contracts/basics/06-MappingStructsExample.sol\":371:398  balanceReceived[msg.sender] */\n      dup1\n        /* \"contracts/basics/06-MappingStructsExample.sol\":387:397  msg.sender */\n      caller\n        /* \"contracts/basics/06-MappingStructsExample.sol\":371:398  balanceReceived[msg.sender] */\n      0xffffffffffffffffffffffffffffffffffffffff\n      and\n      0xffffffffffffffffffffffffffffffffffffffff\n      and\n      dup2\n      mstore\n      0x20\n      add\n      swap1\n      dup2\n      mstore\n      0x20\n      add\n      0x00\n      keccak256\n      0x00\n        /* \"contracts/basics/06-MappingStructsExample.sol\":371:409  balanceReceived[msg.sender]+=msg.value */\n      dup3\n      dup3\n      sload\n      tag_35\n      swap2\n      swap1\n      tag_36\n      jump\t// in\n    tag_35:\n      swap3\n      pop\n      pop\n      dup2\n      swap1\n      sstore\n      pop\n        /* \"contracts/basics/06-MappingStructsExample.sol\":325:417  function sendMoney() public payable{\r... */\n      jump\t// out\n        /* \"contracts/basics/06-MappingStructsExample.sol\":94:139  mapping(address=>uint) public balanceReceived */\n    tag_23:\n      mstore(0x20, 0x00)\n      dup1\n      0x00\n      mstore\n      keccak256(0x00, 0x40)\n      0x00\n      swap2\n      pop\n      swap1\n      pop\n      sload\n      dup2\n      jump\t// out\n        /* \"contracts/basics/06-MappingStructsExample.sol\":425:656  function withdrawMoney(address payable _to, uint _amount) public{\r... */\n    tag_29:\n        /* \"contracts/basics/06-MappingStructsExample.sol\":537:544  _amount */\n      dup1\n        /* \"contracts/basics/06-MappingStructsExample.sol\":508:523  balanceReceived */\n      0x00\n        /* \"contracts/basics/06-MappingStructsExample.sol\":508:535  balanceReceived[msg.sender] */\n      dup1\n        /* \"contracts/basics/06-MappingStructsExample.sol\":524:534  msg.sender */\n      caller\n        /* \"contracts/basics/06-MappingStructsExample.sol\":508:535  balanceReceived[msg.sender] */\n      0xffffffffffffffffffffffffffffffffffffffff\n      and\n      0xffffffffffffffffffffffffffffffffffffffff\n      and\n      dup2\n      mstore\n      0x20\n      add\n      swap1\n      dup2\n      mstore\n      0x20\n      add\n      0x00\n      keccak256\n      sload\n        /* \"contracts/basics/06-MappingStructsExample.sol\":508:544  balanceReceived[msg.sender]>=_amount */\n      lt\n      iszero\n        /* \"contracts/basics/06-MappingStructsExample.sol\":500:569  require(balanceReceived[msg.sender]>=_amount, 'Not sufficient funds') */\n      tag_38\n      jumpi\n      mload(0x40)\n      0x08c379a000000000000000000000000000000000000000000000000000000000\n      dup2\n      mstore\n      0x04\n      add\n      tag_39\n      swap1\n      tag_40\n      jump\t// in\n    tag_39:\n      mload(0x40)\n      dup1\n      swap2\n      sub\n      swap1\n      revert\n    tag_38:\n        /* \"contracts/basics/06-MappingStructsExample.sol\":609:616  _amount */\n      dup1\n        /* \"contracts/basics/06-MappingStructsExample.sol\":580:595  balanceReceived */\n      0x00\n        /* \"contracts/basics/06-MappingStructsExample.sol\":580:607  balanceReceived[msg.sender] */\n      dup1\n        /* \"contracts/basics/06-MappingStructsExample.sol\":596:606  msg.sender */\n      caller\n        /* \"contracts/basics/06-MappingStructsExample.sol\":580:607  balanceReceived[msg.sender] */\n      0xffffffffffffffffffffffffffffffffffffffff\n      and\n      0xffffffffffffffffffffffffffffffffffffffff\n      and\n      dup2\n      mstore\n      0x20\n      add\n      swap1\n      dup2\n      mstore\n      0x20\n      add\n      0x00\n      keccak256\n      0x00\n        /* \"contracts/basics/06-MappingStructsExample.sol\":580:616  balanceReceived[msg.sender]-=_amount */\n      dup3\n      dup3\n      sload\n      tag_41\n      swap2\n      swap1\n      tag_42\n      jump\t// in\n    tag_41:\n      swap3\n      pop\n      pop\n      dup2\n      swap1\n      sstore\n      pop\n        /* \"contracts/basics/06-MappingStructsExample.sol\":627:630  _to */\n      dup2\n        /* \"contracts/basics/06-MappingStructsExample.sol\":627:639  _to.transfer */\n      0xffffffffffffffffffffffffffffffffffffffff\n      and\n        /* \"contracts/basics/06-MappingStructsExample.sol\":627:648  _to.transfer(_amount) */\n      0x08fc\n        /* \"contracts/basics/06-MappingStructsExample.sol\":640:647  _amount */\n      dup3\n        /* \"contracts/basics/06-MappingStructsExample.sol\":627:648  _to.transfer(_amount) */\n      swap1\n      dup2\n      iszero\n      mul\n      swap1\n      mload(0x40)\n      0x00\n      mload(0x40)\n      dup1\n      dup4\n      sub\n      dup2\n      dup6\n      dup9\n      dup9\n      call\n      swap4\n      pop\n      pop\n      pop\n      pop\n      iszero\n      dup1\n      iszero\n      tag_44\n      jumpi\n      returndatasize\n      0x00\n      dup1\n      returndatacopy\n      revert(0x00, returndatasize)\n    tag_44:\n      pop\n        /* \"contracts/basics/06-MappingStructsExample.sol\":425:656  function withdrawMoney(address payable _to, uint _amount) public{\r... */\n      pop\n      pop\n      jump\t// out\n        /* \"#utility.yul\":7:146   */\n    tag_46:\n        /* \"#utility.yul\":53:58   */\n      0x00\n        /* \"#utility.yul\":91:97   */\n      dup2\n        /* \"#utility.yul\":78:98   */\n      calldataload\n        /* \"#utility.yul\":69:98   */\n      swap1\n      pop\n        /* \"#utility.yul\":107:140   */\n      tag_48\n        /* \"#utility.yul\":134:139   */\n      dup2\n        /* \"#utility.yul\":107:140   */\n      tag_49\n      jump\t// in\n    tag_48:\n        /* \"#utility.yul\":7:146   */\n      swap3\n      swap2\n      pop\n      pop\n      jump\t// out\n        /* \"#utility.yul\":152:307   */\n    tag_50:\n        /* \"#utility.yul\":206:211   */\n      0x00\n        /* \"#utility.yul\":244:250   */\n      dup2\n        /* \"#utility.yul\":231:251   */\n      calldataload\n        /* \"#utility.yul\":222:251   */\n      swap1\n      pop\n        /* \"#utility.yul\":260:301   */\n      tag_52\n        /* \"#utility.yul\":295:300   */\n      dup2\n        /* \"#utility.yul\":260:301   */\n      tag_53\n      jump\t// in\n    tag_52:\n        /* \"#utility.yul\":152:307   */\n      swap3\n      swap2\n      pop\n      pop\n      jump\t// out\n        /* \"#utility.yul\":313:452   */\n    tag_54:\n        /* \"#utility.yul\":359:364   */\n      0x00\n        /* \"#utility.yul\":397:403   */\n      dup2\n        /* \"#utility.yul\":384:404   */\n      calldataload\n        /* \"#utility.yul\":375:404   */\n      swap1\n      pop\n        /* \"#utility.yul\":413:446   */\n      tag_56\n        /* \"#utility.yul\":440:445   */\n      dup2\n        /* \"#utility.yul\":413:446   */\n      tag_57\n      jump\t// in\n    tag_56:\n        /* \"#utility.yul\":313:452   */\n      swap3\n      swap2\n      pop\n      pop\n      jump\t// out\n        /* \"#utility.yul\":458:787   */\n    tag_22:\n        /* \"#utility.yul\":517:523   */\n      0x00\n        /* \"#utility.yul\":566:568   */\n      0x20\n        /* \"#utility.yul\":554:563   */\n      dup3\n        /* \"#utility.yul\":545:552   */\n      dup5\n        /* \"#utility.yul\":541:564   */\n      sub\n        /* \"#utility.yul\":537:569   */\n      slt\n        /* \"#utility.yul\":534:653   */\n      iszero\n      tag_59\n      jumpi\n        /* \"#utility.yul\":572:651   */\n      tag_60\n      tag_61\n      jump\t// in\n    tag_60:\n        /* \"#utility.yul\":534:653   */\n    tag_59:\n        /* \"#utility.yul\":692:693   */\n      0x00\n        /* \"#utility.yul\":717:770   */\n      tag_62\n        /* \"#utility.yul\":762:769   */\n      dup5\n        /* \"#utility.yul\":753:759   */\n      dup3\n        /* \"#utility.yul\":742:751   */\n      dup6\n        /* \"#utility.yul\":738:760   */\n      add\n        /* \"#utility.yul\":717:770   */\n      tag_46\n      jump\t// in\n    tag_62:\n        /* \"#utility.yul\":707:770   */\n      swap2\n      pop\n        /* \"#utility.yul\":663:780   */\n      pop\n        /* \"#utility.yul\":458:787   */\n      swap3\n      swap2\n      pop\n      pop\n      jump\t// out\n        /* \"#utility.yul\":793:1138   */\n    tag_10:\n        /* \"#utility.yul\":860:866   */\n      0x00\n        /* \"#utility.yul\":909:911   */\n      0x20\n        /* \"#utility.yul\":897:906   */\n      dup3\n        /* \"#utility.yul\":888:895   */\n      dup5\n        /* \"#utility.yul\":884:907   */\n      sub\n        /* \"#utility.yul\":880:912   */\n      slt\n        /* \"#utility.yul\":877:996   */\n      iszero\n      tag_64\n      jumpi\n        /* \"#utility.yul\":915:994   */\n      tag_65\n      tag_61\n      jump\t// in\n    tag_65:\n        /* \"#utility.yul\":877:996   */\n    tag_64:\n        /* \"#utility.yul\":1035:1036   */\n      0x00\n        /* \"#utility.yul\":1060:1121   */\n      tag_66\n        /* \"#utility.yul\":1113:1120   */\n      dup5\n        /* \"#utility.yul\":1104:1110   */\n      dup3\n        /* \"#utility.yul\":1093:1102   */\n      dup6\n        /* \"#utility.yul\":1089:1111   */\n      add\n        /* \"#utility.yul\":1060:1121   */\n      tag_50\n      jump\t// in\n    tag_66:\n        /* \"#utility.yul\":1050:1121   */\n      swap2\n      pop\n        /* \"#utility.yul\":1006:1131   */\n      pop\n        /* \"#utility.yul\":793:1138   */\n      swap3\n      swap2\n      pop\n      pop\n      jump\t// out\n        /* \"#utility.yul\":1144:1634   */\n    tag_28:\n        /* \"#utility.yul\":1220:1226   */\n      0x00\n        /* \"#utility.yul\":1228:1234   */\n      dup1\n        /* \"#utility.yul\":1277:1279   */\n      0x40\n        /* \"#utility.yul\":1265:1274   */\n      dup4\n        /* \"#utility.yul\":1256:1263   */\n      dup6\n        /* \"#utility.yul\":1252:1275   */\n      sub\n        /* \"#utility.yul\":1248:1280   */\n      slt\n        /* \"#utility.yul\":1245:1364   */\n      iszero\n      tag_68\n      jumpi\n        /* \"#utility.yul\":1283:1362   */\n      tag_69\n      tag_61\n      jump\t// in\n    tag_69:\n        /* \"#utility.yul\":1245:1364   */\n    tag_68:\n        /* \"#utility.yul\":1403:1404   */\n      0x00\n        /* \"#utility.yul\":1428:1489   */\n      tag_70\n        /* \"#utility.yul\":1481:1488   */\n      dup6\n        /* \"#utility.yul\":1472:1478   */\n      dup3\n        /* \"#utility.yul\":1461:1470   */\n      dup7\n        /* \"#utility.yul\":1457:1479   */\n      add\n        /* \"#utility.yul\":1428:1489   */\n      tag_50\n      jump\t// in\n    tag_70:\n        /* \"#utility.yul\":1418:1489   */\n      swap3\n      pop\n        /* \"#utility.yul\":1374:1499   */\n      pop\n        /* \"#utility.yul\":1538:1540   */\n      0x20\n        /* \"#utility.yul\":1564:1617   */\n      tag_71\n        /* \"#utility.yul\":1609:1616   */\n      dup6\n        /* \"#utility.yul\":1600:1606   */\n      dup3\n        /* \"#utility.yul\":1589:1598   */\n      dup7\n        /* \"#utility.yul\":1585:1607   */\n      add\n        /* \"#utility.yul\":1564:1617   */\n      tag_54\n      jump\t// in\n    tag_71:\n        /* \"#utility.yul\":1554:1617   */\n      swap2\n      pop\n        /* \"#utility.yul\":1509:1627   */\n      pop\n        /* \"#utility.yul\":1144:1634   */\n      swap3\n      pop\n      swap3\n      swap1\n      pop\n      jump\t// out\n        /* \"#utility.yul\":1640:2006   */\n    tag_72:\n        /* \"#utility.yul\":1782:1785   */\n      0x00\n        /* \"#utility.yul\":1803:1870   */\n      tag_74\n        /* \"#utility.yul\":1867:1869   */\n      0x14\n        /* \"#utility.yul\":1862:1865   */\n      dup4\n        /* \"#utility.yul\":1803:1870   */\n      tag_75\n      jump\t// in\n    tag_74:\n        /* \"#utility.yul\":1796:1870   */\n      swap2\n      pop\n        /* \"#utility.yul\":1879:1972   */\n      tag_76\n        /* \"#utility.yul\":1968:1971   */\n      dup3\n        /* \"#utility.yul\":1879:1972   */\n      tag_77\n      jump\t// in\n    tag_76:\n        /* \"#utility.yul\":1997:1999   */\n      0x20\n        /* \"#utility.yul\":1992:1995   */\n      dup3\n        /* \"#utility.yul\":1988:2000   */\n      add\n        /* \"#utility.yul\":1981:2000   */\n      swap1\n      pop\n        /* \"#utility.yul\":1640:2006   */\n      swap2\n      swap1\n      pop\n      jump\t// out\n        /* \"#utility.yul\":2012:2130   */\n    tag_78:\n        /* \"#utility.yul\":2099:2123   */\n      tag_80\n        /* \"#utility.yul\":2117:2122   */\n      dup2\n        /* \"#utility.yul\":2099:2123   */\n      tag_81\n      jump\t// in\n    tag_80:\n        /* \"#utility.yul\":2094:2097   */\n      dup3\n        /* \"#utility.yul\":2087:2124   */\n      mstore\n        /* \"#utility.yul\":2012:2130   */\n      pop\n      pop\n      jump\t// out\n        /* \"#utility.yul\":2136:2555   */\n    tag_40:\n        /* \"#utility.yul\":2302:2306   */\n      0x00\n        /* \"#utility.yul\":2340:2342   */\n      0x20\n        /* \"#utility.yul\":2329:2338   */\n      dup3\n        /* \"#utility.yul\":2325:2343   */\n      add\n        /* \"#utility.yul\":2317:2343   */\n      swap1\n      pop\n        /* \"#utility.yul\":2389:2398   */\n      dup2\n        /* \"#utility.yul\":2383:2387   */\n      dup2\n        /* \"#utility.yul\":2379:2399   */\n      sub\n        /* \"#utility.yul\":2375:2376   */\n      0x00\n        /* \"#utility.yul\":2364:2373   */\n      dup4\n        /* \"#utility.yul\":2360:2377   */\n      add\n        /* \"#utility.yul\":2353:2400   */\n      mstore\n        /* \"#utility.yul\":2417:2548   */\n      tag_83\n        /* \"#utility.yul\":2543:2547   */\n      dup2\n        /* \"#utility.yul\":2417:2548   */\n      tag_72\n      jump\t// in\n    tag_83:\n        /* \"#utility.yul\":2409:2548   */\n      swap1\n      pop\n        /* \"#utility.yul\":2136:2555   */\n      swap2\n      swap1\n      pop\n      jump\t// out\n        /* \"#utility.yul\":2561:2783   */\n    tag_16:\n        /* \"#utility.yul\":2654:2658   */\n      0x00\n        /* \"#utility.yul\":2692:2694   */\n      0x20\n        /* \"#utility.yul\":2681:2690   */\n      dup3\n        /* \"#utility.yul\":2677:2695   */\n      add\n        /* \"#utility.yul\":2669:2695   */\n      swap1\n      pop\n        /* \"#utility.yul\":2705:2776   */\n      tag_85\n        /* \"#utility.yul\":2773:2774   */\n      0x00\n        /* \"#utility.yul\":2762:2771   */\n      dup4\n        /* \"#utility.yul\":2758:2775   */\n      add\n        /* \"#utility.yul\":2749:2755   */\n      dup5\n        /* \"#utility.yul\":2705:2776   */\n      tag_78\n      jump\t// in\n    tag_85:\n        /* \"#utility.yul\":2561:2783   */\n      swap3\n      swap2\n      pop\n      pop\n      jump\t// out\n        /* \"#utility.yul\":2870:3039   */\n    tag_75:\n        /* \"#utility.yul\":2954:2965   */\n      0x00\n        /* \"#utility.yul\":2988:2994   */\n      dup3\n        /* \"#utility.yul\":2983:2986   */\n      dup3\n        /* \"#utility.yul\":2976:2995   */\n      mstore\n        /* \"#utility.yul\":3028:3032   */\n      0x20\n        /* \"#utility.yul\":3023:3026   */\n      dup3\n        /* \"#utility.yul\":3019:3033   */\n      add\n        /* \"#utility.yul\":3004:3033   */\n      swap1\n      pop\n        /* \"#utility.yul\":2870:3039   */\n      swap3\n      swap2\n      pop\n      pop\n      jump\t// out\n        /* \"#utility.yul\":3045:3350   */\n    tag_36:\n        /* \"#utility.yul\":3085:3088   */\n      0x00\n        /* \"#utility.yul\":3104:3124   */\n      tag_90\n        /* \"#utility.yul\":3122:3123   */\n      dup3\n        /* \"#utility.yul\":3104:3124   */\n      tag_81\n      jump\t// in\n    tag_90:\n        /* \"#utility.yul\":3099:3124   */\n      swap2\n      pop\n        /* \"#utility.yul\":3138:3158   */\n      tag_91\n        /* \"#utility.yul\":3156:3157   */\n      dup4\n        /* \"#utility.yul\":3138:3158   */\n      tag_81\n      jump\t// in\n    tag_91:\n        /* \"#utility.yul\":3133:3158   */\n      swap3\n      pop\n        /* \"#utility.yul\":3292:3293   */\n      dup3\n        /* \"#utility.yul\":3224:3290   */\n      0xffffffffffffffffffffffffffffffffffffffffffffffffffffffffffffffff\n        /* \"#utility.yul\":3220:3294   */\n      sub\n        /* \"#utility.yul\":3217:3218   */\n      dup3\n        /* \"#utility.yul\":3214:3295   */\n      gt\n        /* \"#utility.yul\":3211:3318   */\n      iszero\n      tag_92\n      jumpi\n        /* \"#utility.yul\":3298:3316   */\n      tag_93\n      tag_94\n      jump\t// in\n    tag_93:\n        /* \"#utility.yul\":3211:3318   */\n    tag_92:\n        /* \"#utility.yul\":3342:3343   */\n      dup3\n        /* \"#utility.yul\":3339:3340   */\n      dup3\n        /* \"#utility.yul\":3335:3344   */\n      add\n        /* \"#utility.yul\":3328:3344   */\n      swap1\n      pop\n        /* \"#utility.yul\":3045:3350   */\n      swap3\n      swap2\n      pop\n      pop\n      jump\t// out\n        /* \"#utility.yul\":3356:3547   */\n    tag_42:\n        /* \"#utility.yul\":3396:3400   */\n      0x00\n        /* \"#utility.yul\":3416:3436   */\n      tag_96\n        /* \"#utility.yul\":3434:3435   */\n      dup3\n        /* \"#utility.yul\":3416:3436   */\n      tag_81\n      jump\t// in\n    tag_96:\n        /* \"#utility.yul\":3411:3436   */\n      swap2\n      pop\n        /* \"#utility.yul\":3450:3470   */\n      tag_97\n        /* \"#utility.yul\":3468:3469   */\n      dup4\n        /* \"#utility.yul\":3450:3470   */\n      tag_81\n      jump\t// in\n    tag_97:\n        /* \"#utility.yul\":3445:3470   */\n      swap3\n      pop\n        /* \"#utility.yul\":3489:3490   */\n      dup3\n        /* \"#utility.yul\":3486:3487   */\n      dup3\n        /* \"#utility.yul\":3483:3491   */\n      lt\n        /* \"#utility.yul\":3480:3514   */\n      iszero\n      tag_98\n      jumpi\n        /* \"#utility.yul\":3494:3512   */\n      tag_99\n      tag_94\n      jump\t// in\n    tag_99:\n        /* \"#utility.yul\":3480:3514   */\n    tag_98:\n        /* \"#utility.yul\":3539:3540   */\n      dup3\n        /* \"#utility.yul\":3536:3537   */\n      dup3\n        /* \"#utility.yul\":3532:3541   */\n      sub\n        /* \"#utility.yul\":3524:3541   */\n      swap1\n      pop\n        /* \"#utility.yul\":3356:3547   */\n      swap3\n      swap2\n      pop\n      pop\n      jump\t// out\n        /* \"#utility.yul\":3553:3649   */\n    tag_100:\n        /* \"#utility.yul\":3590:3597   */\n      0x00\n        /* \"#utility.yul\":3619:3643   */\n      tag_102\n        /* \"#utility.yul\":3637:3642   */\n      dup3\n        /* \"#utility.yul\":3619:3643   */\n      tag_103\n      jump\t// in\n    tag_102:\n        /* \"#utility.yul\":3608:3643   */\n      swap1\n      pop\n        /* \"#utility.yul\":3553:3649   */\n      swap2\n      swap1\n      pop\n      jump\t// out\n        /* \"#utility.yul\":3655:3759   */\n    tag_104:\n        /* \"#utility.yul\":3700:3707   */\n      0x00\n        /* \"#utility.yul\":3729:3753   */\n      tag_106\n        /* \"#utility.yul\":3747:3752   */\n      dup3\n        /* \"#utility.yul\":3729:3753   */\n      tag_103\n      jump\t// in\n    tag_106:\n        /* \"#utility.yul\":3718:3753   */\n      swap1\n      pop\n        /* \"#utility.yul\":3655:3759   */\n      swap2\n      swap1\n      pop\n      jump\t// out\n        /* \"#utility.yul\":3765:3891   */\n    tag_103:\n        /* \"#utility.yul\":3802:3809   */\n      0x00\n        /* \"#utility.yul\":3842:3884   */\n      0xffffffffffffffffffffffffffffffffffffffff\n        /* \"#utility.yul\":3835:3840   */\n      dup3\n        /* \"#utility.yul\":3831:3885   */\n      and\n        /* \"#utility.yul\":3820:3885   */\n      swap1\n      pop\n        /* \"#utility.yul\":3765:3891   */\n      swap2\n      swap1\n      pop\n      jump\t// out\n        /* \"#utility.yul\":3897:3974   */\n    tag_81:\n        /* \"#utility.yul\":3934:3941   */\n      0x00\n        /* \"#utility.yul\":3963:3968   */\n      dup2\n        /* \"#utility.yul\":3952:3968   */\n      swap1\n      pop\n        /* \"#utility.yul\":3897:3974   */\n      swap2\n      swap1\n      pop\n      jump\t// out\n        /* \"#utility.yul\":3980:4160   */\n    tag_94:\n        /* \"#utility.yul\":4028:4105   */\n      0x4e487b7100000000000000000000000000000000000000000000000000000000\n        /* \"#utility.yul\":4025:4026   */\n      0x00\n        /* \"#utility.yul\":4018:4106   */\n      mstore\n        /* \"#utility.yul\":4125:4129   */\n      0x11\n        /* \"#utility.yul\":4122:4123   */\n      0x04\n        /* \"#utility.yul\":4115:4130   */\n      mstore\n        /* \"#utility.yul\":4149:4153   */\n      0x24\n        /* \"#utility.yul\":4146:4147   */\n      0x00\n        /* \"#utility.yul\":4139:4154   */\n      revert\n        /* \"#utility.yul\":4289:4406   */\n    tag_61:\n        /* \"#utility.yul\":4398:4399   */\n      0x00\n        /* \"#utility.yul\":4395:4396   */\n      dup1\n        /* \"#utility.yul\":4388:4400   */\n      revert\n        /* \"#utility.yul\":4412:4582   */\n    tag_77:\n        /* \"#utility.yul\":4552:4574   */\n      0x4e6f742073756666696369656e742066756e6473000000000000000000000000\n        /* \"#utility.yul\":4548:4549   */\n      0x00\n        /* \"#utility.yul\":4540:4546   */\n      dup3\n        /* \"#utility.yul\":4536:4550   */\n      add\n        /* \"#utility.yul\":4529:4575   */\n      mstore\n        /* \"#utility.yul\":4412:4582   */\n      pop\n      jump\t// out\n        /* \"#utility.yul\":4588:4710   */\n    tag_49:\n        /* \"#utility.yul\":4661:4685   */\n      tag_115\n        /* \"#utility.yul\":4679:4684   */\n      dup2\n        /* \"#utility.yul\":4661:4685   */\n      tag_100\n      jump\t// in\n    tag_115:\n        /* \"#utility.yul\":4654:4659   */\n      dup2\n        /* \"#utility.yul\":4651:4686   */\n      eq\n        /* \"#utility.yul\":4641:4704   */\n      tag_116\n      jumpi\n        /* \"#utility.yul\":4700:4701   */\n      0x00\n        /* \"#utility.yul\":4697:4698   */\n      dup1\n        /* \"#utility.yul\":4690:4702   */\n      revert\n        /* \"#utility.yul\":4641:4704   */\n    tag_116:\n        /* \"#utility.yul\":4588:4710   */\n      pop\n      jump\t// out\n        /* \"#utility.yul\":4716:4854   */\n    tag_53:\n        /* \"#utility.yul\":4797:4829   */\n      tag_118\n        /* \"#utility.yul\":4823:4828   */\n      dup2\n        /* \"#utility.yul\":4797:4829   */\n      tag_104\n      jump\t// in\n    tag_118:\n        /* \"#utility.yul\":4790:4795   */\n      dup2\n        /* \"#utility.yul\":4787:4830   */\n      eq\n        /* \"#utility.yul\":4777:4848   */\n      tag_119\n      jumpi\n        /* \"#utility.yul\":4844:4845   */\n      0x00\n        /* \"#utility.yul\":4841:4842   */\n      dup1\n        /* \"#utility.yul\":4834:4846   */\n      revert\n        /* \"#utility.yul\":4777:4848   */\n    tag_119:\n        /* \"#utility.yul\":4716:4854   */\n      pop\n      jump\t// out\n        /* \"#utility.yul\":4860:4982   */\n    tag_57:\n        /* \"#utility.yul\":4933:4957   */\n      tag_121\n        /* \"#utility.yul\":4951:4956   */\n      dup2\n        /* \"#utility.yul\":4933:4957   */\n      tag_81\n      jump\t// in\n    tag_121:\n        /* \"#utility.yul\":4926:4931   */\n      dup2\n        /* \"#utility.yul\":4923:4958   */\n      eq\n        /* \"#utility.yul\":4913:4976   */\n      tag_122\n      jumpi\n        /* \"#utility.yul\":4972:4973   */\n      0x00\n        /* \"#utility.yul\":4969:4970   */\n      dup1\n        /* \"#utility.yul\":4962:4974   */\n      revert\n        /* \"#utility.yul\":4913:4976   */\n    tag_122:\n        /* \"#utility.yul\":4860:4982   */\n      pop\n      jump\t// out\n\n    auxdata: 0xa26469706673582212205acdc0a9826cbc0948962d20d8ba0281fa7adc7735067eed266fecab6ec1fbc064736f6c63430008070033\n}\n",
				"bytecode": {
					"linkReferences": {},
					"object": "608060405234801561001057600080fd5b5061067e806100206000396000f3fe60806040526004361061004a5760003560e01c80630adec93c1461004f57806312065fe014610078578063cbedbf5a146100a3578063d18a42e1146100ad578063f274c897146100ea575b600080fd5b34801561005b57600080fd5b50610076600480360381019061007191906103e3565b610113565b005b34801561008457600080fd5b5061008d6101df565b60405161009a91906104a2565b60405180910390f35b6100ab6101e7565b005b3480156100b957600080fd5b506100d460048036038101906100cf91906103b6565b61023e565b6040516100e191906104a2565b60405180910390f35b3480156100f657600080fd5b50610111600480360381019061010c9190610410565b610256565b005b60008060003373ffffffffffffffffffffffffffffffffffffffff1673ffffffffffffffffffffffffffffffffffffffff168152602001908152602001600020819055508073ffffffffffffffffffffffffffffffffffffffff166108fc6000803373ffffffffffffffffffffffffffffffffffffffff1673ffffffffffffffffffffffffffffffffffffffff168152602001908152602001600020549081150290604051600060405180830381858888f193505050501580156101db573d6000803e3d6000fd5b5050565b600047905090565b346000803373ffffffffffffffffffffffffffffffffffffffff1673ffffffffffffffffffffffffffffffffffffffff168152602001908152602001600020600082825461023591906104ce565b92505081905550565b60006020528060005260406000206000915090505481565b806000803373ffffffffffffffffffffffffffffffffffffffff1673ffffffffffffffffffffffffffffffffffffffff1681526020019081526020016000205410156102d7576040517f08c379a00000000000000000000000000000000000000000000000000000000081526004016102ce90610482565b60405180910390fd5b806000803373ffffffffffffffffffffffffffffffffffffffff1673ffffffffffffffffffffffffffffffffffffffff16815260200190815260200160002060008282546103259190610524565b925050819055508173ffffffffffffffffffffffffffffffffffffffff166108fc829081150290604051600060405180830381858888f19350505050158015610372573d6000803e3d6000fd5b505050565b60008135905061038681610603565b92915050565b60008135905061039b8161061a565b92915050565b6000813590506103b081610631565b92915050565b6000602082840312156103cc576103cb6105d5565b5b60006103da84828501610377565b91505092915050565b6000602082840312156103f9576103f86105d5565b5b60006104078482850161038c565b91505092915050565b60008060408385031215610427576104266105d5565b5b60006104358582860161038c565b9250506020610446858286016103a1565b9150509250929050565b600061045d6014836104bd565b9150610468826105da565b602082019050919050565b61047c8161059c565b82525050565b6000602082019050818103600083015261049b81610450565b9050919050565b60006020820190506104b76000830184610473565b92915050565b600082825260208201905092915050565b60006104d98261059c565b91506104e48361059c565b9250827fffffffffffffffffffffffffffffffffffffffffffffffffffffffffffffffff03821115610519576105186105a6565b5b828201905092915050565b600061052f8261059c565b915061053a8361059c565b92508282101561054d5761054c6105a6565b5b828203905092915050565b60006105638261057c565b9050919050565b60006105758261057c565b9050919050565b600073ffffffffffffffffffffffffffffffffffffffff82169050919050565b6000819050919050565b7f4e487b7100000000000000000000000000000000000000000000000000000000600052601160045260246000fd5b600080fd5b7f4e6f742073756666696369656e742066756e6473000000000000000000000000600082015250565b61060c81610558565b811461061757600080fd5b50565b6106238161056a565b811461062e57600080fd5b50565b61063a8161059c565b811461064557600080fd5b5056fea26469706673582212205acdc0a9826cbc0948962d20d8ba0281fa7adc7735067eed266fecab6ec1fbc064736f6c63430008070033",
					"opcodes": "PUSH1 0x80 PUSH1 0x40 MSTORE CALLVALUE DUP1 ISZERO PUSH2 0x10 JUMPI PUSH1 0x0 DUP1 REVERT JUMPDEST POP PUSH2 0x67E DUP1 PUSH2 0x20 PUSH1 0x0 CODECOPY PUSH1 0x0 RETURN INVALID PUSH1 0x80 PUSH1 0x40 MSTORE PUSH1 0x4 CALLDATASIZE LT PUSH2 0x4A JUMPI PUSH1 0x0 CALLDATALOAD PUSH1 0xE0 SHR DUP1 PUSH4 0xADEC93C EQ PUSH2 0x4F JUMPI DUP1 PUSH4 0x12065FE0 EQ PUSH2 0x78 JUMPI DUP1 PUSH4 0xCBEDBF5A EQ PUSH2 0xA3 JUMPI DUP1 PUSH4 0xD18A42E1 EQ PUSH2 0xAD JUMPI DUP1 PUSH4 0xF274C897 EQ PUSH2 0xEA JUMPI JUMPDEST PUSH1 0x0 DUP1 REVERT JUMPDEST CALLVALUE DUP1 ISZERO PUSH2 0x5B JUMPI PUSH1 0x0 DUP1 REVERT JUMPDEST POP PUSH2 0x76 PUSH1 0x4 DUP1 CALLDATASIZE SUB DUP2 ADD SWAP1 PUSH2 0x71 SWAP2 SWAP1 PUSH2 0x3E3 JUMP JUMPDEST PUSH2 0x113 JUMP JUMPDEST STOP JUMPDEST CALLVALUE DUP1 ISZERO PUSH2 0x84 JUMPI PUSH1 0x0 DUP1 REVERT JUMPDEST POP PUSH2 0x8D PUSH2 0x1DF JUMP JUMPDEST PUSH1 0x40 MLOAD PUSH2 0x9A SWAP2 SWAP1 PUSH2 0x4A2 JUMP JUMPDEST PUSH1 0x40 MLOAD DUP1 SWAP2 SUB SWAP1 RETURN JUMPDEST PUSH2 0xAB PUSH2 0x1E7 JUMP JUMPDEST STOP JUMPDEST CALLVALUE DUP1 ISZERO PUSH2 0xB9 JUMPI PUSH1 0x0 DUP1 REVERT JUMPDEST POP PUSH2 0xD4 PUSH1 0x4 DUP1 CALLDATASIZE SUB DUP2 ADD SWAP1 PUSH2 0xCF SWAP2 SWAP1 PUSH2 0x3B6 JUMP JUMPDEST PUSH2 0x23E JUMP JUMPDEST PUSH1 0x40 MLOAD PUSH2 0xE1 SWAP2 SWAP1 PUSH2 0x4A2 JUMP JUMPDEST PUSH1 0x40 MLOAD DUP1 SWAP2 SUB SWAP1 RETURN JUMPDEST CALLVALUE DUP1 ISZERO PUSH2 0xF6 JUMPI PUSH1 0x0 DUP1 REVERT JUMPDEST POP PUSH2 0x111 PUSH1 0x4 DUP1 CALLDATASIZE SUB DUP2 ADD SWAP1 PUSH2 0x10C SWAP2 SWAP1 PUSH2 0x410 JUMP JUMPDEST PUSH2 0x256 JUMP JUMPDEST STOP JUMPDEST PUSH1 0x0 DUP1 PUSH1 0x0 CALLER PUSH20 0xFFFFFFFFFFFFFFFFFFFFFFFFFFFFFFFFFFFFFFFF AND PUSH20 0xFFFFFFFFFFFFFFFFFFFFFFFFFFFFFFFFFFFFFFFF AND DUP2 MSTORE PUSH1 0x20 ADD SWAP1 DUP2 MSTORE PUSH1 0x20 ADD PUSH1 0x0 KECCAK256 DUP2 SWAP1 SSTORE POP DUP1 PUSH20 0xFFFFFFFFFFFFFFFFFFFFFFFFFFFFFFFFFFFFFFFF AND PUSH2 0x8FC PUSH1 0x0 DUP1 CALLER PUSH20 0xFFFFFFFFFFFFFFFFFFFFFFFFFFFFFFFFFFFFFFFF AND PUSH20 0xFFFFFFFFFFFFFFFFFFFFFFFFFFFFFFFFFFFFFFFF AND DUP2 MSTORE PUSH1 0x20 ADD SWAP1 DUP2 MSTORE PUSH1 0x20 ADD PUSH1 0x0 KECCAK256 SLOAD SWAP1 DUP2 ISZERO MUL SWAP1 PUSH1 0x40 MLOAD PUSH1 0x0 PUSH1 0x40 MLOAD DUP1 DUP4 SUB DUP2 DUP6 DUP9 DUP9 CALL SWAP4 POP POP POP POP ISZERO DUP1 ISZERO PUSH2 0x1DB JUMPI RETURNDATASIZE PUSH1 0x0 DUP1 RETURNDATACOPY RETURNDATASIZE PUSH1 0x0 REVERT JUMPDEST POP POP JUMP JUMPDEST PUSH1 0x0 SELFBALANCE SWAP1 POP SWAP1 JUMP JUMPDEST CALLVALUE PUSH1 0x0 DUP1 CALLER PUSH20 0xFFFFFFFFFFFFFFFFFFFFFFFFFFFFFFFFFFFFFFFF AND PUSH20 0xFFFFFFFFFFFFFFFFFFFFFFFFFFFFFFFFFFFFFFFF AND DUP2 MSTORE PUSH1 0x20 ADD SWAP1 DUP2 MSTORE PUSH1 0x20 ADD PUSH1 0x0 KECCAK256 PUSH1 0x0 DUP3 DUP3 SLOAD PUSH2 0x235 SWAP2 SWAP1 PUSH2 0x4CE JUMP JUMPDEST SWAP3 POP POP DUP2 SWAP1 SSTORE POP JUMP JUMPDEST PUSH1 0x0 PUSH1 0x20 MSTORE DUP1 PUSH1 0x0 MSTORE PUSH1 0x40 PUSH1 0x0 KECCAK256 PUSH1 0x0 SWAP2 POP SWAP1 POP SLOAD DUP2 JUMP JUMPDEST DUP1 PUSH1 0x0 DUP1 CALLER PUSH20 0xFFFFFFFFFFFFFFFFFFFFFFFFFFFFFFFFFFFFFFFF AND PUSH20 0xFFFFFFFFFFFFFFFFFFFFFFFFFFFFFFFFFFFFFFFF AND DUP2 MSTORE PUSH1 0x20 ADD SWAP1 DUP2 MSTORE PUSH1 0x20 ADD PUSH1 0x0 KECCAK256 SLOAD LT ISZERO PUSH2 0x2D7 JUMPI PUSH1 0x40 MLOAD PUSH32 0x8C379A000000000000000000000000000000000000000000000000000000000 DUP2 MSTORE PUSH1 0x4 ADD PUSH2 0x2CE SWAP1 PUSH2 0x482 JUMP JUMPDEST PUSH1 0x40 MLOAD DUP1 SWAP2 SUB SWAP1 REVERT JUMPDEST DUP1 PUSH1 0x0 DUP1 CALLER PUSH20 0xFFFFFFFFFFFFFFFFFFFFFFFFFFFFFFFFFFFFFFFF AND PUSH20 0xFFFFFFFFFFFFFFFFFFFFFFFFFFFFFFFFFFFFFFFF AND DUP2 MSTORE PUSH1 0x20 ADD SWAP1 DUP2 MSTORE PUSH1 0x20 ADD PUSH1 0x0 KECCAK256 PUSH1 0x0 DUP3 DUP3 SLOAD PUSH2 0x325 SWAP2 SWAP1 PUSH2 0x524 JUMP JUMPDEST SWAP3 POP POP DUP2 SWAP1 SSTORE POP DUP2 PUSH20 0xFFFFFFFFFFFFFFFFFFFFFFFFFFFFFFFFFFFFFFFF AND PUSH2 0x8FC DUP3 SWAP1 DUP2 ISZERO MUL SWAP1 PUSH1 0x40 MLOAD PUSH1 0x0 PUSH1 0x40 MLOAD DUP1 DUP4 SUB DUP2 DUP6 DUP9 DUP9 CALL SWAP4 POP POP POP POP ISZERO DUP1 ISZERO PUSH2 0x372 JUMPI RETURNDATASIZE PUSH1 0x0 DUP1 RETURNDATACOPY RETURNDATASIZE PUSH1 0x0 REVERT JUMPDEST POP POP POP JUMP JUMPDEST PUSH1 0x0 DUP2 CALLDATALOAD SWAP1 POP PUSH2 0x386 DUP2 PUSH2 0x603 JUMP JUMPDEST SWAP3 SWAP2 POP POP JUMP JUMPDEST PUSH1 0x0 DUP2 CALLDATALOAD SWAP1 POP PUSH2 0x39B DUP2 PUSH2 0x61A JUMP JUMPDEST SWAP3 SWAP2 POP POP JUMP JUMPDEST PUSH1 0x0 DUP2 CALLDATALOAD SWAP1 POP PUSH2 0x3B0 DUP2 PUSH2 0x631 JUMP JUMPDEST SWAP3 SWAP2 POP POP JUMP JUMPDEST PUSH1 0x0 PUSH1 0x20 DUP3 DUP5 SUB SLT ISZERO PUSH2 0x3CC JUMPI PUSH2 0x3CB PUSH2 0x5D5 JUMP JUMPDEST JUMPDEST PUSH1 0x0 PUSH2 0x3DA DUP5 DUP3 DUP6 ADD PUSH2 0x377 JUMP JUMPDEST SWAP2 POP POP SWAP3 SWAP2 POP POP JUMP JUMPDEST PUSH1 0x0 PUSH1 0x20 DUP3 DUP5 SUB SLT ISZERO PUSH2 0x3F9 JUMPI PUSH2 0x3F8 PUSH2 0x5D5 JUMP JUMPDEST JUMPDEST PUSH1 0x0 PUSH2 0x407 DUP5 DUP3 DUP6 ADD PUSH2 0x38C JUMP JUMPDEST SWAP2 POP POP SWAP3 SWAP2 POP POP JUMP JUMPDEST PUSH1 0x0 DUP1 PUSH1 0x40 DUP4 DUP6 SUB SLT ISZERO PUSH2 0x427 JUMPI PUSH2 0x426 PUSH2 0x5D5 JUMP JUMPDEST JUMPDEST PUSH1 0x0 PUSH2 0x435 DUP6 DUP3 DUP7 ADD PUSH2 0x38C JUMP JUMPDEST SWAP3 POP POP PUSH1 0x20 PUSH2 0x446 DUP6 DUP3 DUP7 ADD PUSH2 0x3A1 JUMP JUMPDEST SWAP2 POP POP SWAP3 POP SWAP3 SWAP1 POP JUMP JUMPDEST PUSH1 0x0 PUSH2 0x45D PUSH1 0x14 DUP4 PUSH2 0x4BD JUMP JUMPDEST SWAP2 POP PUSH2 0x468 DUP3 PUSH2 0x5DA JUMP JUMPDEST PUSH1 0x20 DUP3 ADD SWAP1 POP SWAP2 SWAP1 POP JUMP JUMPDEST PUSH2 0x47C DUP2 PUSH2 0x59C JUMP JUMPDEST DUP3 MSTORE POP POP JUMP JUMPDEST PUSH1 0x0 PUSH1 0x20 DUP3 ADD SWAP1 POP DUP2 DUP2 SUB PUSH1 0x0 DUP4 ADD MSTORE PUSH2 0x49B DUP2 PUSH2 0x450 JUMP JUMPDEST SWAP1 POP SWAP2 SWAP1 POP JUMP JUMPDEST PUSH1 0x0 PUSH1 0x20 DUP3 ADD SWAP1 POP PUSH2 0x4B7 PUSH1 0x0 DUP4 ADD DUP5 PUSH2 0x473 JUMP JUMPDEST SWAP3 SWAP2 POP POP JUMP JUMPDEST PUSH1 0x0 DUP3 DUP3 MSTORE PUSH1 0x20 DUP3 ADD SWAP1 POP SWAP3 SWAP2 POP POP JUMP JUMPDEST PUSH1 0x0 PUSH2 0x4D9 DUP3 PUSH2 0x59C JUMP JUMPDEST SWAP2 POP PUSH2 0x4E4 DUP4 PUSH2 0x59C JUMP JUMPDEST SWAP3 POP DUP3 PUSH32 0xFFFFFFFFFFFFFFFFFFFFFFFFFFFFFFFFFFFFFFFFFFFFFFFFFFFFFFFFFFFFFFFF SUB DUP3 GT ISZERO PUSH2 0x519 JUMPI PUSH2 0x518 PUSH2 0x5A6 JUMP JUMPDEST JUMPDEST DUP3 DUP3 ADD SWAP1 POP SWAP3 SWAP2 POP POP JUMP JUMPDEST PUSH1 0x0 PUSH2 0x52F DUP3 PUSH2 0x59C JUMP JUMPDEST SWAP2 POP PUSH2 0x53A DUP4 PUSH2 0x59C JUMP JUMPDEST SWAP3 POP DUP3 DUP3 LT ISZERO PUSH2 0x54D JUMPI PUSH2 0x54C PUSH2 0x5A6 JUMP JUMPDEST JUMPDEST DUP3 DUP3 SUB SWAP1 POP SWAP3 SWAP2 POP POP JUMP JUMPDEST PUSH1 0x0 PUSH2 0x563 DUP3 PUSH2 0x57C JUMP JUMPDEST SWAP1 POP SWAP2 SWAP1 POP JUMP JUMPDEST PUSH1 0x0 PUSH2 0x575 DUP3 PUSH2 0x57C JUMP JUMPDEST SWAP1 POP SWAP2 SWAP1 POP JUMP JUMPDEST PUSH1 0x0 PUSH20 0xFFFFFFFFFFFFFFFFFFFFFFFFFFFFFFFFFFFFFFFF DUP3 AND SWAP1 POP SWAP2 SWAP1 POP JUMP JUMPDEST PUSH1 0x0 DUP2 SWAP1 POP SWAP2 SWAP1 POP JUMP JUMPDEST PUSH32 0x4E487B7100000000000000000000000000000000000000000000000000000000 PUSH1 0x0 MSTORE PUSH1 0x11 PUSH1 0x4 MSTORE PUSH1 0x24 PUSH1 0x0 REVERT JUMPDEST PUSH1 0x0 DUP1 REVERT JUMPDEST PUSH32 0x4E6F742073756666696369656E742066756E6473000000000000000000000000 PUSH1 0x0 DUP3 ADD MSTORE POP JUMP JUMPDEST PUSH2 0x60C DUP2 PUSH2 0x558 JUMP JUMPDEST DUP2 EQ PUSH2 0x617 JUMPI PUSH1 0x0 DUP1 REVERT JUMPDEST POP JUMP JUMPDEST PUSH2 0x623 DUP2 PUSH2 0x56A JUMP JUMPDEST DUP2 EQ PUSH2 0x62E JUMPI PUSH1 0x0 DUP1 REVERT JUMPDEST POP JUMP JUMPDEST PUSH2 0x63A DUP2 PUSH2 0x59C JUMP JUMPDEST DUP2 EQ PUSH2 0x645 JUMPI PUSH1 0x0 DUP1 REVERT JUMPDEST POP JUMP INVALID LOG2 PUSH5 0x6970667358 0x22 SLT KECCAK256 GAS 0xCD 0xC0 0xA9 DUP3 PUSH13 0xBC0948962D20D8BA0281FA7ADC PUSH24 0x35067EED266FECAB6EC1FBC064736F6C6343000807003300 "
				},
				"gasEstimates": {
					"creation": {
						"codeDepositCost": "332400",
						"executionCost": "368",
						"totalCost": "332768"
					},
					"external": {
						"balanceReceived(address)": "2858",
						"getBalance()": "339",
						"sendMoney()": "infinite",
						"withdrawAllMoney(address)": "infinite",
						"withdrawMoney(address,uint256)": "infinite"
					}
				},
				"methodIdentifiers": {
					"balanceReceived(address)": "d18a42e1",
					"getBalance()": "12065fe0",
					"sendMoney()": "cbedbf5a",
					"withdrawAllMoney(address)": "0adec93c",
					"withdrawMoney(address,uint256)": "f274c897"
				}
			},
			"storageLayout": {
				"storage": [
					{
						"astId": 5,
						"contract": "contracts/basics/06-MappingStructsExample.sol:MappingStructsExample",
						"label": "balanceReceived",
						"offset": 0,
						"slot": "0",
						"type": "t_mapping(t_address,t_uint256)"
					}
				],
				"types": {
					"t_address": {
						"encoding": "inplace",
						"label": "address",
						"numberOfBytes": "20"
					},
					"t_mapping(t_address,t_uint256)": {
						"encoding": "mapping",
						"key": "t_address",
						"label": "mapping(address => uint256)",
						"numberOfBytes": "32",
						"value": "t_uint256"
					},
					"t_uint256": {
						"encoding": "inplace",
						"label": "uint256",
						"numberOfBytes": "32"
					}
				}
			},
			"userdoc": {
				"kind": "user",
				"methods": {},
				"version": 1
			}
		}
	}
}