{
	"contracts/basics/07-ExceptionHandlingExample.sol": {
		"ExceptionHandlingExample": {
			"abi": [
				{
					"inputs": [],
					"name": "receiveMoney",
					"outputs": [],
					"stateMutability": "payable",
					"type": "function"
				},
				{
					"inputs": [
						{
							"internalType": "address payable",
							"name": "_to",
							"type": "address"
						},
						{
							"internalType": "uint256",
							"name": "_amount",
							"type": "uint256"
						}
					],
					"name": "withdrawMoney",
					"outputs": [],
					"stateMutability": "nonpayable",
					"type": "function"
				}
			],
			"devdoc": {
				"kind": "dev",
				"methods": {},
				"version": 1
			},
			"evm": {
				"assembly": "    /* \"contracts/basics/07-ExceptionHandlingExample.sol\":55:485  contract ExceptionHandlingExample{\r... */\n  mstore(0x40, 0x80)\n  callvalue\n  dup1\n  iszero\n  tag_1\n  jumpi\n  0x00\n  dup1\n  revert\ntag_1:\n  pop\n  dataSize(sub_0)\n  dup1\n  dataOffset(sub_0)\n  0x00\n  codecopy\n  0x00\n  return\nstop\n\nsub_0: assembly {\n        /* \"contracts/basics/07-ExceptionHandlingExample.sol\":55:485  contract ExceptionHandlingExample{\r... */\n      mstore(0x40, 0x80)\n      jumpi(tag_1, lt(calldatasize, 0x04))\n      shr(0xe0, calldataload(0x00))\n      dup1\n      0x6d26ec18\n      eq\n      tag_2\n      jumpi\n      dup1\n      0xf274c897\n      eq\n      tag_3\n      jumpi\n    tag_1:\n      0x00\n      dup1\n      revert\n        /* \"contracts/basics/07-ExceptionHandlingExample.sol\":143:238  function receiveMoney() payable public{\r... */\n    tag_2:\n      tag_4\n      tag_5\n      jump\t// in\n    tag_4:\n      stop\n        /* \"contracts/basics/07-ExceptionHandlingExample.sol\":246:482  function withdrawMoney(address payable _to, uint _amount) public{\r... */\n    tag_3:\n      callvalue\n      dup1\n      iszero\n      tag_6\n      jumpi\n      0x00\n      dup1\n      revert\n    tag_6:\n      pop\n      tag_7\n      0x04\n      dup1\n      calldatasize\n      sub\n      dup2\n      add\n      swap1\n      tag_8\n      swap2\n      swap1\n      tag_9\n      jump\t// in\n    tag_8:\n      tag_10\n      jump\t// in\n    tag_7:\n      stop\n        /* \"contracts/basics/07-ExceptionHandlingExample.sol\":143:238  function receiveMoney() payable public{\r... */\n    tag_5:\n        /* \"contracts/basics/07-ExceptionHandlingExample.sol\":221:230  msg.value */\n      callvalue\n        /* \"contracts/basics/07-ExceptionHandlingExample.sol\":192:207  balanceReceived */\n      0x00\n        /* \"contracts/basics/07-ExceptionHandlingExample.sol\":192:219  balanceReceived[msg.sender] */\n      dup1\n        /* \"contracts/basics/07-ExceptionHandlingExample.sol\":208:218  msg.sender */\n      caller\n        /* \"contracts/basics/07-ExceptionHandlingExample.sol\":192:219  balanceReceived[msg.sender] */\n      0xffffffffffffffffffffffffffffffffffffffff\n      and\n      0xffffffffffffffffffffffffffffffffffffffff\n      and\n      dup2\n      mstore\n      0x20\n      add\n      swap1\n      dup2\n      mstore\n      0x20\n      add\n      0x00\n      keccak256\n      0x00\n        /* \"contracts/basics/07-ExceptionHandlingExample.sol\":192:230  balanceReceived[msg.sender]+=msg.value */\n      dup3\n      dup3\n      sload\n      tag_12\n      swap2\n      swap1\n      tag_13\n      jump\t// in\n    tag_12:\n      swap3\n      pop\n      pop\n      dup2\n      swap1\n      sstore\n      pop\n        /* \"contracts/basics/07-ExceptionHandlingExample.sol\":143:238  function receiveMoney() payable public{\r... */\n      jump\t// out\n        /* \"contracts/basics/07-ExceptionHandlingExample.sol\":246:482  function withdrawMoney(address payable _to, uint _amount) public{\r... */\n    tag_10:\n        /* \"contracts/basics/07-ExceptionHandlingExample.sol\":337:352  balanceReceived */\n      0x00\n        /* \"contracts/basics/07-ExceptionHandlingExample.sol\":337:364  balanceReceived[msg.sender] */\n      dup1\n        /* \"contracts/basics/07-ExceptionHandlingExample.sol\":353:363  msg.sender */\n      caller\n        /* \"contracts/basics/07-ExceptionHandlingExample.sol\":337:364  balanceReceived[msg.sender] */\n      0xffffffffffffffffffffffffffffffffffffffff\n      and\n      0xffffffffffffffffffffffffffffffffffffffff\n      and\n      dup2\n      mstore\n      0x20\n      add\n      swap1\n      dup2\n      mstore\n      0x20\n      add\n      0x00\n      keccak256\n      sload\n        /* \"contracts/basics/07-ExceptionHandlingExample.sol\":328:335  _amount */\n      dup2\n        /* \"contracts/basics/07-ExceptionHandlingExample.sol\":328:364  _amount<=balanceReceived[msg.sender] */\n      gt\n      iszero\n        /* \"contracts/basics/07-ExceptionHandlingExample.sol\":320:375  require(_amount<=balanceReceived[msg.sender],'You don') */\n      tag_15\n      jumpi\n      mload(0x40)\n      0x08c379a000000000000000000000000000000000000000000000000000000000\n      dup2\n      mstore\n      0x04\n      add\n      tag_16\n      swap1\n      tag_17\n      jump\t// in\n    tag_16:\n      mload(0x40)\n      dup1\n      swap2\n      sub\n      swap1\n      revert\n    tag_15:\n        /* \"contracts/basics/07-ExceptionHandlingExample.sol\":421:428  _amount */\n      dup1\n        /* \"contracts/basics/07-ExceptionHandlingExample.sol\":390:405  balanceReceived */\n      0x00\n        /* \"contracts/basics/07-ExceptionHandlingExample.sol\":390:417  balanceReceived[msg.sender] */\n      dup1\n        /* \"contracts/basics/07-ExceptionHandlingExample.sol\":406:416  msg.sender */\n      caller\n        /* \"contracts/basics/07-ExceptionHandlingExample.sol\":390:417  balanceReceived[msg.sender] */\n      0xffffffffffffffffffffffffffffffffffffffff\n      and\n      0xffffffffffffffffffffffffffffffffffffffff\n      and\n      dup2\n      mstore\n      0x20\n      add\n      swap1\n      dup2\n      mstore\n      0x20\n      add\n      0x00\n      keccak256\n      0x00\n        /* \"contracts/basics/07-ExceptionHandlingExample.sol\":390:428  balanceReceived[msg.sender] -= _amount */\n      dup3\n      dup3\n      sload\n      tag_18\n      swap2\n      swap1\n      tag_19\n      jump\t// in\n    tag_18:\n      swap3\n      pop\n      pop\n      dup2\n      swap1\n      sstore\n      pop\n        /* \"contracts/basics/07-ExceptionHandlingExample.sol\":443:446  _to */\n      dup2\n        /* \"contracts/basics/07-ExceptionHandlingExample.sol\":443:455  _to.transfer */\n      0xffffffffffffffffffffffffffffffffffffffff\n      and\n        /* \"contracts/basics/07-ExceptionHandlingExample.sol\":443:464  _to.transfer(_amount) */\n      0x08fc\n        /* \"contracts/basics/07-ExceptionHandlingExample.sol\":456:463  _amount */\n      dup3\n        /* \"contracts/basics/07-ExceptionHandlingExample.sol\":443:464  _to.transfer(_amount) */\n      swap1\n      dup2\n      iszero\n      mul\n      swap1\n      mload(0x40)\n      0x00\n      mload(0x40)\n      dup1\n      dup4\n      sub\n      dup2\n      dup6\n      dup9\n      dup9\n      call\n      swap4\n      pop\n      pop\n      pop\n      pop\n      iszero\n      dup1\n      iszero\n      tag_21\n      jumpi\n      returndatasize\n      0x00\n      dup1\n      returndatacopy\n      revert(0x00, returndatasize)\n    tag_21:\n      pop\n        /* \"contracts/basics/07-ExceptionHandlingExample.sol\":246:482  function withdrawMoney(address payable _to, uint _amount) public{\r... */\n      pop\n      pop\n      jump\t// out\n        /* \"#utility.yul\":7:162   */\n    tag_23:\n        /* \"#utility.yul\":61:66   */\n      0x00\n        /* \"#utility.yul\":99:105   */\n      dup2\n        /* \"#utility.yul\":86:106   */\n      calldataload\n        /* \"#utility.yul\":77:106   */\n      swap1\n      pop\n        /* \"#utility.yul\":115:156   */\n      tag_25\n        /* \"#utility.yul\":150:155   */\n      dup2\n        /* \"#utility.yul\":115:156   */\n      tag_26\n      jump\t// in\n    tag_25:\n        /* \"#utility.yul\":7:162   */\n      swap3\n      swap2\n      pop\n      pop\n      jump\t// out\n        /* \"#utility.yul\":168:307   */\n    tag_27:\n        /* \"#utility.yul\":214:219   */\n      0x00\n        /* \"#utility.yul\":252:258   */\n      dup2\n        /* \"#utility.yul\":239:259   */\n      calldataload\n        /* \"#utility.yul\":230:259   */\n      swap1\n      pop\n        /* \"#utility.yul\":268:301   */\n      tag_29\n        /* \"#utility.yul\":295:300   */\n      dup2\n        /* \"#utility.yul\":268:301   */\n      tag_30\n      jump\t// in\n    tag_29:\n        /* \"#utility.yul\":168:307   */\n      swap3\n      swap2\n      pop\n      pop\n      jump\t// out\n        /* \"#utility.yul\":313:803   */\n    tag_9:\n        /* \"#utility.yul\":389:395   */\n      0x00\n        /* \"#utility.yul\":397:403   */\n      dup1\n        /* \"#utility.yul\":446:448   */\n      0x40\n        /* \"#utility.yul\":434:443   */\n      dup4\n        /* \"#utility.yul\":425:432   */\n      dup6\n        /* \"#utility.yul\":421:444   */\n      sub\n        /* \"#utility.yul\":417:449   */\n      slt\n        /* \"#utility.yul\":414:533   */\n      iszero\n      tag_32\n      jumpi\n        /* \"#utility.yul\":452:531   */\n      tag_33\n      tag_34\n      jump\t// in\n    tag_33:\n        /* \"#utility.yul\":414:533   */\n    tag_32:\n        /* \"#utility.yul\":572:573   */\n      0x00\n        /* \"#utility.yul\":597:658   */\n      tag_35\n        /* \"#utility.yul\":650:657   */\n      dup6\n        /* \"#utility.yul\":641:647   */\n      dup3\n        /* \"#utility.yul\":630:639   */\n      dup7\n        /* \"#utility.yul\":626:648   */\n      add\n        /* \"#utility.yul\":597:658   */\n      tag_23\n      jump\t// in\n    tag_35:\n        /* \"#utility.yul\":587:658   */\n      swap3\n      pop\n        /* \"#utility.yul\":543:668   */\n      pop\n        /* \"#utility.yul\":707:709   */\n      0x20\n        /* \"#utility.yul\":733:786   */\n      tag_36\n        /* \"#utility.yul\":778:785   */\n      dup6\n        /* \"#utility.yul\":769:775   */\n      dup3\n        /* \"#utility.yul\":758:767   */\n      dup7\n        /* \"#utility.yul\":754:776   */\n      add\n        /* \"#utility.yul\":733:786   */\n      tag_27\n      jump\t// in\n    tag_36:\n        /* \"#utility.yul\":723:786   */\n      swap2\n      pop\n        /* \"#utility.yul\":678:796   */\n      pop\n        /* \"#utility.yul\":313:803   */\n      swap3\n      pop\n      swap3\n      swap1\n      pop\n      jump\t// out\n        /* \"#utility.yul\":809:1174   */\n    tag_37:\n        /* \"#utility.yul\":951:954   */\n      0x00\n        /* \"#utility.yul\":972:1038   */\n      tag_39\n        /* \"#utility.yul\":1036:1037   */\n      0x07\n        /* \"#utility.yul\":1031:1034   */\n      dup4\n        /* \"#utility.yul\":972:1038   */\n      tag_40\n      jump\t// in\n    tag_39:\n        /* \"#utility.yul\":965:1038   */\n      swap2\n      pop\n        /* \"#utility.yul\":1047:1140   */\n      tag_41\n        /* \"#utility.yul\":1136:1139   */\n      dup3\n        /* \"#utility.yul\":1047:1140   */\n      tag_42\n      jump\t// in\n    tag_41:\n        /* \"#utility.yul\":1165:1167   */\n      0x20\n        /* \"#utility.yul\":1160:1163   */\n      dup3\n        /* \"#utility.yul\":1156:1168   */\n      add\n        /* \"#utility.yul\":1149:1168   */\n      swap1\n      pop\n        /* \"#utility.yul\":809:1174   */\n      swap2\n      swap1\n      pop\n      jump\t// out\n        /* \"#utility.yul\":1180:1599   */\n    tag_17:\n        /* \"#utility.yul\":1346:1350   */\n      0x00\n        /* \"#utility.yul\":1384:1386   */\n      0x20\n        /* \"#utility.yul\":1373:1382   */\n      dup3\n        /* \"#utility.yul\":1369:1387   */\n      add\n        /* \"#utility.yul\":1361:1387   */\n      swap1\n      pop\n        /* \"#utility.yul\":1433:1442   */\n      dup2\n        /* \"#utility.yul\":1427:1431   */\n      dup2\n        /* \"#utility.yul\":1423:1443   */\n      sub\n        /* \"#utility.yul\":1419:1420   */\n      0x00\n        /* \"#utility.yul\":1408:1417   */\n      dup4\n        /* \"#utility.yul\":1404:1421   */\n      add\n        /* \"#utility.yul\":1397:1444   */\n      mstore\n        /* \"#utility.yul\":1461:1592   */\n      tag_44\n        /* \"#utility.yul\":1587:1591   */\n      dup2\n        /* \"#utility.yul\":1461:1592   */\n      tag_37\n      jump\t// in\n    tag_44:\n        /* \"#utility.yul\":1453:1592   */\n      swap1\n      pop\n        /* \"#utility.yul\":1180:1599   */\n      swap2\n      swap1\n      pop\n      jump\t// out\n        /* \"#utility.yul\":1686:1855   */\n    tag_40:\n        /* \"#utility.yul\":1770:1781   */\n      0x00\n        /* \"#utility.yul\":1804:1810   */\n      dup3\n        /* \"#utility.yul\":1799:1802   */\n      dup3\n        /* \"#utility.yul\":1792:1811   */\n      mstore\n        /* \"#utility.yul\":1844:1848   */\n      0x20\n        /* \"#utility.yul\":1839:1842   */\n      dup3\n        /* \"#utility.yul\":1835:1849   */\n      add\n        /* \"#utility.yul\":1820:1849   */\n      swap1\n      pop\n        /* \"#utility.yul\":1686:1855   */\n      swap3\n      swap2\n      pop\n      pop\n      jump\t// out\n        /* \"#utility.yul\":1861:2166   */\n    tag_13:\n        /* \"#utility.yul\":1901:1904   */\n      0x00\n        /* \"#utility.yul\":1920:1940   */\n      tag_49\n        /* \"#utility.yul\":1938:1939   */\n      dup3\n        /* \"#utility.yul\":1920:1940   */\n      tag_50\n      jump\t// in\n    tag_49:\n        /* \"#utility.yul\":1915:1940   */\n      swap2\n      pop\n        /* \"#utility.yul\":1954:1974   */\n      tag_51\n        /* \"#utility.yul\":1972:1973   */\n      dup4\n        /* \"#utility.yul\":1954:1974   */\n      tag_50\n      jump\t// in\n    tag_51:\n        /* \"#utility.yul\":1949:1974   */\n      swap3\n      pop\n        /* \"#utility.yul\":2108:2109   */\n      dup3\n        /* \"#utility.yul\":2040:2106   */\n      0xffffffffffffffffffffffffffffffffffffffffffffffffffffffffffffffff\n        /* \"#utility.yul\":2036:2110   */\n      sub\n        /* \"#utility.yul\":2033:2034   */\n      dup3\n        /* \"#utility.yul\":2030:2111   */\n      gt\n        /* \"#utility.yul\":2027:2134   */\n      iszero\n      tag_52\n      jumpi\n        /* \"#utility.yul\":2114:2132   */\n      tag_53\n      tag_54\n      jump\t// in\n    tag_53:\n        /* \"#utility.yul\":2027:2134   */\n    tag_52:\n        /* \"#utility.yul\":2158:2159   */\n      dup3\n        /* \"#utility.yul\":2155:2156   */\n      dup3\n        /* \"#utility.yul\":2151:2160   */\n      add\n        /* \"#utility.yul\":2144:2160   */\n      swap1\n      pop\n        /* \"#utility.yul\":1861:2166   */\n      swap3\n      swap2\n      pop\n      pop\n      jump\t// out\n        /* \"#utility.yul\":2172:2363   */\n    tag_19:\n        /* \"#utility.yul\":2212:2216   */\n      0x00\n        /* \"#utility.yul\":2232:2252   */\n      tag_56\n        /* \"#utility.yul\":2250:2251   */\n      dup3\n        /* \"#utility.yul\":2232:2252   */\n      tag_50\n      jump\t// in\n    tag_56:\n        /* \"#utility.yul\":2227:2252   */\n      swap2\n      pop\n        /* \"#utility.yul\":2266:2286   */\n      tag_57\n        /* \"#utility.yul\":2284:2285   */\n      dup4\n        /* \"#utility.yul\":2266:2286   */\n      tag_50\n      jump\t// in\n    tag_57:\n        /* \"#utility.yul\":2261:2286   */\n      swap3\n      pop\n        /* \"#utility.yul\":2305:2306   */\n      dup3\n        /* \"#utility.yul\":2302:2303   */\n      dup3\n        /* \"#utility.yul\":2299:2307   */\n      lt\n        /* \"#utility.yul\":2296:2330   */\n      iszero\n      tag_58\n      jumpi\n        /* \"#utility.yul\":2310:2328   */\n      tag_59\n      tag_54\n      jump\t// in\n    tag_59:\n        /* \"#utility.yul\":2296:2330   */\n    tag_58:\n        /* \"#utility.yul\":2355:2356   */\n      dup3\n        /* \"#utility.yul\":2352:2353   */\n      dup3\n        /* \"#utility.yul\":2348:2357   */\n      sub\n        /* \"#utility.yul\":2340:2357   */\n      swap1\n      pop\n        /* \"#utility.yul\":2172:2363   */\n      swap3\n      swap2\n      pop\n      pop\n      jump\t// out\n        /* \"#utility.yul\":2369:2473   */\n    tag_60:\n        /* \"#utility.yul\":2414:2421   */\n      0x00\n        /* \"#utility.yul\":2443:2467   */\n      tag_62\n        /* \"#utility.yul\":2461:2466   */\n      dup3\n        /* \"#utility.yul\":2443:2467   */\n      tag_63\n      jump\t// in\n    tag_62:\n        /* \"#utility.yul\":2432:2467   */\n      swap1\n      pop\n        /* \"#utility.yul\":2369:2473   */\n      swap2\n      swap1\n      pop\n      jump\t// out\n        /* \"#utility.yul\":2479:2605   */\n    tag_63:\n        /* \"#utility.yul\":2516:2523   */\n      0x00\n        /* \"#utility.yul\":2556:2598   */\n      0xffffffffffffffffffffffffffffffffffffffff\n        /* \"#utility.yul\":2549:2554   */\n      dup3\n        /* \"#utility.yul\":2545:2599   */\n      and\n        /* \"#utility.yul\":2534:2599   */\n      swap1\n      pop\n        /* \"#utility.yul\":2479:2605   */\n      swap2\n      swap1\n      pop\n      jump\t// out\n        /* \"#utility.yul\":2611:2688   */\n    tag_50:\n        /* \"#utility.yul\":2648:2655   */\n      0x00\n        /* \"#utility.yul\":2677:2682   */\n      dup2\n        /* \"#utility.yul\":2666:2682   */\n      swap1\n      pop\n        /* \"#utility.yul\":2611:2688   */\n      swap2\n      swap1\n      pop\n      jump\t// out\n        /* \"#utility.yul\":2694:2874   */\n    tag_54:\n        /* \"#utility.yul\":2742:2819   */\n      0x4e487b7100000000000000000000000000000000000000000000000000000000\n        /* \"#utility.yul\":2739:2740   */\n      0x00\n        /* \"#utility.yul\":2732:2820   */\n      mstore\n        /* \"#utility.yul\":2839:2843   */\n      0x11\n        /* \"#utility.yul\":2836:2837   */\n      0x04\n        /* \"#utility.yul\":2829:2844   */\n      mstore\n        /* \"#utility.yul\":2863:2867   */\n      0x24\n        /* \"#utility.yul\":2860:2861   */\n      0x00\n        /* \"#utility.yul\":2853:2868   */\n      revert\n        /* \"#utility.yul\":3003:3120   */\n    tag_34:\n        /* \"#utility.yul\":3112:3113   */\n      0x00\n        /* \"#utility.yul\":3109:3110   */\n      dup1\n        /* \"#utility.yul\":3102:3114   */\n      revert\n        /* \"#utility.yul\":3126:3283   */\n    tag_42:\n        /* \"#utility.yul\":3266:3275   */\n      0x596f7520646f6e00000000000000000000000000000000000000000000000000\n        /* \"#utility.yul\":3262:3263   */\n      0x00\n        /* \"#utility.yul\":3254:3260   */\n      dup3\n        /* \"#utility.yul\":3250:3264   */\n      add\n        /* \"#utility.yul\":3243:3276   */\n      mstore\n        /* \"#utility.yul\":3126:3283   */\n      pop\n      jump\t// out\n        /* \"#utility.yul\":3289:3427   */\n    tag_26:\n        /* \"#utility.yul\":3370:3402   */\n      tag_72\n        /* \"#utility.yul\":3396:3401   */\n      dup2\n        /* \"#utility.yul\":3370:3402   */\n      tag_60\n      jump\t// in\n    tag_72:\n        /* \"#utility.yul\":3363:3368   */\n      dup2\n        /* \"#utility.yul\":3360:3403   */\n      eq\n        /* \"#utility.yul\":3350:3421   */\n      tag_73\n      jumpi\n        /* \"#utility.yul\":3417:3418   */\n      0x00\n        /* \"#utility.yul\":3414:3415   */\n      dup1\n        /* \"#utility.yul\":3407:3419   */\n      revert\n        /* \"#utility.yul\":3350:3421   */\n    tag_73:\n        /* \"#utility.yul\":3289:3427   */\n      pop\n      jump\t// out\n        /* \"#utility.yul\":3433:3555   */\n    tag_30:\n        /* \"#utility.yul\":3506:3530   */\n      tag_75\n        /* \"#utility.yul\":3524:3529   */\n      dup2\n        /* \"#utility.yul\":3506:3530   */\n      tag_50\n      jump\t// in\n    tag_75:\n        /* \"#utility.yul\":3499:3504   */\n      dup2\n        /* \"#utility.yul\":3496:3531   */\n      eq\n        /* \"#utility.yul\":3486:3549   */\n      tag_76\n      jumpi\n        /* \"#utility.yul\":3545:3546   */\n      0x00\n        /* \"#utility.yul\":3542:3543   */\n      dup1\n        /* \"#utility.yul\":3535:3547   */\n      revert\n        /* \"#utility.yul\":3486:3549   */\n    tag_76:\n        /* \"#utility.yul\":3433:3555   */\n      pop\n      jump\t// out\n\n    auxdata: 0xa2646970667358221220c3d658f28542fea233f3f189b3a47de8e73404697224151baa8a3afcf4aa180664736f6c63430008070033\n}\n",
				"bytecode": {
					"linkReferences": {},
					"object": "608060405234801561001057600080fd5b5061041e806100206000396000f3fe6080604052600436106100295760003560e01c80636d26ec181461002e578063f274c89714610038575b600080fd5b610036610061565b005b34801561004457600080fd5b5061005f600480360381019061005a9190610203565b6100b8565b005b346000803373ffffffffffffffffffffffffffffffffffffffff1673ffffffffffffffffffffffffffffffffffffffff16815260200190815260200160002060008282546100af9190610297565b92505081905550565b6000803373ffffffffffffffffffffffffffffffffffffffff1673ffffffffffffffffffffffffffffffffffffffff16815260200190815260200160002054811115610139576040517f08c379a000000000000000000000000000000000000000000000000000000000815260040161013090610266565b60405180910390fd5b806000803373ffffffffffffffffffffffffffffffffffffffff1673ffffffffffffffffffffffffffffffffffffffff168152602001908152602001600020600082825461018791906102ed565b925050819055508173ffffffffffffffffffffffffffffffffffffffff166108fc829081150290604051600060405180830381858888f193505050501580156101d4573d6000803e3d6000fd5b505050565b6000813590506101e8816103ba565b92915050565b6000813590506101fd816103d1565b92915050565b6000806040838503121561021a5761021961038c565b5b6000610228858286016101d9565b9250506020610239858286016101ee565b9150509250929050565b6000610250600783610286565b915061025b82610391565b602082019050919050565b6000602082019050818103600083015261027f81610243565b9050919050565b600082825260208201905092915050565b60006102a282610353565b91506102ad83610353565b9250827fffffffffffffffffffffffffffffffffffffffffffffffffffffffffffffffff038211156102e2576102e161035d565b5b828201905092915050565b60006102f882610353565b915061030383610353565b9250828210156103165761031561035d565b5b828203905092915050565b600061032c82610333565b9050919050565b600073ffffffffffffffffffffffffffffffffffffffff82169050919050565b6000819050919050565b7f4e487b7100000000000000000000000000000000000000000000000000000000600052601160045260246000fd5b600080fd5b7f596f7520646f6e00000000000000000000000000000000000000000000000000600082015250565b6103c381610321565b81146103ce57600080fd5b50565b6103da81610353565b81146103e557600080fd5b5056fea2646970667358221220c3d658f28542fea233f3f189b3a47de8e73404697224151baa8a3afcf4aa180664736f6c63430008070033",
					"opcodes": "PUSH1 0x80 PUSH1 0x40 MSTORE CALLVALUE DUP1 ISZERO PUSH2 0x10 JUMPI PUSH1 0x0 DUP1 REVERT JUMPDEST POP PUSH2 0x41E DUP1 PUSH2 0x20 PUSH1 0x0 CODECOPY PUSH1 0x0 RETURN INVALID PUSH1 0x80 PUSH1 0x40 MSTORE PUSH1 0x4 CALLDATASIZE LT PUSH2 0x29 JUMPI PUSH1 0x0 CALLDATALOAD PUSH1 0xE0 SHR DUP1 PUSH4 0x6D26EC18 EQ PUSH2 0x2E JUMPI DUP1 PUSH4 0xF274C897 EQ PUSH2 0x38 JUMPI JUMPDEST PUSH1 0x0 DUP1 REVERT JUMPDEST PUSH2 0x36 PUSH2 0x61 JUMP JUMPDEST STOP JUMPDEST CALLVALUE DUP1 ISZERO PUSH2 0x44 JUMPI PUSH1 0x0 DUP1 REVERT JUMPDEST POP PUSH2 0x5F PUSH1 0x4 DUP1 CALLDATASIZE SUB DUP2 ADD SWAP1 PUSH2 0x5A SWAP2 SWAP1 PUSH2 0x203 JUMP JUMPDEST PUSH2 0xB8 JUMP JUMPDEST STOP JUMPDEST CALLVALUE PUSH1 0x0 DUP1 CALLER PUSH20 0xFFFFFFFFFFFFFFFFFFFFFFFFFFFFFFFFFFFFFFFF AND PUSH20 0xFFFFFFFFFFFFFFFFFFFFFFFFFFFFFFFFFFFFFFFF AND DUP2 MSTORE PUSH1 0x20 ADD SWAP1 DUP2 MSTORE PUSH1 0x20 ADD PUSH1 0x0 KECCAK256 PUSH1 0x0 DUP3 DUP3 SLOAD PUSH2 0xAF SWAP2 SWAP1 PUSH2 0x297 JUMP JUMPDEST SWAP3 POP POP DUP2 SWAP1 SSTORE POP JUMP JUMPDEST PUSH1 0x0 DUP1 CALLER PUSH20 0xFFFFFFFFFFFFFFFFFFFFFFFFFFFFFFFFFFFFFFFF AND PUSH20 0xFFFFFFFFFFFFFFFFFFFFFFFFFFFFFFFFFFFFFFFF AND DUP2 MSTORE PUSH1 0x20 ADD SWAP1 DUP2 MSTORE PUSH1 0x20 ADD PUSH1 0x0 KECCAK256 SLOAD DUP2 GT ISZERO PUSH2 0x139 JUMPI PUSH1 0x40 MLOAD PUSH32 0x8C379A000000000000000000000000000000000000000000000000000000000 DUP2 MSTORE PUSH1 0x4 ADD PUSH2 0x130 SWAP1 PUSH2 0x266 JUMP JUMPDEST PUSH1 0x40 MLOAD DUP1 SWAP2 SUB SWAP1 REVERT JUMPDEST DUP1 PUSH1 0x0 DUP1 CALLER PUSH20 0xFFFFFFFFFFFFFFFFFFFFFFFFFFFFFFFFFFFFFFFF AND PUSH20 0xFFFFFFFFFFFFFFFFFFFFFFFFFFFFFFFFFFFFFFFF AND DUP2 MSTORE PUSH1 0x20 ADD SWAP1 DUP2 MSTORE PUSH1 0x20 ADD PUSH1 0x0 KECCAK256 PUSH1 0x0 DUP3 DUP3 SLOAD PUSH2 0x187 SWAP2 SWAP1 PUSH2 0x2ED JUMP JUMPDEST SWAP3 POP POP DUP2 SWAP1 SSTORE POP DUP2 PUSH20 0xFFFFFFFFFFFFFFFFFFFFFFFFFFFFFFFFFFFFFFFF AND PUSH2 0x8FC DUP3 SWAP1 DUP2 ISZERO MUL SWAP1 PUSH1 0x40 MLOAD PUSH1 0x0 PUSH1 0x40 MLOAD DUP1 DUP4 SUB DUP2 DUP6 DUP9 DUP9 CALL SWAP4 POP POP POP POP ISZERO DUP1 ISZERO PUSH2 0x1D4 JUMPI RETURNDATASIZE PUSH1 0x0 DUP1 RETURNDATACOPY RETURNDATASIZE PUSH1 0x0 REVERT JUMPDEST POP POP POP JUMP JUMPDEST PUSH1 0x0 DUP2 CALLDATALOAD SWAP1 POP PUSH2 0x1E8 DUP2 PUSH2 0x3BA JUMP JUMPDEST SWAP3 SWAP2 POP POP JUMP JUMPDEST PUSH1 0x0 DUP2 CALLDATALOAD SWAP1 POP PUSH2 0x1FD DUP2 PUSH2 0x3D1 JUMP JUMPDEST SWAP3 SWAP2 POP POP JUMP JUMPDEST PUSH1 0x0 DUP1 PUSH1 0x40 DUP4 DUP6 SUB SLT ISZERO PUSH2 0x21A JUMPI PUSH2 0x219 PUSH2 0x38C JUMP JUMPDEST JUMPDEST PUSH1 0x0 PUSH2 0x228 DUP6 DUP3 DUP7 ADD PUSH2 0x1D9 JUMP JUMPDEST SWAP3 POP POP PUSH1 0x20 PUSH2 0x239 DUP6 DUP3 DUP7 ADD PUSH2 0x1EE JUMP JUMPDEST SWAP2 POP POP SWAP3 POP SWAP3 SWAP1 POP JUMP JUMPDEST PUSH1 0x0 PUSH2 0x250 PUSH1 0x7 DUP4 PUSH2 0x286 JUMP JUMPDEST SWAP2 POP PUSH2 0x25B DUP3 PUSH2 0x391 JUMP JUMPDEST PUSH1 0x20 DUP3 ADD SWAP1 POP SWAP2 SWAP1 POP JUMP JUMPDEST PUSH1 0x0 PUSH1 0x20 DUP3 ADD SWAP1 POP DUP2 DUP2 SUB PUSH1 0x0 DUP4 ADD MSTORE PUSH2 0x27F DUP2 PUSH2 0x243 JUMP JUMPDEST SWAP1 POP SWAP2 SWAP1 POP JUMP JUMPDEST PUSH1 0x0 DUP3 DUP3 MSTORE PUSH1 0x20 DUP3 ADD SWAP1 POP SWAP3 SWAP2 POP POP JUMP JUMPDEST PUSH1 0x0 PUSH2 0x2A2 DUP3 PUSH2 0x353 JUMP JUMPDEST SWAP2 POP PUSH2 0x2AD DUP4 PUSH2 0x353 JUMP JUMPDEST SWAP3 POP DUP3 PUSH32 0xFFFFFFFFFFFFFFFFFFFFFFFFFFFFFFFFFFFFFFFFFFFFFFFFFFFFFFFFFFFFFFFF SUB DUP3 GT ISZERO PUSH2 0x2E2 JUMPI PUSH2 0x2E1 PUSH2 0x35D JUMP JUMPDEST JUMPDEST DUP3 DUP3 ADD SWAP1 POP SWAP3 SWAP2 POP POP JUMP JUMPDEST PUSH1 0x0 PUSH2 0x2F8 DUP3 PUSH2 0x353 JUMP JUMPDEST SWAP2 POP PUSH2 0x303 DUP4 PUSH2 0x353 JUMP JUMPDEST SWAP3 POP DUP3 DUP3 LT ISZERO PUSH2 0x316 JUMPI PUSH2 0x315 PUSH2 0x35D JUMP JUMPDEST JUMPDEST DUP3 DUP3 SUB SWAP1 POP SWAP3 SWAP2 POP POP JUMP JUMPDEST PUSH1 0x0 PUSH2 0x32C DUP3 PUSH2 0x333 JUMP JUMPDEST SWAP1 POP SWAP2 SWAP1 POP JUMP JUMPDEST PUSH1 0x0 PUSH20 0xFFFFFFFFFFFFFFFFFFFFFFFFFFFFFFFFFFFFFFFF DUP3 AND SWAP1 POP SWAP2 SWAP1 POP JUMP JUMPDEST PUSH1 0x0 DUP2 SWAP1 POP SWAP2 SWAP1 POP JUMP JUMPDEST PUSH32 0x4E487B7100000000000000000000000000000000000000000000000000000000 PUSH1 0x0 MSTORE PUSH1 0x11 PUSH1 0x4 MSTORE PUSH1 0x24 PUSH1 0x0 REVERT JUMPDEST PUSH1 0x0 DUP1 REVERT JUMPDEST PUSH32 0x596F7520646F6E00000000000000000000000000000000000000000000000000 PUSH1 0x0 DUP3 ADD MSTORE POP JUMP JUMPDEST PUSH2 0x3C3 DUP2 PUSH2 0x321 JUMP JUMPDEST DUP2 EQ PUSH2 0x3CE JUMPI PUSH1 0x0 DUP1 REVERT JUMPDEST POP JUMP JUMPDEST PUSH2 0x3DA DUP2 PUSH2 0x353 JUMP JUMPDEST DUP2 EQ PUSH2 0x3E5 JUMPI PUSH1 0x0 DUP1 REVERT JUMPDEST POP JUMP INVALID LOG2 PUSH5 0x6970667358 0x22 SLT KECCAK256 0xC3 0xD6 PC CALLCODE DUP6 TIMESTAMP INVALID LOG2 CALLER RETURN CALL DUP10 0xB3 LOG4 PUSH30 0xE8E73404697224151BAA8A3AFCF4AA180664736F6C634300080700330000 "
				},
				"gasEstimates": {
					"creation": {
						"codeDepositCost": "210800",
						"executionCost": "251",
						"totalCost": "211051"
					},
					"external": {
						"receiveMoney()": "infinite",
						"withdrawMoney(address,uint256)": "infinite"
					}
				},
				"methodIdentifiers": {
					"receiveMoney()": "6d26ec18",
					"withdrawMoney(address,uint256)": "f274c897"
				}
			},
			"storageLayout": {
				"storage": [
					{
						"astId": 5,
						"contract": "contracts/basics/07-ExceptionHandlingExample.sol:ExceptionHandlingExample",
						"label": "balanceReceived",
						"offset": 0,
						"slot": "0",
						"type": "t_mapping(t_address,t_uint256)"
					}
				],
				"types": {
					"t_address": {
						"encoding": "inplace",
						"label": "address",
						"numberOfBytes": "20"
					},
					"t_mapping(t_address,t_uint256)": {
						"encoding": "mapping",
						"key": "t_address",
						"label": "mapping(address => uint256)",
						"numberOfBytes": "32",
						"value": "t_uint256"
					},
					"t_uint256": {
						"encoding": "inplace",
						"label": "uint256",
						"numberOfBytes": "32"
					}
				}
			},
			"userdoc": {
				"kind": "user",
				"methods": {},
				"version": 1
			}
		}
	}
}