{
	"contracts/basics/03-SendMoneyExample.sol": {
		"SendMoneyExamples": {
			"abi": [
				{
					"inputs": [],
					"name": "balanceReceived",
					"outputs": [
						{
							"internalType": "uint256",
							"name": "",
							"type": "uint256"
						}
					],
					"stateMutability": "view",
					"type": "function"
				},
				{
					"inputs": [],
					"name": "getBalance",
					"outputs": [
						{
							"internalType": "uint256",
							"name": "",
							"type": "uint256"
						}
					],
					"stateMutability": "view",
					"type": "function"
				},
				{
					"inputs": [],
					"name": "lockedUntil",
					"outputs": [
						{
							"internalType": "uint256",
							"name": "",
							"type": "uint256"
						}
					],
					"stateMutability": "view",
					"type": "function"
				},
				{
					"inputs": [],
					"name": "recieveMoney",
					"outputs": [],
					"stateMutability": "payable",
					"type": "function"
				},
				{
					"inputs": [
						{
							"internalType": "address payable",
							"name": "_to",
							"type": "address"
						}
					],
					"name": "sendMoney",
					"outputs": [],
					"stateMutability": "nonpayable",
					"type": "function"
				},
				{
					"inputs": [],
					"name": "withdrawMoney",
					"outputs": [],
					"stateMutability": "nonpayable",
					"type": "function"
				}
			],
			"devdoc": {
				"kind": "dev",
				"methods": {},
				"version": 1
			},
			"evm": {
				"assembly": "    /* \"contracts/basics/03-SendMoneyExample.sol\":58:616  contract SendMoneyExamples{\r... */\n  mstore(0x40, 0x80)\n  callvalue\n  dup1\n  iszero\n  tag_1\n  jumpi\n  0x00\n  dup1\n  revert\ntag_1:\n  pop\n  dataSize(sub_0)\n  dup1\n  dataOffset(sub_0)\n  0x00\n  codecopy\n  0x00\n  return\nstop\n\nsub_0: assembly {\n        /* \"contracts/basics/03-SendMoneyExample.sol\":58:616  contract SendMoneyExamples{\r... */\n      mstore(0x40, 0x80)\n      jumpi(tag_1, lt(calldatasize, 0x04))\n      shr(0xe0, calldataload(0x00))\n      dup1\n      0x12065fe0\n      eq\n      tag_2\n      jumpi\n      dup1\n      0x338ccd78\n      eq\n      tag_3\n      jumpi\n      dup1\n      0x52a90c42\n      eq\n      tag_4\n      jumpi\n      dup1\n      0xac446002\n      eq\n      tag_5\n      jumpi\n      dup1\n      0xcca955a0\n      eq\n      tag_6\n      jumpi\n      dup1\n      0xce0617ec\n      eq\n      tag_7\n      jumpi\n    tag_1:\n      0x00\n      dup1\n      revert\n        /* \"contracts/basics/03-SendMoneyExample.sol\":300:394  function getBalance() public view returns(uint){\r... */\n    tag_2:\n      callvalue\n      dup1\n      iszero\n      tag_8\n      jumpi\n      0x00\n      dup1\n      revert\n    tag_8:\n      pop\n      tag_9\n      tag_10\n      jump\t// in\n    tag_9:\n      mload(0x40)\n      tag_11\n      swap2\n      swap1\n      tag_12\n      jump\t// in\n    tag_11:\n      mload(0x40)\n      dup1\n      swap2\n      sub\n      swap1\n      return\n        /* \"contracts/basics/03-SendMoneyExample.sol\":513:613  function sendMoney(address payable _to) public{\r... */\n    tag_3:\n      callvalue\n      dup1\n      iszero\n      tag_13\n      jumpi\n      0x00\n      dup1\n      revert\n    tag_13:\n      pop\n      tag_14\n      0x04\n      dup1\n      calldatasize\n      sub\n      dup2\n      add\n      swap1\n      tag_15\n      swap2\n      swap1\n      tag_16\n      jump\t// in\n    tag_15:\n      tag_17\n      jump\t// in\n    tag_14:\n      stop\n        /* \"contracts/basics/03-SendMoneyExample.sol\":91:118  uint public balanceReceived */\n    tag_4:\n      callvalue\n      dup1\n      iszero\n      tag_18\n      jumpi\n      0x00\n      dup1\n      revert\n    tag_18:\n      pop\n      tag_19\n      tag_20\n      jump\t// in\n    tag_19:\n      mload(0x40)\n      tag_21\n      swap2\n      swap1\n      tag_12\n      jump\t// in\n    tag_21:\n      mload(0x40)\n      dup1\n      swap2\n      sub\n      swap1\n      return\n        /* \"contracts/basics/03-SendMoneyExample.sol\":402:505  function withdrawMoney() public{\r... */\n    tag_5:\n      callvalue\n      dup1\n      iszero\n      tag_22\n      jumpi\n      0x00\n      dup1\n      revert\n    tag_22:\n      pop\n      tag_23\n      tag_24\n      jump\t// in\n    tag_23:\n      stop\n        /* \"contracts/basics/03-SendMoneyExample.sol\":155:292  function recieveMoney() public payable{\r... */\n    tag_6:\n      tag_25\n      tag_26\n      jump\t// in\n    tag_25:\n      stop\n        /* \"contracts/basics/03-SendMoneyExample.sol\":125:148  uint public lockedUntil */\n    tag_7:\n      callvalue\n      dup1\n      iszero\n      tag_27\n      jumpi\n      0x00\n      dup1\n      revert\n    tag_27:\n      pop\n      tag_28\n      tag_29\n      jump\t// in\n    tag_28:\n      mload(0x40)\n      tag_30\n      swap2\n      swap1\n      tag_12\n      jump\t// in\n    tag_30:\n      mload(0x40)\n      dup1\n      swap2\n      sub\n      swap1\n      return\n        /* \"contracts/basics/03-SendMoneyExample.sol\":300:394  function getBalance() public view returns(uint){\r... */\n    tag_10:\n        /* \"contracts/basics/03-SendMoneyExample.sol\":342:346  uint */\n      0x00\n        /* \"contracts/basics/03-SendMoneyExample.sol\":365:386  address(this).balance */\n      selfbalance\n        /* \"contracts/basics/03-SendMoneyExample.sol\":358:386  return address(this).balance */\n      swap1\n      pop\n        /* \"contracts/basics/03-SendMoneyExample.sol\":300:394  function getBalance() public view returns(uint){\r... */\n      swap1\n      jump\t// out\n        /* \"contracts/basics/03-SendMoneyExample.sol\":513:613  function sendMoney(address payable _to) public{\r... */\n    tag_17:\n        /* \"contracts/basics/03-SendMoneyExample.sol\":570:573  _to */\n      dup1\n        /* \"contracts/basics/03-SendMoneyExample.sol\":570:582  _to.transfer */\n      0xffffffffffffffffffffffffffffffffffffffff\n      and\n        /* \"contracts/basics/03-SendMoneyExample.sol\":570:605  _to.transfer(address(this).balance) */\n      0x08fc\n        /* \"contracts/basics/03-SendMoneyExample.sol\":583:604  address(this).balance */\n      selfbalance\n        /* \"contracts/basics/03-SendMoneyExample.sol\":570:605  _to.transfer(address(this).balance) */\n      swap1\n      dup2\n      iszero\n      mul\n      swap1\n      mload(0x40)\n      0x00\n      mload(0x40)\n      dup1\n      dup4\n      sub\n      dup2\n      dup6\n      dup9\n      dup9\n      call\n      swap4\n      pop\n      pop\n      pop\n      pop\n      iszero\n      dup1\n      iszero\n      tag_34\n      jumpi\n      returndatasize\n      0x00\n      dup1\n      returndatacopy\n      revert(0x00, returndatasize)\n    tag_34:\n      pop\n        /* \"contracts/basics/03-SendMoneyExample.sol\":513:613  function sendMoney(address payable _to) public{\r... */\n      pop\n      jump\t// out\n        /* \"contracts/basics/03-SendMoneyExample.sol\":91:118  uint public balanceReceived */\n    tag_20:\n      sload(0x00)\n      dup2\n      jump\t// out\n        /* \"contracts/basics/03-SendMoneyExample.sol\":402:505  function withdrawMoney() public{\r... */\n    tag_24:\n      jump\t// out\n        /* \"contracts/basics/03-SendMoneyExample.sol\":155:292  function recieveMoney() public payable{\r... */\n    tag_26:\n        /* \"contracts/basics/03-SendMoneyExample.sol\":223:232  msg.value */\n      callvalue\n        /* \"contracts/basics/03-SendMoneyExample.sol\":204:219  balanceReceived */\n      0x00\n      dup1\n        /* \"contracts/basics/03-SendMoneyExample.sol\":204:232  balanceReceived += msg.value */\n      dup3\n      dup3\n      sload\n      tag_38\n      swap2\n      swap1\n      tag_39\n      jump\t// in\n    tag_38:\n      swap3\n      pop\n      pop\n      dup2\n      swap1\n      sstore\n      pop\n        /* \"contracts/basics/03-SendMoneyExample.sol\":275:284  1 minutes */\n      0x3c\n        /* \"contracts/basics/03-SendMoneyExample.sol\":257:272  block.timestamp */\n      timestamp\n        /* \"contracts/basics/03-SendMoneyExample.sol\":257:284  block.timestamp + 1 minutes */\n      tag_40\n      swap2\n      swap1\n      tag_39\n      jump\t// in\n    tag_40:\n        /* \"contracts/basics/03-SendMoneyExample.sol\":243:254  lockedUntil */\n      0x01\n        /* \"contracts/basics/03-SendMoneyExample.sol\":243:284  lockedUntil = block.timestamp + 1 minutes */\n      dup2\n      swap1\n      sstore\n      pop\n        /* \"contracts/basics/03-SendMoneyExample.sol\":155:292  function recieveMoney() public payable{\r... */\n      jump\t// out\n        /* \"contracts/basics/03-SendMoneyExample.sol\":125:148  uint public lockedUntil */\n    tag_29:\n      sload(0x01)\n      dup2\n      jump\t// out\n        /* \"#utility.yul\":7:162   */\n    tag_42:\n        /* \"#utility.yul\":61:66   */\n      0x00\n        /* \"#utility.yul\":99:105   */\n      dup2\n        /* \"#utility.yul\":86:106   */\n      calldataload\n        /* \"#utility.yul\":77:106   */\n      swap1\n      pop\n        /* \"#utility.yul\":115:156   */\n      tag_44\n        /* \"#utility.yul\":150:155   */\n      dup2\n        /* \"#utility.yul\":115:156   */\n      tag_45\n      jump\t// in\n    tag_44:\n        /* \"#utility.yul\":7:162   */\n      swap3\n      swap2\n      pop\n      pop\n      jump\t// out\n        /* \"#utility.yul\":168:513   */\n    tag_16:\n        /* \"#utility.yul\":235:241   */\n      0x00\n        /* \"#utility.yul\":284:286   */\n      0x20\n        /* \"#utility.yul\":272:281   */\n      dup3\n        /* \"#utility.yul\":263:270   */\n      dup5\n        /* \"#utility.yul\":259:282   */\n      sub\n        /* \"#utility.yul\":255:287   */\n      slt\n        /* \"#utility.yul\":252:371   */\n      iszero\n      tag_47\n      jumpi\n        /* \"#utility.yul\":290:369   */\n      tag_48\n      tag_49\n      jump\t// in\n    tag_48:\n        /* \"#utility.yul\":252:371   */\n    tag_47:\n        /* \"#utility.yul\":410:411   */\n      0x00\n        /* \"#utility.yul\":435:496   */\n      tag_50\n        /* \"#utility.yul\":488:495   */\n      dup5\n        /* \"#utility.yul\":479:485   */\n      dup3\n        /* \"#utility.yul\":468:477   */\n      dup6\n        /* \"#utility.yul\":464:486   */\n      add\n        /* \"#utility.yul\":435:496   */\n      tag_42\n      jump\t// in\n    tag_50:\n        /* \"#utility.yul\":425:496   */\n      swap2\n      pop\n        /* \"#utility.yul\":381:506   */\n      pop\n        /* \"#utility.yul\":168:513   */\n      swap3\n      swap2\n      pop\n      pop\n      jump\t// out\n        /* \"#utility.yul\":519:637   */\n    tag_51:\n        /* \"#utility.yul\":606:630   */\n      tag_53\n        /* \"#utility.yul\":624:629   */\n      dup2\n        /* \"#utility.yul\":606:630   */\n      tag_54\n      jump\t// in\n    tag_53:\n        /* \"#utility.yul\":601:604   */\n      dup3\n        /* \"#utility.yul\":594:631   */\n      mstore\n        /* \"#utility.yul\":519:637   */\n      pop\n      pop\n      jump\t// out\n        /* \"#utility.yul\":643:865   */\n    tag_12:\n        /* \"#utility.yul\":736:740   */\n      0x00\n        /* \"#utility.yul\":774:776   */\n      0x20\n        /* \"#utility.yul\":763:772   */\n      dup3\n        /* \"#utility.yul\":759:777   */\n      add\n        /* \"#utility.yul\":751:777   */\n      swap1\n      pop\n        /* \"#utility.yul\":787:858   */\n      tag_56\n        /* \"#utility.yul\":855:856   */\n      0x00\n        /* \"#utility.yul\":844:853   */\n      dup4\n        /* \"#utility.yul\":840:857   */\n      add\n        /* \"#utility.yul\":831:837   */\n      dup5\n        /* \"#utility.yul\":787:858   */\n      tag_51\n      jump\t// in\n    tag_56:\n        /* \"#utility.yul\":643:865   */\n      swap3\n      swap2\n      pop\n      pop\n      jump\t// out\n        /* \"#utility.yul\":952:1257   */\n    tag_39:\n        /* \"#utility.yul\":992:995   */\n      0x00\n        /* \"#utility.yul\":1011:1031   */\n      tag_60\n        /* \"#utility.yul\":1029:1030   */\n      dup3\n        /* \"#utility.yul\":1011:1031   */\n      tag_54\n      jump\t// in\n    tag_60:\n        /* \"#utility.yul\":1006:1031   */\n      swap2\n      pop\n        /* \"#utility.yul\":1045:1065   */\n      tag_61\n        /* \"#utility.yul\":1063:1064   */\n      dup4\n        /* \"#utility.yul\":1045:1065   */\n      tag_54\n      jump\t// in\n    tag_61:\n        /* \"#utility.yul\":1040:1065   */\n      swap3\n      pop\n        /* \"#utility.yul\":1199:1200   */\n      dup3\n        /* \"#utility.yul\":1131:1197   */\n      0xffffffffffffffffffffffffffffffffffffffffffffffffffffffffffffffff\n        /* \"#utility.yul\":1127:1201   */\n      sub\n        /* \"#utility.yul\":1124:1125   */\n      dup3\n        /* \"#utility.yul\":1121:1202   */\n      gt\n        /* \"#utility.yul\":1118:1225   */\n      iszero\n      tag_62\n      jumpi\n        /* \"#utility.yul\":1205:1223   */\n      tag_63\n      tag_64\n      jump\t// in\n    tag_63:\n        /* \"#utility.yul\":1118:1225   */\n    tag_62:\n        /* \"#utility.yul\":1249:1250   */\n      dup3\n        /* \"#utility.yul\":1246:1247   */\n      dup3\n        /* \"#utility.yul\":1242:1251   */\n      add\n        /* \"#utility.yul\":1235:1251   */\n      swap1\n      pop\n        /* \"#utility.yul\":952:1257   */\n      swap3\n      swap2\n      pop\n      pop\n      jump\t// out\n        /* \"#utility.yul\":1263:1367   */\n    tag_65:\n        /* \"#utility.yul\":1308:1315   */\n      0x00\n        /* \"#utility.yul\":1337:1361   */\n      tag_67\n        /* \"#utility.yul\":1355:1360   */\n      dup3\n        /* \"#utility.yul\":1337:1361   */\n      tag_68\n      jump\t// in\n    tag_67:\n        /* \"#utility.yul\":1326:1361   */\n      swap1\n      pop\n        /* \"#utility.yul\":1263:1367   */\n      swap2\n      swap1\n      pop\n      jump\t// out\n        /* \"#utility.yul\":1373:1499   */\n    tag_68:\n        /* \"#utility.yul\":1410:1417   */\n      0x00\n        /* \"#utility.yul\":1450:1492   */\n      0xffffffffffffffffffffffffffffffffffffffff\n        /* \"#utility.yul\":1443:1448   */\n      dup3\n        /* \"#utility.yul\":1439:1493   */\n      and\n        /* \"#utility.yul\":1428:1493   */\n      swap1\n      pop\n        /* \"#utility.yul\":1373:1499   */\n      swap2\n      swap1\n      pop\n      jump\t// out\n        /* \"#utility.yul\":1505:1582   */\n    tag_54:\n        /* \"#utility.yul\":1542:1549   */\n      0x00\n        /* \"#utility.yul\":1571:1576   */\n      dup2\n        /* \"#utility.yul\":1560:1576   */\n      swap1\n      pop\n        /* \"#utility.yul\":1505:1582   */\n      swap2\n      swap1\n      pop\n      jump\t// out\n        /* \"#utility.yul\":1588:1768   */\n    tag_64:\n        /* \"#utility.yul\":1636:1713   */\n      0x4e487b7100000000000000000000000000000000000000000000000000000000\n        /* \"#utility.yul\":1633:1634   */\n      0x00\n        /* \"#utility.yul\":1626:1714   */\n      mstore\n        /* \"#utility.yul\":1733:1737   */\n      0x11\n        /* \"#utility.yul\":1730:1731   */\n      0x04\n        /* \"#utility.yul\":1723:1738   */\n      mstore\n        /* \"#utility.yul\":1757:1761   */\n      0x24\n        /* \"#utility.yul\":1754:1755   */\n      0x00\n        /* \"#utility.yul\":1747:1762   */\n      revert\n        /* \"#utility.yul\":1897:2014   */\n    tag_49:\n        /* \"#utility.yul\":2006:2007   */\n      0x00\n        /* \"#utility.yul\":2003:2004   */\n      dup1\n        /* \"#utility.yul\":1996:2008   */\n      revert\n        /* \"#utility.yul\":2020:2158   */\n    tag_45:\n        /* \"#utility.yul\":2101:2133   */\n      tag_76\n        /* \"#utility.yul\":2127:2132   */\n      dup2\n        /* \"#utility.yul\":2101:2133   */\n      tag_65\n      jump\t// in\n    tag_76:\n        /* \"#utility.yul\":2094:2099   */\n      dup2\n        /* \"#utility.yul\":2091:2134   */\n      eq\n        /* \"#utility.yul\":2081:2152   */\n      tag_77\n      jumpi\n        /* \"#utility.yul\":2148:2149   */\n      0x00\n        /* \"#utility.yul\":2145:2146   */\n      dup1\n        /* \"#utility.yul\":2138:2150   */\n      revert\n        /* \"#utility.yul\":2081:2152   */\n    tag_77:\n        /* \"#utility.yul\":2020:2158   */\n      pop\n      jump\t// out\n\n    auxdata: 0xa264697066735822122039d336b89056523e4f56c2921bf8d9064b2d09b4d0afb522815c0dac0893d22c64736f6c63430008070033\n}\n",
				"bytecode": {
					"linkReferences": {},
					"object": "608060405234801561001057600080fd5b50610331806100206000396000f3fe6080604052600436106100555760003560e01c806312065fe01461005a578063338ccd781461008557806352a90c42146100ae578063ac446002146100d9578063cca955a0146100f0578063ce0617ec146100fa575b600080fd5b34801561006657600080fd5b5061006f610125565b60405161007c9190610203565b60405180910390f35b34801561009157600080fd5b506100ac60048036038101906100a791906101c7565b61012d565b005b3480156100ba57600080fd5b506100c3610177565b6040516100d09190610203565b60405180910390f35b3480156100e557600080fd5b506100ee61017d565b005b6100f861017f565b005b34801561010657600080fd5b5061010f6101ac565b60405161011c9190610203565b60405180910390f35b600047905090565b8073ffffffffffffffffffffffffffffffffffffffff166108fc479081150290604051600060405180830381858888f19350505050158015610173573d6000803e3d6000fd5b5050565b60005481565b565b34600080828254610190919061021e565b92505081905550603c426101a4919061021e565b600181905550565b60015481565b6000813590506101c1816102e4565b92915050565b6000602082840312156101dd576101dc6102df565b5b60006101eb848285016101b2565b91505092915050565b6101fd816102a6565b82525050565b600060208201905061021860008301846101f4565b92915050565b6000610229826102a6565b9150610234836102a6565b9250827fffffffffffffffffffffffffffffffffffffffffffffffffffffffffffffffff03821115610269576102686102b0565b5b828201905092915050565b600061027f82610286565b9050919050565b600073ffffffffffffffffffffffffffffffffffffffff82169050919050565b6000819050919050565b7f4e487b7100000000000000000000000000000000000000000000000000000000600052601160045260246000fd5b600080fd5b6102ed81610274565b81146102f857600080fd5b5056fea264697066735822122039d336b89056523e4f56c2921bf8d9064b2d09b4d0afb522815c0dac0893d22c64736f6c63430008070033",
					"opcodes": "PUSH1 0x80 PUSH1 0x40 MSTORE CALLVALUE DUP1 ISZERO PUSH2 0x10 JUMPI PUSH1 0x0 DUP1 REVERT JUMPDEST POP PUSH2 0x331 DUP1 PUSH2 0x20 PUSH1 0x0 CODECOPY PUSH1 0x0 RETURN INVALID PUSH1 0x80 PUSH1 0x40 MSTORE PUSH1 0x4 CALLDATASIZE LT PUSH2 0x55 JUMPI PUSH1 0x0 CALLDATALOAD PUSH1 0xE0 SHR DUP1 PUSH4 0x12065FE0 EQ PUSH2 0x5A JUMPI DUP1 PUSH4 0x338CCD78 EQ PUSH2 0x85 JUMPI DUP1 PUSH4 0x52A90C42 EQ PUSH2 0xAE JUMPI DUP1 PUSH4 0xAC446002 EQ PUSH2 0xD9 JUMPI DUP1 PUSH4 0xCCA955A0 EQ PUSH2 0xF0 JUMPI DUP1 PUSH4 0xCE0617EC EQ PUSH2 0xFA JUMPI JUMPDEST PUSH1 0x0 DUP1 REVERT JUMPDEST CALLVALUE DUP1 ISZERO PUSH2 0x66 JUMPI PUSH1 0x0 DUP1 REVERT JUMPDEST POP PUSH2 0x6F PUSH2 0x125 JUMP JUMPDEST PUSH1 0x40 MLOAD PUSH2 0x7C SWAP2 SWAP1 PUSH2 0x203 JUMP JUMPDEST PUSH1 0x40 MLOAD DUP1 SWAP2 SUB SWAP1 RETURN JUMPDEST CALLVALUE DUP1 ISZERO PUSH2 0x91 JUMPI PUSH1 0x0 DUP1 REVERT JUMPDEST POP PUSH2 0xAC PUSH1 0x4 DUP1 CALLDATASIZE SUB DUP2 ADD SWAP1 PUSH2 0xA7 SWAP2 SWAP1 PUSH2 0x1C7 JUMP JUMPDEST PUSH2 0x12D JUMP JUMPDEST STOP JUMPDEST CALLVALUE DUP1 ISZERO PUSH2 0xBA JUMPI PUSH1 0x0 DUP1 REVERT JUMPDEST POP PUSH2 0xC3 PUSH2 0x177 JUMP JUMPDEST PUSH1 0x40 MLOAD PUSH2 0xD0 SWAP2 SWAP1 PUSH2 0x203 JUMP JUMPDEST PUSH1 0x40 MLOAD DUP1 SWAP2 SUB SWAP1 RETURN JUMPDEST CALLVALUE DUP1 ISZERO PUSH2 0xE5 JUMPI PUSH1 0x0 DUP1 REVERT JUMPDEST POP PUSH2 0xEE PUSH2 0x17D JUMP JUMPDEST STOP JUMPDEST PUSH2 0xF8 PUSH2 0x17F JUMP JUMPDEST STOP JUMPDEST CALLVALUE DUP1 ISZERO PUSH2 0x106 JUMPI PUSH1 0x0 DUP1 REVERT JUMPDEST POP PUSH2 0x10F PUSH2 0x1AC JUMP JUMPDEST PUSH1 0x40 MLOAD PUSH2 0x11C SWAP2 SWAP1 PUSH2 0x203 JUMP JUMPDEST PUSH1 0x40 MLOAD DUP1 SWAP2 SUB SWAP1 RETURN JUMPDEST PUSH1 0x0 SELFBALANCE SWAP1 POP SWAP1 JUMP JUMPDEST DUP1 PUSH20 0xFFFFFFFFFFFFFFFFFFFFFFFFFFFFFFFFFFFFFFFF AND PUSH2 0x8FC SELFBALANCE SWAP1 DUP2 ISZERO MUL SWAP1 PUSH1 0x40 MLOAD PUSH1 0x0 PUSH1 0x40 MLOAD DUP1 DUP4 SUB DUP2 DUP6 DUP9 DUP9 CALL SWAP4 POP POP POP POP ISZERO DUP1 ISZERO PUSH2 0x173 JUMPI RETURNDATASIZE PUSH1 0x0 DUP1 RETURNDATACOPY RETURNDATASIZE PUSH1 0x0 REVERT JUMPDEST POP POP JUMP JUMPDEST PUSH1 0x0 SLOAD DUP2 JUMP JUMPDEST JUMP JUMPDEST CALLVALUE PUSH1 0x0 DUP1 DUP3 DUP3 SLOAD PUSH2 0x190 SWAP2 SWAP1 PUSH2 0x21E JUMP JUMPDEST SWAP3 POP POP DUP2 SWAP1 SSTORE POP PUSH1 0x3C TIMESTAMP PUSH2 0x1A4 SWAP2 SWAP1 PUSH2 0x21E JUMP JUMPDEST PUSH1 0x1 DUP2 SWAP1 SSTORE POP JUMP JUMPDEST PUSH1 0x1 SLOAD DUP2 JUMP JUMPDEST PUSH1 0x0 DUP2 CALLDATALOAD SWAP1 POP PUSH2 0x1C1 DUP2 PUSH2 0x2E4 JUMP JUMPDEST SWAP3 SWAP2 POP POP JUMP JUMPDEST PUSH1 0x0 PUSH1 0x20 DUP3 DUP5 SUB SLT ISZERO PUSH2 0x1DD JUMPI PUSH2 0x1DC PUSH2 0x2DF JUMP JUMPDEST JUMPDEST PUSH1 0x0 PUSH2 0x1EB DUP5 DUP3 DUP6 ADD PUSH2 0x1B2 JUMP JUMPDEST SWAP2 POP POP SWAP3 SWAP2 POP POP JUMP JUMPDEST PUSH2 0x1FD DUP2 PUSH2 0x2A6 JUMP JUMPDEST DUP3 MSTORE POP POP JUMP JUMPDEST PUSH1 0x0 PUSH1 0x20 DUP3 ADD SWAP1 POP PUSH2 0x218 PUSH1 0x0 DUP4 ADD DUP5 PUSH2 0x1F4 JUMP JUMPDEST SWAP3 SWAP2 POP POP JUMP JUMPDEST PUSH1 0x0 PUSH2 0x229 DUP3 PUSH2 0x2A6 JUMP JUMPDEST SWAP2 POP PUSH2 0x234 DUP4 PUSH2 0x2A6 JUMP JUMPDEST SWAP3 POP DUP3 PUSH32 0xFFFFFFFFFFFFFFFFFFFFFFFFFFFFFFFFFFFFFFFFFFFFFFFFFFFFFFFFFFFFFFFF SUB DUP3 GT ISZERO PUSH2 0x269 JUMPI PUSH2 0x268 PUSH2 0x2B0 JUMP JUMPDEST JUMPDEST DUP3 DUP3 ADD SWAP1 POP SWAP3 SWAP2 POP POP JUMP JUMPDEST PUSH1 0x0 PUSH2 0x27F DUP3 PUSH2 0x286 JUMP JUMPDEST SWAP1 POP SWAP2 SWAP1 POP JUMP JUMPDEST PUSH1 0x0 PUSH20 0xFFFFFFFFFFFFFFFFFFFFFFFFFFFFFFFFFFFFFFFF DUP3 AND SWAP1 POP SWAP2 SWAP1 POP JUMP JUMPDEST PUSH1 0x0 DUP2 SWAP1 POP SWAP2 SWAP1 POP JUMP JUMPDEST PUSH32 0x4E487B7100000000000000000000000000000000000000000000000000000000 PUSH1 0x0 MSTORE PUSH1 0x11 PUSH1 0x4 MSTORE PUSH1 0x24 PUSH1 0x0 REVERT JUMPDEST PUSH1 0x0 DUP1 REVERT JUMPDEST PUSH2 0x2ED DUP2 PUSH2 0x274 JUMP JUMPDEST DUP2 EQ PUSH2 0x2F8 JUMPI PUSH1 0x0 DUP1 REVERT JUMPDEST POP JUMP INVALID LOG2 PUSH5 0x6970667358 0x22 SLT KECCAK256 CODECOPY 0xD3 CALLDATASIZE 0xB8 SWAP1 JUMP MSTORE RETURNDATACOPY 0x4F JUMP 0xC2 SWAP3 SHL 0xF8 0xD9 MOD 0x4B 0x2D MULMOD 0xB4 0xD0 0xAF 0xB5 0x22 DUP2 0x5C 0xD 0xAC ADDMOD SWAP4 0xD2 0x2C PUSH5 0x736F6C6343 STOP ADDMOD SMOD STOP CALLER "
				},
				"gasEstimates": {
					"creation": {
						"codeDepositCost": "163400",
						"executionCost": "208",
						"totalCost": "163608"
					},
					"external": {
						"balanceReceived()": "2451",
						"getBalance()": "317",
						"lockedUntil()": "2517",
						"recieveMoney()": "infinite",
						"sendMoney(address)": "infinite",
						"withdrawMoney()": "188"
					}
				},
				"methodIdentifiers": {
					"balanceReceived()": "52a90c42",
					"getBalance()": "12065fe0",
					"lockedUntil()": "ce0617ec",
					"recieveMoney()": "cca955a0",
					"sendMoney(address)": "338ccd78",
					"withdrawMoney()": "ac446002"
				}
			},
			"storageLayout": {
				"storage": [
					{
						"astId": 3,
						"contract": "contracts/basics/03-SendMoneyExample.sol:SendMoneyExamples",
						"label": "balanceReceived",
						"offset": 0,
						"slot": "0",
						"type": "t_uint256"
					},
					{
						"astId": 5,
						"contract": "contracts/basics/03-SendMoneyExample.sol:SendMoneyExamples",
						"label": "lockedUntil",
						"offset": 0,
						"slot": "1",
						"type": "t_uint256"
					}
				],
				"types": {
					"t_uint256": {
						"encoding": "inplace",
						"label": "uint256",
						"numberOfBytes": "32"
					}
				}
			},
			"userdoc": {
				"kind": "user",
				"methods": {},
				"version": 1
			}
		}
	}
}