{
	"contracts/basics/03-SendMoneyExample.sol": {
		"SendMoneyExamples": {
			"abi": [
				{
					"inputs": [],
					"name": "balanceReceived",
					"outputs": [
						{
							"internalType": "uint256",
							"name": "",
							"type": "uint256"
						}
					],
					"stateMutability": "view",
					"type": "function"
				},
				{
					"inputs": [],
					"name": "getBalance",
					"outputs": [
						{
							"internalType": "uint256",
							"name": "",
							"type": "uint256"
						}
					],
					"stateMutability": "view",
					"type": "function"
				},
				{
					"inputs": [],
					"name": "recieveMoney",
					"outputs": [],
					"stateMutability": "payable",
					"type": "function"
				},
				{
					"inputs": [
						{
							"internalType": "address payable",
							"name": "_to",
							"type": "address"
						},
						{
							"internalType": "uint256",
							"name": "amount",
							"type": "uint256"
						}
					],
					"name": "sendMoney",
					"outputs": [],
					"stateMutability": "nonpayable",
					"type": "function"
				},
				{
					"inputs": [],
					"name": "withdrawMoney",
					"outputs": [],
					"stateMutability": "nonpayable",
					"type": "function"
				}
			],
			"devdoc": {
				"kind": "dev",
				"methods": {},
				"version": 1
			},
			"evm": {
				"assembly": "    /* \"contracts/basics/03-SendMoneyExample.sol\":58:560  contract SendMoneyExamples{\r... */\n  mstore(0x40, 0x80)\n  callvalue\n  dup1\n  iszero\n  tag_1\n  jumpi\n  0x00\n  dup1\n  revert\ntag_1:\n  pop\n  dataSize(sub_0)\n  dup1\n  dataOffset(sub_0)\n  0x00\n  codecopy\n  0x00\n  return\nstop\n\nsub_0: assembly {\n        /* \"contracts/basics/03-SendMoneyExample.sol\":58:560  contract SendMoneyExamples{\r... */\n      mstore(0x40, 0x80)\n      jumpi(tag_1, lt(calldatasize, 0x04))\n      shr(0xe0, calldataload(0x00))\n      dup1\n      0x12065fe0\n      eq\n      tag_2\n      jumpi\n      dup1\n      0x52a90c42\n      eq\n      tag_3\n      jumpi\n      dup1\n      0xac446002\n      eq\n      tag_4\n      jumpi\n      dup1\n      0xcca955a0\n      eq\n      tag_5\n      jumpi\n      dup1\n      0xee4ae2c9\n      eq\n      tag_6\n      jumpi\n    tag_1:\n      0x00\n      dup1\n      revert\n        /* \"contracts/basics/03-SendMoneyExample.sol\":218:312  function getBalance() public view returns(uint){\r... */\n    tag_2:\n      callvalue\n      dup1\n      iszero\n      tag_7\n      jumpi\n      0x00\n      dup1\n      revert\n    tag_7:\n      pop\n      tag_8\n      tag_9\n      jump\t// in\n    tag_8:\n      mload(0x40)\n      tag_10\n      swap2\n      swap1\n      tag_11\n      jump\t// in\n    tag_10:\n      mload(0x40)\n      dup1\n      swap2\n      sub\n      swap1\n      return\n        /* \"contracts/basics/03-SendMoneyExample.sol\":91:118  uint public balanceReceived */\n    tag_3:\n      callvalue\n      dup1\n      iszero\n      tag_12\n      jumpi\n      0x00\n      dup1\n      revert\n    tag_12:\n      pop\n      tag_13\n      tag_14\n      jump\t// in\n    tag_13:\n      mload(0x40)\n      tag_15\n      swap2\n      swap1\n      tag_11\n      jump\t// in\n    tag_15:\n      mload(0x40)\n      dup1\n      swap2\n      sub\n      swap1\n      return\n        /* \"contracts/basics/03-SendMoneyExample.sol\":320:451  function withdrawMoney() public{\r... */\n    tag_4:\n      callvalue\n      dup1\n      iszero\n      tag_16\n      jumpi\n      0x00\n      dup1\n      revert\n    tag_16:\n      pop\n      tag_17\n      tag_18\n      jump\t// in\n    tag_17:\n      stop\n        /* \"contracts/basics/03-SendMoneyExample.sol\":125:210  function recieveMoney() public payable{\r... */\n    tag_5:\n      tag_19\n      tag_20\n      jump\t// in\n    tag_19:\n      stop\n        /* \"contracts/basics/03-SendMoneyExample.sol\":459:557  function sendMoney(address payable _to, uint amount) public{\r... */\n    tag_6:\n      callvalue\n      dup1\n      iszero\n      tag_21\n      jumpi\n      0x00\n      dup1\n      revert\n    tag_21:\n      pop\n      tag_22\n      0x04\n      dup1\n      calldatasize\n      sub\n      dup2\n      add\n      swap1\n      tag_23\n      swap2\n      swap1\n      tag_24\n      jump\t// in\n    tag_23:\n      tag_25\n      jump\t// in\n    tag_22:\n      stop\n        /* \"contracts/basics/03-SendMoneyExample.sol\":218:312  function getBalance() public view returns(uint){\r... */\n    tag_9:\n        /* \"contracts/basics/03-SendMoneyExample.sol\":260:264  uint */\n      0x00\n        /* \"contracts/basics/03-SendMoneyExample.sol\":283:304  address(this).balance */\n      selfbalance\n        /* \"contracts/basics/03-SendMoneyExample.sol\":276:304  return address(this).balance */\n      swap1\n      pop\n        /* \"contracts/basics/03-SendMoneyExample.sol\":218:312  function getBalance() public view returns(uint){\r... */\n      swap1\n      jump\t// out\n        /* \"contracts/basics/03-SendMoneyExample.sol\":91:118  uint public balanceReceived */\n    tag_14:\n      sload(0x00)\n      dup2\n      jump\t// out\n        /* \"contracts/basics/03-SendMoneyExample.sol\":320:451  function withdrawMoney() public{\r... */\n    tag_18:\n        /* \"contracts/basics/03-SendMoneyExample.sol\":362:380  address payable to */\n      0x00\n        /* \"contracts/basics/03-SendMoneyExample.sol\":391:401  msg.sender */\n      caller\n        /* \"contracts/basics/03-SendMoneyExample.sol\":362:402  address payable to = payable(msg.sender) */\n      swap1\n      pop\n        /* \"contracts/basics/03-SendMoneyExample.sol\":413:415  to */\n      dup1\n        /* \"contracts/basics/03-SendMoneyExample.sol\":413:424  to.transfer */\n      0xffffffffffffffffffffffffffffffffffffffff\n      and\n        /* \"contracts/basics/03-SendMoneyExample.sol\":413:443  to.transfer(this.getBalance()) */\n      0x08fc\n        /* \"contracts/basics/03-SendMoneyExample.sol\":425:429  this */\n      address\n        /* \"contracts/basics/03-SendMoneyExample.sol\":425:440  this.getBalance */\n      0xffffffffffffffffffffffffffffffffffffffff\n      and\n      0x12065fe0\n        /* \"contracts/basics/03-SendMoneyExample.sol\":425:442  this.getBalance() */\n      mload(0x40)\n      dup2\n      0xffffffff\n      and\n      0xe0\n      shl\n      dup2\n      mstore\n      0x04\n      add\n      0x20\n      mload(0x40)\n      dup1\n      dup4\n      sub\n      dup2\n      dup7\n      dup1\n      extcodesize\n      iszero\n      dup1\n      iszero\n      tag_28\n      jumpi\n      0x00\n      dup1\n      revert\n    tag_28:\n      pop\n      gas\n      staticcall\n      iszero\n      dup1\n      iszero\n      tag_30\n      jumpi\n      returndatasize\n      0x00\n      dup1\n      returndatacopy\n      revert(0x00, returndatasize)\n    tag_30:\n      pop\n      pop\n      pop\n      pop\n      mload(0x40)\n      returndatasize\n      not(0x1f)\n      0x1f\n      dup3\n      add\n      and\n      dup3\n      add\n      dup1\n      0x40\n      mstore\n      pop\n      dup2\n      add\n      swap1\n      tag_31\n      swap2\n      swap1\n      tag_32\n      jump\t// in\n    tag_31:\n        /* \"contracts/basics/03-SendMoneyExample.sol\":413:443  to.transfer(this.getBalance()) */\n      swap1\n      dup2\n      iszero\n      mul\n      swap1\n      mload(0x40)\n      0x00\n      mload(0x40)\n      dup1\n      dup4\n      sub\n      dup2\n      dup6\n      dup9\n      dup9\n      call\n      swap4\n      pop\n      pop\n      pop\n      pop\n      iszero\n      dup1\n      iszero\n      tag_34\n      jumpi\n      returndatasize\n      0x00\n      dup1\n      returndatacopy\n      revert(0x00, returndatasize)\n    tag_34:\n      pop\n        /* \"contracts/basics/03-SendMoneyExample.sol\":351:451  {\r... */\n      pop\n        /* \"contracts/basics/03-SendMoneyExample.sol\":320:451  function withdrawMoney() public{\r... */\n      jump\t// out\n        /* \"contracts/basics/03-SendMoneyExample.sol\":125:210  function recieveMoney() public payable{\r... */\n    tag_20:\n        /* \"contracts/basics/03-SendMoneyExample.sol\":193:202  msg.value */\n      callvalue\n        /* \"contracts/basics/03-SendMoneyExample.sol\":174:189  balanceReceived */\n      0x00\n      dup1\n        /* \"contracts/basics/03-SendMoneyExample.sol\":174:202  balanceReceived += msg.value */\n      dup3\n      dup3\n      sload\n      tag_36\n      swap2\n      swap1\n      tag_37\n      jump\t// in\n    tag_36:\n      swap3\n      pop\n      pop\n      dup2\n      swap1\n      sstore\n      pop\n        /* \"contracts/basics/03-SendMoneyExample.sol\":125:210  function recieveMoney() public payable{\r... */\n      jump\t// out\n        /* \"contracts/basics/03-SendMoneyExample.sol\":459:557  function sendMoney(address payable _to, uint amount) public{\r... */\n    tag_25:\n        /* \"contracts/basics/03-SendMoneyExample.sol\":529:532  _to */\n      dup2\n        /* \"contracts/basics/03-SendMoneyExample.sol\":529:541  _to.transfer */\n      0xffffffffffffffffffffffffffffffffffffffff\n      and\n        /* \"contracts/basics/03-SendMoneyExample.sol\":529:549  _to.transfer(amount) */\n      0x08fc\n        /* \"contracts/basics/03-SendMoneyExample.sol\":542:548  amount */\n      dup3\n        /* \"contracts/basics/03-SendMoneyExample.sol\":529:549  _to.transfer(amount) */\n      swap1\n      dup2\n      iszero\n      mul\n      swap1\n      mload(0x40)\n      0x00\n      mload(0x40)\n      dup1\n      dup4\n      sub\n      dup2\n      dup6\n      dup9\n      dup9\n      call\n      swap4\n      pop\n      pop\n      pop\n      pop\n      iszero\n      dup1\n      iszero\n      tag_40\n      jumpi\n      returndatasize\n      0x00\n      dup1\n      returndatacopy\n      revert(0x00, returndatasize)\n    tag_40:\n      pop\n        /* \"contracts/basics/03-SendMoneyExample.sol\":459:557  function sendMoney(address payable _to, uint amount) public{\r... */\n      pop\n      pop\n      jump\t// out\n        /* \"#utility.yul\":7:162   */\n    tag_42:\n        /* \"#utility.yul\":61:66   */\n      0x00\n        /* \"#utility.yul\":99:105   */\n      dup2\n        /* \"#utility.yul\":86:106   */\n      calldataload\n        /* \"#utility.yul\":77:106   */\n      swap1\n      pop\n        /* \"#utility.yul\":115:156   */\n      tag_44\n        /* \"#utility.yul\":150:155   */\n      dup2\n        /* \"#utility.yul\":115:156   */\n      tag_45\n      jump\t// in\n    tag_44:\n        /* \"#utility.yul\":7:162   */\n      swap3\n      swap2\n      pop\n      pop\n      jump\t// out\n        /* \"#utility.yul\":168:307   */\n    tag_46:\n        /* \"#utility.yul\":214:219   */\n      0x00\n        /* \"#utility.yul\":252:258   */\n      dup2\n        /* \"#utility.yul\":239:259   */\n      calldataload\n        /* \"#utility.yul\":230:259   */\n      swap1\n      pop\n        /* \"#utility.yul\":268:301   */\n      tag_48\n        /* \"#utility.yul\":295:300   */\n      dup2\n        /* \"#utility.yul\":268:301   */\n      tag_49\n      jump\t// in\n    tag_48:\n        /* \"#utility.yul\":168:307   */\n      swap3\n      swap2\n      pop\n      pop\n      jump\t// out\n        /* \"#utility.yul\":313:456   */\n    tag_50:\n        /* \"#utility.yul\":370:375   */\n      0x00\n        /* \"#utility.yul\":401:407   */\n      dup2\n        /* \"#utility.yul\":395:408   */\n      mload\n        /* \"#utility.yul\":386:408   */\n      swap1\n      pop\n        /* \"#utility.yul\":417:450   */\n      tag_52\n        /* \"#utility.yul\":444:449   */\n      dup2\n        /* \"#utility.yul\":417:450   */\n      tag_49\n      jump\t// in\n    tag_52:\n        /* \"#utility.yul\":313:456   */\n      swap3\n      swap2\n      pop\n      pop\n      jump\t// out\n        /* \"#utility.yul\":462:952   */\n    tag_24:\n        /* \"#utility.yul\":538:544   */\n      0x00\n        /* \"#utility.yul\":546:552   */\n      dup1\n        /* \"#utility.yul\":595:597   */\n      0x40\n        /* \"#utility.yul\":583:592   */\n      dup4\n        /* \"#utility.yul\":574:581   */\n      dup6\n        /* \"#utility.yul\":570:593   */\n      sub\n        /* \"#utility.yul\":566:598   */\n      slt\n        /* \"#utility.yul\":563:682   */\n      iszero\n      tag_54\n      jumpi\n        /* \"#utility.yul\":601:680   */\n      tag_55\n      tag_56\n      jump\t// in\n    tag_55:\n        /* \"#utility.yul\":563:682   */\n    tag_54:\n        /* \"#utility.yul\":721:722   */\n      0x00\n        /* \"#utility.yul\":746:807   */\n      tag_57\n        /* \"#utility.yul\":799:806   */\n      dup6\n        /* \"#utility.yul\":790:796   */\n      dup3\n        /* \"#utility.yul\":779:788   */\n      dup7\n        /* \"#utility.yul\":775:797   */\n      add\n        /* \"#utility.yul\":746:807   */\n      tag_42\n      jump\t// in\n    tag_57:\n        /* \"#utility.yul\":736:807   */\n      swap3\n      pop\n        /* \"#utility.yul\":692:817   */\n      pop\n        /* \"#utility.yul\":856:858   */\n      0x20\n        /* \"#utility.yul\":882:935   */\n      tag_58\n        /* \"#utility.yul\":927:934   */\n      dup6\n        /* \"#utility.yul\":918:924   */\n      dup3\n        /* \"#utility.yul\":907:916   */\n      dup7\n        /* \"#utility.yul\":903:925   */\n      add\n        /* \"#utility.yul\":882:935   */\n      tag_46\n      jump\t// in\n    tag_58:\n        /* \"#utility.yul\":872:935   */\n      swap2\n      pop\n        /* \"#utility.yul\":827:945   */\n      pop\n        /* \"#utility.yul\":462:952   */\n      swap3\n      pop\n      swap3\n      swap1\n      pop\n      jump\t// out\n        /* \"#utility.yul\":958:1309   */\n    tag_32:\n        /* \"#utility.yul\":1028:1034   */\n      0x00\n        /* \"#utility.yul\":1077:1079   */\n      0x20\n        /* \"#utility.yul\":1065:1074   */\n      dup3\n        /* \"#utility.yul\":1056:1063   */\n      dup5\n        /* \"#utility.yul\":1052:1075   */\n      sub\n        /* \"#utility.yul\":1048:1080   */\n      slt\n        /* \"#utility.yul\":1045:1164   */\n      iszero\n      tag_60\n      jumpi\n        /* \"#utility.yul\":1083:1162   */\n      tag_61\n      tag_56\n      jump\t// in\n    tag_61:\n        /* \"#utility.yul\":1045:1164   */\n    tag_60:\n        /* \"#utility.yul\":1203:1204   */\n      0x00\n        /* \"#utility.yul\":1228:1292   */\n      tag_62\n        /* \"#utility.yul\":1284:1291   */\n      dup5\n        /* \"#utility.yul\":1275:1281   */\n      dup3\n        /* \"#utility.yul\":1264:1273   */\n      dup6\n        /* \"#utility.yul\":1260:1282   */\n      add\n        /* \"#utility.yul\":1228:1292   */\n      tag_50\n      jump\t// in\n    tag_62:\n        /* \"#utility.yul\":1218:1292   */\n      swap2\n      pop\n        /* \"#utility.yul\":1174:1302   */\n      pop\n        /* \"#utility.yul\":958:1309   */\n      swap3\n      swap2\n      pop\n      pop\n      jump\t// out\n        /* \"#utility.yul\":1315:1433   */\n    tag_63:\n        /* \"#utility.yul\":1402:1426   */\n      tag_65\n        /* \"#utility.yul\":1420:1425   */\n      dup2\n        /* \"#utility.yul\":1402:1426   */\n      tag_66\n      jump\t// in\n    tag_65:\n        /* \"#utility.yul\":1397:1400   */\n      dup3\n        /* \"#utility.yul\":1390:1427   */\n      mstore\n        /* \"#utility.yul\":1315:1433   */\n      pop\n      pop\n      jump\t// out\n        /* \"#utility.yul\":1439:1661   */\n    tag_11:\n        /* \"#utility.yul\":1532:1536   */\n      0x00\n        /* \"#utility.yul\":1570:1572   */\n      0x20\n        /* \"#utility.yul\":1559:1568   */\n      dup3\n        /* \"#utility.yul\":1555:1573   */\n      add\n        /* \"#utility.yul\":1547:1573   */\n      swap1\n      pop\n        /* \"#utility.yul\":1583:1654   */\n      tag_68\n        /* \"#utility.yul\":1651:1652   */\n      0x00\n        /* \"#utility.yul\":1640:1649   */\n      dup4\n        /* \"#utility.yul\":1636:1653   */\n      add\n        /* \"#utility.yul\":1627:1633   */\n      dup5\n        /* \"#utility.yul\":1583:1654   */\n      tag_63\n      jump\t// in\n    tag_68:\n        /* \"#utility.yul\":1439:1661   */\n      swap3\n      swap2\n      pop\n      pop\n      jump\t// out\n        /* \"#utility.yul\":1748:2053   */\n    tag_37:\n        /* \"#utility.yul\":1788:1791   */\n      0x00\n        /* \"#utility.yul\":1807:1827   */\n      tag_72\n        /* \"#utility.yul\":1825:1826   */\n      dup3\n        /* \"#utility.yul\":1807:1827   */\n      tag_66\n      jump\t// in\n    tag_72:\n        /* \"#utility.yul\":1802:1827   */\n      swap2\n      pop\n        /* \"#utility.yul\":1841:1861   */\n      tag_73\n        /* \"#utility.yul\":1859:1860   */\n      dup4\n        /* \"#utility.yul\":1841:1861   */\n      tag_66\n      jump\t// in\n    tag_73:\n        /* \"#utility.yul\":1836:1861   */\n      swap3\n      pop\n        /* \"#utility.yul\":1995:1996   */\n      dup3\n        /* \"#utility.yul\":1927:1993   */\n      0xffffffffffffffffffffffffffffffffffffffffffffffffffffffffffffffff\n        /* \"#utility.yul\":1923:1997   */\n      sub\n        /* \"#utility.yul\":1920:1921   */\n      dup3\n        /* \"#utility.yul\":1917:1998   */\n      gt\n        /* \"#utility.yul\":1914:2021   */\n      iszero\n      tag_74\n      jumpi\n        /* \"#utility.yul\":2001:2019   */\n      tag_75\n      tag_76\n      jump\t// in\n    tag_75:\n        /* \"#utility.yul\":1914:2021   */\n    tag_74:\n        /* \"#utility.yul\":2045:2046   */\n      dup3\n        /* \"#utility.yul\":2042:2043   */\n      dup3\n        /* \"#utility.yul\":2038:2047   */\n      add\n        /* \"#utility.yul\":2031:2047   */\n      swap1\n      pop\n        /* \"#utility.yul\":1748:2053   */\n      swap3\n      swap2\n      pop\n      pop\n      jump\t// out\n        /* \"#utility.yul\":2059:2163   */\n    tag_77:\n        /* \"#utility.yul\":2104:2111   */\n      0x00\n        /* \"#utility.yul\":2133:2157   */\n      tag_79\n        /* \"#utility.yul\":2151:2156   */\n      dup3\n        /* \"#utility.yul\":2133:2157   */\n      tag_80\n      jump\t// in\n    tag_79:\n        /* \"#utility.yul\":2122:2157   */\n      swap1\n      pop\n        /* \"#utility.yul\":2059:2163   */\n      swap2\n      swap1\n      pop\n      jump\t// out\n        /* \"#utility.yul\":2169:2295   */\n    tag_80:\n        /* \"#utility.yul\":2206:2213   */\n      0x00\n        /* \"#utility.yul\":2246:2288   */\n      0xffffffffffffffffffffffffffffffffffffffff\n        /* \"#utility.yul\":2239:2244   */\n      dup3\n        /* \"#utility.yul\":2235:2289   */\n      and\n        /* \"#utility.yul\":2224:2289   */\n      swap1\n      pop\n        /* \"#utility.yul\":2169:2295   */\n      swap2\n      swap1\n      pop\n      jump\t// out\n        /* \"#utility.yul\":2301:2378   */\n    tag_66:\n        /* \"#utility.yul\":2338:2345   */\n      0x00\n        /* \"#utility.yul\":2367:2372   */\n      dup2\n        /* \"#utility.yul\":2356:2372   */\n      swap1\n      pop\n        /* \"#utility.yul\":2301:2378   */\n      swap2\n      swap1\n      pop\n      jump\t// out\n        /* \"#utility.yul\":2384:2564   */\n    tag_76:\n        /* \"#utility.yul\":2432:2509   */\n      0x4e487b7100000000000000000000000000000000000000000000000000000000\n        /* \"#utility.yul\":2429:2430   */\n      0x00\n        /* \"#utility.yul\":2422:2510   */\n      mstore\n        /* \"#utility.yul\":2529:2533   */\n      0x11\n        /* \"#utility.yul\":2526:2527   */\n      0x04\n        /* \"#utility.yul\":2519:2534   */\n      mstore\n        /* \"#utility.yul\":2553:2557   */\n      0x24\n        /* \"#utility.yul\":2550:2551   */\n      0x00\n        /* \"#utility.yul\":2543:2558   */\n      revert\n        /* \"#utility.yul\":2693:2810   */\n    tag_56:\n        /* \"#utility.yul\":2802:2803   */\n      0x00\n        /* \"#utility.yul\":2799:2800   */\n      dup1\n        /* \"#utility.yul\":2792:2804   */\n      revert\n        /* \"#utility.yul\":2816:2954   */\n    tag_45:\n        /* \"#utility.yul\":2897:2929   */\n      tag_88\n        /* \"#utility.yul\":2923:2928   */\n      dup2\n        /* \"#utility.yul\":2897:2929   */\n      tag_77\n      jump\t// in\n    tag_88:\n        /* \"#utility.yul\":2890:2895   */\n      dup2\n        /* \"#utility.yul\":2887:2930   */\n      eq\n        /* \"#utility.yul\":2877:2948   */\n      tag_89\n      jumpi\n        /* \"#utility.yul\":2944:2945   */\n      0x00\n        /* \"#utility.yul\":2941:2942   */\n      dup1\n        /* \"#utility.yul\":2934:2946   */\n      revert\n        /* \"#utility.yul\":2877:2948   */\n    tag_89:\n        /* \"#utility.yul\":2816:2954   */\n      pop\n      jump\t// out\n        /* \"#utility.yul\":2960:3082   */\n    tag_49:\n        /* \"#utility.yul\":3033:3057   */\n      tag_91\n        /* \"#utility.yul\":3051:3056   */\n      dup2\n        /* \"#utility.yul\":3033:3057   */\n      tag_66\n      jump\t// in\n    tag_91:\n        /* \"#utility.yul\":3026:3031   */\n      dup2\n        /* \"#utility.yul\":3023:3058   */\n      eq\n        /* \"#utility.yul\":3013:3076   */\n      tag_92\n      jumpi\n        /* \"#utility.yul\":3072:3073   */\n      0x00\n        /* \"#utility.yul\":3069:3070   */\n      dup1\n        /* \"#utility.yul\":3062:3074   */\n      revert\n        /* \"#utility.yul\":3013:3076   */\n    tag_92:\n        /* \"#utility.yul\":2960:3082   */\n      pop\n      jump\t// out\n\n    auxdata: 0xa2646970667358221220379efe1517c6d0733e6612e356b8443d1b42e13ff6955338077c4a0ccf3abc8764736f6c63430008070033\n}\n",
				"bytecode": {
					"linkReferences": {},
					"object": "608060405234801561001057600080fd5b5061042e806100206000396000f3fe60806040526004361061004a5760003560e01c806312065fe01461004f57806352a90c421461007a578063ac446002146100a5578063cca955a0146100bc578063ee4ae2c9146100c6575b600080fd5b34801561005b57600080fd5b506100646100ef565b60405161007191906102e9565b60405180910390f35b34801561008657600080fd5b5061008f6100f7565b60405161009c91906102e9565b60405180910390f35b3480156100b157600080fd5b506100ba6100fd565b005b6100c46101c9565b005b3480156100d257600080fd5b506100ed60048036038101906100e8919061026d565b6101e3565b005b600047905090565b60005481565b60003390508073ffffffffffffffffffffffffffffffffffffffff166108fc3073ffffffffffffffffffffffffffffffffffffffff166312065fe06040518163ffffffff1660e01b815260040160206040518083038186803b15801561016257600080fd5b505afa158015610176573d6000803e3d6000fd5b505050506040513d601f19601f8201168201806040525081019061019a91906102ad565b9081150290604051600060405180830381858888f193505050501580156101c5573d6000803e3d6000fd5b5050565b346000808282546101da9190610304565b92505081905550565b8173ffffffffffffffffffffffffffffffffffffffff166108fc829081150290604051600060405180830381858888f19350505050158015610229573d6000803e3d6000fd5b505050565b60008135905061023d816103ca565b92915050565b600081359050610252816103e1565b92915050565b600081519050610267816103e1565b92915050565b60008060408385031215610284576102836103c5565b5b60006102928582860161022e565b92505060206102a385828601610243565b9150509250929050565b6000602082840312156102c3576102c26103c5565b5b60006102d184828501610258565b91505092915050565b6102e38161038c565b82525050565b60006020820190506102fe60008301846102da565b92915050565b600061030f8261038c565b915061031a8361038c565b9250827fffffffffffffffffffffffffffffffffffffffffffffffffffffffffffffffff0382111561034f5761034e610396565b5b828201905092915050565b60006103658261036c565b9050919050565b600073ffffffffffffffffffffffffffffffffffffffff82169050919050565b6000819050919050565b7f4e487b7100000000000000000000000000000000000000000000000000000000600052601160045260246000fd5b600080fd5b6103d38161035a565b81146103de57600080fd5b50565b6103ea8161038c565b81146103f557600080fd5b5056fea2646970667358221220379efe1517c6d0733e6612e356b8443d1b42e13ff6955338077c4a0ccf3abc8764736f6c63430008070033",
					"opcodes": "PUSH1 0x80 PUSH1 0x40 MSTORE CALLVALUE DUP1 ISZERO PUSH2 0x10 JUMPI PUSH1 0x0 DUP1 REVERT JUMPDEST POP PUSH2 0x42E DUP1 PUSH2 0x20 PUSH1 0x0 CODECOPY PUSH1 0x0 RETURN INVALID PUSH1 0x80 PUSH1 0x40 MSTORE PUSH1 0x4 CALLDATASIZE LT PUSH2 0x4A JUMPI PUSH1 0x0 CALLDATALOAD PUSH1 0xE0 SHR DUP1 PUSH4 0x12065FE0 EQ PUSH2 0x4F JUMPI DUP1 PUSH4 0x52A90C42 EQ PUSH2 0x7A JUMPI DUP1 PUSH4 0xAC446002 EQ PUSH2 0xA5 JUMPI DUP1 PUSH4 0xCCA955A0 EQ PUSH2 0xBC JUMPI DUP1 PUSH4 0xEE4AE2C9 EQ PUSH2 0xC6 JUMPI JUMPDEST PUSH1 0x0 DUP1 REVERT JUMPDEST CALLVALUE DUP1 ISZERO PUSH2 0x5B JUMPI PUSH1 0x0 DUP1 REVERT JUMPDEST POP PUSH2 0x64 PUSH2 0xEF JUMP JUMPDEST PUSH1 0x40 MLOAD PUSH2 0x71 SWAP2 SWAP1 PUSH2 0x2E9 JUMP JUMPDEST PUSH1 0x40 MLOAD DUP1 SWAP2 SUB SWAP1 RETURN JUMPDEST CALLVALUE DUP1 ISZERO PUSH2 0x86 JUMPI PUSH1 0x0 DUP1 REVERT JUMPDEST POP PUSH2 0x8F PUSH2 0xF7 JUMP JUMPDEST PUSH1 0x40 MLOAD PUSH2 0x9C SWAP2 SWAP1 PUSH2 0x2E9 JUMP JUMPDEST PUSH1 0x40 MLOAD DUP1 SWAP2 SUB SWAP1 RETURN JUMPDEST CALLVALUE DUP1 ISZERO PUSH2 0xB1 JUMPI PUSH1 0x0 DUP1 REVERT JUMPDEST POP PUSH2 0xBA PUSH2 0xFD JUMP JUMPDEST STOP JUMPDEST PUSH2 0xC4 PUSH2 0x1C9 JUMP JUMPDEST STOP JUMPDEST CALLVALUE DUP1 ISZERO PUSH2 0xD2 JUMPI PUSH1 0x0 DUP1 REVERT JUMPDEST POP PUSH2 0xED PUSH1 0x4 DUP1 CALLDATASIZE SUB DUP2 ADD SWAP1 PUSH2 0xE8 SWAP2 SWAP1 PUSH2 0x26D JUMP JUMPDEST PUSH2 0x1E3 JUMP JUMPDEST STOP JUMPDEST PUSH1 0x0 SELFBALANCE SWAP1 POP SWAP1 JUMP JUMPDEST PUSH1 0x0 SLOAD DUP2 JUMP JUMPDEST PUSH1 0x0 CALLER SWAP1 POP DUP1 PUSH20 0xFFFFFFFFFFFFFFFFFFFFFFFFFFFFFFFFFFFFFFFF AND PUSH2 0x8FC ADDRESS PUSH20 0xFFFFFFFFFFFFFFFFFFFFFFFFFFFFFFFFFFFFFFFF AND PUSH4 0x12065FE0 PUSH1 0x40 MLOAD DUP2 PUSH4 0xFFFFFFFF AND PUSH1 0xE0 SHL DUP2 MSTORE PUSH1 0x4 ADD PUSH1 0x20 PUSH1 0x40 MLOAD DUP1 DUP4 SUB DUP2 DUP7 DUP1 EXTCODESIZE ISZERO DUP1 ISZERO PUSH2 0x162 JUMPI PUSH1 0x0 DUP1 REVERT JUMPDEST POP GAS STATICCALL ISZERO DUP1 ISZERO PUSH2 0x176 JUMPI RETURNDATASIZE PUSH1 0x0 DUP1 RETURNDATACOPY RETURNDATASIZE PUSH1 0x0 REVERT JUMPDEST POP POP POP POP PUSH1 0x40 MLOAD RETURNDATASIZE PUSH1 0x1F NOT PUSH1 0x1F DUP3 ADD AND DUP3 ADD DUP1 PUSH1 0x40 MSTORE POP DUP2 ADD SWAP1 PUSH2 0x19A SWAP2 SWAP1 PUSH2 0x2AD JUMP JUMPDEST SWAP1 DUP2 ISZERO MUL SWAP1 PUSH1 0x40 MLOAD PUSH1 0x0 PUSH1 0x40 MLOAD DUP1 DUP4 SUB DUP2 DUP6 DUP9 DUP9 CALL SWAP4 POP POP POP POP ISZERO DUP1 ISZERO PUSH2 0x1C5 JUMPI RETURNDATASIZE PUSH1 0x0 DUP1 RETURNDATACOPY RETURNDATASIZE PUSH1 0x0 REVERT JUMPDEST POP POP JUMP JUMPDEST CALLVALUE PUSH1 0x0 DUP1 DUP3 DUP3 SLOAD PUSH2 0x1DA SWAP2 SWAP1 PUSH2 0x304 JUMP JUMPDEST SWAP3 POP POP DUP2 SWAP1 SSTORE POP JUMP JUMPDEST DUP2 PUSH20 0xFFFFFFFFFFFFFFFFFFFFFFFFFFFFFFFFFFFFFFFF AND PUSH2 0x8FC DUP3 SWAP1 DUP2 ISZERO MUL SWAP1 PUSH1 0x40 MLOAD PUSH1 0x0 PUSH1 0x40 MLOAD DUP1 DUP4 SUB DUP2 DUP6 DUP9 DUP9 CALL SWAP4 POP POP POP POP ISZERO DUP1 ISZERO PUSH2 0x229 JUMPI RETURNDATASIZE PUSH1 0x0 DUP1 RETURNDATACOPY RETURNDATASIZE PUSH1 0x0 REVERT JUMPDEST POP POP POP JUMP JUMPDEST PUSH1 0x0 DUP2 CALLDATALOAD SWAP1 POP PUSH2 0x23D DUP2 PUSH2 0x3CA JUMP JUMPDEST SWAP3 SWAP2 POP POP JUMP JUMPDEST PUSH1 0x0 DUP2 CALLDATALOAD SWAP1 POP PUSH2 0x252 DUP2 PUSH2 0x3E1 JUMP JUMPDEST SWAP3 SWAP2 POP POP JUMP JUMPDEST PUSH1 0x0 DUP2 MLOAD SWAP1 POP PUSH2 0x267 DUP2 PUSH2 0x3E1 JUMP JUMPDEST SWAP3 SWAP2 POP POP JUMP JUMPDEST PUSH1 0x0 DUP1 PUSH1 0x40 DUP4 DUP6 SUB SLT ISZERO PUSH2 0x284 JUMPI PUSH2 0x283 PUSH2 0x3C5 JUMP JUMPDEST JUMPDEST PUSH1 0x0 PUSH2 0x292 DUP6 DUP3 DUP7 ADD PUSH2 0x22E JUMP JUMPDEST SWAP3 POP POP PUSH1 0x20 PUSH2 0x2A3 DUP6 DUP3 DUP7 ADD PUSH2 0x243 JUMP JUMPDEST SWAP2 POP POP SWAP3 POP SWAP3 SWAP1 POP JUMP JUMPDEST PUSH1 0x0 PUSH1 0x20 DUP3 DUP5 SUB SLT ISZERO PUSH2 0x2C3 JUMPI PUSH2 0x2C2 PUSH2 0x3C5 JUMP JUMPDEST JUMPDEST PUSH1 0x0 PUSH2 0x2D1 DUP5 DUP3 DUP6 ADD PUSH2 0x258 JUMP JUMPDEST SWAP2 POP POP SWAP3 SWAP2 POP POP JUMP JUMPDEST PUSH2 0x2E3 DUP2 PUSH2 0x38C JUMP JUMPDEST DUP3 MSTORE POP POP JUMP JUMPDEST PUSH1 0x0 PUSH1 0x20 DUP3 ADD SWAP1 POP PUSH2 0x2FE PUSH1 0x0 DUP4 ADD DUP5 PUSH2 0x2DA JUMP JUMPDEST SWAP3 SWAP2 POP POP JUMP JUMPDEST PUSH1 0x0 PUSH2 0x30F DUP3 PUSH2 0x38C JUMP JUMPDEST SWAP2 POP PUSH2 0x31A DUP4 PUSH2 0x38C JUMP JUMPDEST SWAP3 POP DUP3 PUSH32 0xFFFFFFFFFFFFFFFFFFFFFFFFFFFFFFFFFFFFFFFFFFFFFFFFFFFFFFFFFFFFFFFF SUB DUP3 GT ISZERO PUSH2 0x34F JUMPI PUSH2 0x34E PUSH2 0x396 JUMP JUMPDEST JUMPDEST DUP3 DUP3 ADD SWAP1 POP SWAP3 SWAP2 POP POP JUMP JUMPDEST PUSH1 0x0 PUSH2 0x365 DUP3 PUSH2 0x36C JUMP JUMPDEST SWAP1 POP SWAP2 SWAP1 POP JUMP JUMPDEST PUSH1 0x0 PUSH20 0xFFFFFFFFFFFFFFFFFFFFFFFFFFFFFFFFFFFFFFFF DUP3 AND SWAP1 POP SWAP2 SWAP1 POP JUMP JUMPDEST PUSH1 0x0 DUP2 SWAP1 POP SWAP2 SWAP1 POP JUMP JUMPDEST PUSH32 0x4E487B7100000000000000000000000000000000000000000000000000000000 PUSH1 0x0 MSTORE PUSH1 0x11 PUSH1 0x4 MSTORE PUSH1 0x24 PUSH1 0x0 REVERT JUMPDEST PUSH1 0x0 DUP1 REVERT JUMPDEST PUSH2 0x3D3 DUP2 PUSH2 0x35A JUMP JUMPDEST DUP2 EQ PUSH2 0x3DE JUMPI PUSH1 0x0 DUP1 REVERT JUMPDEST POP JUMP JUMPDEST PUSH2 0x3EA DUP2 PUSH2 0x38C JUMP JUMPDEST DUP2 EQ PUSH2 0x3F5 JUMPI PUSH1 0x0 DUP1 REVERT JUMPDEST POP JUMP INVALID LOG2 PUSH5 0x6970667358 0x22 SLT KECCAK256 CALLDATACOPY SWAP15 INVALID ISZERO OR 0xC6 0xD0 PUSH20 0x3E6612E356B8443D1B42E13FF6955338077C4A0C 0xCF GASPRICE 0xBC DUP8 PUSH5 0x736F6C6343 STOP ADDMOD SMOD STOP CALLER "
				},
				"gasEstimates": {
					"creation": {
						"codeDepositCost": "214000",
						"executionCost": "257",
						"totalCost": "214257"
					},
					"external": {
						"balanceReceived()": "2429",
						"getBalance()": "317",
						"recieveMoney()": "infinite",
						"sendMoney(address,uint256)": "infinite",
						"withdrawMoney()": "infinite"
					}
				},
				"methodIdentifiers": {
					"balanceReceived()": "52a90c42",
					"getBalance()": "12065fe0",
					"recieveMoney()": "cca955a0",
					"sendMoney(address,uint256)": "ee4ae2c9",
					"withdrawMoney()": "ac446002"
				}
			},
			"storageLayout": {
				"storage": [
					{
						"astId": 3,
						"contract": "contracts/basics/03-SendMoneyExample.sol:SendMoneyExamples",
						"label": "balanceReceived",
						"offset": 0,
						"slot": "0",
						"type": "t_uint256"
					}
				],
				"types": {
					"t_uint256": {
						"encoding": "inplace",
						"label": "uint256",
						"numberOfBytes": "32"
					}
				}
			},
			"userdoc": {
				"kind": "user",
				"methods": {},
				"version": 1
			}
		}
	}
}