{
	"contracts/basics/07-ExceptionHandlingExample.sol": {
		"ExceptionHandlingExample": {
			"abi": [
				{
					"inputs": [],
					"name": "receiveMoney",
					"outputs": [],
					"stateMutability": "payable",
					"type": "function"
				},
				{
					"inputs": [
						{
							"internalType": "address payable",
							"name": "_to",
							"type": "address"
						},
						{
							"internalType": "uint256",
							"name": "_amount",
							"type": "uint256"
						}
					],
					"name": "withdrawMoney",
					"outputs": [],
					"stateMutability": "nonpayable",
					"type": "function"
				}
			],
			"devdoc": {
				"kind": "dev",
				"methods": {},
				"version": 1
			},
			"evm": {
				"assembly": "    /* \"contracts/basics/07-ExceptionHandlingExample.sol\":55:475  contract ExceptionHandlingExample{\r... */\n  mstore(0x40, 0x80)\n  callvalue\n  dup1\n  iszero\n  tag_1\n  jumpi\n  0x00\n  dup1\n  revert\ntag_1:\n  pop\n  dataSize(sub_0)\n  dup1\n  dataOffset(sub_0)\n  0x00\n  codecopy\n  0x00\n  return\nstop\n\nsub_0: assembly {\n        /* \"contracts/basics/07-ExceptionHandlingExample.sol\":55:475  contract ExceptionHandlingExample{\r... */\n      mstore(0x40, 0x80)\n      jumpi(tag_1, lt(calldatasize, 0x04))\n      shr(0xe0, calldataload(0x00))\n      dup1\n      0x6d26ec18\n      eq\n      tag_2\n      jumpi\n      dup1\n      0xf274c897\n      eq\n      tag_3\n      jumpi\n    tag_1:\n      0x00\n      dup1\n      revert\n        /* \"contracts/basics/07-ExceptionHandlingExample.sol\":143:238  function receiveMoney() payable public{\r... */\n    tag_2:\n      tag_4\n      tag_5\n      jump\t// in\n    tag_4:\n      stop\n        /* \"contracts/basics/07-ExceptionHandlingExample.sol\":246:472  function withdrawMoney(address payable _to, uint _amount) public{\r... */\n    tag_3:\n      callvalue\n      dup1\n      iszero\n      tag_6\n      jumpi\n      0x00\n      dup1\n      revert\n    tag_6:\n      pop\n      tag_7\n      0x04\n      dup1\n      calldatasize\n      sub\n      dup2\n      add\n      swap1\n      tag_8\n      swap2\n      swap1\n      tag_9\n      jump\t// in\n    tag_8:\n      tag_10\n      jump\t// in\n    tag_7:\n      stop\n        /* \"contracts/basics/07-ExceptionHandlingExample.sol\":143:238  function receiveMoney() payable public{\r... */\n    tag_5:\n        /* \"contracts/basics/07-ExceptionHandlingExample.sol\":221:230  msg.value */\n      callvalue\n        /* \"contracts/basics/07-ExceptionHandlingExample.sol\":192:207  balanceReceived */\n      0x00\n        /* \"contracts/basics/07-ExceptionHandlingExample.sol\":192:219  balanceReceived[msg.sender] */\n      dup1\n        /* \"contracts/basics/07-ExceptionHandlingExample.sol\":208:218  msg.sender */\n      caller\n        /* \"contracts/basics/07-ExceptionHandlingExample.sol\":192:219  balanceReceived[msg.sender] */\n      0xffffffffffffffffffffffffffffffffffffffff\n      and\n      0xffffffffffffffffffffffffffffffffffffffff\n      and\n      dup2\n      mstore\n      0x20\n      add\n      swap1\n      dup2\n      mstore\n      0x20\n      add\n      0x00\n      keccak256\n      0x00\n        /* \"contracts/basics/07-ExceptionHandlingExample.sol\":192:230  balanceReceived[msg.sender]+=msg.value */\n      dup3\n      dup3\n      sload\n      tag_12\n      swap2\n      swap1\n      tag_13\n      jump\t// in\n    tag_12:\n      swap3\n      pop\n      pop\n      dup2\n      swap1\n      sstore\n      pop\n        /* \"contracts/basics/07-ExceptionHandlingExample.sol\":143:238  function receiveMoney() payable public{\r... */\n      jump\t// out\n        /* \"contracts/basics/07-ExceptionHandlingExample.sol\":246:472  function withdrawMoney(address payable _to, uint _amount) public{\r... */\n    tag_10:\n        /* \"contracts/basics/07-ExceptionHandlingExample.sol\":337:352  balanceReceived */\n      0x00\n        /* \"contracts/basics/07-ExceptionHandlingExample.sol\":337:364  balanceReceived[msg.sender] */\n      dup1\n        /* \"contracts/basics/07-ExceptionHandlingExample.sol\":353:363  msg.sender */\n      caller\n        /* \"contracts/basics/07-ExceptionHandlingExample.sol\":337:364  balanceReceived[msg.sender] */\n      0xffffffffffffffffffffffffffffffffffffffff\n      and\n      0xffffffffffffffffffffffffffffffffffffffff\n      and\n      dup2\n      mstore\n      0x20\n      add\n      swap1\n      dup2\n      mstore\n      0x20\n      add\n      0x00\n      keccak256\n      sload\n        /* \"contracts/basics/07-ExceptionHandlingExample.sol\":328:335  _amount */\n      dup2\n        /* \"contracts/basics/07-ExceptionHandlingExample.sol\":328:364  _amount<=balanceReceived[msg.sender] */\n      gt\n      iszero\n        /* \"contracts/basics/07-ExceptionHandlingExample.sol\":320:365  require(_amount<=balanceReceived[msg.sender]) */\n      tag_15\n      jumpi\n      0x00\n      dup1\n      revert\n    tag_15:\n        /* \"contracts/basics/07-ExceptionHandlingExample.sol\":411:418  _amount */\n      dup1\n        /* \"contracts/basics/07-ExceptionHandlingExample.sol\":380:395  balanceReceived */\n      0x00\n        /* \"contracts/basics/07-ExceptionHandlingExample.sol\":380:407  balanceReceived[msg.sender] */\n      dup1\n        /* \"contracts/basics/07-ExceptionHandlingExample.sol\":396:406  msg.sender */\n      caller\n        /* \"contracts/basics/07-ExceptionHandlingExample.sol\":380:407  balanceReceived[msg.sender] */\n      0xffffffffffffffffffffffffffffffffffffffff\n      and\n      0xffffffffffffffffffffffffffffffffffffffff\n      and\n      dup2\n      mstore\n      0x20\n      add\n      swap1\n      dup2\n      mstore\n      0x20\n      add\n      0x00\n      keccak256\n      0x00\n        /* \"contracts/basics/07-ExceptionHandlingExample.sol\":380:418  balanceReceived[msg.sender] -= _amount */\n      dup3\n      dup3\n      sload\n      tag_16\n      swap2\n      swap1\n      tag_17\n      jump\t// in\n    tag_16:\n      swap3\n      pop\n      pop\n      dup2\n      swap1\n      sstore\n      pop\n        /* \"contracts/basics/07-ExceptionHandlingExample.sol\":433:436  _to */\n      dup2\n        /* \"contracts/basics/07-ExceptionHandlingExample.sol\":433:445  _to.transfer */\n      0xffffffffffffffffffffffffffffffffffffffff\n      and\n        /* \"contracts/basics/07-ExceptionHandlingExample.sol\":433:454  _to.transfer(_amount) */\n      0x08fc\n        /* \"contracts/basics/07-ExceptionHandlingExample.sol\":446:453  _amount */\n      dup3\n        /* \"contracts/basics/07-ExceptionHandlingExample.sol\":433:454  _to.transfer(_amount) */\n      swap1\n      dup2\n      iszero\n      mul\n      swap1\n      mload(0x40)\n      0x00\n      mload(0x40)\n      dup1\n      dup4\n      sub\n      dup2\n      dup6\n      dup9\n      dup9\n      call\n      swap4\n      pop\n      pop\n      pop\n      pop\n      iszero\n      dup1\n      iszero\n      tag_19\n      jumpi\n      returndatasize\n      0x00\n      dup1\n      returndatacopy\n      revert(0x00, returndatasize)\n    tag_19:\n      pop\n        /* \"contracts/basics/07-ExceptionHandlingExample.sol\":246:472  function withdrawMoney(address payable _to, uint _amount) public{\r... */\n      pop\n      pop\n      jump\t// out\n        /* \"#utility.yul\":7:162   */\n    tag_21:\n        /* \"#utility.yul\":61:66   */\n      0x00\n        /* \"#utility.yul\":99:105   */\n      dup2\n        /* \"#utility.yul\":86:106   */\n      calldataload\n        /* \"#utility.yul\":77:106   */\n      swap1\n      pop\n        /* \"#utility.yul\":115:156   */\n      tag_23\n        /* \"#utility.yul\":150:155   */\n      dup2\n        /* \"#utility.yul\":115:156   */\n      tag_24\n      jump\t// in\n    tag_23:\n        /* \"#utility.yul\":7:162   */\n      swap3\n      swap2\n      pop\n      pop\n      jump\t// out\n        /* \"#utility.yul\":168:307   */\n    tag_25:\n        /* \"#utility.yul\":214:219   */\n      0x00\n        /* \"#utility.yul\":252:258   */\n      dup2\n        /* \"#utility.yul\":239:259   */\n      calldataload\n        /* \"#utility.yul\":230:259   */\n      swap1\n      pop\n        /* \"#utility.yul\":268:301   */\n      tag_27\n        /* \"#utility.yul\":295:300   */\n      dup2\n        /* \"#utility.yul\":268:301   */\n      tag_28\n      jump\t// in\n    tag_27:\n        /* \"#utility.yul\":168:307   */\n      swap3\n      swap2\n      pop\n      pop\n      jump\t// out\n        /* \"#utility.yul\":313:803   */\n    tag_9:\n        /* \"#utility.yul\":389:395   */\n      0x00\n        /* \"#utility.yul\":397:403   */\n      dup1\n        /* \"#utility.yul\":446:448   */\n      0x40\n        /* \"#utility.yul\":434:443   */\n      dup4\n        /* \"#utility.yul\":425:432   */\n      dup6\n        /* \"#utility.yul\":421:444   */\n      sub\n        /* \"#utility.yul\":417:449   */\n      slt\n        /* \"#utility.yul\":414:533   */\n      iszero\n      tag_30\n      jumpi\n        /* \"#utility.yul\":452:531   */\n      tag_31\n      tag_32\n      jump\t// in\n    tag_31:\n        /* \"#utility.yul\":414:533   */\n    tag_30:\n        /* \"#utility.yul\":572:573   */\n      0x00\n        /* \"#utility.yul\":597:658   */\n      tag_33\n        /* \"#utility.yul\":650:657   */\n      dup6\n        /* \"#utility.yul\":641:647   */\n      dup3\n        /* \"#utility.yul\":630:639   */\n      dup7\n        /* \"#utility.yul\":626:648   */\n      add\n        /* \"#utility.yul\":597:658   */\n      tag_21\n      jump\t// in\n    tag_33:\n        /* \"#utility.yul\":587:658   */\n      swap3\n      pop\n        /* \"#utility.yul\":543:668   */\n      pop\n        /* \"#utility.yul\":707:709   */\n      0x20\n        /* \"#utility.yul\":733:786   */\n      tag_34\n        /* \"#utility.yul\":778:785   */\n      dup6\n        /* \"#utility.yul\":769:775   */\n      dup3\n        /* \"#utility.yul\":758:767   */\n      dup7\n        /* \"#utility.yul\":754:776   */\n      add\n        /* \"#utility.yul\":733:786   */\n      tag_25\n      jump\t// in\n    tag_34:\n        /* \"#utility.yul\":723:786   */\n      swap2\n      pop\n        /* \"#utility.yul\":678:796   */\n      pop\n        /* \"#utility.yul\":313:803   */\n      swap3\n      pop\n      swap3\n      swap1\n      pop\n      jump\t// out\n        /* \"#utility.yul\":890:1195   */\n    tag_13:\n        /* \"#utility.yul\":930:933   */\n      0x00\n        /* \"#utility.yul\":949:969   */\n      tag_38\n        /* \"#utility.yul\":967:968   */\n      dup3\n        /* \"#utility.yul\":949:969   */\n      tag_39\n      jump\t// in\n    tag_38:\n        /* \"#utility.yul\":944:969   */\n      swap2\n      pop\n        /* \"#utility.yul\":983:1003   */\n      tag_40\n        /* \"#utility.yul\":1001:1002   */\n      dup4\n        /* \"#utility.yul\":983:1003   */\n      tag_39\n      jump\t// in\n    tag_40:\n        /* \"#utility.yul\":978:1003   */\n      swap3\n      pop\n        /* \"#utility.yul\":1137:1138   */\n      dup3\n        /* \"#utility.yul\":1069:1135   */\n      0xffffffffffffffffffffffffffffffffffffffffffffffffffffffffffffffff\n        /* \"#utility.yul\":1065:1139   */\n      sub\n        /* \"#utility.yul\":1062:1063   */\n      dup3\n        /* \"#utility.yul\":1059:1140   */\n      gt\n        /* \"#utility.yul\":1056:1163   */\n      iszero\n      tag_41\n      jumpi\n        /* \"#utility.yul\":1143:1161   */\n      tag_42\n      tag_43\n      jump\t// in\n    tag_42:\n        /* \"#utility.yul\":1056:1163   */\n    tag_41:\n        /* \"#utility.yul\":1187:1188   */\n      dup3\n        /* \"#utility.yul\":1184:1185   */\n      dup3\n        /* \"#utility.yul\":1180:1189   */\n      add\n        /* \"#utility.yul\":1173:1189   */\n      swap1\n      pop\n        /* \"#utility.yul\":890:1195   */\n      swap3\n      swap2\n      pop\n      pop\n      jump\t// out\n        /* \"#utility.yul\":1201:1392   */\n    tag_17:\n        /* \"#utility.yul\":1241:1245   */\n      0x00\n        /* \"#utility.yul\":1261:1281   */\n      tag_45\n        /* \"#utility.yul\":1279:1280   */\n      dup3\n        /* \"#utility.yul\":1261:1281   */\n      tag_39\n      jump\t// in\n    tag_45:\n        /* \"#utility.yul\":1256:1281   */\n      swap2\n      pop\n        /* \"#utility.yul\":1295:1315   */\n      tag_46\n        /* \"#utility.yul\":1313:1314   */\n      dup4\n        /* \"#utility.yul\":1295:1315   */\n      tag_39\n      jump\t// in\n    tag_46:\n        /* \"#utility.yul\":1290:1315   */\n      swap3\n      pop\n        /* \"#utility.yul\":1334:1335   */\n      dup3\n        /* \"#utility.yul\":1331:1332   */\n      dup3\n        /* \"#utility.yul\":1328:1336   */\n      lt\n        /* \"#utility.yul\":1325:1359   */\n      iszero\n      tag_47\n      jumpi\n        /* \"#utility.yul\":1339:1357   */\n      tag_48\n      tag_43\n      jump\t// in\n    tag_48:\n        /* \"#utility.yul\":1325:1359   */\n    tag_47:\n        /* \"#utility.yul\":1384:1385   */\n      dup3\n        /* \"#utility.yul\":1381:1382   */\n      dup3\n        /* \"#utility.yul\":1377:1386   */\n      sub\n        /* \"#utility.yul\":1369:1386   */\n      swap1\n      pop\n        /* \"#utility.yul\":1201:1392   */\n      swap3\n      swap2\n      pop\n      pop\n      jump\t// out\n        /* \"#utility.yul\":1398:1502   */\n    tag_49:\n        /* \"#utility.yul\":1443:1450   */\n      0x00\n        /* \"#utility.yul\":1472:1496   */\n      tag_51\n        /* \"#utility.yul\":1490:1495   */\n      dup3\n        /* \"#utility.yul\":1472:1496   */\n      tag_52\n      jump\t// in\n    tag_51:\n        /* \"#utility.yul\":1461:1496   */\n      swap1\n      pop\n        /* \"#utility.yul\":1398:1502   */\n      swap2\n      swap1\n      pop\n      jump\t// out\n        /* \"#utility.yul\":1508:1634   */\n    tag_52:\n        /* \"#utility.yul\":1545:1552   */\n      0x00\n        /* \"#utility.yul\":1585:1627   */\n      0xffffffffffffffffffffffffffffffffffffffff\n        /* \"#utility.yul\":1578:1583   */\n      dup3\n        /* \"#utility.yul\":1574:1628   */\n      and\n        /* \"#utility.yul\":1563:1628   */\n      swap1\n      pop\n        /* \"#utility.yul\":1508:1634   */\n      swap2\n      swap1\n      pop\n      jump\t// out\n        /* \"#utility.yul\":1640:1717   */\n    tag_39:\n        /* \"#utility.yul\":1677:1684   */\n      0x00\n        /* \"#utility.yul\":1706:1711   */\n      dup2\n        /* \"#utility.yul\":1695:1711   */\n      swap1\n      pop\n        /* \"#utility.yul\":1640:1717   */\n      swap2\n      swap1\n      pop\n      jump\t// out\n        /* \"#utility.yul\":1723:1903   */\n    tag_43:\n        /* \"#utility.yul\":1771:1848   */\n      0x4e487b7100000000000000000000000000000000000000000000000000000000\n        /* \"#utility.yul\":1768:1769   */\n      0x00\n        /* \"#utility.yul\":1761:1849   */\n      mstore\n        /* \"#utility.yul\":1868:1872   */\n      0x11\n        /* \"#utility.yul\":1865:1866   */\n      0x04\n        /* \"#utility.yul\":1858:1873   */\n      mstore\n        /* \"#utility.yul\":1892:1896   */\n      0x24\n        /* \"#utility.yul\":1889:1890   */\n      0x00\n        /* \"#utility.yul\":1882:1897   */\n      revert\n        /* \"#utility.yul\":2032:2149   */\n    tag_32:\n        /* \"#utility.yul\":2141:2142   */\n      0x00\n        /* \"#utility.yul\":2138:2139   */\n      dup1\n        /* \"#utility.yul\":2131:2143   */\n      revert\n        /* \"#utility.yul\":2155:2293   */\n    tag_24:\n        /* \"#utility.yul\":2236:2268   */\n      tag_60\n        /* \"#utility.yul\":2262:2267   */\n      dup2\n        /* \"#utility.yul\":2236:2268   */\n      tag_49\n      jump\t// in\n    tag_60:\n        /* \"#utility.yul\":2229:2234   */\n      dup2\n        /* \"#utility.yul\":2226:2269   */\n      eq\n        /* \"#utility.yul\":2216:2287   */\n      tag_61\n      jumpi\n        /* \"#utility.yul\":2283:2284   */\n      0x00\n        /* \"#utility.yul\":2280:2281   */\n      dup1\n        /* \"#utility.yul\":2273:2285   */\n      revert\n        /* \"#utility.yul\":2216:2287   */\n    tag_61:\n        /* \"#utility.yul\":2155:2293   */\n      pop\n      jump\t// out\n        /* \"#utility.yul\":2299:2421   */\n    tag_28:\n        /* \"#utility.yul\":2372:2396   */\n      tag_63\n        /* \"#utility.yul\":2390:2395   */\n      dup2\n        /* \"#utility.yul\":2372:2396   */\n      tag_39\n      jump\t// in\n    tag_63:\n        /* \"#utility.yul\":2365:2370   */\n      dup2\n        /* \"#utility.yul\":2362:2397   */\n      eq\n        /* \"#utility.yul\":2352:2415   */\n      tag_64\n      jumpi\n        /* \"#utility.yul\":2411:2412   */\n      0x00\n        /* \"#utility.yul\":2408:2409   */\n      dup1\n        /* \"#utility.yul\":2401:2413   */\n      revert\n        /* \"#utility.yul\":2352:2415   */\n    tag_64:\n        /* \"#utility.yul\":2299:2421   */\n      pop\n      jump\t// out\n\n    auxdata: 0xa26469706673582212204c8645fc98658c664497d3854fbc59d328e4e983b06d545722ebf944415b810764736f6c63430008070033\n}\n",
				"bytecode": {
					"linkReferences": {},
					"object": "608060405234801561001057600080fd5b5061036b806100206000396000f3fe6080604052600436106100295760003560e01c80636d26ec181461002e578063f274c89714610038575b600080fd5b610036610061565b005b34801561004457600080fd5b5061005f600480360381019061005a91906101cd565b6100b8565b005b346000803373ffffffffffffffffffffffffffffffffffffffff1673ffffffffffffffffffffffffffffffffffffffff16815260200190815260200160002060008282546100af919061020d565b92505081905550565b6000803373ffffffffffffffffffffffffffffffffffffffff1673ffffffffffffffffffffffffffffffffffffffff1681526020019081526020016000205481111561010357600080fd5b806000803373ffffffffffffffffffffffffffffffffffffffff1673ffffffffffffffffffffffffffffffffffffffff16815260200190815260200160002060008282546101519190610263565b925050819055508173ffffffffffffffffffffffffffffffffffffffff166108fc829081150290604051600060405180830381858888f1935050505015801561019e573d6000803e3d6000fd5b505050565b6000813590506101b281610307565b92915050565b6000813590506101c78161031e565b92915050565b600080604083850312156101e4576101e3610302565b5b60006101f2858286016101a3565b9250506020610203858286016101b8565b9150509250929050565b6000610218826102c9565b9150610223836102c9565b9250827fffffffffffffffffffffffffffffffffffffffffffffffffffffffffffffffff03821115610258576102576102d3565b5b828201905092915050565b600061026e826102c9565b9150610279836102c9565b92508282101561028c5761028b6102d3565b5b828203905092915050565b60006102a2826102a9565b9050919050565b600073ffffffffffffffffffffffffffffffffffffffff82169050919050565b6000819050919050565b7f4e487b7100000000000000000000000000000000000000000000000000000000600052601160045260246000fd5b600080fd5b61031081610297565b811461031b57600080fd5b50565b610327816102c9565b811461033257600080fd5b5056fea26469706673582212204c8645fc98658c664497d3854fbc59d328e4e983b06d545722ebf944415b810764736f6c63430008070033",
					"opcodes": "PUSH1 0x80 PUSH1 0x40 MSTORE CALLVALUE DUP1 ISZERO PUSH2 0x10 JUMPI PUSH1 0x0 DUP1 REVERT JUMPDEST POP PUSH2 0x36B DUP1 PUSH2 0x20 PUSH1 0x0 CODECOPY PUSH1 0x0 RETURN INVALID PUSH1 0x80 PUSH1 0x40 MSTORE PUSH1 0x4 CALLDATASIZE LT PUSH2 0x29 JUMPI PUSH1 0x0 CALLDATALOAD PUSH1 0xE0 SHR DUP1 PUSH4 0x6D26EC18 EQ PUSH2 0x2E JUMPI DUP1 PUSH4 0xF274C897 EQ PUSH2 0x38 JUMPI JUMPDEST PUSH1 0x0 DUP1 REVERT JUMPDEST PUSH2 0x36 PUSH2 0x61 JUMP JUMPDEST STOP JUMPDEST CALLVALUE DUP1 ISZERO PUSH2 0x44 JUMPI PUSH1 0x0 DUP1 REVERT JUMPDEST POP PUSH2 0x5F PUSH1 0x4 DUP1 CALLDATASIZE SUB DUP2 ADD SWAP1 PUSH2 0x5A SWAP2 SWAP1 PUSH2 0x1CD JUMP JUMPDEST PUSH2 0xB8 JUMP JUMPDEST STOP JUMPDEST CALLVALUE PUSH1 0x0 DUP1 CALLER PUSH20 0xFFFFFFFFFFFFFFFFFFFFFFFFFFFFFFFFFFFFFFFF AND PUSH20 0xFFFFFFFFFFFFFFFFFFFFFFFFFFFFFFFFFFFFFFFF AND DUP2 MSTORE PUSH1 0x20 ADD SWAP1 DUP2 MSTORE PUSH1 0x20 ADD PUSH1 0x0 KECCAK256 PUSH1 0x0 DUP3 DUP3 SLOAD PUSH2 0xAF SWAP2 SWAP1 PUSH2 0x20D JUMP JUMPDEST SWAP3 POP POP DUP2 SWAP1 SSTORE POP JUMP JUMPDEST PUSH1 0x0 DUP1 CALLER PUSH20 0xFFFFFFFFFFFFFFFFFFFFFFFFFFFFFFFFFFFFFFFF AND PUSH20 0xFFFFFFFFFFFFFFFFFFFFFFFFFFFFFFFFFFFFFFFF AND DUP2 MSTORE PUSH1 0x20 ADD SWAP1 DUP2 MSTORE PUSH1 0x20 ADD PUSH1 0x0 KECCAK256 SLOAD DUP2 GT ISZERO PUSH2 0x103 JUMPI PUSH1 0x0 DUP1 REVERT JUMPDEST DUP1 PUSH1 0x0 DUP1 CALLER PUSH20 0xFFFFFFFFFFFFFFFFFFFFFFFFFFFFFFFFFFFFFFFF AND PUSH20 0xFFFFFFFFFFFFFFFFFFFFFFFFFFFFFFFFFFFFFFFF AND DUP2 MSTORE PUSH1 0x20 ADD SWAP1 DUP2 MSTORE PUSH1 0x20 ADD PUSH1 0x0 KECCAK256 PUSH1 0x0 DUP3 DUP3 SLOAD PUSH2 0x151 SWAP2 SWAP1 PUSH2 0x263 JUMP JUMPDEST SWAP3 POP POP DUP2 SWAP1 SSTORE POP DUP2 PUSH20 0xFFFFFFFFFFFFFFFFFFFFFFFFFFFFFFFFFFFFFFFF AND PUSH2 0x8FC DUP3 SWAP1 DUP2 ISZERO MUL SWAP1 PUSH1 0x40 MLOAD PUSH1 0x0 PUSH1 0x40 MLOAD DUP1 DUP4 SUB DUP2 DUP6 DUP9 DUP9 CALL SWAP4 POP POP POP POP ISZERO DUP1 ISZERO PUSH2 0x19E JUMPI RETURNDATASIZE PUSH1 0x0 DUP1 RETURNDATACOPY RETURNDATASIZE PUSH1 0x0 REVERT JUMPDEST POP POP POP JUMP JUMPDEST PUSH1 0x0 DUP2 CALLDATALOAD SWAP1 POP PUSH2 0x1B2 DUP2 PUSH2 0x307 JUMP JUMPDEST SWAP3 SWAP2 POP POP JUMP JUMPDEST PUSH1 0x0 DUP2 CALLDATALOAD SWAP1 POP PUSH2 0x1C7 DUP2 PUSH2 0x31E JUMP JUMPDEST SWAP3 SWAP2 POP POP JUMP JUMPDEST PUSH1 0x0 DUP1 PUSH1 0x40 DUP4 DUP6 SUB SLT ISZERO PUSH2 0x1E4 JUMPI PUSH2 0x1E3 PUSH2 0x302 JUMP JUMPDEST JUMPDEST PUSH1 0x0 PUSH2 0x1F2 DUP6 DUP3 DUP7 ADD PUSH2 0x1A3 JUMP JUMPDEST SWAP3 POP POP PUSH1 0x20 PUSH2 0x203 DUP6 DUP3 DUP7 ADD PUSH2 0x1B8 JUMP JUMPDEST SWAP2 POP POP SWAP3 POP SWAP3 SWAP1 POP JUMP JUMPDEST PUSH1 0x0 PUSH2 0x218 DUP3 PUSH2 0x2C9 JUMP JUMPDEST SWAP2 POP PUSH2 0x223 DUP4 PUSH2 0x2C9 JUMP JUMPDEST SWAP3 POP DUP3 PUSH32 0xFFFFFFFFFFFFFFFFFFFFFFFFFFFFFFFFFFFFFFFFFFFFFFFFFFFFFFFFFFFFFFFF SUB DUP3 GT ISZERO PUSH2 0x258 JUMPI PUSH2 0x257 PUSH2 0x2D3 JUMP JUMPDEST JUMPDEST DUP3 DUP3 ADD SWAP1 POP SWAP3 SWAP2 POP POP JUMP JUMPDEST PUSH1 0x0 PUSH2 0x26E DUP3 PUSH2 0x2C9 JUMP JUMPDEST SWAP2 POP PUSH2 0x279 DUP4 PUSH2 0x2C9 JUMP JUMPDEST SWAP3 POP DUP3 DUP3 LT ISZERO PUSH2 0x28C JUMPI PUSH2 0x28B PUSH2 0x2D3 JUMP JUMPDEST JUMPDEST DUP3 DUP3 SUB SWAP1 POP SWAP3 SWAP2 POP POP JUMP JUMPDEST PUSH1 0x0 PUSH2 0x2A2 DUP3 PUSH2 0x2A9 JUMP JUMPDEST SWAP1 POP SWAP2 SWAP1 POP JUMP JUMPDEST PUSH1 0x0 PUSH20 0xFFFFFFFFFFFFFFFFFFFFFFFFFFFFFFFFFFFFFFFF DUP3 AND SWAP1 POP SWAP2 SWAP1 POP JUMP JUMPDEST PUSH1 0x0 DUP2 SWAP1 POP SWAP2 SWAP1 POP JUMP JUMPDEST PUSH32 0x4E487B7100000000000000000000000000000000000000000000000000000000 PUSH1 0x0 MSTORE PUSH1 0x11 PUSH1 0x4 MSTORE PUSH1 0x24 PUSH1 0x0 REVERT JUMPDEST PUSH1 0x0 DUP1 REVERT JUMPDEST PUSH2 0x310 DUP2 PUSH2 0x297 JUMP JUMPDEST DUP2 EQ PUSH2 0x31B JUMPI PUSH1 0x0 DUP1 REVERT JUMPDEST POP JUMP JUMPDEST PUSH2 0x327 DUP2 PUSH2 0x2C9 JUMP JUMPDEST DUP2 EQ PUSH2 0x332 JUMPI PUSH1 0x0 DUP1 REVERT JUMPDEST POP JUMP INVALID LOG2 PUSH5 0x6970667358 0x22 SLT KECCAK256 0x4C DUP7 GASLIMIT 0xFC SWAP9 PUSH6 0x8C664497D385 0x4F 0xBC MSIZE 0xD3 0x28 0xE4 0xE9 DUP4 0xB0 PUSH14 0x545722EBF944415B810764736F6C PUSH4 0x43000807 STOP CALLER "
				},
				"gasEstimates": {
					"creation": {
						"codeDepositCost": "175000",
						"executionCost": "220",
						"totalCost": "175220"
					},
					"external": {
						"receiveMoney()": "infinite",
						"withdrawMoney(address,uint256)": "infinite"
					}
				},
				"methodIdentifiers": {
					"receiveMoney()": "6d26ec18",
					"withdrawMoney(address,uint256)": "f274c897"
				}
			},
			"storageLayout": {
				"storage": [
					{
						"astId": 5,
						"contract": "contracts/basics/07-ExceptionHandlingExample.sol:ExceptionHandlingExample",
						"label": "balanceReceived",
						"offset": 0,
						"slot": "0",
						"type": "t_mapping(t_address,t_uint256)"
					}
				],
				"types": {
					"t_address": {
						"encoding": "inplace",
						"label": "address",
						"numberOfBytes": "20"
					},
					"t_mapping(t_address,t_uint256)": {
						"encoding": "mapping",
						"key": "t_address",
						"label": "mapping(address => uint256)",
						"numberOfBytes": "32",
						"value": "t_uint256"
					},
					"t_uint256": {
						"encoding": "inplace",
						"label": "uint256",
						"numberOfBytes": "32"
					}
				}
			},
			"userdoc": {
				"kind": "user",
				"methods": {},
				"version": 1
			}
		}
	}
}