{
	"contracts/basics/04-StartStopUpdateExample.sol": {
		"StartStopUpdateExample": {
			"abi": [
				{
					"inputs": [],
					"stateMutability": "nonpayable",
					"type": "constructor"
				},
				{
					"inputs": [
						{
							"internalType": "address payable",
							"name": "_to",
							"type": "address"
						}
					],
					"name": "destroySmartContract",
					"outputs": [],
					"stateMutability": "nonpayable",
					"type": "function"
				},
				{
					"inputs": [],
					"name": "paused",
					"outputs": [
						{
							"internalType": "bool",
							"name": "",
							"type": "bool"
						}
					],
					"stateMutability": "view",
					"type": "function"
				},
				{
					"inputs": [],
					"name": "sendMoney",
					"outputs": [],
					"stateMutability": "payable",
					"type": "function"
				},
				{
					"inputs": [
						{
							"internalType": "bool",
							"name": "_paused",
							"type": "bool"
						}
					],
					"name": "setPaused",
					"outputs": [],
					"stateMutability": "nonpayable",
					"type": "function"
				},
				{
					"inputs": [
						{
							"internalType": "address payable",
							"name": "_to",
							"type": "address"
						}
					],
					"name": "withdrawMoney",
					"outputs": [],
					"stateMutability": "nonpayable",
					"type": "function"
				}
			],
			"devdoc": {
				"kind": "dev",
				"methods": {},
				"version": 1
			},
			"evm": {
				"assembly": "    /* \"contracts/basics/04-StartStopUpdateExample.sol\":58:776  contract StartStopUpdateExample{\r... */\n  mstore(0x40, 0x80)\n    /* \"contracts/basics/04-StartStopUpdateExample.sol\":141:191  constructor(){\r... */\n  callvalue\n  dup1\n  iszero\n  tag_1\n  jumpi\n  0x00\n  dup1\n  revert\ntag_1:\n  pop\n    /* \"contracts/basics/04-StartStopUpdateExample.sol\":173:183  msg.sender */\n  caller\n    /* \"contracts/basics/04-StartStopUpdateExample.sol\":165:170  owner */\n  0x00\n  dup1\n    /* \"contracts/basics/04-StartStopUpdateExample.sol\":165:183  owner = msg.sender */\n  0x0100\n  exp\n  dup2\n  sload\n  dup2\n  0xffffffffffffffffffffffffffffffffffffffff\n  mul\n  not\n  and\n  swap1\n  dup4\n  0xffffffffffffffffffffffffffffffffffffffff\n  and\n  mul\n  or\n  swap1\n  sstore\n  pop\n    /* \"contracts/basics/04-StartStopUpdateExample.sol\":58:776  contract StartStopUpdateExample{\r... */\n  dataSize(sub_0)\n  dup1\n  dataOffset(sub_0)\n  0x00\n  codecopy\n  0x00\n  return\nstop\n\nsub_0: assembly {\n        /* \"contracts/basics/04-StartStopUpdateExample.sol\":58:776  contract StartStopUpdateExample{\r... */\n      mstore(0x40, 0x80)\n      jumpi(tag_1, lt(calldatasize, 0x04))\n      shr(0xe0, calldataload(0x00))\n      dup1\n      0x16c38b3c\n      eq\n      tag_2\n      jumpi\n      dup1\n      0x2f971029\n      eq\n      tag_3\n      jumpi\n      dup1\n      0x39df43ff\n      eq\n      tag_4\n      jumpi\n      dup1\n      0x5c975abb\n      eq\n      tag_5\n      jumpi\n      dup1\n      0xcbedbf5a\n      eq\n      tag_6\n      jumpi\n    tag_1:\n      0x00\n      dup1\n      revert\n        /* \"contracts/basics/04-StartStopUpdateExample.sol\":252:386  function setPaused(bool _paused) public{\r... */\n    tag_2:\n      callvalue\n      dup1\n      iszero\n      tag_7\n      jumpi\n      0x00\n      dup1\n      revert\n    tag_7:\n      pop\n      tag_8\n      0x04\n      dup1\n      calldatasize\n      sub\n      dup2\n      add\n      swap1\n      tag_9\n      swap2\n      swap1\n      tag_10\n      jump\t// in\n    tag_9:\n      tag_11\n      jump\t// in\n    tag_8:\n      stop\n        /* \"contracts/basics/04-StartStopUpdateExample.sol\":394:607  function withdrawMoney(address payable _to) public{\r... */\n    tag_3:\n      callvalue\n      dup1\n      iszero\n      tag_12\n      jumpi\n      0x00\n      dup1\n      revert\n    tag_12:\n      pop\n      tag_13\n      0x04\n      dup1\n      calldatasize\n      sub\n      dup2\n      add\n      swap1\n      tag_14\n      swap2\n      swap1\n      tag_15\n      jump\t// in\n    tag_14:\n      tag_16\n      jump\t// in\n    tag_13:\n      stop\n        /* \"contracts/basics/04-StartStopUpdateExample.sol\":615:765  function destroySmartContract(address payable _to) public{\r... */\n    tag_4:\n      callvalue\n      dup1\n      iszero\n      tag_17\n      jumpi\n      0x00\n      dup1\n      revert\n    tag_17:\n      pop\n      tag_18\n      0x04\n      dup1\n      calldatasize\n      sub\n      dup2\n      add\n      swap1\n      tag_19\n      swap2\n      swap1\n      tag_15\n      jump\t// in\n    tag_19:\n      tag_20\n      jump\t// in\n    tag_18:\n      stop\n        /* \"contracts/basics/04-StartStopUpdateExample.sol\":116:134  bool public paused */\n    tag_5:\n      callvalue\n      dup1\n      iszero\n      tag_21\n      jumpi\n      0x00\n      dup1\n      revert\n    tag_21:\n      pop\n      tag_22\n      tag_23\n      jump\t// in\n    tag_22:\n      mload(0x40)\n      tag_24\n      swap2\n      swap1\n      tag_25\n      jump\t// in\n    tag_24:\n      mload(0x40)\n      dup1\n      swap2\n      sub\n      swap1\n      return\n        /* \"contracts/basics/04-StartStopUpdateExample.sol\":199:244  function sendMoney() public payable{\r... */\n    tag_6:\n      tag_26\n      tag_27\n      jump\t// in\n    tag_26:\n      stop\n        /* \"contracts/basics/04-StartStopUpdateExample.sol\":252:386  function setPaused(bool _paused) public{\r... */\n    tag_11:\n        /* \"contracts/basics/04-StartStopUpdateExample.sol\":322:327  owner */\n      0x00\n      dup1\n      sload\n      swap1\n      0x0100\n      exp\n      swap1\n      div\n      0xffffffffffffffffffffffffffffffffffffffff\n      and\n        /* \"contracts/basics/04-StartStopUpdateExample.sol\":310:327  msg.sender==owner */\n      0xffffffffffffffffffffffffffffffffffffffff\n      and\n        /* \"contracts/basics/04-StartStopUpdateExample.sol\":310:320  msg.sender */\n      caller\n        /* \"contracts/basics/04-StartStopUpdateExample.sol\":310:327  msg.sender==owner */\n      0xffffffffffffffffffffffffffffffffffffffff\n      and\n      eq\n        /* \"contracts/basics/04-StartStopUpdateExample.sol\":302:352  require(msg.sender==owner,\"You are not the owner\") */\n      tag_29\n      jumpi\n      mload(0x40)\n      0x08c379a000000000000000000000000000000000000000000000000000000000\n      dup2\n      mstore\n      0x04\n      add\n      tag_30\n      swap1\n      tag_31\n      jump\t// in\n    tag_30:\n      mload(0x40)\n      dup1\n      swap2\n      sub\n      swap1\n      revert\n    tag_29:\n        /* \"contracts/basics/04-StartStopUpdateExample.sol\":371:378  _paused */\n      dup1\n        /* \"contracts/basics/04-StartStopUpdateExample.sol\":363:369  paused */\n      0x00\n      0x14\n        /* \"contracts/basics/04-StartStopUpdateExample.sol\":363:378  paused= _paused */\n      0x0100\n      exp\n      dup2\n      sload\n      dup2\n      0xff\n      mul\n      not\n      and\n      swap1\n      dup4\n      iszero\n      iszero\n      mul\n      or\n      swap1\n      sstore\n      pop\n        /* \"contracts/basics/04-StartStopUpdateExample.sol\":252:386  function setPaused(bool _paused) public{\r... */\n      pop\n      jump\t// out\n        /* \"contracts/basics/04-StartStopUpdateExample.sol\":394:607  function withdrawMoney(address payable _to) public{\r... */\n    tag_16:\n        /* \"contracts/basics/04-StartStopUpdateExample.sol\":475:480  owner */\n      0x00\n      dup1\n      sload\n      swap1\n      0x0100\n      exp\n      swap1\n      div\n      0xffffffffffffffffffffffffffffffffffffffff\n      and\n        /* \"contracts/basics/04-StartStopUpdateExample.sol\":463:480  msg.sender==owner */\n      0xffffffffffffffffffffffffffffffffffffffff\n      and\n        /* \"contracts/basics/04-StartStopUpdateExample.sol\":463:473  msg.sender */\n      caller\n        /* \"contracts/basics/04-StartStopUpdateExample.sol\":463:480  msg.sender==owner */\n      0xffffffffffffffffffffffffffffffffffffffff\n      and\n      eq\n        /* \"contracts/basics/04-StartStopUpdateExample.sol\":455:505  require(msg.sender==owner,\"You are not the owner\") */\n      tag_33\n      jumpi\n      mload(0x40)\n      0x08c379a000000000000000000000000000000000000000000000000000000000\n      dup2\n      mstore\n      0x04\n      add\n      tag_34\n      swap1\n      tag_31\n      jump\t// in\n    tag_34:\n      mload(0x40)\n      dup1\n      swap2\n      sub\n      swap1\n      revert\n    tag_33:\n        /* \"contracts/basics/04-StartStopUpdateExample.sol\":525:531  paused */\n      0x00\n      0x14\n      swap1\n      sload\n      swap1\n      0x0100\n      exp\n      swap1\n      div\n      0xff\n      and\n        /* \"contracts/basics/04-StartStopUpdateExample.sol\":524:531  !paused */\n      iszero\n        /* \"contracts/basics/04-StartStopUpdateExample.sol\":516:553  require(!paused,\"Contract is paused\") */\n      tag_35\n      jumpi\n      mload(0x40)\n      0x08c379a000000000000000000000000000000000000000000000000000000000\n      dup2\n      mstore\n      0x04\n      add\n      tag_36\n      swap1\n      tag_37\n      jump\t// in\n    tag_36:\n      mload(0x40)\n      dup1\n      swap2\n      sub\n      swap1\n      revert\n    tag_35:\n        /* \"contracts/basics/04-StartStopUpdateExample.sol\":564:567  _to */\n      dup1\n        /* \"contracts/basics/04-StartStopUpdateExample.sol\":564:576  _to.transfer */\n      0xffffffffffffffffffffffffffffffffffffffff\n      and\n        /* \"contracts/basics/04-StartStopUpdateExample.sol\":564:599  _to.transfer(address(this).balance) */\n      0x08fc\n        /* \"contracts/basics/04-StartStopUpdateExample.sol\":577:598  address(this).balance */\n      selfbalance\n        /* \"contracts/basics/04-StartStopUpdateExample.sol\":564:599  _to.transfer(address(this).balance) */\n      swap1\n      dup2\n      iszero\n      mul\n      swap1\n      mload(0x40)\n      0x00\n      mload(0x40)\n      dup1\n      dup4\n      sub\n      dup2\n      dup6\n      dup9\n      dup9\n      call\n      swap4\n      pop\n      pop\n      pop\n      pop\n      iszero\n      dup1\n      iszero\n      tag_39\n      jumpi\n      returndatasize\n      0x00\n      dup1\n      returndatacopy\n      revert(0x00, returndatasize)\n    tag_39:\n      pop\n        /* \"contracts/basics/04-StartStopUpdateExample.sol\":394:607  function withdrawMoney(address payable _to) public{\r... */\n      pop\n      jump\t// out\n        /* \"contracts/basics/04-StartStopUpdateExample.sol\":615:765  function destroySmartContract(address payable _to) public{\r... */\n    tag_20:\n        /* \"contracts/basics/04-StartStopUpdateExample.sol\":703:708  owner */\n      0x00\n      dup1\n      sload\n      swap1\n      0x0100\n      exp\n      swap1\n      div\n      0xffffffffffffffffffffffffffffffffffffffff\n      and\n        /* \"contracts/basics/04-StartStopUpdateExample.sol\":691:708  msg.sender==owner */\n      0xffffffffffffffffffffffffffffffffffffffff\n      and\n        /* \"contracts/basics/04-StartStopUpdateExample.sol\":691:701  msg.sender */\n      caller\n        /* \"contracts/basics/04-StartStopUpdateExample.sol\":691:708  msg.sender==owner */\n      0xffffffffffffffffffffffffffffffffffffffff\n      and\n      eq\n        /* \"contracts/basics/04-StartStopUpdateExample.sol\":683:729  require(msg.sender==owner,\"You are not owner\") */\n      tag_41\n      jumpi\n      mload(0x40)\n      0x08c379a000000000000000000000000000000000000000000000000000000000\n      dup2\n      mstore\n      0x04\n      add\n      tag_42\n      swap1\n      tag_43\n      jump\t// in\n    tag_42:\n      mload(0x40)\n      dup1\n      swap2\n      sub\n      swap1\n      revert\n    tag_41:\n        /* \"contracts/basics/04-StartStopUpdateExample.sol\":753:756  _to */\n      dup1\n        /* \"contracts/basics/04-StartStopUpdateExample.sol\":740:757  selfdestruct(_to) */\n      0xffffffffffffffffffffffffffffffffffffffff\n      and\n      selfdestruct\n        /* \"contracts/basics/04-StartStopUpdateExample.sol\":116:134  bool public paused */\n    tag_23:\n      0x00\n      0x14\n      swap1\n      sload\n      swap1\n      0x0100\n      exp\n      swap1\n      div\n      0xff\n      and\n      dup2\n      jump\t// out\n        /* \"contracts/basics/04-StartStopUpdateExample.sol\":199:244  function sendMoney() public payable{\r... */\n    tag_27:\n      jump\t// out\n        /* \"#utility.yul\":7:162   */\n    tag_46:\n        /* \"#utility.yul\":61:66   */\n      0x00\n        /* \"#utility.yul\":99:105   */\n      dup2\n        /* \"#utility.yul\":86:106   */\n      calldataload\n        /* \"#utility.yul\":77:106   */\n      swap1\n      pop\n        /* \"#utility.yul\":115:156   */\n      tag_48\n        /* \"#utility.yul\":150:155   */\n      dup2\n        /* \"#utility.yul\":115:156   */\n      tag_49\n      jump\t// in\n    tag_48:\n        /* \"#utility.yul\":7:162   */\n      swap3\n      swap2\n      pop\n      pop\n      jump\t// out\n        /* \"#utility.yul\":168:301   */\n    tag_50:\n        /* \"#utility.yul\":211:216   */\n      0x00\n        /* \"#utility.yul\":249:255   */\n      dup2\n        /* \"#utility.yul\":236:256   */\n      calldataload\n        /* \"#utility.yul\":227:256   */\n      swap1\n      pop\n        /* \"#utility.yul\":265:295   */\n      tag_52\n        /* \"#utility.yul\":289:294   */\n      dup2\n        /* \"#utility.yul\":265:295   */\n      tag_53\n      jump\t// in\n    tag_52:\n        /* \"#utility.yul\":168:301   */\n      swap3\n      swap2\n      pop\n      pop\n      jump\t// out\n        /* \"#utility.yul\":307:652   */\n    tag_15:\n        /* \"#utility.yul\":374:380   */\n      0x00\n        /* \"#utility.yul\":423:425   */\n      0x20\n        /* \"#utility.yul\":411:420   */\n      dup3\n        /* \"#utility.yul\":402:409   */\n      dup5\n        /* \"#utility.yul\":398:421   */\n      sub\n        /* \"#utility.yul\":394:426   */\n      slt\n        /* \"#utility.yul\":391:510   */\n      iszero\n      tag_55\n      jumpi\n        /* \"#utility.yul\":429:508   */\n      tag_56\n      tag_57\n      jump\t// in\n    tag_56:\n        /* \"#utility.yul\":391:510   */\n    tag_55:\n        /* \"#utility.yul\":549:550   */\n      0x00\n        /* \"#utility.yul\":574:635   */\n      tag_58\n        /* \"#utility.yul\":627:634   */\n      dup5\n        /* \"#utility.yul\":618:624   */\n      dup3\n        /* \"#utility.yul\":607:616   */\n      dup6\n        /* \"#utility.yul\":603:625   */\n      add\n        /* \"#utility.yul\":574:635   */\n      tag_46\n      jump\t// in\n    tag_58:\n        /* \"#utility.yul\":564:635   */\n      swap2\n      pop\n        /* \"#utility.yul\":520:645   */\n      pop\n        /* \"#utility.yul\":307:652   */\n      swap3\n      swap2\n      pop\n      pop\n      jump\t// out\n        /* \"#utility.yul\":658:981   */\n    tag_10:\n        /* \"#utility.yul\":714:720   */\n      0x00\n        /* \"#utility.yul\":763:765   */\n      0x20\n        /* \"#utility.yul\":751:760   */\n      dup3\n        /* \"#utility.yul\":742:749   */\n      dup5\n        /* \"#utility.yul\":738:761   */\n      sub\n        /* \"#utility.yul\":734:766   */\n      slt\n        /* \"#utility.yul\":731:850   */\n      iszero\n      tag_60\n      jumpi\n        /* \"#utility.yul\":769:848   */\n      tag_61\n      tag_57\n      jump\t// in\n    tag_61:\n        /* \"#utility.yul\":731:850   */\n    tag_60:\n        /* \"#utility.yul\":889:890   */\n      0x00\n        /* \"#utility.yul\":914:964   */\n      tag_62\n        /* \"#utility.yul\":956:963   */\n      dup5\n        /* \"#utility.yul\":947:953   */\n      dup3\n        /* \"#utility.yul\":936:945   */\n      dup6\n        /* \"#utility.yul\":932:954   */\n      add\n        /* \"#utility.yul\":914:964   */\n      tag_50\n      jump\t// in\n    tag_62:\n        /* \"#utility.yul\":904:964   */\n      swap2\n      pop\n        /* \"#utility.yul\":860:974   */\n      pop\n        /* \"#utility.yul\":658:981   */\n      swap3\n      swap2\n      pop\n      pop\n      jump\t// out\n        /* \"#utility.yul\":987:1096   */\n    tag_63:\n        /* \"#utility.yul\":1068:1089   */\n      tag_65\n        /* \"#utility.yul\":1083:1088   */\n      dup2\n        /* \"#utility.yul\":1068:1089   */\n      tag_66\n      jump\t// in\n    tag_65:\n        /* \"#utility.yul\":1063:1066   */\n      dup3\n        /* \"#utility.yul\":1056:1090   */\n      mstore\n        /* \"#utility.yul\":987:1096   */\n      pop\n      pop\n      jump\t// out\n        /* \"#utility.yul\":1102:1468   */\n    tag_67:\n        /* \"#utility.yul\":1244:1247   */\n      0x00\n        /* \"#utility.yul\":1265:1332   */\n      tag_69\n        /* \"#utility.yul\":1329:1331   */\n      0x15\n        /* \"#utility.yul\":1324:1327   */\n      dup4\n        /* \"#utility.yul\":1265:1332   */\n      tag_70\n      jump\t// in\n    tag_69:\n        /* \"#utility.yul\":1258:1332   */\n      swap2\n      pop\n        /* \"#utility.yul\":1341:1434   */\n      tag_71\n        /* \"#utility.yul\":1430:1433   */\n      dup3\n        /* \"#utility.yul\":1341:1434   */\n      tag_72\n      jump\t// in\n    tag_71:\n        /* \"#utility.yul\":1459:1461   */\n      0x20\n        /* \"#utility.yul\":1454:1457   */\n      dup3\n        /* \"#utility.yul\":1450:1462   */\n      add\n        /* \"#utility.yul\":1443:1462   */\n      swap1\n      pop\n        /* \"#utility.yul\":1102:1468   */\n      swap2\n      swap1\n      pop\n      jump\t// out\n        /* \"#utility.yul\":1474:1840   */\n    tag_73:\n        /* \"#utility.yul\":1616:1619   */\n      0x00\n        /* \"#utility.yul\":1637:1704   */\n      tag_75\n        /* \"#utility.yul\":1701:1703   */\n      0x12\n        /* \"#utility.yul\":1696:1699   */\n      dup4\n        /* \"#utility.yul\":1637:1704   */\n      tag_70\n      jump\t// in\n    tag_75:\n        /* \"#utility.yul\":1630:1704   */\n      swap2\n      pop\n        /* \"#utility.yul\":1713:1806   */\n      tag_76\n        /* \"#utility.yul\":1802:1805   */\n      dup3\n        /* \"#utility.yul\":1713:1806   */\n      tag_77\n      jump\t// in\n    tag_76:\n        /* \"#utility.yul\":1831:1833   */\n      0x20\n        /* \"#utility.yul\":1826:1829   */\n      dup3\n        /* \"#utility.yul\":1822:1834   */\n      add\n        /* \"#utility.yul\":1815:1834   */\n      swap1\n      pop\n        /* \"#utility.yul\":1474:1840   */\n      swap2\n      swap1\n      pop\n      jump\t// out\n        /* \"#utility.yul\":1846:2212   */\n    tag_78:\n        /* \"#utility.yul\":1988:1991   */\n      0x00\n        /* \"#utility.yul\":2009:2076   */\n      tag_80\n        /* \"#utility.yul\":2073:2075   */\n      0x11\n        /* \"#utility.yul\":2068:2071   */\n      dup4\n        /* \"#utility.yul\":2009:2076   */\n      tag_70\n      jump\t// in\n    tag_80:\n        /* \"#utility.yul\":2002:2076   */\n      swap2\n      pop\n        /* \"#utility.yul\":2085:2178   */\n      tag_81\n        /* \"#utility.yul\":2174:2177   */\n      dup3\n        /* \"#utility.yul\":2085:2178   */\n      tag_82\n      jump\t// in\n    tag_81:\n        /* \"#utility.yul\":2203:2205   */\n      0x20\n        /* \"#utility.yul\":2198:2201   */\n      dup3\n        /* \"#utility.yul\":2194:2206   */\n      add\n        /* \"#utility.yul\":2187:2206   */\n      swap1\n      pop\n        /* \"#utility.yul\":1846:2212   */\n      swap2\n      swap1\n      pop\n      jump\t// out\n        /* \"#utility.yul\":2218:2428   */\n    tag_25:\n        /* \"#utility.yul\":2305:2309   */\n      0x00\n        /* \"#utility.yul\":2343:2345   */\n      0x20\n        /* \"#utility.yul\":2332:2341   */\n      dup3\n        /* \"#utility.yul\":2328:2346   */\n      add\n        /* \"#utility.yul\":2320:2346   */\n      swap1\n      pop\n        /* \"#utility.yul\":2356:2421   */\n      tag_84\n        /* \"#utility.yul\":2418:2419   */\n      0x00\n        /* \"#utility.yul\":2407:2416   */\n      dup4\n        /* \"#utility.yul\":2403:2420   */\n      add\n        /* \"#utility.yul\":2394:2400   */\n      dup5\n        /* \"#utility.yul\":2356:2421   */\n      tag_63\n      jump\t// in\n    tag_84:\n        /* \"#utility.yul\":2218:2428   */\n      swap3\n      swap2\n      pop\n      pop\n      jump\t// out\n        /* \"#utility.yul\":2434:2853   */\n    tag_31:\n        /* \"#utility.yul\":2600:2604   */\n      0x00\n        /* \"#utility.yul\":2638:2640   */\n      0x20\n        /* \"#utility.yul\":2627:2636   */\n      dup3\n        /* \"#utility.yul\":2623:2641   */\n      add\n        /* \"#utility.yul\":2615:2641   */\n      swap1\n      pop\n        /* \"#utility.yul\":2687:2696   */\n      dup2\n        /* \"#utility.yul\":2681:2685   */\n      dup2\n        /* \"#utility.yul\":2677:2697   */\n      sub\n        /* \"#utility.yul\":2673:2674   */\n      0x00\n        /* \"#utility.yul\":2662:2671   */\n      dup4\n        /* \"#utility.yul\":2658:2675   */\n      add\n        /* \"#utility.yul\":2651:2698   */\n      mstore\n        /* \"#utility.yul\":2715:2846   */\n      tag_86\n        /* \"#utility.yul\":2841:2845   */\n      dup2\n        /* \"#utility.yul\":2715:2846   */\n      tag_67\n      jump\t// in\n    tag_86:\n        /* \"#utility.yul\":2707:2846   */\n      swap1\n      pop\n        /* \"#utility.yul\":2434:2853   */\n      swap2\n      swap1\n      pop\n      jump\t// out\n        /* \"#utility.yul\":2859:3278   */\n    tag_37:\n        /* \"#utility.yul\":3025:3029   */\n      0x00\n        /* \"#utility.yul\":3063:3065   */\n      0x20\n        /* \"#utility.yul\":3052:3061   */\n      dup3\n        /* \"#utility.yul\":3048:3066   */\n      add\n        /* \"#utility.yul\":3040:3066   */\n      swap1\n      pop\n        /* \"#utility.yul\":3112:3121   */\n      dup2\n        /* \"#utility.yul\":3106:3110   */\n      dup2\n        /* \"#utility.yul\":3102:3122   */\n      sub\n        /* \"#utility.yul\":3098:3099   */\n      0x00\n        /* \"#utility.yul\":3087:3096   */\n      dup4\n        /* \"#utility.yul\":3083:3100   */\n      add\n        /* \"#utility.yul\":3076:3123   */\n      mstore\n        /* \"#utility.yul\":3140:3271   */\n      tag_88\n        /* \"#utility.yul\":3266:3270   */\n      dup2\n        /* \"#utility.yul\":3140:3271   */\n      tag_73\n      jump\t// in\n    tag_88:\n        /* \"#utility.yul\":3132:3271   */\n      swap1\n      pop\n        /* \"#utility.yul\":2859:3278   */\n      swap2\n      swap1\n      pop\n      jump\t// out\n        /* \"#utility.yul\":3284:3703   */\n    tag_43:\n        /* \"#utility.yul\":3450:3454   */\n      0x00\n        /* \"#utility.yul\":3488:3490   */\n      0x20\n        /* \"#utility.yul\":3477:3486   */\n      dup3\n        /* \"#utility.yul\":3473:3491   */\n      add\n        /* \"#utility.yul\":3465:3491   */\n      swap1\n      pop\n        /* \"#utility.yul\":3537:3546   */\n      dup2\n        /* \"#utility.yul\":3531:3535   */\n      dup2\n        /* \"#utility.yul\":3527:3547   */\n      sub\n        /* \"#utility.yul\":3523:3524   */\n      0x00\n        /* \"#utility.yul\":3512:3521   */\n      dup4\n        /* \"#utility.yul\":3508:3525   */\n      add\n        /* \"#utility.yul\":3501:3548   */\n      mstore\n        /* \"#utility.yul\":3565:3696   */\n      tag_90\n        /* \"#utility.yul\":3691:3695   */\n      dup2\n        /* \"#utility.yul\":3565:3696   */\n      tag_78\n      jump\t// in\n    tag_90:\n        /* \"#utility.yul\":3557:3696   */\n      swap1\n      pop\n        /* \"#utility.yul\":3284:3703   */\n      swap2\n      swap1\n      pop\n      jump\t// out\n        /* \"#utility.yul\":3790:3959   */\n    tag_70:\n        /* \"#utility.yul\":3874:3885   */\n      0x00\n        /* \"#utility.yul\":3908:3914   */\n      dup3\n        /* \"#utility.yul\":3903:3906   */\n      dup3\n        /* \"#utility.yul\":3896:3915   */\n      mstore\n        /* \"#utility.yul\":3948:3952   */\n      0x20\n        /* \"#utility.yul\":3943:3946   */\n      dup3\n        /* \"#utility.yul\":3939:3953   */\n      add\n        /* \"#utility.yul\":3924:3953   */\n      swap1\n      pop\n        /* \"#utility.yul\":3790:3959   */\n      swap3\n      swap2\n      pop\n      pop\n      jump\t// out\n        /* \"#utility.yul\":3965:4069   */\n    tag_94:\n        /* \"#utility.yul\":4010:4017   */\n      0x00\n        /* \"#utility.yul\":4039:4063   */\n      tag_96\n        /* \"#utility.yul\":4057:4062   */\n      dup3\n        /* \"#utility.yul\":4039:4063   */\n      tag_97\n      jump\t// in\n    tag_96:\n        /* \"#utility.yul\":4028:4063   */\n      swap1\n      pop\n        /* \"#utility.yul\":3965:4069   */\n      swap2\n      swap1\n      pop\n      jump\t// out\n        /* \"#utility.yul\":4075:4165   */\n    tag_66:\n        /* \"#utility.yul\":4109:4116   */\n      0x00\n        /* \"#utility.yul\":4152:4157   */\n      dup2\n        /* \"#utility.yul\":4145:4158   */\n      iszero\n        /* \"#utility.yul\":4138:4159   */\n      iszero\n        /* \"#utility.yul\":4127:4159   */\n      swap1\n      pop\n        /* \"#utility.yul\":4075:4165   */\n      swap2\n      swap1\n      pop\n      jump\t// out\n        /* \"#utility.yul\":4171:4297   */\n    tag_97:\n        /* \"#utility.yul\":4208:4215   */\n      0x00\n        /* \"#utility.yul\":4248:4290   */\n      0xffffffffffffffffffffffffffffffffffffffff\n        /* \"#utility.yul\":4241:4246   */\n      dup3\n        /* \"#utility.yul\":4237:4291   */\n      and\n        /* \"#utility.yul\":4226:4291   */\n      swap1\n      pop\n        /* \"#utility.yul\":4171:4297   */\n      swap2\n      swap1\n      pop\n      jump\t// out\n        /* \"#utility.yul\":4426:4543   */\n    tag_57:\n        /* \"#utility.yul\":4535:4536   */\n      0x00\n        /* \"#utility.yul\":4532:4533   */\n      dup1\n        /* \"#utility.yul\":4525:4537   */\n      revert\n        /* \"#utility.yul\":4549:4720   */\n    tag_72:\n        /* \"#utility.yul\":4689:4712   */\n      0x596f7520617265206e6f7420746865206f776e65720000000000000000000000\n        /* \"#utility.yul\":4685:4686   */\n      0x00\n        /* \"#utility.yul\":4677:4683   */\n      dup3\n        /* \"#utility.yul\":4673:4687   */\n      add\n        /* \"#utility.yul\":4666:4713   */\n      mstore\n        /* \"#utility.yul\":4549:4720   */\n      pop\n      jump\t// out\n        /* \"#utility.yul\":4726:4894   */\n    tag_77:\n        /* \"#utility.yul\":4866:4886   */\n      0x436f6e7472616374206973207061757365640000000000000000000000000000\n        /* \"#utility.yul\":4862:4863   */\n      0x00\n        /* \"#utility.yul\":4854:4860   */\n      dup3\n        /* \"#utility.yul\":4850:4864   */\n      add\n        /* \"#utility.yul\":4843:4887   */\n      mstore\n        /* \"#utility.yul\":4726:4894   */\n      pop\n      jump\t// out\n        /* \"#utility.yul\":4900:5067   */\n    tag_82:\n        /* \"#utility.yul\":5040:5059   */\n      0x596f7520617265206e6f74206f776e6572000000000000000000000000000000\n        /* \"#utility.yul\":5036:5037   */\n      0x00\n        /* \"#utility.yul\":5028:5034   */\n      dup3\n        /* \"#utility.yul\":5024:5038   */\n      add\n        /* \"#utility.yul\":5017:5060   */\n      mstore\n        /* \"#utility.yul\":4900:5067   */\n      pop\n      jump\t// out\n        /* \"#utility.yul\":5073:5211   */\n    tag_49:\n        /* \"#utility.yul\":5154:5186   */\n      tag_107\n        /* \"#utility.yul\":5180:5185   */\n      dup2\n        /* \"#utility.yul\":5154:5186   */\n      tag_94\n      jump\t// in\n    tag_107:\n        /* \"#utility.yul\":5147:5152   */\n      dup2\n        /* \"#utility.yul\":5144:5187   */\n      eq\n        /* \"#utility.yul\":5134:5205   */\n      tag_108\n      jumpi\n        /* \"#utility.yul\":5201:5202   */\n      0x00\n        /* \"#utility.yul\":5198:5199   */\n      dup1\n        /* \"#utility.yul\":5191:5203   */\n      revert\n        /* \"#utility.yul\":5134:5205   */\n    tag_108:\n        /* \"#utility.yul\":5073:5211   */\n      pop\n      jump\t// out\n        /* \"#utility.yul\":5217:5333   */\n    tag_53:\n        /* \"#utility.yul\":5287:5308   */\n      tag_110\n        /* \"#utility.yul\":5302:5307   */\n      dup2\n        /* \"#utility.yul\":5287:5308   */\n      tag_66\n      jump\t// in\n    tag_110:\n        /* \"#utility.yul\":5280:5285   */\n      dup2\n        /* \"#utility.yul\":5277:5309   */\n      eq\n        /* \"#utility.yul\":5267:5327   */\n      tag_111\n      jumpi\n        /* \"#utility.yul\":5323:5324   */\n      0x00\n        /* \"#utility.yul\":5320:5321   */\n      dup1\n        /* \"#utility.yul\":5313:5325   */\n      revert\n        /* \"#utility.yul\":5267:5327   */\n    tag_111:\n        /* \"#utility.yul\":5217:5333   */\n      pop\n      jump\t// out\n\n    auxdata: 0xa264697066735822122042f726cc7f0a82eed6321dd9fb868a9c3801810018fc5ec0299ff52001fa97bd64736f6c63430008070033\n}\n",
				"bytecode": {
					"linkReferences": {},
					"object": "608060405234801561001057600080fd5b50336000806101000a81548173ffffffffffffffffffffffffffffffffffffffff021916908373ffffffffffffffffffffffffffffffffffffffff160217905550610638806100606000396000f3fe60806040526004361061004a5760003560e01c806316c38b3c1461004f5780632f9710291461007857806339df43ff146100a15780635c975abb146100ca578063cbedbf5a146100f5575b600080fd5b34801561005b57600080fd5b50610076600480360381019061007191906103e5565b6100ff565b005b34801561008457600080fd5b5061009f600480360381019061009a91906103b8565b6101aa565b005b3480156100ad57600080fd5b506100c860048036038101906100c391906103b8565b6102d2565b005b3480156100d657600080fd5b506100df610379565b6040516100ec919061048a565b60405180910390f35b6100fd61038c565b005b60008054906101000a900473ffffffffffffffffffffffffffffffffffffffff1673ffffffffffffffffffffffffffffffffffffffff163373ffffffffffffffffffffffffffffffffffffffff161461018d576040517f08c379a0000000000000000000000000000000000000000000000000000000008152600401610184906104a5565b60405180910390fd5b80600060146101000a81548160ff02191690831515021790555050565b60008054906101000a900473ffffffffffffffffffffffffffffffffffffffff1673ffffffffffffffffffffffffffffffffffffffff163373ffffffffffffffffffffffffffffffffffffffff1614610238576040517f08c379a000000000000000000000000000000000000000000000000000000000815260040161022f906104a5565b60405180910390fd5b600060149054906101000a900460ff1615610288576040517f08c379a000000000000000000000000000000000000000000000000000000000815260040161027f906104c5565b60405180910390fd5b8073ffffffffffffffffffffffffffffffffffffffff166108fc479081150290604051600060405180830381858888f193505050501580156102ce573d6000803e3d6000fd5b5050565b60008054906101000a900473ffffffffffffffffffffffffffffffffffffffff1673ffffffffffffffffffffffffffffffffffffffff163373ffffffffffffffffffffffffffffffffffffffff1614610360576040517f08c379a0000000000000000000000000000000000000000000000000000000008152600401610357906104e5565b60405180910390fd5b8073ffffffffffffffffffffffffffffffffffffffff16ff5b600060149054906101000a900460ff1681565b565b60008135905061039d816105d4565b92915050565b6000813590506103b2816105eb565b92915050565b6000602082840312156103ce576103cd610554565b5b60006103dc8482850161038e565b91505092915050565b6000602082840312156103fb576103fa610554565b5b6000610409848285016103a3565b91505092915050565b61041b81610528565b82525050565b600061042e601583610505565b915061043982610559565b602082019050919050565b6000610451601283610505565b915061045c82610582565b602082019050919050565b6000610474601183610505565b915061047f826105ab565b602082019050919050565b600060208201905061049f6000830184610412565b92915050565b600060208201905081810360008301526104be81610421565b9050919050565b600060208201905081810360008301526104de81610444565b9050919050565b600060208201905081810360008301526104fe81610467565b9050919050565b600082825260208201905092915050565b600061052182610534565b9050919050565b60008115159050919050565b600073ffffffffffffffffffffffffffffffffffffffff82169050919050565b600080fd5b7f596f7520617265206e6f7420746865206f776e65720000000000000000000000600082015250565b7f436f6e7472616374206973207061757365640000000000000000000000000000600082015250565b7f596f7520617265206e6f74206f776e6572000000000000000000000000000000600082015250565b6105dd81610516565b81146105e857600080fd5b50565b6105f481610528565b81146105ff57600080fd5b5056fea264697066735822122042f726cc7f0a82eed6321dd9fb868a9c3801810018fc5ec0299ff52001fa97bd64736f6c63430008070033",
					"opcodes": "PUSH1 0x80 PUSH1 0x40 MSTORE CALLVALUE DUP1 ISZERO PUSH2 0x10 JUMPI PUSH1 0x0 DUP1 REVERT JUMPDEST POP CALLER PUSH1 0x0 DUP1 PUSH2 0x100 EXP DUP2 SLOAD DUP2 PUSH20 0xFFFFFFFFFFFFFFFFFFFFFFFFFFFFFFFFFFFFFFFF MUL NOT AND SWAP1 DUP4 PUSH20 0xFFFFFFFFFFFFFFFFFFFFFFFFFFFFFFFFFFFFFFFF AND MUL OR SWAP1 SSTORE POP PUSH2 0x638 DUP1 PUSH2 0x60 PUSH1 0x0 CODECOPY PUSH1 0x0 RETURN INVALID PUSH1 0x80 PUSH1 0x40 MSTORE PUSH1 0x4 CALLDATASIZE LT PUSH2 0x4A JUMPI PUSH1 0x0 CALLDATALOAD PUSH1 0xE0 SHR DUP1 PUSH4 0x16C38B3C EQ PUSH2 0x4F JUMPI DUP1 PUSH4 0x2F971029 EQ PUSH2 0x78 JUMPI DUP1 PUSH4 0x39DF43FF EQ PUSH2 0xA1 JUMPI DUP1 PUSH4 0x5C975ABB EQ PUSH2 0xCA JUMPI DUP1 PUSH4 0xCBEDBF5A EQ PUSH2 0xF5 JUMPI JUMPDEST PUSH1 0x0 DUP1 REVERT JUMPDEST CALLVALUE DUP1 ISZERO PUSH2 0x5B JUMPI PUSH1 0x0 DUP1 REVERT JUMPDEST POP PUSH2 0x76 PUSH1 0x4 DUP1 CALLDATASIZE SUB DUP2 ADD SWAP1 PUSH2 0x71 SWAP2 SWAP1 PUSH2 0x3E5 JUMP JUMPDEST PUSH2 0xFF JUMP JUMPDEST STOP JUMPDEST CALLVALUE DUP1 ISZERO PUSH2 0x84 JUMPI PUSH1 0x0 DUP1 REVERT JUMPDEST POP PUSH2 0x9F PUSH1 0x4 DUP1 CALLDATASIZE SUB DUP2 ADD SWAP1 PUSH2 0x9A SWAP2 SWAP1 PUSH2 0x3B8 JUMP JUMPDEST PUSH2 0x1AA JUMP JUMPDEST STOP JUMPDEST CALLVALUE DUP1 ISZERO PUSH2 0xAD JUMPI PUSH1 0x0 DUP1 REVERT JUMPDEST POP PUSH2 0xC8 PUSH1 0x4 DUP1 CALLDATASIZE SUB DUP2 ADD SWAP1 PUSH2 0xC3 SWAP2 SWAP1 PUSH2 0x3B8 JUMP JUMPDEST PUSH2 0x2D2 JUMP JUMPDEST STOP JUMPDEST CALLVALUE DUP1 ISZERO PUSH2 0xD6 JUMPI PUSH1 0x0 DUP1 REVERT JUMPDEST POP PUSH2 0xDF PUSH2 0x379 JUMP JUMPDEST PUSH1 0x40 MLOAD PUSH2 0xEC SWAP2 SWAP1 PUSH2 0x48A JUMP JUMPDEST PUSH1 0x40 MLOAD DUP1 SWAP2 SUB SWAP1 RETURN JUMPDEST PUSH2 0xFD PUSH2 0x38C JUMP JUMPDEST STOP JUMPDEST PUSH1 0x0 DUP1 SLOAD SWAP1 PUSH2 0x100 EXP SWAP1 DIV PUSH20 0xFFFFFFFFFFFFFFFFFFFFFFFFFFFFFFFFFFFFFFFF AND PUSH20 0xFFFFFFFFFFFFFFFFFFFFFFFFFFFFFFFFFFFFFFFF AND CALLER PUSH20 0xFFFFFFFFFFFFFFFFFFFFFFFFFFFFFFFFFFFFFFFF AND EQ PUSH2 0x18D JUMPI PUSH1 0x40 MLOAD PUSH32 0x8C379A000000000000000000000000000000000000000000000000000000000 DUP2 MSTORE PUSH1 0x4 ADD PUSH2 0x184 SWAP1 PUSH2 0x4A5 JUMP JUMPDEST PUSH1 0x40 MLOAD DUP1 SWAP2 SUB SWAP1 REVERT JUMPDEST DUP1 PUSH1 0x0 PUSH1 0x14 PUSH2 0x100 EXP DUP2 SLOAD DUP2 PUSH1 0xFF MUL NOT AND SWAP1 DUP4 ISZERO ISZERO MUL OR SWAP1 SSTORE POP POP JUMP JUMPDEST PUSH1 0x0 DUP1 SLOAD SWAP1 PUSH2 0x100 EXP SWAP1 DIV PUSH20 0xFFFFFFFFFFFFFFFFFFFFFFFFFFFFFFFFFFFFFFFF AND PUSH20 0xFFFFFFFFFFFFFFFFFFFFFFFFFFFFFFFFFFFFFFFF AND CALLER PUSH20 0xFFFFFFFFFFFFFFFFFFFFFFFFFFFFFFFFFFFFFFFF AND EQ PUSH2 0x238 JUMPI PUSH1 0x40 MLOAD PUSH32 0x8C379A000000000000000000000000000000000000000000000000000000000 DUP2 MSTORE PUSH1 0x4 ADD PUSH2 0x22F SWAP1 PUSH2 0x4A5 JUMP JUMPDEST PUSH1 0x40 MLOAD DUP1 SWAP2 SUB SWAP1 REVERT JUMPDEST PUSH1 0x0 PUSH1 0x14 SWAP1 SLOAD SWAP1 PUSH2 0x100 EXP SWAP1 DIV PUSH1 0xFF AND ISZERO PUSH2 0x288 JUMPI PUSH1 0x40 MLOAD PUSH32 0x8C379A000000000000000000000000000000000000000000000000000000000 DUP2 MSTORE PUSH1 0x4 ADD PUSH2 0x27F SWAP1 PUSH2 0x4C5 JUMP JUMPDEST PUSH1 0x40 MLOAD DUP1 SWAP2 SUB SWAP1 REVERT JUMPDEST DUP1 PUSH20 0xFFFFFFFFFFFFFFFFFFFFFFFFFFFFFFFFFFFFFFFF AND PUSH2 0x8FC SELFBALANCE SWAP1 DUP2 ISZERO MUL SWAP1 PUSH1 0x40 MLOAD PUSH1 0x0 PUSH1 0x40 MLOAD DUP1 DUP4 SUB DUP2 DUP6 DUP9 DUP9 CALL SWAP4 POP POP POP POP ISZERO DUP1 ISZERO PUSH2 0x2CE JUMPI RETURNDATASIZE PUSH1 0x0 DUP1 RETURNDATACOPY RETURNDATASIZE PUSH1 0x0 REVERT JUMPDEST POP POP JUMP JUMPDEST PUSH1 0x0 DUP1 SLOAD SWAP1 PUSH2 0x100 EXP SWAP1 DIV PUSH20 0xFFFFFFFFFFFFFFFFFFFFFFFFFFFFFFFFFFFFFFFF AND PUSH20 0xFFFFFFFFFFFFFFFFFFFFFFFFFFFFFFFFFFFFFFFF AND CALLER PUSH20 0xFFFFFFFFFFFFFFFFFFFFFFFFFFFFFFFFFFFFFFFF AND EQ PUSH2 0x360 JUMPI PUSH1 0x40 MLOAD PUSH32 0x8C379A000000000000000000000000000000000000000000000000000000000 DUP2 MSTORE PUSH1 0x4 ADD PUSH2 0x357 SWAP1 PUSH2 0x4E5 JUMP JUMPDEST PUSH1 0x40 MLOAD DUP1 SWAP2 SUB SWAP1 REVERT JUMPDEST DUP1 PUSH20 0xFFFFFFFFFFFFFFFFFFFFFFFFFFFFFFFFFFFFFFFF AND SELFDESTRUCT JUMPDEST PUSH1 0x0 PUSH1 0x14 SWAP1 SLOAD SWAP1 PUSH2 0x100 EXP SWAP1 DIV PUSH1 0xFF AND DUP2 JUMP JUMPDEST JUMP JUMPDEST PUSH1 0x0 DUP2 CALLDATALOAD SWAP1 POP PUSH2 0x39D DUP2 PUSH2 0x5D4 JUMP JUMPDEST SWAP3 SWAP2 POP POP JUMP JUMPDEST PUSH1 0x0 DUP2 CALLDATALOAD SWAP1 POP PUSH2 0x3B2 DUP2 PUSH2 0x5EB JUMP JUMPDEST SWAP3 SWAP2 POP POP JUMP JUMPDEST PUSH1 0x0 PUSH1 0x20 DUP3 DUP5 SUB SLT ISZERO PUSH2 0x3CE JUMPI PUSH2 0x3CD PUSH2 0x554 JUMP JUMPDEST JUMPDEST PUSH1 0x0 PUSH2 0x3DC DUP5 DUP3 DUP6 ADD PUSH2 0x38E JUMP JUMPDEST SWAP2 POP POP SWAP3 SWAP2 POP POP JUMP JUMPDEST PUSH1 0x0 PUSH1 0x20 DUP3 DUP5 SUB SLT ISZERO PUSH2 0x3FB JUMPI PUSH2 0x3FA PUSH2 0x554 JUMP JUMPDEST JUMPDEST PUSH1 0x0 PUSH2 0x409 DUP5 DUP3 DUP6 ADD PUSH2 0x3A3 JUMP JUMPDEST SWAP2 POP POP SWAP3 SWAP2 POP POP JUMP JUMPDEST PUSH2 0x41B DUP2 PUSH2 0x528 JUMP JUMPDEST DUP3 MSTORE POP POP JUMP JUMPDEST PUSH1 0x0 PUSH2 0x42E PUSH1 0x15 DUP4 PUSH2 0x505 JUMP JUMPDEST SWAP2 POP PUSH2 0x439 DUP3 PUSH2 0x559 JUMP JUMPDEST PUSH1 0x20 DUP3 ADD SWAP1 POP SWAP2 SWAP1 POP JUMP JUMPDEST PUSH1 0x0 PUSH2 0x451 PUSH1 0x12 DUP4 PUSH2 0x505 JUMP JUMPDEST SWAP2 POP PUSH2 0x45C DUP3 PUSH2 0x582 JUMP JUMPDEST PUSH1 0x20 DUP3 ADD SWAP1 POP SWAP2 SWAP1 POP JUMP JUMPDEST PUSH1 0x0 PUSH2 0x474 PUSH1 0x11 DUP4 PUSH2 0x505 JUMP JUMPDEST SWAP2 POP PUSH2 0x47F DUP3 PUSH2 0x5AB JUMP JUMPDEST PUSH1 0x20 DUP3 ADD SWAP1 POP SWAP2 SWAP1 POP JUMP JUMPDEST PUSH1 0x0 PUSH1 0x20 DUP3 ADD SWAP1 POP PUSH2 0x49F PUSH1 0x0 DUP4 ADD DUP5 PUSH2 0x412 JUMP JUMPDEST SWAP3 SWAP2 POP POP JUMP JUMPDEST PUSH1 0x0 PUSH1 0x20 DUP3 ADD SWAP1 POP DUP2 DUP2 SUB PUSH1 0x0 DUP4 ADD MSTORE PUSH2 0x4BE DUP2 PUSH2 0x421 JUMP JUMPDEST SWAP1 POP SWAP2 SWAP1 POP JUMP JUMPDEST PUSH1 0x0 PUSH1 0x20 DUP3 ADD SWAP1 POP DUP2 DUP2 SUB PUSH1 0x0 DUP4 ADD MSTORE PUSH2 0x4DE DUP2 PUSH2 0x444 JUMP JUMPDEST SWAP1 POP SWAP2 SWAP1 POP JUMP JUMPDEST PUSH1 0x0 PUSH1 0x20 DUP3 ADD SWAP1 POP DUP2 DUP2 SUB PUSH1 0x0 DUP4 ADD MSTORE PUSH2 0x4FE DUP2 PUSH2 0x467 JUMP JUMPDEST SWAP1 POP SWAP2 SWAP1 POP JUMP JUMPDEST PUSH1 0x0 DUP3 DUP3 MSTORE PUSH1 0x20 DUP3 ADD SWAP1 POP SWAP3 SWAP2 POP POP JUMP JUMPDEST PUSH1 0x0 PUSH2 0x521 DUP3 PUSH2 0x534 JUMP JUMPDEST SWAP1 POP SWAP2 SWAP1 POP JUMP JUMPDEST PUSH1 0x0 DUP2 ISZERO ISZERO SWAP1 POP SWAP2 SWAP1 POP JUMP JUMPDEST PUSH1 0x0 PUSH20 0xFFFFFFFFFFFFFFFFFFFFFFFFFFFFFFFFFFFFFFFF DUP3 AND SWAP1 POP SWAP2 SWAP1 POP JUMP JUMPDEST PUSH1 0x0 DUP1 REVERT JUMPDEST PUSH32 0x596F7520617265206E6F7420746865206F776E65720000000000000000000000 PUSH1 0x0 DUP3 ADD MSTORE POP JUMP JUMPDEST PUSH32 0x436F6E7472616374206973207061757365640000000000000000000000000000 PUSH1 0x0 DUP3 ADD MSTORE POP JUMP JUMPDEST PUSH32 0x596F7520617265206E6F74206F776E6572000000000000000000000000000000 PUSH1 0x0 DUP3 ADD MSTORE POP JUMP JUMPDEST PUSH2 0x5DD DUP2 PUSH2 0x516 JUMP JUMPDEST DUP2 EQ PUSH2 0x5E8 JUMPI PUSH1 0x0 DUP1 REVERT JUMPDEST POP JUMP JUMPDEST PUSH2 0x5F4 DUP2 PUSH2 0x528 JUMP JUMPDEST DUP2 EQ PUSH2 0x5FF JUMPI PUSH1 0x0 DUP1 REVERT JUMPDEST POP JUMP INVALID LOG2 PUSH5 0x6970667358 0x22 SLT KECCAK256 TIMESTAMP 0xF7 0x26 0xCC PUSH32 0xA82EED6321DD9FB868A9C3801810018FC5EC0299FF52001FA97BD64736F6C63 NUMBER STOP ADDMOD SMOD STOP CALLER "
				},
				"gasEstimates": {
					"creation": {
						"codeDepositCost": "318400",
						"executionCost": "24621",
						"totalCost": "343021"
					},
					"external": {
						"destroySmartContract(address)": "30242",
						"paused()": "2565",
						"sendMoney()": "186",
						"setPaused(bool)": "26874",
						"withdrawMoney(address)": "infinite"
					}
				},
				"methodIdentifiers": {
					"destroySmartContract(address)": "39df43ff",
					"paused()": "5c975abb",
					"sendMoney()": "cbedbf5a",
					"setPaused(bool)": "16c38b3c",
					"withdrawMoney(address)": "2f971029"
				}
			},
			"storageLayout": {
				"storage": [
					{
						"astId": 3,
						"contract": "contracts/basics/04-StartStopUpdateExample.sol:StartStopUpdateExample",
						"label": "owner",
						"offset": 0,
						"slot": "0",
						"type": "t_address"
					},
					{
						"astId": 5,
						"contract": "contracts/basics/04-StartStopUpdateExample.sol:StartStopUpdateExample",
						"label": "paused",
						"offset": 20,
						"slot": "0",
						"type": "t_bool"
					}
				],
				"types": {
					"t_address": {
						"encoding": "inplace",
						"label": "address",
						"numberOfBytes": "20"
					},
					"t_bool": {
						"encoding": "inplace",
						"label": "bool",
						"numberOfBytes": "1"
					}
				}
			},
			"userdoc": {
				"kind": "user",
				"methods": {},
				"version": 1
			}
		}
	}
}