{
	"contracts/basics/04-StartStopUpdateExample.sol": {
		"StartStopUpdateExample": {
			"abi": [
				{
					"inputs": [],
					"stateMutability": "nonpayable",
					"type": "constructor"
				},
				{
					"inputs": [
						{
							"internalType": "address payable",
							"name": "_to",
							"type": "address"
						}
					],
					"name": "destroySmartContract",
					"outputs": [],
					"stateMutability": "nonpayable",
					"type": "function"
				},
				{
					"inputs": [],
					"name": "paused",
					"outputs": [
						{
							"internalType": "bool",
							"name": "",
							"type": "bool"
						}
					],
					"stateMutability": "view",
					"type": "function"
				},
				{
					"inputs": [],
					"name": "sendMoney",
					"outputs": [],
					"stateMutability": "payable",
					"type": "function"
				},
				{
					"inputs": [
						{
							"internalType": "bool",
							"name": "_paused",
							"type": "bool"
						}
					],
					"name": "setPaused",
					"outputs": [],
					"stateMutability": "nonpayable",
					"type": "function"
				},
				{
					"inputs": [
						{
							"internalType": "address payable",
							"name": "_to",
							"type": "address"
						}
					],
					"name": "withdrawMoney",
					"outputs": [],
					"stateMutability": "nonpayable",
					"type": "function"
				}
			],
			"devdoc": {
				"kind": "dev",
				"methods": {},
				"version": 1
			},
			"evm": {
				"assembly": "    /* \"contracts/basics/04-StartStopUpdateExample.sol\":58:729  contract StartStopUpdateExample{\r... */\n  mstore(0x40, 0x80)\n    /* \"contracts/basics/04-StartStopUpdateExample.sol\":141:191  constructor(){\r... */\n  callvalue\n  dup1\n  iszero\n  tag_1\n  jumpi\n  0x00\n  dup1\n  revert\ntag_1:\n  pop\n    /* \"contracts/basics/04-StartStopUpdateExample.sol\":173:183  msg.sender */\n  caller\n    /* \"contracts/basics/04-StartStopUpdateExample.sol\":165:170  owner */\n  0x00\n  dup1\n    /* \"contracts/basics/04-StartStopUpdateExample.sol\":165:183  owner = msg.sender */\n  0x0100\n  exp\n  dup2\n  sload\n  dup2\n  0xffffffffffffffffffffffffffffffffffffffff\n  mul\n  not\n  and\n  swap1\n  dup4\n  0xffffffffffffffffffffffffffffffffffffffff\n  and\n  mul\n  or\n  swap1\n  sstore\n  pop\n    /* \"contracts/basics/04-StartStopUpdateExample.sol\":58:729  contract StartStopUpdateExample{\r... */\n  dataSize(sub_0)\n  dup1\n  dataOffset(sub_0)\n  0x00\n  codecopy\n  0x00\n  return\nstop\n\nsub_0: assembly {\n        /* \"contracts/basics/04-StartStopUpdateExample.sol\":58:729  contract StartStopUpdateExample{\r... */\n      mstore(0x40, 0x80)\n      jumpi(tag_1, lt(calldatasize, 0x04))\n      shr(0xe0, calldataload(0x00))\n      dup1\n      0x16c38b3c\n      eq\n      tag_2\n      jumpi\n      dup1\n      0x2f971029\n      eq\n      tag_3\n      jumpi\n      dup1\n      0x39df43ff\n      eq\n      tag_4\n      jumpi\n      dup1\n      0x5c975abb\n      eq\n      tag_5\n      jumpi\n      dup1\n      0xcbedbf5a\n      eq\n      tag_6\n      jumpi\n    tag_1:\n      0x00\n      dup1\n      revert\n        /* \"contracts/basics/04-StartStopUpdateExample.sol\":252:386  function setPaused(bool _paused) public{\r... */\n    tag_2:\n      callvalue\n      dup1\n      iszero\n      tag_7\n      jumpi\n      0x00\n      dup1\n      revert\n    tag_7:\n      pop\n      tag_8\n      0x04\n      dup1\n      calldatasize\n      sub\n      dup2\n      add\n      swap1\n      tag_9\n      swap2\n      swap1\n      tag_10\n      jump\t// in\n    tag_9:\n      tag_11\n      jump\t// in\n    tag_8:\n      stop\n        /* \"contracts/basics/04-StartStopUpdateExample.sol\":394:607  function withdrawMoney(address payable _to) public{\r... */\n    tag_3:\n      callvalue\n      dup1\n      iszero\n      tag_12\n      jumpi\n      0x00\n      dup1\n      revert\n    tag_12:\n      pop\n      tag_13\n      0x04\n      dup1\n      calldatasize\n      sub\n      dup2\n      add\n      swap1\n      tag_14\n      swap2\n      swap1\n      tag_15\n      jump\t// in\n    tag_14:\n      tag_16\n      jump\t// in\n    tag_13:\n      stop\n        /* \"contracts/basics/04-StartStopUpdateExample.sol\":615:718  function destroySmartContract(address payable _to) public{\r... */\n    tag_4:\n      callvalue\n      dup1\n      iszero\n      tag_17\n      jumpi\n      0x00\n      dup1\n      revert\n    tag_17:\n      pop\n      tag_18\n      0x04\n      dup1\n      calldatasize\n      sub\n      dup2\n      add\n      swap1\n      tag_19\n      swap2\n      swap1\n      tag_15\n      jump\t// in\n    tag_19:\n      tag_20\n      jump\t// in\n    tag_18:\n      stop\n        /* \"contracts/basics/04-StartStopUpdateExample.sol\":116:134  bool public paused */\n    tag_5:\n      callvalue\n      dup1\n      iszero\n      tag_21\n      jumpi\n      0x00\n      dup1\n      revert\n    tag_21:\n      pop\n      tag_22\n      tag_23\n      jump\t// in\n    tag_22:\n      mload(0x40)\n      tag_24\n      swap2\n      swap1\n      tag_25\n      jump\t// in\n    tag_24:\n      mload(0x40)\n      dup1\n      swap2\n      sub\n      swap1\n      return\n        /* \"contracts/basics/04-StartStopUpdateExample.sol\":199:244  function sendMoney() public payable{\r... */\n    tag_6:\n      tag_26\n      tag_27\n      jump\t// in\n    tag_26:\n      stop\n        /* \"contracts/basics/04-StartStopUpdateExample.sol\":252:386  function setPaused(bool _paused) public{\r... */\n    tag_11:\n        /* \"contracts/basics/04-StartStopUpdateExample.sol\":322:327  owner */\n      0x00\n      dup1\n      sload\n      swap1\n      0x0100\n      exp\n      swap1\n      div\n      0xffffffffffffffffffffffffffffffffffffffff\n      and\n        /* \"contracts/basics/04-StartStopUpdateExample.sol\":310:327  msg.sender==owner */\n      0xffffffffffffffffffffffffffffffffffffffff\n      and\n        /* \"contracts/basics/04-StartStopUpdateExample.sol\":310:320  msg.sender */\n      caller\n        /* \"contracts/basics/04-StartStopUpdateExample.sol\":310:327  msg.sender==owner */\n      0xffffffffffffffffffffffffffffffffffffffff\n      and\n      eq\n        /* \"contracts/basics/04-StartStopUpdateExample.sol\":302:352  require(msg.sender==owner,\"You are not the owner\") */\n      tag_29\n      jumpi\n      mload(0x40)\n      0x08c379a000000000000000000000000000000000000000000000000000000000\n      dup2\n      mstore\n      0x04\n      add\n      tag_30\n      swap1\n      tag_31\n      jump\t// in\n    tag_30:\n      mload(0x40)\n      dup1\n      swap2\n      sub\n      swap1\n      revert\n    tag_29:\n        /* \"contracts/basics/04-StartStopUpdateExample.sol\":371:378  _paused */\n      dup1\n        /* \"contracts/basics/04-StartStopUpdateExample.sol\":363:369  paused */\n      0x00\n      0x14\n        /* \"contracts/basics/04-StartStopUpdateExample.sol\":363:378  paused= _paused */\n      0x0100\n      exp\n      dup2\n      sload\n      dup2\n      0xff\n      mul\n      not\n      and\n      swap1\n      dup4\n      iszero\n      iszero\n      mul\n      or\n      swap1\n      sstore\n      pop\n        /* \"contracts/basics/04-StartStopUpdateExample.sol\":252:386  function setPaused(bool _paused) public{\r... */\n      pop\n      jump\t// out\n        /* \"contracts/basics/04-StartStopUpdateExample.sol\":394:607  function withdrawMoney(address payable _to) public{\r... */\n    tag_16:\n        /* \"contracts/basics/04-StartStopUpdateExample.sol\":475:480  owner */\n      0x00\n      dup1\n      sload\n      swap1\n      0x0100\n      exp\n      swap1\n      div\n      0xffffffffffffffffffffffffffffffffffffffff\n      and\n        /* \"contracts/basics/04-StartStopUpdateExample.sol\":463:480  msg.sender==owner */\n      0xffffffffffffffffffffffffffffffffffffffff\n      and\n        /* \"contracts/basics/04-StartStopUpdateExample.sol\":463:473  msg.sender */\n      caller\n        /* \"contracts/basics/04-StartStopUpdateExample.sol\":463:480  msg.sender==owner */\n      0xffffffffffffffffffffffffffffffffffffffff\n      and\n      eq\n        /* \"contracts/basics/04-StartStopUpdateExample.sol\":455:505  require(msg.sender==owner,\"You are not the owner\") */\n      tag_33\n      jumpi\n      mload(0x40)\n      0x08c379a000000000000000000000000000000000000000000000000000000000\n      dup2\n      mstore\n      0x04\n      add\n      tag_34\n      swap1\n      tag_31\n      jump\t// in\n    tag_34:\n      mload(0x40)\n      dup1\n      swap2\n      sub\n      swap1\n      revert\n    tag_33:\n        /* \"contracts/basics/04-StartStopUpdateExample.sol\":525:531  paused */\n      0x00\n      0x14\n      swap1\n      sload\n      swap1\n      0x0100\n      exp\n      swap1\n      div\n      0xff\n      and\n        /* \"contracts/basics/04-StartStopUpdateExample.sol\":524:531  !paused */\n      iszero\n        /* \"contracts/basics/04-StartStopUpdateExample.sol\":516:553  require(!paused,\"Contract is paused\") */\n      tag_35\n      jumpi\n      mload(0x40)\n      0x08c379a000000000000000000000000000000000000000000000000000000000\n      dup2\n      mstore\n      0x04\n      add\n      tag_36\n      swap1\n      tag_37\n      jump\t// in\n    tag_36:\n      mload(0x40)\n      dup1\n      swap2\n      sub\n      swap1\n      revert\n    tag_35:\n        /* \"contracts/basics/04-StartStopUpdateExample.sol\":564:567  _to */\n      dup1\n        /* \"contracts/basics/04-StartStopUpdateExample.sol\":564:576  _to.transfer */\n      0xffffffffffffffffffffffffffffffffffffffff\n      and\n        /* \"contracts/basics/04-StartStopUpdateExample.sol\":564:599  _to.transfer(address(this).balance) */\n      0x08fc\n        /* \"contracts/basics/04-StartStopUpdateExample.sol\":577:598  address(this).balance */\n      selfbalance\n        /* \"contracts/basics/04-StartStopUpdateExample.sol\":564:599  _to.transfer(address(this).balance) */\n      swap1\n      dup2\n      iszero\n      mul\n      swap1\n      mload(0x40)\n      0x00\n      mload(0x40)\n      dup1\n      dup4\n      sub\n      dup2\n      dup6\n      dup9\n      dup9\n      call\n      swap4\n      pop\n      pop\n      pop\n      pop\n      iszero\n      dup1\n      iszero\n      tag_39\n      jumpi\n      returndatasize\n      0x00\n      dup1\n      returndatacopy\n      revert(0x00, returndatasize)\n    tag_39:\n      pop\n        /* \"contracts/basics/04-StartStopUpdateExample.sol\":394:607  function withdrawMoney(address payable _to) public{\r... */\n      pop\n      jump\t// out\n        /* \"contracts/basics/04-StartStopUpdateExample.sol\":615:718  function destroySmartContract(address payable _to) public{\r... */\n    tag_20:\n        /* \"contracts/basics/04-StartStopUpdateExample.sol\":706:709  _to */\n      dup1\n        /* \"contracts/basics/04-StartStopUpdateExample.sol\":693:710  selfdestruct(_to) */\n      0xffffffffffffffffffffffffffffffffffffffff\n      and\n      selfdestruct\n        /* \"contracts/basics/04-StartStopUpdateExample.sol\":116:134  bool public paused */\n    tag_23:\n      0x00\n      0x14\n      swap1\n      sload\n      swap1\n      0x0100\n      exp\n      swap1\n      div\n      0xff\n      and\n      dup2\n      jump\t// out\n        /* \"contracts/basics/04-StartStopUpdateExample.sol\":199:244  function sendMoney() public payable{\r... */\n    tag_27:\n      jump\t// out\n        /* \"#utility.yul\":7:162   */\n    tag_43:\n        /* \"#utility.yul\":61:66   */\n      0x00\n        /* \"#utility.yul\":99:105   */\n      dup2\n        /* \"#utility.yul\":86:106   */\n      calldataload\n        /* \"#utility.yul\":77:106   */\n      swap1\n      pop\n        /* \"#utility.yul\":115:156   */\n      tag_45\n        /* \"#utility.yul\":150:155   */\n      dup2\n        /* \"#utility.yul\":115:156   */\n      tag_46\n      jump\t// in\n    tag_45:\n        /* \"#utility.yul\":7:162   */\n      swap3\n      swap2\n      pop\n      pop\n      jump\t// out\n        /* \"#utility.yul\":168:301   */\n    tag_47:\n        /* \"#utility.yul\":211:216   */\n      0x00\n        /* \"#utility.yul\":249:255   */\n      dup2\n        /* \"#utility.yul\":236:256   */\n      calldataload\n        /* \"#utility.yul\":227:256   */\n      swap1\n      pop\n        /* \"#utility.yul\":265:295   */\n      tag_49\n        /* \"#utility.yul\":289:294   */\n      dup2\n        /* \"#utility.yul\":265:295   */\n      tag_50\n      jump\t// in\n    tag_49:\n        /* \"#utility.yul\":168:301   */\n      swap3\n      swap2\n      pop\n      pop\n      jump\t// out\n        /* \"#utility.yul\":307:652   */\n    tag_15:\n        /* \"#utility.yul\":374:380   */\n      0x00\n        /* \"#utility.yul\":423:425   */\n      0x20\n        /* \"#utility.yul\":411:420   */\n      dup3\n        /* \"#utility.yul\":402:409   */\n      dup5\n        /* \"#utility.yul\":398:421   */\n      sub\n        /* \"#utility.yul\":394:426   */\n      slt\n        /* \"#utility.yul\":391:510   */\n      iszero\n      tag_52\n      jumpi\n        /* \"#utility.yul\":429:508   */\n      tag_53\n      tag_54\n      jump\t// in\n    tag_53:\n        /* \"#utility.yul\":391:510   */\n    tag_52:\n        /* \"#utility.yul\":549:550   */\n      0x00\n        /* \"#utility.yul\":574:635   */\n      tag_55\n        /* \"#utility.yul\":627:634   */\n      dup5\n        /* \"#utility.yul\":618:624   */\n      dup3\n        /* \"#utility.yul\":607:616   */\n      dup6\n        /* \"#utility.yul\":603:625   */\n      add\n        /* \"#utility.yul\":574:635   */\n      tag_43\n      jump\t// in\n    tag_55:\n        /* \"#utility.yul\":564:635   */\n      swap2\n      pop\n        /* \"#utility.yul\":520:645   */\n      pop\n        /* \"#utility.yul\":307:652   */\n      swap3\n      swap2\n      pop\n      pop\n      jump\t// out\n        /* \"#utility.yul\":658:981   */\n    tag_10:\n        /* \"#utility.yul\":714:720   */\n      0x00\n        /* \"#utility.yul\":763:765   */\n      0x20\n        /* \"#utility.yul\":751:760   */\n      dup3\n        /* \"#utility.yul\":742:749   */\n      dup5\n        /* \"#utility.yul\":738:761   */\n      sub\n        /* \"#utility.yul\":734:766   */\n      slt\n        /* \"#utility.yul\":731:850   */\n      iszero\n      tag_57\n      jumpi\n        /* \"#utility.yul\":769:848   */\n      tag_58\n      tag_54\n      jump\t// in\n    tag_58:\n        /* \"#utility.yul\":731:850   */\n    tag_57:\n        /* \"#utility.yul\":889:890   */\n      0x00\n        /* \"#utility.yul\":914:964   */\n      tag_59\n        /* \"#utility.yul\":956:963   */\n      dup5\n        /* \"#utility.yul\":947:953   */\n      dup3\n        /* \"#utility.yul\":936:945   */\n      dup6\n        /* \"#utility.yul\":932:954   */\n      add\n        /* \"#utility.yul\":914:964   */\n      tag_47\n      jump\t// in\n    tag_59:\n        /* \"#utility.yul\":904:964   */\n      swap2\n      pop\n        /* \"#utility.yul\":860:974   */\n      pop\n        /* \"#utility.yul\":658:981   */\n      swap3\n      swap2\n      pop\n      pop\n      jump\t// out\n        /* \"#utility.yul\":987:1096   */\n    tag_60:\n        /* \"#utility.yul\":1068:1089   */\n      tag_62\n        /* \"#utility.yul\":1083:1088   */\n      dup2\n        /* \"#utility.yul\":1068:1089   */\n      tag_63\n      jump\t// in\n    tag_62:\n        /* \"#utility.yul\":1063:1066   */\n      dup3\n        /* \"#utility.yul\":1056:1090   */\n      mstore\n        /* \"#utility.yul\":987:1096   */\n      pop\n      pop\n      jump\t// out\n        /* \"#utility.yul\":1102:1468   */\n    tag_64:\n        /* \"#utility.yul\":1244:1247   */\n      0x00\n        /* \"#utility.yul\":1265:1332   */\n      tag_66\n        /* \"#utility.yul\":1329:1331   */\n      0x15\n        /* \"#utility.yul\":1324:1327   */\n      dup4\n        /* \"#utility.yul\":1265:1332   */\n      tag_67\n      jump\t// in\n    tag_66:\n        /* \"#utility.yul\":1258:1332   */\n      swap2\n      pop\n        /* \"#utility.yul\":1341:1434   */\n      tag_68\n        /* \"#utility.yul\":1430:1433   */\n      dup3\n        /* \"#utility.yul\":1341:1434   */\n      tag_69\n      jump\t// in\n    tag_68:\n        /* \"#utility.yul\":1459:1461   */\n      0x20\n        /* \"#utility.yul\":1454:1457   */\n      dup3\n        /* \"#utility.yul\":1450:1462   */\n      add\n        /* \"#utility.yul\":1443:1462   */\n      swap1\n      pop\n        /* \"#utility.yul\":1102:1468   */\n      swap2\n      swap1\n      pop\n      jump\t// out\n        /* \"#utility.yul\":1474:1840   */\n    tag_70:\n        /* \"#utility.yul\":1616:1619   */\n      0x00\n        /* \"#utility.yul\":1637:1704   */\n      tag_72\n        /* \"#utility.yul\":1701:1703   */\n      0x12\n        /* \"#utility.yul\":1696:1699   */\n      dup4\n        /* \"#utility.yul\":1637:1704   */\n      tag_67\n      jump\t// in\n    tag_72:\n        /* \"#utility.yul\":1630:1704   */\n      swap2\n      pop\n        /* \"#utility.yul\":1713:1806   */\n      tag_73\n        /* \"#utility.yul\":1802:1805   */\n      dup3\n        /* \"#utility.yul\":1713:1806   */\n      tag_74\n      jump\t// in\n    tag_73:\n        /* \"#utility.yul\":1831:1833   */\n      0x20\n        /* \"#utility.yul\":1826:1829   */\n      dup3\n        /* \"#utility.yul\":1822:1834   */\n      add\n        /* \"#utility.yul\":1815:1834   */\n      swap1\n      pop\n        /* \"#utility.yul\":1474:1840   */\n      swap2\n      swap1\n      pop\n      jump\t// out\n        /* \"#utility.yul\":1846:2056   */\n    tag_25:\n        /* \"#utility.yul\":1933:1937   */\n      0x00\n        /* \"#utility.yul\":1971:1973   */\n      0x20\n        /* \"#utility.yul\":1960:1969   */\n      dup3\n        /* \"#utility.yul\":1956:1974   */\n      add\n        /* \"#utility.yul\":1948:1974   */\n      swap1\n      pop\n        /* \"#utility.yul\":1984:2049   */\n      tag_76\n        /* \"#utility.yul\":2046:2047   */\n      0x00\n        /* \"#utility.yul\":2035:2044   */\n      dup4\n        /* \"#utility.yul\":2031:2048   */\n      add\n        /* \"#utility.yul\":2022:2028   */\n      dup5\n        /* \"#utility.yul\":1984:2049   */\n      tag_60\n      jump\t// in\n    tag_76:\n        /* \"#utility.yul\":1846:2056   */\n      swap3\n      swap2\n      pop\n      pop\n      jump\t// out\n        /* \"#utility.yul\":2062:2481   */\n    tag_31:\n        /* \"#utility.yul\":2228:2232   */\n      0x00\n        /* \"#utility.yul\":2266:2268   */\n      0x20\n        /* \"#utility.yul\":2255:2264   */\n      dup3\n        /* \"#utility.yul\":2251:2269   */\n      add\n        /* \"#utility.yul\":2243:2269   */\n      swap1\n      pop\n        /* \"#utility.yul\":2315:2324   */\n      dup2\n        /* \"#utility.yul\":2309:2313   */\n      dup2\n        /* \"#utility.yul\":2305:2325   */\n      sub\n        /* \"#utility.yul\":2301:2302   */\n      0x00\n        /* \"#utility.yul\":2290:2299   */\n      dup4\n        /* \"#utility.yul\":2286:2303   */\n      add\n        /* \"#utility.yul\":2279:2326   */\n      mstore\n        /* \"#utility.yul\":2343:2474   */\n      tag_78\n        /* \"#utility.yul\":2469:2473   */\n      dup2\n        /* \"#utility.yul\":2343:2474   */\n      tag_64\n      jump\t// in\n    tag_78:\n        /* \"#utility.yul\":2335:2474   */\n      swap1\n      pop\n        /* \"#utility.yul\":2062:2481   */\n      swap2\n      swap1\n      pop\n      jump\t// out\n        /* \"#utility.yul\":2487:2906   */\n    tag_37:\n        /* \"#utility.yul\":2653:2657   */\n      0x00\n        /* \"#utility.yul\":2691:2693   */\n      0x20\n        /* \"#utility.yul\":2680:2689   */\n      dup3\n        /* \"#utility.yul\":2676:2694   */\n      add\n        /* \"#utility.yul\":2668:2694   */\n      swap1\n      pop\n        /* \"#utility.yul\":2740:2749   */\n      dup2\n        /* \"#utility.yul\":2734:2738   */\n      dup2\n        /* \"#utility.yul\":2730:2750   */\n      sub\n        /* \"#utility.yul\":2726:2727   */\n      0x00\n        /* \"#utility.yul\":2715:2724   */\n      dup4\n        /* \"#utility.yul\":2711:2728   */\n      add\n        /* \"#utility.yul\":2704:2751   */\n      mstore\n        /* \"#utility.yul\":2768:2899   */\n      tag_80\n        /* \"#utility.yul\":2894:2898   */\n      dup2\n        /* \"#utility.yul\":2768:2899   */\n      tag_70\n      jump\t// in\n    tag_80:\n        /* \"#utility.yul\":2760:2899   */\n      swap1\n      pop\n        /* \"#utility.yul\":2487:2906   */\n      swap2\n      swap1\n      pop\n      jump\t// out\n        /* \"#utility.yul\":2993:3162   */\n    tag_67:\n        /* \"#utility.yul\":3077:3088   */\n      0x00\n        /* \"#utility.yul\":3111:3117   */\n      dup3\n        /* \"#utility.yul\":3106:3109   */\n      dup3\n        /* \"#utility.yul\":3099:3118   */\n      mstore\n        /* \"#utility.yul\":3151:3155   */\n      0x20\n        /* \"#utility.yul\":3146:3149   */\n      dup3\n        /* \"#utility.yul\":3142:3156   */\n      add\n        /* \"#utility.yul\":3127:3156   */\n      swap1\n      pop\n        /* \"#utility.yul\":2993:3162   */\n      swap3\n      swap2\n      pop\n      pop\n      jump\t// out\n        /* \"#utility.yul\":3168:3272   */\n    tag_84:\n        /* \"#utility.yul\":3213:3220   */\n      0x00\n        /* \"#utility.yul\":3242:3266   */\n      tag_86\n        /* \"#utility.yul\":3260:3265   */\n      dup3\n        /* \"#utility.yul\":3242:3266   */\n      tag_87\n      jump\t// in\n    tag_86:\n        /* \"#utility.yul\":3231:3266   */\n      swap1\n      pop\n        /* \"#utility.yul\":3168:3272   */\n      swap2\n      swap1\n      pop\n      jump\t// out\n        /* \"#utility.yul\":3278:3368   */\n    tag_63:\n        /* \"#utility.yul\":3312:3319   */\n      0x00\n        /* \"#utility.yul\":3355:3360   */\n      dup2\n        /* \"#utility.yul\":3348:3361   */\n      iszero\n        /* \"#utility.yul\":3341:3362   */\n      iszero\n        /* \"#utility.yul\":3330:3362   */\n      swap1\n      pop\n        /* \"#utility.yul\":3278:3368   */\n      swap2\n      swap1\n      pop\n      jump\t// out\n        /* \"#utility.yul\":3374:3500   */\n    tag_87:\n        /* \"#utility.yul\":3411:3418   */\n      0x00\n        /* \"#utility.yul\":3451:3493   */\n      0xffffffffffffffffffffffffffffffffffffffff\n        /* \"#utility.yul\":3444:3449   */\n      dup3\n        /* \"#utility.yul\":3440:3494   */\n      and\n        /* \"#utility.yul\":3429:3494   */\n      swap1\n      pop\n        /* \"#utility.yul\":3374:3500   */\n      swap2\n      swap1\n      pop\n      jump\t// out\n        /* \"#utility.yul\":3629:3746   */\n    tag_54:\n        /* \"#utility.yul\":3738:3739   */\n      0x00\n        /* \"#utility.yul\":3735:3736   */\n      dup1\n        /* \"#utility.yul\":3728:3740   */\n      revert\n        /* \"#utility.yul\":3752:3923   */\n    tag_69:\n        /* \"#utility.yul\":3892:3915   */\n      0x596f7520617265206e6f7420746865206f776e65720000000000000000000000\n        /* \"#utility.yul\":3888:3889   */\n      0x00\n        /* \"#utility.yul\":3880:3886   */\n      dup3\n        /* \"#utility.yul\":3876:3890   */\n      add\n        /* \"#utility.yul\":3869:3916   */\n      mstore\n        /* \"#utility.yul\":3752:3923   */\n      pop\n      jump\t// out\n        /* \"#utility.yul\":3929:4097   */\n    tag_74:\n        /* \"#utility.yul\":4069:4089   */\n      0x436f6e7472616374206973207061757365640000000000000000000000000000\n        /* \"#utility.yul\":4065:4066   */\n      0x00\n        /* \"#utility.yul\":4057:4063   */\n      dup3\n        /* \"#utility.yul\":4053:4067   */\n      add\n        /* \"#utility.yul\":4046:4090   */\n      mstore\n        /* \"#utility.yul\":3929:4097   */\n      pop\n      jump\t// out\n        /* \"#utility.yul\":4103:4241   */\n    tag_46:\n        /* \"#utility.yul\":4184:4216   */\n      tag_96\n        /* \"#utility.yul\":4210:4215   */\n      dup2\n        /* \"#utility.yul\":4184:4216   */\n      tag_84\n      jump\t// in\n    tag_96:\n        /* \"#utility.yul\":4177:4182   */\n      dup2\n        /* \"#utility.yul\":4174:4217   */\n      eq\n        /* \"#utility.yul\":4164:4235   */\n      tag_97\n      jumpi\n        /* \"#utility.yul\":4231:4232   */\n      0x00\n        /* \"#utility.yul\":4228:4229   */\n      dup1\n        /* \"#utility.yul\":4221:4233   */\n      revert\n        /* \"#utility.yul\":4164:4235   */\n    tag_97:\n        /* \"#utility.yul\":4103:4241   */\n      pop\n      jump\t// out\n        /* \"#utility.yul\":4247:4363   */\n    tag_50:\n        /* \"#utility.yul\":4317:4338   */\n      tag_99\n        /* \"#utility.yul\":4332:4337   */\n      dup2\n        /* \"#utility.yul\":4317:4338   */\n      tag_63\n      jump\t// in\n    tag_99:\n        /* \"#utility.yul\":4310:4315   */\n      dup2\n        /* \"#utility.yul\":4307:4339   */\n      eq\n        /* \"#utility.yul\":4297:4357   */\n      tag_100\n      jumpi\n        /* \"#utility.yul\":4353:4354   */\n      0x00\n        /* \"#utility.yul\":4350:4351   */\n      dup1\n        /* \"#utility.yul\":4343:4355   */\n      revert\n        /* \"#utility.yul\":4297:4357   */\n    tag_100:\n        /* \"#utility.yul\":4247:4363   */\n      pop\n      jump\t// out\n\n    auxdata: 0xa2646970667358221220c06de670c6a237ca17245bbc3812f1f43621d4309f550408092089680dd5c22964736f6c63430008070033\n}\n",
				"bytecode": {
					"linkReferences": {},
					"object": "608060405234801561001057600080fd5b50336000806101000a81548173ffffffffffffffffffffffffffffffffffffffff021916908373ffffffffffffffffffffffffffffffffffffffff16021790555061053e806100606000396000f3fe60806040526004361061004a5760003560e01c806316c38b3c1461004f5780632f9710291461007857806339df43ff146100a15780635c975abb146100ca578063cbedbf5a146100f5575b600080fd5b34801561005b57600080fd5b5061007660048036038101906100719190610357565b6100ff565b005b34801561008457600080fd5b5061009f600480360381019061009a919061032a565b6101aa565b005b3480156100ad57600080fd5b506100c860048036038101906100c3919061032a565b6102d2565b005b3480156100d657600080fd5b506100df6102eb565b6040516100ec91906103d9565b60405180910390f35b6100fd6102fe565b005b60008054906101000a900473ffffffffffffffffffffffffffffffffffffffff1673ffffffffffffffffffffffffffffffffffffffff163373ffffffffffffffffffffffffffffffffffffffff161461018d576040517f08c379a0000000000000000000000000000000000000000000000000000000008152600401610184906103f4565b60405180910390fd5b80600060146101000a81548160ff02191690831515021790555050565b60008054906101000a900473ffffffffffffffffffffffffffffffffffffffff1673ffffffffffffffffffffffffffffffffffffffff163373ffffffffffffffffffffffffffffffffffffffff1614610238576040517f08c379a000000000000000000000000000000000000000000000000000000000815260040161022f906103f4565b60405180910390fd5b600060149054906101000a900460ff1615610288576040517f08c379a000000000000000000000000000000000000000000000000000000000815260040161027f90610414565b60405180910390fd5b8073ffffffffffffffffffffffffffffffffffffffff166108fc479081150290604051600060405180830381858888f193505050501580156102ce573d6000803e3d6000fd5b5050565b8073ffffffffffffffffffffffffffffffffffffffff16ff5b600060149054906101000a900460ff1681565b565b60008135905061030f816104da565b92915050565b600081359050610324816104f1565b92915050565b6000602082840312156103405761033f610483565b5b600061034e84828501610300565b91505092915050565b60006020828403121561036d5761036c610483565b5b600061037b84828501610315565b91505092915050565b61038d81610457565b82525050565b60006103a0601583610434565b91506103ab82610488565b602082019050919050565b60006103c3601283610434565b91506103ce826104b1565b602082019050919050565b60006020820190506103ee6000830184610384565b92915050565b6000602082019050818103600083015261040d81610393565b9050919050565b6000602082019050818103600083015261042d816103b6565b9050919050565b600082825260208201905092915050565b600061045082610463565b9050919050565b60008115159050919050565b600073ffffffffffffffffffffffffffffffffffffffff82169050919050565b600080fd5b7f596f7520617265206e6f7420746865206f776e65720000000000000000000000600082015250565b7f436f6e7472616374206973207061757365640000000000000000000000000000600082015250565b6104e381610445565b81146104ee57600080fd5b50565b6104fa81610457565b811461050557600080fd5b5056fea2646970667358221220c06de670c6a237ca17245bbc3812f1f43621d4309f550408092089680dd5c22964736f6c63430008070033",
					"opcodes": "PUSH1 0x80 PUSH1 0x40 MSTORE CALLVALUE DUP1 ISZERO PUSH2 0x10 JUMPI PUSH1 0x0 DUP1 REVERT JUMPDEST POP CALLER PUSH1 0x0 DUP1 PUSH2 0x100 EXP DUP2 SLOAD DUP2 PUSH20 0xFFFFFFFFFFFFFFFFFFFFFFFFFFFFFFFFFFFFFFFF MUL NOT AND SWAP1 DUP4 PUSH20 0xFFFFFFFFFFFFFFFFFFFFFFFFFFFFFFFFFFFFFFFF AND MUL OR SWAP1 SSTORE POP PUSH2 0x53E DUP1 PUSH2 0x60 PUSH1 0x0 CODECOPY PUSH1 0x0 RETURN INVALID PUSH1 0x80 PUSH1 0x40 MSTORE PUSH1 0x4 CALLDATASIZE LT PUSH2 0x4A JUMPI PUSH1 0x0 CALLDATALOAD PUSH1 0xE0 SHR DUP1 PUSH4 0x16C38B3C EQ PUSH2 0x4F JUMPI DUP1 PUSH4 0x2F971029 EQ PUSH2 0x78 JUMPI DUP1 PUSH4 0x39DF43FF EQ PUSH2 0xA1 JUMPI DUP1 PUSH4 0x5C975ABB EQ PUSH2 0xCA JUMPI DUP1 PUSH4 0xCBEDBF5A EQ PUSH2 0xF5 JUMPI JUMPDEST PUSH1 0x0 DUP1 REVERT JUMPDEST CALLVALUE DUP1 ISZERO PUSH2 0x5B JUMPI PUSH1 0x0 DUP1 REVERT JUMPDEST POP PUSH2 0x76 PUSH1 0x4 DUP1 CALLDATASIZE SUB DUP2 ADD SWAP1 PUSH2 0x71 SWAP2 SWAP1 PUSH2 0x357 JUMP JUMPDEST PUSH2 0xFF JUMP JUMPDEST STOP JUMPDEST CALLVALUE DUP1 ISZERO PUSH2 0x84 JUMPI PUSH1 0x0 DUP1 REVERT JUMPDEST POP PUSH2 0x9F PUSH1 0x4 DUP1 CALLDATASIZE SUB DUP2 ADD SWAP1 PUSH2 0x9A SWAP2 SWAP1 PUSH2 0x32A JUMP JUMPDEST PUSH2 0x1AA JUMP JUMPDEST STOP JUMPDEST CALLVALUE DUP1 ISZERO PUSH2 0xAD JUMPI PUSH1 0x0 DUP1 REVERT JUMPDEST POP PUSH2 0xC8 PUSH1 0x4 DUP1 CALLDATASIZE SUB DUP2 ADD SWAP1 PUSH2 0xC3 SWAP2 SWAP1 PUSH2 0x32A JUMP JUMPDEST PUSH2 0x2D2 JUMP JUMPDEST STOP JUMPDEST CALLVALUE DUP1 ISZERO PUSH2 0xD6 JUMPI PUSH1 0x0 DUP1 REVERT JUMPDEST POP PUSH2 0xDF PUSH2 0x2EB JUMP JUMPDEST PUSH1 0x40 MLOAD PUSH2 0xEC SWAP2 SWAP1 PUSH2 0x3D9 JUMP JUMPDEST PUSH1 0x40 MLOAD DUP1 SWAP2 SUB SWAP1 RETURN JUMPDEST PUSH2 0xFD PUSH2 0x2FE JUMP JUMPDEST STOP JUMPDEST PUSH1 0x0 DUP1 SLOAD SWAP1 PUSH2 0x100 EXP SWAP1 DIV PUSH20 0xFFFFFFFFFFFFFFFFFFFFFFFFFFFFFFFFFFFFFFFF AND PUSH20 0xFFFFFFFFFFFFFFFFFFFFFFFFFFFFFFFFFFFFFFFF AND CALLER PUSH20 0xFFFFFFFFFFFFFFFFFFFFFFFFFFFFFFFFFFFFFFFF AND EQ PUSH2 0x18D JUMPI PUSH1 0x40 MLOAD PUSH32 0x8C379A000000000000000000000000000000000000000000000000000000000 DUP2 MSTORE PUSH1 0x4 ADD PUSH2 0x184 SWAP1 PUSH2 0x3F4 JUMP JUMPDEST PUSH1 0x40 MLOAD DUP1 SWAP2 SUB SWAP1 REVERT JUMPDEST DUP1 PUSH1 0x0 PUSH1 0x14 PUSH2 0x100 EXP DUP2 SLOAD DUP2 PUSH1 0xFF MUL NOT AND SWAP1 DUP4 ISZERO ISZERO MUL OR SWAP1 SSTORE POP POP JUMP JUMPDEST PUSH1 0x0 DUP1 SLOAD SWAP1 PUSH2 0x100 EXP SWAP1 DIV PUSH20 0xFFFFFFFFFFFFFFFFFFFFFFFFFFFFFFFFFFFFFFFF AND PUSH20 0xFFFFFFFFFFFFFFFFFFFFFFFFFFFFFFFFFFFFFFFF AND CALLER PUSH20 0xFFFFFFFFFFFFFFFFFFFFFFFFFFFFFFFFFFFFFFFF AND EQ PUSH2 0x238 JUMPI PUSH1 0x40 MLOAD PUSH32 0x8C379A000000000000000000000000000000000000000000000000000000000 DUP2 MSTORE PUSH1 0x4 ADD PUSH2 0x22F SWAP1 PUSH2 0x3F4 JUMP JUMPDEST PUSH1 0x40 MLOAD DUP1 SWAP2 SUB SWAP1 REVERT JUMPDEST PUSH1 0x0 PUSH1 0x14 SWAP1 SLOAD SWAP1 PUSH2 0x100 EXP SWAP1 DIV PUSH1 0xFF AND ISZERO PUSH2 0x288 JUMPI PUSH1 0x40 MLOAD PUSH32 0x8C379A000000000000000000000000000000000000000000000000000000000 DUP2 MSTORE PUSH1 0x4 ADD PUSH2 0x27F SWAP1 PUSH2 0x414 JUMP JUMPDEST PUSH1 0x40 MLOAD DUP1 SWAP2 SUB SWAP1 REVERT JUMPDEST DUP1 PUSH20 0xFFFFFFFFFFFFFFFFFFFFFFFFFFFFFFFFFFFFFFFF AND PUSH2 0x8FC SELFBALANCE SWAP1 DUP2 ISZERO MUL SWAP1 PUSH1 0x40 MLOAD PUSH1 0x0 PUSH1 0x40 MLOAD DUP1 DUP4 SUB DUP2 DUP6 DUP9 DUP9 CALL SWAP4 POP POP POP POP ISZERO DUP1 ISZERO PUSH2 0x2CE JUMPI RETURNDATASIZE PUSH1 0x0 DUP1 RETURNDATACOPY RETURNDATASIZE PUSH1 0x0 REVERT JUMPDEST POP POP JUMP JUMPDEST DUP1 PUSH20 0xFFFFFFFFFFFFFFFFFFFFFFFFFFFFFFFFFFFFFFFF AND SELFDESTRUCT JUMPDEST PUSH1 0x0 PUSH1 0x14 SWAP1 SLOAD SWAP1 PUSH2 0x100 EXP SWAP1 DIV PUSH1 0xFF AND DUP2 JUMP JUMPDEST JUMP JUMPDEST PUSH1 0x0 DUP2 CALLDATALOAD SWAP1 POP PUSH2 0x30F DUP2 PUSH2 0x4DA JUMP JUMPDEST SWAP3 SWAP2 POP POP JUMP JUMPDEST PUSH1 0x0 DUP2 CALLDATALOAD SWAP1 POP PUSH2 0x324 DUP2 PUSH2 0x4F1 JUMP JUMPDEST SWAP3 SWAP2 POP POP JUMP JUMPDEST PUSH1 0x0 PUSH1 0x20 DUP3 DUP5 SUB SLT ISZERO PUSH2 0x340 JUMPI PUSH2 0x33F PUSH2 0x483 JUMP JUMPDEST JUMPDEST PUSH1 0x0 PUSH2 0x34E DUP5 DUP3 DUP6 ADD PUSH2 0x300 JUMP JUMPDEST SWAP2 POP POP SWAP3 SWAP2 POP POP JUMP JUMPDEST PUSH1 0x0 PUSH1 0x20 DUP3 DUP5 SUB SLT ISZERO PUSH2 0x36D JUMPI PUSH2 0x36C PUSH2 0x483 JUMP JUMPDEST JUMPDEST PUSH1 0x0 PUSH2 0x37B DUP5 DUP3 DUP6 ADD PUSH2 0x315 JUMP JUMPDEST SWAP2 POP POP SWAP3 SWAP2 POP POP JUMP JUMPDEST PUSH2 0x38D DUP2 PUSH2 0x457 JUMP JUMPDEST DUP3 MSTORE POP POP JUMP JUMPDEST PUSH1 0x0 PUSH2 0x3A0 PUSH1 0x15 DUP4 PUSH2 0x434 JUMP JUMPDEST SWAP2 POP PUSH2 0x3AB DUP3 PUSH2 0x488 JUMP JUMPDEST PUSH1 0x20 DUP3 ADD SWAP1 POP SWAP2 SWAP1 POP JUMP JUMPDEST PUSH1 0x0 PUSH2 0x3C3 PUSH1 0x12 DUP4 PUSH2 0x434 JUMP JUMPDEST SWAP2 POP PUSH2 0x3CE DUP3 PUSH2 0x4B1 JUMP JUMPDEST PUSH1 0x20 DUP3 ADD SWAP1 POP SWAP2 SWAP1 POP JUMP JUMPDEST PUSH1 0x0 PUSH1 0x20 DUP3 ADD SWAP1 POP PUSH2 0x3EE PUSH1 0x0 DUP4 ADD DUP5 PUSH2 0x384 JUMP JUMPDEST SWAP3 SWAP2 POP POP JUMP JUMPDEST PUSH1 0x0 PUSH1 0x20 DUP3 ADD SWAP1 POP DUP2 DUP2 SUB PUSH1 0x0 DUP4 ADD MSTORE PUSH2 0x40D DUP2 PUSH2 0x393 JUMP JUMPDEST SWAP1 POP SWAP2 SWAP1 POP JUMP JUMPDEST PUSH1 0x0 PUSH1 0x20 DUP3 ADD SWAP1 POP DUP2 DUP2 SUB PUSH1 0x0 DUP4 ADD MSTORE PUSH2 0x42D DUP2 PUSH2 0x3B6 JUMP JUMPDEST SWAP1 POP SWAP2 SWAP1 POP JUMP JUMPDEST PUSH1 0x0 DUP3 DUP3 MSTORE PUSH1 0x20 DUP3 ADD SWAP1 POP SWAP3 SWAP2 POP POP JUMP JUMPDEST PUSH1 0x0 PUSH2 0x450 DUP3 PUSH2 0x463 JUMP JUMPDEST SWAP1 POP SWAP2 SWAP1 POP JUMP JUMPDEST PUSH1 0x0 DUP2 ISZERO ISZERO SWAP1 POP SWAP2 SWAP1 POP JUMP JUMPDEST PUSH1 0x0 PUSH20 0xFFFFFFFFFFFFFFFFFFFFFFFFFFFFFFFFFFFFFFFF DUP3 AND SWAP1 POP SWAP2 SWAP1 POP JUMP JUMPDEST PUSH1 0x0 DUP1 REVERT JUMPDEST PUSH32 0x596F7520617265206E6F7420746865206F776E65720000000000000000000000 PUSH1 0x0 DUP3 ADD MSTORE POP JUMP JUMPDEST PUSH32 0x436F6E7472616374206973207061757365640000000000000000000000000000 PUSH1 0x0 DUP3 ADD MSTORE POP JUMP JUMPDEST PUSH2 0x4E3 DUP2 PUSH2 0x445 JUMP JUMPDEST DUP2 EQ PUSH2 0x4EE JUMPI PUSH1 0x0 DUP1 REVERT JUMPDEST POP JUMP JUMPDEST PUSH2 0x4FA DUP2 PUSH2 0x457 JUMP JUMPDEST DUP2 EQ PUSH2 0x505 JUMPI PUSH1 0x0 DUP1 REVERT JUMPDEST POP JUMP INVALID LOG2 PUSH5 0x6970667358 0x22 SLT KECCAK256 0xC0 PUSH14 0xE670C6A237CA17245BBC3812F1F4 CALLDATASIZE 0x21 0xD4 ADDRESS SWAP16 SSTORE DIV ADDMOD MULMOD KECCAK256 DUP10 PUSH9 0xDD5C22964736F6C63 NUMBER STOP ADDMOD SMOD STOP CALLER "
				},
				"gasEstimates": {
					"creation": {
						"codeDepositCost": "268400",
						"executionCost": "24572",
						"totalCost": "292972"
					},
					"external": {
						"destroySmartContract(address)": "28075",
						"paused()": "2565",
						"sendMoney()": "186",
						"setPaused(bool)": "26874",
						"withdrawMoney(address)": "infinite"
					}
				},
				"methodIdentifiers": {
					"destroySmartContract(address)": "39df43ff",
					"paused()": "5c975abb",
					"sendMoney()": "cbedbf5a",
					"setPaused(bool)": "16c38b3c",
					"withdrawMoney(address)": "2f971029"
				}
			},
			"storageLayout": {
				"storage": [
					{
						"astId": 3,
						"contract": "contracts/basics/04-StartStopUpdateExample.sol:StartStopUpdateExample",
						"label": "owner",
						"offset": 0,
						"slot": "0",
						"type": "t_address"
					},
					{
						"astId": 5,
						"contract": "contracts/basics/04-StartStopUpdateExample.sol:StartStopUpdateExample",
						"label": "paused",
						"offset": 20,
						"slot": "0",
						"type": "t_bool"
					}
				],
				"types": {
					"t_address": {
						"encoding": "inplace",
						"label": "address",
						"numberOfBytes": "20"
					},
					"t_bool": {
						"encoding": "inplace",
						"label": "bool",
						"numberOfBytes": "1"
					}
				}
			},
			"userdoc": {
				"kind": "user",
				"methods": {},
				"version": 1
			}
		}
	}
}