{
	"contracts/basics/07-ExceptionHandlingExample.sol": {
		"ExceptionHandlingExample": {
			"abi": [
				{
					"inputs": [],
					"name": "receiveMoney",
					"outputs": [],
					"stateMutability": "payable",
					"type": "function"
				},
				{
					"inputs": [
						{
							"internalType": "address payable",
							"name": "_to",
							"type": "address"
						},
						{
							"internalType": "uint64",
							"name": "_amount",
							"type": "uint64"
						}
					],
					"name": "withdrawMoney",
					"outputs": [],
					"stateMutability": "nonpayable",
					"type": "function"
				}
			],
			"devdoc": {
				"kind": "dev",
				"methods": {},
				"version": 1
			},
			"evm": {
				"assembly": "    /* \"contracts/basics/07-ExceptionHandlingExample.sol\":55:506  contract ExceptionHandlingExample{\r... */\n  mstore(0x40, 0x80)\n  callvalue\n  dup1\n  iszero\n  tag_1\n  jumpi\n  0x00\n  dup1\n  revert\ntag_1:\n  pop\n  dataSize(sub_0)\n  dup1\n  dataOffset(sub_0)\n  0x00\n  codecopy\n  0x00\n  return\nstop\n\nsub_0: assembly {\n        /* \"contracts/basics/07-ExceptionHandlingExample.sol\":55:506  contract ExceptionHandlingExample{\r... */\n      mstore(0x40, 0x80)\n      jumpi(tag_1, lt(calldatasize, 0x04))\n      shr(0xe0, calldataload(0x00))\n      dup1\n      0x0ad19aeb\n      eq\n      tag_2\n      jumpi\n      dup1\n      0x6d26ec18\n      eq\n      tag_3\n      jumpi\n    tag_1:\n      0x00\n      dup1\n      revert\n        /* \"contracts/basics/07-ExceptionHandlingExample.sol\":256:503  function withdrawMoney(address payable _to, uint64 _amount) public{\r... */\n    tag_2:\n      callvalue\n      dup1\n      iszero\n      tag_4\n      jumpi\n      0x00\n      dup1\n      revert\n    tag_4:\n      pop\n      tag_5\n      0x04\n      dup1\n      calldatasize\n      sub\n      dup2\n      add\n      swap1\n      tag_6\n      swap2\n      swap1\n      tag_7\n      jump\t// in\n    tag_6:\n      tag_8\n      jump\t// in\n    tag_5:\n      stop\n        /* \"contracts/basics/07-ExceptionHandlingExample.sol\":145:248  function receiveMoney() payable public{\r... */\n    tag_3:\n      tag_9\n      tag_10\n      jump\t// in\n    tag_9:\n      stop\n        /* \"contracts/basics/07-ExceptionHandlingExample.sol\":256:503  function withdrawMoney(address payable _to, uint64 _amount) public{\r... */\n    tag_8:\n        /* \"contracts/basics/07-ExceptionHandlingExample.sol\":349:364  balanceReceived */\n      0x00\n        /* \"contracts/basics/07-ExceptionHandlingExample.sol\":349:376  balanceReceived[msg.sender] */\n      dup1\n        /* \"contracts/basics/07-ExceptionHandlingExample.sol\":365:375  msg.sender */\n      caller\n        /* \"contracts/basics/07-ExceptionHandlingExample.sol\":349:376  balanceReceived[msg.sender] */\n      0xffffffffffffffffffffffffffffffffffffffff\n      and\n      0xffffffffffffffffffffffffffffffffffffffff\n      and\n      dup2\n      mstore\n      0x20\n      add\n      swap1\n      dup2\n      mstore\n      0x20\n      add\n      0x00\n      keccak256\n      0x00\n      swap1\n      sload\n      swap1\n      0x0100\n      exp\n      swap1\n      div\n      0xffffffffffffffff\n      and\n        /* \"contracts/basics/07-ExceptionHandlingExample.sol\":340:376  _amount<=balanceReceived[msg.sender] */\n      0xffffffffffffffff\n      and\n        /* \"contracts/basics/07-ExceptionHandlingExample.sol\":340:347  _amount */\n      dup2\n        /* \"contracts/basics/07-ExceptionHandlingExample.sol\":340:376  _amount<=balanceReceived[msg.sender] */\n      0xffffffffffffffff\n      and\n      gt\n      iszero\n        /* \"contracts/basics/07-ExceptionHandlingExample.sol\":332:406  require(_amount<=balanceReceived[msg.sender],'You dont have enough funds') */\n      tag_12\n      jumpi\n      mload(0x40)\n      0x08c379a000000000000000000000000000000000000000000000000000000000\n      dup2\n      mstore\n      0x04\n      add\n      tag_13\n      swap1\n      tag_14\n      jump\t// in\n    tag_13:\n      mload(0x40)\n      dup1\n      swap2\n      sub\n      swap1\n      revert\n    tag_12:\n        /* \"contracts/basics/07-ExceptionHandlingExample.sol\":447:454  _amount */\n      dup1\n        /* \"contracts/basics/07-ExceptionHandlingExample.sol\":416:431  balanceReceived */\n      0x00\n        /* \"contracts/basics/07-ExceptionHandlingExample.sol\":416:443  balanceReceived[msg.sender] */\n      dup1\n        /* \"contracts/basics/07-ExceptionHandlingExample.sol\":432:442  msg.sender */\n      caller\n        /* \"contracts/basics/07-ExceptionHandlingExample.sol\":416:443  balanceReceived[msg.sender] */\n      0xffffffffffffffffffffffffffffffffffffffff\n      and\n      0xffffffffffffffffffffffffffffffffffffffff\n      and\n      dup2\n      mstore\n      0x20\n      add\n      swap1\n      dup2\n      mstore\n      0x20\n      add\n      0x00\n      keccak256\n      0x00\n        /* \"contracts/basics/07-ExceptionHandlingExample.sol\":416:454  balanceReceived[msg.sender] -= _amount */\n      dup3\n      dup3\n      dup3\n      swap1\n      sload\n      swap1\n      0x0100\n      exp\n      swap1\n      div\n      0xffffffffffffffff\n      and\n      tag_15\n      swap2\n      swap1\n      tag_16\n      jump\t// in\n    tag_15:\n      swap3\n      pop\n      0x0100\n      exp\n      dup2\n      sload\n      dup2\n      0xffffffffffffffff\n      mul\n      not\n      and\n      swap1\n      dup4\n      0xffffffffffffffff\n      and\n      mul\n      or\n      swap1\n      sstore\n      pop\n        /* \"contracts/basics/07-ExceptionHandlingExample.sol\":464:467  _to */\n      dup2\n        /* \"contracts/basics/07-ExceptionHandlingExample.sol\":464:476  _to.transfer */\n      0xffffffffffffffffffffffffffffffffffffffff\n      and\n        /* \"contracts/basics/07-ExceptionHandlingExample.sol\":464:485  _to.transfer(_amount) */\n      0x08fc\n        /* \"contracts/basics/07-ExceptionHandlingExample.sol\":477:484  _amount */\n      dup3\n        /* \"contracts/basics/07-ExceptionHandlingExample.sol\":464:485  _to.transfer(_amount) */\n      0xffffffffffffffff\n      and\n      swap1\n      dup2\n      iszero\n      mul\n      swap1\n      mload(0x40)\n      0x00\n      mload(0x40)\n      dup1\n      dup4\n      sub\n      dup2\n      dup6\n      dup9\n      dup9\n      call\n      swap4\n      pop\n      pop\n      pop\n      pop\n      iszero\n      dup1\n      iszero\n      tag_18\n      jumpi\n      returndatasize\n      0x00\n      dup1\n      returndatacopy\n      revert(0x00, returndatasize)\n    tag_18:\n      pop\n        /* \"contracts/basics/07-ExceptionHandlingExample.sol\":256:503  function withdrawMoney(address payable _to, uint64 _amount) public{\r... */\n      pop\n      pop\n      jump\t// out\n        /* \"contracts/basics/07-ExceptionHandlingExample.sol\":145:248  function receiveMoney() payable public{\r... */\n    tag_10:\n        /* \"contracts/basics/07-ExceptionHandlingExample.sol\":230:239  msg.value */\n      callvalue\n        /* \"contracts/basics/07-ExceptionHandlingExample.sol\":194:209  balanceReceived */\n      0x00\n        /* \"contracts/basics/07-ExceptionHandlingExample.sol\":194:221  balanceReceived[msg.sender] */\n      dup1\n        /* \"contracts/basics/07-ExceptionHandlingExample.sol\":210:220  msg.sender */\n      caller\n        /* \"contracts/basics/07-ExceptionHandlingExample.sol\":194:221  balanceReceived[msg.sender] */\n      0xffffffffffffffffffffffffffffffffffffffff\n      and\n      0xffffffffffffffffffffffffffffffffffffffff\n      and\n      dup2\n      mstore\n      0x20\n      add\n      swap1\n      dup2\n      mstore\n      0x20\n      add\n      0x00\n      keccak256\n      0x00\n        /* \"contracts/basics/07-ExceptionHandlingExample.sol\":194:240  balanceReceived[msg.sender]+=uint64(msg.value) */\n      dup3\n      dup3\n      dup3\n      swap1\n      sload\n      swap1\n      0x0100\n      exp\n      swap1\n      div\n      0xffffffffffffffff\n      and\n      tag_20\n      swap2\n      swap1\n      tag_21\n      jump\t// in\n    tag_20:\n      swap3\n      pop\n      0x0100\n      exp\n      dup2\n      sload\n      dup2\n      0xffffffffffffffff\n      mul\n      not\n      and\n      swap1\n      dup4\n      0xffffffffffffffff\n      and\n      mul\n      or\n      swap1\n      sstore\n      pop\n        /* \"contracts/basics/07-ExceptionHandlingExample.sol\":145:248  function receiveMoney() payable public{\r... */\n      jump\t// out\n        /* \"#utility.yul\":7:162   */\n    tag_23:\n        /* \"#utility.yul\":61:66   */\n      0x00\n        /* \"#utility.yul\":99:105   */\n      dup2\n        /* \"#utility.yul\":86:106   */\n      calldataload\n        /* \"#utility.yul\":77:106   */\n      swap1\n      pop\n        /* \"#utility.yul\":115:156   */\n      tag_25\n        /* \"#utility.yul\":150:155   */\n      dup2\n        /* \"#utility.yul\":115:156   */\n      tag_26\n      jump\t// in\n    tag_25:\n        /* \"#utility.yul\":7:162   */\n      swap3\n      swap2\n      pop\n      pop\n      jump\t// out\n        /* \"#utility.yul\":168:305   */\n    tag_27:\n        /* \"#utility.yul\":213:218   */\n      0x00\n        /* \"#utility.yul\":251:257   */\n      dup2\n        /* \"#utility.yul\":238:258   */\n      calldataload\n        /* \"#utility.yul\":229:258   */\n      swap1\n      pop\n        /* \"#utility.yul\":267:299   */\n      tag_29\n        /* \"#utility.yul\":293:298   */\n      dup2\n        /* \"#utility.yul\":267:299   */\n      tag_30\n      jump\t// in\n    tag_29:\n        /* \"#utility.yul\":168:305   */\n      swap3\n      swap2\n      pop\n      pop\n      jump\t// out\n        /* \"#utility.yul\":311:799   */\n    tag_7:\n        /* \"#utility.yul\":386:392   */\n      0x00\n        /* \"#utility.yul\":394:400   */\n      dup1\n        /* \"#utility.yul\":443:445   */\n      0x40\n        /* \"#utility.yul\":431:440   */\n      dup4\n        /* \"#utility.yul\":422:429   */\n      dup6\n        /* \"#utility.yul\":418:441   */\n      sub\n        /* \"#utility.yul\":414:446   */\n      slt\n        /* \"#utility.yul\":411:530   */\n      iszero\n      tag_32\n      jumpi\n        /* \"#utility.yul\":449:528   */\n      tag_33\n      tag_34\n      jump\t// in\n    tag_33:\n        /* \"#utility.yul\":411:530   */\n    tag_32:\n        /* \"#utility.yul\":569:570   */\n      0x00\n        /* \"#utility.yul\":594:655   */\n      tag_35\n        /* \"#utility.yul\":647:654   */\n      dup6\n        /* \"#utility.yul\":638:644   */\n      dup3\n        /* \"#utility.yul\":627:636   */\n      dup7\n        /* \"#utility.yul\":623:645   */\n      add\n        /* \"#utility.yul\":594:655   */\n      tag_23\n      jump\t// in\n    tag_35:\n        /* \"#utility.yul\":584:655   */\n      swap3\n      pop\n        /* \"#utility.yul\":540:665   */\n      pop\n        /* \"#utility.yul\":704:706   */\n      0x20\n        /* \"#utility.yul\":730:782   */\n      tag_36\n        /* \"#utility.yul\":774:781   */\n      dup6\n        /* \"#utility.yul\":765:771   */\n      dup3\n        /* \"#utility.yul\":754:763   */\n      dup7\n        /* \"#utility.yul\":750:772   */\n      add\n        /* \"#utility.yul\":730:782   */\n      tag_27\n      jump\t// in\n    tag_36:\n        /* \"#utility.yul\":720:782   */\n      swap2\n      pop\n        /* \"#utility.yul\":675:792   */\n      pop\n        /* \"#utility.yul\":311:799   */\n      swap3\n      pop\n      swap3\n      swap1\n      pop\n      jump\t// out\n        /* \"#utility.yul\":805:1171   */\n    tag_37:\n        /* \"#utility.yul\":947:950   */\n      0x00\n        /* \"#utility.yul\":968:1035   */\n      tag_39\n        /* \"#utility.yul\":1032:1034   */\n      0x1a\n        /* \"#utility.yul\":1027:1030   */\n      dup4\n        /* \"#utility.yul\":968:1035   */\n      tag_40\n      jump\t// in\n    tag_39:\n        /* \"#utility.yul\":961:1035   */\n      swap2\n      pop\n        /* \"#utility.yul\":1044:1137   */\n      tag_41\n        /* \"#utility.yul\":1133:1136   */\n      dup3\n        /* \"#utility.yul\":1044:1137   */\n      tag_42\n      jump\t// in\n    tag_41:\n        /* \"#utility.yul\":1162:1164   */\n      0x20\n        /* \"#utility.yul\":1157:1160   */\n      dup3\n        /* \"#utility.yul\":1153:1165   */\n      add\n        /* \"#utility.yul\":1146:1165   */\n      swap1\n      pop\n        /* \"#utility.yul\":805:1171   */\n      swap2\n      swap1\n      pop\n      jump\t// out\n        /* \"#utility.yul\":1177:1596   */\n    tag_14:\n        /* \"#utility.yul\":1343:1347   */\n      0x00\n        /* \"#utility.yul\":1381:1383   */\n      0x20\n        /* \"#utility.yul\":1370:1379   */\n      dup3\n        /* \"#utility.yul\":1366:1384   */\n      add\n        /* \"#utility.yul\":1358:1384   */\n      swap1\n      pop\n        /* \"#utility.yul\":1430:1439   */\n      dup2\n        /* \"#utility.yul\":1424:1428   */\n      dup2\n        /* \"#utility.yul\":1420:1440   */\n      sub\n        /* \"#utility.yul\":1416:1417   */\n      0x00\n        /* \"#utility.yul\":1405:1414   */\n      dup4\n        /* \"#utility.yul\":1401:1418   */\n      add\n        /* \"#utility.yul\":1394:1441   */\n      mstore\n        /* \"#utility.yul\":1458:1589   */\n      tag_44\n        /* \"#utility.yul\":1584:1588   */\n      dup2\n        /* \"#utility.yul\":1458:1589   */\n      tag_37\n      jump\t// in\n    tag_44:\n        /* \"#utility.yul\":1450:1589   */\n      swap1\n      pop\n        /* \"#utility.yul\":1177:1596   */\n      swap2\n      swap1\n      pop\n      jump\t// out\n        /* \"#utility.yul\":1683:1852   */\n    tag_40:\n        /* \"#utility.yul\":1767:1778   */\n      0x00\n        /* \"#utility.yul\":1801:1807   */\n      dup3\n        /* \"#utility.yul\":1796:1799   */\n      dup3\n        /* \"#utility.yul\":1789:1808   */\n      mstore\n        /* \"#utility.yul\":1841:1845   */\n      0x20\n        /* \"#utility.yul\":1836:1839   */\n      dup3\n        /* \"#utility.yul\":1832:1846   */\n      add\n        /* \"#utility.yul\":1817:1846   */\n      swap1\n      pop\n        /* \"#utility.yul\":1683:1852   */\n      swap3\n      swap2\n      pop\n      pop\n      jump\t// out\n        /* \"#utility.yul\":1858:2112   */\n    tag_21:\n        /* \"#utility.yul\":1897:1900   */\n      0x00\n        /* \"#utility.yul\":1916:1935   */\n      tag_49\n        /* \"#utility.yul\":1933:1934   */\n      dup3\n        /* \"#utility.yul\":1916:1935   */\n      tag_50\n      jump\t// in\n    tag_49:\n        /* \"#utility.yul\":1911:1935   */\n      swap2\n      pop\n        /* \"#utility.yul\":1949:1968   */\n      tag_51\n        /* \"#utility.yul\":1966:1967   */\n      dup4\n        /* \"#utility.yul\":1949:1968   */\n      tag_50\n      jump\t// in\n    tag_51:\n        /* \"#utility.yul\":1944:1968   */\n      swap3\n      pop\n        /* \"#utility.yul\":2054:2055   */\n      dup3\n        /* \"#utility.yul\":2034:2052   */\n      0xffffffffffffffff\n        /* \"#utility.yul\":2030:2056   */\n      sub\n        /* \"#utility.yul\":2027:2028   */\n      dup3\n        /* \"#utility.yul\":2024:2057   */\n      gt\n        /* \"#utility.yul\":2021:2080   */\n      iszero\n      tag_52\n      jumpi\n        /* \"#utility.yul\":2060:2078   */\n      tag_53\n      tag_54\n      jump\t// in\n    tag_53:\n        /* \"#utility.yul\":2021:2080   */\n    tag_52:\n        /* \"#utility.yul\":2104:2105   */\n      dup3\n        /* \"#utility.yul\":2101:2102   */\n      dup3\n        /* \"#utility.yul\":2097:2106   */\n      add\n        /* \"#utility.yul\":2090:2106   */\n      swap1\n      pop\n        /* \"#utility.yul\":1858:2112   */\n      swap3\n      swap2\n      pop\n      pop\n      jump\t// out\n        /* \"#utility.yul\":2118:2306   */\n    tag_16:\n        /* \"#utility.yul\":2157:2161   */\n      0x00\n        /* \"#utility.yul\":2177:2196   */\n      tag_56\n        /* \"#utility.yul\":2194:2195   */\n      dup3\n        /* \"#utility.yul\":2177:2196   */\n      tag_50\n      jump\t// in\n    tag_56:\n        /* \"#utility.yul\":2172:2196   */\n      swap2\n      pop\n        /* \"#utility.yul\":2210:2229   */\n      tag_57\n        /* \"#utility.yul\":2227:2228   */\n      dup4\n        /* \"#utility.yul\":2210:2229   */\n      tag_50\n      jump\t// in\n    tag_57:\n        /* \"#utility.yul\":2205:2229   */\n      swap3\n      pop\n        /* \"#utility.yul\":2248:2249   */\n      dup3\n        /* \"#utility.yul\":2245:2246   */\n      dup3\n        /* \"#utility.yul\":2242:2250   */\n      lt\n        /* \"#utility.yul\":2239:2273   */\n      iszero\n      tag_58\n      jumpi\n        /* \"#utility.yul\":2253:2271   */\n      tag_59\n      tag_54\n      jump\t// in\n    tag_59:\n        /* \"#utility.yul\":2239:2273   */\n    tag_58:\n        /* \"#utility.yul\":2298:2299   */\n      dup3\n        /* \"#utility.yul\":2295:2296   */\n      dup3\n        /* \"#utility.yul\":2291:2300   */\n      sub\n        /* \"#utility.yul\":2283:2300   */\n      swap1\n      pop\n        /* \"#utility.yul\":2118:2306   */\n      swap3\n      swap2\n      pop\n      pop\n      jump\t// out\n        /* \"#utility.yul\":2312:2416   */\n    tag_60:\n        /* \"#utility.yul\":2357:2364   */\n      0x00\n        /* \"#utility.yul\":2386:2410   */\n      tag_62\n        /* \"#utility.yul\":2404:2409   */\n      dup3\n        /* \"#utility.yul\":2386:2410   */\n      tag_63\n      jump\t// in\n    tag_62:\n        /* \"#utility.yul\":2375:2410   */\n      swap1\n      pop\n        /* \"#utility.yul\":2312:2416   */\n      swap2\n      swap1\n      pop\n      jump\t// out\n        /* \"#utility.yul\":2422:2548   */\n    tag_63:\n        /* \"#utility.yul\":2459:2466   */\n      0x00\n        /* \"#utility.yul\":2499:2541   */\n      0xffffffffffffffffffffffffffffffffffffffff\n        /* \"#utility.yul\":2492:2497   */\n      dup3\n        /* \"#utility.yul\":2488:2542   */\n      and\n        /* \"#utility.yul\":2477:2542   */\n      swap1\n      pop\n        /* \"#utility.yul\":2422:2548   */\n      swap2\n      swap1\n      pop\n      jump\t// out\n        /* \"#utility.yul\":2554:2655   */\n    tag_50:\n        /* \"#utility.yul\":2590:2597   */\n      0x00\n        /* \"#utility.yul\":2630:2648   */\n      0xffffffffffffffff\n        /* \"#utility.yul\":2623:2628   */\n      dup3\n        /* \"#utility.yul\":2619:2649   */\n      and\n        /* \"#utility.yul\":2608:2649   */\n      swap1\n      pop\n        /* \"#utility.yul\":2554:2655   */\n      swap2\n      swap1\n      pop\n      jump\t// out\n        /* \"#utility.yul\":2661:2841   */\n    tag_54:\n        /* \"#utility.yul\":2709:2786   */\n      0x4e487b7100000000000000000000000000000000000000000000000000000000\n        /* \"#utility.yul\":2706:2707   */\n      0x00\n        /* \"#utility.yul\":2699:2787   */\n      mstore\n        /* \"#utility.yul\":2806:2810   */\n      0x11\n        /* \"#utility.yul\":2803:2804   */\n      0x04\n        /* \"#utility.yul\":2796:2811   */\n      mstore\n        /* \"#utility.yul\":2830:2834   */\n      0x24\n        /* \"#utility.yul\":2827:2828   */\n      0x00\n        /* \"#utility.yul\":2820:2835   */\n      revert\n        /* \"#utility.yul\":2970:3087   */\n    tag_34:\n        /* \"#utility.yul\":3079:3080   */\n      0x00\n        /* \"#utility.yul\":3076:3077   */\n      dup1\n        /* \"#utility.yul\":3069:3081   */\n      revert\n        /* \"#utility.yul\":3093:3269   */\n    tag_42:\n        /* \"#utility.yul\":3233:3261   */\n      0x596f7520646f6e74206861766520656e6f7567682066756e6473000000000000\n        /* \"#utility.yul\":3229:3230   */\n      0x00\n        /* \"#utility.yul\":3221:3227   */\n      dup3\n        /* \"#utility.yul\":3217:3231   */\n      add\n        /* \"#utility.yul\":3210:3262   */\n      mstore\n        /* \"#utility.yul\":3093:3269   */\n      pop\n      jump\t// out\n        /* \"#utility.yul\":3275:3413   */\n    tag_26:\n        /* \"#utility.yul\":3356:3388   */\n      tag_72\n        /* \"#utility.yul\":3382:3387   */\n      dup2\n        /* \"#utility.yul\":3356:3388   */\n      tag_60\n      jump\t// in\n    tag_72:\n        /* \"#utility.yul\":3349:3354   */\n      dup2\n        /* \"#utility.yul\":3346:3389   */\n      eq\n        /* \"#utility.yul\":3336:3407   */\n      tag_73\n      jumpi\n        /* \"#utility.yul\":3403:3404   */\n      0x00\n        /* \"#utility.yul\":3400:3401   */\n      dup1\n        /* \"#utility.yul\":3393:3405   */\n      revert\n        /* \"#utility.yul\":3336:3407   */\n    tag_73:\n        /* \"#utility.yul\":3275:3413   */\n      pop\n      jump\t// out\n        /* \"#utility.yul\":3419:3539   */\n    tag_30:\n        /* \"#utility.yul\":3491:3514   */\n      tag_75\n        /* \"#utility.yul\":3508:3513   */\n      dup2\n        /* \"#utility.yul\":3491:3514   */\n      tag_50\n      jump\t// in\n    tag_75:\n        /* \"#utility.yul\":3484:3489   */\n      dup2\n        /* \"#utility.yul\":3481:3515   */\n      eq\n        /* \"#utility.yul\":3471:3533   */\n      tag_76\n      jumpi\n        /* \"#utility.yul\":3529:3530   */\n      0x00\n        /* \"#utility.yul\":3526:3527   */\n      dup1\n        /* \"#utility.yul\":3519:3531   */\n      revert\n        /* \"#utility.yul\":3471:3533   */\n    tag_76:\n        /* \"#utility.yul\":3419:3539   */\n      pop\n      jump\t// out\n\n    auxdata: 0xa26469706673582212208d1e3519c2ab8812a99bb25f7be524b11f55b47295aa98eb308fafe8f0bb73c064736f6c63430008070033\n}\n",
				"bytecode": {
					"linkReferences": {},
					"object": "608060405234801561001057600080fd5b506104a6806100206000396000f3fe6080604052600436106100295760003560e01c80630ad19aeb1461002e5780636d26ec1814610057575b600080fd5b34801561003a57600080fd5b5061005560048036038101906100509190610299565b610061565b005b61005f6101e6565b005b6000803373ffffffffffffffffffffffffffffffffffffffff1673ffffffffffffffffffffffffffffffffffffffff16815260200190815260200160002060009054906101000a900467ffffffffffffffff1667ffffffffffffffff168167ffffffffffffffff16111561010a576040517f08c379a0000000000000000000000000000000000000000000000000000000008152600401610101906102fc565b60405180910390fd5b806000803373ffffffffffffffffffffffffffffffffffffffff1673ffffffffffffffffffffffffffffffffffffffff16815260200190815260200160002060008282829054906101000a900467ffffffffffffffff1661016b919061036b565b92506101000a81548167ffffffffffffffff021916908367ffffffffffffffff1602179055508173ffffffffffffffffffffffffffffffffffffffff166108fc8267ffffffffffffffff169081150290604051600060405180830381858888f193505050501580156101e1573d6000803e3d6000fd5b505050565b346000803373ffffffffffffffffffffffffffffffffffffffff1673ffffffffffffffffffffffffffffffffffffffff16815260200190815260200160002060008282829054906101000a900467ffffffffffffffff16610247919061032d565b92506101000a81548167ffffffffffffffff021916908367ffffffffffffffff160217905550565b60008135905061027e81610442565b92915050565b60008135905061029381610459565b92915050565b600080604083850312156102b0576102af610414565b5b60006102be8582860161026f565b92505060206102cf85828601610284565b9150509250929050565b60006102e6601a8361031c565b91506102f182610419565b602082019050919050565b60006020820190508181036000830152610315816102d9565b9050919050565b600082825260208201905092915050565b6000610338826103d1565b9150610343836103d1565b92508267ffffffffffffffff038211156103605761035f6103e5565b5b828201905092915050565b6000610376826103d1565b9150610381836103d1565b925082821015610394576103936103e5565b5b828203905092915050565b60006103aa826103b1565b9050919050565b600073ffffffffffffffffffffffffffffffffffffffff82169050919050565b600067ffffffffffffffff82169050919050565b7f4e487b7100000000000000000000000000000000000000000000000000000000600052601160045260246000fd5b600080fd5b7f596f7520646f6e74206861766520656e6f7567682066756e6473000000000000600082015250565b61044b8161039f565b811461045657600080fd5b50565b610462816103d1565b811461046d57600080fd5b5056fea26469706673582212208d1e3519c2ab8812a99bb25f7be524b11f55b47295aa98eb308fafe8f0bb73c064736f6c63430008070033",
					"opcodes": "PUSH1 0x80 PUSH1 0x40 MSTORE CALLVALUE DUP1 ISZERO PUSH2 0x10 JUMPI PUSH1 0x0 DUP1 REVERT JUMPDEST POP PUSH2 0x4A6 DUP1 PUSH2 0x20 PUSH1 0x0 CODECOPY PUSH1 0x0 RETURN INVALID PUSH1 0x80 PUSH1 0x40 MSTORE PUSH1 0x4 CALLDATASIZE LT PUSH2 0x29 JUMPI PUSH1 0x0 CALLDATALOAD PUSH1 0xE0 SHR DUP1 PUSH4 0xAD19AEB EQ PUSH2 0x2E JUMPI DUP1 PUSH4 0x6D26EC18 EQ PUSH2 0x57 JUMPI JUMPDEST PUSH1 0x0 DUP1 REVERT JUMPDEST CALLVALUE DUP1 ISZERO PUSH2 0x3A JUMPI PUSH1 0x0 DUP1 REVERT JUMPDEST POP PUSH2 0x55 PUSH1 0x4 DUP1 CALLDATASIZE SUB DUP2 ADD SWAP1 PUSH2 0x50 SWAP2 SWAP1 PUSH2 0x299 JUMP JUMPDEST PUSH2 0x61 JUMP JUMPDEST STOP JUMPDEST PUSH2 0x5F PUSH2 0x1E6 JUMP JUMPDEST STOP JUMPDEST PUSH1 0x0 DUP1 CALLER PUSH20 0xFFFFFFFFFFFFFFFFFFFFFFFFFFFFFFFFFFFFFFFF AND PUSH20 0xFFFFFFFFFFFFFFFFFFFFFFFFFFFFFFFFFFFFFFFF AND DUP2 MSTORE PUSH1 0x20 ADD SWAP1 DUP2 MSTORE PUSH1 0x20 ADD PUSH1 0x0 KECCAK256 PUSH1 0x0 SWAP1 SLOAD SWAP1 PUSH2 0x100 EXP SWAP1 DIV PUSH8 0xFFFFFFFFFFFFFFFF AND PUSH8 0xFFFFFFFFFFFFFFFF AND DUP2 PUSH8 0xFFFFFFFFFFFFFFFF AND GT ISZERO PUSH2 0x10A JUMPI PUSH1 0x40 MLOAD PUSH32 0x8C379A000000000000000000000000000000000000000000000000000000000 DUP2 MSTORE PUSH1 0x4 ADD PUSH2 0x101 SWAP1 PUSH2 0x2FC JUMP JUMPDEST PUSH1 0x40 MLOAD DUP1 SWAP2 SUB SWAP1 REVERT JUMPDEST DUP1 PUSH1 0x0 DUP1 CALLER PUSH20 0xFFFFFFFFFFFFFFFFFFFFFFFFFFFFFFFFFFFFFFFF AND PUSH20 0xFFFFFFFFFFFFFFFFFFFFFFFFFFFFFFFFFFFFFFFF AND DUP2 MSTORE PUSH1 0x20 ADD SWAP1 DUP2 MSTORE PUSH1 0x20 ADD PUSH1 0x0 KECCAK256 PUSH1 0x0 DUP3 DUP3 DUP3 SWAP1 SLOAD SWAP1 PUSH2 0x100 EXP SWAP1 DIV PUSH8 0xFFFFFFFFFFFFFFFF AND PUSH2 0x16B SWAP2 SWAP1 PUSH2 0x36B JUMP JUMPDEST SWAP3 POP PUSH2 0x100 EXP DUP2 SLOAD DUP2 PUSH8 0xFFFFFFFFFFFFFFFF MUL NOT AND SWAP1 DUP4 PUSH8 0xFFFFFFFFFFFFFFFF AND MUL OR SWAP1 SSTORE POP DUP2 PUSH20 0xFFFFFFFFFFFFFFFFFFFFFFFFFFFFFFFFFFFFFFFF AND PUSH2 0x8FC DUP3 PUSH8 0xFFFFFFFFFFFFFFFF AND SWAP1 DUP2 ISZERO MUL SWAP1 PUSH1 0x40 MLOAD PUSH1 0x0 PUSH1 0x40 MLOAD DUP1 DUP4 SUB DUP2 DUP6 DUP9 DUP9 CALL SWAP4 POP POP POP POP ISZERO DUP1 ISZERO PUSH2 0x1E1 JUMPI RETURNDATASIZE PUSH1 0x0 DUP1 RETURNDATACOPY RETURNDATASIZE PUSH1 0x0 REVERT JUMPDEST POP POP POP JUMP JUMPDEST CALLVALUE PUSH1 0x0 DUP1 CALLER PUSH20 0xFFFFFFFFFFFFFFFFFFFFFFFFFFFFFFFFFFFFFFFF AND PUSH20 0xFFFFFFFFFFFFFFFFFFFFFFFFFFFFFFFFFFFFFFFF AND DUP2 MSTORE PUSH1 0x20 ADD SWAP1 DUP2 MSTORE PUSH1 0x20 ADD PUSH1 0x0 KECCAK256 PUSH1 0x0 DUP3 DUP3 DUP3 SWAP1 SLOAD SWAP1 PUSH2 0x100 EXP SWAP1 DIV PUSH8 0xFFFFFFFFFFFFFFFF AND PUSH2 0x247 SWAP2 SWAP1 PUSH2 0x32D JUMP JUMPDEST SWAP3 POP PUSH2 0x100 EXP DUP2 SLOAD DUP2 PUSH8 0xFFFFFFFFFFFFFFFF MUL NOT AND SWAP1 DUP4 PUSH8 0xFFFFFFFFFFFFFFFF AND MUL OR SWAP1 SSTORE POP JUMP JUMPDEST PUSH1 0x0 DUP2 CALLDATALOAD SWAP1 POP PUSH2 0x27E DUP2 PUSH2 0x442 JUMP JUMPDEST SWAP3 SWAP2 POP POP JUMP JUMPDEST PUSH1 0x0 DUP2 CALLDATALOAD SWAP1 POP PUSH2 0x293 DUP2 PUSH2 0x459 JUMP JUMPDEST SWAP3 SWAP2 POP POP JUMP JUMPDEST PUSH1 0x0 DUP1 PUSH1 0x40 DUP4 DUP6 SUB SLT ISZERO PUSH2 0x2B0 JUMPI PUSH2 0x2AF PUSH2 0x414 JUMP JUMPDEST JUMPDEST PUSH1 0x0 PUSH2 0x2BE DUP6 DUP3 DUP7 ADD PUSH2 0x26F JUMP JUMPDEST SWAP3 POP POP PUSH1 0x20 PUSH2 0x2CF DUP6 DUP3 DUP7 ADD PUSH2 0x284 JUMP JUMPDEST SWAP2 POP POP SWAP3 POP SWAP3 SWAP1 POP JUMP JUMPDEST PUSH1 0x0 PUSH2 0x2E6 PUSH1 0x1A DUP4 PUSH2 0x31C JUMP JUMPDEST SWAP2 POP PUSH2 0x2F1 DUP3 PUSH2 0x419 JUMP JUMPDEST PUSH1 0x20 DUP3 ADD SWAP1 POP SWAP2 SWAP1 POP JUMP JUMPDEST PUSH1 0x0 PUSH1 0x20 DUP3 ADD SWAP1 POP DUP2 DUP2 SUB PUSH1 0x0 DUP4 ADD MSTORE PUSH2 0x315 DUP2 PUSH2 0x2D9 JUMP JUMPDEST SWAP1 POP SWAP2 SWAP1 POP JUMP JUMPDEST PUSH1 0x0 DUP3 DUP3 MSTORE PUSH1 0x20 DUP3 ADD SWAP1 POP SWAP3 SWAP2 POP POP JUMP JUMPDEST PUSH1 0x0 PUSH2 0x338 DUP3 PUSH2 0x3D1 JUMP JUMPDEST SWAP2 POP PUSH2 0x343 DUP4 PUSH2 0x3D1 JUMP JUMPDEST SWAP3 POP DUP3 PUSH8 0xFFFFFFFFFFFFFFFF SUB DUP3 GT ISZERO PUSH2 0x360 JUMPI PUSH2 0x35F PUSH2 0x3E5 JUMP JUMPDEST JUMPDEST DUP3 DUP3 ADD SWAP1 POP SWAP3 SWAP2 POP POP JUMP JUMPDEST PUSH1 0x0 PUSH2 0x376 DUP3 PUSH2 0x3D1 JUMP JUMPDEST SWAP2 POP PUSH2 0x381 DUP4 PUSH2 0x3D1 JUMP JUMPDEST SWAP3 POP DUP3 DUP3 LT ISZERO PUSH2 0x394 JUMPI PUSH2 0x393 PUSH2 0x3E5 JUMP JUMPDEST JUMPDEST DUP3 DUP3 SUB SWAP1 POP SWAP3 SWAP2 POP POP JUMP JUMPDEST PUSH1 0x0 PUSH2 0x3AA DUP3 PUSH2 0x3B1 JUMP JUMPDEST SWAP1 POP SWAP2 SWAP1 POP JUMP JUMPDEST PUSH1 0x0 PUSH20 0xFFFFFFFFFFFFFFFFFFFFFFFFFFFFFFFFFFFFFFFF DUP3 AND SWAP1 POP SWAP2 SWAP1 POP JUMP JUMPDEST PUSH1 0x0 PUSH8 0xFFFFFFFFFFFFFFFF DUP3 AND SWAP1 POP SWAP2 SWAP1 POP JUMP JUMPDEST PUSH32 0x4E487B7100000000000000000000000000000000000000000000000000000000 PUSH1 0x0 MSTORE PUSH1 0x11 PUSH1 0x4 MSTORE PUSH1 0x24 PUSH1 0x0 REVERT JUMPDEST PUSH1 0x0 DUP1 REVERT JUMPDEST PUSH32 0x596F7520646F6E74206861766520656E6F7567682066756E6473000000000000 PUSH1 0x0 DUP3 ADD MSTORE POP JUMP JUMPDEST PUSH2 0x44B DUP2 PUSH2 0x39F JUMP JUMPDEST DUP2 EQ PUSH2 0x456 JUMPI PUSH1 0x0 DUP1 REVERT JUMPDEST POP JUMP JUMPDEST PUSH2 0x462 DUP2 PUSH2 0x3D1 JUMP JUMPDEST DUP2 EQ PUSH2 0x46D JUMPI PUSH1 0x0 DUP1 REVERT JUMPDEST POP JUMP INVALID LOG2 PUSH5 0x6970667358 0x22 SLT KECCAK256 DUP14 0x1E CALLDATALOAD NOT 0xC2 0xAB DUP9 SLT 0xA9 SWAP12 0xB2 0x5F PUSH28 0xE524B11F55B47295AA98EB308FAFE8F0BB73C064736F6C6343000807 STOP CALLER "
				},
				"gasEstimates": {
					"creation": {
						"codeDepositCost": "238000",
						"executionCost": "281",
						"totalCost": "238281"
					},
					"external": {
						"receiveMoney()": "infinite",
						"withdrawMoney(address,uint64)": "infinite"
					}
				},
				"methodIdentifiers": {
					"receiveMoney()": "6d26ec18",
					"withdrawMoney(address,uint64)": "0ad19aeb"
				}
			},
			"storageLayout": {
				"storage": [
					{
						"astId": 5,
						"contract": "contracts/basics/07-ExceptionHandlingExample.sol:ExceptionHandlingExample",
						"label": "balanceReceived",
						"offset": 0,
						"slot": "0",
						"type": "t_mapping(t_address,t_uint64)"
					}
				],
				"types": {
					"t_address": {
						"encoding": "inplace",
						"label": "address",
						"numberOfBytes": "20"
					},
					"t_mapping(t_address,t_uint64)": {
						"encoding": "mapping",
						"key": "t_address",
						"label": "mapping(address => uint64)",
						"numberOfBytes": "32",
						"value": "t_uint64"
					},
					"t_uint64": {
						"encoding": "inplace",
						"label": "uint64",
						"numberOfBytes": "8"
					}
				}
			},
			"userdoc": {
				"kind": "user",
				"methods": {},
				"version": 1
			}
		}
	}
}