{
	"contracts/basics/09-FunctionsExample.sol": {
		"FunctionsExample": {
			"abi": [
				{
					"inputs": [
						{
							"internalType": "address",
							"name": "",
							"type": "address"
						}
					],
					"name": "balanceReceived",
					"outputs": [
						{
							"internalType": "uint64",
							"name": "",
							"type": "uint64"
						}
					],
					"stateMutability": "view",
					"type": "function"
				},
				{
					"inputs": [],
					"name": "receiveMoney",
					"outputs": [],
					"stateMutability": "payable",
					"type": "function"
				},
				{
					"inputs": [
						{
							"internalType": "address payable",
							"name": "_to",
							"type": "address"
						},
						{
							"internalType": "uint64",
							"name": "_amount",
							"type": "uint64"
						}
					],
					"name": "withdrawMoney",
					"outputs": [],
					"stateMutability": "nonpayable",
					"type": "function"
				}
			],
			"devdoc": {
				"kind": "dev",
				"methods": {},
				"version": 1
			},
			"evm": {
				"assembly": "    /* \"contracts/basics/09-FunctionsExample.sol\":55:680  contract FunctionsExample{\r... */\n  mstore(0x40, 0x80)\n  callvalue\n  dup1\n  iszero\n  tag_1\n  jumpi\n  0x00\n  dup1\n  revert\ntag_1:\n  pop\n  dataSize(sub_0)\n  dup1\n  dataOffset(sub_0)\n  0x00\n  codecopy\n  0x00\n  return\nstop\n\nsub_0: assembly {\n        /* \"contracts/basics/09-FunctionsExample.sol\":55:680  contract FunctionsExample{\r... */\n      mstore(0x40, 0x80)\n      jumpi(tag_1, lt(calldatasize, 0x04))\n      shr(0xe0, calldataload(0x00))\n      dup1\n      0x0ad19aeb\n      eq\n      tag_2\n      jumpi\n      dup1\n      0x6d26ec18\n      eq\n      tag_3\n      jumpi\n      dup1\n      0xd18a42e1\n      eq\n      tag_4\n      jumpi\n    tag_1:\n      0x00\n      dup1\n      revert\n        /* \"contracts/basics/09-FunctionsExample.sol\":348:677  function withdrawMoney(address payable _to, uint64 _amount) public{\r... */\n    tag_2:\n      callvalue\n      dup1\n      iszero\n      tag_5\n      jumpi\n      0x00\n      dup1\n      revert\n    tag_5:\n      pop\n      tag_6\n      0x04\n      dup1\n      calldatasize\n      sub\n      dup2\n      add\n      swap1\n      tag_7\n      swap2\n      swap1\n      tag_8\n      jump\t// in\n    tag_7:\n      tag_9\n      jump\t// in\n    tag_6:\n      stop\n        /* \"contracts/basics/09-FunctionsExample.sol\":144:340  function receiveMoney() public payable{\r... */\n    tag_3:\n      tag_10\n      tag_11\n      jump\t// in\n    tag_10:\n      stop\n        /* \"contracts/basics/09-FunctionsExample.sol\":87:135  mapping(address=> uint64) public balanceReceived */\n    tag_4:\n      callvalue\n      dup1\n      iszero\n      tag_12\n      jumpi\n      0x00\n      dup1\n      revert\n    tag_12:\n      pop\n      tag_13\n      0x04\n      dup1\n      calldatasize\n      sub\n      dup2\n      add\n      swap1\n      tag_14\n      swap2\n      swap1\n      tag_15\n      jump\t// in\n    tag_14:\n      tag_16\n      jump\t// in\n    tag_13:\n      mload(0x40)\n      tag_17\n      swap2\n      swap1\n      tag_18\n      jump\t// in\n    tag_17:\n      mload(0x40)\n      dup1\n      swap2\n      sub\n      swap1\n      return\n        /* \"contracts/basics/09-FunctionsExample.sol\":348:677  function withdrawMoney(address payable _to, uint64 _amount) public{\r... */\n    tag_9:\n        /* \"contracts/basics/09-FunctionsExample.sol\":441:456  balanceReceived */\n      0x00\n        /* \"contracts/basics/09-FunctionsExample.sol\":441:468  balanceReceived[msg.sender] */\n      dup1\n        /* \"contracts/basics/09-FunctionsExample.sol\":457:467  msg.sender */\n      caller\n        /* \"contracts/basics/09-FunctionsExample.sol\":441:468  balanceReceived[msg.sender] */\n      0xffffffffffffffffffffffffffffffffffffffff\n      and\n      0xffffffffffffffffffffffffffffffffffffffff\n      and\n      dup2\n      mstore\n      0x20\n      add\n      swap1\n      dup2\n      mstore\n      0x20\n      add\n      0x00\n      keccak256\n      0x00\n      swap1\n      sload\n      swap1\n      0x0100\n      exp\n      swap1\n      div\n      0xffffffffffffffff\n      and\n        /* \"contracts/basics/09-FunctionsExample.sol\":432:468  _amount<=balanceReceived[msg.sender] */\n      0xffffffffffffffff\n      and\n        /* \"contracts/basics/09-FunctionsExample.sol\":432:439  _amount */\n      dup2\n        /* \"contracts/basics/09-FunctionsExample.sol\":432:468  _amount<=balanceReceived[msg.sender] */\n      0xffffffffffffffff\n      and\n      gt\n      iszero\n        /* \"contracts/basics/09-FunctionsExample.sol\":424:498  require(_amount<=balanceReceived[msg.sender],'You dont have enough funds') */\n      tag_20\n      jumpi\n      mload(0x40)\n      0x08c379a000000000000000000000000000000000000000000000000000000000\n      dup2\n      mstore\n      0x04\n      add\n      tag_21\n      swap1\n      tag_22\n      jump\t// in\n    tag_21:\n      mload(0x40)\n      dup1\n      swap2\n      sub\n      swap1\n      revert\n    tag_20:\n        /* \"contracts/basics/09-FunctionsExample.sol\":572:579  _amount */\n      dup1\n        /* \"contracts/basics/09-FunctionsExample.sol\":544:559  balanceReceived */\n      0x00\n        /* \"contracts/basics/09-FunctionsExample.sol\":544:571  balanceReceived[msg.sender] */\n      dup1\n        /* \"contracts/basics/09-FunctionsExample.sol\":560:570  msg.sender */\n      caller\n        /* \"contracts/basics/09-FunctionsExample.sol\":544:571  balanceReceived[msg.sender] */\n      0xffffffffffffffffffffffffffffffffffffffff\n      and\n      0xffffffffffffffffffffffffffffffffffffffff\n      and\n      dup2\n      mstore\n      0x20\n      add\n      swap1\n      dup2\n      mstore\n      0x20\n      add\n      0x00\n      keccak256\n      0x00\n      swap1\n      sload\n      swap1\n      0x0100\n      exp\n      swap1\n      div\n      0xffffffffffffffff\n      and\n        /* \"contracts/basics/09-FunctionsExample.sol\":544:579  balanceReceived[msg.sender]-_amount */\n      tag_23\n      swap2\n      swap1\n      tag_24\n      jump\t// in\n    tag_23:\n        /* \"contracts/basics/09-FunctionsExample.sol\":515:579  balanceReceived[msg.sender]>=balanceReceived[msg.sender]-_amount */\n      0xffffffffffffffff\n      and\n        /* \"contracts/basics/09-FunctionsExample.sol\":515:530  balanceReceived */\n      0x00\n        /* \"contracts/basics/09-FunctionsExample.sol\":515:542  balanceReceived[msg.sender] */\n      dup1\n        /* \"contracts/basics/09-FunctionsExample.sol\":531:541  msg.sender */\n      caller\n        /* \"contracts/basics/09-FunctionsExample.sol\":515:542  balanceReceived[msg.sender] */\n      0xffffffffffffffffffffffffffffffffffffffff\n      and\n      0xffffffffffffffffffffffffffffffffffffffff\n      and\n      dup2\n      mstore\n      0x20\n      add\n      swap1\n      dup2\n      mstore\n      0x20\n      add\n      0x00\n      keccak256\n      0x00\n      swap1\n      sload\n      swap1\n      0x0100\n      exp\n      swap1\n      div\n      0xffffffffffffffff\n      and\n        /* \"contracts/basics/09-FunctionsExample.sol\":515:579  balanceReceived[msg.sender]>=balanceReceived[msg.sender]-_amount */\n      0xffffffffffffffff\n      and\n      lt\n      iszero\n        /* \"contracts/basics/09-FunctionsExample.sol\":508:580  assert(balanceReceived[msg.sender]>=balanceReceived[msg.sender]-_amount) */\n      tag_25\n      jumpi\n      mstore(0x00, 0x4e487b7100000000000000000000000000000000000000000000000000000000)\n      mstore(0x04, 0x01)\n      revert(0x00, 0x24)\n    tag_25:\n        /* \"contracts/basics/09-FunctionsExample.sol\":621:628  _amount */\n      dup1\n        /* \"contracts/basics/09-FunctionsExample.sol\":590:605  balanceReceived */\n      0x00\n        /* \"contracts/basics/09-FunctionsExample.sol\":590:617  balanceReceived[msg.sender] */\n      dup1\n        /* \"contracts/basics/09-FunctionsExample.sol\":606:616  msg.sender */\n      caller\n        /* \"contracts/basics/09-FunctionsExample.sol\":590:617  balanceReceived[msg.sender] */\n      0xffffffffffffffffffffffffffffffffffffffff\n      and\n      0xffffffffffffffffffffffffffffffffffffffff\n      and\n      dup2\n      mstore\n      0x20\n      add\n      swap1\n      dup2\n      mstore\n      0x20\n      add\n      0x00\n      keccak256\n      0x00\n        /* \"contracts/basics/09-FunctionsExample.sol\":590:628  balanceReceived[msg.sender] -= _amount */\n      dup3\n      dup3\n      dup3\n      swap1\n      sload\n      swap1\n      0x0100\n      exp\n      swap1\n      div\n      0xffffffffffffffff\n      and\n      tag_26\n      swap2\n      swap1\n      tag_24\n      jump\t// in\n    tag_26:\n      swap3\n      pop\n      0x0100\n      exp\n      dup2\n      sload\n      dup2\n      0xffffffffffffffff\n      mul\n      not\n      and\n      swap1\n      dup4\n      0xffffffffffffffff\n      and\n      mul\n      or\n      swap1\n      sstore\n      pop\n        /* \"contracts/basics/09-FunctionsExample.sol\":638:641  _to */\n      dup2\n        /* \"contracts/basics/09-FunctionsExample.sol\":638:650  _to.transfer */\n      0xffffffffffffffffffffffffffffffffffffffff\n      and\n        /* \"contracts/basics/09-FunctionsExample.sol\":638:659  _to.transfer(_amount) */\n      0x08fc\n        /* \"contracts/basics/09-FunctionsExample.sol\":651:658  _amount */\n      dup3\n        /* \"contracts/basics/09-FunctionsExample.sol\":638:659  _to.transfer(_amount) */\n      0xffffffffffffffff\n      and\n      swap1\n      dup2\n      iszero\n      mul\n      swap1\n      mload(0x40)\n      0x00\n      mload(0x40)\n      dup1\n      dup4\n      sub\n      dup2\n      dup6\n      dup9\n      dup9\n      call\n      swap4\n      pop\n      pop\n      pop\n      pop\n      iszero\n      dup1\n      iszero\n      tag_28\n      jumpi\n      returndatasize\n      0x00\n      dup1\n      returndatacopy\n      revert(0x00, returndatasize)\n    tag_28:\n      pop\n        /* \"contracts/basics/09-FunctionsExample.sol\":348:677  function withdrawMoney(address payable _to, uint64 _amount) public{\r... */\n      pop\n      pop\n      jump\t// out\n        /* \"contracts/basics/09-FunctionsExample.sol\":144:340  function receiveMoney() public payable{\r... */\n    tag_11:\n        /* \"contracts/basics/09-FunctionsExample.sol\":247:262  balanceReceived */\n      0x00\n        /* \"contracts/basics/09-FunctionsExample.sol\":247:274  balanceReceived[msg.sender] */\n      dup1\n        /* \"contracts/basics/09-FunctionsExample.sol\":263:273  msg.sender */\n      caller\n        /* \"contracts/basics/09-FunctionsExample.sol\":247:274  balanceReceived[msg.sender] */\n      0xffffffffffffffffffffffffffffffffffffffff\n      and\n      0xffffffffffffffffffffffffffffffffffffffff\n      and\n      dup2\n      mstore\n      0x20\n      add\n      swap1\n      dup2\n      mstore\n      0x20\n      add\n      0x00\n      keccak256\n      0x00\n      swap1\n      sload\n      swap1\n      0x0100\n      exp\n      swap1\n      div\n      0xffffffffffffffff\n      and\n        /* \"contracts/basics/09-FunctionsExample.sol\":200:274  balanceReceived[msg.sender]+uint64(msg.value)>=balanceReceived[msg.sender] */\n      0xffffffffffffffff\n      and\n        /* \"contracts/basics/09-FunctionsExample.sol\":235:244  msg.value */\n      callvalue\n        /* \"contracts/basics/09-FunctionsExample.sol\":200:215  balanceReceived */\n      0x00\n        /* \"contracts/basics/09-FunctionsExample.sol\":200:227  balanceReceived[msg.sender] */\n      dup1\n        /* \"contracts/basics/09-FunctionsExample.sol\":216:226  msg.sender */\n      caller\n        /* \"contracts/basics/09-FunctionsExample.sol\":200:227  balanceReceived[msg.sender] */\n      0xffffffffffffffffffffffffffffffffffffffff\n      and\n      0xffffffffffffffffffffffffffffffffffffffff\n      and\n      dup2\n      mstore\n      0x20\n      add\n      swap1\n      dup2\n      mstore\n      0x20\n      add\n      0x00\n      keccak256\n      0x00\n      swap1\n      sload\n      swap1\n      0x0100\n      exp\n      swap1\n      div\n      0xffffffffffffffff\n      and\n        /* \"contracts/basics/09-FunctionsExample.sol\":200:245  balanceReceived[msg.sender]+uint64(msg.value) */\n      tag_30\n      swap2\n      swap1\n      tag_31\n      jump\t// in\n    tag_30:\n        /* \"contracts/basics/09-FunctionsExample.sol\":200:274  balanceReceived[msg.sender]+uint64(msg.value)>=balanceReceived[msg.sender] */\n      0xffffffffffffffff\n      and\n      lt\n      iszero\n        /* \"contracts/basics/09-FunctionsExample.sol\":193:275  assert(balanceReceived[msg.sender]+uint64(msg.value)>=balanceReceived[msg.sender]) */\n      tag_32\n      jumpi\n      mstore(0x00, 0x4e487b7100000000000000000000000000000000000000000000000000000000)\n      mstore(0x04, 0x01)\n      revert(0x00, 0x24)\n    tag_32:\n        /* \"contracts/basics/09-FunctionsExample.sol\":322:331  msg.value */\n      callvalue\n        /* \"contracts/basics/09-FunctionsExample.sol\":286:301  balanceReceived */\n      0x00\n        /* \"contracts/basics/09-FunctionsExample.sol\":286:313  balanceReceived[msg.sender] */\n      dup1\n        /* \"contracts/basics/09-FunctionsExample.sol\":302:312  msg.sender */\n      caller\n        /* \"contracts/basics/09-FunctionsExample.sol\":286:313  balanceReceived[msg.sender] */\n      0xffffffffffffffffffffffffffffffffffffffff\n      and\n      0xffffffffffffffffffffffffffffffffffffffff\n      and\n      dup2\n      mstore\n      0x20\n      add\n      swap1\n      dup2\n      mstore\n      0x20\n      add\n      0x00\n      keccak256\n      0x00\n        /* \"contracts/basics/09-FunctionsExample.sol\":286:332  balanceReceived[msg.sender]+=uint64(msg.value) */\n      dup3\n      dup3\n      dup3\n      swap1\n      sload\n      swap1\n      0x0100\n      exp\n      swap1\n      div\n      0xffffffffffffffff\n      and\n      tag_33\n      swap2\n      swap1\n      tag_31\n      jump\t// in\n    tag_33:\n      swap3\n      pop\n      0x0100\n      exp\n      dup2\n      sload\n      dup2\n      0xffffffffffffffff\n      mul\n      not\n      and\n      swap1\n      dup4\n      0xffffffffffffffff\n      and\n      mul\n      or\n      swap1\n      sstore\n      pop\n        /* \"contracts/basics/09-FunctionsExample.sol\":144:340  function receiveMoney() public payable{\r... */\n      jump\t// out\n        /* \"contracts/basics/09-FunctionsExample.sol\":87:135  mapping(address=> uint64) public balanceReceived */\n    tag_16:\n      mstore(0x20, 0x00)\n      dup1\n      0x00\n      mstore\n      keccak256(0x00, 0x40)\n      0x00\n      swap2\n      pop\n      sload\n      swap1\n      0x0100\n      exp\n      swap1\n      div\n      0xffffffffffffffff\n      and\n      dup2\n      jump\t// out\n        /* \"#utility.yul\":7:146   */\n    tag_35:\n        /* \"#utility.yul\":53:58   */\n      0x00\n        /* \"#utility.yul\":91:97   */\n      dup2\n        /* \"#utility.yul\":78:98   */\n      calldataload\n        /* \"#utility.yul\":69:98   */\n      swap1\n      pop\n        /* \"#utility.yul\":107:140   */\n      tag_37\n        /* \"#utility.yul\":134:139   */\n      dup2\n        /* \"#utility.yul\":107:140   */\n      tag_38\n      jump\t// in\n    tag_37:\n        /* \"#utility.yul\":59:146   */\n      swap3\n      swap2\n      pop\n      pop\n      jump\t// out\n        /* \"#utility.yul\":152:307   */\n    tag_39:\n        /* \"#utility.yul\":206:211   */\n      0x00\n        /* \"#utility.yul\":244:250   */\n      dup2\n        /* \"#utility.yul\":231:251   */\n      calldataload\n        /* \"#utility.yul\":222:251   */\n      swap1\n      pop\n        /* \"#utility.yul\":260:301   */\n      tag_41\n        /* \"#utility.yul\":295:300   */\n      dup2\n        /* \"#utility.yul\":260:301   */\n      tag_42\n      jump\t// in\n    tag_41:\n        /* \"#utility.yul\":212:307   */\n      swap3\n      swap2\n      pop\n      pop\n      jump\t// out\n        /* \"#utility.yul\":313:450   */\n    tag_43:\n        /* \"#utility.yul\":358:363   */\n      0x00\n        /* \"#utility.yul\":396:402   */\n      dup2\n        /* \"#utility.yul\":383:403   */\n      calldataload\n        /* \"#utility.yul\":374:403   */\n      swap1\n      pop\n        /* \"#utility.yul\":412:444   */\n      tag_45\n        /* \"#utility.yul\":438:443   */\n      dup2\n        /* \"#utility.yul\":412:444   */\n      tag_46\n      jump\t// in\n    tag_45:\n        /* \"#utility.yul\":364:450   */\n      swap3\n      swap2\n      pop\n      pop\n      jump\t// out\n        /* \"#utility.yul\":456:718   */\n    tag_15:\n        /* \"#utility.yul\":515:521   */\n      0x00\n        /* \"#utility.yul\":564:566   */\n      0x20\n        /* \"#utility.yul\":552:561   */\n      dup3\n        /* \"#utility.yul\":543:550   */\n      dup5\n        /* \"#utility.yul\":539:562   */\n      sub\n        /* \"#utility.yul\":535:567   */\n      slt\n        /* \"#utility.yul\":532:534   */\n      iszero\n      tag_48\n      jumpi\n        /* \"#utility.yul\":580:581   */\n      0x00\n        /* \"#utility.yul\":577:578   */\n      dup1\n        /* \"#utility.yul\":570:582   */\n      revert\n        /* \"#utility.yul\":532:534   */\n    tag_48:\n        /* \"#utility.yul\":623:624   */\n      0x00\n        /* \"#utility.yul\":648:701   */\n      tag_49\n        /* \"#utility.yul\":693:700   */\n      dup5\n        /* \"#utility.yul\":684:690   */\n      dup3\n        /* \"#utility.yul\":673:682   */\n      dup6\n        /* \"#utility.yul\":669:691   */\n      add\n        /* \"#utility.yul\":648:701   */\n      tag_35\n      jump\t// in\n    tag_49:\n        /* \"#utility.yul\":638:701   */\n      swap2\n      pop\n        /* \"#utility.yul\":594:711   */\n      pop\n        /* \"#utility.yul\":522:718   */\n      swap3\n      swap2\n      pop\n      pop\n      jump\t// out\n        /* \"#utility.yul\":724:1145   */\n    tag_8:\n        /* \"#utility.yul\":799:805   */\n      0x00\n        /* \"#utility.yul\":807:813   */\n      dup1\n        /* \"#utility.yul\":856:858   */\n      0x40\n        /* \"#utility.yul\":844:853   */\n      dup4\n        /* \"#utility.yul\":835:842   */\n      dup6\n        /* \"#utility.yul\":831:854   */\n      sub\n        /* \"#utility.yul\":827:859   */\n      slt\n        /* \"#utility.yul\":824:826   */\n      iszero\n      tag_51\n      jumpi\n        /* \"#utility.yul\":872:873   */\n      0x00\n        /* \"#utility.yul\":869:870   */\n      dup1\n        /* \"#utility.yul\":862:874   */\n      revert\n        /* \"#utility.yul\":824:826   */\n    tag_51:\n        /* \"#utility.yul\":915:916   */\n      0x00\n        /* \"#utility.yul\":940:1001   */\n      tag_52\n        /* \"#utility.yul\":993:1000   */\n      dup6\n        /* \"#utility.yul\":984:990   */\n      dup3\n        /* \"#utility.yul\":973:982   */\n      dup7\n        /* \"#utility.yul\":969:991   */\n      add\n        /* \"#utility.yul\":940:1001   */\n      tag_39\n      jump\t// in\n    tag_52:\n        /* \"#utility.yul\":930:1001   */\n      swap3\n      pop\n        /* \"#utility.yul\":886:1011   */\n      pop\n        /* \"#utility.yul\":1050:1052   */\n      0x20\n        /* \"#utility.yul\":1076:1128   */\n      tag_53\n        /* \"#utility.yul\":1120:1127   */\n      dup6\n        /* \"#utility.yul\":1111:1117   */\n      dup3\n        /* \"#utility.yul\":1100:1109   */\n      dup7\n        /* \"#utility.yul\":1096:1118   */\n      add\n        /* \"#utility.yul\":1076:1128   */\n      tag_43\n      jump\t// in\n    tag_53:\n        /* \"#utility.yul\":1066:1128   */\n      swap2\n      pop\n        /* \"#utility.yul\":1021:1138   */\n      pop\n        /* \"#utility.yul\":814:1145   */\n      swap3\n      pop\n      swap3\n      swap1\n      pop\n      jump\t// out\n        /* \"#utility.yul\":1151:1517   */\n    tag_54:\n        /* \"#utility.yul\":1293:1296   */\n      0x00\n        /* \"#utility.yul\":1314:1381   */\n      tag_56\n        /* \"#utility.yul\":1378:1380   */\n      0x1a\n        /* \"#utility.yul\":1373:1376   */\n      dup4\n        /* \"#utility.yul\":1314:1381   */\n      tag_57\n      jump\t// in\n    tag_56:\n        /* \"#utility.yul\":1307:1381   */\n      swap2\n      pop\n        /* \"#utility.yul\":1390:1483   */\n      tag_58\n        /* \"#utility.yul\":1479:1482   */\n      dup3\n        /* \"#utility.yul\":1390:1483   */\n      tag_59\n      jump\t// in\n    tag_58:\n        /* \"#utility.yul\":1508:1510   */\n      0x20\n        /* \"#utility.yul\":1503:1506   */\n      dup3\n        /* \"#utility.yul\":1499:1511   */\n      add\n        /* \"#utility.yul\":1492:1511   */\n      swap1\n      pop\n        /* \"#utility.yul\":1297:1517   */\n      swap2\n      swap1\n      pop\n      jump\t// out\n        /* \"#utility.yul\":1523:1638   */\n    tag_60:\n        /* \"#utility.yul\":1608:1631   */\n      tag_62\n        /* \"#utility.yul\":1625:1630   */\n      dup2\n        /* \"#utility.yul\":1608:1631   */\n      tag_63\n      jump\t// in\n    tag_62:\n        /* \"#utility.yul\":1603:1606   */\n      dup3\n        /* \"#utility.yul\":1596:1632   */\n      mstore\n        /* \"#utility.yul\":1586:1638   */\n      pop\n      pop\n      jump\t// out\n        /* \"#utility.yul\":1644:2063   */\n    tag_22:\n        /* \"#utility.yul\":1810:1814   */\n      0x00\n        /* \"#utility.yul\":1848:1850   */\n      0x20\n        /* \"#utility.yul\":1837:1846   */\n      dup3\n        /* \"#utility.yul\":1833:1851   */\n      add\n        /* \"#utility.yul\":1825:1851   */\n      swap1\n      pop\n        /* \"#utility.yul\":1897:1906   */\n      dup2\n        /* \"#utility.yul\":1891:1895   */\n      dup2\n        /* \"#utility.yul\":1887:1907   */\n      sub\n        /* \"#utility.yul\":1883:1884   */\n      0x00\n        /* \"#utility.yul\":1872:1881   */\n      dup4\n        /* \"#utility.yul\":1868:1885   */\n      add\n        /* \"#utility.yul\":1861:1908   */\n      mstore\n        /* \"#utility.yul\":1925:2056   */\n      tag_65\n        /* \"#utility.yul\":2051:2055   */\n      dup2\n        /* \"#utility.yul\":1925:2056   */\n      tag_54\n      jump\t// in\n    tag_65:\n        /* \"#utility.yul\":1917:2056   */\n      swap1\n      pop\n        /* \"#utility.yul\":1815:2063   */\n      swap2\n      swap1\n      pop\n      jump\t// out\n        /* \"#utility.yul\":2069:2287   */\n    tag_18:\n        /* \"#utility.yul\":2160:2164   */\n      0x00\n        /* \"#utility.yul\":2198:2200   */\n      0x20\n        /* \"#utility.yul\":2187:2196   */\n      dup3\n        /* \"#utility.yul\":2183:2201   */\n      add\n        /* \"#utility.yul\":2175:2201   */\n      swap1\n      pop\n        /* \"#utility.yul\":2211:2280   */\n      tag_67\n        /* \"#utility.yul\":2277:2278   */\n      0x00\n        /* \"#utility.yul\":2266:2275   */\n      dup4\n        /* \"#utility.yul\":2262:2279   */\n      add\n        /* \"#utility.yul\":2253:2259   */\n      dup5\n        /* \"#utility.yul\":2211:2280   */\n      tag_60\n      jump\t// in\n    tag_67:\n        /* \"#utility.yul\":2165:2287   */\n      swap3\n      swap2\n      pop\n      pop\n      jump\t// out\n        /* \"#utility.yul\":2293:2462   */\n    tag_57:\n        /* \"#utility.yul\":2377:2388   */\n      0x00\n        /* \"#utility.yul\":2411:2417   */\n      dup3\n        /* \"#utility.yul\":2406:2409   */\n      dup3\n        /* \"#utility.yul\":2399:2418   */\n      mstore\n        /* \"#utility.yul\":2451:2455   */\n      0x20\n        /* \"#utility.yul\":2446:2449   */\n      dup3\n        /* \"#utility.yul\":2442:2456   */\n      add\n        /* \"#utility.yul\":2427:2456   */\n      swap1\n      pop\n        /* \"#utility.yul\":2389:2462   */\n      swap3\n      swap2\n      pop\n      pop\n      jump\t// out\n        /* \"#utility.yul\":2468:2722   */\n    tag_31:\n        /* \"#utility.yul\":2507:2510   */\n      0x00\n        /* \"#utility.yul\":2526:2545   */\n      tag_70\n        /* \"#utility.yul\":2543:2544   */\n      dup3\n        /* \"#utility.yul\":2526:2545   */\n      tag_63\n      jump\t// in\n    tag_70:\n        /* \"#utility.yul\":2521:2545   */\n      swap2\n      pop\n        /* \"#utility.yul\":2559:2578   */\n      tag_71\n        /* \"#utility.yul\":2576:2577   */\n      dup4\n        /* \"#utility.yul\":2559:2578   */\n      tag_63\n      jump\t// in\n    tag_71:\n        /* \"#utility.yul\":2554:2578   */\n      swap3\n      pop\n        /* \"#utility.yul\":2664:2665   */\n      dup3\n        /* \"#utility.yul\":2644:2662   */\n      0xffffffffffffffff\n        /* \"#utility.yul\":2640:2666   */\n      sub\n        /* \"#utility.yul\":2637:2638   */\n      dup3\n        /* \"#utility.yul\":2634:2667   */\n      gt\n        /* \"#utility.yul\":2631:2633   */\n      iszero\n      tag_72\n      jumpi\n        /* \"#utility.yul\":2670:2688   */\n      tag_73\n      tag_74\n      jump\t// in\n    tag_73:\n        /* \"#utility.yul\":2631:2633   */\n    tag_72:\n        /* \"#utility.yul\":2714:2715   */\n      dup3\n        /* \"#utility.yul\":2711:2712   */\n      dup3\n        /* \"#utility.yul\":2707:2716   */\n      add\n        /* \"#utility.yul\":2700:2716   */\n      swap1\n      pop\n        /* \"#utility.yul\":2511:2722   */\n      swap3\n      swap2\n      pop\n      pop\n      jump\t// out\n        /* \"#utility.yul\":2728:2916   */\n    tag_24:\n        /* \"#utility.yul\":2767:2771   */\n      0x00\n        /* \"#utility.yul\":2787:2806   */\n      tag_76\n        /* \"#utility.yul\":2804:2805   */\n      dup3\n        /* \"#utility.yul\":2787:2806   */\n      tag_63\n      jump\t// in\n    tag_76:\n        /* \"#utility.yul\":2782:2806   */\n      swap2\n      pop\n        /* \"#utility.yul\":2820:2839   */\n      tag_77\n        /* \"#utility.yul\":2837:2838   */\n      dup4\n        /* \"#utility.yul\":2820:2839   */\n      tag_63\n      jump\t// in\n    tag_77:\n        /* \"#utility.yul\":2815:2839   */\n      swap3\n      pop\n        /* \"#utility.yul\":2858:2859   */\n      dup3\n        /* \"#utility.yul\":2855:2856   */\n      dup3\n        /* \"#utility.yul\":2852:2860   */\n      lt\n        /* \"#utility.yul\":2849:2851   */\n      iszero\n      tag_78\n      jumpi\n        /* \"#utility.yul\":2863:2881   */\n      tag_79\n      tag_74\n      jump\t// in\n    tag_79:\n        /* \"#utility.yul\":2849:2851   */\n    tag_78:\n        /* \"#utility.yul\":2908:2909   */\n      dup3\n        /* \"#utility.yul\":2905:2906   */\n      dup3\n        /* \"#utility.yul\":2901:2910   */\n      sub\n        /* \"#utility.yul\":2893:2910   */\n      swap1\n      pop\n        /* \"#utility.yul\":2772:2916   */\n      swap3\n      swap2\n      pop\n      pop\n      jump\t// out\n        /* \"#utility.yul\":2922:3018   */\n    tag_80:\n        /* \"#utility.yul\":2959:2966   */\n      0x00\n        /* \"#utility.yul\":2988:3012   */\n      tag_82\n        /* \"#utility.yul\":3006:3011   */\n      dup3\n        /* \"#utility.yul\":2988:3012   */\n      tag_83\n      jump\t// in\n    tag_82:\n        /* \"#utility.yul\":2977:3012   */\n      swap1\n      pop\n        /* \"#utility.yul\":2967:3018   */\n      swap2\n      swap1\n      pop\n      jump\t// out\n        /* \"#utility.yul\":3024:3128   */\n    tag_84:\n        /* \"#utility.yul\":3069:3076   */\n      0x00\n        /* \"#utility.yul\":3098:3122   */\n      tag_86\n        /* \"#utility.yul\":3116:3121   */\n      dup3\n        /* \"#utility.yul\":3098:3122   */\n      tag_83\n      jump\t// in\n    tag_86:\n        /* \"#utility.yul\":3087:3122   */\n      swap1\n      pop\n        /* \"#utility.yul\":3077:3128   */\n      swap2\n      swap1\n      pop\n      jump\t// out\n        /* \"#utility.yul\":3134:3260   */\n    tag_83:\n        /* \"#utility.yul\":3171:3178   */\n      0x00\n        /* \"#utility.yul\":3211:3253   */\n      0xffffffffffffffffffffffffffffffffffffffff\n        /* \"#utility.yul\":3204:3209   */\n      dup3\n        /* \"#utility.yul\":3200:3254   */\n      and\n        /* \"#utility.yul\":3189:3254   */\n      swap1\n      pop\n        /* \"#utility.yul\":3179:3260   */\n      swap2\n      swap1\n      pop\n      jump\t// out\n        /* \"#utility.yul\":3266:3367   */\n    tag_63:\n        /* \"#utility.yul\":3302:3309   */\n      0x00\n        /* \"#utility.yul\":3342:3360   */\n      0xffffffffffffffff\n        /* \"#utility.yul\":3335:3340   */\n      dup3\n        /* \"#utility.yul\":3331:3361   */\n      and\n        /* \"#utility.yul\":3320:3361   */\n      swap1\n      pop\n        /* \"#utility.yul\":3310:3367   */\n      swap2\n      swap1\n      pop\n      jump\t// out\n        /* \"#utility.yul\":3373:3553   */\n    tag_74:\n        /* \"#utility.yul\":3421:3498   */\n      0x4e487b7100000000000000000000000000000000000000000000000000000000\n        /* \"#utility.yul\":3418:3419   */\n      0x00\n        /* \"#utility.yul\":3411:3499   */\n      mstore\n        /* \"#utility.yul\":3518:3522   */\n      0x11\n        /* \"#utility.yul\":3515:3516   */\n      0x04\n        /* \"#utility.yul\":3508:3523   */\n      mstore\n        /* \"#utility.yul\":3542:3546   */\n      0x24\n        /* \"#utility.yul\":3539:3540   */\n      0x00\n        /* \"#utility.yul\":3532:3547   */\n      revert\n        /* \"#utility.yul\":3559:3735   */\n    tag_59:\n        /* \"#utility.yul\":3699:3727   */\n      0x596f7520646f6e74206861766520656e6f7567682066756e6473000000000000\n        /* \"#utility.yul\":3695:3696   */\n      0x00\n        /* \"#utility.yul\":3687:3693   */\n      dup3\n        /* \"#utility.yul\":3683:3697   */\n      add\n        /* \"#utility.yul\":3676:3728   */\n      mstore\n        /* \"#utility.yul\":3665:3735   */\n      pop\n      jump\t// out\n        /* \"#utility.yul\":3741:3863   */\n    tag_38:\n        /* \"#utility.yul\":3814:3838   */\n      tag_92\n        /* \"#utility.yul\":3832:3837   */\n      dup2\n        /* \"#utility.yul\":3814:3838   */\n      tag_80\n      jump\t// in\n    tag_92:\n        /* \"#utility.yul\":3807:3812   */\n      dup2\n        /* \"#utility.yul\":3804:3839   */\n      eq\n        /* \"#utility.yul\":3794:3796   */\n      tag_93\n      jumpi\n        /* \"#utility.yul\":3853:3854   */\n      0x00\n        /* \"#utility.yul\":3850:3851   */\n      dup1\n        /* \"#utility.yul\":3843:3855   */\n      revert\n        /* \"#utility.yul\":3794:3796   */\n    tag_93:\n        /* \"#utility.yul\":3784:3863   */\n      pop\n      jump\t// out\n        /* \"#utility.yul\":3869:4007   */\n    tag_42:\n        /* \"#utility.yul\":3950:3982   */\n      tag_95\n        /* \"#utility.yul\":3976:3981   */\n      dup2\n        /* \"#utility.yul\":3950:3982   */\n      tag_84\n      jump\t// in\n    tag_95:\n        /* \"#utility.yul\":3943:3948   */\n      dup2\n        /* \"#utility.yul\":3940:3983   */\n      eq\n        /* \"#utility.yul\":3930:3932   */\n      tag_96\n      jumpi\n        /* \"#utility.yul\":3997:3998   */\n      0x00\n        /* \"#utility.yul\":3994:3995   */\n      dup1\n        /* \"#utility.yul\":3987:3999   */\n      revert\n        /* \"#utility.yul\":3930:3932   */\n    tag_96:\n        /* \"#utility.yul\":3920:4007   */\n      pop\n      jump\t// out\n        /* \"#utility.yul\":4013:4133   */\n    tag_46:\n        /* \"#utility.yul\":4085:4108   */\n      tag_98\n        /* \"#utility.yul\":4102:4107   */\n      dup2\n        /* \"#utility.yul\":4085:4108   */\n      tag_63\n      jump\t// in\n    tag_98:\n        /* \"#utility.yul\":4078:4083   */\n      dup2\n        /* \"#utility.yul\":4075:4109   */\n      eq\n        /* \"#utility.yul\":4065:4067   */\n      tag_99\n      jumpi\n        /* \"#utility.yul\":4123:4124   */\n      0x00\n        /* \"#utility.yul\":4120:4121   */\n      dup1\n        /* \"#utility.yul\":4113:4125   */\n      revert\n        /* \"#utility.yul\":4065:4067   */\n    tag_99:\n        /* \"#utility.yul\":4055:4133   */\n      pop\n      jump\t// out\n\n    auxdata: 0xa2646970667358221220ecab1174825a9c878966ce510c04b0cc83feeb5293cd71048d30ca580a94b99864736f6c63430008040033\n}\n",
				"bytecode": {
					"linkReferences": {},
					"object": "608060405234801561001057600080fd5b50610791806100206000396000f3fe6080604052600436106100345760003560e01c80630ad19aeb146100395780636d26ec1814610062578063d18a42e11461006c575b600080fd5b34801561004557600080fd5b50610060600480360381019061005b919061053a565b6100a9565b005b61006a610328565b005b34801561007857600080fd5b50610093600480360381019061008e9190610511565b6104ab565b6040516100a091906105c8565b60405180910390f35b6000803373ffffffffffffffffffffffffffffffffffffffff1673ffffffffffffffffffffffffffffffffffffffff16815260200190815260200160002060009054906101000a900467ffffffffffffffff1667ffffffffffffffff168167ffffffffffffffff161115610152576040517f08c379a0000000000000000000000000000000000000000000000000000000008152600401610149906105a8565b60405180910390fd5b806000803373ffffffffffffffffffffffffffffffffffffffff1673ffffffffffffffffffffffffffffffffffffffff16815260200190815260200160002060009054906101000a900467ffffffffffffffff166101b09190610632565b67ffffffffffffffff166000803373ffffffffffffffffffffffffffffffffffffffff1673ffffffffffffffffffffffffffffffffffffffff16815260200190815260200160002060009054906101000a900467ffffffffffffffff1667ffffffffffffffff16101561024c577f4e487b7100000000000000000000000000000000000000000000000000000000600052600160045260246000fd5b806000803373ffffffffffffffffffffffffffffffffffffffff1673ffffffffffffffffffffffffffffffffffffffff16815260200190815260200160002060008282829054906101000a900467ffffffffffffffff166102ad9190610632565b92506101000a81548167ffffffffffffffff021916908367ffffffffffffffff1602179055508173ffffffffffffffffffffffffffffffffffffffff166108fc8267ffffffffffffffff169081150290604051600060405180830381858888f19350505050158015610323573d6000803e3d6000fd5b505050565b6000803373ffffffffffffffffffffffffffffffffffffffff1673ffffffffffffffffffffffffffffffffffffffff16815260200190815260200160002060009054906101000a900467ffffffffffffffff1667ffffffffffffffff16346000803373ffffffffffffffffffffffffffffffffffffffff1673ffffffffffffffffffffffffffffffffffffffff16815260200190815260200160002060009054906101000a900467ffffffffffffffff166103e391906105f4565b67ffffffffffffffff161015610422577f4e487b7100000000000000000000000000000000000000000000000000000000600052600160045260246000fd5b346000803373ffffffffffffffffffffffffffffffffffffffff1673ffffffffffffffffffffffffffffffffffffffff16815260200190815260200160002060008282829054906101000a900467ffffffffffffffff1661048391906105f4565b92506101000a81548167ffffffffffffffff021916908367ffffffffffffffff160217905550565b60006020528060005260406000206000915054906101000a900467ffffffffffffffff1681565b6000813590506104e181610716565b92915050565b6000813590506104f68161072d565b92915050565b60008135905061050b81610744565b92915050565b60006020828403121561052357600080fd5b6000610531848285016104d2565b91505092915050565b6000806040838503121561054d57600080fd5b600061055b858286016104e7565b925050602061056c858286016104fc565b9150509250929050565b6000610583601a836105e3565b915061058e826106ed565b602082019050919050565b6105a2816106aa565b82525050565b600060208201905081810360008301526105c181610576565b9050919050565b60006020820190506105dd6000830184610599565b92915050565b600082825260208201905092915050565b60006105ff826106aa565b915061060a836106aa565b92508267ffffffffffffffff03821115610627576106266106be565b5b828201905092915050565b600061063d826106aa565b9150610648836106aa565b92508282101561065b5761065a6106be565b5b828203905092915050565b60006106718261068a565b9050919050565b60006106838261068a565b9050919050565b600073ffffffffffffffffffffffffffffffffffffffff82169050919050565b600067ffffffffffffffff82169050919050565b7f4e487b7100000000000000000000000000000000000000000000000000000000600052601160045260246000fd5b7f596f7520646f6e74206861766520656e6f7567682066756e6473000000000000600082015250565b61071f81610666565b811461072a57600080fd5b50565b61073681610678565b811461074157600080fd5b50565b61074d816106aa565b811461075857600080fd5b5056fea2646970667358221220ecab1174825a9c878966ce510c04b0cc83feeb5293cd71048d30ca580a94b99864736f6c63430008040033",
					"opcodes": "PUSH1 0x80 PUSH1 0x40 MSTORE CALLVALUE DUP1 ISZERO PUSH2 0x10 JUMPI PUSH1 0x0 DUP1 REVERT JUMPDEST POP PUSH2 0x791 DUP1 PUSH2 0x20 PUSH1 0x0 CODECOPY PUSH1 0x0 RETURN INVALID PUSH1 0x80 PUSH1 0x40 MSTORE PUSH1 0x4 CALLDATASIZE LT PUSH2 0x34 JUMPI PUSH1 0x0 CALLDATALOAD PUSH1 0xE0 SHR DUP1 PUSH4 0xAD19AEB EQ PUSH2 0x39 JUMPI DUP1 PUSH4 0x6D26EC18 EQ PUSH2 0x62 JUMPI DUP1 PUSH4 0xD18A42E1 EQ PUSH2 0x6C JUMPI JUMPDEST PUSH1 0x0 DUP1 REVERT JUMPDEST CALLVALUE DUP1 ISZERO PUSH2 0x45 JUMPI PUSH1 0x0 DUP1 REVERT JUMPDEST POP PUSH2 0x60 PUSH1 0x4 DUP1 CALLDATASIZE SUB DUP2 ADD SWAP1 PUSH2 0x5B SWAP2 SWAP1 PUSH2 0x53A JUMP JUMPDEST PUSH2 0xA9 JUMP JUMPDEST STOP JUMPDEST PUSH2 0x6A PUSH2 0x328 JUMP JUMPDEST STOP JUMPDEST CALLVALUE DUP1 ISZERO PUSH2 0x78 JUMPI PUSH1 0x0 DUP1 REVERT JUMPDEST POP PUSH2 0x93 PUSH1 0x4 DUP1 CALLDATASIZE SUB DUP2 ADD SWAP1 PUSH2 0x8E SWAP2 SWAP1 PUSH2 0x511 JUMP JUMPDEST PUSH2 0x4AB JUMP JUMPDEST PUSH1 0x40 MLOAD PUSH2 0xA0 SWAP2 SWAP1 PUSH2 0x5C8 JUMP JUMPDEST PUSH1 0x40 MLOAD DUP1 SWAP2 SUB SWAP1 RETURN JUMPDEST PUSH1 0x0 DUP1 CALLER PUSH20 0xFFFFFFFFFFFFFFFFFFFFFFFFFFFFFFFFFFFFFFFF AND PUSH20 0xFFFFFFFFFFFFFFFFFFFFFFFFFFFFFFFFFFFFFFFF AND DUP2 MSTORE PUSH1 0x20 ADD SWAP1 DUP2 MSTORE PUSH1 0x20 ADD PUSH1 0x0 KECCAK256 PUSH1 0x0 SWAP1 SLOAD SWAP1 PUSH2 0x100 EXP SWAP1 DIV PUSH8 0xFFFFFFFFFFFFFFFF AND PUSH8 0xFFFFFFFFFFFFFFFF AND DUP2 PUSH8 0xFFFFFFFFFFFFFFFF AND GT ISZERO PUSH2 0x152 JUMPI PUSH1 0x40 MLOAD PUSH32 0x8C379A000000000000000000000000000000000000000000000000000000000 DUP2 MSTORE PUSH1 0x4 ADD PUSH2 0x149 SWAP1 PUSH2 0x5A8 JUMP JUMPDEST PUSH1 0x40 MLOAD DUP1 SWAP2 SUB SWAP1 REVERT JUMPDEST DUP1 PUSH1 0x0 DUP1 CALLER PUSH20 0xFFFFFFFFFFFFFFFFFFFFFFFFFFFFFFFFFFFFFFFF AND PUSH20 0xFFFFFFFFFFFFFFFFFFFFFFFFFFFFFFFFFFFFFFFF AND DUP2 MSTORE PUSH1 0x20 ADD SWAP1 DUP2 MSTORE PUSH1 0x20 ADD PUSH1 0x0 KECCAK256 PUSH1 0x0 SWAP1 SLOAD SWAP1 PUSH2 0x100 EXP SWAP1 DIV PUSH8 0xFFFFFFFFFFFFFFFF AND PUSH2 0x1B0 SWAP2 SWAP1 PUSH2 0x632 JUMP JUMPDEST PUSH8 0xFFFFFFFFFFFFFFFF AND PUSH1 0x0 DUP1 CALLER PUSH20 0xFFFFFFFFFFFFFFFFFFFFFFFFFFFFFFFFFFFFFFFF AND PUSH20 0xFFFFFFFFFFFFFFFFFFFFFFFFFFFFFFFFFFFFFFFF AND DUP2 MSTORE PUSH1 0x20 ADD SWAP1 DUP2 MSTORE PUSH1 0x20 ADD PUSH1 0x0 KECCAK256 PUSH1 0x0 SWAP1 SLOAD SWAP1 PUSH2 0x100 EXP SWAP1 DIV PUSH8 0xFFFFFFFFFFFFFFFF AND PUSH8 0xFFFFFFFFFFFFFFFF AND LT ISZERO PUSH2 0x24C JUMPI PUSH32 0x4E487B7100000000000000000000000000000000000000000000000000000000 PUSH1 0x0 MSTORE PUSH1 0x1 PUSH1 0x4 MSTORE PUSH1 0x24 PUSH1 0x0 REVERT JUMPDEST DUP1 PUSH1 0x0 DUP1 CALLER PUSH20 0xFFFFFFFFFFFFFFFFFFFFFFFFFFFFFFFFFFFFFFFF AND PUSH20 0xFFFFFFFFFFFFFFFFFFFFFFFFFFFFFFFFFFFFFFFF AND DUP2 MSTORE PUSH1 0x20 ADD SWAP1 DUP2 MSTORE PUSH1 0x20 ADD PUSH1 0x0 KECCAK256 PUSH1 0x0 DUP3 DUP3 DUP3 SWAP1 SLOAD SWAP1 PUSH2 0x100 EXP SWAP1 DIV PUSH8 0xFFFFFFFFFFFFFFFF AND PUSH2 0x2AD SWAP2 SWAP1 PUSH2 0x632 JUMP JUMPDEST SWAP3 POP PUSH2 0x100 EXP DUP2 SLOAD DUP2 PUSH8 0xFFFFFFFFFFFFFFFF MUL NOT AND SWAP1 DUP4 PUSH8 0xFFFFFFFFFFFFFFFF AND MUL OR SWAP1 SSTORE POP DUP2 PUSH20 0xFFFFFFFFFFFFFFFFFFFFFFFFFFFFFFFFFFFFFFFF AND PUSH2 0x8FC DUP3 PUSH8 0xFFFFFFFFFFFFFFFF AND SWAP1 DUP2 ISZERO MUL SWAP1 PUSH1 0x40 MLOAD PUSH1 0x0 PUSH1 0x40 MLOAD DUP1 DUP4 SUB DUP2 DUP6 DUP9 DUP9 CALL SWAP4 POP POP POP POP ISZERO DUP1 ISZERO PUSH2 0x323 JUMPI RETURNDATASIZE PUSH1 0x0 DUP1 RETURNDATACOPY RETURNDATASIZE PUSH1 0x0 REVERT JUMPDEST POP POP POP JUMP JUMPDEST PUSH1 0x0 DUP1 CALLER PUSH20 0xFFFFFFFFFFFFFFFFFFFFFFFFFFFFFFFFFFFFFFFF AND PUSH20 0xFFFFFFFFFFFFFFFFFFFFFFFFFFFFFFFFFFFFFFFF AND DUP2 MSTORE PUSH1 0x20 ADD SWAP1 DUP2 MSTORE PUSH1 0x20 ADD PUSH1 0x0 KECCAK256 PUSH1 0x0 SWAP1 SLOAD SWAP1 PUSH2 0x100 EXP SWAP1 DIV PUSH8 0xFFFFFFFFFFFFFFFF AND PUSH8 0xFFFFFFFFFFFFFFFF AND CALLVALUE PUSH1 0x0 DUP1 CALLER PUSH20 0xFFFFFFFFFFFFFFFFFFFFFFFFFFFFFFFFFFFFFFFF AND PUSH20 0xFFFFFFFFFFFFFFFFFFFFFFFFFFFFFFFFFFFFFFFF AND DUP2 MSTORE PUSH1 0x20 ADD SWAP1 DUP2 MSTORE PUSH1 0x20 ADD PUSH1 0x0 KECCAK256 PUSH1 0x0 SWAP1 SLOAD SWAP1 PUSH2 0x100 EXP SWAP1 DIV PUSH8 0xFFFFFFFFFFFFFFFF AND PUSH2 0x3E3 SWAP2 SWAP1 PUSH2 0x5F4 JUMP JUMPDEST PUSH8 0xFFFFFFFFFFFFFFFF AND LT ISZERO PUSH2 0x422 JUMPI PUSH32 0x4E487B7100000000000000000000000000000000000000000000000000000000 PUSH1 0x0 MSTORE PUSH1 0x1 PUSH1 0x4 MSTORE PUSH1 0x24 PUSH1 0x0 REVERT JUMPDEST CALLVALUE PUSH1 0x0 DUP1 CALLER PUSH20 0xFFFFFFFFFFFFFFFFFFFFFFFFFFFFFFFFFFFFFFFF AND PUSH20 0xFFFFFFFFFFFFFFFFFFFFFFFFFFFFFFFFFFFFFFFF AND DUP2 MSTORE PUSH1 0x20 ADD SWAP1 DUP2 MSTORE PUSH1 0x20 ADD PUSH1 0x0 KECCAK256 PUSH1 0x0 DUP3 DUP3 DUP3 SWAP1 SLOAD SWAP1 PUSH2 0x100 EXP SWAP1 DIV PUSH8 0xFFFFFFFFFFFFFFFF AND PUSH2 0x483 SWAP2 SWAP1 PUSH2 0x5F4 JUMP JUMPDEST SWAP3 POP PUSH2 0x100 EXP DUP2 SLOAD DUP2 PUSH8 0xFFFFFFFFFFFFFFFF MUL NOT AND SWAP1 DUP4 PUSH8 0xFFFFFFFFFFFFFFFF AND MUL OR SWAP1 SSTORE POP JUMP JUMPDEST PUSH1 0x0 PUSH1 0x20 MSTORE DUP1 PUSH1 0x0 MSTORE PUSH1 0x40 PUSH1 0x0 KECCAK256 PUSH1 0x0 SWAP2 POP SLOAD SWAP1 PUSH2 0x100 EXP SWAP1 DIV PUSH8 0xFFFFFFFFFFFFFFFF AND DUP2 JUMP JUMPDEST PUSH1 0x0 DUP2 CALLDATALOAD SWAP1 POP PUSH2 0x4E1 DUP2 PUSH2 0x716 JUMP JUMPDEST SWAP3 SWAP2 POP POP JUMP JUMPDEST PUSH1 0x0 DUP2 CALLDATALOAD SWAP1 POP PUSH2 0x4F6 DUP2 PUSH2 0x72D JUMP JUMPDEST SWAP3 SWAP2 POP POP JUMP JUMPDEST PUSH1 0x0 DUP2 CALLDATALOAD SWAP1 POP PUSH2 0x50B DUP2 PUSH2 0x744 JUMP JUMPDEST SWAP3 SWAP2 POP POP JUMP JUMPDEST PUSH1 0x0 PUSH1 0x20 DUP3 DUP5 SUB SLT ISZERO PUSH2 0x523 JUMPI PUSH1 0x0 DUP1 REVERT JUMPDEST PUSH1 0x0 PUSH2 0x531 DUP5 DUP3 DUP6 ADD PUSH2 0x4D2 JUMP JUMPDEST SWAP2 POP POP SWAP3 SWAP2 POP POP JUMP JUMPDEST PUSH1 0x0 DUP1 PUSH1 0x40 DUP4 DUP6 SUB SLT ISZERO PUSH2 0x54D JUMPI PUSH1 0x0 DUP1 REVERT JUMPDEST PUSH1 0x0 PUSH2 0x55B DUP6 DUP3 DUP7 ADD PUSH2 0x4E7 JUMP JUMPDEST SWAP3 POP POP PUSH1 0x20 PUSH2 0x56C DUP6 DUP3 DUP7 ADD PUSH2 0x4FC JUMP JUMPDEST SWAP2 POP POP SWAP3 POP SWAP3 SWAP1 POP JUMP JUMPDEST PUSH1 0x0 PUSH2 0x583 PUSH1 0x1A DUP4 PUSH2 0x5E3 JUMP JUMPDEST SWAP2 POP PUSH2 0x58E DUP3 PUSH2 0x6ED JUMP JUMPDEST PUSH1 0x20 DUP3 ADD SWAP1 POP SWAP2 SWAP1 POP JUMP JUMPDEST PUSH2 0x5A2 DUP2 PUSH2 0x6AA JUMP JUMPDEST DUP3 MSTORE POP POP JUMP JUMPDEST PUSH1 0x0 PUSH1 0x20 DUP3 ADD SWAP1 POP DUP2 DUP2 SUB PUSH1 0x0 DUP4 ADD MSTORE PUSH2 0x5C1 DUP2 PUSH2 0x576 JUMP JUMPDEST SWAP1 POP SWAP2 SWAP1 POP JUMP JUMPDEST PUSH1 0x0 PUSH1 0x20 DUP3 ADD SWAP1 POP PUSH2 0x5DD PUSH1 0x0 DUP4 ADD DUP5 PUSH2 0x599 JUMP JUMPDEST SWAP3 SWAP2 POP POP JUMP JUMPDEST PUSH1 0x0 DUP3 DUP3 MSTORE PUSH1 0x20 DUP3 ADD SWAP1 POP SWAP3 SWAP2 POP POP JUMP JUMPDEST PUSH1 0x0 PUSH2 0x5FF DUP3 PUSH2 0x6AA JUMP JUMPDEST SWAP2 POP PUSH2 0x60A DUP4 PUSH2 0x6AA JUMP JUMPDEST SWAP3 POP DUP3 PUSH8 0xFFFFFFFFFFFFFFFF SUB DUP3 GT ISZERO PUSH2 0x627 JUMPI PUSH2 0x626 PUSH2 0x6BE JUMP JUMPDEST JUMPDEST DUP3 DUP3 ADD SWAP1 POP SWAP3 SWAP2 POP POP JUMP JUMPDEST PUSH1 0x0 PUSH2 0x63D DUP3 PUSH2 0x6AA JUMP JUMPDEST SWAP2 POP PUSH2 0x648 DUP4 PUSH2 0x6AA JUMP JUMPDEST SWAP3 POP DUP3 DUP3 LT ISZERO PUSH2 0x65B JUMPI PUSH2 0x65A PUSH2 0x6BE JUMP JUMPDEST JUMPDEST DUP3 DUP3 SUB SWAP1 POP SWAP3 SWAP2 POP POP JUMP JUMPDEST PUSH1 0x0 PUSH2 0x671 DUP3 PUSH2 0x68A JUMP JUMPDEST SWAP1 POP SWAP2 SWAP1 POP JUMP JUMPDEST PUSH1 0x0 PUSH2 0x683 DUP3 PUSH2 0x68A JUMP JUMPDEST SWAP1 POP SWAP2 SWAP1 POP JUMP JUMPDEST PUSH1 0x0 PUSH20 0xFFFFFFFFFFFFFFFFFFFFFFFFFFFFFFFFFFFFFFFF DUP3 AND SWAP1 POP SWAP2 SWAP1 POP JUMP JUMPDEST PUSH1 0x0 PUSH8 0xFFFFFFFFFFFFFFFF DUP3 AND SWAP1 POP SWAP2 SWAP1 POP JUMP JUMPDEST PUSH32 0x4E487B7100000000000000000000000000000000000000000000000000000000 PUSH1 0x0 MSTORE PUSH1 0x11 PUSH1 0x4 MSTORE PUSH1 0x24 PUSH1 0x0 REVERT JUMPDEST PUSH32 0x596F7520646F6E74206861766520656E6F7567682066756E6473000000000000 PUSH1 0x0 DUP3 ADD MSTORE POP JUMP JUMPDEST PUSH2 0x71F DUP2 PUSH2 0x666 JUMP JUMPDEST DUP2 EQ PUSH2 0x72A JUMPI PUSH1 0x0 DUP1 REVERT JUMPDEST POP JUMP JUMPDEST PUSH2 0x736 DUP2 PUSH2 0x678 JUMP JUMPDEST DUP2 EQ PUSH2 0x741 JUMPI PUSH1 0x0 DUP1 REVERT JUMPDEST POP JUMP JUMPDEST PUSH2 0x74D DUP2 PUSH2 0x6AA JUMP JUMPDEST DUP2 EQ PUSH2 0x758 JUMPI PUSH1 0x0 DUP1 REVERT JUMPDEST POP JUMP INVALID LOG2 PUSH5 0x6970667358 0x22 SLT KECCAK256 0xEC 0xAB GT PUSH21 0x825A9C878966CE510C04B0CC83FEEB5293CD71048D ADDRESS 0xCA PC EXP SWAP5 0xB9 SWAP9 PUSH5 0x736F6C6343 STOP ADDMOD DIV STOP CALLER "
				},
				"gasEstimates": {
					"creation": {
						"codeDepositCost": "387400",
						"executionCost": "424",
						"totalCost": "387824"
					},
					"external": {
						"balanceReceived(address)": "1567",
						"receiveMoney()": "infinite",
						"withdrawMoney(address,uint64)": "infinite"
					}
				},
				"methodIdentifiers": {
					"balanceReceived(address)": "d18a42e1",
					"receiveMoney()": "6d26ec18",
					"withdrawMoney(address,uint64)": "0ad19aeb"
				}
			},
			"storageLayout": {
				"storage": [
					{
						"astId": 5,
						"contract": "contracts/basics/09-FunctionsExample.sol:FunctionsExample",
						"label": "balanceReceived",
						"offset": 0,
						"slot": "0",
						"type": "t_mapping(t_address,t_uint64)"
					}
				],
				"types": {
					"t_address": {
						"encoding": "inplace",
						"label": "address",
						"numberOfBytes": "20"
					},
					"t_mapping(t_address,t_uint64)": {
						"encoding": "mapping",
						"key": "t_address",
						"label": "mapping(address => uint64)",
						"numberOfBytes": "32",
						"value": "t_uint64"
					},
					"t_uint64": {
						"encoding": "inplace",
						"label": "uint64",
						"numberOfBytes": "8"
					}
				}
			},
			"userdoc": {
				"kind": "user",
				"methods": {},
				"version": 1
			}
		}
	}
}