{
	"contracts/basics/09-FunctionsExample.sol": {
		"FunctionsExample": {
			"abi": [
				{
					"inputs": [],
					"stateMutability": "nonpayable",
					"type": "constructor"
				},
				{
					"inputs": [
						{
							"internalType": "address",
							"name": "",
							"type": "address"
						}
					],
					"name": "balanceReceived",
					"outputs": [
						{
							"internalType": "uint256",
							"name": "",
							"type": "uint256"
						}
					],
					"stateMutability": "view",
					"type": "function"
				},
				{
					"inputs": [
						{
							"internalType": "uint256",
							"name": "amountinWei",
							"type": "uint256"
						}
					],
					"name": "convertWeitoEther",
					"outputs": [
						{
							"internalType": "uint256",
							"name": "",
							"type": "uint256"
						}
					],
					"stateMutability": "pure",
					"type": "function"
				},
				{
					"inputs": [],
					"name": "destroySmartContract",
					"outputs": [],
					"stateMutability": "nonpayable",
					"type": "function"
				},
				{
					"inputs": [],
					"name": "fall",
					"outputs": [],
					"stateMutability": "payable",
					"type": "function"
				},
				{
					"inputs": [],
					"name": "getOwner",
					"outputs": [
						{
							"internalType": "address",
							"name": "",
							"type": "address"
						}
					],
					"stateMutability": "view",
					"type": "function"
				},
				{
					"inputs": [],
					"name": "receiveMoney",
					"outputs": [],
					"stateMutability": "payable",
					"type": "function"
				},
				{
					"inputs": [
						{
							"internalType": "address payable",
							"name": "_to",
							"type": "address"
						},
						{
							"internalType": "uint256",
							"name": "_amount",
							"type": "uint256"
						}
					],
					"name": "withdrawMoney",
					"outputs": [],
					"stateMutability": "nonpayable",
					"type": "function"
				}
			],
			"devdoc": {
				"kind": "dev",
				"methods": {},
				"version": 1
			},
			"evm": {
				"assembly": "    /* \"contracts/basics/09-FunctionsExample.sol\":55:1185  contract FunctionsExample{\r... */\n  mstore(0x40, 0x80)\n    /* \"contracts/basics/09-FunctionsExample.sol\":170:229  constructor(){\r... */\n  callvalue\n  dup1\n  iszero\n  tag_1\n  jumpi\n  0x00\n  dup1\n  revert\ntag_1:\n  pop\n    /* \"contracts/basics/09-FunctionsExample.sol\":210:220  msg.sender */\n  caller\n    /* \"contracts/basics/09-FunctionsExample.sol\":194:199  owner */\n  0x01\n  0x00\n    /* \"contracts/basics/09-FunctionsExample.sol\":194:221  owner = payable(msg.sender) */\n  0x0100\n  exp\n  dup2\n  sload\n  dup2\n  0xffffffffffffffffffffffffffffffffffffffff\n  mul\n  not\n  and\n  swap1\n  dup4\n  0xffffffffffffffffffffffffffffffffffffffff\n  and\n  mul\n  or\n  swap1\n  sstore\n  pop\n    /* \"contracts/basics/09-FunctionsExample.sol\":55:1185  contract FunctionsExample{\r... */\n  dataSize(sub_0)\n  dup1\n  dataOffset(sub_0)\n  0x00\n  codecopy\n  0x00\n  return\nstop\n\nsub_0: assembly {\n        /* \"contracts/basics/09-FunctionsExample.sol\":55:1185  contract FunctionsExample{\r... */\n      mstore(0x40, 0x80)\n      jumpi(tag_1, lt(calldatasize, 0x04))\n      shr(0xe0, calldataload(0x00))\n      dup1\n      0x893d20e8\n      gt\n      tag_9\n      jumpi\n      dup1\n      0x893d20e8\n      eq\n      tag_5\n      jumpi\n      dup1\n      0x935fb73d\n      eq\n      tag_6\n      jumpi\n      dup1\n      0xd18a42e1\n      eq\n      tag_7\n      jumpi\n      dup1\n      0xf274c897\n      eq\n      tag_8\n      jumpi\n      jump(tag_1)\n    tag_9:\n      dup1\n      0x0cf2f2c1\n      eq\n      tag_2\n      jumpi\n      dup1\n      0x6d26ec18\n      eq\n      tag_3\n      jumpi\n      dup1\n      0x85474728\n      eq\n      tag_4\n      jumpi\n    tag_1:\n      0x00\n      dup1\n      revert\n        /* \"contracts/basics/09-FunctionsExample.sol\":1117:1182  function fall() external payable{\r... */\n    tag_2:\n      tag_10\n      tag_11\n      jump\t// in\n    tag_10:\n      stop\n        /* \"contracts/basics/09-FunctionsExample.sol\":592:784  function receiveMoney() public payable{\r... */\n    tag_3:\n      tag_12\n      tag_13\n      jump\t// in\n    tag_12:\n      stop\n        /* \"contracts/basics/09-FunctionsExample.sol\":447:584  function destroySmartContract() public{\r... */\n    tag_4:\n      callvalue\n      dup1\n      iszero\n      tag_14\n      jumpi\n      0x00\n      dup1\n      revert\n    tag_14:\n      pop\n      tag_15\n      tag_16\n      jump\t// in\n    tag_15:\n      stop\n        /* \"contracts/basics/09-FunctionsExample.sol\":237:316  function getOwner() public view returns(address){\r... */\n    tag_5:\n      callvalue\n      dup1\n      iszero\n      tag_17\n      jumpi\n      0x00\n      dup1\n      revert\n    tag_17:\n      pop\n      tag_18\n      tag_19\n      jump\t// in\n    tag_18:\n      mload(0x40)\n      tag_20\n      swap2\n      swap1\n      tag_21\n      jump\t// in\n    tag_20:\n      mload(0x40)\n      dup1\n      swap2\n      sub\n      swap1\n      return\n        /* \"contracts/basics/09-FunctionsExample.sol\":324:439  function convertWeitoEther(uint amountinWei) public pure returns(uint){\r... */\n    tag_6:\n      callvalue\n      dup1\n      iszero\n      tag_22\n      jumpi\n      0x00\n      dup1\n      revert\n    tag_22:\n      pop\n      tag_23\n      0x04\n      dup1\n      calldatasize\n      sub\n      dup2\n      add\n      swap1\n      tag_24\n      swap2\n      swap1\n      tag_25\n      jump\t// in\n    tag_24:\n      tag_26\n      jump\t// in\n    tag_23:\n      mload(0x40)\n      tag_27\n      swap2\n      swap1\n      tag_28\n      jump\t// in\n    tag_27:\n      mload(0x40)\n      dup1\n      swap2\n      sub\n      swap1\n      return\n        /* \"contracts/basics/09-FunctionsExample.sol\":87:133  mapping(address=> uint) public balanceReceived */\n    tag_7:\n      callvalue\n      dup1\n      iszero\n      tag_29\n      jumpi\n      0x00\n      dup1\n      revert\n    tag_29:\n      pop\n      tag_30\n      0x04\n      dup1\n      calldatasize\n      sub\n      dup2\n      add\n      swap1\n      tag_31\n      swap2\n      swap1\n      tag_32\n      jump\t// in\n    tag_31:\n      tag_33\n      jump\t// in\n    tag_30:\n      mload(0x40)\n      tag_34\n      swap2\n      swap1\n      tag_28\n      jump\t// in\n    tag_34:\n      mload(0x40)\n      dup1\n      swap2\n      sub\n      swap1\n      return\n        /* \"contracts/basics/09-FunctionsExample.sol\":792:1109  function withdrawMoney(address payable _to, uint _amount) public{\r... */\n    tag_8:\n      callvalue\n      dup1\n      iszero\n      tag_35\n      jumpi\n      0x00\n      dup1\n      revert\n    tag_35:\n      pop\n      tag_36\n      0x04\n      dup1\n      calldatasize\n      sub\n      dup2\n      add\n      swap1\n      tag_37\n      swap2\n      swap1\n      tag_38\n      jump\t// in\n    tag_37:\n      tag_39\n      jump\t// in\n    tag_36:\n      stop\n        /* \"contracts/basics/09-FunctionsExample.sol\":1117:1182  function fall() external payable{\r... */\n    tag_11:\n        /* \"contracts/basics/09-FunctionsExample.sol\":1160:1174  receiveMoney() */\n      tag_41\n        /* \"contracts/basics/09-FunctionsExample.sol\":1160:1172  receiveMoney */\n      tag_13\n        /* \"contracts/basics/09-FunctionsExample.sol\":1160:1174  receiveMoney() */\n      jump\t// in\n    tag_41:\n        /* \"contracts/basics/09-FunctionsExample.sol\":1117:1182  function fall() external payable{\r... */\n      jump\t// out\n        /* \"contracts/basics/09-FunctionsExample.sol\":592:784  function receiveMoney() public payable{\r... */\n    tag_13:\n        /* \"contracts/basics/09-FunctionsExample.sol\":693:708  balanceReceived */\n      0x00\n        /* \"contracts/basics/09-FunctionsExample.sol\":693:720  balanceReceived[msg.sender] */\n      dup1\n        /* \"contracts/basics/09-FunctionsExample.sol\":709:719  msg.sender */\n      caller\n        /* \"contracts/basics/09-FunctionsExample.sol\":693:720  balanceReceived[msg.sender] */\n      0xffffffffffffffffffffffffffffffffffffffff\n      and\n      0xffffffffffffffffffffffffffffffffffffffff\n      and\n      dup2\n      mstore\n      0x20\n      add\n      swap1\n      dup2\n      mstore\n      0x20\n      add\n      0x00\n      keccak256\n      sload\n        /* \"contracts/basics/09-FunctionsExample.sol\":681:690  msg.value */\n      callvalue\n        /* \"contracts/basics/09-FunctionsExample.sol\":648:663  balanceReceived */\n      0x00\n        /* \"contracts/basics/09-FunctionsExample.sol\":648:675  balanceReceived[msg.sender] */\n      dup1\n        /* \"contracts/basics/09-FunctionsExample.sol\":664:674  msg.sender */\n      caller\n        /* \"contracts/basics/09-FunctionsExample.sol\":648:675  balanceReceived[msg.sender] */\n      0xffffffffffffffffffffffffffffffffffffffff\n      and\n      0xffffffffffffffffffffffffffffffffffffffff\n      and\n      dup2\n      mstore\n      0x20\n      add\n      swap1\n      dup2\n      mstore\n      0x20\n      add\n      0x00\n      keccak256\n      sload\n        /* \"contracts/basics/09-FunctionsExample.sol\":648:691  balanceReceived[msg.sender]+uint(msg.value) */\n      tag_43\n      swap2\n      swap1\n      tag_44\n      jump\t// in\n    tag_43:\n        /* \"contracts/basics/09-FunctionsExample.sol\":648:720  balanceReceived[msg.sender]+uint(msg.value)>=balanceReceived[msg.sender] */\n      lt\n      iszero\n        /* \"contracts/basics/09-FunctionsExample.sol\":641:721  assert(balanceReceived[msg.sender]+uint(msg.value)>=balanceReceived[msg.sender]) */\n      tag_45\n      jumpi\n      mstore(0x00, 0x4e487b7100000000000000000000000000000000000000000000000000000000)\n      mstore(0x04, 0x01)\n      revert(0x00, 0x24)\n    tag_45:\n        /* \"contracts/basics/09-FunctionsExample.sol\":766:775  msg.value */\n      callvalue\n        /* \"contracts/basics/09-FunctionsExample.sol\":732:747  balanceReceived */\n      0x00\n        /* \"contracts/basics/09-FunctionsExample.sol\":732:759  balanceReceived[msg.sender] */\n      dup1\n        /* \"contracts/basics/09-FunctionsExample.sol\":748:758  msg.sender */\n      caller\n        /* \"contracts/basics/09-FunctionsExample.sol\":732:759  balanceReceived[msg.sender] */\n      0xffffffffffffffffffffffffffffffffffffffff\n      and\n      0xffffffffffffffffffffffffffffffffffffffff\n      and\n      dup2\n      mstore\n      0x20\n      add\n      swap1\n      dup2\n      mstore\n      0x20\n      add\n      0x00\n      keccak256\n      0x00\n        /* \"contracts/basics/09-FunctionsExample.sol\":732:776  balanceReceived[msg.sender]+=uint(msg.value) */\n      dup3\n      dup3\n      sload\n      tag_46\n      swap2\n      swap1\n      tag_44\n      jump\t// in\n    tag_46:\n      swap3\n      pop\n      pop\n      dup2\n      swap1\n      sstore\n      pop\n        /* \"contracts/basics/09-FunctionsExample.sol\":592:784  function receiveMoney() public payable{\r... */\n      jump\t// out\n        /* \"contracts/basics/09-FunctionsExample.sol\":447:584  function destroySmartContract() public{\r... */\n    tag_16:\n        /* \"contracts/basics/09-FunctionsExample.sol\":516:521  owner */\n      0x01\n      0x00\n      swap1\n      sload\n      swap1\n      0x0100\n      exp\n      swap1\n      div\n      0xffffffffffffffffffffffffffffffffffffffff\n      and\n        /* \"contracts/basics/09-FunctionsExample.sol\":504:521  msg.sender==owner */\n      0xffffffffffffffffffffffffffffffffffffffff\n      and\n        /* \"contracts/basics/09-FunctionsExample.sol\":504:514  msg.sender */\n      caller\n        /* \"contracts/basics/09-FunctionsExample.sol\":504:521  msg.sender==owner */\n      0xffffffffffffffffffffffffffffffffffffffff\n      and\n      eq\n        /* \"contracts/basics/09-FunctionsExample.sol\":496:546  require(msg.sender==owner,'You are not the owner') */\n      tag_48\n      jumpi\n      mload(0x40)\n      0x08c379a000000000000000000000000000000000000000000000000000000000\n      dup2\n      mstore\n      0x04\n      add\n      tag_49\n      swap1\n      tag_50\n      jump\t// in\n    tag_49:\n      mload(0x40)\n      dup1\n      swap2\n      sub\n      swap1\n      revert\n    tag_48:\n        /* \"contracts/basics/09-FunctionsExample.sol\":570:575  owner */\n      0x01\n      0x00\n      swap1\n      sload\n      swap1\n      0x0100\n      exp\n      swap1\n      div\n      0xffffffffffffffffffffffffffffffffffffffff\n      and\n        /* \"contracts/basics/09-FunctionsExample.sol\":557:576  selfdestruct(owner) */\n      0xffffffffffffffffffffffffffffffffffffffff\n      and\n      selfdestruct\n        /* \"contracts/basics/09-FunctionsExample.sol\":237:316  function getOwner() public view returns(address){\r... */\n    tag_19:\n        /* \"contracts/basics/09-FunctionsExample.sol\":277:284  address */\n      0x00\n        /* \"contracts/basics/09-FunctionsExample.sol\":303:308  owner */\n      0x01\n      0x00\n      swap1\n      sload\n      swap1\n      0x0100\n      exp\n      swap1\n      div\n      0xffffffffffffffffffffffffffffffffffffffff\n      and\n        /* \"contracts/basics/09-FunctionsExample.sol\":296:308  return owner */\n      swap1\n      pop\n        /* \"contracts/basics/09-FunctionsExample.sol\":237:316  function getOwner() public view returns(address){\r... */\n      swap1\n      jump\t// out\n        /* \"contracts/basics/09-FunctionsExample.sol\":324:439  function convertWeitoEther(uint amountinWei) public pure returns(uint){\r... */\n    tag_26:\n        /* \"contracts/basics/09-FunctionsExample.sol\":389:393  uint */\n      0x00\n        /* \"contracts/basics/09-FunctionsExample.sol\":424:431  1 ether */\n      0x0de0b6b3a7640000\n        /* \"contracts/basics/09-FunctionsExample.sol\":412:423  amountinWei */\n      dup3\n        /* \"contracts/basics/09-FunctionsExample.sol\":412:431  amountinWei/1 ether */\n      tag_53\n      swap2\n      swap1\n      tag_54\n      jump\t// in\n    tag_53:\n        /* \"contracts/basics/09-FunctionsExample.sol\":405:431  return amountinWei/1 ether */\n      swap1\n      pop\n        /* \"contracts/basics/09-FunctionsExample.sol\":324:439  function convertWeitoEther(uint amountinWei) public pure returns(uint){\r... */\n      swap2\n      swap1\n      pop\n      jump\t// out\n        /* \"contracts/basics/09-FunctionsExample.sol\":87:133  mapping(address=> uint) public balanceReceived */\n    tag_33:\n      mstore(0x20, 0x00)\n      dup1\n      0x00\n      mstore\n      keccak256(0x00, 0x40)\n      0x00\n      swap2\n      pop\n      swap1\n      pop\n      sload\n      dup2\n      jump\t// out\n        /* \"contracts/basics/09-FunctionsExample.sol\":792:1109  function withdrawMoney(address payable _to, uint _amount) public{\r... */\n    tag_39:\n        /* \"contracts/basics/09-FunctionsExample.sol\":883:898  balanceReceived */\n      0x00\n        /* \"contracts/basics/09-FunctionsExample.sol\":883:910  balanceReceived[msg.sender] */\n      dup1\n        /* \"contracts/basics/09-FunctionsExample.sol\":899:909  msg.sender */\n      caller\n        /* \"contracts/basics/09-FunctionsExample.sol\":883:910  balanceReceived[msg.sender] */\n      0xffffffffffffffffffffffffffffffffffffffff\n      and\n      0xffffffffffffffffffffffffffffffffffffffff\n      and\n      dup2\n      mstore\n      0x20\n      add\n      swap1\n      dup2\n      mstore\n      0x20\n      add\n      0x00\n      keccak256\n      sload\n        /* \"contracts/basics/09-FunctionsExample.sol\":874:881  _amount */\n      dup2\n        /* \"contracts/basics/09-FunctionsExample.sol\":874:910  _amount<=balanceReceived[msg.sender] */\n      gt\n      iszero\n        /* \"contracts/basics/09-FunctionsExample.sol\":866:940  require(_amount<=balanceReceived[msg.sender],'You dont have enough funds') */\n      tag_56\n      jumpi\n      mload(0x40)\n      0x08c379a000000000000000000000000000000000000000000000000000000000\n      dup2\n      mstore\n      0x04\n      add\n      tag_57\n      swap1\n      tag_58\n      jump\t// in\n    tag_57:\n      mload(0x40)\n      dup1\n      swap2\n      sub\n      swap1\n      revert\n    tag_56:\n        /* \"contracts/basics/09-FunctionsExample.sol\":1014:1021  _amount */\n      dup1\n        /* \"contracts/basics/09-FunctionsExample.sol\":986:1001  balanceReceived */\n      0x00\n        /* \"contracts/basics/09-FunctionsExample.sol\":986:1013  balanceReceived[msg.sender] */\n      dup1\n        /* \"contracts/basics/09-FunctionsExample.sol\":1002:1012  msg.sender */\n      caller\n        /* \"contracts/basics/09-FunctionsExample.sol\":986:1013  balanceReceived[msg.sender] */\n      0xffffffffffffffffffffffffffffffffffffffff\n      and\n      0xffffffffffffffffffffffffffffffffffffffff\n      and\n      dup2\n      mstore\n      0x20\n      add\n      swap1\n      dup2\n      mstore\n      0x20\n      add\n      0x00\n      keccak256\n      sload\n        /* \"contracts/basics/09-FunctionsExample.sol\":986:1021  balanceReceived[msg.sender]-_amount */\n      tag_59\n      swap2\n      swap1\n      tag_60\n      jump\t// in\n    tag_59:\n        /* \"contracts/basics/09-FunctionsExample.sol\":957:972  balanceReceived */\n      0x00\n        /* \"contracts/basics/09-FunctionsExample.sol\":957:984  balanceReceived[msg.sender] */\n      dup1\n        /* \"contracts/basics/09-FunctionsExample.sol\":973:983  msg.sender */\n      caller\n        /* \"contracts/basics/09-FunctionsExample.sol\":957:984  balanceReceived[msg.sender] */\n      0xffffffffffffffffffffffffffffffffffffffff\n      and\n      0xffffffffffffffffffffffffffffffffffffffff\n      and\n      dup2\n      mstore\n      0x20\n      add\n      swap1\n      dup2\n      mstore\n      0x20\n      add\n      0x00\n      keccak256\n      sload\n        /* \"contracts/basics/09-FunctionsExample.sol\":957:1021  balanceReceived[msg.sender]>=balanceReceived[msg.sender]-_amount */\n      lt\n      iszero\n        /* \"contracts/basics/09-FunctionsExample.sol\":950:1022  assert(balanceReceived[msg.sender]>=balanceReceived[msg.sender]-_amount) */\n      tag_61\n      jumpi\n      mstore(0x00, 0x4e487b7100000000000000000000000000000000000000000000000000000000)\n      mstore(0x04, 0x01)\n      revert(0x00, 0x24)\n    tag_61:\n        /* \"contracts/basics/09-FunctionsExample.sol\":1063:1070  _amount */\n      dup1\n        /* \"contracts/basics/09-FunctionsExample.sol\":1032:1047  balanceReceived */\n      0x00\n        /* \"contracts/basics/09-FunctionsExample.sol\":1032:1059  balanceReceived[msg.sender] */\n      dup1\n        /* \"contracts/basics/09-FunctionsExample.sol\":1048:1058  msg.sender */\n      caller\n        /* \"contracts/basics/09-FunctionsExample.sol\":1032:1059  balanceReceived[msg.sender] */\n      0xffffffffffffffffffffffffffffffffffffffff\n      and\n      0xffffffffffffffffffffffffffffffffffffffff\n      and\n      dup2\n      mstore\n      0x20\n      add\n      swap1\n      dup2\n      mstore\n      0x20\n      add\n      0x00\n      keccak256\n      0x00\n        /* \"contracts/basics/09-FunctionsExample.sol\":1032:1070  balanceReceived[msg.sender] -= _amount */\n      dup3\n      dup3\n      sload\n      tag_62\n      swap2\n      swap1\n      tag_60\n      jump\t// in\n    tag_62:\n      swap3\n      pop\n      pop\n      dup2\n      swap1\n      sstore\n      pop\n        /* \"contracts/basics/09-FunctionsExample.sol\":1080:1083  _to */\n      dup2\n        /* \"contracts/basics/09-FunctionsExample.sol\":1080:1092  _to.transfer */\n      0xffffffffffffffffffffffffffffffffffffffff\n      and\n        /* \"contracts/basics/09-FunctionsExample.sol\":1080:1101  _to.transfer(_amount) */\n      0x08fc\n        /* \"contracts/basics/09-FunctionsExample.sol\":1093:1100  _amount */\n      dup3\n        /* \"contracts/basics/09-FunctionsExample.sol\":1080:1101  _to.transfer(_amount) */\n      swap1\n      dup2\n      iszero\n      mul\n      swap1\n      mload(0x40)\n      0x00\n      mload(0x40)\n      dup1\n      dup4\n      sub\n      dup2\n      dup6\n      dup9\n      dup9\n      call\n      swap4\n      pop\n      pop\n      pop\n      pop\n      iszero\n      dup1\n      iszero\n      tag_64\n      jumpi\n      returndatasize\n      0x00\n      dup1\n      returndatacopy\n      revert(0x00, returndatasize)\n    tag_64:\n      pop\n        /* \"contracts/basics/09-FunctionsExample.sol\":792:1109  function withdrawMoney(address payable _to, uint _amount) public{\r... */\n      pop\n      pop\n      jump\t// out\n        /* \"#utility.yul\":7:146   */\n    tag_66:\n        /* \"#utility.yul\":53:58   */\n      0x00\n        /* \"#utility.yul\":91:97   */\n      dup2\n        /* \"#utility.yul\":78:98   */\n      calldataload\n        /* \"#utility.yul\":69:98   */\n      swap1\n      pop\n        /* \"#utility.yul\":107:140   */\n      tag_68\n        /* \"#utility.yul\":134:139   */\n      dup2\n        /* \"#utility.yul\":107:140   */\n      tag_69\n      jump\t// in\n    tag_68:\n        /* \"#utility.yul\":59:146   */\n      swap3\n      swap2\n      pop\n      pop\n      jump\t// out\n        /* \"#utility.yul\":152:307   */\n    tag_70:\n        /* \"#utility.yul\":206:211   */\n      0x00\n        /* \"#utility.yul\":244:250   */\n      dup2\n        /* \"#utility.yul\":231:251   */\n      calldataload\n        /* \"#utility.yul\":222:251   */\n      swap1\n      pop\n        /* \"#utility.yul\":260:301   */\n      tag_72\n        /* \"#utility.yul\":295:300   */\n      dup2\n        /* \"#utility.yul\":260:301   */\n      tag_73\n      jump\t// in\n    tag_72:\n        /* \"#utility.yul\":212:307   */\n      swap3\n      swap2\n      pop\n      pop\n      jump\t// out\n        /* \"#utility.yul\":313:452   */\n    tag_74:\n        /* \"#utility.yul\":359:364   */\n      0x00\n        /* \"#utility.yul\":397:403   */\n      dup2\n        /* \"#utility.yul\":384:404   */\n      calldataload\n        /* \"#utility.yul\":375:404   */\n      swap1\n      pop\n        /* \"#utility.yul\":413:446   */\n      tag_76\n        /* \"#utility.yul\":440:445   */\n      dup2\n        /* \"#utility.yul\":413:446   */\n      tag_77\n      jump\t// in\n    tag_76:\n        /* \"#utility.yul\":365:452   */\n      swap3\n      swap2\n      pop\n      pop\n      jump\t// out\n        /* \"#utility.yul\":458:720   */\n    tag_32:\n        /* \"#utility.yul\":517:523   */\n      0x00\n        /* \"#utility.yul\":566:568   */\n      0x20\n        /* \"#utility.yul\":554:563   */\n      dup3\n        /* \"#utility.yul\":545:552   */\n      dup5\n        /* \"#utility.yul\":541:564   */\n      sub\n        /* \"#utility.yul\":537:569   */\n      slt\n        /* \"#utility.yul\":534:536   */\n      iszero\n      tag_79\n      jumpi\n        /* \"#utility.yul\":582:583   */\n      0x00\n        /* \"#utility.yul\":579:580   */\n      dup1\n        /* \"#utility.yul\":572:584   */\n      revert\n        /* \"#utility.yul\":534:536   */\n    tag_79:\n        /* \"#utility.yul\":625:626   */\n      0x00\n        /* \"#utility.yul\":650:703   */\n      tag_80\n        /* \"#utility.yul\":695:702   */\n      dup5\n        /* \"#utility.yul\":686:692   */\n      dup3\n        /* \"#utility.yul\":675:684   */\n      dup6\n        /* \"#utility.yul\":671:693   */\n      add\n        /* \"#utility.yul\":650:703   */\n      tag_66\n      jump\t// in\n    tag_80:\n        /* \"#utility.yul\":640:703   */\n      swap2\n      pop\n        /* \"#utility.yul\":596:713   */\n      pop\n        /* \"#utility.yul\":524:720   */\n      swap3\n      swap2\n      pop\n      pop\n      jump\t// out\n        /* \"#utility.yul\":726:1149   */\n    tag_38:\n        /* \"#utility.yul\":802:808   */\n      0x00\n        /* \"#utility.yul\":810:816   */\n      dup1\n        /* \"#utility.yul\":859:861   */\n      0x40\n        /* \"#utility.yul\":847:856   */\n      dup4\n        /* \"#utility.yul\":838:845   */\n      dup6\n        /* \"#utility.yul\":834:857   */\n      sub\n        /* \"#utility.yul\":830:862   */\n      slt\n        /* \"#utility.yul\":827:829   */\n      iszero\n      tag_82\n      jumpi\n        /* \"#utility.yul\":875:876   */\n      0x00\n        /* \"#utility.yul\":872:873   */\n      dup1\n        /* \"#utility.yul\":865:877   */\n      revert\n        /* \"#utility.yul\":827:829   */\n    tag_82:\n        /* \"#utility.yul\":918:919   */\n      0x00\n        /* \"#utility.yul\":943:1004   */\n      tag_83\n        /* \"#utility.yul\":996:1003   */\n      dup6\n        /* \"#utility.yul\":987:993   */\n      dup3\n        /* \"#utility.yul\":976:985   */\n      dup7\n        /* \"#utility.yul\":972:994   */\n      add\n        /* \"#utility.yul\":943:1004   */\n      tag_70\n      jump\t// in\n    tag_83:\n        /* \"#utility.yul\":933:1004   */\n      swap3\n      pop\n        /* \"#utility.yul\":889:1014   */\n      pop\n        /* \"#utility.yul\":1053:1055   */\n      0x20\n        /* \"#utility.yul\":1079:1132   */\n      tag_84\n        /* \"#utility.yul\":1124:1131   */\n      dup6\n        /* \"#utility.yul\":1115:1121   */\n      dup3\n        /* \"#utility.yul\":1104:1113   */\n      dup7\n        /* \"#utility.yul\":1100:1122   */\n      add\n        /* \"#utility.yul\":1079:1132   */\n      tag_74\n      jump\t// in\n    tag_84:\n        /* \"#utility.yul\":1069:1132   */\n      swap2\n      pop\n        /* \"#utility.yul\":1024:1142   */\n      pop\n        /* \"#utility.yul\":817:1149   */\n      swap3\n      pop\n      swap3\n      swap1\n      pop\n      jump\t// out\n        /* \"#utility.yul\":1155:1417   */\n    tag_25:\n        /* \"#utility.yul\":1214:1220   */\n      0x00\n        /* \"#utility.yul\":1263:1265   */\n      0x20\n        /* \"#utility.yul\":1251:1260   */\n      dup3\n        /* \"#utility.yul\":1242:1249   */\n      dup5\n        /* \"#utility.yul\":1238:1261   */\n      sub\n        /* \"#utility.yul\":1234:1266   */\n      slt\n        /* \"#utility.yul\":1231:1233   */\n      iszero\n      tag_86\n      jumpi\n        /* \"#utility.yul\":1279:1280   */\n      0x00\n        /* \"#utility.yul\":1276:1277   */\n      dup1\n        /* \"#utility.yul\":1269:1281   */\n      revert\n        /* \"#utility.yul\":1231:1233   */\n    tag_86:\n        /* \"#utility.yul\":1322:1323   */\n      0x00\n        /* \"#utility.yul\":1347:1400   */\n      tag_87\n        /* \"#utility.yul\":1392:1399   */\n      dup5\n        /* \"#utility.yul\":1383:1389   */\n      dup3\n        /* \"#utility.yul\":1372:1381   */\n      dup6\n        /* \"#utility.yul\":1368:1390   */\n      add\n        /* \"#utility.yul\":1347:1400   */\n      tag_74\n      jump\t// in\n    tag_87:\n        /* \"#utility.yul\":1337:1400   */\n      swap2\n      pop\n        /* \"#utility.yul\":1293:1410   */\n      pop\n        /* \"#utility.yul\":1221:1417   */\n      swap3\n      swap2\n      pop\n      pop\n      jump\t// out\n        /* \"#utility.yul\":1423:1541   */\n    tag_88:\n        /* \"#utility.yul\":1510:1534   */\n      tag_90\n        /* \"#utility.yul\":1528:1533   */\n      dup2\n        /* \"#utility.yul\":1510:1534   */\n      tag_91\n      jump\t// in\n    tag_90:\n        /* \"#utility.yul\":1505:1508   */\n      dup3\n        /* \"#utility.yul\":1498:1535   */\n      mstore\n        /* \"#utility.yul\":1488:1541   */\n      pop\n      pop\n      jump\t// out\n        /* \"#utility.yul\":1547:1913   */\n    tag_92:\n        /* \"#utility.yul\":1689:1692   */\n      0x00\n        /* \"#utility.yul\":1710:1777   */\n      tag_94\n        /* \"#utility.yul\":1774:1776   */\n      0x1a\n        /* \"#utility.yul\":1769:1772   */\n      dup4\n        /* \"#utility.yul\":1710:1777   */\n      tag_95\n      jump\t// in\n    tag_94:\n        /* \"#utility.yul\":1703:1777   */\n      swap2\n      pop\n        /* \"#utility.yul\":1786:1879   */\n      tag_96\n        /* \"#utility.yul\":1875:1878   */\n      dup3\n        /* \"#utility.yul\":1786:1879   */\n      tag_97\n      jump\t// in\n    tag_96:\n        /* \"#utility.yul\":1904:1906   */\n      0x20\n        /* \"#utility.yul\":1899:1902   */\n      dup3\n        /* \"#utility.yul\":1895:1907   */\n      add\n        /* \"#utility.yul\":1888:1907   */\n      swap1\n      pop\n        /* \"#utility.yul\":1693:1913   */\n      swap2\n      swap1\n      pop\n      jump\t// out\n        /* \"#utility.yul\":1919:2285   */\n    tag_98:\n        /* \"#utility.yul\":2061:2064   */\n      0x00\n        /* \"#utility.yul\":2082:2149   */\n      tag_100\n        /* \"#utility.yul\":2146:2148   */\n      0x15\n        /* \"#utility.yul\":2141:2144   */\n      dup4\n        /* \"#utility.yul\":2082:2149   */\n      tag_95\n      jump\t// in\n    tag_100:\n        /* \"#utility.yul\":2075:2149   */\n      swap2\n      pop\n        /* \"#utility.yul\":2158:2251   */\n      tag_101\n        /* \"#utility.yul\":2247:2250   */\n      dup3\n        /* \"#utility.yul\":2158:2251   */\n      tag_102\n      jump\t// in\n    tag_101:\n        /* \"#utility.yul\":2276:2278   */\n      0x20\n        /* \"#utility.yul\":2271:2274   */\n      dup3\n        /* \"#utility.yul\":2267:2279   */\n      add\n        /* \"#utility.yul\":2260:2279   */\n      swap1\n      pop\n        /* \"#utility.yul\":2065:2285   */\n      swap2\n      swap1\n      pop\n      jump\t// out\n        /* \"#utility.yul\":2291:2409   */\n    tag_103:\n        /* \"#utility.yul\":2378:2402   */\n      tag_105\n        /* \"#utility.yul\":2396:2401   */\n      dup2\n        /* \"#utility.yul\":2378:2402   */\n      tag_106\n      jump\t// in\n    tag_105:\n        /* \"#utility.yul\":2373:2376   */\n      dup3\n        /* \"#utility.yul\":2366:2403   */\n      mstore\n        /* \"#utility.yul\":2356:2409   */\n      pop\n      pop\n      jump\t// out\n        /* \"#utility.yul\":2415:2637   */\n    tag_21:\n        /* \"#utility.yul\":2508:2512   */\n      0x00\n        /* \"#utility.yul\":2546:2548   */\n      0x20\n        /* \"#utility.yul\":2535:2544   */\n      dup3\n        /* \"#utility.yul\":2531:2549   */\n      add\n        /* \"#utility.yul\":2523:2549   */\n      swap1\n      pop\n        /* \"#utility.yul\":2559:2630   */\n      tag_108\n        /* \"#utility.yul\":2627:2628   */\n      0x00\n        /* \"#utility.yul\":2616:2625   */\n      dup4\n        /* \"#utility.yul\":2612:2629   */\n      add\n        /* \"#utility.yul\":2603:2609   */\n      dup5\n        /* \"#utility.yul\":2559:2630   */\n      tag_88\n      jump\t// in\n    tag_108:\n        /* \"#utility.yul\":2513:2637   */\n      swap3\n      swap2\n      pop\n      pop\n      jump\t// out\n        /* \"#utility.yul\":2643:3062   */\n    tag_58:\n        /* \"#utility.yul\":2809:2813   */\n      0x00\n        /* \"#utility.yul\":2847:2849   */\n      0x20\n        /* \"#utility.yul\":2836:2845   */\n      dup3\n        /* \"#utility.yul\":2832:2850   */\n      add\n        /* \"#utility.yul\":2824:2850   */\n      swap1\n      pop\n        /* \"#utility.yul\":2896:2905   */\n      dup2\n        /* \"#utility.yul\":2890:2894   */\n      dup2\n        /* \"#utility.yul\":2886:2906   */\n      sub\n        /* \"#utility.yul\":2882:2883   */\n      0x00\n        /* \"#utility.yul\":2871:2880   */\n      dup4\n        /* \"#utility.yul\":2867:2884   */\n      add\n        /* \"#utility.yul\":2860:2907   */\n      mstore\n        /* \"#utility.yul\":2924:3055   */\n      tag_110\n        /* \"#utility.yul\":3050:3054   */\n      dup2\n        /* \"#utility.yul\":2924:3055   */\n      tag_92\n      jump\t// in\n    tag_110:\n        /* \"#utility.yul\":2916:3055   */\n      swap1\n      pop\n        /* \"#utility.yul\":2814:3062   */\n      swap2\n      swap1\n      pop\n      jump\t// out\n        /* \"#utility.yul\":3068:3487   */\n    tag_50:\n        /* \"#utility.yul\":3234:3238   */\n      0x00\n        /* \"#utility.yul\":3272:3274   */\n      0x20\n        /* \"#utility.yul\":3261:3270   */\n      dup3\n        /* \"#utility.yul\":3257:3275   */\n      add\n        /* \"#utility.yul\":3249:3275   */\n      swap1\n      pop\n        /* \"#utility.yul\":3321:3330   */\n      dup2\n        /* \"#utility.yul\":3315:3319   */\n      dup2\n        /* \"#utility.yul\":3311:3331   */\n      sub\n        /* \"#utility.yul\":3307:3308   */\n      0x00\n        /* \"#utility.yul\":3296:3305   */\n      dup4\n        /* \"#utility.yul\":3292:3309   */\n      add\n        /* \"#utility.yul\":3285:3332   */\n      mstore\n        /* \"#utility.yul\":3349:3480   */\n      tag_112\n        /* \"#utility.yul\":3475:3479   */\n      dup2\n        /* \"#utility.yul\":3349:3480   */\n      tag_98\n      jump\t// in\n    tag_112:\n        /* \"#utility.yul\":3341:3480   */\n      swap1\n      pop\n        /* \"#utility.yul\":3239:3487   */\n      swap2\n      swap1\n      pop\n      jump\t// out\n        /* \"#utility.yul\":3493:3715   */\n    tag_28:\n        /* \"#utility.yul\":3586:3590   */\n      0x00\n        /* \"#utility.yul\":3624:3626   */\n      0x20\n        /* \"#utility.yul\":3613:3622   */\n      dup3\n        /* \"#utility.yul\":3609:3627   */\n      add\n        /* \"#utility.yul\":3601:3627   */\n      swap1\n      pop\n        /* \"#utility.yul\":3637:3708   */\n      tag_114\n        /* \"#utility.yul\":3705:3706   */\n      0x00\n        /* \"#utility.yul\":3694:3703   */\n      dup4\n        /* \"#utility.yul\":3690:3707   */\n      add\n        /* \"#utility.yul\":3681:3687   */\n      dup5\n        /* \"#utility.yul\":3637:3708   */\n      tag_103\n      jump\t// in\n    tag_114:\n        /* \"#utility.yul\":3591:3715   */\n      swap3\n      swap2\n      pop\n      pop\n      jump\t// out\n        /* \"#utility.yul\":3721:3890   */\n    tag_95:\n        /* \"#utility.yul\":3805:3816   */\n      0x00\n        /* \"#utility.yul\":3839:3845   */\n      dup3\n        /* \"#utility.yul\":3834:3837   */\n      dup3\n        /* \"#utility.yul\":3827:3846   */\n      mstore\n        /* \"#utility.yul\":3879:3883   */\n      0x20\n        /* \"#utility.yul\":3874:3877   */\n      dup3\n        /* \"#utility.yul\":3870:3884   */\n      add\n        /* \"#utility.yul\":3855:3884   */\n      swap1\n      pop\n        /* \"#utility.yul\":3817:3890   */\n      swap3\n      swap2\n      pop\n      pop\n      jump\t// out\n        /* \"#utility.yul\":3896:4201   */\n    tag_44:\n        /* \"#utility.yul\":3936:3939   */\n      0x00\n        /* \"#utility.yul\":3955:3975   */\n      tag_117\n        /* \"#utility.yul\":3973:3974   */\n      dup3\n        /* \"#utility.yul\":3955:3975   */\n      tag_106\n      jump\t// in\n    tag_117:\n        /* \"#utility.yul\":3950:3975   */\n      swap2\n      pop\n        /* \"#utility.yul\":3989:4009   */\n      tag_118\n        /* \"#utility.yul\":4007:4008   */\n      dup4\n        /* \"#utility.yul\":3989:4009   */\n      tag_106\n      jump\t// in\n    tag_118:\n        /* \"#utility.yul\":3984:4009   */\n      swap3\n      pop\n        /* \"#utility.yul\":4143:4144   */\n      dup3\n        /* \"#utility.yul\":4075:4141   */\n      0xffffffffffffffffffffffffffffffffffffffffffffffffffffffffffffffff\n        /* \"#utility.yul\":4071:4145   */\n      sub\n        /* \"#utility.yul\":4068:4069   */\n      dup3\n        /* \"#utility.yul\":4065:4146   */\n      gt\n        /* \"#utility.yul\":4062:4064   */\n      iszero\n      tag_119\n      jumpi\n        /* \"#utility.yul\":4149:4167   */\n      tag_120\n      tag_121\n      jump\t// in\n    tag_120:\n        /* \"#utility.yul\":4062:4064   */\n    tag_119:\n        /* \"#utility.yul\":4193:4194   */\n      dup3\n        /* \"#utility.yul\":4190:4191   */\n      dup3\n        /* \"#utility.yul\":4186:4195   */\n      add\n        /* \"#utility.yul\":4179:4195   */\n      swap1\n      pop\n        /* \"#utility.yul\":3940:4201   */\n      swap3\n      swap2\n      pop\n      pop\n      jump\t// out\n        /* \"#utility.yul\":4207:4392   */\n    tag_54:\n        /* \"#utility.yul\":4247:4248   */\n      0x00\n        /* \"#utility.yul\":4264:4284   */\n      tag_123\n        /* \"#utility.yul\":4282:4283   */\n      dup3\n        /* \"#utility.yul\":4264:4284   */\n      tag_106\n      jump\t// in\n    tag_123:\n        /* \"#utility.yul\":4259:4284   */\n      swap2\n      pop\n        /* \"#utility.yul\":4298:4318   */\n      tag_124\n        /* \"#utility.yul\":4316:4317   */\n      dup4\n        /* \"#utility.yul\":4298:4318   */\n      tag_106\n      jump\t// in\n    tag_124:\n        /* \"#utility.yul\":4293:4318   */\n      swap3\n      pop\n        /* \"#utility.yul\":4337:4338   */\n      dup3\n        /* \"#utility.yul\":4327:4329   */\n      tag_125\n      jumpi\n        /* \"#utility.yul\":4342:4360   */\n      tag_126\n      tag_127\n      jump\t// in\n    tag_126:\n        /* \"#utility.yul\":4327:4329   */\n    tag_125:\n        /* \"#utility.yul\":4384:4385   */\n      dup3\n        /* \"#utility.yul\":4381:4382   */\n      dup3\n        /* \"#utility.yul\":4377:4386   */\n      div\n        /* \"#utility.yul\":4372:4386   */\n      swap1\n      pop\n        /* \"#utility.yul\":4249:4392   */\n      swap3\n      swap2\n      pop\n      pop\n      jump\t// out\n        /* \"#utility.yul\":4398:4589   */\n    tag_60:\n        /* \"#utility.yul\":4438:4442   */\n      0x00\n        /* \"#utility.yul\":4458:4478   */\n      tag_129\n        /* \"#utility.yul\":4476:4477   */\n      dup3\n        /* \"#utility.yul\":4458:4478   */\n      tag_106\n      jump\t// in\n    tag_129:\n        /* \"#utility.yul\":4453:4478   */\n      swap2\n      pop\n        /* \"#utility.yul\":4492:4512   */\n      tag_130\n        /* \"#utility.yul\":4510:4511   */\n      dup4\n        /* \"#utility.yul\":4492:4512   */\n      tag_106\n      jump\t// in\n    tag_130:\n        /* \"#utility.yul\":4487:4512   */\n      swap3\n      pop\n        /* \"#utility.yul\":4531:4532   */\n      dup3\n        /* \"#utility.yul\":4528:4529   */\n      dup3\n        /* \"#utility.yul\":4525:4533   */\n      lt\n        /* \"#utility.yul\":4522:4524   */\n      iszero\n      tag_131\n      jumpi\n        /* \"#utility.yul\":4536:4554   */\n      tag_132\n      tag_121\n      jump\t// in\n    tag_132:\n        /* \"#utility.yul\":4522:4524   */\n    tag_131:\n        /* \"#utility.yul\":4581:4582   */\n      dup3\n        /* \"#utility.yul\":4578:4579   */\n      dup3\n        /* \"#utility.yul\":4574:4583   */\n      sub\n        /* \"#utility.yul\":4566:4583   */\n      swap1\n      pop\n        /* \"#utility.yul\":4443:4589   */\n      swap3\n      swap2\n      pop\n      pop\n      jump\t// out\n        /* \"#utility.yul\":4595:4691   */\n    tag_91:\n        /* \"#utility.yul\":4632:4639   */\n      0x00\n        /* \"#utility.yul\":4661:4685   */\n      tag_134\n        /* \"#utility.yul\":4679:4684   */\n      dup3\n        /* \"#utility.yul\":4661:4685   */\n      tag_135\n      jump\t// in\n    tag_134:\n        /* \"#utility.yul\":4650:4685   */\n      swap1\n      pop\n        /* \"#utility.yul\":4640:4691   */\n      swap2\n      swap1\n      pop\n      jump\t// out\n        /* \"#utility.yul\":4697:4801   */\n    tag_136:\n        /* \"#utility.yul\":4742:4749   */\n      0x00\n        /* \"#utility.yul\":4771:4795   */\n      tag_138\n        /* \"#utility.yul\":4789:4794   */\n      dup3\n        /* \"#utility.yul\":4771:4795   */\n      tag_135\n      jump\t// in\n    tag_138:\n        /* \"#utility.yul\":4760:4795   */\n      swap1\n      pop\n        /* \"#utility.yul\":4750:4801   */\n      swap2\n      swap1\n      pop\n      jump\t// out\n        /* \"#utility.yul\":4807:4933   */\n    tag_135:\n        /* \"#utility.yul\":4844:4851   */\n      0x00\n        /* \"#utility.yul\":4884:4926   */\n      0xffffffffffffffffffffffffffffffffffffffff\n        /* \"#utility.yul\":4877:4882   */\n      dup3\n        /* \"#utility.yul\":4873:4927   */\n      and\n        /* \"#utility.yul\":4862:4927   */\n      swap1\n      pop\n        /* \"#utility.yul\":4852:4933   */\n      swap2\n      swap1\n      pop\n      jump\t// out\n        /* \"#utility.yul\":4939:5016   */\n    tag_106:\n        /* \"#utility.yul\":4976:4983   */\n      0x00\n        /* \"#utility.yul\":5005:5010   */\n      dup2\n        /* \"#utility.yul\":4994:5010   */\n      swap1\n      pop\n        /* \"#utility.yul\":4984:5016   */\n      swap2\n      swap1\n      pop\n      jump\t// out\n        /* \"#utility.yul\":5022:5202   */\n    tag_121:\n        /* \"#utility.yul\":5070:5147   */\n      0x4e487b7100000000000000000000000000000000000000000000000000000000\n        /* \"#utility.yul\":5067:5068   */\n      0x00\n        /* \"#utility.yul\":5060:5148   */\n      mstore\n        /* \"#utility.yul\":5167:5171   */\n      0x11\n        /* \"#utility.yul\":5164:5165   */\n      0x04\n        /* \"#utility.yul\":5157:5172   */\n      mstore\n        /* \"#utility.yul\":5191:5195   */\n      0x24\n        /* \"#utility.yul\":5188:5189   */\n      0x00\n        /* \"#utility.yul\":5181:5196   */\n      revert\n        /* \"#utility.yul\":5208:5388   */\n    tag_127:\n        /* \"#utility.yul\":5256:5333   */\n      0x4e487b7100000000000000000000000000000000000000000000000000000000\n        /* \"#utility.yul\":5253:5254   */\n      0x00\n        /* \"#utility.yul\":5246:5334   */\n      mstore\n        /* \"#utility.yul\":5353:5357   */\n      0x12\n        /* \"#utility.yul\":5350:5351   */\n      0x04\n        /* \"#utility.yul\":5343:5358   */\n      mstore\n        /* \"#utility.yul\":5377:5381   */\n      0x24\n        /* \"#utility.yul\":5374:5375   */\n      0x00\n        /* \"#utility.yul\":5367:5382   */\n      revert\n        /* \"#utility.yul\":5394:5570   */\n    tag_97:\n        /* \"#utility.yul\":5534:5562   */\n      0x596f7520646f6e74206861766520656e6f7567682066756e6473000000000000\n        /* \"#utility.yul\":5530:5531   */\n      0x00\n        /* \"#utility.yul\":5522:5528   */\n      dup3\n        /* \"#utility.yul\":5518:5532   */\n      add\n        /* \"#utility.yul\":5511:5563   */\n      mstore\n        /* \"#utility.yul\":5500:5570   */\n      pop\n      jump\t// out\n        /* \"#utility.yul\":5576:5747   */\n    tag_102:\n        /* \"#utility.yul\":5716:5739   */\n      0x596f7520617265206e6f7420746865206f776e65720000000000000000000000\n        /* \"#utility.yul\":5712:5713   */\n      0x00\n        /* \"#utility.yul\":5704:5710   */\n      dup3\n        /* \"#utility.yul\":5700:5714   */\n      add\n        /* \"#utility.yul\":5693:5740   */\n      mstore\n        /* \"#utility.yul\":5682:5747   */\n      pop\n      jump\t// out\n        /* \"#utility.yul\":5753:5875   */\n    tag_69:\n        /* \"#utility.yul\":5826:5850   */\n      tag_146\n        /* \"#utility.yul\":5844:5849   */\n      dup2\n        /* \"#utility.yul\":5826:5850   */\n      tag_91\n      jump\t// in\n    tag_146:\n        /* \"#utility.yul\":5819:5824   */\n      dup2\n        /* \"#utility.yul\":5816:5851   */\n      eq\n        /* \"#utility.yul\":5806:5808   */\n      tag_147\n      jumpi\n        /* \"#utility.yul\":5865:5866   */\n      0x00\n        /* \"#utility.yul\":5862:5863   */\n      dup1\n        /* \"#utility.yul\":5855:5867   */\n      revert\n        /* \"#utility.yul\":5806:5808   */\n    tag_147:\n        /* \"#utility.yul\":5796:5875   */\n      pop\n      jump\t// out\n        /* \"#utility.yul\":5881:6019   */\n    tag_73:\n        /* \"#utility.yul\":5962:5994   */\n      tag_149\n        /* \"#utility.yul\":5988:5993   */\n      dup2\n        /* \"#utility.yul\":5962:5994   */\n      tag_136\n      jump\t// in\n    tag_149:\n        /* \"#utility.yul\":5955:5960   */\n      dup2\n        /* \"#utility.yul\":5952:5995   */\n      eq\n        /* \"#utility.yul\":5942:5944   */\n      tag_150\n      jumpi\n        /* \"#utility.yul\":6009:6010   */\n      0x00\n        /* \"#utility.yul\":6006:6007   */\n      dup1\n        /* \"#utility.yul\":5999:6011   */\n      revert\n        /* \"#utility.yul\":5942:5944   */\n    tag_150:\n        /* \"#utility.yul\":5932:6019   */\n      pop\n      jump\t// out\n        /* \"#utility.yul\":6025:6147   */\n    tag_77:\n        /* \"#utility.yul\":6098:6122   */\n      tag_152\n        /* \"#utility.yul\":6116:6121   */\n      dup2\n        /* \"#utility.yul\":6098:6122   */\n      tag_106\n      jump\t// in\n    tag_152:\n        /* \"#utility.yul\":6091:6096   */\n      dup2\n        /* \"#utility.yul\":6088:6123   */\n      eq\n        /* \"#utility.yul\":6078:6080   */\n      tag_153\n      jumpi\n        /* \"#utility.yul\":6137:6138   */\n      0x00\n        /* \"#utility.yul\":6134:6135   */\n      dup1\n        /* \"#utility.yul\":6127:6139   */\n      revert\n        /* \"#utility.yul\":6078:6080   */\n    tag_153:\n        /* \"#utility.yul\":6068:6147   */\n      pop\n      jump\t// out\n\n    auxdata: 0xa26469706673582212205cffc381c09bd7d787135f05b94955d054c83e2250dcf6bc41745da485a1327c64736f6c63430008040033\n}\n",
				"bytecode": {
					"linkReferences": {},
					"object": "608060405234801561001057600080fd5b5033600160006101000a81548173ffffffffffffffffffffffffffffffffffffffff021916908373ffffffffffffffffffffffffffffffffffffffff160217905550610982806100616000396000f3fe6080604052600436106100705760003560e01c8063893d20e81161004e578063893d20e8146100a0578063935fb73d146100cb578063d18a42e114610108578063f274c8971461014557610070565b80630cf2f2c1146100755780636d26ec181461007f5780638547472814610089575b600080fd5b61007d61016e565b005b610087610178565b005b34801561009557600080fd5b5061009e61028d565b005b3480156100ac57600080fd5b506100b5610358565b6040516100c291906106c7565b60405180910390f35b3480156100d757600080fd5b506100f260048036038101906100ed919061063a565b610382565b6040516100ff9190610722565b60405180910390f35b34801561011457600080fd5b5061012f600480360381019061012a91906105d5565b61039f565b60405161013c9190610722565b60405180910390f35b34801561015157600080fd5b5061016c600480360381019061016791906105fe565b6103b7565b005b610176610178565b565b6000803373ffffffffffffffffffffffffffffffffffffffff1673ffffffffffffffffffffffffffffffffffffffff16815260200190815260200160002054346000803373ffffffffffffffffffffffffffffffffffffffff1673ffffffffffffffffffffffffffffffffffffffff16815260200190815260200160002054610201919061074e565b1015610236577f4e487b7100000000000000000000000000000000000000000000000000000000600052600160045260246000fd5b346000803373ffffffffffffffffffffffffffffffffffffffff1673ffffffffffffffffffffffffffffffffffffffff1681526020019081526020016000206000828254610284919061074e565b92505081905550565b600160009054906101000a900473ffffffffffffffffffffffffffffffffffffffff1673ffffffffffffffffffffffffffffffffffffffff163373ffffffffffffffffffffffffffffffffffffffff161461031d576040517f08c379a000000000000000000000000000000000000000000000000000000000815260040161031490610702565b60405180910390fd5b600160009054906101000a900473ffffffffffffffffffffffffffffffffffffffff1673ffffffffffffffffffffffffffffffffffffffff16ff5b6000600160009054906101000a900473ffffffffffffffffffffffffffffffffffffffff16905090565b6000670de0b6b3a76400008261039891906107a4565b9050919050565b60006020528060005260406000206000915090505481565b6000803373ffffffffffffffffffffffffffffffffffffffff1673ffffffffffffffffffffffffffffffffffffffff16815260200190815260200160002054811115610438576040517f08c379a000000000000000000000000000000000000000000000000000000000815260040161042f906106e2565b60405180910390fd5b806000803373ffffffffffffffffffffffffffffffffffffffff1673ffffffffffffffffffffffffffffffffffffffff1681526020019081526020016000205461048291906107d5565b6000803373ffffffffffffffffffffffffffffffffffffffff1673ffffffffffffffffffffffffffffffffffffffff1681526020019081526020016000205410156104f6577f4e487b7100000000000000000000000000000000000000000000000000000000600052600160045260246000fd5b806000803373ffffffffffffffffffffffffffffffffffffffff1673ffffffffffffffffffffffffffffffffffffffff168152602001908152602001600020600082825461054491906107d5565b925050819055508173ffffffffffffffffffffffffffffffffffffffff166108fc829081150290604051600060405180830381858888f19350505050158015610591573d6000803e3d6000fd5b505050565b6000813590506105a581610907565b92915050565b6000813590506105ba8161091e565b92915050565b6000813590506105cf81610935565b92915050565b6000602082840312156105e757600080fd5b60006105f584828501610596565b91505092915050565b6000806040838503121561061157600080fd5b600061061f858286016105ab565b9250506020610630858286016105c0565b9150509250929050565b60006020828403121561064c57600080fd5b600061065a848285016105c0565b91505092915050565b61066c81610809565b82525050565b600061067f601a8361073d565b915061068a826108b5565b602082019050919050565b60006106a260158361073d565b91506106ad826108de565b602082019050919050565b6106c18161084d565b82525050565b60006020820190506106dc6000830184610663565b92915050565b600060208201905081810360008301526106fb81610672565b9050919050565b6000602082019050818103600083015261071b81610695565b9050919050565b600060208201905061073760008301846106b8565b92915050565b600082825260208201905092915050565b60006107598261084d565b91506107648361084d565b9250827fffffffffffffffffffffffffffffffffffffffffffffffffffffffffffffffff0382111561079957610798610857565b5b828201905092915050565b60006107af8261084d565b91506107ba8361084d565b9250826107ca576107c9610886565b5b828204905092915050565b60006107e08261084d565b91506107eb8361084d565b9250828210156107fe576107fd610857565b5b828203905092915050565b60006108148261082d565b9050919050565b60006108268261082d565b9050919050565b600073ffffffffffffffffffffffffffffffffffffffff82169050919050565b6000819050919050565b7f4e487b7100000000000000000000000000000000000000000000000000000000600052601160045260246000fd5b7f4e487b7100000000000000000000000000000000000000000000000000000000600052601260045260246000fd5b7f596f7520646f6e74206861766520656e6f7567682066756e6473000000000000600082015250565b7f596f7520617265206e6f7420746865206f776e65720000000000000000000000600082015250565b61091081610809565b811461091b57600080fd5b50565b6109278161081b565b811461093257600080fd5b50565b61093e8161084d565b811461094957600080fd5b5056fea26469706673582212205cffc381c09bd7d787135f05b94955d054c83e2250dcf6bc41745da485a1327c64736f6c63430008040033",
					"opcodes": "PUSH1 0x80 PUSH1 0x40 MSTORE CALLVALUE DUP1 ISZERO PUSH2 0x10 JUMPI PUSH1 0x0 DUP1 REVERT JUMPDEST POP CALLER PUSH1 0x1 PUSH1 0x0 PUSH2 0x100 EXP DUP2 SLOAD DUP2 PUSH20 0xFFFFFFFFFFFFFFFFFFFFFFFFFFFFFFFFFFFFFFFF MUL NOT AND SWAP1 DUP4 PUSH20 0xFFFFFFFFFFFFFFFFFFFFFFFFFFFFFFFFFFFFFFFF AND MUL OR SWAP1 SSTORE POP PUSH2 0x982 DUP1 PUSH2 0x61 PUSH1 0x0 CODECOPY PUSH1 0x0 RETURN INVALID PUSH1 0x80 PUSH1 0x40 MSTORE PUSH1 0x4 CALLDATASIZE LT PUSH2 0x70 JUMPI PUSH1 0x0 CALLDATALOAD PUSH1 0xE0 SHR DUP1 PUSH4 0x893D20E8 GT PUSH2 0x4E JUMPI DUP1 PUSH4 0x893D20E8 EQ PUSH2 0xA0 JUMPI DUP1 PUSH4 0x935FB73D EQ PUSH2 0xCB JUMPI DUP1 PUSH4 0xD18A42E1 EQ PUSH2 0x108 JUMPI DUP1 PUSH4 0xF274C897 EQ PUSH2 0x145 JUMPI PUSH2 0x70 JUMP JUMPDEST DUP1 PUSH4 0xCF2F2C1 EQ PUSH2 0x75 JUMPI DUP1 PUSH4 0x6D26EC18 EQ PUSH2 0x7F JUMPI DUP1 PUSH4 0x85474728 EQ PUSH2 0x89 JUMPI JUMPDEST PUSH1 0x0 DUP1 REVERT JUMPDEST PUSH2 0x7D PUSH2 0x16E JUMP JUMPDEST STOP JUMPDEST PUSH2 0x87 PUSH2 0x178 JUMP JUMPDEST STOP JUMPDEST CALLVALUE DUP1 ISZERO PUSH2 0x95 JUMPI PUSH1 0x0 DUP1 REVERT JUMPDEST POP PUSH2 0x9E PUSH2 0x28D JUMP JUMPDEST STOP JUMPDEST CALLVALUE DUP1 ISZERO PUSH2 0xAC JUMPI PUSH1 0x0 DUP1 REVERT JUMPDEST POP PUSH2 0xB5 PUSH2 0x358 JUMP JUMPDEST PUSH1 0x40 MLOAD PUSH2 0xC2 SWAP2 SWAP1 PUSH2 0x6C7 JUMP JUMPDEST PUSH1 0x40 MLOAD DUP1 SWAP2 SUB SWAP1 RETURN JUMPDEST CALLVALUE DUP1 ISZERO PUSH2 0xD7 JUMPI PUSH1 0x0 DUP1 REVERT JUMPDEST POP PUSH2 0xF2 PUSH1 0x4 DUP1 CALLDATASIZE SUB DUP2 ADD SWAP1 PUSH2 0xED SWAP2 SWAP1 PUSH2 0x63A JUMP JUMPDEST PUSH2 0x382 JUMP JUMPDEST PUSH1 0x40 MLOAD PUSH2 0xFF SWAP2 SWAP1 PUSH2 0x722 JUMP JUMPDEST PUSH1 0x40 MLOAD DUP1 SWAP2 SUB SWAP1 RETURN JUMPDEST CALLVALUE DUP1 ISZERO PUSH2 0x114 JUMPI PUSH1 0x0 DUP1 REVERT JUMPDEST POP PUSH2 0x12F PUSH1 0x4 DUP1 CALLDATASIZE SUB DUP2 ADD SWAP1 PUSH2 0x12A SWAP2 SWAP1 PUSH2 0x5D5 JUMP JUMPDEST PUSH2 0x39F JUMP JUMPDEST PUSH1 0x40 MLOAD PUSH2 0x13C SWAP2 SWAP1 PUSH2 0x722 JUMP JUMPDEST PUSH1 0x40 MLOAD DUP1 SWAP2 SUB SWAP1 RETURN JUMPDEST CALLVALUE DUP1 ISZERO PUSH2 0x151 JUMPI PUSH1 0x0 DUP1 REVERT JUMPDEST POP PUSH2 0x16C PUSH1 0x4 DUP1 CALLDATASIZE SUB DUP2 ADD SWAP1 PUSH2 0x167 SWAP2 SWAP1 PUSH2 0x5FE JUMP JUMPDEST PUSH2 0x3B7 JUMP JUMPDEST STOP JUMPDEST PUSH2 0x176 PUSH2 0x178 JUMP JUMPDEST JUMP JUMPDEST PUSH1 0x0 DUP1 CALLER PUSH20 0xFFFFFFFFFFFFFFFFFFFFFFFFFFFFFFFFFFFFFFFF AND PUSH20 0xFFFFFFFFFFFFFFFFFFFFFFFFFFFFFFFFFFFFFFFF AND DUP2 MSTORE PUSH1 0x20 ADD SWAP1 DUP2 MSTORE PUSH1 0x20 ADD PUSH1 0x0 KECCAK256 SLOAD CALLVALUE PUSH1 0x0 DUP1 CALLER PUSH20 0xFFFFFFFFFFFFFFFFFFFFFFFFFFFFFFFFFFFFFFFF AND PUSH20 0xFFFFFFFFFFFFFFFFFFFFFFFFFFFFFFFFFFFFFFFF AND DUP2 MSTORE PUSH1 0x20 ADD SWAP1 DUP2 MSTORE PUSH1 0x20 ADD PUSH1 0x0 KECCAK256 SLOAD PUSH2 0x201 SWAP2 SWAP1 PUSH2 0x74E JUMP JUMPDEST LT ISZERO PUSH2 0x236 JUMPI PUSH32 0x4E487B7100000000000000000000000000000000000000000000000000000000 PUSH1 0x0 MSTORE PUSH1 0x1 PUSH1 0x4 MSTORE PUSH1 0x24 PUSH1 0x0 REVERT JUMPDEST CALLVALUE PUSH1 0x0 DUP1 CALLER PUSH20 0xFFFFFFFFFFFFFFFFFFFFFFFFFFFFFFFFFFFFFFFF AND PUSH20 0xFFFFFFFFFFFFFFFFFFFFFFFFFFFFFFFFFFFFFFFF AND DUP2 MSTORE PUSH1 0x20 ADD SWAP1 DUP2 MSTORE PUSH1 0x20 ADD PUSH1 0x0 KECCAK256 PUSH1 0x0 DUP3 DUP3 SLOAD PUSH2 0x284 SWAP2 SWAP1 PUSH2 0x74E JUMP JUMPDEST SWAP3 POP POP DUP2 SWAP1 SSTORE POP JUMP JUMPDEST PUSH1 0x1 PUSH1 0x0 SWAP1 SLOAD SWAP1 PUSH2 0x100 EXP SWAP1 DIV PUSH20 0xFFFFFFFFFFFFFFFFFFFFFFFFFFFFFFFFFFFFFFFF AND PUSH20 0xFFFFFFFFFFFFFFFFFFFFFFFFFFFFFFFFFFFFFFFF AND CALLER PUSH20 0xFFFFFFFFFFFFFFFFFFFFFFFFFFFFFFFFFFFFFFFF AND EQ PUSH2 0x31D JUMPI PUSH1 0x40 MLOAD PUSH32 0x8C379A000000000000000000000000000000000000000000000000000000000 DUP2 MSTORE PUSH1 0x4 ADD PUSH2 0x314 SWAP1 PUSH2 0x702 JUMP JUMPDEST PUSH1 0x40 MLOAD DUP1 SWAP2 SUB SWAP1 REVERT JUMPDEST PUSH1 0x1 PUSH1 0x0 SWAP1 SLOAD SWAP1 PUSH2 0x100 EXP SWAP1 DIV PUSH20 0xFFFFFFFFFFFFFFFFFFFFFFFFFFFFFFFFFFFFFFFF AND PUSH20 0xFFFFFFFFFFFFFFFFFFFFFFFFFFFFFFFFFFFFFFFF AND SELFDESTRUCT JUMPDEST PUSH1 0x0 PUSH1 0x1 PUSH1 0x0 SWAP1 SLOAD SWAP1 PUSH2 0x100 EXP SWAP1 DIV PUSH20 0xFFFFFFFFFFFFFFFFFFFFFFFFFFFFFFFFFFFFFFFF AND SWAP1 POP SWAP1 JUMP JUMPDEST PUSH1 0x0 PUSH8 0xDE0B6B3A7640000 DUP3 PUSH2 0x398 SWAP2 SWAP1 PUSH2 0x7A4 JUMP JUMPDEST SWAP1 POP SWAP2 SWAP1 POP JUMP JUMPDEST PUSH1 0x0 PUSH1 0x20 MSTORE DUP1 PUSH1 0x0 MSTORE PUSH1 0x40 PUSH1 0x0 KECCAK256 PUSH1 0x0 SWAP2 POP SWAP1 POP SLOAD DUP2 JUMP JUMPDEST PUSH1 0x0 DUP1 CALLER PUSH20 0xFFFFFFFFFFFFFFFFFFFFFFFFFFFFFFFFFFFFFFFF AND PUSH20 0xFFFFFFFFFFFFFFFFFFFFFFFFFFFFFFFFFFFFFFFF AND DUP2 MSTORE PUSH1 0x20 ADD SWAP1 DUP2 MSTORE PUSH1 0x20 ADD PUSH1 0x0 KECCAK256 SLOAD DUP2 GT ISZERO PUSH2 0x438 JUMPI PUSH1 0x40 MLOAD PUSH32 0x8C379A000000000000000000000000000000000000000000000000000000000 DUP2 MSTORE PUSH1 0x4 ADD PUSH2 0x42F SWAP1 PUSH2 0x6E2 JUMP JUMPDEST PUSH1 0x40 MLOAD DUP1 SWAP2 SUB SWAP1 REVERT JUMPDEST DUP1 PUSH1 0x0 DUP1 CALLER PUSH20 0xFFFFFFFFFFFFFFFFFFFFFFFFFFFFFFFFFFFFFFFF AND PUSH20 0xFFFFFFFFFFFFFFFFFFFFFFFFFFFFFFFFFFFFFFFF AND DUP2 MSTORE PUSH1 0x20 ADD SWAP1 DUP2 MSTORE PUSH1 0x20 ADD PUSH1 0x0 KECCAK256 SLOAD PUSH2 0x482 SWAP2 SWAP1 PUSH2 0x7D5 JUMP JUMPDEST PUSH1 0x0 DUP1 CALLER PUSH20 0xFFFFFFFFFFFFFFFFFFFFFFFFFFFFFFFFFFFFFFFF AND PUSH20 0xFFFFFFFFFFFFFFFFFFFFFFFFFFFFFFFFFFFFFFFF AND DUP2 MSTORE PUSH1 0x20 ADD SWAP1 DUP2 MSTORE PUSH1 0x20 ADD PUSH1 0x0 KECCAK256 SLOAD LT ISZERO PUSH2 0x4F6 JUMPI PUSH32 0x4E487B7100000000000000000000000000000000000000000000000000000000 PUSH1 0x0 MSTORE PUSH1 0x1 PUSH1 0x4 MSTORE PUSH1 0x24 PUSH1 0x0 REVERT JUMPDEST DUP1 PUSH1 0x0 DUP1 CALLER PUSH20 0xFFFFFFFFFFFFFFFFFFFFFFFFFFFFFFFFFFFFFFFF AND PUSH20 0xFFFFFFFFFFFFFFFFFFFFFFFFFFFFFFFFFFFFFFFF AND DUP2 MSTORE PUSH1 0x20 ADD SWAP1 DUP2 MSTORE PUSH1 0x20 ADD PUSH1 0x0 KECCAK256 PUSH1 0x0 DUP3 DUP3 SLOAD PUSH2 0x544 SWAP2 SWAP1 PUSH2 0x7D5 JUMP JUMPDEST SWAP3 POP POP DUP2 SWAP1 SSTORE POP DUP2 PUSH20 0xFFFFFFFFFFFFFFFFFFFFFFFFFFFFFFFFFFFFFFFF AND PUSH2 0x8FC DUP3 SWAP1 DUP2 ISZERO MUL SWAP1 PUSH1 0x40 MLOAD PUSH1 0x0 PUSH1 0x40 MLOAD DUP1 DUP4 SUB DUP2 DUP6 DUP9 DUP9 CALL SWAP4 POP POP POP POP ISZERO DUP1 ISZERO PUSH2 0x591 JUMPI RETURNDATASIZE PUSH1 0x0 DUP1 RETURNDATACOPY RETURNDATASIZE PUSH1 0x0 REVERT JUMPDEST POP POP POP JUMP JUMPDEST PUSH1 0x0 DUP2 CALLDATALOAD SWAP1 POP PUSH2 0x5A5 DUP2 PUSH2 0x907 JUMP JUMPDEST SWAP3 SWAP2 POP POP JUMP JUMPDEST PUSH1 0x0 DUP2 CALLDATALOAD SWAP1 POP PUSH2 0x5BA DUP2 PUSH2 0x91E JUMP JUMPDEST SWAP3 SWAP2 POP POP JUMP JUMPDEST PUSH1 0x0 DUP2 CALLDATALOAD SWAP1 POP PUSH2 0x5CF DUP2 PUSH2 0x935 JUMP JUMPDEST SWAP3 SWAP2 POP POP JUMP JUMPDEST PUSH1 0x0 PUSH1 0x20 DUP3 DUP5 SUB SLT ISZERO PUSH2 0x5E7 JUMPI PUSH1 0x0 DUP1 REVERT JUMPDEST PUSH1 0x0 PUSH2 0x5F5 DUP5 DUP3 DUP6 ADD PUSH2 0x596 JUMP JUMPDEST SWAP2 POP POP SWAP3 SWAP2 POP POP JUMP JUMPDEST PUSH1 0x0 DUP1 PUSH1 0x40 DUP4 DUP6 SUB SLT ISZERO PUSH2 0x611 JUMPI PUSH1 0x0 DUP1 REVERT JUMPDEST PUSH1 0x0 PUSH2 0x61F DUP6 DUP3 DUP7 ADD PUSH2 0x5AB JUMP JUMPDEST SWAP3 POP POP PUSH1 0x20 PUSH2 0x630 DUP6 DUP3 DUP7 ADD PUSH2 0x5C0 JUMP JUMPDEST SWAP2 POP POP SWAP3 POP SWAP3 SWAP1 POP JUMP JUMPDEST PUSH1 0x0 PUSH1 0x20 DUP3 DUP5 SUB SLT ISZERO PUSH2 0x64C JUMPI PUSH1 0x0 DUP1 REVERT JUMPDEST PUSH1 0x0 PUSH2 0x65A DUP5 DUP3 DUP6 ADD PUSH2 0x5C0 JUMP JUMPDEST SWAP2 POP POP SWAP3 SWAP2 POP POP JUMP JUMPDEST PUSH2 0x66C DUP2 PUSH2 0x809 JUMP JUMPDEST DUP3 MSTORE POP POP JUMP JUMPDEST PUSH1 0x0 PUSH2 0x67F PUSH1 0x1A DUP4 PUSH2 0x73D JUMP JUMPDEST SWAP2 POP PUSH2 0x68A DUP3 PUSH2 0x8B5 JUMP JUMPDEST PUSH1 0x20 DUP3 ADD SWAP1 POP SWAP2 SWAP1 POP JUMP JUMPDEST PUSH1 0x0 PUSH2 0x6A2 PUSH1 0x15 DUP4 PUSH2 0x73D JUMP JUMPDEST SWAP2 POP PUSH2 0x6AD DUP3 PUSH2 0x8DE JUMP JUMPDEST PUSH1 0x20 DUP3 ADD SWAP1 POP SWAP2 SWAP1 POP JUMP JUMPDEST PUSH2 0x6C1 DUP2 PUSH2 0x84D JUMP JUMPDEST DUP3 MSTORE POP POP JUMP JUMPDEST PUSH1 0x0 PUSH1 0x20 DUP3 ADD SWAP1 POP PUSH2 0x6DC PUSH1 0x0 DUP4 ADD DUP5 PUSH2 0x663 JUMP JUMPDEST SWAP3 SWAP2 POP POP JUMP JUMPDEST PUSH1 0x0 PUSH1 0x20 DUP3 ADD SWAP1 POP DUP2 DUP2 SUB PUSH1 0x0 DUP4 ADD MSTORE PUSH2 0x6FB DUP2 PUSH2 0x672 JUMP JUMPDEST SWAP1 POP SWAP2 SWAP1 POP JUMP JUMPDEST PUSH1 0x0 PUSH1 0x20 DUP3 ADD SWAP1 POP DUP2 DUP2 SUB PUSH1 0x0 DUP4 ADD MSTORE PUSH2 0x71B DUP2 PUSH2 0x695 JUMP JUMPDEST SWAP1 POP SWAP2 SWAP1 POP JUMP JUMPDEST PUSH1 0x0 PUSH1 0x20 DUP3 ADD SWAP1 POP PUSH2 0x737 PUSH1 0x0 DUP4 ADD DUP5 PUSH2 0x6B8 JUMP JUMPDEST SWAP3 SWAP2 POP POP JUMP JUMPDEST PUSH1 0x0 DUP3 DUP3 MSTORE PUSH1 0x20 DUP3 ADD SWAP1 POP SWAP3 SWAP2 POP POP JUMP JUMPDEST PUSH1 0x0 PUSH2 0x759 DUP3 PUSH2 0x84D JUMP JUMPDEST SWAP2 POP PUSH2 0x764 DUP4 PUSH2 0x84D JUMP JUMPDEST SWAP3 POP DUP3 PUSH32 0xFFFFFFFFFFFFFFFFFFFFFFFFFFFFFFFFFFFFFFFFFFFFFFFFFFFFFFFFFFFFFFFF SUB DUP3 GT ISZERO PUSH2 0x799 JUMPI PUSH2 0x798 PUSH2 0x857 JUMP JUMPDEST JUMPDEST DUP3 DUP3 ADD SWAP1 POP SWAP3 SWAP2 POP POP JUMP JUMPDEST PUSH1 0x0 PUSH2 0x7AF DUP3 PUSH2 0x84D JUMP JUMPDEST SWAP2 POP PUSH2 0x7BA DUP4 PUSH2 0x84D JUMP JUMPDEST SWAP3 POP DUP3 PUSH2 0x7CA JUMPI PUSH2 0x7C9 PUSH2 0x886 JUMP JUMPDEST JUMPDEST DUP3 DUP3 DIV SWAP1 POP SWAP3 SWAP2 POP POP JUMP JUMPDEST PUSH1 0x0 PUSH2 0x7E0 DUP3 PUSH2 0x84D JUMP JUMPDEST SWAP2 POP PUSH2 0x7EB DUP4 PUSH2 0x84D JUMP JUMPDEST SWAP3 POP DUP3 DUP3 LT ISZERO PUSH2 0x7FE JUMPI PUSH2 0x7FD PUSH2 0x857 JUMP JUMPDEST JUMPDEST DUP3 DUP3 SUB SWAP1 POP SWAP3 SWAP2 POP POP JUMP JUMPDEST PUSH1 0x0 PUSH2 0x814 DUP3 PUSH2 0x82D JUMP JUMPDEST SWAP1 POP SWAP2 SWAP1 POP JUMP JUMPDEST PUSH1 0x0 PUSH2 0x826 DUP3 PUSH2 0x82D JUMP JUMPDEST SWAP1 POP SWAP2 SWAP1 POP JUMP JUMPDEST PUSH1 0x0 PUSH20 0xFFFFFFFFFFFFFFFFFFFFFFFFFFFFFFFFFFFFFFFF DUP3 AND SWAP1 POP SWAP2 SWAP1 POP JUMP JUMPDEST PUSH1 0x0 DUP2 SWAP1 POP SWAP2 SWAP1 POP JUMP JUMPDEST PUSH32 0x4E487B7100000000000000000000000000000000000000000000000000000000 PUSH1 0x0 MSTORE PUSH1 0x11 PUSH1 0x4 MSTORE PUSH1 0x24 PUSH1 0x0 REVERT JUMPDEST PUSH32 0x4E487B7100000000000000000000000000000000000000000000000000000000 PUSH1 0x0 MSTORE PUSH1 0x12 PUSH1 0x4 MSTORE PUSH1 0x24 PUSH1 0x0 REVERT JUMPDEST PUSH32 0x596F7520646F6E74206861766520656E6F7567682066756E6473000000000000 PUSH1 0x0 DUP3 ADD MSTORE POP JUMP JUMPDEST PUSH32 0x596F7520617265206E6F7420746865206F776E65720000000000000000000000 PUSH1 0x0 DUP3 ADD MSTORE POP JUMP JUMPDEST PUSH2 0x910 DUP2 PUSH2 0x809 JUMP JUMPDEST DUP2 EQ PUSH2 0x91B JUMPI PUSH1 0x0 DUP1 REVERT JUMPDEST POP JUMP JUMPDEST PUSH2 0x927 DUP2 PUSH2 0x81B JUMP JUMPDEST DUP2 EQ PUSH2 0x932 JUMPI PUSH1 0x0 DUP1 REVERT JUMPDEST POP JUMP JUMPDEST PUSH2 0x93E DUP2 PUSH2 0x84D JUMP JUMPDEST DUP2 EQ PUSH2 0x949 JUMPI PUSH1 0x0 DUP1 REVERT JUMPDEST POP JUMP INVALID LOG2 PUSH5 0x6970667358 0x22 SLT KECCAK256 0x5C SELFDESTRUCT 0xC3 DUP2 0xC0 SWAP12 0xD7 0xD7 DUP8 SGT 0x5F SDIV 0xB9 0x49 SSTORE 0xD0 SLOAD 0xC8 RETURNDATACOPY 0x22 POP 0xDC 0xF6 0xBC COINBASE PUSH21 0x5DA485A1327C64736F6C6343000804003300000000 "
				},
				"gasEstimates": {
					"creation": {
						"codeDepositCost": "486800",
						"executionCost": "21390",
						"totalCost": "508190"
					},
					"external": {
						"balanceReceived(address)": "1558",
						"convertWeitoEther(uint256)": "infinite",
						"destroySmartContract()": "31895",
						"fall()": "infinite",
						"getOwner()": "1222",
						"receiveMoney()": "infinite",
						"withdrawMoney(address,uint256)": "infinite"
					}
				},
				"methodIdentifiers": {
					"balanceReceived(address)": "d18a42e1",
					"convertWeitoEther(uint256)": "935fb73d",
					"destroySmartContract()": "85474728",
					"fall()": "0cf2f2c1",
					"getOwner()": "893d20e8",
					"receiveMoney()": "6d26ec18",
					"withdrawMoney(address,uint256)": "f274c897"
				}
			},
			"storageLayout": {
				"storage": [
					{
						"astId": 5,
						"contract": "contracts/basics/09-FunctionsExample.sol:FunctionsExample",
						"label": "balanceReceived",
						"offset": 0,
						"slot": "0",
						"type": "t_mapping(t_address,t_uint256)"
					},
					{
						"astId": 7,
						"contract": "contracts/basics/09-FunctionsExample.sol:FunctionsExample",
						"label": "owner",
						"offset": 0,
						"slot": "1",
						"type": "t_address_payable"
					}
				],
				"types": {
					"t_address": {
						"encoding": "inplace",
						"label": "address",
						"numberOfBytes": "20"
					},
					"t_address_payable": {
						"encoding": "inplace",
						"label": "address payable",
						"numberOfBytes": "20"
					},
					"t_mapping(t_address,t_uint256)": {
						"encoding": "mapping",
						"key": "t_address",
						"label": "mapping(address => uint256)",
						"numberOfBytes": "32",
						"value": "t_uint256"
					},
					"t_uint256": {
						"encoding": "inplace",
						"label": "uint256",
						"numberOfBytes": "32"
					}
				}
			},
			"userdoc": {
				"kind": "user",
				"methods": {},
				"version": 1
			}
		}
	}
}