{
	"contracts/basics/09-FunctionsExample.sol": {
		"FunctionsExample": {
			"abi": [
				{
					"inputs": [],
					"stateMutability": "nonpayable",
					"type": "constructor"
				},
				{
					"inputs": [
						{
							"internalType": "address",
							"name": "",
							"type": "address"
						}
					],
					"name": "balanceReceived",
					"outputs": [
						{
							"internalType": "uint256",
							"name": "",
							"type": "uint256"
						}
					],
					"stateMutability": "view",
					"type": "function"
				},
				{
					"inputs": [],
					"name": "destroySmartContract",
					"outputs": [],
					"stateMutability": "nonpayable",
					"type": "function"
				},
				{
					"inputs": [],
					"name": "fall",
					"outputs": [],
					"stateMutability": "payable",
					"type": "function"
				},
				{
					"inputs": [],
					"name": "receiveMoney",
					"outputs": [],
					"stateMutability": "payable",
					"type": "function"
				},
				{
					"inputs": [
						{
							"internalType": "address payable",
							"name": "_to",
							"type": "address"
						},
						{
							"internalType": "uint256",
							"name": "_amount",
							"type": "uint256"
						}
					],
					"name": "withdrawMoney",
					"outputs": [],
					"stateMutability": "nonpayable",
					"type": "function"
				}
			],
			"devdoc": {
				"kind": "dev",
				"methods": {},
				"version": 1
			},
			"evm": {
				"assembly": "    /* \"contracts/basics/09-FunctionsExample.sol\":55:975  contract FunctionsExample{\r... */\n  mstore(0x40, 0x80)\n    /* \"contracts/basics/09-FunctionsExample.sol\":170:229  constructor(){\r... */\n  callvalue\n  dup1\n  iszero\n  tag_1\n  jumpi\n  0x00\n  dup1\n  revert\ntag_1:\n  pop\n    /* \"contracts/basics/09-FunctionsExample.sol\":210:220  msg.sender */\n  caller\n    /* \"contracts/basics/09-FunctionsExample.sol\":194:199  owner */\n  0x01\n  0x00\n    /* \"contracts/basics/09-FunctionsExample.sol\":194:221  owner = payable(msg.sender) */\n  0x0100\n  exp\n  dup2\n  sload\n  dup2\n  0xffffffffffffffffffffffffffffffffffffffff\n  mul\n  not\n  and\n  swap1\n  dup4\n  0xffffffffffffffffffffffffffffffffffffffff\n  and\n  mul\n  or\n  swap1\n  sstore\n  pop\n    /* \"contracts/basics/09-FunctionsExample.sol\":55:975  contract FunctionsExample{\r... */\n  dataSize(sub_0)\n  dup1\n  dataOffset(sub_0)\n  0x00\n  codecopy\n  0x00\n  return\nstop\n\nsub_0: assembly {\n        /* \"contracts/basics/09-FunctionsExample.sol\":55:975  contract FunctionsExample{\r... */\n      mstore(0x40, 0x80)\n      jumpi(tag_1, lt(calldatasize, 0x04))\n      shr(0xe0, calldataload(0x00))\n      dup1\n      0x0cf2f2c1\n      eq\n      tag_2\n      jumpi\n      dup1\n      0x6d26ec18\n      eq\n      tag_3\n      jumpi\n      dup1\n      0x85474728\n      eq\n      tag_4\n      jumpi\n      dup1\n      0xd18a42e1\n      eq\n      tag_5\n      jumpi\n      dup1\n      0xf274c897\n      eq\n      tag_6\n      jumpi\n    tag_1:\n      0x00\n      dup1\n      revert\n        /* \"contracts/basics/09-FunctionsExample.sol\":907:972  function fall() external payable{\r... */\n    tag_2:\n      tag_7\n      tag_8\n      jump\t// in\n    tag_7:\n      stop\n        /* \"contracts/basics/09-FunctionsExample.sol\":382:574  function receiveMoney() public payable{\r... */\n    tag_3:\n      tag_9\n      tag_10\n      jump\t// in\n    tag_9:\n      stop\n        /* \"contracts/basics/09-FunctionsExample.sol\":237:374  function destroySmartContract() public{\r... */\n    tag_4:\n      callvalue\n      dup1\n      iszero\n      tag_11\n      jumpi\n      0x00\n      dup1\n      revert\n    tag_11:\n      pop\n      tag_12\n      tag_13\n      jump\t// in\n    tag_12:\n      stop\n        /* \"contracts/basics/09-FunctionsExample.sol\":87:133  mapping(address=> uint) public balanceReceived */\n    tag_5:\n      callvalue\n      dup1\n      iszero\n      tag_14\n      jumpi\n      0x00\n      dup1\n      revert\n    tag_14:\n      pop\n      tag_15\n      0x04\n      dup1\n      calldatasize\n      sub\n      dup2\n      add\n      swap1\n      tag_16\n      swap2\n      swap1\n      tag_17\n      jump\t// in\n    tag_16:\n      tag_18\n      jump\t// in\n    tag_15:\n      mload(0x40)\n      tag_19\n      swap2\n      swap1\n      tag_20\n      jump\t// in\n    tag_19:\n      mload(0x40)\n      dup1\n      swap2\n      sub\n      swap1\n      return\n        /* \"contracts/basics/09-FunctionsExample.sol\":582:899  function withdrawMoney(address payable _to, uint _amount) public{\r... */\n    tag_6:\n      callvalue\n      dup1\n      iszero\n      tag_21\n      jumpi\n      0x00\n      dup1\n      revert\n    tag_21:\n      pop\n      tag_22\n      0x04\n      dup1\n      calldatasize\n      sub\n      dup2\n      add\n      swap1\n      tag_23\n      swap2\n      swap1\n      tag_24\n      jump\t// in\n    tag_23:\n      tag_25\n      jump\t// in\n    tag_22:\n      stop\n        /* \"contracts/basics/09-FunctionsExample.sol\":907:972  function fall() external payable{\r... */\n    tag_8:\n        /* \"contracts/basics/09-FunctionsExample.sol\":950:964  receiveMoney() */\n      tag_27\n        /* \"contracts/basics/09-FunctionsExample.sol\":950:962  receiveMoney */\n      tag_10\n        /* \"contracts/basics/09-FunctionsExample.sol\":950:964  receiveMoney() */\n      jump\t// in\n    tag_27:\n        /* \"contracts/basics/09-FunctionsExample.sol\":907:972  function fall() external payable{\r... */\n      jump\t// out\n        /* \"contracts/basics/09-FunctionsExample.sol\":382:574  function receiveMoney() public payable{\r... */\n    tag_10:\n        /* \"contracts/basics/09-FunctionsExample.sol\":483:498  balanceReceived */\n      0x00\n        /* \"contracts/basics/09-FunctionsExample.sol\":483:510  balanceReceived[msg.sender] */\n      dup1\n        /* \"contracts/basics/09-FunctionsExample.sol\":499:509  msg.sender */\n      caller\n        /* \"contracts/basics/09-FunctionsExample.sol\":483:510  balanceReceived[msg.sender] */\n      0xffffffffffffffffffffffffffffffffffffffff\n      and\n      0xffffffffffffffffffffffffffffffffffffffff\n      and\n      dup2\n      mstore\n      0x20\n      add\n      swap1\n      dup2\n      mstore\n      0x20\n      add\n      0x00\n      keccak256\n      sload\n        /* \"contracts/basics/09-FunctionsExample.sol\":471:480  msg.value */\n      callvalue\n        /* \"contracts/basics/09-FunctionsExample.sol\":438:453  balanceReceived */\n      0x00\n        /* \"contracts/basics/09-FunctionsExample.sol\":438:465  balanceReceived[msg.sender] */\n      dup1\n        /* \"contracts/basics/09-FunctionsExample.sol\":454:464  msg.sender */\n      caller\n        /* \"contracts/basics/09-FunctionsExample.sol\":438:465  balanceReceived[msg.sender] */\n      0xffffffffffffffffffffffffffffffffffffffff\n      and\n      0xffffffffffffffffffffffffffffffffffffffff\n      and\n      dup2\n      mstore\n      0x20\n      add\n      swap1\n      dup2\n      mstore\n      0x20\n      add\n      0x00\n      keccak256\n      sload\n        /* \"contracts/basics/09-FunctionsExample.sol\":438:481  balanceReceived[msg.sender]+uint(msg.value) */\n      tag_29\n      swap2\n      swap1\n      tag_30\n      jump\t// in\n    tag_29:\n        /* \"contracts/basics/09-FunctionsExample.sol\":438:510  balanceReceived[msg.sender]+uint(msg.value)>=balanceReceived[msg.sender] */\n      lt\n      iszero\n        /* \"contracts/basics/09-FunctionsExample.sol\":431:511  assert(balanceReceived[msg.sender]+uint(msg.value)>=balanceReceived[msg.sender]) */\n      tag_31\n      jumpi\n      mstore(0x00, 0x4e487b7100000000000000000000000000000000000000000000000000000000)\n      mstore(0x04, 0x01)\n      revert(0x00, 0x24)\n    tag_31:\n        /* \"contracts/basics/09-FunctionsExample.sol\":556:565  msg.value */\n      callvalue\n        /* \"contracts/basics/09-FunctionsExample.sol\":522:537  balanceReceived */\n      0x00\n        /* \"contracts/basics/09-FunctionsExample.sol\":522:549  balanceReceived[msg.sender] */\n      dup1\n        /* \"contracts/basics/09-FunctionsExample.sol\":538:548  msg.sender */\n      caller\n        /* \"contracts/basics/09-FunctionsExample.sol\":522:549  balanceReceived[msg.sender] */\n      0xffffffffffffffffffffffffffffffffffffffff\n      and\n      0xffffffffffffffffffffffffffffffffffffffff\n      and\n      dup2\n      mstore\n      0x20\n      add\n      swap1\n      dup2\n      mstore\n      0x20\n      add\n      0x00\n      keccak256\n      0x00\n        /* \"contracts/basics/09-FunctionsExample.sol\":522:566  balanceReceived[msg.sender]+=uint(msg.value) */\n      dup3\n      dup3\n      sload\n      tag_32\n      swap2\n      swap1\n      tag_30\n      jump\t// in\n    tag_32:\n      swap3\n      pop\n      pop\n      dup2\n      swap1\n      sstore\n      pop\n        /* \"contracts/basics/09-FunctionsExample.sol\":382:574  function receiveMoney() public payable{\r... */\n      jump\t// out\n        /* \"contracts/basics/09-FunctionsExample.sol\":237:374  function destroySmartContract() public{\r... */\n    tag_13:\n        /* \"contracts/basics/09-FunctionsExample.sol\":306:311  owner */\n      0x01\n      0x00\n      swap1\n      sload\n      swap1\n      0x0100\n      exp\n      swap1\n      div\n      0xffffffffffffffffffffffffffffffffffffffff\n      and\n        /* \"contracts/basics/09-FunctionsExample.sol\":294:311  msg.sender==owner */\n      0xffffffffffffffffffffffffffffffffffffffff\n      and\n        /* \"contracts/basics/09-FunctionsExample.sol\":294:304  msg.sender */\n      caller\n        /* \"contracts/basics/09-FunctionsExample.sol\":294:311  msg.sender==owner */\n      0xffffffffffffffffffffffffffffffffffffffff\n      and\n      eq\n        /* \"contracts/basics/09-FunctionsExample.sol\":286:336  require(msg.sender==owner,'You are not the owner') */\n      tag_34\n      jumpi\n      mload(0x40)\n      0x08c379a000000000000000000000000000000000000000000000000000000000\n      dup2\n      mstore\n      0x04\n      add\n      tag_35\n      swap1\n      tag_36\n      jump\t// in\n    tag_35:\n      mload(0x40)\n      dup1\n      swap2\n      sub\n      swap1\n      revert\n    tag_34:\n        /* \"contracts/basics/09-FunctionsExample.sol\":360:365  owner */\n      0x01\n      0x00\n      swap1\n      sload\n      swap1\n      0x0100\n      exp\n      swap1\n      div\n      0xffffffffffffffffffffffffffffffffffffffff\n      and\n        /* \"contracts/basics/09-FunctionsExample.sol\":347:366  selfdestruct(owner) */\n      0xffffffffffffffffffffffffffffffffffffffff\n      and\n      selfdestruct\n        /* \"contracts/basics/09-FunctionsExample.sol\":87:133  mapping(address=> uint) public balanceReceived */\n    tag_18:\n      mstore(0x20, 0x00)\n      dup1\n      0x00\n      mstore\n      keccak256(0x00, 0x40)\n      0x00\n      swap2\n      pop\n      swap1\n      pop\n      sload\n      dup2\n      jump\t// out\n        /* \"contracts/basics/09-FunctionsExample.sol\":582:899  function withdrawMoney(address payable _to, uint _amount) public{\r... */\n    tag_25:\n        /* \"contracts/basics/09-FunctionsExample.sol\":673:688  balanceReceived */\n      0x00\n        /* \"contracts/basics/09-FunctionsExample.sol\":673:700  balanceReceived[msg.sender] */\n      dup1\n        /* \"contracts/basics/09-FunctionsExample.sol\":689:699  msg.sender */\n      caller\n        /* \"contracts/basics/09-FunctionsExample.sol\":673:700  balanceReceived[msg.sender] */\n      0xffffffffffffffffffffffffffffffffffffffff\n      and\n      0xffffffffffffffffffffffffffffffffffffffff\n      and\n      dup2\n      mstore\n      0x20\n      add\n      swap1\n      dup2\n      mstore\n      0x20\n      add\n      0x00\n      keccak256\n      sload\n        /* \"contracts/basics/09-FunctionsExample.sol\":664:671  _amount */\n      dup2\n        /* \"contracts/basics/09-FunctionsExample.sol\":664:700  _amount<=balanceReceived[msg.sender] */\n      gt\n      iszero\n        /* \"contracts/basics/09-FunctionsExample.sol\":656:730  require(_amount<=balanceReceived[msg.sender],'You dont have enough funds') */\n      tag_38\n      jumpi\n      mload(0x40)\n      0x08c379a000000000000000000000000000000000000000000000000000000000\n      dup2\n      mstore\n      0x04\n      add\n      tag_39\n      swap1\n      tag_40\n      jump\t// in\n    tag_39:\n      mload(0x40)\n      dup1\n      swap2\n      sub\n      swap1\n      revert\n    tag_38:\n        /* \"contracts/basics/09-FunctionsExample.sol\":804:811  _amount */\n      dup1\n        /* \"contracts/basics/09-FunctionsExample.sol\":776:791  balanceReceived */\n      0x00\n        /* \"contracts/basics/09-FunctionsExample.sol\":776:803  balanceReceived[msg.sender] */\n      dup1\n        /* \"contracts/basics/09-FunctionsExample.sol\":792:802  msg.sender */\n      caller\n        /* \"contracts/basics/09-FunctionsExample.sol\":776:803  balanceReceived[msg.sender] */\n      0xffffffffffffffffffffffffffffffffffffffff\n      and\n      0xffffffffffffffffffffffffffffffffffffffff\n      and\n      dup2\n      mstore\n      0x20\n      add\n      swap1\n      dup2\n      mstore\n      0x20\n      add\n      0x00\n      keccak256\n      sload\n        /* \"contracts/basics/09-FunctionsExample.sol\":776:811  balanceReceived[msg.sender]-_amount */\n      tag_41\n      swap2\n      swap1\n      tag_42\n      jump\t// in\n    tag_41:\n        /* \"contracts/basics/09-FunctionsExample.sol\":747:762  balanceReceived */\n      0x00\n        /* \"contracts/basics/09-FunctionsExample.sol\":747:774  balanceReceived[msg.sender] */\n      dup1\n        /* \"contracts/basics/09-FunctionsExample.sol\":763:773  msg.sender */\n      caller\n        /* \"contracts/basics/09-FunctionsExample.sol\":747:774  balanceReceived[msg.sender] */\n      0xffffffffffffffffffffffffffffffffffffffff\n      and\n      0xffffffffffffffffffffffffffffffffffffffff\n      and\n      dup2\n      mstore\n      0x20\n      add\n      swap1\n      dup2\n      mstore\n      0x20\n      add\n      0x00\n      keccak256\n      sload\n        /* \"contracts/basics/09-FunctionsExample.sol\":747:811  balanceReceived[msg.sender]>=balanceReceived[msg.sender]-_amount */\n      lt\n      iszero\n        /* \"contracts/basics/09-FunctionsExample.sol\":740:812  assert(balanceReceived[msg.sender]>=balanceReceived[msg.sender]-_amount) */\n      tag_43\n      jumpi\n      mstore(0x00, 0x4e487b7100000000000000000000000000000000000000000000000000000000)\n      mstore(0x04, 0x01)\n      revert(0x00, 0x24)\n    tag_43:\n        /* \"contracts/basics/09-FunctionsExample.sol\":853:860  _amount */\n      dup1\n        /* \"contracts/basics/09-FunctionsExample.sol\":822:837  balanceReceived */\n      0x00\n        /* \"contracts/basics/09-FunctionsExample.sol\":822:849  balanceReceived[msg.sender] */\n      dup1\n        /* \"contracts/basics/09-FunctionsExample.sol\":838:848  msg.sender */\n      caller\n        /* \"contracts/basics/09-FunctionsExample.sol\":822:849  balanceReceived[msg.sender] */\n      0xffffffffffffffffffffffffffffffffffffffff\n      and\n      0xffffffffffffffffffffffffffffffffffffffff\n      and\n      dup2\n      mstore\n      0x20\n      add\n      swap1\n      dup2\n      mstore\n      0x20\n      add\n      0x00\n      keccak256\n      0x00\n        /* \"contracts/basics/09-FunctionsExample.sol\":822:860  balanceReceived[msg.sender] -= _amount */\n      dup3\n      dup3\n      sload\n      tag_44\n      swap2\n      swap1\n      tag_42\n      jump\t// in\n    tag_44:\n      swap3\n      pop\n      pop\n      dup2\n      swap1\n      sstore\n      pop\n        /* \"contracts/basics/09-FunctionsExample.sol\":870:873  _to */\n      dup2\n        /* \"contracts/basics/09-FunctionsExample.sol\":870:882  _to.transfer */\n      0xffffffffffffffffffffffffffffffffffffffff\n      and\n        /* \"contracts/basics/09-FunctionsExample.sol\":870:891  _to.transfer(_amount) */\n      0x08fc\n        /* \"contracts/basics/09-FunctionsExample.sol\":883:890  _amount */\n      dup3\n        /* \"contracts/basics/09-FunctionsExample.sol\":870:891  _to.transfer(_amount) */\n      swap1\n      dup2\n      iszero\n      mul\n      swap1\n      mload(0x40)\n      0x00\n      mload(0x40)\n      dup1\n      dup4\n      sub\n      dup2\n      dup6\n      dup9\n      dup9\n      call\n      swap4\n      pop\n      pop\n      pop\n      pop\n      iszero\n      dup1\n      iszero\n      tag_46\n      jumpi\n      returndatasize\n      0x00\n      dup1\n      returndatacopy\n      revert(0x00, returndatasize)\n    tag_46:\n      pop\n        /* \"contracts/basics/09-FunctionsExample.sol\":582:899  function withdrawMoney(address payable _to, uint _amount) public{\r... */\n      pop\n      pop\n      jump\t// out\n        /* \"#utility.yul\":7:146   */\n    tag_48:\n        /* \"#utility.yul\":53:58   */\n      0x00\n        /* \"#utility.yul\":91:97   */\n      dup2\n        /* \"#utility.yul\":78:98   */\n      calldataload\n        /* \"#utility.yul\":69:98   */\n      swap1\n      pop\n        /* \"#utility.yul\":107:140   */\n      tag_50\n        /* \"#utility.yul\":134:139   */\n      dup2\n        /* \"#utility.yul\":107:140   */\n      tag_51\n      jump\t// in\n    tag_50:\n        /* \"#utility.yul\":59:146   */\n      swap3\n      swap2\n      pop\n      pop\n      jump\t// out\n        /* \"#utility.yul\":152:307   */\n    tag_52:\n        /* \"#utility.yul\":206:211   */\n      0x00\n        /* \"#utility.yul\":244:250   */\n      dup2\n        /* \"#utility.yul\":231:251   */\n      calldataload\n        /* \"#utility.yul\":222:251   */\n      swap1\n      pop\n        /* \"#utility.yul\":260:301   */\n      tag_54\n        /* \"#utility.yul\":295:300   */\n      dup2\n        /* \"#utility.yul\":260:301   */\n      tag_55\n      jump\t// in\n    tag_54:\n        /* \"#utility.yul\":212:307   */\n      swap3\n      swap2\n      pop\n      pop\n      jump\t// out\n        /* \"#utility.yul\":313:452   */\n    tag_56:\n        /* \"#utility.yul\":359:364   */\n      0x00\n        /* \"#utility.yul\":397:403   */\n      dup2\n        /* \"#utility.yul\":384:404   */\n      calldataload\n        /* \"#utility.yul\":375:404   */\n      swap1\n      pop\n        /* \"#utility.yul\":413:446   */\n      tag_58\n        /* \"#utility.yul\":440:445   */\n      dup2\n        /* \"#utility.yul\":413:446   */\n      tag_59\n      jump\t// in\n    tag_58:\n        /* \"#utility.yul\":365:452   */\n      swap3\n      swap2\n      pop\n      pop\n      jump\t// out\n        /* \"#utility.yul\":458:720   */\n    tag_17:\n        /* \"#utility.yul\":517:523   */\n      0x00\n        /* \"#utility.yul\":566:568   */\n      0x20\n        /* \"#utility.yul\":554:563   */\n      dup3\n        /* \"#utility.yul\":545:552   */\n      dup5\n        /* \"#utility.yul\":541:564   */\n      sub\n        /* \"#utility.yul\":537:569   */\n      slt\n        /* \"#utility.yul\":534:536   */\n      iszero\n      tag_61\n      jumpi\n        /* \"#utility.yul\":582:583   */\n      0x00\n        /* \"#utility.yul\":579:580   */\n      dup1\n        /* \"#utility.yul\":572:584   */\n      revert\n        /* \"#utility.yul\":534:536   */\n    tag_61:\n        /* \"#utility.yul\":625:626   */\n      0x00\n        /* \"#utility.yul\":650:703   */\n      tag_62\n        /* \"#utility.yul\":695:702   */\n      dup5\n        /* \"#utility.yul\":686:692   */\n      dup3\n        /* \"#utility.yul\":675:684   */\n      dup6\n        /* \"#utility.yul\":671:693   */\n      add\n        /* \"#utility.yul\":650:703   */\n      tag_48\n      jump\t// in\n    tag_62:\n        /* \"#utility.yul\":640:703   */\n      swap2\n      pop\n        /* \"#utility.yul\":596:713   */\n      pop\n        /* \"#utility.yul\":524:720   */\n      swap3\n      swap2\n      pop\n      pop\n      jump\t// out\n        /* \"#utility.yul\":726:1149   */\n    tag_24:\n        /* \"#utility.yul\":802:808   */\n      0x00\n        /* \"#utility.yul\":810:816   */\n      dup1\n        /* \"#utility.yul\":859:861   */\n      0x40\n        /* \"#utility.yul\":847:856   */\n      dup4\n        /* \"#utility.yul\":838:845   */\n      dup6\n        /* \"#utility.yul\":834:857   */\n      sub\n        /* \"#utility.yul\":830:862   */\n      slt\n        /* \"#utility.yul\":827:829   */\n      iszero\n      tag_64\n      jumpi\n        /* \"#utility.yul\":875:876   */\n      0x00\n        /* \"#utility.yul\":872:873   */\n      dup1\n        /* \"#utility.yul\":865:877   */\n      revert\n        /* \"#utility.yul\":827:829   */\n    tag_64:\n        /* \"#utility.yul\":918:919   */\n      0x00\n        /* \"#utility.yul\":943:1004   */\n      tag_65\n        /* \"#utility.yul\":996:1003   */\n      dup6\n        /* \"#utility.yul\":987:993   */\n      dup3\n        /* \"#utility.yul\":976:985   */\n      dup7\n        /* \"#utility.yul\":972:994   */\n      add\n        /* \"#utility.yul\":943:1004   */\n      tag_52\n      jump\t// in\n    tag_65:\n        /* \"#utility.yul\":933:1004   */\n      swap3\n      pop\n        /* \"#utility.yul\":889:1014   */\n      pop\n        /* \"#utility.yul\":1053:1055   */\n      0x20\n        /* \"#utility.yul\":1079:1132   */\n      tag_66\n        /* \"#utility.yul\":1124:1131   */\n      dup6\n        /* \"#utility.yul\":1115:1121   */\n      dup3\n        /* \"#utility.yul\":1104:1113   */\n      dup7\n        /* \"#utility.yul\":1100:1122   */\n      add\n        /* \"#utility.yul\":1079:1132   */\n      tag_56\n      jump\t// in\n    tag_66:\n        /* \"#utility.yul\":1069:1132   */\n      swap2\n      pop\n        /* \"#utility.yul\":1024:1142   */\n      pop\n        /* \"#utility.yul\":817:1149   */\n      swap3\n      pop\n      swap3\n      swap1\n      pop\n      jump\t// out\n        /* \"#utility.yul\":1155:1521   */\n    tag_67:\n        /* \"#utility.yul\":1297:1300   */\n      0x00\n        /* \"#utility.yul\":1318:1385   */\n      tag_69\n        /* \"#utility.yul\":1382:1384   */\n      0x1a\n        /* \"#utility.yul\":1377:1380   */\n      dup4\n        /* \"#utility.yul\":1318:1385   */\n      tag_70\n      jump\t// in\n    tag_69:\n        /* \"#utility.yul\":1311:1385   */\n      swap2\n      pop\n        /* \"#utility.yul\":1394:1487   */\n      tag_71\n        /* \"#utility.yul\":1483:1486   */\n      dup3\n        /* \"#utility.yul\":1394:1487   */\n      tag_72\n      jump\t// in\n    tag_71:\n        /* \"#utility.yul\":1512:1514   */\n      0x20\n        /* \"#utility.yul\":1507:1510   */\n      dup3\n        /* \"#utility.yul\":1503:1515   */\n      add\n        /* \"#utility.yul\":1496:1515   */\n      swap1\n      pop\n        /* \"#utility.yul\":1301:1521   */\n      swap2\n      swap1\n      pop\n      jump\t// out\n        /* \"#utility.yul\":1527:1893   */\n    tag_73:\n        /* \"#utility.yul\":1669:1672   */\n      0x00\n        /* \"#utility.yul\":1690:1757   */\n      tag_75\n        /* \"#utility.yul\":1754:1756   */\n      0x15\n        /* \"#utility.yul\":1749:1752   */\n      dup4\n        /* \"#utility.yul\":1690:1757   */\n      tag_70\n      jump\t// in\n    tag_75:\n        /* \"#utility.yul\":1683:1757   */\n      swap2\n      pop\n        /* \"#utility.yul\":1766:1859   */\n      tag_76\n        /* \"#utility.yul\":1855:1858   */\n      dup3\n        /* \"#utility.yul\":1766:1859   */\n      tag_77\n      jump\t// in\n    tag_76:\n        /* \"#utility.yul\":1884:1886   */\n      0x20\n        /* \"#utility.yul\":1879:1882   */\n      dup3\n        /* \"#utility.yul\":1875:1887   */\n      add\n        /* \"#utility.yul\":1868:1887   */\n      swap1\n      pop\n        /* \"#utility.yul\":1673:1893   */\n      swap2\n      swap1\n      pop\n      jump\t// out\n        /* \"#utility.yul\":1899:2017   */\n    tag_78:\n        /* \"#utility.yul\":1986:2010   */\n      tag_80\n        /* \"#utility.yul\":2004:2009   */\n      dup2\n        /* \"#utility.yul\":1986:2010   */\n      tag_81\n      jump\t// in\n    tag_80:\n        /* \"#utility.yul\":1981:1984   */\n      dup3\n        /* \"#utility.yul\":1974:2011   */\n      mstore\n        /* \"#utility.yul\":1964:2017   */\n      pop\n      pop\n      jump\t// out\n        /* \"#utility.yul\":2023:2442   */\n    tag_40:\n        /* \"#utility.yul\":2189:2193   */\n      0x00\n        /* \"#utility.yul\":2227:2229   */\n      0x20\n        /* \"#utility.yul\":2216:2225   */\n      dup3\n        /* \"#utility.yul\":2212:2230   */\n      add\n        /* \"#utility.yul\":2204:2230   */\n      swap1\n      pop\n        /* \"#utility.yul\":2276:2285   */\n      dup2\n        /* \"#utility.yul\":2270:2274   */\n      dup2\n        /* \"#utility.yul\":2266:2286   */\n      sub\n        /* \"#utility.yul\":2262:2263   */\n      0x00\n        /* \"#utility.yul\":2251:2260   */\n      dup4\n        /* \"#utility.yul\":2247:2264   */\n      add\n        /* \"#utility.yul\":2240:2287   */\n      mstore\n        /* \"#utility.yul\":2304:2435   */\n      tag_83\n        /* \"#utility.yul\":2430:2434   */\n      dup2\n        /* \"#utility.yul\":2304:2435   */\n      tag_67\n      jump\t// in\n    tag_83:\n        /* \"#utility.yul\":2296:2435   */\n      swap1\n      pop\n        /* \"#utility.yul\":2194:2442   */\n      swap2\n      swap1\n      pop\n      jump\t// out\n        /* \"#utility.yul\":2448:2867   */\n    tag_36:\n        /* \"#utility.yul\":2614:2618   */\n      0x00\n        /* \"#utility.yul\":2652:2654   */\n      0x20\n        /* \"#utility.yul\":2641:2650   */\n      dup3\n        /* \"#utility.yul\":2637:2655   */\n      add\n        /* \"#utility.yul\":2629:2655   */\n      swap1\n      pop\n        /* \"#utility.yul\":2701:2710   */\n      dup2\n        /* \"#utility.yul\":2695:2699   */\n      dup2\n        /* \"#utility.yul\":2691:2711   */\n      sub\n        /* \"#utility.yul\":2687:2688   */\n      0x00\n        /* \"#utility.yul\":2676:2685   */\n      dup4\n        /* \"#utility.yul\":2672:2689   */\n      add\n        /* \"#utility.yul\":2665:2712   */\n      mstore\n        /* \"#utility.yul\":2729:2860   */\n      tag_85\n        /* \"#utility.yul\":2855:2859   */\n      dup2\n        /* \"#utility.yul\":2729:2860   */\n      tag_73\n      jump\t// in\n    tag_85:\n        /* \"#utility.yul\":2721:2860   */\n      swap1\n      pop\n        /* \"#utility.yul\":2619:2867   */\n      swap2\n      swap1\n      pop\n      jump\t// out\n        /* \"#utility.yul\":2873:3095   */\n    tag_20:\n        /* \"#utility.yul\":2966:2970   */\n      0x00\n        /* \"#utility.yul\":3004:3006   */\n      0x20\n        /* \"#utility.yul\":2993:3002   */\n      dup3\n        /* \"#utility.yul\":2989:3007   */\n      add\n        /* \"#utility.yul\":2981:3007   */\n      swap1\n      pop\n        /* \"#utility.yul\":3017:3088   */\n      tag_87\n        /* \"#utility.yul\":3085:3086   */\n      0x00\n        /* \"#utility.yul\":3074:3083   */\n      dup4\n        /* \"#utility.yul\":3070:3087   */\n      add\n        /* \"#utility.yul\":3061:3067   */\n      dup5\n        /* \"#utility.yul\":3017:3088   */\n      tag_78\n      jump\t// in\n    tag_87:\n        /* \"#utility.yul\":2971:3095   */\n      swap3\n      swap2\n      pop\n      pop\n      jump\t// out\n        /* \"#utility.yul\":3101:3270   */\n    tag_70:\n        /* \"#utility.yul\":3185:3196   */\n      0x00\n        /* \"#utility.yul\":3219:3225   */\n      dup3\n        /* \"#utility.yul\":3214:3217   */\n      dup3\n        /* \"#utility.yul\":3207:3226   */\n      mstore\n        /* \"#utility.yul\":3259:3263   */\n      0x20\n        /* \"#utility.yul\":3254:3257   */\n      dup3\n        /* \"#utility.yul\":3250:3264   */\n      add\n        /* \"#utility.yul\":3235:3264   */\n      swap1\n      pop\n        /* \"#utility.yul\":3197:3270   */\n      swap3\n      swap2\n      pop\n      pop\n      jump\t// out\n        /* \"#utility.yul\":3276:3581   */\n    tag_30:\n        /* \"#utility.yul\":3316:3319   */\n      0x00\n        /* \"#utility.yul\":3335:3355   */\n      tag_90\n        /* \"#utility.yul\":3353:3354   */\n      dup3\n        /* \"#utility.yul\":3335:3355   */\n      tag_81\n      jump\t// in\n    tag_90:\n        /* \"#utility.yul\":3330:3355   */\n      swap2\n      pop\n        /* \"#utility.yul\":3369:3389   */\n      tag_91\n        /* \"#utility.yul\":3387:3388   */\n      dup4\n        /* \"#utility.yul\":3369:3389   */\n      tag_81\n      jump\t// in\n    tag_91:\n        /* \"#utility.yul\":3364:3389   */\n      swap3\n      pop\n        /* \"#utility.yul\":3523:3524   */\n      dup3\n        /* \"#utility.yul\":3455:3521   */\n      0xffffffffffffffffffffffffffffffffffffffffffffffffffffffffffffffff\n        /* \"#utility.yul\":3451:3525   */\n      sub\n        /* \"#utility.yul\":3448:3449   */\n      dup3\n        /* \"#utility.yul\":3445:3526   */\n      gt\n        /* \"#utility.yul\":3442:3444   */\n      iszero\n      tag_92\n      jumpi\n        /* \"#utility.yul\":3529:3547   */\n      tag_93\n      tag_94\n      jump\t// in\n    tag_93:\n        /* \"#utility.yul\":3442:3444   */\n    tag_92:\n        /* \"#utility.yul\":3573:3574   */\n      dup3\n        /* \"#utility.yul\":3570:3571   */\n      dup3\n        /* \"#utility.yul\":3566:3575   */\n      add\n        /* \"#utility.yul\":3559:3575   */\n      swap1\n      pop\n        /* \"#utility.yul\":3320:3581   */\n      swap3\n      swap2\n      pop\n      pop\n      jump\t// out\n        /* \"#utility.yul\":3587:3778   */\n    tag_42:\n        /* \"#utility.yul\":3627:3631   */\n      0x00\n        /* \"#utility.yul\":3647:3667   */\n      tag_96\n        /* \"#utility.yul\":3665:3666   */\n      dup3\n        /* \"#utility.yul\":3647:3667   */\n      tag_81\n      jump\t// in\n    tag_96:\n        /* \"#utility.yul\":3642:3667   */\n      swap2\n      pop\n        /* \"#utility.yul\":3681:3701   */\n      tag_97\n        /* \"#utility.yul\":3699:3700   */\n      dup4\n        /* \"#utility.yul\":3681:3701   */\n      tag_81\n      jump\t// in\n    tag_97:\n        /* \"#utility.yul\":3676:3701   */\n      swap3\n      pop\n        /* \"#utility.yul\":3720:3721   */\n      dup3\n        /* \"#utility.yul\":3717:3718   */\n      dup3\n        /* \"#utility.yul\":3714:3722   */\n      lt\n        /* \"#utility.yul\":3711:3713   */\n      iszero\n      tag_98\n      jumpi\n        /* \"#utility.yul\":3725:3743   */\n      tag_99\n      tag_94\n      jump\t// in\n    tag_99:\n        /* \"#utility.yul\":3711:3713   */\n    tag_98:\n        /* \"#utility.yul\":3770:3771   */\n      dup3\n        /* \"#utility.yul\":3767:3768   */\n      dup3\n        /* \"#utility.yul\":3763:3772   */\n      sub\n        /* \"#utility.yul\":3755:3772   */\n      swap1\n      pop\n        /* \"#utility.yul\":3632:3778   */\n      swap3\n      swap2\n      pop\n      pop\n      jump\t// out\n        /* \"#utility.yul\":3784:3880   */\n    tag_100:\n        /* \"#utility.yul\":3821:3828   */\n      0x00\n        /* \"#utility.yul\":3850:3874   */\n      tag_102\n        /* \"#utility.yul\":3868:3873   */\n      dup3\n        /* \"#utility.yul\":3850:3874   */\n      tag_103\n      jump\t// in\n    tag_102:\n        /* \"#utility.yul\":3839:3874   */\n      swap1\n      pop\n        /* \"#utility.yul\":3829:3880   */\n      swap2\n      swap1\n      pop\n      jump\t// out\n        /* \"#utility.yul\":3886:3990   */\n    tag_104:\n        /* \"#utility.yul\":3931:3938   */\n      0x00\n        /* \"#utility.yul\":3960:3984   */\n      tag_106\n        /* \"#utility.yul\":3978:3983   */\n      dup3\n        /* \"#utility.yul\":3960:3984   */\n      tag_103\n      jump\t// in\n    tag_106:\n        /* \"#utility.yul\":3949:3984   */\n      swap1\n      pop\n        /* \"#utility.yul\":3939:3990   */\n      swap2\n      swap1\n      pop\n      jump\t// out\n        /* \"#utility.yul\":3996:4122   */\n    tag_103:\n        /* \"#utility.yul\":4033:4040   */\n      0x00\n        /* \"#utility.yul\":4073:4115   */\n      0xffffffffffffffffffffffffffffffffffffffff\n        /* \"#utility.yul\":4066:4071   */\n      dup3\n        /* \"#utility.yul\":4062:4116   */\n      and\n        /* \"#utility.yul\":4051:4116   */\n      swap1\n      pop\n        /* \"#utility.yul\":4041:4122   */\n      swap2\n      swap1\n      pop\n      jump\t// out\n        /* \"#utility.yul\":4128:4205   */\n    tag_81:\n        /* \"#utility.yul\":4165:4172   */\n      0x00\n        /* \"#utility.yul\":4194:4199   */\n      dup2\n        /* \"#utility.yul\":4183:4199   */\n      swap1\n      pop\n        /* \"#utility.yul\":4173:4205   */\n      swap2\n      swap1\n      pop\n      jump\t// out\n        /* \"#utility.yul\":4211:4391   */\n    tag_94:\n        /* \"#utility.yul\":4259:4336   */\n      0x4e487b7100000000000000000000000000000000000000000000000000000000\n        /* \"#utility.yul\":4256:4257   */\n      0x00\n        /* \"#utility.yul\":4249:4337   */\n      mstore\n        /* \"#utility.yul\":4356:4360   */\n      0x11\n        /* \"#utility.yul\":4353:4354   */\n      0x04\n        /* \"#utility.yul\":4346:4361   */\n      mstore\n        /* \"#utility.yul\":4380:4384   */\n      0x24\n        /* \"#utility.yul\":4377:4378   */\n      0x00\n        /* \"#utility.yul\":4370:4385   */\n      revert\n        /* \"#utility.yul\":4397:4573   */\n    tag_72:\n        /* \"#utility.yul\":4537:4565   */\n      0x596f7520646f6e74206861766520656e6f7567682066756e6473000000000000\n        /* \"#utility.yul\":4533:4534   */\n      0x00\n        /* \"#utility.yul\":4525:4531   */\n      dup3\n        /* \"#utility.yul\":4521:4535   */\n      add\n        /* \"#utility.yul\":4514:4566   */\n      mstore\n        /* \"#utility.yul\":4503:4573   */\n      pop\n      jump\t// out\n        /* \"#utility.yul\":4579:4750   */\n    tag_77:\n        /* \"#utility.yul\":4719:4742   */\n      0x596f7520617265206e6f7420746865206f776e65720000000000000000000000\n        /* \"#utility.yul\":4715:4716   */\n      0x00\n        /* \"#utility.yul\":4707:4713   */\n      dup3\n        /* \"#utility.yul\":4703:4717   */\n      add\n        /* \"#utility.yul\":4696:4743   */\n      mstore\n        /* \"#utility.yul\":4685:4750   */\n      pop\n      jump\t// out\n        /* \"#utility.yul\":4756:4878   */\n    tag_51:\n        /* \"#utility.yul\":4829:4853   */\n      tag_113\n        /* \"#utility.yul\":4847:4852   */\n      dup2\n        /* \"#utility.yul\":4829:4853   */\n      tag_100\n      jump\t// in\n    tag_113:\n        /* \"#utility.yul\":4822:4827   */\n      dup2\n        /* \"#utility.yul\":4819:4854   */\n      eq\n        /* \"#utility.yul\":4809:4811   */\n      tag_114\n      jumpi\n        /* \"#utility.yul\":4868:4869   */\n      0x00\n        /* \"#utility.yul\":4865:4866   */\n      dup1\n        /* \"#utility.yul\":4858:4870   */\n      revert\n        /* \"#utility.yul\":4809:4811   */\n    tag_114:\n        /* \"#utility.yul\":4799:4878   */\n      pop\n      jump\t// out\n        /* \"#utility.yul\":4884:5022   */\n    tag_55:\n        /* \"#utility.yul\":4965:4997   */\n      tag_116\n        /* \"#utility.yul\":4991:4996   */\n      dup2\n        /* \"#utility.yul\":4965:4997   */\n      tag_104\n      jump\t// in\n    tag_116:\n        /* \"#utility.yul\":4958:4963   */\n      dup2\n        /* \"#utility.yul\":4955:4998   */\n      eq\n        /* \"#utility.yul\":4945:4947   */\n      tag_117\n      jumpi\n        /* \"#utility.yul\":5012:5013   */\n      0x00\n        /* \"#utility.yul\":5009:5010   */\n      dup1\n        /* \"#utility.yul\":5002:5014   */\n      revert\n        /* \"#utility.yul\":4945:4947   */\n    tag_117:\n        /* \"#utility.yul\":4935:5022   */\n      pop\n      jump\t// out\n        /* \"#utility.yul\":5028:5150   */\n    tag_59:\n        /* \"#utility.yul\":5101:5125   */\n      tag_119\n        /* \"#utility.yul\":5119:5124   */\n      dup2\n        /* \"#utility.yul\":5101:5125   */\n      tag_81\n      jump\t// in\n    tag_119:\n        /* \"#utility.yul\":5094:5099   */\n      dup2\n        /* \"#utility.yul\":5091:5126   */\n      eq\n        /* \"#utility.yul\":5081:5083   */\n      tag_120\n      jumpi\n        /* \"#utility.yul\":5140:5141   */\n      0x00\n        /* \"#utility.yul\":5137:5138   */\n      dup1\n        /* \"#utility.yul\":5130:5142   */\n      revert\n        /* \"#utility.yul\":5081:5083   */\n    tag_120:\n        /* \"#utility.yul\":5071:5150   */\n      pop\n      jump\t// out\n\n    auxdata: 0xa26469706673582212208938ceb64b50cda1b7c4efbd0aaa6f728e9a2291e8fcb84a60bd9e5e670be60764736f6c63430008040033\n}\n",
				"bytecode": {
					"linkReferences": {},
					"object": "608060405234801561001057600080fd5b5033600160006101000a81548173ffffffffffffffffffffffffffffffffffffffff021916908373ffffffffffffffffffffffffffffffffffffffff1602179055506107fa806100616000396000f3fe60806040526004361061004a5760003560e01c80630cf2f2c11461004f5780636d26ec18146100595780638547472814610063578063d18a42e11461007a578063f274c897146100b7575b600080fd5b6100576100e0565b005b6100616100ea565b005b34801561006f57600080fd5b506100786101ff565b005b34801561008657600080fd5b506100a1600480360381019061009c9190610500565b6102ca565b6040516100ae91906105fa565b60405180910390f35b3480156100c357600080fd5b506100de60048036038101906100d99190610529565b6102e2565b005b6100e86100ea565b565b6000803373ffffffffffffffffffffffffffffffffffffffff1673ffffffffffffffffffffffffffffffffffffffff16815260200190815260200160002054346000803373ffffffffffffffffffffffffffffffffffffffff1673ffffffffffffffffffffffffffffffffffffffff168152602001908152602001600020546101739190610626565b10156101a8577f4e487b7100000000000000000000000000000000000000000000000000000000600052600160045260246000fd5b346000803373ffffffffffffffffffffffffffffffffffffffff1673ffffffffffffffffffffffffffffffffffffffff16815260200190815260200160002060008282546101f69190610626565b92505081905550565b600160009054906101000a900473ffffffffffffffffffffffffffffffffffffffff1673ffffffffffffffffffffffffffffffffffffffff163373ffffffffffffffffffffffffffffffffffffffff161461028f576040517f08c379a0000000000000000000000000000000000000000000000000000000008152600401610286906105da565b60405180910390fd5b600160009054906101000a900473ffffffffffffffffffffffffffffffffffffffff1673ffffffffffffffffffffffffffffffffffffffff16ff5b60006020528060005260406000206000915090505481565b6000803373ffffffffffffffffffffffffffffffffffffffff1673ffffffffffffffffffffffffffffffffffffffff16815260200190815260200160002054811115610363576040517f08c379a000000000000000000000000000000000000000000000000000000000815260040161035a906105ba565b60405180910390fd5b806000803373ffffffffffffffffffffffffffffffffffffffff1673ffffffffffffffffffffffffffffffffffffffff168152602001908152602001600020546103ad919061067c565b6000803373ffffffffffffffffffffffffffffffffffffffff1673ffffffffffffffffffffffffffffffffffffffff168152602001908152602001600020541015610421577f4e487b7100000000000000000000000000000000000000000000000000000000600052600160045260246000fd5b806000803373ffffffffffffffffffffffffffffffffffffffff1673ffffffffffffffffffffffffffffffffffffffff168152602001908152602001600020600082825461046f919061067c565b925050819055508173ffffffffffffffffffffffffffffffffffffffff166108fc829081150290604051600060405180830381858888f193505050501580156104bc573d6000803e3d6000fd5b505050565b6000813590506104d08161077f565b92915050565b6000813590506104e581610796565b92915050565b6000813590506104fa816107ad565b92915050565b60006020828403121561051257600080fd5b6000610520848285016104c1565b91505092915050565b6000806040838503121561053c57600080fd5b600061054a858286016104d6565b925050602061055b858286016104eb565b9150509250929050565b6000610572601a83610615565b915061057d8261072d565b602082019050919050565b6000610595601583610615565b91506105a082610756565b602082019050919050565b6105b4816106f4565b82525050565b600060208201905081810360008301526105d381610565565b9050919050565b600060208201905081810360008301526105f381610588565b9050919050565b600060208201905061060f60008301846105ab565b92915050565b600082825260208201905092915050565b6000610631826106f4565b915061063c836106f4565b9250827fffffffffffffffffffffffffffffffffffffffffffffffffffffffffffffffff03821115610671576106706106fe565b5b828201905092915050565b6000610687826106f4565b9150610692836106f4565b9250828210156106a5576106a46106fe565b5b828203905092915050565b60006106bb826106d4565b9050919050565b60006106cd826106d4565b9050919050565b600073ffffffffffffffffffffffffffffffffffffffff82169050919050565b6000819050919050565b7f4e487b7100000000000000000000000000000000000000000000000000000000600052601160045260246000fd5b7f596f7520646f6e74206861766520656e6f7567682066756e6473000000000000600082015250565b7f596f7520617265206e6f7420746865206f776e65720000000000000000000000600082015250565b610788816106b0565b811461079357600080fd5b50565b61079f816106c2565b81146107aa57600080fd5b50565b6107b6816106f4565b81146107c157600080fd5b5056fea26469706673582212208938ceb64b50cda1b7c4efbd0aaa6f728e9a2291e8fcb84a60bd9e5e670be60764736f6c63430008040033",
					"opcodes": "PUSH1 0x80 PUSH1 0x40 MSTORE CALLVALUE DUP1 ISZERO PUSH2 0x10 JUMPI PUSH1 0x0 DUP1 REVERT JUMPDEST POP CALLER PUSH1 0x1 PUSH1 0x0 PUSH2 0x100 EXP DUP2 SLOAD DUP2 PUSH20 0xFFFFFFFFFFFFFFFFFFFFFFFFFFFFFFFFFFFFFFFF MUL NOT AND SWAP1 DUP4 PUSH20 0xFFFFFFFFFFFFFFFFFFFFFFFFFFFFFFFFFFFFFFFF AND MUL OR SWAP1 SSTORE POP PUSH2 0x7FA DUP1 PUSH2 0x61 PUSH1 0x0 CODECOPY PUSH1 0x0 RETURN INVALID PUSH1 0x80 PUSH1 0x40 MSTORE PUSH1 0x4 CALLDATASIZE LT PUSH2 0x4A JUMPI PUSH1 0x0 CALLDATALOAD PUSH1 0xE0 SHR DUP1 PUSH4 0xCF2F2C1 EQ PUSH2 0x4F JUMPI DUP1 PUSH4 0x6D26EC18 EQ PUSH2 0x59 JUMPI DUP1 PUSH4 0x85474728 EQ PUSH2 0x63 JUMPI DUP1 PUSH4 0xD18A42E1 EQ PUSH2 0x7A JUMPI DUP1 PUSH4 0xF274C897 EQ PUSH2 0xB7 JUMPI JUMPDEST PUSH1 0x0 DUP1 REVERT JUMPDEST PUSH2 0x57 PUSH2 0xE0 JUMP JUMPDEST STOP JUMPDEST PUSH2 0x61 PUSH2 0xEA JUMP JUMPDEST STOP JUMPDEST CALLVALUE DUP1 ISZERO PUSH2 0x6F JUMPI PUSH1 0x0 DUP1 REVERT JUMPDEST POP PUSH2 0x78 PUSH2 0x1FF JUMP JUMPDEST STOP JUMPDEST CALLVALUE DUP1 ISZERO PUSH2 0x86 JUMPI PUSH1 0x0 DUP1 REVERT JUMPDEST POP PUSH2 0xA1 PUSH1 0x4 DUP1 CALLDATASIZE SUB DUP2 ADD SWAP1 PUSH2 0x9C SWAP2 SWAP1 PUSH2 0x500 JUMP JUMPDEST PUSH2 0x2CA JUMP JUMPDEST PUSH1 0x40 MLOAD PUSH2 0xAE SWAP2 SWAP1 PUSH2 0x5FA JUMP JUMPDEST PUSH1 0x40 MLOAD DUP1 SWAP2 SUB SWAP1 RETURN JUMPDEST CALLVALUE DUP1 ISZERO PUSH2 0xC3 JUMPI PUSH1 0x0 DUP1 REVERT JUMPDEST POP PUSH2 0xDE PUSH1 0x4 DUP1 CALLDATASIZE SUB DUP2 ADD SWAP1 PUSH2 0xD9 SWAP2 SWAP1 PUSH2 0x529 JUMP JUMPDEST PUSH2 0x2E2 JUMP JUMPDEST STOP JUMPDEST PUSH2 0xE8 PUSH2 0xEA JUMP JUMPDEST JUMP JUMPDEST PUSH1 0x0 DUP1 CALLER PUSH20 0xFFFFFFFFFFFFFFFFFFFFFFFFFFFFFFFFFFFFFFFF AND PUSH20 0xFFFFFFFFFFFFFFFFFFFFFFFFFFFFFFFFFFFFFFFF AND DUP2 MSTORE PUSH1 0x20 ADD SWAP1 DUP2 MSTORE PUSH1 0x20 ADD PUSH1 0x0 KECCAK256 SLOAD CALLVALUE PUSH1 0x0 DUP1 CALLER PUSH20 0xFFFFFFFFFFFFFFFFFFFFFFFFFFFFFFFFFFFFFFFF AND PUSH20 0xFFFFFFFFFFFFFFFFFFFFFFFFFFFFFFFFFFFFFFFF AND DUP2 MSTORE PUSH1 0x20 ADD SWAP1 DUP2 MSTORE PUSH1 0x20 ADD PUSH1 0x0 KECCAK256 SLOAD PUSH2 0x173 SWAP2 SWAP1 PUSH2 0x626 JUMP JUMPDEST LT ISZERO PUSH2 0x1A8 JUMPI PUSH32 0x4E487B7100000000000000000000000000000000000000000000000000000000 PUSH1 0x0 MSTORE PUSH1 0x1 PUSH1 0x4 MSTORE PUSH1 0x24 PUSH1 0x0 REVERT JUMPDEST CALLVALUE PUSH1 0x0 DUP1 CALLER PUSH20 0xFFFFFFFFFFFFFFFFFFFFFFFFFFFFFFFFFFFFFFFF AND PUSH20 0xFFFFFFFFFFFFFFFFFFFFFFFFFFFFFFFFFFFFFFFF AND DUP2 MSTORE PUSH1 0x20 ADD SWAP1 DUP2 MSTORE PUSH1 0x20 ADD PUSH1 0x0 KECCAK256 PUSH1 0x0 DUP3 DUP3 SLOAD PUSH2 0x1F6 SWAP2 SWAP1 PUSH2 0x626 JUMP JUMPDEST SWAP3 POP POP DUP2 SWAP1 SSTORE POP JUMP JUMPDEST PUSH1 0x1 PUSH1 0x0 SWAP1 SLOAD SWAP1 PUSH2 0x100 EXP SWAP1 DIV PUSH20 0xFFFFFFFFFFFFFFFFFFFFFFFFFFFFFFFFFFFFFFFF AND PUSH20 0xFFFFFFFFFFFFFFFFFFFFFFFFFFFFFFFFFFFFFFFF AND CALLER PUSH20 0xFFFFFFFFFFFFFFFFFFFFFFFFFFFFFFFFFFFFFFFF AND EQ PUSH2 0x28F JUMPI PUSH1 0x40 MLOAD PUSH32 0x8C379A000000000000000000000000000000000000000000000000000000000 DUP2 MSTORE PUSH1 0x4 ADD PUSH2 0x286 SWAP1 PUSH2 0x5DA JUMP JUMPDEST PUSH1 0x40 MLOAD DUP1 SWAP2 SUB SWAP1 REVERT JUMPDEST PUSH1 0x1 PUSH1 0x0 SWAP1 SLOAD SWAP1 PUSH2 0x100 EXP SWAP1 DIV PUSH20 0xFFFFFFFFFFFFFFFFFFFFFFFFFFFFFFFFFFFFFFFF AND PUSH20 0xFFFFFFFFFFFFFFFFFFFFFFFFFFFFFFFFFFFFFFFF AND SELFDESTRUCT JUMPDEST PUSH1 0x0 PUSH1 0x20 MSTORE DUP1 PUSH1 0x0 MSTORE PUSH1 0x40 PUSH1 0x0 KECCAK256 PUSH1 0x0 SWAP2 POP SWAP1 POP SLOAD DUP2 JUMP JUMPDEST PUSH1 0x0 DUP1 CALLER PUSH20 0xFFFFFFFFFFFFFFFFFFFFFFFFFFFFFFFFFFFFFFFF AND PUSH20 0xFFFFFFFFFFFFFFFFFFFFFFFFFFFFFFFFFFFFFFFF AND DUP2 MSTORE PUSH1 0x20 ADD SWAP1 DUP2 MSTORE PUSH1 0x20 ADD PUSH1 0x0 KECCAK256 SLOAD DUP2 GT ISZERO PUSH2 0x363 JUMPI PUSH1 0x40 MLOAD PUSH32 0x8C379A000000000000000000000000000000000000000000000000000000000 DUP2 MSTORE PUSH1 0x4 ADD PUSH2 0x35A SWAP1 PUSH2 0x5BA JUMP JUMPDEST PUSH1 0x40 MLOAD DUP1 SWAP2 SUB SWAP1 REVERT JUMPDEST DUP1 PUSH1 0x0 DUP1 CALLER PUSH20 0xFFFFFFFFFFFFFFFFFFFFFFFFFFFFFFFFFFFFFFFF AND PUSH20 0xFFFFFFFFFFFFFFFFFFFFFFFFFFFFFFFFFFFFFFFF AND DUP2 MSTORE PUSH1 0x20 ADD SWAP1 DUP2 MSTORE PUSH1 0x20 ADD PUSH1 0x0 KECCAK256 SLOAD PUSH2 0x3AD SWAP2 SWAP1 PUSH2 0x67C JUMP JUMPDEST PUSH1 0x0 DUP1 CALLER PUSH20 0xFFFFFFFFFFFFFFFFFFFFFFFFFFFFFFFFFFFFFFFF AND PUSH20 0xFFFFFFFFFFFFFFFFFFFFFFFFFFFFFFFFFFFFFFFF AND DUP2 MSTORE PUSH1 0x20 ADD SWAP1 DUP2 MSTORE PUSH1 0x20 ADD PUSH1 0x0 KECCAK256 SLOAD LT ISZERO PUSH2 0x421 JUMPI PUSH32 0x4E487B7100000000000000000000000000000000000000000000000000000000 PUSH1 0x0 MSTORE PUSH1 0x1 PUSH1 0x4 MSTORE PUSH1 0x24 PUSH1 0x0 REVERT JUMPDEST DUP1 PUSH1 0x0 DUP1 CALLER PUSH20 0xFFFFFFFFFFFFFFFFFFFFFFFFFFFFFFFFFFFFFFFF AND PUSH20 0xFFFFFFFFFFFFFFFFFFFFFFFFFFFFFFFFFFFFFFFF AND DUP2 MSTORE PUSH1 0x20 ADD SWAP1 DUP2 MSTORE PUSH1 0x20 ADD PUSH1 0x0 KECCAK256 PUSH1 0x0 DUP3 DUP3 SLOAD PUSH2 0x46F SWAP2 SWAP1 PUSH2 0x67C JUMP JUMPDEST SWAP3 POP POP DUP2 SWAP1 SSTORE POP DUP2 PUSH20 0xFFFFFFFFFFFFFFFFFFFFFFFFFFFFFFFFFFFFFFFF AND PUSH2 0x8FC DUP3 SWAP1 DUP2 ISZERO MUL SWAP1 PUSH1 0x40 MLOAD PUSH1 0x0 PUSH1 0x40 MLOAD DUP1 DUP4 SUB DUP2 DUP6 DUP9 DUP9 CALL SWAP4 POP POP POP POP ISZERO DUP1 ISZERO PUSH2 0x4BC JUMPI RETURNDATASIZE PUSH1 0x0 DUP1 RETURNDATACOPY RETURNDATASIZE PUSH1 0x0 REVERT JUMPDEST POP POP POP JUMP JUMPDEST PUSH1 0x0 DUP2 CALLDATALOAD SWAP1 POP PUSH2 0x4D0 DUP2 PUSH2 0x77F JUMP JUMPDEST SWAP3 SWAP2 POP POP JUMP JUMPDEST PUSH1 0x0 DUP2 CALLDATALOAD SWAP1 POP PUSH2 0x4E5 DUP2 PUSH2 0x796 JUMP JUMPDEST SWAP3 SWAP2 POP POP JUMP JUMPDEST PUSH1 0x0 DUP2 CALLDATALOAD SWAP1 POP PUSH2 0x4FA DUP2 PUSH2 0x7AD JUMP JUMPDEST SWAP3 SWAP2 POP POP JUMP JUMPDEST PUSH1 0x0 PUSH1 0x20 DUP3 DUP5 SUB SLT ISZERO PUSH2 0x512 JUMPI PUSH1 0x0 DUP1 REVERT JUMPDEST PUSH1 0x0 PUSH2 0x520 DUP5 DUP3 DUP6 ADD PUSH2 0x4C1 JUMP JUMPDEST SWAP2 POP POP SWAP3 SWAP2 POP POP JUMP JUMPDEST PUSH1 0x0 DUP1 PUSH1 0x40 DUP4 DUP6 SUB SLT ISZERO PUSH2 0x53C JUMPI PUSH1 0x0 DUP1 REVERT JUMPDEST PUSH1 0x0 PUSH2 0x54A DUP6 DUP3 DUP7 ADD PUSH2 0x4D6 JUMP JUMPDEST SWAP3 POP POP PUSH1 0x20 PUSH2 0x55B DUP6 DUP3 DUP7 ADD PUSH2 0x4EB JUMP JUMPDEST SWAP2 POP POP SWAP3 POP SWAP3 SWAP1 POP JUMP JUMPDEST PUSH1 0x0 PUSH2 0x572 PUSH1 0x1A DUP4 PUSH2 0x615 JUMP JUMPDEST SWAP2 POP PUSH2 0x57D DUP3 PUSH2 0x72D JUMP JUMPDEST PUSH1 0x20 DUP3 ADD SWAP1 POP SWAP2 SWAP1 POP JUMP JUMPDEST PUSH1 0x0 PUSH2 0x595 PUSH1 0x15 DUP4 PUSH2 0x615 JUMP JUMPDEST SWAP2 POP PUSH2 0x5A0 DUP3 PUSH2 0x756 JUMP JUMPDEST PUSH1 0x20 DUP3 ADD SWAP1 POP SWAP2 SWAP1 POP JUMP JUMPDEST PUSH2 0x5B4 DUP2 PUSH2 0x6F4 JUMP JUMPDEST DUP3 MSTORE POP POP JUMP JUMPDEST PUSH1 0x0 PUSH1 0x20 DUP3 ADD SWAP1 POP DUP2 DUP2 SUB PUSH1 0x0 DUP4 ADD MSTORE PUSH2 0x5D3 DUP2 PUSH2 0x565 JUMP JUMPDEST SWAP1 POP SWAP2 SWAP1 POP JUMP JUMPDEST PUSH1 0x0 PUSH1 0x20 DUP3 ADD SWAP1 POP DUP2 DUP2 SUB PUSH1 0x0 DUP4 ADD MSTORE PUSH2 0x5F3 DUP2 PUSH2 0x588 JUMP JUMPDEST SWAP1 POP SWAP2 SWAP1 POP JUMP JUMPDEST PUSH1 0x0 PUSH1 0x20 DUP3 ADD SWAP1 POP PUSH2 0x60F PUSH1 0x0 DUP4 ADD DUP5 PUSH2 0x5AB JUMP JUMPDEST SWAP3 SWAP2 POP POP JUMP JUMPDEST PUSH1 0x0 DUP3 DUP3 MSTORE PUSH1 0x20 DUP3 ADD SWAP1 POP SWAP3 SWAP2 POP POP JUMP JUMPDEST PUSH1 0x0 PUSH2 0x631 DUP3 PUSH2 0x6F4 JUMP JUMPDEST SWAP2 POP PUSH2 0x63C DUP4 PUSH2 0x6F4 JUMP JUMPDEST SWAP3 POP DUP3 PUSH32 0xFFFFFFFFFFFFFFFFFFFFFFFFFFFFFFFFFFFFFFFFFFFFFFFFFFFFFFFFFFFFFFFF SUB DUP3 GT ISZERO PUSH2 0x671 JUMPI PUSH2 0x670 PUSH2 0x6FE JUMP JUMPDEST JUMPDEST DUP3 DUP3 ADD SWAP1 POP SWAP3 SWAP2 POP POP JUMP JUMPDEST PUSH1 0x0 PUSH2 0x687 DUP3 PUSH2 0x6F4 JUMP JUMPDEST SWAP2 POP PUSH2 0x692 DUP4 PUSH2 0x6F4 JUMP JUMPDEST SWAP3 POP DUP3 DUP3 LT ISZERO PUSH2 0x6A5 JUMPI PUSH2 0x6A4 PUSH2 0x6FE JUMP JUMPDEST JUMPDEST DUP3 DUP3 SUB SWAP1 POP SWAP3 SWAP2 POP POP JUMP JUMPDEST PUSH1 0x0 PUSH2 0x6BB DUP3 PUSH2 0x6D4 JUMP JUMPDEST SWAP1 POP SWAP2 SWAP1 POP JUMP JUMPDEST PUSH1 0x0 PUSH2 0x6CD DUP3 PUSH2 0x6D4 JUMP JUMPDEST SWAP1 POP SWAP2 SWAP1 POP JUMP JUMPDEST PUSH1 0x0 PUSH20 0xFFFFFFFFFFFFFFFFFFFFFFFFFFFFFFFFFFFFFFFF DUP3 AND SWAP1 POP SWAP2 SWAP1 POP JUMP JUMPDEST PUSH1 0x0 DUP2 SWAP1 POP SWAP2 SWAP1 POP JUMP JUMPDEST PUSH32 0x4E487B7100000000000000000000000000000000000000000000000000000000 PUSH1 0x0 MSTORE PUSH1 0x11 PUSH1 0x4 MSTORE PUSH1 0x24 PUSH1 0x0 REVERT JUMPDEST PUSH32 0x596F7520646F6E74206861766520656E6F7567682066756E6473000000000000 PUSH1 0x0 DUP3 ADD MSTORE POP JUMP JUMPDEST PUSH32 0x596F7520617265206E6F7420746865206F776E65720000000000000000000000 PUSH1 0x0 DUP3 ADD MSTORE POP JUMP JUMPDEST PUSH2 0x788 DUP2 PUSH2 0x6B0 JUMP JUMPDEST DUP2 EQ PUSH2 0x793 JUMPI PUSH1 0x0 DUP1 REVERT JUMPDEST POP JUMP JUMPDEST PUSH2 0x79F DUP2 PUSH2 0x6C2 JUMP JUMPDEST DUP2 EQ PUSH2 0x7AA JUMPI PUSH1 0x0 DUP1 REVERT JUMPDEST POP JUMP JUMPDEST PUSH2 0x7B6 DUP2 PUSH2 0x6F4 JUMP JUMPDEST DUP2 EQ PUSH2 0x7C1 JUMPI PUSH1 0x0 DUP1 REVERT JUMPDEST POP JUMP INVALID LOG2 PUSH5 0x6970667358 0x22 SLT KECCAK256 DUP10 CODESIZE 0xCE 0xB6 0x4B POP 0xCD LOG1 0xB7 0xC4 0xEF 0xBD EXP 0xAA PUSH16 0x728E9A2291E8FCB84A60BD9E5E670BE6 SMOD PUSH5 0x736F6C6343 STOP ADDMOD DIV STOP CALLER "
				},
				"gasEstimates": {
					"creation": {
						"codeDepositCost": "408400",
						"executionCost": "21309",
						"totalCost": "429709"
					},
					"external": {
						"balanceReceived(address)": "1558",
						"destroySmartContract()": "31872",
						"fall()": "infinite",
						"receiveMoney()": "infinite",
						"withdrawMoney(address,uint256)": "infinite"
					}
				},
				"methodIdentifiers": {
					"balanceReceived(address)": "d18a42e1",
					"destroySmartContract()": "85474728",
					"fall()": "0cf2f2c1",
					"receiveMoney()": "6d26ec18",
					"withdrawMoney(address,uint256)": "f274c897"
				}
			},
			"storageLayout": {
				"storage": [
					{
						"astId": 5,
						"contract": "contracts/basics/09-FunctionsExample.sol:FunctionsExample",
						"label": "balanceReceived",
						"offset": 0,
						"slot": "0",
						"type": "t_mapping(t_address,t_uint256)"
					},
					{
						"astId": 7,
						"contract": "contracts/basics/09-FunctionsExample.sol:FunctionsExample",
						"label": "owner",
						"offset": 0,
						"slot": "1",
						"type": "t_address_payable"
					}
				],
				"types": {
					"t_address": {
						"encoding": "inplace",
						"label": "address",
						"numberOfBytes": "20"
					},
					"t_address_payable": {
						"encoding": "inplace",
						"label": "address payable",
						"numberOfBytes": "20"
					},
					"t_mapping(t_address,t_uint256)": {
						"encoding": "mapping",
						"key": "t_address",
						"label": "mapping(address => uint256)",
						"numberOfBytes": "32",
						"value": "t_uint256"
					},
					"t_uint256": {
						"encoding": "inplace",
						"label": "uint256",
						"numberOfBytes": "32"
					}
				}
			},
			"userdoc": {
				"kind": "user",
				"methods": {},
				"version": 1
			}
		}
	}
}