{
	"contracts/basics/09-FunctionsExample.sol": {
		"FunctionsExample": {
			"abi": [
				{
					"inputs": [
						{
							"internalType": "address",
							"name": "",
							"type": "address"
						}
					],
					"name": "balanceReceived",
					"outputs": [
						{
							"internalType": "uint256",
							"name": "",
							"type": "uint256"
						}
					],
					"stateMutability": "view",
					"type": "function"
				},
				{
					"inputs": [],
					"name": "receiveMoney",
					"outputs": [],
					"stateMutability": "payable",
					"type": "function"
				},
				{
					"inputs": [
						{
							"internalType": "address payable",
							"name": "_to",
							"type": "address"
						},
						{
							"internalType": "uint64",
							"name": "_amount",
							"type": "uint64"
						}
					],
					"name": "withdrawMoney",
					"outputs": [],
					"stateMutability": "nonpayable",
					"type": "function"
				}
			],
			"devdoc": {
				"kind": "dev",
				"methods": {},
				"version": 1
			},
			"evm": {
				"assembly": "    /* \"contracts/basics/09-FunctionsExample.sol\":55:678  contract FunctionsExample{\r... */\n  mstore(0x40, 0x80)\n  callvalue\n  dup1\n  iszero\n  tag_1\n  jumpi\n  0x00\n  dup1\n  revert\ntag_1:\n  pop\n  dataSize(sub_0)\n  dup1\n  dataOffset(sub_0)\n  0x00\n  codecopy\n  0x00\n  return\nstop\n\nsub_0: assembly {\n        /* \"contracts/basics/09-FunctionsExample.sol\":55:678  contract FunctionsExample{\r... */\n      mstore(0x40, 0x80)\n      jumpi(tag_1, lt(calldatasize, 0x04))\n      shr(0xe0, calldataload(0x00))\n      dup1\n      0x0ad19aeb\n      eq\n      tag_2\n      jumpi\n      dup1\n      0x6d26ec18\n      eq\n      tag_3\n      jumpi\n      dup1\n      0xd18a42e1\n      eq\n      tag_4\n      jumpi\n    tag_1:\n      0x00\n      dup1\n      revert\n        /* \"contracts/basics/09-FunctionsExample.sol\":346:675  function withdrawMoney(address payable _to, uint64 _amount) public{\r... */\n    tag_2:\n      callvalue\n      dup1\n      iszero\n      tag_5\n      jumpi\n      0x00\n      dup1\n      revert\n    tag_5:\n      pop\n      tag_6\n      0x04\n      dup1\n      calldatasize\n      sub\n      dup2\n      add\n      swap1\n      tag_7\n      swap2\n      swap1\n      tag_8\n      jump\t// in\n    tag_7:\n      tag_9\n      jump\t// in\n    tag_6:\n      stop\n        /* \"contracts/basics/09-FunctionsExample.sol\":142:338  function receiveMoney() public payable{\r... */\n    tag_3:\n      tag_10\n      tag_11\n      jump\t// in\n    tag_10:\n      stop\n        /* \"contracts/basics/09-FunctionsExample.sol\":87:133  mapping(address=> uint) public balanceReceived */\n    tag_4:\n      callvalue\n      dup1\n      iszero\n      tag_12\n      jumpi\n      0x00\n      dup1\n      revert\n    tag_12:\n      pop\n      tag_13\n      0x04\n      dup1\n      calldatasize\n      sub\n      dup2\n      add\n      swap1\n      tag_14\n      swap2\n      swap1\n      tag_15\n      jump\t// in\n    tag_14:\n      tag_16\n      jump\t// in\n    tag_13:\n      mload(0x40)\n      tag_17\n      swap2\n      swap1\n      tag_18\n      jump\t// in\n    tag_17:\n      mload(0x40)\n      dup1\n      swap2\n      sub\n      swap1\n      return\n        /* \"contracts/basics/09-FunctionsExample.sol\":346:675  function withdrawMoney(address payable _to, uint64 _amount) public{\r... */\n    tag_9:\n        /* \"contracts/basics/09-FunctionsExample.sol\":439:454  balanceReceived */\n      0x00\n        /* \"contracts/basics/09-FunctionsExample.sol\":439:466  balanceReceived[msg.sender] */\n      dup1\n        /* \"contracts/basics/09-FunctionsExample.sol\":455:465  msg.sender */\n      caller\n        /* \"contracts/basics/09-FunctionsExample.sol\":439:466  balanceReceived[msg.sender] */\n      0xffffffffffffffffffffffffffffffffffffffff\n      and\n      0xffffffffffffffffffffffffffffffffffffffff\n      and\n      dup2\n      mstore\n      0x20\n      add\n      swap1\n      dup2\n      mstore\n      0x20\n      add\n      0x00\n      keccak256\n      sload\n        /* \"contracts/basics/09-FunctionsExample.sol\":430:437  _amount */\n      dup2\n        /* \"contracts/basics/09-FunctionsExample.sol\":430:466  _amount<=balanceReceived[msg.sender] */\n      0xffffffffffffffff\n      and\n      gt\n      iszero\n        /* \"contracts/basics/09-FunctionsExample.sol\":422:496  require(_amount<=balanceReceived[msg.sender],'You dont have enough funds') */\n      tag_20\n      jumpi\n      mload(0x40)\n      0x08c379a000000000000000000000000000000000000000000000000000000000\n      dup2\n      mstore\n      0x04\n      add\n      tag_21\n      swap1\n      tag_22\n      jump\t// in\n    tag_21:\n      mload(0x40)\n      dup1\n      swap2\n      sub\n      swap1\n      revert\n    tag_20:\n        /* \"contracts/basics/09-FunctionsExample.sol\":570:577  _amount */\n      dup1\n        /* \"contracts/basics/09-FunctionsExample.sol\":542:577  balanceReceived[msg.sender]-_amount */\n      0xffffffffffffffff\n      and\n        /* \"contracts/basics/09-FunctionsExample.sol\":542:557  balanceReceived */\n      0x00\n        /* \"contracts/basics/09-FunctionsExample.sol\":542:569  balanceReceived[msg.sender] */\n      dup1\n        /* \"contracts/basics/09-FunctionsExample.sol\":558:568  msg.sender */\n      caller\n        /* \"contracts/basics/09-FunctionsExample.sol\":542:569  balanceReceived[msg.sender] */\n      0xffffffffffffffffffffffffffffffffffffffff\n      and\n      0xffffffffffffffffffffffffffffffffffffffff\n      and\n      dup2\n      mstore\n      0x20\n      add\n      swap1\n      dup2\n      mstore\n      0x20\n      add\n      0x00\n      keccak256\n      sload\n        /* \"contracts/basics/09-FunctionsExample.sol\":542:577  balanceReceived[msg.sender]-_amount */\n      tag_23\n      swap2\n      swap1\n      tag_24\n      jump\t// in\n    tag_23:\n        /* \"contracts/basics/09-FunctionsExample.sol\":513:528  balanceReceived */\n      0x00\n        /* \"contracts/basics/09-FunctionsExample.sol\":513:540  balanceReceived[msg.sender] */\n      dup1\n        /* \"contracts/basics/09-FunctionsExample.sol\":529:539  msg.sender */\n      caller\n        /* \"contracts/basics/09-FunctionsExample.sol\":513:540  balanceReceived[msg.sender] */\n      0xffffffffffffffffffffffffffffffffffffffff\n      and\n      0xffffffffffffffffffffffffffffffffffffffff\n      and\n      dup2\n      mstore\n      0x20\n      add\n      swap1\n      dup2\n      mstore\n      0x20\n      add\n      0x00\n      keccak256\n      sload\n        /* \"contracts/basics/09-FunctionsExample.sol\":513:577  balanceReceived[msg.sender]>=balanceReceived[msg.sender]-_amount */\n      lt\n      iszero\n        /* \"contracts/basics/09-FunctionsExample.sol\":506:578  assert(balanceReceived[msg.sender]>=balanceReceived[msg.sender]-_amount) */\n      tag_25\n      jumpi\n      mstore(0x00, 0x4e487b7100000000000000000000000000000000000000000000000000000000)\n      mstore(0x04, 0x01)\n      revert(0x00, 0x24)\n    tag_25:\n        /* \"contracts/basics/09-FunctionsExample.sol\":619:626  _amount */\n      dup1\n        /* \"contracts/basics/09-FunctionsExample.sol\":588:626  balanceReceived[msg.sender] -= _amount */\n      0xffffffffffffffff\n      and\n        /* \"contracts/basics/09-FunctionsExample.sol\":588:603  balanceReceived */\n      0x00\n        /* \"contracts/basics/09-FunctionsExample.sol\":588:615  balanceReceived[msg.sender] */\n      dup1\n        /* \"contracts/basics/09-FunctionsExample.sol\":604:614  msg.sender */\n      caller\n        /* \"contracts/basics/09-FunctionsExample.sol\":588:615  balanceReceived[msg.sender] */\n      0xffffffffffffffffffffffffffffffffffffffff\n      and\n      0xffffffffffffffffffffffffffffffffffffffff\n      and\n      dup2\n      mstore\n      0x20\n      add\n      swap1\n      dup2\n      mstore\n      0x20\n      add\n      0x00\n      keccak256\n      0x00\n        /* \"contracts/basics/09-FunctionsExample.sol\":588:626  balanceReceived[msg.sender] -= _amount */\n      dup3\n      dup3\n      sload\n      tag_26\n      swap2\n      swap1\n      tag_24\n      jump\t// in\n    tag_26:\n      swap3\n      pop\n      pop\n      dup2\n      swap1\n      sstore\n      pop\n        /* \"contracts/basics/09-FunctionsExample.sol\":636:639  _to */\n      dup2\n        /* \"contracts/basics/09-FunctionsExample.sol\":636:648  _to.transfer */\n      0xffffffffffffffffffffffffffffffffffffffff\n      and\n        /* \"contracts/basics/09-FunctionsExample.sol\":636:657  _to.transfer(_amount) */\n      0x08fc\n        /* \"contracts/basics/09-FunctionsExample.sol\":649:656  _amount */\n      dup3\n        /* \"contracts/basics/09-FunctionsExample.sol\":636:657  _to.transfer(_amount) */\n      0xffffffffffffffff\n      and\n      swap1\n      dup2\n      iszero\n      mul\n      swap1\n      mload(0x40)\n      0x00\n      mload(0x40)\n      dup1\n      dup4\n      sub\n      dup2\n      dup6\n      dup9\n      dup9\n      call\n      swap4\n      pop\n      pop\n      pop\n      pop\n      iszero\n      dup1\n      iszero\n      tag_28\n      jumpi\n      returndatasize\n      0x00\n      dup1\n      returndatacopy\n      revert(0x00, returndatasize)\n    tag_28:\n      pop\n        /* \"contracts/basics/09-FunctionsExample.sol\":346:675  function withdrawMoney(address payable _to, uint64 _amount) public{\r... */\n      pop\n      pop\n      jump\t// out\n        /* \"contracts/basics/09-FunctionsExample.sol\":142:338  function receiveMoney() public payable{\r... */\n    tag_11:\n        /* \"contracts/basics/09-FunctionsExample.sol\":245:260  balanceReceived */\n      0x00\n        /* \"contracts/basics/09-FunctionsExample.sol\":245:272  balanceReceived[msg.sender] */\n      dup1\n        /* \"contracts/basics/09-FunctionsExample.sol\":261:271  msg.sender */\n      caller\n        /* \"contracts/basics/09-FunctionsExample.sol\":245:272  balanceReceived[msg.sender] */\n      0xffffffffffffffffffffffffffffffffffffffff\n      and\n      0xffffffffffffffffffffffffffffffffffffffff\n      and\n      dup2\n      mstore\n      0x20\n      add\n      swap1\n      dup2\n      mstore\n      0x20\n      add\n      0x00\n      keccak256\n      sload\n        /* \"contracts/basics/09-FunctionsExample.sol\":233:242  msg.value */\n      callvalue\n        /* \"contracts/basics/09-FunctionsExample.sol\":198:243  balanceReceived[msg.sender]+uint64(msg.value) */\n      0xffffffffffffffff\n      and\n        /* \"contracts/basics/09-FunctionsExample.sol\":198:213  balanceReceived */\n      0x00\n        /* \"contracts/basics/09-FunctionsExample.sol\":198:225  balanceReceived[msg.sender] */\n      dup1\n        /* \"contracts/basics/09-FunctionsExample.sol\":214:224  msg.sender */\n      caller\n        /* \"contracts/basics/09-FunctionsExample.sol\":198:225  balanceReceived[msg.sender] */\n      0xffffffffffffffffffffffffffffffffffffffff\n      and\n      0xffffffffffffffffffffffffffffffffffffffff\n      and\n      dup2\n      mstore\n      0x20\n      add\n      swap1\n      dup2\n      mstore\n      0x20\n      add\n      0x00\n      keccak256\n      sload\n        /* \"contracts/basics/09-FunctionsExample.sol\":198:243  balanceReceived[msg.sender]+uint64(msg.value) */\n      tag_30\n      swap2\n      swap1\n      tag_31\n      jump\t// in\n    tag_30:\n        /* \"contracts/basics/09-FunctionsExample.sol\":198:272  balanceReceived[msg.sender]+uint64(msg.value)>=balanceReceived[msg.sender] */\n      lt\n      iszero\n        /* \"contracts/basics/09-FunctionsExample.sol\":191:273  assert(balanceReceived[msg.sender]+uint64(msg.value)>=balanceReceived[msg.sender]) */\n      tag_32\n      jumpi\n      mstore(0x00, 0x4e487b7100000000000000000000000000000000000000000000000000000000)\n      mstore(0x04, 0x01)\n      revert(0x00, 0x24)\n    tag_32:\n        /* \"contracts/basics/09-FunctionsExample.sol\":320:329  msg.value */\n      callvalue\n        /* \"contracts/basics/09-FunctionsExample.sol\":284:330  balanceReceived[msg.sender]+=uint64(msg.value) */\n      0xffffffffffffffff\n      and\n        /* \"contracts/basics/09-FunctionsExample.sol\":284:299  balanceReceived */\n      0x00\n        /* \"contracts/basics/09-FunctionsExample.sol\":284:311  balanceReceived[msg.sender] */\n      dup1\n        /* \"contracts/basics/09-FunctionsExample.sol\":300:310  msg.sender */\n      caller\n        /* \"contracts/basics/09-FunctionsExample.sol\":284:311  balanceReceived[msg.sender] */\n      0xffffffffffffffffffffffffffffffffffffffff\n      and\n      0xffffffffffffffffffffffffffffffffffffffff\n      and\n      dup2\n      mstore\n      0x20\n      add\n      swap1\n      dup2\n      mstore\n      0x20\n      add\n      0x00\n      keccak256\n      0x00\n        /* \"contracts/basics/09-FunctionsExample.sol\":284:330  balanceReceived[msg.sender]+=uint64(msg.value) */\n      dup3\n      dup3\n      sload\n      tag_33\n      swap2\n      swap1\n      tag_31\n      jump\t// in\n    tag_33:\n      swap3\n      pop\n      pop\n      dup2\n      swap1\n      sstore\n      pop\n        /* \"contracts/basics/09-FunctionsExample.sol\":142:338  function receiveMoney() public payable{\r... */\n      jump\t// out\n        /* \"contracts/basics/09-FunctionsExample.sol\":87:133  mapping(address=> uint) public balanceReceived */\n    tag_16:\n      mstore(0x20, 0x00)\n      dup1\n      0x00\n      mstore\n      keccak256(0x00, 0x40)\n      0x00\n      swap2\n      pop\n      swap1\n      pop\n      sload\n      dup2\n      jump\t// out\n        /* \"#utility.yul\":7:146   */\n    tag_35:\n        /* \"#utility.yul\":53:58   */\n      0x00\n        /* \"#utility.yul\":91:97   */\n      dup2\n        /* \"#utility.yul\":78:98   */\n      calldataload\n        /* \"#utility.yul\":69:98   */\n      swap1\n      pop\n        /* \"#utility.yul\":107:140   */\n      tag_37\n        /* \"#utility.yul\":134:139   */\n      dup2\n        /* \"#utility.yul\":107:140   */\n      tag_38\n      jump\t// in\n    tag_37:\n        /* \"#utility.yul\":59:146   */\n      swap3\n      swap2\n      pop\n      pop\n      jump\t// out\n        /* \"#utility.yul\":152:307   */\n    tag_39:\n        /* \"#utility.yul\":206:211   */\n      0x00\n        /* \"#utility.yul\":244:250   */\n      dup2\n        /* \"#utility.yul\":231:251   */\n      calldataload\n        /* \"#utility.yul\":222:251   */\n      swap1\n      pop\n        /* \"#utility.yul\":260:301   */\n      tag_41\n        /* \"#utility.yul\":295:300   */\n      dup2\n        /* \"#utility.yul\":260:301   */\n      tag_42\n      jump\t// in\n    tag_41:\n        /* \"#utility.yul\":212:307   */\n      swap3\n      swap2\n      pop\n      pop\n      jump\t// out\n        /* \"#utility.yul\":313:450   */\n    tag_43:\n        /* \"#utility.yul\":358:363   */\n      0x00\n        /* \"#utility.yul\":396:402   */\n      dup2\n        /* \"#utility.yul\":383:403   */\n      calldataload\n        /* \"#utility.yul\":374:403   */\n      swap1\n      pop\n        /* \"#utility.yul\":412:444   */\n      tag_45\n        /* \"#utility.yul\":438:443   */\n      dup2\n        /* \"#utility.yul\":412:444   */\n      tag_46\n      jump\t// in\n    tag_45:\n        /* \"#utility.yul\":364:450   */\n      swap3\n      swap2\n      pop\n      pop\n      jump\t// out\n        /* \"#utility.yul\":456:718   */\n    tag_15:\n        /* \"#utility.yul\":515:521   */\n      0x00\n        /* \"#utility.yul\":564:566   */\n      0x20\n        /* \"#utility.yul\":552:561   */\n      dup3\n        /* \"#utility.yul\":543:550   */\n      dup5\n        /* \"#utility.yul\":539:562   */\n      sub\n        /* \"#utility.yul\":535:567   */\n      slt\n        /* \"#utility.yul\":532:534   */\n      iszero\n      tag_48\n      jumpi\n        /* \"#utility.yul\":580:581   */\n      0x00\n        /* \"#utility.yul\":577:578   */\n      dup1\n        /* \"#utility.yul\":570:582   */\n      revert\n        /* \"#utility.yul\":532:534   */\n    tag_48:\n        /* \"#utility.yul\":623:624   */\n      0x00\n        /* \"#utility.yul\":648:701   */\n      tag_49\n        /* \"#utility.yul\":693:700   */\n      dup5\n        /* \"#utility.yul\":684:690   */\n      dup3\n        /* \"#utility.yul\":673:682   */\n      dup6\n        /* \"#utility.yul\":669:691   */\n      add\n        /* \"#utility.yul\":648:701   */\n      tag_35\n      jump\t// in\n    tag_49:\n        /* \"#utility.yul\":638:701   */\n      swap2\n      pop\n        /* \"#utility.yul\":594:711   */\n      pop\n        /* \"#utility.yul\":522:718   */\n      swap3\n      swap2\n      pop\n      pop\n      jump\t// out\n        /* \"#utility.yul\":724:1145   */\n    tag_8:\n        /* \"#utility.yul\":799:805   */\n      0x00\n        /* \"#utility.yul\":807:813   */\n      dup1\n        /* \"#utility.yul\":856:858   */\n      0x40\n        /* \"#utility.yul\":844:853   */\n      dup4\n        /* \"#utility.yul\":835:842   */\n      dup6\n        /* \"#utility.yul\":831:854   */\n      sub\n        /* \"#utility.yul\":827:859   */\n      slt\n        /* \"#utility.yul\":824:826   */\n      iszero\n      tag_51\n      jumpi\n        /* \"#utility.yul\":872:873   */\n      0x00\n        /* \"#utility.yul\":869:870   */\n      dup1\n        /* \"#utility.yul\":862:874   */\n      revert\n        /* \"#utility.yul\":824:826   */\n    tag_51:\n        /* \"#utility.yul\":915:916   */\n      0x00\n        /* \"#utility.yul\":940:1001   */\n      tag_52\n        /* \"#utility.yul\":993:1000   */\n      dup6\n        /* \"#utility.yul\":984:990   */\n      dup3\n        /* \"#utility.yul\":973:982   */\n      dup7\n        /* \"#utility.yul\":969:991   */\n      add\n        /* \"#utility.yul\":940:1001   */\n      tag_39\n      jump\t// in\n    tag_52:\n        /* \"#utility.yul\":930:1001   */\n      swap3\n      pop\n        /* \"#utility.yul\":886:1011   */\n      pop\n        /* \"#utility.yul\":1050:1052   */\n      0x20\n        /* \"#utility.yul\":1076:1128   */\n      tag_53\n        /* \"#utility.yul\":1120:1127   */\n      dup6\n        /* \"#utility.yul\":1111:1117   */\n      dup3\n        /* \"#utility.yul\":1100:1109   */\n      dup7\n        /* \"#utility.yul\":1096:1118   */\n      add\n        /* \"#utility.yul\":1076:1128   */\n      tag_43\n      jump\t// in\n    tag_53:\n        /* \"#utility.yul\":1066:1128   */\n      swap2\n      pop\n        /* \"#utility.yul\":1021:1138   */\n      pop\n        /* \"#utility.yul\":814:1145   */\n      swap3\n      pop\n      swap3\n      swap1\n      pop\n      jump\t// out\n        /* \"#utility.yul\":1151:1517   */\n    tag_54:\n        /* \"#utility.yul\":1293:1296   */\n      0x00\n        /* \"#utility.yul\":1314:1381   */\n      tag_56\n        /* \"#utility.yul\":1378:1380   */\n      0x1a\n        /* \"#utility.yul\":1373:1376   */\n      dup4\n        /* \"#utility.yul\":1314:1381   */\n      tag_57\n      jump\t// in\n    tag_56:\n        /* \"#utility.yul\":1307:1381   */\n      swap2\n      pop\n        /* \"#utility.yul\":1390:1483   */\n      tag_58\n        /* \"#utility.yul\":1479:1482   */\n      dup3\n        /* \"#utility.yul\":1390:1483   */\n      tag_59\n      jump\t// in\n    tag_58:\n        /* \"#utility.yul\":1508:1510   */\n      0x20\n        /* \"#utility.yul\":1503:1506   */\n      dup3\n        /* \"#utility.yul\":1499:1511   */\n      add\n        /* \"#utility.yul\":1492:1511   */\n      swap1\n      pop\n        /* \"#utility.yul\":1297:1517   */\n      swap2\n      swap1\n      pop\n      jump\t// out\n        /* \"#utility.yul\":1523:1641   */\n    tag_60:\n        /* \"#utility.yul\":1610:1634   */\n      tag_62\n        /* \"#utility.yul\":1628:1633   */\n      dup2\n        /* \"#utility.yul\":1610:1634   */\n      tag_63\n      jump\t// in\n    tag_62:\n        /* \"#utility.yul\":1605:1608   */\n      dup3\n        /* \"#utility.yul\":1598:1635   */\n      mstore\n        /* \"#utility.yul\":1588:1641   */\n      pop\n      pop\n      jump\t// out\n        /* \"#utility.yul\":1647:2066   */\n    tag_22:\n        /* \"#utility.yul\":1813:1817   */\n      0x00\n        /* \"#utility.yul\":1851:1853   */\n      0x20\n        /* \"#utility.yul\":1840:1849   */\n      dup3\n        /* \"#utility.yul\":1836:1854   */\n      add\n        /* \"#utility.yul\":1828:1854   */\n      swap1\n      pop\n        /* \"#utility.yul\":1900:1909   */\n      dup2\n        /* \"#utility.yul\":1894:1898   */\n      dup2\n        /* \"#utility.yul\":1890:1910   */\n      sub\n        /* \"#utility.yul\":1886:1887   */\n      0x00\n        /* \"#utility.yul\":1875:1884   */\n      dup4\n        /* \"#utility.yul\":1871:1888   */\n      add\n        /* \"#utility.yul\":1864:1911   */\n      mstore\n        /* \"#utility.yul\":1928:2059   */\n      tag_65\n        /* \"#utility.yul\":2054:2058   */\n      dup2\n        /* \"#utility.yul\":1928:2059   */\n      tag_54\n      jump\t// in\n    tag_65:\n        /* \"#utility.yul\":1920:2059   */\n      swap1\n      pop\n        /* \"#utility.yul\":1818:2066   */\n      swap2\n      swap1\n      pop\n      jump\t// out\n        /* \"#utility.yul\":2072:2294   */\n    tag_18:\n        /* \"#utility.yul\":2165:2169   */\n      0x00\n        /* \"#utility.yul\":2203:2205   */\n      0x20\n        /* \"#utility.yul\":2192:2201   */\n      dup3\n        /* \"#utility.yul\":2188:2206   */\n      add\n        /* \"#utility.yul\":2180:2206   */\n      swap1\n      pop\n        /* \"#utility.yul\":2216:2287   */\n      tag_67\n        /* \"#utility.yul\":2284:2285   */\n      0x00\n        /* \"#utility.yul\":2273:2282   */\n      dup4\n        /* \"#utility.yul\":2269:2286   */\n      add\n        /* \"#utility.yul\":2260:2266   */\n      dup5\n        /* \"#utility.yul\":2216:2287   */\n      tag_60\n      jump\t// in\n    tag_67:\n        /* \"#utility.yul\":2170:2294   */\n      swap3\n      swap2\n      pop\n      pop\n      jump\t// out\n        /* \"#utility.yul\":2300:2469   */\n    tag_57:\n        /* \"#utility.yul\":2384:2395   */\n      0x00\n        /* \"#utility.yul\":2418:2424   */\n      dup3\n        /* \"#utility.yul\":2413:2416   */\n      dup3\n        /* \"#utility.yul\":2406:2425   */\n      mstore\n        /* \"#utility.yul\":2458:2462   */\n      0x20\n        /* \"#utility.yul\":2453:2456   */\n      dup3\n        /* \"#utility.yul\":2449:2463   */\n      add\n        /* \"#utility.yul\":2434:2463   */\n      swap1\n      pop\n        /* \"#utility.yul\":2396:2469   */\n      swap3\n      swap2\n      pop\n      pop\n      jump\t// out\n        /* \"#utility.yul\":2475:2780   */\n    tag_31:\n        /* \"#utility.yul\":2515:2518   */\n      0x00\n        /* \"#utility.yul\":2534:2554   */\n      tag_70\n        /* \"#utility.yul\":2552:2553   */\n      dup3\n        /* \"#utility.yul\":2534:2554   */\n      tag_63\n      jump\t// in\n    tag_70:\n        /* \"#utility.yul\":2529:2554   */\n      swap2\n      pop\n        /* \"#utility.yul\":2568:2588   */\n      tag_71\n        /* \"#utility.yul\":2586:2587   */\n      dup4\n        /* \"#utility.yul\":2568:2588   */\n      tag_63\n      jump\t// in\n    tag_71:\n        /* \"#utility.yul\":2563:2588   */\n      swap3\n      pop\n        /* \"#utility.yul\":2722:2723   */\n      dup3\n        /* \"#utility.yul\":2654:2720   */\n      0xffffffffffffffffffffffffffffffffffffffffffffffffffffffffffffffff\n        /* \"#utility.yul\":2650:2724   */\n      sub\n        /* \"#utility.yul\":2647:2648   */\n      dup3\n        /* \"#utility.yul\":2644:2725   */\n      gt\n        /* \"#utility.yul\":2641:2643   */\n      iszero\n      tag_72\n      jumpi\n        /* \"#utility.yul\":2728:2746   */\n      tag_73\n      tag_74\n      jump\t// in\n    tag_73:\n        /* \"#utility.yul\":2641:2643   */\n    tag_72:\n        /* \"#utility.yul\":2772:2773   */\n      dup3\n        /* \"#utility.yul\":2769:2770   */\n      dup3\n        /* \"#utility.yul\":2765:2774   */\n      add\n        /* \"#utility.yul\":2758:2774   */\n      swap1\n      pop\n        /* \"#utility.yul\":2519:2780   */\n      swap3\n      swap2\n      pop\n      pop\n      jump\t// out\n        /* \"#utility.yul\":2786:2977   */\n    tag_24:\n        /* \"#utility.yul\":2826:2830   */\n      0x00\n        /* \"#utility.yul\":2846:2866   */\n      tag_76\n        /* \"#utility.yul\":2864:2865   */\n      dup3\n        /* \"#utility.yul\":2846:2866   */\n      tag_63\n      jump\t// in\n    tag_76:\n        /* \"#utility.yul\":2841:2866   */\n      swap2\n      pop\n        /* \"#utility.yul\":2880:2900   */\n      tag_77\n        /* \"#utility.yul\":2898:2899   */\n      dup4\n        /* \"#utility.yul\":2880:2900   */\n      tag_63\n      jump\t// in\n    tag_77:\n        /* \"#utility.yul\":2875:2900   */\n      swap3\n      pop\n        /* \"#utility.yul\":2919:2920   */\n      dup3\n        /* \"#utility.yul\":2916:2917   */\n      dup3\n        /* \"#utility.yul\":2913:2921   */\n      lt\n        /* \"#utility.yul\":2910:2912   */\n      iszero\n      tag_78\n      jumpi\n        /* \"#utility.yul\":2924:2942   */\n      tag_79\n      tag_74\n      jump\t// in\n    tag_79:\n        /* \"#utility.yul\":2910:2912   */\n    tag_78:\n        /* \"#utility.yul\":2969:2970   */\n      dup3\n        /* \"#utility.yul\":2966:2967   */\n      dup3\n        /* \"#utility.yul\":2962:2971   */\n      sub\n        /* \"#utility.yul\":2954:2971   */\n      swap1\n      pop\n        /* \"#utility.yul\":2831:2977   */\n      swap3\n      swap2\n      pop\n      pop\n      jump\t// out\n        /* \"#utility.yul\":2983:3079   */\n    tag_80:\n        /* \"#utility.yul\":3020:3027   */\n      0x00\n        /* \"#utility.yul\":3049:3073   */\n      tag_82\n        /* \"#utility.yul\":3067:3072   */\n      dup3\n        /* \"#utility.yul\":3049:3073   */\n      tag_83\n      jump\t// in\n    tag_82:\n        /* \"#utility.yul\":3038:3073   */\n      swap1\n      pop\n        /* \"#utility.yul\":3028:3079   */\n      swap2\n      swap1\n      pop\n      jump\t// out\n        /* \"#utility.yul\":3085:3189   */\n    tag_84:\n        /* \"#utility.yul\":3130:3137   */\n      0x00\n        /* \"#utility.yul\":3159:3183   */\n      tag_86\n        /* \"#utility.yul\":3177:3182   */\n      dup3\n        /* \"#utility.yul\":3159:3183   */\n      tag_83\n      jump\t// in\n    tag_86:\n        /* \"#utility.yul\":3148:3183   */\n      swap1\n      pop\n        /* \"#utility.yul\":3138:3189   */\n      swap2\n      swap1\n      pop\n      jump\t// out\n        /* \"#utility.yul\":3195:3321   */\n    tag_83:\n        /* \"#utility.yul\":3232:3239   */\n      0x00\n        /* \"#utility.yul\":3272:3314   */\n      0xffffffffffffffffffffffffffffffffffffffff\n        /* \"#utility.yul\":3265:3270   */\n      dup3\n        /* \"#utility.yul\":3261:3315   */\n      and\n        /* \"#utility.yul\":3250:3315   */\n      swap1\n      pop\n        /* \"#utility.yul\":3240:3321   */\n      swap2\n      swap1\n      pop\n      jump\t// out\n        /* \"#utility.yul\":3327:3404   */\n    tag_63:\n        /* \"#utility.yul\":3364:3371   */\n      0x00\n        /* \"#utility.yul\":3393:3398   */\n      dup2\n        /* \"#utility.yul\":3382:3398   */\n      swap1\n      pop\n        /* \"#utility.yul\":3372:3404   */\n      swap2\n      swap1\n      pop\n      jump\t// out\n        /* \"#utility.yul\":3410:3511   */\n    tag_89:\n        /* \"#utility.yul\":3446:3453   */\n      0x00\n        /* \"#utility.yul\":3486:3504   */\n      0xffffffffffffffff\n        /* \"#utility.yul\":3479:3484   */\n      dup3\n        /* \"#utility.yul\":3475:3505   */\n      and\n        /* \"#utility.yul\":3464:3505   */\n      swap1\n      pop\n        /* \"#utility.yul\":3454:3511   */\n      swap2\n      swap1\n      pop\n      jump\t// out\n        /* \"#utility.yul\":3517:3697   */\n    tag_74:\n        /* \"#utility.yul\":3565:3642   */\n      0x4e487b7100000000000000000000000000000000000000000000000000000000\n        /* \"#utility.yul\":3562:3563   */\n      0x00\n        /* \"#utility.yul\":3555:3643   */\n      mstore\n        /* \"#utility.yul\":3662:3666   */\n      0x11\n        /* \"#utility.yul\":3659:3660   */\n      0x04\n        /* \"#utility.yul\":3652:3667   */\n      mstore\n        /* \"#utility.yul\":3686:3690   */\n      0x24\n        /* \"#utility.yul\":3683:3684   */\n      0x00\n        /* \"#utility.yul\":3676:3691   */\n      revert\n        /* \"#utility.yul\":3703:3879   */\n    tag_59:\n        /* \"#utility.yul\":3843:3871   */\n      0x596f7520646f6e74206861766520656e6f7567682066756e6473000000000000\n        /* \"#utility.yul\":3839:3840   */\n      0x00\n        /* \"#utility.yul\":3831:3837   */\n      dup3\n        /* \"#utility.yul\":3827:3841   */\n      add\n        /* \"#utility.yul\":3820:3872   */\n      mstore\n        /* \"#utility.yul\":3809:3879   */\n      pop\n      jump\t// out\n        /* \"#utility.yul\":3885:4007   */\n    tag_38:\n        /* \"#utility.yul\":3958:3982   */\n      tag_94\n        /* \"#utility.yul\":3976:3981   */\n      dup2\n        /* \"#utility.yul\":3958:3982   */\n      tag_80\n      jump\t// in\n    tag_94:\n        /* \"#utility.yul\":3951:3956   */\n      dup2\n        /* \"#utility.yul\":3948:3983   */\n      eq\n        /* \"#utility.yul\":3938:3940   */\n      tag_95\n      jumpi\n        /* \"#utility.yul\":3997:3998   */\n      0x00\n        /* \"#utility.yul\":3994:3995   */\n      dup1\n        /* \"#utility.yul\":3987:3999   */\n      revert\n        /* \"#utility.yul\":3938:3940   */\n    tag_95:\n        /* \"#utility.yul\":3928:4007   */\n      pop\n      jump\t// out\n        /* \"#utility.yul\":4013:4151   */\n    tag_42:\n        /* \"#utility.yul\":4094:4126   */\n      tag_97\n        /* \"#utility.yul\":4120:4125   */\n      dup2\n        /* \"#utility.yul\":4094:4126   */\n      tag_84\n      jump\t// in\n    tag_97:\n        /* \"#utility.yul\":4087:4092   */\n      dup2\n        /* \"#utility.yul\":4084:4127   */\n      eq\n        /* \"#utility.yul\":4074:4076   */\n      tag_98\n      jumpi\n        /* \"#utility.yul\":4141:4142   */\n      0x00\n        /* \"#utility.yul\":4138:4139   */\n      dup1\n        /* \"#utility.yul\":4131:4143   */\n      revert\n        /* \"#utility.yul\":4074:4076   */\n    tag_98:\n        /* \"#utility.yul\":4064:4151   */\n      pop\n      jump\t// out\n        /* \"#utility.yul\":4157:4277   */\n    tag_46:\n        /* \"#utility.yul\":4229:4252   */\n      tag_100\n        /* \"#utility.yul\":4246:4251   */\n      dup2\n        /* \"#utility.yul\":4229:4252   */\n      tag_89\n      jump\t// in\n    tag_100:\n        /* \"#utility.yul\":4222:4227   */\n      dup2\n        /* \"#utility.yul\":4219:4253   */\n      eq\n        /* \"#utility.yul\":4209:4211   */\n      tag_101\n      jumpi\n        /* \"#utility.yul\":4267:4268   */\n      0x00\n        /* \"#utility.yul\":4264:4265   */\n      dup1\n        /* \"#utility.yul\":4257:4269   */\n      revert\n        /* \"#utility.yul\":4209:4211   */\n    tag_101:\n        /* \"#utility.yul\":4199:4277   */\n      pop\n      jump\t// out\n\n    auxdata: 0xa26469706673582212206444c5e67a0ab59564f664088e2f5a20d2b10b8a39e0480203ac6f2a679cbcdb64736f6c63430008040033\n}\n",
				"bytecode": {
					"linkReferences": {},
					"object": "608060405234801561001057600080fd5b506106d2806100206000396000f3fe6080604052600436106100345760003560e01c80630ad19aeb146100395780636d26ec1814610062578063d18a42e11461006c575b600080fd5b34801561004557600080fd5b50610060600480360381019061005b9190610459565b6100a9565b005b61006a6102b0565b005b34801561007857600080fd5b50610093600480360381019061008e9190610430565b6103d9565b6040516100a091906104e7565b60405180910390f35b6000803373ffffffffffffffffffffffffffffffffffffffff1673ffffffffffffffffffffffffffffffffffffffff168152602001908152602001600020548167ffffffffffffffff161115610134576040517f08c379a000000000000000000000000000000000000000000000000000000000815260040161012b906104c7565b60405180910390fd5b8067ffffffffffffffff166000803373ffffffffffffffffffffffffffffffffffffffff1673ffffffffffffffffffffffffffffffffffffffff168152602001908152602001600020546101889190610569565b6000803373ffffffffffffffffffffffffffffffffffffffff1673ffffffffffffffffffffffffffffffffffffffff1681526020019081526020016000205410156101fc577f4e487b7100000000000000000000000000000000000000000000000000000000600052600160045260246000fd5b8067ffffffffffffffff166000803373ffffffffffffffffffffffffffffffffffffffff1673ffffffffffffffffffffffffffffffffffffffff16815260200190815260200160002060008282546102549190610569565b925050819055508173ffffffffffffffffffffffffffffffffffffffff166108fc8267ffffffffffffffff169081150290604051600060405180830381858888f193505050501580156102ab573d6000803e3d6000fd5b505050565b6000803373ffffffffffffffffffffffffffffffffffffffff1673ffffffffffffffffffffffffffffffffffffffff168152602001908152602001600020543467ffffffffffffffff166000803373ffffffffffffffffffffffffffffffffffffffff1673ffffffffffffffffffffffffffffffffffffffff168152602001908152602001600020546103439190610513565b1015610378577f4e487b7100000000000000000000000000000000000000000000000000000000600052600160045260246000fd5b3467ffffffffffffffff166000803373ffffffffffffffffffffffffffffffffffffffff1673ffffffffffffffffffffffffffffffffffffffff16815260200190815260200160002060008282546103d09190610513565b92505081905550565b60006020528060005260406000206000915090505481565b60008135905061040081610657565b92915050565b6000813590506104158161066e565b92915050565b60008135905061042a81610685565b92915050565b60006020828403121561044257600080fd5b6000610450848285016103f1565b91505092915050565b6000806040838503121561046c57600080fd5b600061047a85828601610406565b925050602061048b8582860161041b565b9150509250929050565b60006104a2601a83610502565b91506104ad8261062e565b602082019050919050565b6104c1816105e1565b82525050565b600060208201905081810360008301526104e081610495565b9050919050565b60006020820190506104fc60008301846104b8565b92915050565b600082825260208201905092915050565b600061051e826105e1565b9150610529836105e1565b9250827fffffffffffffffffffffffffffffffffffffffffffffffffffffffffffffffff0382111561055e5761055d6105ff565b5b828201905092915050565b6000610574826105e1565b915061057f836105e1565b925082821015610592576105916105ff565b5b828203905092915050565b60006105a8826105c1565b9050919050565b60006105ba826105c1565b9050919050565b600073ffffffffffffffffffffffffffffffffffffffff82169050919050565b6000819050919050565b600067ffffffffffffffff82169050919050565b7f4e487b7100000000000000000000000000000000000000000000000000000000600052601160045260246000fd5b7f596f7520646f6e74206861766520656e6f7567682066756e6473000000000000600082015250565b6106608161059d565b811461066b57600080fd5b50565b610677816105af565b811461068257600080fd5b50565b61068e816105eb565b811461069957600080fd5b5056fea26469706673582212206444c5e67a0ab59564f664088e2f5a20d2b10b8a39e0480203ac6f2a679cbcdb64736f6c63430008040033",
					"opcodes": "PUSH1 0x80 PUSH1 0x40 MSTORE CALLVALUE DUP1 ISZERO PUSH2 0x10 JUMPI PUSH1 0x0 DUP1 REVERT JUMPDEST POP PUSH2 0x6D2 DUP1 PUSH2 0x20 PUSH1 0x0 CODECOPY PUSH1 0x0 RETURN INVALID PUSH1 0x80 PUSH1 0x40 MSTORE PUSH1 0x4 CALLDATASIZE LT PUSH2 0x34 JUMPI PUSH1 0x0 CALLDATALOAD PUSH1 0xE0 SHR DUP1 PUSH4 0xAD19AEB EQ PUSH2 0x39 JUMPI DUP1 PUSH4 0x6D26EC18 EQ PUSH2 0x62 JUMPI DUP1 PUSH4 0xD18A42E1 EQ PUSH2 0x6C JUMPI JUMPDEST PUSH1 0x0 DUP1 REVERT JUMPDEST CALLVALUE DUP1 ISZERO PUSH2 0x45 JUMPI PUSH1 0x0 DUP1 REVERT JUMPDEST POP PUSH2 0x60 PUSH1 0x4 DUP1 CALLDATASIZE SUB DUP2 ADD SWAP1 PUSH2 0x5B SWAP2 SWAP1 PUSH2 0x459 JUMP JUMPDEST PUSH2 0xA9 JUMP JUMPDEST STOP JUMPDEST PUSH2 0x6A PUSH2 0x2B0 JUMP JUMPDEST STOP JUMPDEST CALLVALUE DUP1 ISZERO PUSH2 0x78 JUMPI PUSH1 0x0 DUP1 REVERT JUMPDEST POP PUSH2 0x93 PUSH1 0x4 DUP1 CALLDATASIZE SUB DUP2 ADD SWAP1 PUSH2 0x8E SWAP2 SWAP1 PUSH2 0x430 JUMP JUMPDEST PUSH2 0x3D9 JUMP JUMPDEST PUSH1 0x40 MLOAD PUSH2 0xA0 SWAP2 SWAP1 PUSH2 0x4E7 JUMP JUMPDEST PUSH1 0x40 MLOAD DUP1 SWAP2 SUB SWAP1 RETURN JUMPDEST PUSH1 0x0 DUP1 CALLER PUSH20 0xFFFFFFFFFFFFFFFFFFFFFFFFFFFFFFFFFFFFFFFF AND PUSH20 0xFFFFFFFFFFFFFFFFFFFFFFFFFFFFFFFFFFFFFFFF AND DUP2 MSTORE PUSH1 0x20 ADD SWAP1 DUP2 MSTORE PUSH1 0x20 ADD PUSH1 0x0 KECCAK256 SLOAD DUP2 PUSH8 0xFFFFFFFFFFFFFFFF AND GT ISZERO PUSH2 0x134 JUMPI PUSH1 0x40 MLOAD PUSH32 0x8C379A000000000000000000000000000000000000000000000000000000000 DUP2 MSTORE PUSH1 0x4 ADD PUSH2 0x12B SWAP1 PUSH2 0x4C7 JUMP JUMPDEST PUSH1 0x40 MLOAD DUP1 SWAP2 SUB SWAP1 REVERT JUMPDEST DUP1 PUSH8 0xFFFFFFFFFFFFFFFF AND PUSH1 0x0 DUP1 CALLER PUSH20 0xFFFFFFFFFFFFFFFFFFFFFFFFFFFFFFFFFFFFFFFF AND PUSH20 0xFFFFFFFFFFFFFFFFFFFFFFFFFFFFFFFFFFFFFFFF AND DUP2 MSTORE PUSH1 0x20 ADD SWAP1 DUP2 MSTORE PUSH1 0x20 ADD PUSH1 0x0 KECCAK256 SLOAD PUSH2 0x188 SWAP2 SWAP1 PUSH2 0x569 JUMP JUMPDEST PUSH1 0x0 DUP1 CALLER PUSH20 0xFFFFFFFFFFFFFFFFFFFFFFFFFFFFFFFFFFFFFFFF AND PUSH20 0xFFFFFFFFFFFFFFFFFFFFFFFFFFFFFFFFFFFFFFFF AND DUP2 MSTORE PUSH1 0x20 ADD SWAP1 DUP2 MSTORE PUSH1 0x20 ADD PUSH1 0x0 KECCAK256 SLOAD LT ISZERO PUSH2 0x1FC JUMPI PUSH32 0x4E487B7100000000000000000000000000000000000000000000000000000000 PUSH1 0x0 MSTORE PUSH1 0x1 PUSH1 0x4 MSTORE PUSH1 0x24 PUSH1 0x0 REVERT JUMPDEST DUP1 PUSH8 0xFFFFFFFFFFFFFFFF AND PUSH1 0x0 DUP1 CALLER PUSH20 0xFFFFFFFFFFFFFFFFFFFFFFFFFFFFFFFFFFFFFFFF AND PUSH20 0xFFFFFFFFFFFFFFFFFFFFFFFFFFFFFFFFFFFFFFFF AND DUP2 MSTORE PUSH1 0x20 ADD SWAP1 DUP2 MSTORE PUSH1 0x20 ADD PUSH1 0x0 KECCAK256 PUSH1 0x0 DUP3 DUP3 SLOAD PUSH2 0x254 SWAP2 SWAP1 PUSH2 0x569 JUMP JUMPDEST SWAP3 POP POP DUP2 SWAP1 SSTORE POP DUP2 PUSH20 0xFFFFFFFFFFFFFFFFFFFFFFFFFFFFFFFFFFFFFFFF AND PUSH2 0x8FC DUP3 PUSH8 0xFFFFFFFFFFFFFFFF AND SWAP1 DUP2 ISZERO MUL SWAP1 PUSH1 0x40 MLOAD PUSH1 0x0 PUSH1 0x40 MLOAD DUP1 DUP4 SUB DUP2 DUP6 DUP9 DUP9 CALL SWAP4 POP POP POP POP ISZERO DUP1 ISZERO PUSH2 0x2AB JUMPI RETURNDATASIZE PUSH1 0x0 DUP1 RETURNDATACOPY RETURNDATASIZE PUSH1 0x0 REVERT JUMPDEST POP POP POP JUMP JUMPDEST PUSH1 0x0 DUP1 CALLER PUSH20 0xFFFFFFFFFFFFFFFFFFFFFFFFFFFFFFFFFFFFFFFF AND PUSH20 0xFFFFFFFFFFFFFFFFFFFFFFFFFFFFFFFFFFFFFFFF AND DUP2 MSTORE PUSH1 0x20 ADD SWAP1 DUP2 MSTORE PUSH1 0x20 ADD PUSH1 0x0 KECCAK256 SLOAD CALLVALUE PUSH8 0xFFFFFFFFFFFFFFFF AND PUSH1 0x0 DUP1 CALLER PUSH20 0xFFFFFFFFFFFFFFFFFFFFFFFFFFFFFFFFFFFFFFFF AND PUSH20 0xFFFFFFFFFFFFFFFFFFFFFFFFFFFFFFFFFFFFFFFF AND DUP2 MSTORE PUSH1 0x20 ADD SWAP1 DUP2 MSTORE PUSH1 0x20 ADD PUSH1 0x0 KECCAK256 SLOAD PUSH2 0x343 SWAP2 SWAP1 PUSH2 0x513 JUMP JUMPDEST LT ISZERO PUSH2 0x378 JUMPI PUSH32 0x4E487B7100000000000000000000000000000000000000000000000000000000 PUSH1 0x0 MSTORE PUSH1 0x1 PUSH1 0x4 MSTORE PUSH1 0x24 PUSH1 0x0 REVERT JUMPDEST CALLVALUE PUSH8 0xFFFFFFFFFFFFFFFF AND PUSH1 0x0 DUP1 CALLER PUSH20 0xFFFFFFFFFFFFFFFFFFFFFFFFFFFFFFFFFFFFFFFF AND PUSH20 0xFFFFFFFFFFFFFFFFFFFFFFFFFFFFFFFFFFFFFFFF AND DUP2 MSTORE PUSH1 0x20 ADD SWAP1 DUP2 MSTORE PUSH1 0x20 ADD PUSH1 0x0 KECCAK256 PUSH1 0x0 DUP3 DUP3 SLOAD PUSH2 0x3D0 SWAP2 SWAP1 PUSH2 0x513 JUMP JUMPDEST SWAP3 POP POP DUP2 SWAP1 SSTORE POP JUMP JUMPDEST PUSH1 0x0 PUSH1 0x20 MSTORE DUP1 PUSH1 0x0 MSTORE PUSH1 0x40 PUSH1 0x0 KECCAK256 PUSH1 0x0 SWAP2 POP SWAP1 POP SLOAD DUP2 JUMP JUMPDEST PUSH1 0x0 DUP2 CALLDATALOAD SWAP1 POP PUSH2 0x400 DUP2 PUSH2 0x657 JUMP JUMPDEST SWAP3 SWAP2 POP POP JUMP JUMPDEST PUSH1 0x0 DUP2 CALLDATALOAD SWAP1 POP PUSH2 0x415 DUP2 PUSH2 0x66E JUMP JUMPDEST SWAP3 SWAP2 POP POP JUMP JUMPDEST PUSH1 0x0 DUP2 CALLDATALOAD SWAP1 POP PUSH2 0x42A DUP2 PUSH2 0x685 JUMP JUMPDEST SWAP3 SWAP2 POP POP JUMP JUMPDEST PUSH1 0x0 PUSH1 0x20 DUP3 DUP5 SUB SLT ISZERO PUSH2 0x442 JUMPI PUSH1 0x0 DUP1 REVERT JUMPDEST PUSH1 0x0 PUSH2 0x450 DUP5 DUP3 DUP6 ADD PUSH2 0x3F1 JUMP JUMPDEST SWAP2 POP POP SWAP3 SWAP2 POP POP JUMP JUMPDEST PUSH1 0x0 DUP1 PUSH1 0x40 DUP4 DUP6 SUB SLT ISZERO PUSH2 0x46C JUMPI PUSH1 0x0 DUP1 REVERT JUMPDEST PUSH1 0x0 PUSH2 0x47A DUP6 DUP3 DUP7 ADD PUSH2 0x406 JUMP JUMPDEST SWAP3 POP POP PUSH1 0x20 PUSH2 0x48B DUP6 DUP3 DUP7 ADD PUSH2 0x41B JUMP JUMPDEST SWAP2 POP POP SWAP3 POP SWAP3 SWAP1 POP JUMP JUMPDEST PUSH1 0x0 PUSH2 0x4A2 PUSH1 0x1A DUP4 PUSH2 0x502 JUMP JUMPDEST SWAP2 POP PUSH2 0x4AD DUP3 PUSH2 0x62E JUMP JUMPDEST PUSH1 0x20 DUP3 ADD SWAP1 POP SWAP2 SWAP1 POP JUMP JUMPDEST PUSH2 0x4C1 DUP2 PUSH2 0x5E1 JUMP JUMPDEST DUP3 MSTORE POP POP JUMP JUMPDEST PUSH1 0x0 PUSH1 0x20 DUP3 ADD SWAP1 POP DUP2 DUP2 SUB PUSH1 0x0 DUP4 ADD MSTORE PUSH2 0x4E0 DUP2 PUSH2 0x495 JUMP JUMPDEST SWAP1 POP SWAP2 SWAP1 POP JUMP JUMPDEST PUSH1 0x0 PUSH1 0x20 DUP3 ADD SWAP1 POP PUSH2 0x4FC PUSH1 0x0 DUP4 ADD DUP5 PUSH2 0x4B8 JUMP JUMPDEST SWAP3 SWAP2 POP POP JUMP JUMPDEST PUSH1 0x0 DUP3 DUP3 MSTORE PUSH1 0x20 DUP3 ADD SWAP1 POP SWAP3 SWAP2 POP POP JUMP JUMPDEST PUSH1 0x0 PUSH2 0x51E DUP3 PUSH2 0x5E1 JUMP JUMPDEST SWAP2 POP PUSH2 0x529 DUP4 PUSH2 0x5E1 JUMP JUMPDEST SWAP3 POP DUP3 PUSH32 0xFFFFFFFFFFFFFFFFFFFFFFFFFFFFFFFFFFFFFFFFFFFFFFFFFFFFFFFFFFFFFFFF SUB DUP3 GT ISZERO PUSH2 0x55E JUMPI PUSH2 0x55D PUSH2 0x5FF JUMP JUMPDEST JUMPDEST DUP3 DUP3 ADD SWAP1 POP SWAP3 SWAP2 POP POP JUMP JUMPDEST PUSH1 0x0 PUSH2 0x574 DUP3 PUSH2 0x5E1 JUMP JUMPDEST SWAP2 POP PUSH2 0x57F DUP4 PUSH2 0x5E1 JUMP JUMPDEST SWAP3 POP DUP3 DUP3 LT ISZERO PUSH2 0x592 JUMPI PUSH2 0x591 PUSH2 0x5FF JUMP JUMPDEST JUMPDEST DUP3 DUP3 SUB SWAP1 POP SWAP3 SWAP2 POP POP JUMP JUMPDEST PUSH1 0x0 PUSH2 0x5A8 DUP3 PUSH2 0x5C1 JUMP JUMPDEST SWAP1 POP SWAP2 SWAP1 POP JUMP JUMPDEST PUSH1 0x0 PUSH2 0x5BA DUP3 PUSH2 0x5C1 JUMP JUMPDEST SWAP1 POP SWAP2 SWAP1 POP JUMP JUMPDEST PUSH1 0x0 PUSH20 0xFFFFFFFFFFFFFFFFFFFFFFFFFFFFFFFFFFFFFFFF DUP3 AND SWAP1 POP SWAP2 SWAP1 POP JUMP JUMPDEST PUSH1 0x0 DUP2 SWAP1 POP SWAP2 SWAP1 POP JUMP JUMPDEST PUSH1 0x0 PUSH8 0xFFFFFFFFFFFFFFFF DUP3 AND SWAP1 POP SWAP2 SWAP1 POP JUMP JUMPDEST PUSH32 0x4E487B7100000000000000000000000000000000000000000000000000000000 PUSH1 0x0 MSTORE PUSH1 0x11 PUSH1 0x4 MSTORE PUSH1 0x24 PUSH1 0x0 REVERT JUMPDEST PUSH32 0x596F7520646F6E74206861766520656E6F7567682066756E6473000000000000 PUSH1 0x0 DUP3 ADD MSTORE POP JUMP JUMPDEST PUSH2 0x660 DUP2 PUSH2 0x59D JUMP JUMPDEST DUP2 EQ PUSH2 0x66B JUMPI PUSH1 0x0 DUP1 REVERT JUMPDEST POP JUMP JUMPDEST PUSH2 0x677 DUP2 PUSH2 0x5AF JUMP JUMPDEST DUP2 EQ PUSH2 0x682 JUMPI PUSH1 0x0 DUP1 REVERT JUMPDEST POP JUMP JUMPDEST PUSH2 0x68E DUP2 PUSH2 0x5EB JUMP JUMPDEST DUP2 EQ PUSH2 0x699 JUMPI PUSH1 0x0 DUP1 REVERT JUMPDEST POP JUMP INVALID LOG2 PUSH5 0x6970667358 0x22 SLT KECCAK256 PUSH5 0x44C5E67A0A 0xB5 SWAP6 PUSH5 0xF664088E2F GAS KECCAK256 0xD2 0xB1 SIGNEXTEND DUP11 CODECOPY 0xE0 0x48 MUL SUB 0xAC PUSH16 0x2A679CBCDB64736F6C63430008040033 "
				},
				"gasEstimates": {
					"creation": {
						"codeDepositCost": "349200",
						"executionCost": "386",
						"totalCost": "349586"
					},
					"external": {
						"balanceReceived(address)": "1536",
						"receiveMoney()": "infinite",
						"withdrawMoney(address,uint64)": "infinite"
					}
				},
				"methodIdentifiers": {
					"balanceReceived(address)": "d18a42e1",
					"receiveMoney()": "6d26ec18",
					"withdrawMoney(address,uint64)": "0ad19aeb"
				}
			},
			"storageLayout": {
				"storage": [
					{
						"astId": 5,
						"contract": "contracts/basics/09-FunctionsExample.sol:FunctionsExample",
						"label": "balanceReceived",
						"offset": 0,
						"slot": "0",
						"type": "t_mapping(t_address,t_uint256)"
					}
				],
				"types": {
					"t_address": {
						"encoding": "inplace",
						"label": "address",
						"numberOfBytes": "20"
					},
					"t_mapping(t_address,t_uint256)": {
						"encoding": "mapping",
						"key": "t_address",
						"label": "mapping(address => uint256)",
						"numberOfBytes": "32",
						"value": "t_uint256"
					},
					"t_uint256": {
						"encoding": "inplace",
						"label": "uint256",
						"numberOfBytes": "32"
					}
				}
			},
			"userdoc": {
				"kind": "user",
				"methods": {},
				"version": 1
			}
		}
	}
}