{
	"contracts/basics/09-FunctionsExample.sol": {
		"FunctionsExample": {
			"abi": [
				{
					"inputs": [
						{
							"internalType": "address",
							"name": "",
							"type": "address"
						}
					],
					"name": "balanceReceived",
					"outputs": [
						{
							"internalType": "uint256",
							"name": "",
							"type": "uint256"
						}
					],
					"stateMutability": "view",
					"type": "function"
				},
				{
					"inputs": [],
					"name": "receiveMoney",
					"outputs": [],
					"stateMutability": "payable",
					"type": "function"
				},
				{
					"inputs": [
						{
							"internalType": "address payable",
							"name": "_to",
							"type": "address"
						},
						{
							"internalType": "uint256",
							"name": "_amount",
							"type": "uint256"
						}
					],
					"name": "withdrawMoney",
					"outputs": [],
					"stateMutability": "nonpayable",
					"type": "function"
				}
			],
			"devdoc": {
				"kind": "dev",
				"methods": {},
				"version": 1
			},
			"evm": {
				"assembly": "    /* \"contracts/basics/09-FunctionsExample.sol\":55:668  contract FunctionsExample{\r... */\n  mstore(0x40, 0x80)\n  callvalue\n  dup1\n  iszero\n  tag_1\n  jumpi\n  0x00\n  dup1\n  revert\ntag_1:\n  pop\n  dataSize(sub_0)\n  dup1\n  dataOffset(sub_0)\n  0x00\n  codecopy\n  0x00\n  return\nstop\n\nsub_0: assembly {\n        /* \"contracts/basics/09-FunctionsExample.sol\":55:668  contract FunctionsExample{\r... */\n      mstore(0x40, 0x80)\n      jumpi(tag_1, lt(calldatasize, 0x04))\n      shr(0xe0, calldataload(0x00))\n      dup1\n      0x6d26ec18\n      eq\n      tag_2\n      jumpi\n      dup1\n      0xd18a42e1\n      eq\n      tag_3\n      jumpi\n      dup1\n      0xf274c897\n      eq\n      tag_4\n      jumpi\n    tag_1:\n      0x00\n      dup1\n      revert\n        /* \"contracts/basics/09-FunctionsExample.sol\":142:334  function receiveMoney() public payable{\r... */\n    tag_2:\n      tag_5\n      tag_6\n      jump\t// in\n    tag_5:\n      stop\n        /* \"contracts/basics/09-FunctionsExample.sol\":87:133  mapping(address=> uint) public balanceReceived */\n    tag_3:\n      callvalue\n      dup1\n      iszero\n      tag_7\n      jumpi\n      0x00\n      dup1\n      revert\n    tag_7:\n      pop\n      tag_8\n      0x04\n      dup1\n      calldatasize\n      sub\n      dup2\n      add\n      swap1\n      tag_9\n      swap2\n      swap1\n      tag_10\n      jump\t// in\n    tag_9:\n      tag_11\n      jump\t// in\n    tag_8:\n      mload(0x40)\n      tag_12\n      swap2\n      swap1\n      tag_13\n      jump\t// in\n    tag_12:\n      mload(0x40)\n      dup1\n      swap2\n      sub\n      swap1\n      return\n        /* \"contracts/basics/09-FunctionsExample.sol\":342:659  function withdrawMoney(address payable _to, uint _amount) public{\r... */\n    tag_4:\n      callvalue\n      dup1\n      iszero\n      tag_14\n      jumpi\n      0x00\n      dup1\n      revert\n    tag_14:\n      pop\n      tag_15\n      0x04\n      dup1\n      calldatasize\n      sub\n      dup2\n      add\n      swap1\n      tag_16\n      swap2\n      swap1\n      tag_17\n      jump\t// in\n    tag_16:\n      tag_18\n      jump\t// in\n    tag_15:\n      stop\n        /* \"contracts/basics/09-FunctionsExample.sol\":142:334  function receiveMoney() public payable{\r... */\n    tag_6:\n        /* \"contracts/basics/09-FunctionsExample.sol\":243:258  balanceReceived */\n      0x00\n        /* \"contracts/basics/09-FunctionsExample.sol\":243:270  balanceReceived[msg.sender] */\n      dup1\n        /* \"contracts/basics/09-FunctionsExample.sol\":259:269  msg.sender */\n      caller\n        /* \"contracts/basics/09-FunctionsExample.sol\":243:270  balanceReceived[msg.sender] */\n      0xffffffffffffffffffffffffffffffffffffffff\n      and\n      0xffffffffffffffffffffffffffffffffffffffff\n      and\n      dup2\n      mstore\n      0x20\n      add\n      swap1\n      dup2\n      mstore\n      0x20\n      add\n      0x00\n      keccak256\n      sload\n        /* \"contracts/basics/09-FunctionsExample.sol\":231:240  msg.value */\n      callvalue\n        /* \"contracts/basics/09-FunctionsExample.sol\":198:213  balanceReceived */\n      0x00\n        /* \"contracts/basics/09-FunctionsExample.sol\":198:225  balanceReceived[msg.sender] */\n      dup1\n        /* \"contracts/basics/09-FunctionsExample.sol\":214:224  msg.sender */\n      caller\n        /* \"contracts/basics/09-FunctionsExample.sol\":198:225  balanceReceived[msg.sender] */\n      0xffffffffffffffffffffffffffffffffffffffff\n      and\n      0xffffffffffffffffffffffffffffffffffffffff\n      and\n      dup2\n      mstore\n      0x20\n      add\n      swap1\n      dup2\n      mstore\n      0x20\n      add\n      0x00\n      keccak256\n      sload\n        /* \"contracts/basics/09-FunctionsExample.sol\":198:241  balanceReceived[msg.sender]+uint(msg.value) */\n      tag_20\n      swap2\n      swap1\n      tag_21\n      jump\t// in\n    tag_20:\n        /* \"contracts/basics/09-FunctionsExample.sol\":198:270  balanceReceived[msg.sender]+uint(msg.value)>=balanceReceived[msg.sender] */\n      lt\n      iszero\n        /* \"contracts/basics/09-FunctionsExample.sol\":191:271  assert(balanceReceived[msg.sender]+uint(msg.value)>=balanceReceived[msg.sender]) */\n      tag_22\n      jumpi\n      mstore(0x00, 0x4e487b7100000000000000000000000000000000000000000000000000000000)\n      mstore(0x04, 0x01)\n      revert(0x00, 0x24)\n    tag_22:\n        /* \"contracts/basics/09-FunctionsExample.sol\":316:325  msg.value */\n      callvalue\n        /* \"contracts/basics/09-FunctionsExample.sol\":282:297  balanceReceived */\n      0x00\n        /* \"contracts/basics/09-FunctionsExample.sol\":282:309  balanceReceived[msg.sender] */\n      dup1\n        /* \"contracts/basics/09-FunctionsExample.sol\":298:308  msg.sender */\n      caller\n        /* \"contracts/basics/09-FunctionsExample.sol\":282:309  balanceReceived[msg.sender] */\n      0xffffffffffffffffffffffffffffffffffffffff\n      and\n      0xffffffffffffffffffffffffffffffffffffffff\n      and\n      dup2\n      mstore\n      0x20\n      add\n      swap1\n      dup2\n      mstore\n      0x20\n      add\n      0x00\n      keccak256\n      0x00\n        /* \"contracts/basics/09-FunctionsExample.sol\":282:326  balanceReceived[msg.sender]+=uint(msg.value) */\n      dup3\n      dup3\n      sload\n      tag_23\n      swap2\n      swap1\n      tag_21\n      jump\t// in\n    tag_23:\n      swap3\n      pop\n      pop\n      dup2\n      swap1\n      sstore\n      pop\n        /* \"contracts/basics/09-FunctionsExample.sol\":142:334  function receiveMoney() public payable{\r... */\n      jump\t// out\n        /* \"contracts/basics/09-FunctionsExample.sol\":87:133  mapping(address=> uint) public balanceReceived */\n    tag_11:\n      mstore(0x20, 0x00)\n      dup1\n      0x00\n      mstore\n      keccak256(0x00, 0x40)\n      0x00\n      swap2\n      pop\n      swap1\n      pop\n      sload\n      dup2\n      jump\t// out\n        /* \"contracts/basics/09-FunctionsExample.sol\":342:659  function withdrawMoney(address payable _to, uint _amount) public{\r... */\n    tag_18:\n        /* \"contracts/basics/09-FunctionsExample.sol\":433:448  balanceReceived */\n      0x00\n        /* \"contracts/basics/09-FunctionsExample.sol\":433:460  balanceReceived[msg.sender] */\n      dup1\n        /* \"contracts/basics/09-FunctionsExample.sol\":449:459  msg.sender */\n      caller\n        /* \"contracts/basics/09-FunctionsExample.sol\":433:460  balanceReceived[msg.sender] */\n      0xffffffffffffffffffffffffffffffffffffffff\n      and\n      0xffffffffffffffffffffffffffffffffffffffff\n      and\n      dup2\n      mstore\n      0x20\n      add\n      swap1\n      dup2\n      mstore\n      0x20\n      add\n      0x00\n      keccak256\n      sload\n        /* \"contracts/basics/09-FunctionsExample.sol\":424:431  _amount */\n      dup2\n        /* \"contracts/basics/09-FunctionsExample.sol\":424:460  _amount<=balanceReceived[msg.sender] */\n      gt\n      iszero\n        /* \"contracts/basics/09-FunctionsExample.sol\":416:490  require(_amount<=balanceReceived[msg.sender],'You dont have enough funds') */\n      tag_25\n      jumpi\n      mload(0x40)\n      0x08c379a000000000000000000000000000000000000000000000000000000000\n      dup2\n      mstore\n      0x04\n      add\n      tag_26\n      swap1\n      tag_27\n      jump\t// in\n    tag_26:\n      mload(0x40)\n      dup1\n      swap2\n      sub\n      swap1\n      revert\n    tag_25:\n        /* \"contracts/basics/09-FunctionsExample.sol\":564:571  _amount */\n      dup1\n        /* \"contracts/basics/09-FunctionsExample.sol\":536:551  balanceReceived */\n      0x00\n        /* \"contracts/basics/09-FunctionsExample.sol\":536:563  balanceReceived[msg.sender] */\n      dup1\n        /* \"contracts/basics/09-FunctionsExample.sol\":552:562  msg.sender */\n      caller\n        /* \"contracts/basics/09-FunctionsExample.sol\":536:563  balanceReceived[msg.sender] */\n      0xffffffffffffffffffffffffffffffffffffffff\n      and\n      0xffffffffffffffffffffffffffffffffffffffff\n      and\n      dup2\n      mstore\n      0x20\n      add\n      swap1\n      dup2\n      mstore\n      0x20\n      add\n      0x00\n      keccak256\n      sload\n        /* \"contracts/basics/09-FunctionsExample.sol\":536:571  balanceReceived[msg.sender]-_amount */\n      tag_28\n      swap2\n      swap1\n      tag_29\n      jump\t// in\n    tag_28:\n        /* \"contracts/basics/09-FunctionsExample.sol\":507:522  balanceReceived */\n      0x00\n        /* \"contracts/basics/09-FunctionsExample.sol\":507:534  balanceReceived[msg.sender] */\n      dup1\n        /* \"contracts/basics/09-FunctionsExample.sol\":523:533  msg.sender */\n      caller\n        /* \"contracts/basics/09-FunctionsExample.sol\":507:534  balanceReceived[msg.sender] */\n      0xffffffffffffffffffffffffffffffffffffffff\n      and\n      0xffffffffffffffffffffffffffffffffffffffff\n      and\n      dup2\n      mstore\n      0x20\n      add\n      swap1\n      dup2\n      mstore\n      0x20\n      add\n      0x00\n      keccak256\n      sload\n        /* \"contracts/basics/09-FunctionsExample.sol\":507:571  balanceReceived[msg.sender]>=balanceReceived[msg.sender]-_amount */\n      lt\n      iszero\n        /* \"contracts/basics/09-FunctionsExample.sol\":500:572  assert(balanceReceived[msg.sender]>=balanceReceived[msg.sender]-_amount) */\n      tag_30\n      jumpi\n      mstore(0x00, 0x4e487b7100000000000000000000000000000000000000000000000000000000)\n      mstore(0x04, 0x01)\n      revert(0x00, 0x24)\n    tag_30:\n        /* \"contracts/basics/09-FunctionsExample.sol\":613:620  _amount */\n      dup1\n        /* \"contracts/basics/09-FunctionsExample.sol\":582:597  balanceReceived */\n      0x00\n        /* \"contracts/basics/09-FunctionsExample.sol\":582:609  balanceReceived[msg.sender] */\n      dup1\n        /* \"contracts/basics/09-FunctionsExample.sol\":598:608  msg.sender */\n      caller\n        /* \"contracts/basics/09-FunctionsExample.sol\":582:609  balanceReceived[msg.sender] */\n      0xffffffffffffffffffffffffffffffffffffffff\n      and\n      0xffffffffffffffffffffffffffffffffffffffff\n      and\n      dup2\n      mstore\n      0x20\n      add\n      swap1\n      dup2\n      mstore\n      0x20\n      add\n      0x00\n      keccak256\n      0x00\n        /* \"contracts/basics/09-FunctionsExample.sol\":582:620  balanceReceived[msg.sender] -= _amount */\n      dup3\n      dup3\n      sload\n      tag_31\n      swap2\n      swap1\n      tag_29\n      jump\t// in\n    tag_31:\n      swap3\n      pop\n      pop\n      dup2\n      swap1\n      sstore\n      pop\n        /* \"contracts/basics/09-FunctionsExample.sol\":630:633  _to */\n      dup2\n        /* \"contracts/basics/09-FunctionsExample.sol\":630:642  _to.transfer */\n      0xffffffffffffffffffffffffffffffffffffffff\n      and\n        /* \"contracts/basics/09-FunctionsExample.sol\":630:651  _to.transfer(_amount) */\n      0x08fc\n        /* \"contracts/basics/09-FunctionsExample.sol\":643:650  _amount */\n      dup3\n        /* \"contracts/basics/09-FunctionsExample.sol\":630:651  _to.transfer(_amount) */\n      swap1\n      dup2\n      iszero\n      mul\n      swap1\n      mload(0x40)\n      0x00\n      mload(0x40)\n      dup1\n      dup4\n      sub\n      dup2\n      dup6\n      dup9\n      dup9\n      call\n      swap4\n      pop\n      pop\n      pop\n      pop\n      iszero\n      dup1\n      iszero\n      tag_33\n      jumpi\n      returndatasize\n      0x00\n      dup1\n      returndatacopy\n      revert(0x00, returndatasize)\n    tag_33:\n      pop\n        /* \"contracts/basics/09-FunctionsExample.sol\":342:659  function withdrawMoney(address payable _to, uint _amount) public{\r... */\n      pop\n      pop\n      jump\t// out\n        /* \"#utility.yul\":7:146   */\n    tag_35:\n        /* \"#utility.yul\":53:58   */\n      0x00\n        /* \"#utility.yul\":91:97   */\n      dup2\n        /* \"#utility.yul\":78:98   */\n      calldataload\n        /* \"#utility.yul\":69:98   */\n      swap1\n      pop\n        /* \"#utility.yul\":107:140   */\n      tag_37\n        /* \"#utility.yul\":134:139   */\n      dup2\n        /* \"#utility.yul\":107:140   */\n      tag_38\n      jump\t// in\n    tag_37:\n        /* \"#utility.yul\":59:146   */\n      swap3\n      swap2\n      pop\n      pop\n      jump\t// out\n        /* \"#utility.yul\":152:307   */\n    tag_39:\n        /* \"#utility.yul\":206:211   */\n      0x00\n        /* \"#utility.yul\":244:250   */\n      dup2\n        /* \"#utility.yul\":231:251   */\n      calldataload\n        /* \"#utility.yul\":222:251   */\n      swap1\n      pop\n        /* \"#utility.yul\":260:301   */\n      tag_41\n        /* \"#utility.yul\":295:300   */\n      dup2\n        /* \"#utility.yul\":260:301   */\n      tag_42\n      jump\t// in\n    tag_41:\n        /* \"#utility.yul\":212:307   */\n      swap3\n      swap2\n      pop\n      pop\n      jump\t// out\n        /* \"#utility.yul\":313:452   */\n    tag_43:\n        /* \"#utility.yul\":359:364   */\n      0x00\n        /* \"#utility.yul\":397:403   */\n      dup2\n        /* \"#utility.yul\":384:404   */\n      calldataload\n        /* \"#utility.yul\":375:404   */\n      swap1\n      pop\n        /* \"#utility.yul\":413:446   */\n      tag_45\n        /* \"#utility.yul\":440:445   */\n      dup2\n        /* \"#utility.yul\":413:446   */\n      tag_46\n      jump\t// in\n    tag_45:\n        /* \"#utility.yul\":365:452   */\n      swap3\n      swap2\n      pop\n      pop\n      jump\t// out\n        /* \"#utility.yul\":458:720   */\n    tag_10:\n        /* \"#utility.yul\":517:523   */\n      0x00\n        /* \"#utility.yul\":566:568   */\n      0x20\n        /* \"#utility.yul\":554:563   */\n      dup3\n        /* \"#utility.yul\":545:552   */\n      dup5\n        /* \"#utility.yul\":541:564   */\n      sub\n        /* \"#utility.yul\":537:569   */\n      slt\n        /* \"#utility.yul\":534:536   */\n      iszero\n      tag_48\n      jumpi\n        /* \"#utility.yul\":582:583   */\n      0x00\n        /* \"#utility.yul\":579:580   */\n      dup1\n        /* \"#utility.yul\":572:584   */\n      revert\n        /* \"#utility.yul\":534:536   */\n    tag_48:\n        /* \"#utility.yul\":625:626   */\n      0x00\n        /* \"#utility.yul\":650:703   */\n      tag_49\n        /* \"#utility.yul\":695:702   */\n      dup5\n        /* \"#utility.yul\":686:692   */\n      dup3\n        /* \"#utility.yul\":675:684   */\n      dup6\n        /* \"#utility.yul\":671:693   */\n      add\n        /* \"#utility.yul\":650:703   */\n      tag_35\n      jump\t// in\n    tag_49:\n        /* \"#utility.yul\":640:703   */\n      swap2\n      pop\n        /* \"#utility.yul\":596:713   */\n      pop\n        /* \"#utility.yul\":524:720   */\n      swap3\n      swap2\n      pop\n      pop\n      jump\t// out\n        /* \"#utility.yul\":726:1149   */\n    tag_17:\n        /* \"#utility.yul\":802:808   */\n      0x00\n        /* \"#utility.yul\":810:816   */\n      dup1\n        /* \"#utility.yul\":859:861   */\n      0x40\n        /* \"#utility.yul\":847:856   */\n      dup4\n        /* \"#utility.yul\":838:845   */\n      dup6\n        /* \"#utility.yul\":834:857   */\n      sub\n        /* \"#utility.yul\":830:862   */\n      slt\n        /* \"#utility.yul\":827:829   */\n      iszero\n      tag_51\n      jumpi\n        /* \"#utility.yul\":875:876   */\n      0x00\n        /* \"#utility.yul\":872:873   */\n      dup1\n        /* \"#utility.yul\":865:877   */\n      revert\n        /* \"#utility.yul\":827:829   */\n    tag_51:\n        /* \"#utility.yul\":918:919   */\n      0x00\n        /* \"#utility.yul\":943:1004   */\n      tag_52\n        /* \"#utility.yul\":996:1003   */\n      dup6\n        /* \"#utility.yul\":987:993   */\n      dup3\n        /* \"#utility.yul\":976:985   */\n      dup7\n        /* \"#utility.yul\":972:994   */\n      add\n        /* \"#utility.yul\":943:1004   */\n      tag_39\n      jump\t// in\n    tag_52:\n        /* \"#utility.yul\":933:1004   */\n      swap3\n      pop\n        /* \"#utility.yul\":889:1014   */\n      pop\n        /* \"#utility.yul\":1053:1055   */\n      0x20\n        /* \"#utility.yul\":1079:1132   */\n      tag_53\n        /* \"#utility.yul\":1124:1131   */\n      dup6\n        /* \"#utility.yul\":1115:1121   */\n      dup3\n        /* \"#utility.yul\":1104:1113   */\n      dup7\n        /* \"#utility.yul\":1100:1122   */\n      add\n        /* \"#utility.yul\":1079:1132   */\n      tag_43\n      jump\t// in\n    tag_53:\n        /* \"#utility.yul\":1069:1132   */\n      swap2\n      pop\n        /* \"#utility.yul\":1024:1142   */\n      pop\n        /* \"#utility.yul\":817:1149   */\n      swap3\n      pop\n      swap3\n      swap1\n      pop\n      jump\t// out\n        /* \"#utility.yul\":1155:1521   */\n    tag_54:\n        /* \"#utility.yul\":1297:1300   */\n      0x00\n        /* \"#utility.yul\":1318:1385   */\n      tag_56\n        /* \"#utility.yul\":1382:1384   */\n      0x1a\n        /* \"#utility.yul\":1377:1380   */\n      dup4\n        /* \"#utility.yul\":1318:1385   */\n      tag_57\n      jump\t// in\n    tag_56:\n        /* \"#utility.yul\":1311:1385   */\n      swap2\n      pop\n        /* \"#utility.yul\":1394:1487   */\n      tag_58\n        /* \"#utility.yul\":1483:1486   */\n      dup3\n        /* \"#utility.yul\":1394:1487   */\n      tag_59\n      jump\t// in\n    tag_58:\n        /* \"#utility.yul\":1512:1514   */\n      0x20\n        /* \"#utility.yul\":1507:1510   */\n      dup3\n        /* \"#utility.yul\":1503:1515   */\n      add\n        /* \"#utility.yul\":1496:1515   */\n      swap1\n      pop\n        /* \"#utility.yul\":1301:1521   */\n      swap2\n      swap1\n      pop\n      jump\t// out\n        /* \"#utility.yul\":1527:1645   */\n    tag_60:\n        /* \"#utility.yul\":1614:1638   */\n      tag_62\n        /* \"#utility.yul\":1632:1637   */\n      dup2\n        /* \"#utility.yul\":1614:1638   */\n      tag_63\n      jump\t// in\n    tag_62:\n        /* \"#utility.yul\":1609:1612   */\n      dup3\n        /* \"#utility.yul\":1602:1639   */\n      mstore\n        /* \"#utility.yul\":1592:1645   */\n      pop\n      pop\n      jump\t// out\n        /* \"#utility.yul\":1651:2070   */\n    tag_27:\n        /* \"#utility.yul\":1817:1821   */\n      0x00\n        /* \"#utility.yul\":1855:1857   */\n      0x20\n        /* \"#utility.yul\":1844:1853   */\n      dup3\n        /* \"#utility.yul\":1840:1858   */\n      add\n        /* \"#utility.yul\":1832:1858   */\n      swap1\n      pop\n        /* \"#utility.yul\":1904:1913   */\n      dup2\n        /* \"#utility.yul\":1898:1902   */\n      dup2\n        /* \"#utility.yul\":1894:1914   */\n      sub\n        /* \"#utility.yul\":1890:1891   */\n      0x00\n        /* \"#utility.yul\":1879:1888   */\n      dup4\n        /* \"#utility.yul\":1875:1892   */\n      add\n        /* \"#utility.yul\":1868:1915   */\n      mstore\n        /* \"#utility.yul\":1932:2063   */\n      tag_65\n        /* \"#utility.yul\":2058:2062   */\n      dup2\n        /* \"#utility.yul\":1932:2063   */\n      tag_54\n      jump\t// in\n    tag_65:\n        /* \"#utility.yul\":1924:2063   */\n      swap1\n      pop\n        /* \"#utility.yul\":1822:2070   */\n      swap2\n      swap1\n      pop\n      jump\t// out\n        /* \"#utility.yul\":2076:2298   */\n    tag_13:\n        /* \"#utility.yul\":2169:2173   */\n      0x00\n        /* \"#utility.yul\":2207:2209   */\n      0x20\n        /* \"#utility.yul\":2196:2205   */\n      dup3\n        /* \"#utility.yul\":2192:2210   */\n      add\n        /* \"#utility.yul\":2184:2210   */\n      swap1\n      pop\n        /* \"#utility.yul\":2220:2291   */\n      tag_67\n        /* \"#utility.yul\":2288:2289   */\n      0x00\n        /* \"#utility.yul\":2277:2286   */\n      dup4\n        /* \"#utility.yul\":2273:2290   */\n      add\n        /* \"#utility.yul\":2264:2270   */\n      dup5\n        /* \"#utility.yul\":2220:2291   */\n      tag_60\n      jump\t// in\n    tag_67:\n        /* \"#utility.yul\":2174:2298   */\n      swap3\n      swap2\n      pop\n      pop\n      jump\t// out\n        /* \"#utility.yul\":2304:2473   */\n    tag_57:\n        /* \"#utility.yul\":2388:2399   */\n      0x00\n        /* \"#utility.yul\":2422:2428   */\n      dup3\n        /* \"#utility.yul\":2417:2420   */\n      dup3\n        /* \"#utility.yul\":2410:2429   */\n      mstore\n        /* \"#utility.yul\":2462:2466   */\n      0x20\n        /* \"#utility.yul\":2457:2460   */\n      dup3\n        /* \"#utility.yul\":2453:2467   */\n      add\n        /* \"#utility.yul\":2438:2467   */\n      swap1\n      pop\n        /* \"#utility.yul\":2400:2473   */\n      swap3\n      swap2\n      pop\n      pop\n      jump\t// out\n        /* \"#utility.yul\":2479:2784   */\n    tag_21:\n        /* \"#utility.yul\":2519:2522   */\n      0x00\n        /* \"#utility.yul\":2538:2558   */\n      tag_70\n        /* \"#utility.yul\":2556:2557   */\n      dup3\n        /* \"#utility.yul\":2538:2558   */\n      tag_63\n      jump\t// in\n    tag_70:\n        /* \"#utility.yul\":2533:2558   */\n      swap2\n      pop\n        /* \"#utility.yul\":2572:2592   */\n      tag_71\n        /* \"#utility.yul\":2590:2591   */\n      dup4\n        /* \"#utility.yul\":2572:2592   */\n      tag_63\n      jump\t// in\n    tag_71:\n        /* \"#utility.yul\":2567:2592   */\n      swap3\n      pop\n        /* \"#utility.yul\":2726:2727   */\n      dup3\n        /* \"#utility.yul\":2658:2724   */\n      0xffffffffffffffffffffffffffffffffffffffffffffffffffffffffffffffff\n        /* \"#utility.yul\":2654:2728   */\n      sub\n        /* \"#utility.yul\":2651:2652   */\n      dup3\n        /* \"#utility.yul\":2648:2729   */\n      gt\n        /* \"#utility.yul\":2645:2647   */\n      iszero\n      tag_72\n      jumpi\n        /* \"#utility.yul\":2732:2750   */\n      tag_73\n      tag_74\n      jump\t// in\n    tag_73:\n        /* \"#utility.yul\":2645:2647   */\n    tag_72:\n        /* \"#utility.yul\":2776:2777   */\n      dup3\n        /* \"#utility.yul\":2773:2774   */\n      dup3\n        /* \"#utility.yul\":2769:2778   */\n      add\n        /* \"#utility.yul\":2762:2778   */\n      swap1\n      pop\n        /* \"#utility.yul\":2523:2784   */\n      swap3\n      swap2\n      pop\n      pop\n      jump\t// out\n        /* \"#utility.yul\":2790:2981   */\n    tag_29:\n        /* \"#utility.yul\":2830:2834   */\n      0x00\n        /* \"#utility.yul\":2850:2870   */\n      tag_76\n        /* \"#utility.yul\":2868:2869   */\n      dup3\n        /* \"#utility.yul\":2850:2870   */\n      tag_63\n      jump\t// in\n    tag_76:\n        /* \"#utility.yul\":2845:2870   */\n      swap2\n      pop\n        /* \"#utility.yul\":2884:2904   */\n      tag_77\n        /* \"#utility.yul\":2902:2903   */\n      dup4\n        /* \"#utility.yul\":2884:2904   */\n      tag_63\n      jump\t// in\n    tag_77:\n        /* \"#utility.yul\":2879:2904   */\n      swap3\n      pop\n        /* \"#utility.yul\":2923:2924   */\n      dup3\n        /* \"#utility.yul\":2920:2921   */\n      dup3\n        /* \"#utility.yul\":2917:2925   */\n      lt\n        /* \"#utility.yul\":2914:2916   */\n      iszero\n      tag_78\n      jumpi\n        /* \"#utility.yul\":2928:2946   */\n      tag_79\n      tag_74\n      jump\t// in\n    tag_79:\n        /* \"#utility.yul\":2914:2916   */\n    tag_78:\n        /* \"#utility.yul\":2973:2974   */\n      dup3\n        /* \"#utility.yul\":2970:2971   */\n      dup3\n        /* \"#utility.yul\":2966:2975   */\n      sub\n        /* \"#utility.yul\":2958:2975   */\n      swap1\n      pop\n        /* \"#utility.yul\":2835:2981   */\n      swap3\n      swap2\n      pop\n      pop\n      jump\t// out\n        /* \"#utility.yul\":2987:3083   */\n    tag_80:\n        /* \"#utility.yul\":3024:3031   */\n      0x00\n        /* \"#utility.yul\":3053:3077   */\n      tag_82\n        /* \"#utility.yul\":3071:3076   */\n      dup3\n        /* \"#utility.yul\":3053:3077   */\n      tag_83\n      jump\t// in\n    tag_82:\n        /* \"#utility.yul\":3042:3077   */\n      swap1\n      pop\n        /* \"#utility.yul\":3032:3083   */\n      swap2\n      swap1\n      pop\n      jump\t// out\n        /* \"#utility.yul\":3089:3193   */\n    tag_84:\n        /* \"#utility.yul\":3134:3141   */\n      0x00\n        /* \"#utility.yul\":3163:3187   */\n      tag_86\n        /* \"#utility.yul\":3181:3186   */\n      dup3\n        /* \"#utility.yul\":3163:3187   */\n      tag_83\n      jump\t// in\n    tag_86:\n        /* \"#utility.yul\":3152:3187   */\n      swap1\n      pop\n        /* \"#utility.yul\":3142:3193   */\n      swap2\n      swap1\n      pop\n      jump\t// out\n        /* \"#utility.yul\":3199:3325   */\n    tag_83:\n        /* \"#utility.yul\":3236:3243   */\n      0x00\n        /* \"#utility.yul\":3276:3318   */\n      0xffffffffffffffffffffffffffffffffffffffff\n        /* \"#utility.yul\":3269:3274   */\n      dup3\n        /* \"#utility.yul\":3265:3319   */\n      and\n        /* \"#utility.yul\":3254:3319   */\n      swap1\n      pop\n        /* \"#utility.yul\":3244:3325   */\n      swap2\n      swap1\n      pop\n      jump\t// out\n        /* \"#utility.yul\":3331:3408   */\n    tag_63:\n        /* \"#utility.yul\":3368:3375   */\n      0x00\n        /* \"#utility.yul\":3397:3402   */\n      dup2\n        /* \"#utility.yul\":3386:3402   */\n      swap1\n      pop\n        /* \"#utility.yul\":3376:3408   */\n      swap2\n      swap1\n      pop\n      jump\t// out\n        /* \"#utility.yul\":3414:3594   */\n    tag_74:\n        /* \"#utility.yul\":3462:3539   */\n      0x4e487b7100000000000000000000000000000000000000000000000000000000\n        /* \"#utility.yul\":3459:3460   */\n      0x00\n        /* \"#utility.yul\":3452:3540   */\n      mstore\n        /* \"#utility.yul\":3559:3563   */\n      0x11\n        /* \"#utility.yul\":3556:3557   */\n      0x04\n        /* \"#utility.yul\":3549:3564   */\n      mstore\n        /* \"#utility.yul\":3583:3587   */\n      0x24\n        /* \"#utility.yul\":3580:3581   */\n      0x00\n        /* \"#utility.yul\":3573:3588   */\n      revert\n        /* \"#utility.yul\":3600:3776   */\n    tag_59:\n        /* \"#utility.yul\":3740:3768   */\n      0x596f7520646f6e74206861766520656e6f7567682066756e6473000000000000\n        /* \"#utility.yul\":3736:3737   */\n      0x00\n        /* \"#utility.yul\":3728:3734   */\n      dup3\n        /* \"#utility.yul\":3724:3738   */\n      add\n        /* \"#utility.yul\":3717:3769   */\n      mstore\n        /* \"#utility.yul\":3706:3776   */\n      pop\n      jump\t// out\n        /* \"#utility.yul\":3782:3904   */\n    tag_38:\n        /* \"#utility.yul\":3855:3879   */\n      tag_92\n        /* \"#utility.yul\":3873:3878   */\n      dup2\n        /* \"#utility.yul\":3855:3879   */\n      tag_80\n      jump\t// in\n    tag_92:\n        /* \"#utility.yul\":3848:3853   */\n      dup2\n        /* \"#utility.yul\":3845:3880   */\n      eq\n        /* \"#utility.yul\":3835:3837   */\n      tag_93\n      jumpi\n        /* \"#utility.yul\":3894:3895   */\n      0x00\n        /* \"#utility.yul\":3891:3892   */\n      dup1\n        /* \"#utility.yul\":3884:3896   */\n      revert\n        /* \"#utility.yul\":3835:3837   */\n    tag_93:\n        /* \"#utility.yul\":3825:3904   */\n      pop\n      jump\t// out\n        /* \"#utility.yul\":3910:4048   */\n    tag_42:\n        /* \"#utility.yul\":3991:4023   */\n      tag_95\n        /* \"#utility.yul\":4017:4022   */\n      dup2\n        /* \"#utility.yul\":3991:4023   */\n      tag_84\n      jump\t// in\n    tag_95:\n        /* \"#utility.yul\":3984:3989   */\n      dup2\n        /* \"#utility.yul\":3981:4024   */\n      eq\n        /* \"#utility.yul\":3971:3973   */\n      tag_96\n      jumpi\n        /* \"#utility.yul\":4038:4039   */\n      0x00\n        /* \"#utility.yul\":4035:4036   */\n      dup1\n        /* \"#utility.yul\":4028:4040   */\n      revert\n        /* \"#utility.yul\":3971:3973   */\n    tag_96:\n        /* \"#utility.yul\":3961:4048   */\n      pop\n      jump\t// out\n        /* \"#utility.yul\":4054:4176   */\n    tag_46:\n        /* \"#utility.yul\":4127:4151   */\n      tag_98\n        /* \"#utility.yul\":4145:4150   */\n      dup2\n        /* \"#utility.yul\":4127:4151   */\n      tag_63\n      jump\t// in\n    tag_98:\n        /* \"#utility.yul\":4120:4125   */\n      dup2\n        /* \"#utility.yul\":4117:4152   */\n      eq\n        /* \"#utility.yul\":4107:4109   */\n      tag_99\n      jumpi\n        /* \"#utility.yul\":4166:4167   */\n      0x00\n        /* \"#utility.yul\":4163:4164   */\n      dup1\n        /* \"#utility.yul\":4156:4168   */\n      revert\n        /* \"#utility.yul\":4107:4109   */\n    tag_99:\n        /* \"#utility.yul\":4097:4176   */\n      pop\n      jump\t// out\n\n    auxdata: 0xa264697066735822122064b2ab5206dbbc318d518be57c37345408dc7e36376b5856e5ed61cd536a6c5a64736f6c63430008040033\n}\n",
				"bytecode": {
					"linkReferences": {},
					"object": "608060405234801561001057600080fd5b50610682806100206000396000f3fe6080604052600436106100345760003560e01c80636d26ec1814610039578063d18a42e114610043578063f274c89714610080575b600080fd5b6100416100a9565b005b34801561004f57600080fd5b5061006a600480360381019061006591906103f4565b6101be565b60405161007791906104ab565b60405180910390f35b34801561008c57600080fd5b506100a760048036038101906100a2919061041d565b6101d6565b005b6000803373ffffffffffffffffffffffffffffffffffffffff1673ffffffffffffffffffffffffffffffffffffffff16815260200190815260200160002054346000803373ffffffffffffffffffffffffffffffffffffffff1673ffffffffffffffffffffffffffffffffffffffff1681526020019081526020016000205461013291906104d7565b1015610167577f4e487b7100000000000000000000000000000000000000000000000000000000600052600160045260246000fd5b346000803373ffffffffffffffffffffffffffffffffffffffff1673ffffffffffffffffffffffffffffffffffffffff16815260200190815260200160002060008282546101b591906104d7565b92505081905550565b60006020528060005260406000206000915090505481565b6000803373ffffffffffffffffffffffffffffffffffffffff1673ffffffffffffffffffffffffffffffffffffffff16815260200190815260200160002054811115610257576040517f08c379a000000000000000000000000000000000000000000000000000000000815260040161024e9061048b565b60405180910390fd5b806000803373ffffffffffffffffffffffffffffffffffffffff1673ffffffffffffffffffffffffffffffffffffffff168152602001908152602001600020546102a1919061052d565b6000803373ffffffffffffffffffffffffffffffffffffffff1673ffffffffffffffffffffffffffffffffffffffff168152602001908152602001600020541015610315577f4e487b7100000000000000000000000000000000000000000000000000000000600052600160045260246000fd5b806000803373ffffffffffffffffffffffffffffffffffffffff1673ffffffffffffffffffffffffffffffffffffffff1681526020019081526020016000206000828254610363919061052d565b925050819055508173ffffffffffffffffffffffffffffffffffffffff166108fc829081150290604051600060405180830381858888f193505050501580156103b0573d6000803e3d6000fd5b505050565b6000813590506103c481610607565b92915050565b6000813590506103d98161061e565b92915050565b6000813590506103ee81610635565b92915050565b60006020828403121561040657600080fd5b6000610414848285016103b5565b91505092915050565b6000806040838503121561043057600080fd5b600061043e858286016103ca565b925050602061044f858286016103df565b9150509250929050565b6000610466601a836104c6565b9150610471826105de565b602082019050919050565b610485816105a5565b82525050565b600060208201905081810360008301526104a481610459565b9050919050565b60006020820190506104c0600083018461047c565b92915050565b600082825260208201905092915050565b60006104e2826105a5565b91506104ed836105a5565b9250827fffffffffffffffffffffffffffffffffffffffffffffffffffffffffffffffff03821115610522576105216105af565b5b828201905092915050565b6000610538826105a5565b9150610543836105a5565b925082821015610556576105556105af565b5b828203905092915050565b600061056c82610585565b9050919050565b600061057e82610585565b9050919050565b600073ffffffffffffffffffffffffffffffffffffffff82169050919050565b6000819050919050565b7f4e487b7100000000000000000000000000000000000000000000000000000000600052601160045260246000fd5b7f596f7520646f6e74206861766520656e6f7567682066756e6473000000000000600082015250565b61061081610561565b811461061b57600080fd5b50565b61062781610573565b811461063257600080fd5b50565b61063e816105a5565b811461064957600080fd5b5056fea264697066735822122064b2ab5206dbbc318d518be57c37345408dc7e36376b5856e5ed61cd536a6c5a64736f6c63430008040033",
					"opcodes": "PUSH1 0x80 PUSH1 0x40 MSTORE CALLVALUE DUP1 ISZERO PUSH2 0x10 JUMPI PUSH1 0x0 DUP1 REVERT JUMPDEST POP PUSH2 0x682 DUP1 PUSH2 0x20 PUSH1 0x0 CODECOPY PUSH1 0x0 RETURN INVALID PUSH1 0x80 PUSH1 0x40 MSTORE PUSH1 0x4 CALLDATASIZE LT PUSH2 0x34 JUMPI PUSH1 0x0 CALLDATALOAD PUSH1 0xE0 SHR DUP1 PUSH4 0x6D26EC18 EQ PUSH2 0x39 JUMPI DUP1 PUSH4 0xD18A42E1 EQ PUSH2 0x43 JUMPI DUP1 PUSH4 0xF274C897 EQ PUSH2 0x80 JUMPI JUMPDEST PUSH1 0x0 DUP1 REVERT JUMPDEST PUSH2 0x41 PUSH2 0xA9 JUMP JUMPDEST STOP JUMPDEST CALLVALUE DUP1 ISZERO PUSH2 0x4F JUMPI PUSH1 0x0 DUP1 REVERT JUMPDEST POP PUSH2 0x6A PUSH1 0x4 DUP1 CALLDATASIZE SUB DUP2 ADD SWAP1 PUSH2 0x65 SWAP2 SWAP1 PUSH2 0x3F4 JUMP JUMPDEST PUSH2 0x1BE JUMP JUMPDEST PUSH1 0x40 MLOAD PUSH2 0x77 SWAP2 SWAP1 PUSH2 0x4AB JUMP JUMPDEST PUSH1 0x40 MLOAD DUP1 SWAP2 SUB SWAP1 RETURN JUMPDEST CALLVALUE DUP1 ISZERO PUSH2 0x8C JUMPI PUSH1 0x0 DUP1 REVERT JUMPDEST POP PUSH2 0xA7 PUSH1 0x4 DUP1 CALLDATASIZE SUB DUP2 ADD SWAP1 PUSH2 0xA2 SWAP2 SWAP1 PUSH2 0x41D JUMP JUMPDEST PUSH2 0x1D6 JUMP JUMPDEST STOP JUMPDEST PUSH1 0x0 DUP1 CALLER PUSH20 0xFFFFFFFFFFFFFFFFFFFFFFFFFFFFFFFFFFFFFFFF AND PUSH20 0xFFFFFFFFFFFFFFFFFFFFFFFFFFFFFFFFFFFFFFFF AND DUP2 MSTORE PUSH1 0x20 ADD SWAP1 DUP2 MSTORE PUSH1 0x20 ADD PUSH1 0x0 KECCAK256 SLOAD CALLVALUE PUSH1 0x0 DUP1 CALLER PUSH20 0xFFFFFFFFFFFFFFFFFFFFFFFFFFFFFFFFFFFFFFFF AND PUSH20 0xFFFFFFFFFFFFFFFFFFFFFFFFFFFFFFFFFFFFFFFF AND DUP2 MSTORE PUSH1 0x20 ADD SWAP1 DUP2 MSTORE PUSH1 0x20 ADD PUSH1 0x0 KECCAK256 SLOAD PUSH2 0x132 SWAP2 SWAP1 PUSH2 0x4D7 JUMP JUMPDEST LT ISZERO PUSH2 0x167 JUMPI PUSH32 0x4E487B7100000000000000000000000000000000000000000000000000000000 PUSH1 0x0 MSTORE PUSH1 0x1 PUSH1 0x4 MSTORE PUSH1 0x24 PUSH1 0x0 REVERT JUMPDEST CALLVALUE PUSH1 0x0 DUP1 CALLER PUSH20 0xFFFFFFFFFFFFFFFFFFFFFFFFFFFFFFFFFFFFFFFF AND PUSH20 0xFFFFFFFFFFFFFFFFFFFFFFFFFFFFFFFFFFFFFFFF AND DUP2 MSTORE PUSH1 0x20 ADD SWAP1 DUP2 MSTORE PUSH1 0x20 ADD PUSH1 0x0 KECCAK256 PUSH1 0x0 DUP3 DUP3 SLOAD PUSH2 0x1B5 SWAP2 SWAP1 PUSH2 0x4D7 JUMP JUMPDEST SWAP3 POP POP DUP2 SWAP1 SSTORE POP JUMP JUMPDEST PUSH1 0x0 PUSH1 0x20 MSTORE DUP1 PUSH1 0x0 MSTORE PUSH1 0x40 PUSH1 0x0 KECCAK256 PUSH1 0x0 SWAP2 POP SWAP1 POP SLOAD DUP2 JUMP JUMPDEST PUSH1 0x0 DUP1 CALLER PUSH20 0xFFFFFFFFFFFFFFFFFFFFFFFFFFFFFFFFFFFFFFFF AND PUSH20 0xFFFFFFFFFFFFFFFFFFFFFFFFFFFFFFFFFFFFFFFF AND DUP2 MSTORE PUSH1 0x20 ADD SWAP1 DUP2 MSTORE PUSH1 0x20 ADD PUSH1 0x0 KECCAK256 SLOAD DUP2 GT ISZERO PUSH2 0x257 JUMPI PUSH1 0x40 MLOAD PUSH32 0x8C379A000000000000000000000000000000000000000000000000000000000 DUP2 MSTORE PUSH1 0x4 ADD PUSH2 0x24E SWAP1 PUSH2 0x48B JUMP JUMPDEST PUSH1 0x40 MLOAD DUP1 SWAP2 SUB SWAP1 REVERT JUMPDEST DUP1 PUSH1 0x0 DUP1 CALLER PUSH20 0xFFFFFFFFFFFFFFFFFFFFFFFFFFFFFFFFFFFFFFFF AND PUSH20 0xFFFFFFFFFFFFFFFFFFFFFFFFFFFFFFFFFFFFFFFF AND DUP2 MSTORE PUSH1 0x20 ADD SWAP1 DUP2 MSTORE PUSH1 0x20 ADD PUSH1 0x0 KECCAK256 SLOAD PUSH2 0x2A1 SWAP2 SWAP1 PUSH2 0x52D JUMP JUMPDEST PUSH1 0x0 DUP1 CALLER PUSH20 0xFFFFFFFFFFFFFFFFFFFFFFFFFFFFFFFFFFFFFFFF AND PUSH20 0xFFFFFFFFFFFFFFFFFFFFFFFFFFFFFFFFFFFFFFFF AND DUP2 MSTORE PUSH1 0x20 ADD SWAP1 DUP2 MSTORE PUSH1 0x20 ADD PUSH1 0x0 KECCAK256 SLOAD LT ISZERO PUSH2 0x315 JUMPI PUSH32 0x4E487B7100000000000000000000000000000000000000000000000000000000 PUSH1 0x0 MSTORE PUSH1 0x1 PUSH1 0x4 MSTORE PUSH1 0x24 PUSH1 0x0 REVERT JUMPDEST DUP1 PUSH1 0x0 DUP1 CALLER PUSH20 0xFFFFFFFFFFFFFFFFFFFFFFFFFFFFFFFFFFFFFFFF AND PUSH20 0xFFFFFFFFFFFFFFFFFFFFFFFFFFFFFFFFFFFFFFFF AND DUP2 MSTORE PUSH1 0x20 ADD SWAP1 DUP2 MSTORE PUSH1 0x20 ADD PUSH1 0x0 KECCAK256 PUSH1 0x0 DUP3 DUP3 SLOAD PUSH2 0x363 SWAP2 SWAP1 PUSH2 0x52D JUMP JUMPDEST SWAP3 POP POP DUP2 SWAP1 SSTORE POP DUP2 PUSH20 0xFFFFFFFFFFFFFFFFFFFFFFFFFFFFFFFFFFFFFFFF AND PUSH2 0x8FC DUP3 SWAP1 DUP2 ISZERO MUL SWAP1 PUSH1 0x40 MLOAD PUSH1 0x0 PUSH1 0x40 MLOAD DUP1 DUP4 SUB DUP2 DUP6 DUP9 DUP9 CALL SWAP4 POP POP POP POP ISZERO DUP1 ISZERO PUSH2 0x3B0 JUMPI RETURNDATASIZE PUSH1 0x0 DUP1 RETURNDATACOPY RETURNDATASIZE PUSH1 0x0 REVERT JUMPDEST POP POP POP JUMP JUMPDEST PUSH1 0x0 DUP2 CALLDATALOAD SWAP1 POP PUSH2 0x3C4 DUP2 PUSH2 0x607 JUMP JUMPDEST SWAP3 SWAP2 POP POP JUMP JUMPDEST PUSH1 0x0 DUP2 CALLDATALOAD SWAP1 POP PUSH2 0x3D9 DUP2 PUSH2 0x61E JUMP JUMPDEST SWAP3 SWAP2 POP POP JUMP JUMPDEST PUSH1 0x0 DUP2 CALLDATALOAD SWAP1 POP PUSH2 0x3EE DUP2 PUSH2 0x635 JUMP JUMPDEST SWAP3 SWAP2 POP POP JUMP JUMPDEST PUSH1 0x0 PUSH1 0x20 DUP3 DUP5 SUB SLT ISZERO PUSH2 0x406 JUMPI PUSH1 0x0 DUP1 REVERT JUMPDEST PUSH1 0x0 PUSH2 0x414 DUP5 DUP3 DUP6 ADD PUSH2 0x3B5 JUMP JUMPDEST SWAP2 POP POP SWAP3 SWAP2 POP POP JUMP JUMPDEST PUSH1 0x0 DUP1 PUSH1 0x40 DUP4 DUP6 SUB SLT ISZERO PUSH2 0x430 JUMPI PUSH1 0x0 DUP1 REVERT JUMPDEST PUSH1 0x0 PUSH2 0x43E DUP6 DUP3 DUP7 ADD PUSH2 0x3CA JUMP JUMPDEST SWAP3 POP POP PUSH1 0x20 PUSH2 0x44F DUP6 DUP3 DUP7 ADD PUSH2 0x3DF JUMP JUMPDEST SWAP2 POP POP SWAP3 POP SWAP3 SWAP1 POP JUMP JUMPDEST PUSH1 0x0 PUSH2 0x466 PUSH1 0x1A DUP4 PUSH2 0x4C6 JUMP JUMPDEST SWAP2 POP PUSH2 0x471 DUP3 PUSH2 0x5DE JUMP JUMPDEST PUSH1 0x20 DUP3 ADD SWAP1 POP SWAP2 SWAP1 POP JUMP JUMPDEST PUSH2 0x485 DUP2 PUSH2 0x5A5 JUMP JUMPDEST DUP3 MSTORE POP POP JUMP JUMPDEST PUSH1 0x0 PUSH1 0x20 DUP3 ADD SWAP1 POP DUP2 DUP2 SUB PUSH1 0x0 DUP4 ADD MSTORE PUSH2 0x4A4 DUP2 PUSH2 0x459 JUMP JUMPDEST SWAP1 POP SWAP2 SWAP1 POP JUMP JUMPDEST PUSH1 0x0 PUSH1 0x20 DUP3 ADD SWAP1 POP PUSH2 0x4C0 PUSH1 0x0 DUP4 ADD DUP5 PUSH2 0x47C JUMP JUMPDEST SWAP3 SWAP2 POP POP JUMP JUMPDEST PUSH1 0x0 DUP3 DUP3 MSTORE PUSH1 0x20 DUP3 ADD SWAP1 POP SWAP3 SWAP2 POP POP JUMP JUMPDEST PUSH1 0x0 PUSH2 0x4E2 DUP3 PUSH2 0x5A5 JUMP JUMPDEST SWAP2 POP PUSH2 0x4ED DUP4 PUSH2 0x5A5 JUMP JUMPDEST SWAP3 POP DUP3 PUSH32 0xFFFFFFFFFFFFFFFFFFFFFFFFFFFFFFFFFFFFFFFFFFFFFFFFFFFFFFFFFFFFFFFF SUB DUP3 GT ISZERO PUSH2 0x522 JUMPI PUSH2 0x521 PUSH2 0x5AF JUMP JUMPDEST JUMPDEST DUP3 DUP3 ADD SWAP1 POP SWAP3 SWAP2 POP POP JUMP JUMPDEST PUSH1 0x0 PUSH2 0x538 DUP3 PUSH2 0x5A5 JUMP JUMPDEST SWAP2 POP PUSH2 0x543 DUP4 PUSH2 0x5A5 JUMP JUMPDEST SWAP3 POP DUP3 DUP3 LT ISZERO PUSH2 0x556 JUMPI PUSH2 0x555 PUSH2 0x5AF JUMP JUMPDEST JUMPDEST DUP3 DUP3 SUB SWAP1 POP SWAP3 SWAP2 POP POP JUMP JUMPDEST PUSH1 0x0 PUSH2 0x56C DUP3 PUSH2 0x585 JUMP JUMPDEST SWAP1 POP SWAP2 SWAP1 POP JUMP JUMPDEST PUSH1 0x0 PUSH2 0x57E DUP3 PUSH2 0x585 JUMP JUMPDEST SWAP1 POP SWAP2 SWAP1 POP JUMP JUMPDEST PUSH1 0x0 PUSH20 0xFFFFFFFFFFFFFFFFFFFFFFFFFFFFFFFFFFFFFFFF DUP3 AND SWAP1 POP SWAP2 SWAP1 POP JUMP JUMPDEST PUSH1 0x0 DUP2 SWAP1 POP SWAP2 SWAP1 POP JUMP JUMPDEST PUSH32 0x4E487B7100000000000000000000000000000000000000000000000000000000 PUSH1 0x0 MSTORE PUSH1 0x11 PUSH1 0x4 MSTORE PUSH1 0x24 PUSH1 0x0 REVERT JUMPDEST PUSH32 0x596F7520646F6E74206861766520656E6F7567682066756E6473000000000000 PUSH1 0x0 DUP3 ADD MSTORE POP JUMP JUMPDEST PUSH2 0x610 DUP2 PUSH2 0x561 JUMP JUMPDEST DUP2 EQ PUSH2 0x61B JUMPI PUSH1 0x0 DUP1 REVERT JUMPDEST POP JUMP JUMPDEST PUSH2 0x627 DUP2 PUSH2 0x573 JUMP JUMPDEST DUP2 EQ PUSH2 0x632 JUMPI PUSH1 0x0 DUP1 REVERT JUMPDEST POP JUMP JUMPDEST PUSH2 0x63E DUP2 PUSH2 0x5A5 JUMP JUMPDEST DUP2 EQ PUSH2 0x649 JUMPI PUSH1 0x0 DUP1 REVERT JUMPDEST POP JUMP INVALID LOG2 PUSH5 0x6970667358 0x22 SLT KECCAK256 PUSH5 0xB2AB5206DB 0xBC BALANCE DUP14 MLOAD DUP12 0xE5 PUSH29 0x37345408DC7E36376B5856E5ED61CD536A6C5A64736F6C634300080400 CALLER "
				},
				"gasEstimates": {
					"creation": {
						"codeDepositCost": "333200",
						"executionCost": "374",
						"totalCost": "333574"
					},
					"external": {
						"balanceReceived(address)": "1514",
						"receiveMoney()": "infinite",
						"withdrawMoney(address,uint256)": "infinite"
					}
				},
				"methodIdentifiers": {
					"balanceReceived(address)": "d18a42e1",
					"receiveMoney()": "6d26ec18",
					"withdrawMoney(address,uint256)": "f274c897"
				}
			},
			"storageLayout": {
				"storage": [
					{
						"astId": 5,
						"contract": "contracts/basics/09-FunctionsExample.sol:FunctionsExample",
						"label": "balanceReceived",
						"offset": 0,
						"slot": "0",
						"type": "t_mapping(t_address,t_uint256)"
					}
				],
				"types": {
					"t_address": {
						"encoding": "inplace",
						"label": "address",
						"numberOfBytes": "20"
					},
					"t_mapping(t_address,t_uint256)": {
						"encoding": "mapping",
						"key": "t_address",
						"label": "mapping(address => uint256)",
						"numberOfBytes": "32",
						"value": "t_uint256"
					},
					"t_uint256": {
						"encoding": "inplace",
						"label": "uint256",
						"numberOfBytes": "32"
					}
				}
			},
			"userdoc": {
				"kind": "user",
				"methods": {},
				"version": 1
			}
		}
	}
}