{
	"contracts/basics/04-StartStopUpdateExample.sol": {
		"StartStopUpdateExample": {
			"abi": [
				{
					"inputs": [],
					"stateMutability": "nonpayable",
					"type": "constructor"
				},
				{
					"inputs": [],
					"name": "sendMoney",
					"outputs": [],
					"stateMutability": "payable",
					"type": "function"
				},
				{
					"inputs": [
						{
							"internalType": "address payable",
							"name": "_to",
							"type": "address"
						}
					],
					"name": "withdrawMoney",
					"outputs": [],
					"stateMutability": "nonpayable",
					"type": "function"
				}
			],
			"devdoc": {
				"kind": "dev",
				"methods": {},
				"version": 1
			},
			"evm": {
				"assembly": "    /* \"contracts/basics/04-StartStopUpdateExample.sol\":58:374  contract StartStopUpdateExample{\r... */\n  mstore(0x40, 0x80)\n    /* \"contracts/basics/04-StartStopUpdateExample.sol\":116:166  constructor(){\r... */\n  callvalue\n  dup1\n  iszero\n  tag_1\n  jumpi\n  0x00\n  dup1\n  revert\ntag_1:\n  pop\n    /* \"contracts/basics/04-StartStopUpdateExample.sol\":148:158  msg.sender */\n  caller\n    /* \"contracts/basics/04-StartStopUpdateExample.sol\":140:145  owner */\n  0x00\n  dup1\n    /* \"contracts/basics/04-StartStopUpdateExample.sol\":140:158  owner = msg.sender */\n  0x0100\n  exp\n  dup2\n  sload\n  dup2\n  0xffffffffffffffffffffffffffffffffffffffff\n  mul\n  not\n  and\n  swap1\n  dup4\n  0xffffffffffffffffffffffffffffffffffffffff\n  and\n  mul\n  or\n  swap1\n  sstore\n  pop\n    /* \"contracts/basics/04-StartStopUpdateExample.sol\":58:374  contract StartStopUpdateExample{\r... */\n  dataSize(sub_0)\n  dup1\n  dataOffset(sub_0)\n  0x00\n  codecopy\n  0x00\n  return\nstop\n\nsub_0: assembly {\n        /* \"contracts/basics/04-StartStopUpdateExample.sol\":58:374  contract StartStopUpdateExample{\r... */\n      mstore(0x40, 0x80)\n      jumpi(tag_1, lt(calldatasize, 0x04))\n      shr(0xe0, calldataload(0x00))\n      dup1\n      0x2f971029\n      eq\n      tag_2\n      jumpi\n      dup1\n      0xcbedbf5a\n      eq\n      tag_3\n      jumpi\n    tag_1:\n      0x00\n      dup1\n      revert\n        /* \"contracts/basics/04-StartStopUpdateExample.sol\":227:371  function withdrawMoney(address payable _to) public{\r... */\n    tag_2:\n      callvalue\n      dup1\n      iszero\n      tag_4\n      jumpi\n      0x00\n      dup1\n      revert\n    tag_4:\n      pop\n      tag_5\n      0x04\n      dup1\n      calldatasize\n      sub\n      dup2\n      add\n      swap1\n      tag_6\n      swap2\n      swap1\n      tag_7\n      jump\t// in\n    tag_6:\n      tag_8\n      jump\t// in\n    tag_5:\n      stop\n        /* \"contracts/basics/04-StartStopUpdateExample.sol\":174:219  function sendMoney() public payable{\r... */\n    tag_3:\n      tag_9\n      tag_10\n      jump\t// in\n    tag_9:\n      stop\n        /* \"contracts/basics/04-StartStopUpdateExample.sol\":227:371  function withdrawMoney(address payable _to) public{\r... */\n    tag_8:\n        /* \"contracts/basics/04-StartStopUpdateExample.sol\":308:313  owner */\n      0x00\n      dup1\n      sload\n      swap1\n      0x0100\n      exp\n      swap1\n      div\n      0xffffffffffffffffffffffffffffffffffffffff\n      and\n        /* \"contracts/basics/04-StartStopUpdateExample.sol\":296:313  msg.sender==owner */\n      0xffffffffffffffffffffffffffffffffffffffff\n      and\n        /* \"contracts/basics/04-StartStopUpdateExample.sol\":296:306  msg.sender */\n      caller\n        /* \"contracts/basics/04-StartStopUpdateExample.sol\":296:313  msg.sender==owner */\n      0xffffffffffffffffffffffffffffffffffffffff\n      and\n      eq\n        /* \"contracts/basics/04-StartStopUpdateExample.sol\":288:317  require(msg.sender==owner,\"\") */\n      tag_12\n      jumpi\n      mload(0x40)\n      0x08c379a000000000000000000000000000000000000000000000000000000000\n      dup2\n      mstore\n      0x04\n      add\n      tag_13\n      swap1\n      tag_14\n      jump\t// in\n    tag_13:\n      mload(0x40)\n      dup1\n      swap2\n      sub\n      swap1\n      revert\n    tag_12:\n        /* \"contracts/basics/04-StartStopUpdateExample.sol\":328:331  _to */\n      dup1\n        /* \"contracts/basics/04-StartStopUpdateExample.sol\":328:340  _to.transfer */\n      0xffffffffffffffffffffffffffffffffffffffff\n      and\n        /* \"contracts/basics/04-StartStopUpdateExample.sol\":328:363  _to.transfer(address(this).balance) */\n      0x08fc\n        /* \"contracts/basics/04-StartStopUpdateExample.sol\":341:362  address(this).balance */\n      selfbalance\n        /* \"contracts/basics/04-StartStopUpdateExample.sol\":328:363  _to.transfer(address(this).balance) */\n      swap1\n      dup2\n      iszero\n      mul\n      swap1\n      mload(0x40)\n      0x00\n      mload(0x40)\n      dup1\n      dup4\n      sub\n      dup2\n      dup6\n      dup9\n      dup9\n      call\n      swap4\n      pop\n      pop\n      pop\n      pop\n      iszero\n      dup1\n      iszero\n      tag_16\n      jumpi\n      returndatasize\n      0x00\n      dup1\n      returndatacopy\n      revert(0x00, returndatasize)\n    tag_16:\n      pop\n        /* \"contracts/basics/04-StartStopUpdateExample.sol\":227:371  function withdrawMoney(address payable _to) public{\r... */\n      pop\n      jump\t// out\n        /* \"contracts/basics/04-StartStopUpdateExample.sol\":174:219  function sendMoney() public payable{\r... */\n    tag_10:\n      jump\t// out\n        /* \"#utility.yul\":7:162   */\n    tag_19:\n        /* \"#utility.yul\":61:66   */\n      0x00\n        /* \"#utility.yul\":99:105   */\n      dup2\n        /* \"#utility.yul\":86:106   */\n      calldataload\n        /* \"#utility.yul\":77:106   */\n      swap1\n      pop\n        /* \"#utility.yul\":115:156   */\n      tag_21\n        /* \"#utility.yul\":150:155   */\n      dup2\n        /* \"#utility.yul\":115:156   */\n      tag_22\n      jump\t// in\n    tag_21:\n        /* \"#utility.yul\":7:162   */\n      swap3\n      swap2\n      pop\n      pop\n      jump\t// out\n        /* \"#utility.yul\":168:513   */\n    tag_7:\n        /* \"#utility.yul\":235:241   */\n      0x00\n        /* \"#utility.yul\":284:286   */\n      0x20\n        /* \"#utility.yul\":272:281   */\n      dup3\n        /* \"#utility.yul\":263:270   */\n      dup5\n        /* \"#utility.yul\":259:282   */\n      sub\n        /* \"#utility.yul\":255:287   */\n      slt\n        /* \"#utility.yul\":252:371   */\n      iszero\n      tag_24\n      jumpi\n        /* \"#utility.yul\":290:369   */\n      tag_25\n      tag_26\n      jump\t// in\n    tag_25:\n        /* \"#utility.yul\":252:371   */\n    tag_24:\n        /* \"#utility.yul\":410:411   */\n      0x00\n        /* \"#utility.yul\":435:496   */\n      tag_27\n        /* \"#utility.yul\":488:495   */\n      dup5\n        /* \"#utility.yul\":479:485   */\n      dup3\n        /* \"#utility.yul\":468:477   */\n      dup6\n        /* \"#utility.yul\":464:486   */\n      add\n        /* \"#utility.yul\":435:496   */\n      tag_19\n      jump\t// in\n    tag_27:\n        /* \"#utility.yul\":425:496   */\n      swap2\n      pop\n        /* \"#utility.yul\":381:506   */\n      pop\n        /* \"#utility.yul\":168:513   */\n      swap3\n      swap2\n      pop\n      pop\n      jump\t// out\n        /* \"#utility.yul\":519:883   */\n    tag_28:\n        /* \"#utility.yul\":661:664   */\n      0x00\n        /* \"#utility.yul\":682:748   */\n      tag_30\n        /* \"#utility.yul\":746:747   */\n      0x00\n        /* \"#utility.yul\":741:744   */\n      dup4\n        /* \"#utility.yul\":682:748   */\n      tag_31\n      jump\t// in\n    tag_30:\n        /* \"#utility.yul\":675:748   */\n      swap2\n      pop\n        /* \"#utility.yul\":757:850   */\n      tag_32\n        /* \"#utility.yul\":846:849   */\n      dup3\n        /* \"#utility.yul\":757:850   */\n      tag_33\n      jump\t// in\n    tag_32:\n        /* \"#utility.yul\":875:876   */\n      0x00\n        /* \"#utility.yul\":870:873   */\n      dup3\n        /* \"#utility.yul\":866:877   */\n      add\n        /* \"#utility.yul\":859:877   */\n      swap1\n      pop\n        /* \"#utility.yul\":519:883   */\n      swap2\n      swap1\n      pop\n      jump\t// out\n        /* \"#utility.yul\":889:1308   */\n    tag_14:\n        /* \"#utility.yul\":1055:1059   */\n      0x00\n        /* \"#utility.yul\":1093:1095   */\n      0x20\n        /* \"#utility.yul\":1082:1091   */\n      dup3\n        /* \"#utility.yul\":1078:1096   */\n      add\n        /* \"#utility.yul\":1070:1096   */\n      swap1\n      pop\n        /* \"#utility.yul\":1142:1151   */\n      dup2\n        /* \"#utility.yul\":1136:1140   */\n      dup2\n        /* \"#utility.yul\":1132:1152   */\n      sub\n        /* \"#utility.yul\":1128:1129   */\n      0x00\n        /* \"#utility.yul\":1117:1126   */\n      dup4\n        /* \"#utility.yul\":1113:1130   */\n      add\n        /* \"#utility.yul\":1106:1153   */\n      mstore\n        /* \"#utility.yul\":1170:1301   */\n      tag_35\n        /* \"#utility.yul\":1296:1300   */\n      dup2\n        /* \"#utility.yul\":1170:1301   */\n      tag_28\n      jump\t// in\n    tag_35:\n        /* \"#utility.yul\":1162:1301   */\n      swap1\n      pop\n        /* \"#utility.yul\":889:1308   */\n      swap2\n      swap1\n      pop\n      jump\t// out\n        /* \"#utility.yul\":1395:1564   */\n    tag_31:\n        /* \"#utility.yul\":1479:1490   */\n      0x00\n        /* \"#utility.yul\":1513:1519   */\n      dup3\n        /* \"#utility.yul\":1508:1511   */\n      dup3\n        /* \"#utility.yul\":1501:1520   */\n      mstore\n        /* \"#utility.yul\":1553:1557   */\n      0x20\n        /* \"#utility.yul\":1548:1551   */\n      dup3\n        /* \"#utility.yul\":1544:1558   */\n      add\n        /* \"#utility.yul\":1529:1558   */\n      swap1\n      pop\n        /* \"#utility.yul\":1395:1564   */\n      swap3\n      swap2\n      pop\n      pop\n      jump\t// out\n        /* \"#utility.yul\":1570:1674   */\n    tag_39:\n        /* \"#utility.yul\":1615:1622   */\n      0x00\n        /* \"#utility.yul\":1644:1668   */\n      tag_41\n        /* \"#utility.yul\":1662:1667   */\n      dup3\n        /* \"#utility.yul\":1644:1668   */\n      tag_42\n      jump\t// in\n    tag_41:\n        /* \"#utility.yul\":1633:1668   */\n      swap1\n      pop\n        /* \"#utility.yul\":1570:1674   */\n      swap2\n      swap1\n      pop\n      jump\t// out\n        /* \"#utility.yul\":1680:1806   */\n    tag_42:\n        /* \"#utility.yul\":1717:1724   */\n      0x00\n        /* \"#utility.yul\":1757:1799   */\n      0xffffffffffffffffffffffffffffffffffffffff\n        /* \"#utility.yul\":1750:1755   */\n      dup3\n        /* \"#utility.yul\":1746:1800   */\n      and\n        /* \"#utility.yul\":1735:1800   */\n      swap1\n      pop\n        /* \"#utility.yul\":1680:1806   */\n      swap2\n      swap1\n      pop\n      jump\t// out\n        /* \"#utility.yul\":1935:2052   */\n    tag_26:\n        /* \"#utility.yul\":2044:2045   */\n      0x00\n        /* \"#utility.yul\":2041:2042   */\n      dup1\n        /* \"#utility.yul\":2034:2046   */\n      revert\n        /* \"#utility.yul\":2058:2172   */\n    tag_33:\n      pop\n      jump\t// out\n        /* \"#utility.yul\":2178:2316   */\n    tag_22:\n        /* \"#utility.yul\":2259:2291   */\n      tag_49\n        /* \"#utility.yul\":2285:2290   */\n      dup2\n        /* \"#utility.yul\":2259:2291   */\n      tag_39\n      jump\t// in\n    tag_49:\n        /* \"#utility.yul\":2252:2257   */\n      dup2\n        /* \"#utility.yul\":2249:2292   */\n      eq\n        /* \"#utility.yul\":2239:2310   */\n      tag_50\n      jumpi\n        /* \"#utility.yul\":2306:2307   */\n      0x00\n        /* \"#utility.yul\":2303:2304   */\n      dup1\n        /* \"#utility.yul\":2296:2308   */\n      revert\n        /* \"#utility.yul\":2239:2310   */\n    tag_50:\n        /* \"#utility.yul\":2178:2316   */\n      pop\n      jump\t// out\n\n    auxdata: 0xa264697066735822122043b8779200fd83cda8a91e0c9d381e702e5a81bec8e7c7af39706d70651dcaa564736f6c63430008070033\n}\n",
				"bytecode": {
					"linkReferences": {},
					"object": "608060405234801561001057600080fd5b50336000806101000a81548173ffffffffffffffffffffffffffffffffffffffff021916908373ffffffffffffffffffffffffffffffffffffffff160217905550610258806100606000396000f3fe6080604052600436106100295760003560e01c80632f9710291461002e578063cbedbf5a14610057575b600080fd5b34801561003a57600080fd5b5061005560048036038101906100509190610150565b610061565b005b61005f610139565b005b60008054906101000a900473ffffffffffffffffffffffffffffffffffffffff1673ffffffffffffffffffffffffffffffffffffffff163373ffffffffffffffffffffffffffffffffffffffff16146100ef576040517f08c379a00000000000000000000000000000000000000000000000000000000081526004016100e6906101a0565b60405180910390fd5b8073ffffffffffffffffffffffffffffffffffffffff166108fc479081150290604051600060405180830381858888f19350505050158015610135573d6000803e3d6000fd5b5050565b565b60008135905061014a8161020b565b92915050565b60006020828403121561016657610165610203565b5b60006101748482850161013b565b91505092915050565b600061018a6000836101c0565b915061019582610208565b600082019050919050565b600060208201905081810360008301526101b98161017d565b9050919050565b600082825260208201905092915050565b60006101dc826101e3565b9050919050565b600073ffffffffffffffffffffffffffffffffffffffff82169050919050565b600080fd5b50565b610214816101d1565b811461021f57600080fd5b5056fea264697066735822122043b8779200fd83cda8a91e0c9d381e702e5a81bec8e7c7af39706d70651dcaa564736f6c63430008070033",
					"opcodes": "PUSH1 0x80 PUSH1 0x40 MSTORE CALLVALUE DUP1 ISZERO PUSH2 0x10 JUMPI PUSH1 0x0 DUP1 REVERT JUMPDEST POP CALLER PUSH1 0x0 DUP1 PUSH2 0x100 EXP DUP2 SLOAD DUP2 PUSH20 0xFFFFFFFFFFFFFFFFFFFFFFFFFFFFFFFFFFFFFFFF MUL NOT AND SWAP1 DUP4 PUSH20 0xFFFFFFFFFFFFFFFFFFFFFFFFFFFFFFFFFFFFFFFF AND MUL OR SWAP1 SSTORE POP PUSH2 0x258 DUP1 PUSH2 0x60 PUSH1 0x0 CODECOPY PUSH1 0x0 RETURN INVALID PUSH1 0x80 PUSH1 0x40 MSTORE PUSH1 0x4 CALLDATASIZE LT PUSH2 0x29 JUMPI PUSH1 0x0 CALLDATALOAD PUSH1 0xE0 SHR DUP1 PUSH4 0x2F971029 EQ PUSH2 0x2E JUMPI DUP1 PUSH4 0xCBEDBF5A EQ PUSH2 0x57 JUMPI JUMPDEST PUSH1 0x0 DUP1 REVERT JUMPDEST CALLVALUE DUP1 ISZERO PUSH2 0x3A JUMPI PUSH1 0x0 DUP1 REVERT JUMPDEST POP PUSH2 0x55 PUSH1 0x4 DUP1 CALLDATASIZE SUB DUP2 ADD SWAP1 PUSH2 0x50 SWAP2 SWAP1 PUSH2 0x150 JUMP JUMPDEST PUSH2 0x61 JUMP JUMPDEST STOP JUMPDEST PUSH2 0x5F PUSH2 0x139 JUMP JUMPDEST STOP JUMPDEST PUSH1 0x0 DUP1 SLOAD SWAP1 PUSH2 0x100 EXP SWAP1 DIV PUSH20 0xFFFFFFFFFFFFFFFFFFFFFFFFFFFFFFFFFFFFFFFF AND PUSH20 0xFFFFFFFFFFFFFFFFFFFFFFFFFFFFFFFFFFFFFFFF AND CALLER PUSH20 0xFFFFFFFFFFFFFFFFFFFFFFFFFFFFFFFFFFFFFFFF AND EQ PUSH2 0xEF JUMPI PUSH1 0x40 MLOAD PUSH32 0x8C379A000000000000000000000000000000000000000000000000000000000 DUP2 MSTORE PUSH1 0x4 ADD PUSH2 0xE6 SWAP1 PUSH2 0x1A0 JUMP JUMPDEST PUSH1 0x40 MLOAD DUP1 SWAP2 SUB SWAP1 REVERT JUMPDEST DUP1 PUSH20 0xFFFFFFFFFFFFFFFFFFFFFFFFFFFFFFFFFFFFFFFF AND PUSH2 0x8FC SELFBALANCE SWAP1 DUP2 ISZERO MUL SWAP1 PUSH1 0x40 MLOAD PUSH1 0x0 PUSH1 0x40 MLOAD DUP1 DUP4 SUB DUP2 DUP6 DUP9 DUP9 CALL SWAP4 POP POP POP POP ISZERO DUP1 ISZERO PUSH2 0x135 JUMPI RETURNDATASIZE PUSH1 0x0 DUP1 RETURNDATACOPY RETURNDATASIZE PUSH1 0x0 REVERT JUMPDEST POP POP JUMP JUMPDEST JUMP JUMPDEST PUSH1 0x0 DUP2 CALLDATALOAD SWAP1 POP PUSH2 0x14A DUP2 PUSH2 0x20B JUMP JUMPDEST SWAP3 SWAP2 POP POP JUMP JUMPDEST PUSH1 0x0 PUSH1 0x20 DUP3 DUP5 SUB SLT ISZERO PUSH2 0x166 JUMPI PUSH2 0x165 PUSH2 0x203 JUMP JUMPDEST JUMPDEST PUSH1 0x0 PUSH2 0x174 DUP5 DUP3 DUP6 ADD PUSH2 0x13B JUMP JUMPDEST SWAP2 POP POP SWAP3 SWAP2 POP POP JUMP JUMPDEST PUSH1 0x0 PUSH2 0x18A PUSH1 0x0 DUP4 PUSH2 0x1C0 JUMP JUMPDEST SWAP2 POP PUSH2 0x195 DUP3 PUSH2 0x208 JUMP JUMPDEST PUSH1 0x0 DUP3 ADD SWAP1 POP SWAP2 SWAP1 POP JUMP JUMPDEST PUSH1 0x0 PUSH1 0x20 DUP3 ADD SWAP1 POP DUP2 DUP2 SUB PUSH1 0x0 DUP4 ADD MSTORE PUSH2 0x1B9 DUP2 PUSH2 0x17D JUMP JUMPDEST SWAP1 POP SWAP2 SWAP1 POP JUMP JUMPDEST PUSH1 0x0 DUP3 DUP3 MSTORE PUSH1 0x20 DUP3 ADD SWAP1 POP SWAP3 SWAP2 POP POP JUMP JUMPDEST PUSH1 0x0 PUSH2 0x1DC DUP3 PUSH2 0x1E3 JUMP JUMPDEST SWAP1 POP SWAP2 SWAP1 POP JUMP JUMPDEST PUSH1 0x0 PUSH20 0xFFFFFFFFFFFFFFFFFFFFFFFFFFFFFFFFFFFFFFFF DUP3 AND SWAP1 POP SWAP2 SWAP1 POP JUMP JUMPDEST PUSH1 0x0 DUP1 REVERT JUMPDEST POP JUMP JUMPDEST PUSH2 0x214 DUP2 PUSH2 0x1D1 JUMP JUMPDEST DUP2 EQ PUSH2 0x21F JUMPI PUSH1 0x0 DUP1 REVERT JUMPDEST POP JUMP INVALID LOG2 PUSH5 0x6970667358 0x22 SLT KECCAK256 NUMBER 0xB8 PUSH24 0x9200FD83CDA8A91E0C9D381E702E5A81BEC8E7C7AF39706D PUSH17 0x651DCAA564736F6C634300080700330000 "
				},
				"gasEstimates": {
					"creation": {
						"codeDepositCost": "120000",
						"executionCost": "24431",
						"totalCost": "144431"
					},
					"external": {
						"sendMoney()": "120",
						"withdrawMoney(address)": "infinite"
					}
				},
				"methodIdentifiers": {
					"sendMoney()": "cbedbf5a",
					"withdrawMoney(address)": "2f971029"
				}
			},
			"storageLayout": {
				"storage": [
					{
						"astId": 3,
						"contract": "contracts/basics/04-StartStopUpdateExample.sol:StartStopUpdateExample",
						"label": "owner",
						"offset": 0,
						"slot": "0",
						"type": "t_address"
					}
				],
				"types": {
					"t_address": {
						"encoding": "inplace",
						"label": "address",
						"numberOfBytes": "20"
					}
				}
			},
			"userdoc": {
				"kind": "user",
				"methods": {},
				"version": 1
			}
		}
	}
}