{
	"contracts/basics/artifacts/Variables.sol": {
		"Variables": {
			"abi": [
				{
					"inputs": [],
					"name": "decrementInt",
					"outputs": [],
					"stateMutability": "nonpayable",
					"type": "function"
				},
				{
					"inputs": [],
					"name": "getBalanceOfAddress",
					"outputs": [
						{
							"internalType": "uint256",
							"name": "",
							"type": "uint256"
						}
					],
					"stateMutability": "view",
					"type": "function"
				},
				{
					"inputs": [],
					"name": "incrementInt",
					"outputs": [],
					"stateMutability": "nonpayable",
					"type": "function"
				},
				{
					"inputs": [],
					"name": "myAddress",
					"outputs": [
						{
							"internalType": "address",
							"name": "",
							"type": "address"
						}
					],
					"stateMutability": "view",
					"type": "function"
				},
				{
					"inputs": [],
					"name": "myBool",
					"outputs": [
						{
							"internalType": "bool",
							"name": "",
							"type": "bool"
						}
					],
					"stateMutability": "view",
					"type": "function"
				},
				{
					"inputs": [],
					"name": "myInt",
					"outputs": [
						{
							"internalType": "uint256",
							"name": "",
							"type": "uint256"
						}
					],
					"stateMutability": "view",
					"type": "function"
				},
				{
					"inputs": [],
					"name": "myString",
					"outputs": [
						{
							"internalType": "string",
							"name": "",
							"type": "string"
						}
					],
					"stateMutability": "view",
					"type": "function"
				},
				{
					"inputs": [
						{
							"internalType": "address",
							"name": "_myAddress",
							"type": "address"
						}
					],
					"name": "setMyAddress",
					"outputs": [],
					"stateMutability": "nonpayable",
					"type": "function"
				},
				{
					"inputs": [
						{
							"internalType": "bool",
							"name": "_myBool",
							"type": "bool"
						}
					],
					"name": "setMyBool",
					"outputs": [],
					"stateMutability": "nonpayable",
					"type": "function"
				},
				{
					"inputs": [
						{
							"internalType": "uint256",
							"name": "_myInt",
							"type": "uint256"
						}
					],
					"name": "setMyInt",
					"outputs": [],
					"stateMutability": "nonpayable",
					"type": "function"
				},
				{
					"inputs": [
						{
							"internalType": "string",
							"name": "_myString",
							"type": "string"
						}
					],
					"name": "setMyString",
					"outputs": [],
					"stateMutability": "nonpayable",
					"type": "function"
				}
			],
			"devdoc": {
				"kind": "dev",
				"methods": {},
				"version": 1
			},
			"evm": {
				"assembly": "    /* \"contracts/basics/artifacts/Variables.sol\":58:776  contract Variables{\r... */\n  mstore(0x40, 0x80)\n    /* \"contracts/basics/artifacts/Variables.sol\":667:704  string public myString ='hello world' */\n  mload(0x40)\n  dup1\n  0x40\n  add\n  0x40\n  mstore\n  dup1\n  0x0b\n  dup2\n  mstore\n  0x20\n  add\n  0x68656c6c6f20776f726c64000000000000000000000000000000000000000000\n  dup2\n  mstore\n  pop\n  0x02\n  swap1\n  dup1\n  mload\n  swap1\n  0x20\n  add\n  swap1\n  tag_1\n  swap3\n  swap2\n  swap1\n  tag_2\n  jump\t// in\ntag_1:\n  pop\n    /* \"contracts/basics/artifacts/Variables.sol\":58:776  contract Variables{\r... */\n  callvalue\n  dup1\n  iszero\n  tag_3\n  jumpi\n  0x00\n  dup1\n  revert\ntag_3:\n  pop\n  jump(tag_4)\ntag_2:\n  dup3\n  dup1\n  sload\n  tag_5\n  swap1\n  tag_6\n  jump\t// in\ntag_5:\n  swap1\n  0x00\n  mstore\n  keccak256(0x00, 0x20)\n  swap1\n  0x1f\n  add\n  0x20\n  swap1\n  div\n  dup2\n  add\n  swap3\n  dup3\n  tag_8\n  jumpi\n  0x00\n  dup6\n  sstore\n  jump(tag_7)\ntag_8:\n  dup3\n  0x1f\n  lt\n  tag_9\n  jumpi\n  dup1\n  mload\n  not(0xff)\n  and\n  dup4\n  dup1\n  add\n  or\n  dup6\n  sstore\n  jump(tag_7)\ntag_9:\n  dup3\n  dup1\n  add\n  0x01\n  add\n  dup6\n  sstore\n  dup3\n  iszero\n  tag_7\n  jumpi\n  swap2\n  dup3\n  add\ntag_10:\n  dup3\n  dup2\n  gt\n  iszero\n  tag_11\n  jumpi\n  dup3\n  mload\n  dup3\n  sstore\n  swap2\n  0x20\n  add\n  swap2\n  swap1\n  0x01\n  add\n  swap1\n  jump(tag_10)\ntag_11:\ntag_7:\n  pop\n  swap1\n  pop\n  tag_12\n  swap2\n  swap1\n  tag_13\n  jump\t// in\ntag_12:\n  pop\n  swap1\n  jump\t// out\ntag_13:\ntag_14:\n  dup1\n  dup3\n  gt\n  iszero\n  tag_15\n  jumpi\n  0x00\n  dup2\n  0x00\n  swap1\n  sstore\n  pop\n  0x01\n  add\n  jump(tag_14)\ntag_15:\n  pop\n  swap1\n  jump\t// out\n    /* \"#utility.yul\":7:327   */\ntag_6:\n    /* \"#utility.yul\":51:57   */\n  0x00\n    /* \"#utility.yul\":88:89   */\n  0x02\n    /* \"#utility.yul\":82:86   */\n  dup3\n    /* \"#utility.yul\":78:90   */\n  div\n    /* \"#utility.yul\":68:90   */\n  swap1\n  pop\n    /* \"#utility.yul\":135:136   */\n  0x01\n    /* \"#utility.yul\":129:133   */\n  dup3\n    /* \"#utility.yul\":125:137   */\n  and\n    /* \"#utility.yul\":156:174   */\n  dup1\n    /* \"#utility.yul\":146:227   */\n  tag_18\n  jumpi\n    /* \"#utility.yul\":212:216   */\n  0x7f\n    /* \"#utility.yul\":204:210   */\n  dup3\n    /* \"#utility.yul\":200:217   */\n  and\n    /* \"#utility.yul\":190:217   */\n  swap2\n  pop\n    /* \"#utility.yul\":146:227   */\ntag_18:\n    /* \"#utility.yul\":274:276   */\n  0x20\n    /* \"#utility.yul\":266:272   */\n  dup3\n    /* \"#utility.yul\":263:277   */\n  lt\n    /* \"#utility.yul\":243:261   */\n  dup2\n    /* \"#utility.yul\":240:278   */\n  eq\n    /* \"#utility.yul\":237:321   */\n  iszero\n  tag_19\n  jumpi\n    /* \"#utility.yul\":293:311   */\n  tag_20\n  tag_21\n  jump\t// in\ntag_20:\n    /* \"#utility.yul\":237:321   */\ntag_19:\n    /* \"#utility.yul\":58:327   */\n  pop\n    /* \"#utility.yul\":7:327   */\n  swap2\n  swap1\n  pop\n  jump\t// out\n    /* \"#utility.yul\":333:513   */\ntag_21:\n    /* \"#utility.yul\":381:458   */\n  0x4e487b7100000000000000000000000000000000000000000000000000000000\n    /* \"#utility.yul\":378:379   */\n  0x00\n    /* \"#utility.yul\":371:459   */\n  mstore\n    /* \"#utility.yul\":478:482   */\n  0x22\n    /* \"#utility.yul\":475:476   */\n  0x04\n    /* \"#utility.yul\":468:483   */\n  mstore\n    /* \"#utility.yul\":502:506   */\n  0x24\n    /* \"#utility.yul\":499:500   */\n  0x00\n    /* \"#utility.yul\":492:507   */\n  revert\n    /* \"contracts/basics/artifacts/Variables.sol\":58:776  contract Variables{\r... */\ntag_4:\n  dataSize(sub_0)\n  dup1\n  dataOffset(sub_0)\n  0x00\n  codecopy\n  0x00\n  return\nstop\n\nsub_0: assembly {\n        /* \"contracts/basics/artifacts/Variables.sol\":58:776  contract Variables{\r... */\n      mstore(0x40, 0x80)\n      callvalue\n      dup1\n      iszero\n      tag_1\n      jumpi\n      0x00\n      dup1\n      revert\n    tag_1:\n      pop\n      jumpi(tag_2, lt(calldatasize, 0x04))\n      shr(0xe0, calldataload(0x00))\n      dup1\n      0x82180568\n      gt\n      tag_14\n      jumpi\n      dup1\n      0x82180568\n      eq\n      tag_8\n      jumpi\n      dup1\n      0x8d5833cb\n      eq\n      tag_9\n      jumpi\n      dup1\n      0xa6504657\n      eq\n      tag_10\n      jumpi\n      dup1\n      0xa8a7b895\n      eq\n      tag_11\n      jumpi\n      dup1\n      0xeb1b30d9\n      eq\n      tag_12\n      jumpi\n      dup1\n      0xf102a71d\n      eq\n      tag_13\n      jumpi\n      jump(tag_2)\n    tag_14:\n      dup1\n      0x15502612\n      eq\n      tag_3\n      jumpi\n      dup1\n      0x26b85ee1\n      eq\n      tag_4\n      jumpi\n      dup1\n      0x2cb777a6\n      eq\n      tag_5\n      jumpi\n      dup1\n      0x492bfa18\n      eq\n      tag_6\n      jumpi\n      dup1\n      0x6deecdbe\n      eq\n      tag_7\n      jumpi\n    tag_2:\n      0x00\n      dup1\n      revert\n        /* \"contracts/basics/artifacts/Variables.sol\":560:659  function getBalanceOfAddress() public view returns(uint){\r... */\n    tag_3:\n      tag_15\n      tag_16\n      jump\t// in\n    tag_15:\n      mload(0x40)\n      tag_17\n      swap2\n      swap1\n      tag_18\n      jump\t// in\n    tag_17:\n      mload(0x40)\n      dup1\n      swap2\n      sub\n      swap1\n      return\n        /* \"contracts/basics/artifacts/Variables.sol\":430:454  address public myAddress */\n    tag_4:\n      tag_19\n      tag_20\n      jump\t// in\n    tag_19:\n      mload(0x40)\n      tag_21\n      swap2\n      swap1\n      tag_22\n      jump\t// in\n    tag_21:\n      mload(0x40)\n      dup1\n      swap2\n      sub\n      swap1\n      return\n        /* \"contracts/basics/artifacts/Variables.sol\":83:103  uint256 public myInt */\n    tag_5:\n      tag_23\n      tag_24\n      jump\t// in\n    tag_23:\n      mload(0x40)\n      tag_25\n      swap2\n      swap1\n      tag_18\n      jump\t// in\n    tag_25:\n      mload(0x40)\n      dup1\n      swap2\n      sub\n      swap1\n      return\n        /* \"contracts/basics/artifacts/Variables.sol\":667:704  string public myString ='hello world' */\n    tag_6:\n      tag_26\n      tag_27\n      jump\t// in\n    tag_26:\n      mload(0x40)\n      tag_28\n      swap2\n      swap1\n      tag_29\n      jump\t// in\n    tag_28:\n      mload(0x40)\n      dup1\n      swap2\n      sub\n      swap1\n      return\n        /* \"contracts/basics/artifacts/Variables.sol\":192:210  bool public myBool */\n    tag_7:\n      tag_30\n      tag_31\n      jump\t// in\n    tag_30:\n      mload(0x40)\n      tag_32\n      swap2\n      swap1\n      tag_33\n      jump\t// in\n    tag_32:\n      mload(0x40)\n      dup1\n      swap2\n      sub\n      swap1\n      return\n        /* \"contracts/basics/artifacts/Variables.sol\":717:771  function setMyString(string memory _myString) public{} */\n    tag_8:\n      tag_34\n      0x04\n      dup1\n      calldatasize\n      sub\n      dup2\n      add\n      swap1\n      tag_35\n      swap2\n      swap1\n      tag_36\n      jump\t// in\n    tag_35:\n      tag_37\n      jump\t// in\n    tag_34:\n      stop\n        /* \"contracts/basics/artifacts/Variables.sol\":366:422  function decrementInt() public{\r... */\n    tag_9:\n      tag_38\n      tag_39\n      jump\t// in\n    tag_38:\n      stop\n        /* \"contracts/basics/artifacts/Variables.sol\":116:186  function setMyInt(uint _myInt) public{\r... */\n    tag_10:\n      tag_40\n      0x04\n      dup1\n      calldatasize\n      sub\n      dup2\n      add\n      swap1\n      tag_41\n      swap2\n      swap1\n      tag_42\n      jump\t// in\n    tag_41:\n      tag_43\n      jump\t// in\n    tag_40:\n      stop\n        /* \"contracts/basics/artifacts/Variables.sol\":463:552  function setMyAddress(address _myAddress) public{\r... */\n    tag_11:\n      tag_44\n      0x04\n      dup1\n      calldatasize\n      sub\n      dup2\n      add\n      swap1\n      tag_45\n      swap2\n      swap1\n      tag_46\n      jump\t// in\n    tag_45:\n      tag_47\n      jump\t// in\n    tag_44:\n      stop\n        /* \"contracts/basics/artifacts/Variables.sol\":219:294  function setMyBool(bool _myBool) public {\r... */\n    tag_12:\n      tag_48\n      0x04\n      dup1\n      calldatasize\n      sub\n      dup2\n      add\n      swap1\n      tag_49\n      swap2\n      swap1\n      tag_50\n      jump\t// in\n    tag_49:\n      tag_51\n      jump\t// in\n    tag_48:\n      stop\n        /* \"contracts/basics/artifacts/Variables.sol\":302:358  function incrementInt() public{\r... */\n    tag_13:\n      tag_52\n      tag_53\n      jump\t// in\n    tag_52:\n      stop\n        /* \"contracts/basics/artifacts/Variables.sol\":560:659  function getBalanceOfAddress() public view returns(uint){\r... */\n    tag_16:\n        /* \"contracts/basics/artifacts/Variables.sol\":611:615  uint */\n      0x00\n        /* \"contracts/basics/artifacts/Variables.sol\":634:643  myAddress */\n      0x01\n      dup1\n      sload\n      swap1\n      0x0100\n      exp\n      swap1\n      div\n      0xffffffffffffffffffffffffffffffffffffffff\n      and\n        /* \"contracts/basics/artifacts/Variables.sol\":634:651  myAddress.balance */\n      0xffffffffffffffffffffffffffffffffffffffff\n      and\n      balance\n        /* \"contracts/basics/artifacts/Variables.sol\":627:651  return myAddress.balance */\n      swap1\n      pop\n        /* \"contracts/basics/artifacts/Variables.sol\":560:659  function getBalanceOfAddress() public view returns(uint){\r... */\n      swap1\n      jump\t// out\n        /* \"contracts/basics/artifacts/Variables.sol\":430:454  address public myAddress */\n    tag_20:\n      0x01\n      dup1\n      sload\n      swap1\n      0x0100\n      exp\n      swap1\n      div\n      0xffffffffffffffffffffffffffffffffffffffff\n      and\n      dup2\n      jump\t// out\n        /* \"contracts/basics/artifacts/Variables.sol\":83:103  uint256 public myInt */\n    tag_24:\n      sload(0x00)\n      dup2\n      jump\t// out\n        /* \"contracts/basics/artifacts/Variables.sol\":667:704  string public myString ='hello world' */\n    tag_27:\n      0x02\n      dup1\n      sload\n      tag_55\n      swap1\n      tag_56\n      jump\t// in\n    tag_55:\n      dup1\n      0x1f\n      add\n      0x20\n      dup1\n      swap2\n      div\n      mul\n      0x20\n      add\n      mload(0x40)\n      swap1\n      dup2\n      add\n      0x40\n      mstore\n      dup1\n      swap3\n      swap2\n      swap1\n      dup2\n      dup2\n      mstore\n      0x20\n      add\n      dup3\n      dup1\n      sload\n      tag_57\n      swap1\n      tag_56\n      jump\t// in\n    tag_57:\n      dup1\n      iszero\n      tag_58\n      jumpi\n      dup1\n      0x1f\n      lt\n      tag_59\n      jumpi\n      0x0100\n      dup1\n      dup4\n      sload\n      div\n      mul\n      dup4\n      mstore\n      swap2\n      0x20\n      add\n      swap2\n      jump(tag_58)\n    tag_59:\n      dup3\n      add\n      swap2\n      swap1\n      0x00\n      mstore\n      keccak256(0x00, 0x20)\n      swap1\n    tag_60:\n      dup2\n      sload\n      dup2\n      mstore\n      swap1\n      0x01\n      add\n      swap1\n      0x20\n      add\n      dup1\n      dup4\n      gt\n      tag_60\n      jumpi\n      dup3\n      swap1\n      sub\n      0x1f\n      and\n      dup3\n      add\n      swap2\n    tag_58:\n      pop\n      pop\n      pop\n      pop\n      pop\n      dup2\n      jump\t// out\n        /* \"contracts/basics/artifacts/Variables.sol\":192:210  bool public myBool */\n    tag_31:\n      0x01\n      0x00\n      swap1\n      sload\n      swap1\n      0x0100\n      exp\n      swap1\n      div\n      0xff\n      and\n      dup2\n      jump\t// out\n        /* \"contracts/basics/artifacts/Variables.sol\":717:771  function setMyString(string memory _myString) public{} */\n    tag_37:\n      pop\n      jump\t// out\n        /* \"contracts/basics/artifacts/Variables.sol\":366:422  function decrementInt() public{\r... */\n    tag_39:\n        /* \"contracts/basics/artifacts/Variables.sol\":407:412  myInt */\n      0x00\n      dup1\n        /* \"contracts/basics/artifacts/Variables.sol\":407:414  myInt-- */\n      dup2\n      sload\n      dup1\n      swap3\n      swap2\n      swap1\n      tag_63\n      swap1\n      tag_64\n      jump\t// in\n    tag_63:\n      swap2\n      swap1\n      pop\n      sstore\n      pop\n        /* \"contracts/basics/artifacts/Variables.sol\":366:422  function decrementInt() public{\r... */\n      jump\t// out\n        /* \"contracts/basics/artifacts/Variables.sol\":116:186  function setMyInt(uint _myInt) public{\r... */\n    tag_43:\n        /* \"contracts/basics/artifacts/Variables.sol\":172:178  _myInt */\n      dup1\n        /* \"contracts/basics/artifacts/Variables.sol\":164:169  myInt */\n      0x00\n        /* \"contracts/basics/artifacts/Variables.sol\":164:178  myInt = _myInt */\n      dup2\n      swap1\n      sstore\n      pop\n        /* \"contracts/basics/artifacts/Variables.sol\":116:186  function setMyInt(uint _myInt) public{\r... */\n      pop\n      jump\t// out\n        /* \"contracts/basics/artifacts/Variables.sol\":463:552  function setMyAddress(address _myAddress) public{\r... */\n    tag_47:\n        /* \"contracts/basics/artifacts/Variables.sol\":534:544  _myAddress */\n      dup1\n        /* \"contracts/basics/artifacts/Variables.sol\":522:531  myAddress */\n      0x01\n      dup1\n        /* \"contracts/basics/artifacts/Variables.sol\":522:544  myAddress = _myAddress */\n      0x0100\n      exp\n      dup2\n      sload\n      dup2\n      0xffffffffffffffffffffffffffffffffffffffff\n      mul\n      not\n      and\n      swap1\n      dup4\n      0xffffffffffffffffffffffffffffffffffffffff\n      and\n      mul\n      or\n      swap1\n      sstore\n      pop\n        /* \"contracts/basics/artifacts/Variables.sol\":463:552  function setMyAddress(address _myAddress) public{\r... */\n      pop\n      jump\t// out\n        /* \"contracts/basics/artifacts/Variables.sol\":219:294  function setMyBool(bool _myBool) public {\r... */\n    tag_51:\n        /* \"contracts/basics/artifacts/Variables.sol\":279:286  _myBool */\n      dup1\n        /* \"contracts/basics/artifacts/Variables.sol\":270:276  myBool */\n      0x01\n      0x00\n        /* \"contracts/basics/artifacts/Variables.sol\":270:286  myBool = _myBool */\n      0x0100\n      exp\n      dup2\n      sload\n      dup2\n      0xff\n      mul\n      not\n      and\n      swap1\n      dup4\n      iszero\n      iszero\n      mul\n      or\n      swap1\n      sstore\n      pop\n        /* \"contracts/basics/artifacts/Variables.sol\":219:294  function setMyBool(bool _myBool) public {\r... */\n      pop\n      jump\t// out\n        /* \"contracts/basics/artifacts/Variables.sol\":302:358  function incrementInt() public{\r... */\n    tag_53:\n        /* \"contracts/basics/artifacts/Variables.sol\":343:348  myInt */\n      0x00\n      dup1\n        /* \"contracts/basics/artifacts/Variables.sol\":343:350  myInt++ */\n      dup2\n      sload\n      dup1\n      swap3\n      swap2\n      swap1\n      tag_69\n      swap1\n      tag_70\n      jump\t// in\n    tag_69:\n      swap2\n      swap1\n      pop\n      sstore\n      pop\n        /* \"contracts/basics/artifacts/Variables.sol\":302:358  function incrementInt() public{\r... */\n      jump\t// out\n        /* \"#utility.yul\":7:419   */\n    tag_72:\n        /* \"#utility.yul\":85:90   */\n      0x00\n        /* \"#utility.yul\":110:176   */\n      tag_74\n        /* \"#utility.yul\":126:175   */\n      tag_75\n        /* \"#utility.yul\":168:174   */\n      dup5\n        /* \"#utility.yul\":126:175   */\n      tag_76\n      jump\t// in\n    tag_75:\n        /* \"#utility.yul\":110:176   */\n      tag_77\n      jump\t// in\n    tag_74:\n        /* \"#utility.yul\":101:176   */\n      swap1\n      pop\n        /* \"#utility.yul\":199:205   */\n      dup3\n        /* \"#utility.yul\":192:197   */\n      dup2\n        /* \"#utility.yul\":185:206   */\n      mstore\n        /* \"#utility.yul\":237:241   */\n      0x20\n        /* \"#utility.yul\":230:235   */\n      dup2\n        /* \"#utility.yul\":226:242   */\n      add\n        /* \"#utility.yul\":275:278   */\n      dup5\n        /* \"#utility.yul\":266:272   */\n      dup5\n        /* \"#utility.yul\":261:264   */\n      dup5\n        /* \"#utility.yul\":257:273   */\n      add\n        /* \"#utility.yul\":254:279   */\n      gt\n        /* \"#utility.yul\":251:363   */\n      iszero\n      tag_78\n      jumpi\n        /* \"#utility.yul\":282:361   */\n      tag_79\n      tag_80\n      jump\t// in\n    tag_79:\n        /* \"#utility.yul\":251:363   */\n    tag_78:\n        /* \"#utility.yul\":372:413   */\n      tag_81\n        /* \"#utility.yul\":406:412   */\n      dup5\n        /* \"#utility.yul\":401:404   */\n      dup3\n        /* \"#utility.yul\":396:399   */\n      dup6\n        /* \"#utility.yul\":372:413   */\n      tag_82\n      jump\t// in\n    tag_81:\n        /* \"#utility.yul\":91:419   */\n      pop\n        /* \"#utility.yul\":7:419   */\n      swap4\n      swap3\n      pop\n      pop\n      pop\n      jump\t// out\n        /* \"#utility.yul\":425:564   */\n    tag_83:\n        /* \"#utility.yul\":471:476   */\n      0x00\n        /* \"#utility.yul\":509:515   */\n      dup2\n        /* \"#utility.yul\":496:516   */\n      calldataload\n        /* \"#utility.yul\":487:516   */\n      swap1\n      pop\n        /* \"#utility.yul\":525:558   */\n      tag_85\n        /* \"#utility.yul\":552:557   */\n      dup2\n        /* \"#utility.yul\":525:558   */\n      tag_86\n      jump\t// in\n    tag_85:\n        /* \"#utility.yul\":425:564   */\n      swap3\n      swap2\n      pop\n      pop\n      jump\t// out\n        /* \"#utility.yul\":570:703   */\n    tag_87:\n        /* \"#utility.yul\":613:618   */\n      0x00\n        /* \"#utility.yul\":651:657   */\n      dup2\n        /* \"#utility.yul\":638:658   */\n      calldataload\n        /* \"#utility.yul\":629:658   */\n      swap1\n      pop\n        /* \"#utility.yul\":667:697   */\n      tag_89\n        /* \"#utility.yul\":691:696   */\n      dup2\n        /* \"#utility.yul\":667:697   */\n      tag_90\n      jump\t// in\n    tag_89:\n        /* \"#utility.yul\":570:703   */\n      swap3\n      swap2\n      pop\n      pop\n      jump\t// out\n        /* \"#utility.yul\":723:1063   */\n    tag_91:\n        /* \"#utility.yul\":779:784   */\n      0x00\n        /* \"#utility.yul\":828:831   */\n      dup3\n        /* \"#utility.yul\":821:825   */\n      0x1f\n        /* \"#utility.yul\":813:819   */\n      dup4\n        /* \"#utility.yul\":809:826   */\n      add\n        /* \"#utility.yul\":805:832   */\n      slt\n        /* \"#utility.yul\":795:917   */\n      tag_93\n      jumpi\n        /* \"#utility.yul\":836:915   */\n      tag_94\n      tag_95\n      jump\t// in\n    tag_94:\n        /* \"#utility.yul\":795:917   */\n    tag_93:\n        /* \"#utility.yul\":953:959   */\n      dup2\n        /* \"#utility.yul\":940:960   */\n      calldataload\n        /* \"#utility.yul\":978:1057   */\n      tag_96\n        /* \"#utility.yul\":1053:1056   */\n      dup5\n        /* \"#utility.yul\":1045:1051   */\n      dup3\n        /* \"#utility.yul\":1038:1042   */\n      0x20\n        /* \"#utility.yul\":1030:1036   */\n      dup7\n        /* \"#utility.yul\":1026:1043   */\n      add\n        /* \"#utility.yul\":978:1057   */\n      tag_72\n      jump\t// in\n    tag_96:\n        /* \"#utility.yul\":969:1057   */\n      swap2\n      pop\n        /* \"#utility.yul\":785:1063   */\n      pop\n        /* \"#utility.yul\":723:1063   */\n      swap3\n      swap2\n      pop\n      pop\n      jump\t// out\n        /* \"#utility.yul\":1069:1208   */\n    tag_97:\n        /* \"#utility.yul\":1115:1120   */\n      0x00\n        /* \"#utility.yul\":1153:1159   */\n      dup2\n        /* \"#utility.yul\":1140:1160   */\n      calldataload\n        /* \"#utility.yul\":1131:1160   */\n      swap1\n      pop\n        /* \"#utility.yul\":1169:1202   */\n      tag_99\n        /* \"#utility.yul\":1196:1201   */\n      dup2\n        /* \"#utility.yul\":1169:1202   */\n      tag_100\n      jump\t// in\n    tag_99:\n        /* \"#utility.yul\":1069:1208   */\n      swap3\n      swap2\n      pop\n      pop\n      jump\t// out\n        /* \"#utility.yul\":1214:1543   */\n    tag_46:\n        /* \"#utility.yul\":1273:1279   */\n      0x00\n        /* \"#utility.yul\":1322:1324   */\n      0x20\n        /* \"#utility.yul\":1310:1319   */\n      dup3\n        /* \"#utility.yul\":1301:1308   */\n      dup5\n        /* \"#utility.yul\":1297:1320   */\n      sub\n        /* \"#utility.yul\":1293:1325   */\n      slt\n        /* \"#utility.yul\":1290:1409   */\n      iszero\n      tag_102\n      jumpi\n        /* \"#utility.yul\":1328:1407   */\n      tag_103\n      tag_104\n      jump\t// in\n    tag_103:\n        /* \"#utility.yul\":1290:1409   */\n    tag_102:\n        /* \"#utility.yul\":1448:1449   */\n      0x00\n        /* \"#utility.yul\":1473:1526   */\n      tag_105\n        /* \"#utility.yul\":1518:1525   */\n      dup5\n        /* \"#utility.yul\":1509:1515   */\n      dup3\n        /* \"#utility.yul\":1498:1507   */\n      dup6\n        /* \"#utility.yul\":1494:1516   */\n      add\n        /* \"#utility.yul\":1473:1526   */\n      tag_83\n      jump\t// in\n    tag_105:\n        /* \"#utility.yul\":1463:1526   */\n      swap2\n      pop\n        /* \"#utility.yul\":1419:1536   */\n      pop\n        /* \"#utility.yul\":1214:1543   */\n      swap3\n      swap2\n      pop\n      pop\n      jump\t// out\n        /* \"#utility.yul\":1549:1872   */\n    tag_50:\n        /* \"#utility.yul\":1605:1611   */\n      0x00\n        /* \"#utility.yul\":1654:1656   */\n      0x20\n        /* \"#utility.yul\":1642:1651   */\n      dup3\n        /* \"#utility.yul\":1633:1640   */\n      dup5\n        /* \"#utility.yul\":1629:1652   */\n      sub\n        /* \"#utility.yul\":1625:1657   */\n      slt\n        /* \"#utility.yul\":1622:1741   */\n      iszero\n      tag_107\n      jumpi\n        /* \"#utility.yul\":1660:1739   */\n      tag_108\n      tag_104\n      jump\t// in\n    tag_108:\n        /* \"#utility.yul\":1622:1741   */\n    tag_107:\n        /* \"#utility.yul\":1780:1781   */\n      0x00\n        /* \"#utility.yul\":1805:1855   */\n      tag_109\n        /* \"#utility.yul\":1847:1854   */\n      dup5\n        /* \"#utility.yul\":1838:1844   */\n      dup3\n        /* \"#utility.yul\":1827:1836   */\n      dup6\n        /* \"#utility.yul\":1823:1845   */\n      add\n        /* \"#utility.yul\":1805:1855   */\n      tag_87\n      jump\t// in\n    tag_109:\n        /* \"#utility.yul\":1795:1855   */\n      swap2\n      pop\n        /* \"#utility.yul\":1751:1865   */\n      pop\n        /* \"#utility.yul\":1549:1872   */\n      swap3\n      swap2\n      pop\n      pop\n      jump\t// out\n        /* \"#utility.yul\":1878:2387   */\n    tag_36:\n        /* \"#utility.yul\":1947:1953   */\n      0x00\n        /* \"#utility.yul\":1996:1998   */\n      0x20\n        /* \"#utility.yul\":1984:1993   */\n      dup3\n        /* \"#utility.yul\":1975:1982   */\n      dup5\n        /* \"#utility.yul\":1971:1994   */\n      sub\n        /* \"#utility.yul\":1967:1999   */\n      slt\n        /* \"#utility.yul\":1964:2083   */\n      iszero\n      tag_111\n      jumpi\n        /* \"#utility.yul\":2002:2081   */\n      tag_112\n      tag_104\n      jump\t// in\n    tag_112:\n        /* \"#utility.yul\":1964:2083   */\n    tag_111:\n        /* \"#utility.yul\":2150:2151   */\n      0x00\n        /* \"#utility.yul\":2139:2148   */\n      dup3\n        /* \"#utility.yul\":2135:2152   */\n      add\n        /* \"#utility.yul\":2122:2153   */\n      calldataload\n        /* \"#utility.yul\":2180:2198   */\n      0xffffffffffffffff\n        /* \"#utility.yul\":2172:2178   */\n      dup2\n        /* \"#utility.yul\":2169:2199   */\n      gt\n        /* \"#utility.yul\":2166:2283   */\n      iszero\n      tag_113\n      jumpi\n        /* \"#utility.yul\":2202:2281   */\n      tag_114\n      tag_115\n      jump\t// in\n    tag_114:\n        /* \"#utility.yul\":2166:2283   */\n    tag_113:\n        /* \"#utility.yul\":2307:2370   */\n      tag_116\n        /* \"#utility.yul\":2362:2369   */\n      dup5\n        /* \"#utility.yul\":2353:2359   */\n      dup3\n        /* \"#utility.yul\":2342:2351   */\n      dup6\n        /* \"#utility.yul\":2338:2360   */\n      add\n        /* \"#utility.yul\":2307:2370   */\n      tag_91\n      jump\t// in\n    tag_116:\n        /* \"#utility.yul\":2297:2370   */\n      swap2\n      pop\n        /* \"#utility.yul\":2093:2380   */\n      pop\n        /* \"#utility.yul\":1878:2387   */\n      swap3\n      swap2\n      pop\n      pop\n      jump\t// out\n        /* \"#utility.yul\":2393:2722   */\n    tag_42:\n        /* \"#utility.yul\":2452:2458   */\n      0x00\n        /* \"#utility.yul\":2501:2503   */\n      0x20\n        /* \"#utility.yul\":2489:2498   */\n      dup3\n        /* \"#utility.yul\":2480:2487   */\n      dup5\n        /* \"#utility.yul\":2476:2499   */\n      sub\n        /* \"#utility.yul\":2472:2504   */\n      slt\n        /* \"#utility.yul\":2469:2588   */\n      iszero\n      tag_118\n      jumpi\n        /* \"#utility.yul\":2507:2586   */\n      tag_119\n      tag_104\n      jump\t// in\n    tag_119:\n        /* \"#utility.yul\":2469:2588   */\n    tag_118:\n        /* \"#utility.yul\":2627:2628   */\n      0x00\n        /* \"#utility.yul\":2652:2705   */\n      tag_120\n        /* \"#utility.yul\":2697:2704   */\n      dup5\n        /* \"#utility.yul\":2688:2694   */\n      dup3\n        /* \"#utility.yul\":2677:2686   */\n      dup6\n        /* \"#utility.yul\":2673:2695   */\n      add\n        /* \"#utility.yul\":2652:2705   */\n      tag_97\n      jump\t// in\n    tag_120:\n        /* \"#utility.yul\":2642:2705   */\n      swap2\n      pop\n        /* \"#utility.yul\":2598:2715   */\n      pop\n        /* \"#utility.yul\":2393:2722   */\n      swap3\n      swap2\n      pop\n      pop\n      jump\t// out\n        /* \"#utility.yul\":2728:2846   */\n    tag_121:\n        /* \"#utility.yul\":2815:2839   */\n      tag_123\n        /* \"#utility.yul\":2833:2838   */\n      dup2\n        /* \"#utility.yul\":2815:2839   */\n      tag_124\n      jump\t// in\n    tag_123:\n        /* \"#utility.yul\":2810:2813   */\n      dup3\n        /* \"#utility.yul\":2803:2840   */\n      mstore\n        /* \"#utility.yul\":2728:2846   */\n      pop\n      pop\n      jump\t// out\n        /* \"#utility.yul\":2852:2961   */\n    tag_125:\n        /* \"#utility.yul\":2933:2954   */\n      tag_127\n        /* \"#utility.yul\":2948:2953   */\n      dup2\n        /* \"#utility.yul\":2933:2954   */\n      tag_128\n      jump\t// in\n    tag_127:\n        /* \"#utility.yul\":2928:2931   */\n      dup3\n        /* \"#utility.yul\":2921:2955   */\n      mstore\n        /* \"#utility.yul\":2852:2961   */\n      pop\n      pop\n      jump\t// out\n        /* \"#utility.yul\":2967:3331   */\n    tag_129:\n        /* \"#utility.yul\":3055:3058   */\n      0x00\n        /* \"#utility.yul\":3083:3122   */\n      tag_131\n        /* \"#utility.yul\":3116:3121   */\n      dup3\n        /* \"#utility.yul\":3083:3122   */\n      tag_132\n      jump\t// in\n    tag_131:\n        /* \"#utility.yul\":3138:3209   */\n      tag_133\n        /* \"#utility.yul\":3202:3208   */\n      dup2\n        /* \"#utility.yul\":3197:3200   */\n      dup6\n        /* \"#utility.yul\":3138:3209   */\n      tag_134\n      jump\t// in\n    tag_133:\n        /* \"#utility.yul\":3131:3209   */\n      swap4\n      pop\n        /* \"#utility.yul\":3218:3270   */\n      tag_135\n        /* \"#utility.yul\":3263:3269   */\n      dup2\n        /* \"#utility.yul\":3258:3261   */\n      dup6\n        /* \"#utility.yul\":3251:3255   */\n      0x20\n        /* \"#utility.yul\":3244:3249   */\n      dup7\n        /* \"#utility.yul\":3240:3256   */\n      add\n        /* \"#utility.yul\":3218:3270   */\n      tag_136\n      jump\t// in\n    tag_135:\n        /* \"#utility.yul\":3295:3324   */\n      tag_137\n        /* \"#utility.yul\":3317:3323   */\n      dup2\n        /* \"#utility.yul\":3295:3324   */\n      tag_138\n      jump\t// in\n    tag_137:\n        /* \"#utility.yul\":3290:3293   */\n      dup5\n        /* \"#utility.yul\":3286:3325   */\n      add\n        /* \"#utility.yul\":3279:3325   */\n      swap2\n      pop\n        /* \"#utility.yul\":3059:3331   */\n      pop\n        /* \"#utility.yul\":2967:3331   */\n      swap3\n      swap2\n      pop\n      pop\n      jump\t// out\n        /* \"#utility.yul\":3337:3455   */\n    tag_139:\n        /* \"#utility.yul\":3424:3448   */\n      tag_141\n        /* \"#utility.yul\":3442:3447   */\n      dup2\n        /* \"#utility.yul\":3424:3448   */\n      tag_142\n      jump\t// in\n    tag_141:\n        /* \"#utility.yul\":3419:3422   */\n      dup3\n        /* \"#utility.yul\":3412:3449   */\n      mstore\n        /* \"#utility.yul\":3337:3455   */\n      pop\n      pop\n      jump\t// out\n        /* \"#utility.yul\":3461:3683   */\n    tag_22:\n        /* \"#utility.yul\":3554:3558   */\n      0x00\n        /* \"#utility.yul\":3592:3594   */\n      0x20\n        /* \"#utility.yul\":3581:3590   */\n      dup3\n        /* \"#utility.yul\":3577:3595   */\n      add\n        /* \"#utility.yul\":3569:3595   */\n      swap1\n      pop\n        /* \"#utility.yul\":3605:3676   */\n      tag_144\n        /* \"#utility.yul\":3673:3674   */\n      0x00\n        /* \"#utility.yul\":3662:3671   */\n      dup4\n        /* \"#utility.yul\":3658:3675   */\n      add\n        /* \"#utility.yul\":3649:3655   */\n      dup5\n        /* \"#utility.yul\":3605:3676   */\n      tag_121\n      jump\t// in\n    tag_144:\n        /* \"#utility.yul\":3461:3683   */\n      swap3\n      swap2\n      pop\n      pop\n      jump\t// out\n        /* \"#utility.yul\":3689:3899   */\n    tag_33:\n        /* \"#utility.yul\":3776:3780   */\n      0x00\n        /* \"#utility.yul\":3814:3816   */\n      0x20\n        /* \"#utility.yul\":3803:3812   */\n      dup3\n        /* \"#utility.yul\":3799:3817   */\n      add\n        /* \"#utility.yul\":3791:3817   */\n      swap1\n      pop\n        /* \"#utility.yul\":3827:3892   */\n      tag_146\n        /* \"#utility.yul\":3889:3890   */\n      0x00\n        /* \"#utility.yul\":3878:3887   */\n      dup4\n        /* \"#utility.yul\":3874:3891   */\n      add\n        /* \"#utility.yul\":3865:3871   */\n      dup5\n        /* \"#utility.yul\":3827:3892   */\n      tag_125\n      jump\t// in\n    tag_146:\n        /* \"#utility.yul\":3689:3899   */\n      swap3\n      swap2\n      pop\n      pop\n      jump\t// out\n        /* \"#utility.yul\":3905:4218   */\n    tag_29:\n        /* \"#utility.yul\":4018:4022   */\n      0x00\n        /* \"#utility.yul\":4056:4058   */\n      0x20\n        /* \"#utility.yul\":4045:4054   */\n      dup3\n        /* \"#utility.yul\":4041:4059   */\n      add\n        /* \"#utility.yul\":4033:4059   */\n      swap1\n      pop\n        /* \"#utility.yul\":4105:4114   */\n      dup2\n        /* \"#utility.yul\":4099:4103   */\n      dup2\n        /* \"#utility.yul\":4095:4115   */\n      sub\n        /* \"#utility.yul\":4091:4092   */\n      0x00\n        /* \"#utility.yul\":4080:4089   */\n      dup4\n        /* \"#utility.yul\":4076:4093   */\n      add\n        /* \"#utility.yul\":4069:4116   */\n      mstore\n        /* \"#utility.yul\":4133:4211   */\n      tag_148\n        /* \"#utility.yul\":4206:4210   */\n      dup2\n        /* \"#utility.yul\":4197:4203   */\n      dup5\n        /* \"#utility.yul\":4133:4211   */\n      tag_129\n      jump\t// in\n    tag_148:\n        /* \"#utility.yul\":4125:4211   */\n      swap1\n      pop\n        /* \"#utility.yul\":3905:4218   */\n      swap3\n      swap2\n      pop\n      pop\n      jump\t// out\n        /* \"#utility.yul\":4224:4446   */\n    tag_18:\n        /* \"#utility.yul\":4317:4321   */\n      0x00\n        /* \"#utility.yul\":4355:4357   */\n      0x20\n        /* \"#utility.yul\":4344:4353   */\n      dup3\n        /* \"#utility.yul\":4340:4358   */\n      add\n        /* \"#utility.yul\":4332:4358   */\n      swap1\n      pop\n        /* \"#utility.yul\":4368:4439   */\n      tag_150\n        /* \"#utility.yul\":4436:4437   */\n      0x00\n        /* \"#utility.yul\":4425:4434   */\n      dup4\n        /* \"#utility.yul\":4421:4438   */\n      add\n        /* \"#utility.yul\":4412:4418   */\n      dup5\n        /* \"#utility.yul\":4368:4439   */\n      tag_139\n      jump\t// in\n    tag_150:\n        /* \"#utility.yul\":4224:4446   */\n      swap3\n      swap2\n      pop\n      pop\n      jump\t// out\n        /* \"#utility.yul\":4452:4581   */\n    tag_77:\n        /* \"#utility.yul\":4486:4492   */\n      0x00\n        /* \"#utility.yul\":4513:4533   */\n      tag_152\n      tag_153\n      jump\t// in\n    tag_152:\n        /* \"#utility.yul\":4503:4533   */\n      swap1\n      pop\n        /* \"#utility.yul\":4542:4575   */\n      tag_154\n        /* \"#utility.yul\":4570:4574   */\n      dup3\n        /* \"#utility.yul\":4562:4568   */\n      dup3\n        /* \"#utility.yul\":4542:4575   */\n      tag_155\n      jump\t// in\n    tag_154:\n        /* \"#utility.yul\":4452:4581   */\n      swap2\n      swap1\n      pop\n      jump\t// out\n        /* \"#utility.yul\":4587:4662   */\n    tag_153:\n        /* \"#utility.yul\":4620:4626   */\n      0x00\n        /* \"#utility.yul\":4653:4655   */\n      0x40\n        /* \"#utility.yul\":4647:4656   */\n      mload\n        /* \"#utility.yul\":4637:4656   */\n      swap1\n      pop\n        /* \"#utility.yul\":4587:4662   */\n      swap1\n      jump\t// out\n        /* \"#utility.yul\":4668:4976   */\n    tag_76:\n        /* \"#utility.yul\":4730:4734   */\n      0x00\n        /* \"#utility.yul\":4820:4838   */\n      0xffffffffffffffff\n        /* \"#utility.yul\":4812:4818   */\n      dup3\n        /* \"#utility.yul\":4809:4839   */\n      gt\n        /* \"#utility.yul\":4806:4862   */\n      iszero\n      tag_158\n      jumpi\n        /* \"#utility.yul\":4842:4860   */\n      tag_159\n      tag_160\n      jump\t// in\n    tag_159:\n        /* \"#utility.yul\":4806:4862   */\n    tag_158:\n        /* \"#utility.yul\":4880:4909   */\n      tag_161\n        /* \"#utility.yul\":4902:4908   */\n      dup3\n        /* \"#utility.yul\":4880:4909   */\n      tag_138\n      jump\t// in\n    tag_161:\n        /* \"#utility.yul\":4872:4909   */\n      swap1\n      pop\n        /* \"#utility.yul\":4964:4968   */\n      0x20\n        /* \"#utility.yul\":4958:4962   */\n      dup2\n        /* \"#utility.yul\":4954:4969   */\n      add\n        /* \"#utility.yul\":4946:4969   */\n      swap1\n      pop\n        /* \"#utility.yul\":4668:4976   */\n      swap2\n      swap1\n      pop\n      jump\t// out\n        /* \"#utility.yul\":4982:5081   */\n    tag_132:\n        /* \"#utility.yul\":5034:5040   */\n      0x00\n        /* \"#utility.yul\":5068:5073   */\n      dup2\n        /* \"#utility.yul\":5062:5074   */\n      mload\n        /* \"#utility.yul\":5052:5074   */\n      swap1\n      pop\n        /* \"#utility.yul\":4982:5081   */\n      swap2\n      swap1\n      pop\n      jump\t// out\n        /* \"#utility.yul\":5087:5256   */\n    tag_134:\n        /* \"#utility.yul\":5171:5182   */\n      0x00\n        /* \"#utility.yul\":5205:5211   */\n      dup3\n        /* \"#utility.yul\":5200:5203   */\n      dup3\n        /* \"#utility.yul\":5193:5212   */\n      mstore\n        /* \"#utility.yul\":5245:5249   */\n      0x20\n        /* \"#utility.yul\":5240:5243   */\n      dup3\n        /* \"#utility.yul\":5236:5250   */\n      add\n        /* \"#utility.yul\":5221:5250   */\n      swap1\n      pop\n        /* \"#utility.yul\":5087:5256   */\n      swap3\n      swap2\n      pop\n      pop\n      jump\t// out\n        /* \"#utility.yul\":5262:5358   */\n    tag_124:\n        /* \"#utility.yul\":5299:5306   */\n      0x00\n        /* \"#utility.yul\":5328:5352   */\n      tag_165\n        /* \"#utility.yul\":5346:5351   */\n      dup3\n        /* \"#utility.yul\":5328:5352   */\n      tag_166\n      jump\t// in\n    tag_165:\n        /* \"#utility.yul\":5317:5352   */\n      swap1\n      pop\n        /* \"#utility.yul\":5262:5358   */\n      swap2\n      swap1\n      pop\n      jump\t// out\n        /* \"#utility.yul\":5364:5454   */\n    tag_128:\n        /* \"#utility.yul\":5398:5405   */\n      0x00\n        /* \"#utility.yul\":5441:5446   */\n      dup2\n        /* \"#utility.yul\":5434:5447   */\n      iszero\n        /* \"#utility.yul\":5427:5448   */\n      iszero\n        /* \"#utility.yul\":5416:5448   */\n      swap1\n      pop\n        /* \"#utility.yul\":5364:5454   */\n      swap2\n      swap1\n      pop\n      jump\t// out\n        /* \"#utility.yul\":5460:5586   */\n    tag_166:\n        /* \"#utility.yul\":5497:5504   */\n      0x00\n        /* \"#utility.yul\":5537:5579   */\n      0xffffffffffffffffffffffffffffffffffffffff\n        /* \"#utility.yul\":5530:5535   */\n      dup3\n        /* \"#utility.yul\":5526:5580   */\n      and\n        /* \"#utility.yul\":5515:5580   */\n      swap1\n      pop\n        /* \"#utility.yul\":5460:5586   */\n      swap2\n      swap1\n      pop\n      jump\t// out\n        /* \"#utility.yul\":5592:5669   */\n    tag_142:\n        /* \"#utility.yul\":5629:5636   */\n      0x00\n        /* \"#utility.yul\":5658:5663   */\n      dup2\n        /* \"#utility.yul\":5647:5663   */\n      swap1\n      pop\n        /* \"#utility.yul\":5592:5669   */\n      swap2\n      swap1\n      pop\n      jump\t// out\n        /* \"#utility.yul\":5675:5829   */\n    tag_82:\n        /* \"#utility.yul\":5759:5765   */\n      dup3\n        /* \"#utility.yul\":5754:5757   */\n      dup2\n        /* \"#utility.yul\":5749:5752   */\n      dup4\n        /* \"#utility.yul\":5736:5766   */\n      calldatacopy\n        /* \"#utility.yul\":5821:5822   */\n      0x00\n        /* \"#utility.yul\":5812:5818   */\n      dup4\n        /* \"#utility.yul\":5807:5810   */\n      dup4\n        /* \"#utility.yul\":5803:5819   */\n      add\n        /* \"#utility.yul\":5796:5823   */\n      mstore\n        /* \"#utility.yul\":5675:5829   */\n      pop\n      pop\n      pop\n      jump\t// out\n        /* \"#utility.yul\":5835:6142   */\n    tag_136:\n        /* \"#utility.yul\":5903:5904   */\n      0x00\n        /* \"#utility.yul\":5913:6026   */\n    tag_172:\n        /* \"#utility.yul\":5927:5933   */\n      dup4\n        /* \"#utility.yul\":5924:5925   */\n      dup2\n        /* \"#utility.yul\":5921:5934   */\n      lt\n        /* \"#utility.yul\":5913:6026   */\n      iszero\n      tag_174\n      jumpi\n        /* \"#utility.yul\":6012:6013   */\n      dup1\n        /* \"#utility.yul\":6007:6010   */\n      dup3\n        /* \"#utility.yul\":6003:6014   */\n      add\n        /* \"#utility.yul\":5997:6015   */\n      mload\n        /* \"#utility.yul\":5993:5994   */\n      dup2\n        /* \"#utility.yul\":5988:5991   */\n      dup5\n        /* \"#utility.yul\":5984:5995   */\n      add\n        /* \"#utility.yul\":5977:6016   */\n      mstore\n        /* \"#utility.yul\":5949:5951   */\n      0x20\n        /* \"#utility.yul\":5946:5947   */\n      dup2\n        /* \"#utility.yul\":5942:5952   */\n      add\n        /* \"#utility.yul\":5937:5952   */\n      swap1\n      pop\n        /* \"#utility.yul\":5913:6026   */\n      jump(tag_172)\n    tag_174:\n        /* \"#utility.yul\":6044:6050   */\n      dup4\n        /* \"#utility.yul\":6041:6042   */\n      dup2\n        /* \"#utility.yul\":6038:6051   */\n      gt\n        /* \"#utility.yul\":6035:6136   */\n      iszero\n      tag_175\n      jumpi\n        /* \"#utility.yul\":6124:6125   */\n      0x00\n        /* \"#utility.yul\":6115:6121   */\n      dup5\n        /* \"#utility.yul\":6110:6113   */\n      dup5\n        /* \"#utility.yul\":6106:6122   */\n      add\n        /* \"#utility.yul\":6099:6126   */\n      mstore\n        /* \"#utility.yul\":6035:6136   */\n    tag_175:\n        /* \"#utility.yul\":5884:6142   */\n      pop\n        /* \"#utility.yul\":5835:6142   */\n      pop\n      pop\n      pop\n      jump\t// out\n        /* \"#utility.yul\":6148:6319   */\n    tag_64:\n        /* \"#utility.yul\":6187:6190   */\n      0x00\n        /* \"#utility.yul\":6210:6234   */\n      tag_177\n        /* \"#utility.yul\":6228:6233   */\n      dup3\n        /* \"#utility.yul\":6210:6234   */\n      tag_142\n      jump\t// in\n    tag_177:\n        /* \"#utility.yul\":6201:6234   */\n      swap2\n      pop\n        /* \"#utility.yul\":6256:6260   */\n      0x00\n        /* \"#utility.yul\":6249:6254   */\n      dup3\n        /* \"#utility.yul\":6246:6261   */\n      eq\n        /* \"#utility.yul\":6243:6284   */\n      iszero\n      tag_178\n      jumpi\n        /* \"#utility.yul\":6264:6282   */\n      tag_179\n      tag_180\n      jump\t// in\n    tag_179:\n        /* \"#utility.yul\":6243:6284   */\n    tag_178:\n        /* \"#utility.yul\":6311:6312   */\n      0x01\n        /* \"#utility.yul\":6304:6309   */\n      dup3\n        /* \"#utility.yul\":6300:6313   */\n      sub\n        /* \"#utility.yul\":6293:6313   */\n      swap1\n      pop\n        /* \"#utility.yul\":6148:6319   */\n      swap2\n      swap1\n      pop\n      jump\t// out\n        /* \"#utility.yul\":6325:6645   */\n    tag_56:\n        /* \"#utility.yul\":6369:6375   */\n      0x00\n        /* \"#utility.yul\":6406:6407   */\n      0x02\n        /* \"#utility.yul\":6400:6404   */\n      dup3\n        /* \"#utility.yul\":6396:6408   */\n      div\n        /* \"#utility.yul\":6386:6408   */\n      swap1\n      pop\n        /* \"#utility.yul\":6453:6454   */\n      0x01\n        /* \"#utility.yul\":6447:6451   */\n      dup3\n        /* \"#utility.yul\":6443:6455   */\n      and\n        /* \"#utility.yul\":6474:6492   */\n      dup1\n        /* \"#utility.yul\":6464:6545   */\n      tag_182\n      jumpi\n        /* \"#utility.yul\":6530:6534   */\n      0x7f\n        /* \"#utility.yul\":6522:6528   */\n      dup3\n        /* \"#utility.yul\":6518:6535   */\n      and\n        /* \"#utility.yul\":6508:6535   */\n      swap2\n      pop\n        /* \"#utility.yul\":6464:6545   */\n    tag_182:\n        /* \"#utility.yul\":6592:6594   */\n      0x20\n        /* \"#utility.yul\":6584:6590   */\n      dup3\n        /* \"#utility.yul\":6581:6595   */\n      lt\n        /* \"#utility.yul\":6561:6579   */\n      dup2\n        /* \"#utility.yul\":6558:6596   */\n      eq\n        /* \"#utility.yul\":6555:6639   */\n      iszero\n      tag_183\n      jumpi\n        /* \"#utility.yul\":6611:6629   */\n      tag_184\n      tag_185\n      jump\t// in\n    tag_184:\n        /* \"#utility.yul\":6555:6639   */\n    tag_183:\n        /* \"#utility.yul\":6376:6645   */\n      pop\n        /* \"#utility.yul\":6325:6645   */\n      swap2\n      swap1\n      pop\n      jump\t// out\n        /* \"#utility.yul\":6651:6932   */\n    tag_155:\n        /* \"#utility.yul\":6734:6761   */\n      tag_187\n        /* \"#utility.yul\":6756:6760   */\n      dup3\n        /* \"#utility.yul\":6734:6761   */\n      tag_138\n      jump\t// in\n    tag_187:\n        /* \"#utility.yul\":6726:6732   */\n      dup2\n        /* \"#utility.yul\":6722:6762   */\n      add\n        /* \"#utility.yul\":6864:6870   */\n      dup2\n        /* \"#utility.yul\":6852:6862   */\n      dup2\n        /* \"#utility.yul\":6849:6871   */\n      lt\n        /* \"#utility.yul\":6828:6846   */\n      0xffffffffffffffff\n        /* \"#utility.yul\":6816:6826   */\n      dup3\n        /* \"#utility.yul\":6813:6847   */\n      gt\n        /* \"#utility.yul\":6810:6872   */\n      or\n        /* \"#utility.yul\":6807:6895   */\n      iszero\n      tag_188\n      jumpi\n        /* \"#utility.yul\":6875:6893   */\n      tag_189\n      tag_160\n      jump\t// in\n    tag_189:\n        /* \"#utility.yul\":6807:6895   */\n    tag_188:\n        /* \"#utility.yul\":6915:6925   */\n      dup1\n        /* \"#utility.yul\":6911:6913   */\n      0x40\n        /* \"#utility.yul\":6904:6926   */\n      mstore\n        /* \"#utility.yul\":6694:6932   */\n      pop\n        /* \"#utility.yul\":6651:6932   */\n      pop\n      pop\n      jump\t// out\n        /* \"#utility.yul\":6938:7171   */\n    tag_70:\n        /* \"#utility.yul\":6977:6980   */\n      0x00\n        /* \"#utility.yul\":7000:7024   */\n      tag_191\n        /* \"#utility.yul\":7018:7023   */\n      dup3\n        /* \"#utility.yul\":7000:7024   */\n      tag_142\n      jump\t// in\n    tag_191:\n        /* \"#utility.yul\":6991:7024   */\n      swap2\n      pop\n        /* \"#utility.yul\":7046:7112   */\n      0xffffffffffffffffffffffffffffffffffffffffffffffffffffffffffffffff\n        /* \"#utility.yul\":7039:7044   */\n      dup3\n        /* \"#utility.yul\":7036:7113   */\n      eq\n        /* \"#utility.yul\":7033:7136   */\n      iszero\n      tag_192\n      jumpi\n        /* \"#utility.yul\":7116:7134   */\n      tag_193\n      tag_180\n      jump\t// in\n    tag_193:\n        /* \"#utility.yul\":7033:7136   */\n    tag_192:\n        /* \"#utility.yul\":7163:7164   */\n      0x01\n        /* \"#utility.yul\":7156:7161   */\n      dup3\n        /* \"#utility.yul\":7152:7165   */\n      add\n        /* \"#utility.yul\":7145:7165   */\n      swap1\n      pop\n        /* \"#utility.yul\":6938:7171   */\n      swap2\n      swap1\n      pop\n      jump\t// out\n        /* \"#utility.yul\":7177:7357   */\n    tag_180:\n        /* \"#utility.yul\":7225:7302   */\n      0x4e487b7100000000000000000000000000000000000000000000000000000000\n        /* \"#utility.yul\":7222:7223   */\n      0x00\n        /* \"#utility.yul\":7215:7303   */\n      mstore\n        /* \"#utility.yul\":7322:7326   */\n      0x11\n        /* \"#utility.yul\":7319:7320   */\n      0x04\n        /* \"#utility.yul\":7312:7327   */\n      mstore\n        /* \"#utility.yul\":7346:7350   */\n      0x24\n        /* \"#utility.yul\":7343:7344   */\n      0x00\n        /* \"#utility.yul\":7336:7351   */\n      revert\n        /* \"#utility.yul\":7363:7543   */\n    tag_185:\n        /* \"#utility.yul\":7411:7488   */\n      0x4e487b7100000000000000000000000000000000000000000000000000000000\n        /* \"#utility.yul\":7408:7409   */\n      0x00\n        /* \"#utility.yul\":7401:7489   */\n      mstore\n        /* \"#utility.yul\":7508:7512   */\n      0x22\n        /* \"#utility.yul\":7505:7506   */\n      0x04\n        /* \"#utility.yul\":7498:7513   */\n      mstore\n        /* \"#utility.yul\":7532:7536   */\n      0x24\n        /* \"#utility.yul\":7529:7530   */\n      0x00\n        /* \"#utility.yul\":7522:7537   */\n      revert\n        /* \"#utility.yul\":7549:7729   */\n    tag_160:\n        /* \"#utility.yul\":7597:7674   */\n      0x4e487b7100000000000000000000000000000000000000000000000000000000\n        /* \"#utility.yul\":7594:7595   */\n      0x00\n        /* \"#utility.yul\":7587:7675   */\n      mstore\n        /* \"#utility.yul\":7694:7698   */\n      0x41\n        /* \"#utility.yul\":7691:7692   */\n      0x04\n        /* \"#utility.yul\":7684:7699   */\n      mstore\n        /* \"#utility.yul\":7718:7722   */\n      0x24\n        /* \"#utility.yul\":7715:7716   */\n      0x00\n        /* \"#utility.yul\":7708:7723   */\n      revert\n        /* \"#utility.yul\":7735:7852   */\n    tag_95:\n        /* \"#utility.yul\":7844:7845   */\n      0x00\n        /* \"#utility.yul\":7841:7842   */\n      dup1\n        /* \"#utility.yul\":7834:7846   */\n      revert\n        /* \"#utility.yul\":7858:7975   */\n    tag_80:\n        /* \"#utility.yul\":7967:7968   */\n      0x00\n        /* \"#utility.yul\":7964:7965   */\n      dup1\n        /* \"#utility.yul\":7957:7969   */\n      revert\n        /* \"#utility.yul\":7981:8098   */\n    tag_115:\n        /* \"#utility.yul\":8090:8091   */\n      0x00\n        /* \"#utility.yul\":8087:8088   */\n      dup1\n        /* \"#utility.yul\":8080:8092   */\n      revert\n        /* \"#utility.yul\":8104:8221   */\n    tag_104:\n        /* \"#utility.yul\":8213:8214   */\n      0x00\n        /* \"#utility.yul\":8210:8211   */\n      dup1\n        /* \"#utility.yul\":8203:8215   */\n      revert\n        /* \"#utility.yul\":8227:8329   */\n    tag_138:\n        /* \"#utility.yul\":8268:8274   */\n      0x00\n        /* \"#utility.yul\":8319:8321   */\n      0x1f\n        /* \"#utility.yul\":8315:8322   */\n      not\n        /* \"#utility.yul\":8310:8312   */\n      0x1f\n        /* \"#utility.yul\":8303:8308   */\n      dup4\n        /* \"#utility.yul\":8299:8313   */\n      add\n        /* \"#utility.yul\":8295:8323   */\n      and\n        /* \"#utility.yul\":8285:8323   */\n      swap1\n      pop\n        /* \"#utility.yul\":8227:8329   */\n      swap2\n      swap1\n      pop\n      jump\t// out\n        /* \"#utility.yul\":8335:8457   */\n    tag_86:\n        /* \"#utility.yul\":8408:8432   */\n      tag_203\n        /* \"#utility.yul\":8426:8431   */\n      dup2\n        /* \"#utility.yul\":8408:8432   */\n      tag_124\n      jump\t// in\n    tag_203:\n        /* \"#utility.yul\":8401:8406   */\n      dup2\n        /* \"#utility.yul\":8398:8433   */\n      eq\n        /* \"#utility.yul\":8388:8451   */\n      tag_204\n      jumpi\n        /* \"#utility.yul\":8447:8448   */\n      0x00\n        /* \"#utility.yul\":8444:8445   */\n      dup1\n        /* \"#utility.yul\":8437:8449   */\n      revert\n        /* \"#utility.yul\":8388:8451   */\n    tag_204:\n        /* \"#utility.yul\":8335:8457   */\n      pop\n      jump\t// out\n        /* \"#utility.yul\":8463:8579   */\n    tag_90:\n        /* \"#utility.yul\":8533:8554   */\n      tag_206\n        /* \"#utility.yul\":8548:8553   */\n      dup2\n        /* \"#utility.yul\":8533:8554   */\n      tag_128\n      jump\t// in\n    tag_206:\n        /* \"#utility.yul\":8526:8531   */\n      dup2\n        /* \"#utility.yul\":8523:8555   */\n      eq\n        /* \"#utility.yul\":8513:8573   */\n      tag_207\n      jumpi\n        /* \"#utility.yul\":8569:8570   */\n      0x00\n        /* \"#utility.yul\":8566:8567   */\n      dup1\n        /* \"#utility.yul\":8559:8571   */\n      revert\n        /* \"#utility.yul\":8513:8573   */\n    tag_207:\n        /* \"#utility.yul\":8463:8579   */\n      pop\n      jump\t// out\n        /* \"#utility.yul\":8585:8707   */\n    tag_100:\n        /* \"#utility.yul\":8658:8682   */\n      tag_209\n        /* \"#utility.yul\":8676:8681   */\n      dup2\n        /* \"#utility.yul\":8658:8682   */\n      tag_142\n      jump\t// in\n    tag_209:\n        /* \"#utility.yul\":8651:8656   */\n      dup2\n        /* \"#utility.yul\":8648:8683   */\n      eq\n        /* \"#utility.yul\":8638:8701   */\n      tag_210\n      jumpi\n        /* \"#utility.yul\":8697:8698   */\n      0x00\n        /* \"#utility.yul\":8694:8695   */\n      dup1\n        /* \"#utility.yul\":8687:8699   */\n      revert\n        /* \"#utility.yul\":8638:8701   */\n    tag_210:\n        /* \"#utility.yul\":8585:8707   */\n      pop\n      jump\t// out\n\n    auxdata: 0xa2646970667358221220849eac4369071a1a463bd97f771be19151980e7954f6542e92a0c16aa55474ba64736f6c63430008070033\n}\n",
				"bytecode": {
					"linkReferences": {},
					"object": "60806040526040518060400160405280600b81526020017f68656c6c6f20776f726c640000000000000000000000000000000000000000008152506002908051906020019061004f929190610062565b5034801561005c57600080fd5b50610166565b82805461006e90610105565b90600052602060002090601f01602090048101928261009057600085556100d7565b82601f106100a957805160ff19168380011785556100d7565b828001600101855582156100d7579182015b828111156100d65782518255916020019190600101906100bb565b5b5090506100e491906100e8565b5090565b5b808211156101015760008160009055506001016100e9565b5090565b6000600282049050600182168061011d57607f821691505b6020821081141561013157610130610137565b5b50919050565b7f4e487b7100000000000000000000000000000000000000000000000000000000600052602260045260246000fd5b6108c8806101756000396000f3fe608060405234801561001057600080fd5b50600436106100a95760003560e01c8063821805681161007157806382180568146101445780638d5833cb14610160578063a65046571461016a578063a8a7b89514610186578063eb1b30d9146101a2578063f102a71d146101be576100a9565b806315502612146100ae57806326b85ee1146100cc5780632cb777a6146100ea578063492bfa18146101085780636deecdbe14610126575b600080fd5b6100b66101c8565b6040516100c391906105ae565b60405180910390f35b6100d4610207565b6040516100e19190610556565b60405180910390f35b6100f261022b565b6040516100ff91906105ae565b60405180910390f35b610110610231565b60405161011d919061058c565b60405180910390f35b61012e6102bf565b60405161013b9190610571565b60405180910390f35b61015e6004803603810190610159919061047a565b6102d2565b005b6101686102d5565b005b610184600480360381019061017f91906104c3565b6102ee565b005b6101a0600480360381019061019b9190610420565b6102f8565b005b6101bc60048036038101906101b7919061044d565b61033b565b005b6101c6610358565b005b600060018054906101000a900473ffffffffffffffffffffffffffffffffffffffff1673ffffffffffffffffffffffffffffffffffffffff1631905090565b60018054906101000a900473ffffffffffffffffffffffffffffffffffffffff1681565b60005481565b6002805461023e906106ef565b80601f016020809104026020016040519081016040528092919081815260200182805461026a906106ef565b80156102b75780601f1061028c576101008083540402835291602001916102b7565b820191906000526020600020905b81548152906001019060200180831161029a57829003601f168201915b505050505081565b600160009054906101000a900460ff1681565b50565b6000808154809291906102e7906106c5565b9190505550565b8060008190555050565b806001806101000a81548173ffffffffffffffffffffffffffffffffffffffff021916908373ffffffffffffffffffffffffffffffffffffffff16021790555050565b80600160006101000a81548160ff02191690831515021790555050565b60008081548092919061036a90610752565b9190505550565b600061038461037f846105ee565b6105c9565b9050828152602081018484840111156103a05761039f61082d565b5b6103ab848285610683565b509392505050565b6000813590506103c28161084d565b92915050565b6000813590506103d781610864565b92915050565b600082601f8301126103f2576103f1610828565b5b8135610402848260208601610371565b91505092915050565b60008135905061041a8161087b565b92915050565b60006020828403121561043657610435610837565b5b6000610444848285016103b3565b91505092915050565b60006020828403121561046357610462610837565b5b6000610471848285016103c8565b91505092915050565b6000602082840312156104905761048f610837565b5b600082013567ffffffffffffffff8111156104ae576104ad610832565b5b6104ba848285016103dd565b91505092915050565b6000602082840312156104d9576104d8610837565b5b60006104e78482850161040b565b91505092915050565b6104f98161063b565b82525050565b6105088161064d565b82525050565b60006105198261061f565b610523818561062a565b9350610533818560208601610692565b61053c8161083c565b840191505092915050565b61055081610679565b82525050565b600060208201905061056b60008301846104f0565b92915050565b600060208201905061058660008301846104ff565b92915050565b600060208201905081810360008301526105a6818461050e565b905092915050565b60006020820190506105c36000830184610547565b92915050565b60006105d36105e4565b90506105df8282610721565b919050565b6000604051905090565b600067ffffffffffffffff821115610609576106086107f9565b5b6106128261083c565b9050602081019050919050565b600081519050919050565b600082825260208201905092915050565b600061064682610659565b9050919050565b60008115159050919050565b600073ffffffffffffffffffffffffffffffffffffffff82169050919050565b6000819050919050565b82818337600083830152505050565b60005b838110156106b0578082015181840152602081019050610695565b838111156106bf576000848401525b50505050565b60006106d082610679565b915060008214156106e4576106e361079b565b5b600182039050919050565b6000600282049050600182168061070757607f821691505b6020821081141561071b5761071a6107ca565b5b50919050565b61072a8261083c565b810181811067ffffffffffffffff82111715610749576107486107f9565b5b80604052505050565b600061075d82610679565b91507fffffffffffffffffffffffffffffffffffffffffffffffffffffffffffffffff8214156107905761078f61079b565b5b600182019050919050565b7f4e487b7100000000000000000000000000000000000000000000000000000000600052601160045260246000fd5b7f4e487b7100000000000000000000000000000000000000000000000000000000600052602260045260246000fd5b7f4e487b7100000000000000000000000000000000000000000000000000000000600052604160045260246000fd5b600080fd5b600080fd5b600080fd5b600080fd5b6000601f19601f8301169050919050565b6108568161063b565b811461086157600080fd5b50565b61086d8161064d565b811461087857600080fd5b50565b61088481610679565b811461088f57600080fd5b5056fea2646970667358221220849eac4369071a1a463bd97f771be19151980e7954f6542e92a0c16aa55474ba64736f6c63430008070033",
					"opcodes": "PUSH1 0x80 PUSH1 0x40 MSTORE PUSH1 0x40 MLOAD DUP1 PUSH1 0x40 ADD PUSH1 0x40 MSTORE DUP1 PUSH1 0xB DUP2 MSTORE PUSH1 0x20 ADD PUSH32 0x68656C6C6F20776F726C64000000000000000000000000000000000000000000 DUP2 MSTORE POP PUSH1 0x2 SWAP1 DUP1 MLOAD SWAP1 PUSH1 0x20 ADD SWAP1 PUSH2 0x4F SWAP3 SWAP2 SWAP1 PUSH2 0x62 JUMP JUMPDEST POP CALLVALUE DUP1 ISZERO PUSH2 0x5C JUMPI PUSH1 0x0 DUP1 REVERT JUMPDEST POP PUSH2 0x166 JUMP JUMPDEST DUP3 DUP1 SLOAD PUSH2 0x6E SWAP1 PUSH2 0x105 JUMP JUMPDEST SWAP1 PUSH1 0x0 MSTORE PUSH1 0x20 PUSH1 0x0 KECCAK256 SWAP1 PUSH1 0x1F ADD PUSH1 0x20 SWAP1 DIV DUP2 ADD SWAP3 DUP3 PUSH2 0x90 JUMPI PUSH1 0x0 DUP6 SSTORE PUSH2 0xD7 JUMP JUMPDEST DUP3 PUSH1 0x1F LT PUSH2 0xA9 JUMPI DUP1 MLOAD PUSH1 0xFF NOT AND DUP4 DUP1 ADD OR DUP6 SSTORE PUSH2 0xD7 JUMP JUMPDEST DUP3 DUP1 ADD PUSH1 0x1 ADD DUP6 SSTORE DUP3 ISZERO PUSH2 0xD7 JUMPI SWAP2 DUP3 ADD JUMPDEST DUP3 DUP2 GT ISZERO PUSH2 0xD6 JUMPI DUP3 MLOAD DUP3 SSTORE SWAP2 PUSH1 0x20 ADD SWAP2 SWAP1 PUSH1 0x1 ADD SWAP1 PUSH2 0xBB JUMP JUMPDEST JUMPDEST POP SWAP1 POP PUSH2 0xE4 SWAP2 SWAP1 PUSH2 0xE8 JUMP JUMPDEST POP SWAP1 JUMP JUMPDEST JUMPDEST DUP1 DUP3 GT ISZERO PUSH2 0x101 JUMPI PUSH1 0x0 DUP2 PUSH1 0x0 SWAP1 SSTORE POP PUSH1 0x1 ADD PUSH2 0xE9 JUMP JUMPDEST POP SWAP1 JUMP JUMPDEST PUSH1 0x0 PUSH1 0x2 DUP3 DIV SWAP1 POP PUSH1 0x1 DUP3 AND DUP1 PUSH2 0x11D JUMPI PUSH1 0x7F DUP3 AND SWAP2 POP JUMPDEST PUSH1 0x20 DUP3 LT DUP2 EQ ISZERO PUSH2 0x131 JUMPI PUSH2 0x130 PUSH2 0x137 JUMP JUMPDEST JUMPDEST POP SWAP2 SWAP1 POP JUMP JUMPDEST PUSH32 0x4E487B7100000000000000000000000000000000000000000000000000000000 PUSH1 0x0 MSTORE PUSH1 0x22 PUSH1 0x4 MSTORE PUSH1 0x24 PUSH1 0x0 REVERT JUMPDEST PUSH2 0x8C8 DUP1 PUSH2 0x175 PUSH1 0x0 CODECOPY PUSH1 0x0 RETURN INVALID PUSH1 0x80 PUSH1 0x40 MSTORE CALLVALUE DUP1 ISZERO PUSH2 0x10 JUMPI PUSH1 0x0 DUP1 REVERT JUMPDEST POP PUSH1 0x4 CALLDATASIZE LT PUSH2 0xA9 JUMPI PUSH1 0x0 CALLDATALOAD PUSH1 0xE0 SHR DUP1 PUSH4 0x82180568 GT PUSH2 0x71 JUMPI DUP1 PUSH4 0x82180568 EQ PUSH2 0x144 JUMPI DUP1 PUSH4 0x8D5833CB EQ PUSH2 0x160 JUMPI DUP1 PUSH4 0xA6504657 EQ PUSH2 0x16A JUMPI DUP1 PUSH4 0xA8A7B895 EQ PUSH2 0x186 JUMPI DUP1 PUSH4 0xEB1B30D9 EQ PUSH2 0x1A2 JUMPI DUP1 PUSH4 0xF102A71D EQ PUSH2 0x1BE JUMPI PUSH2 0xA9 JUMP JUMPDEST DUP1 PUSH4 0x15502612 EQ PUSH2 0xAE JUMPI DUP1 PUSH4 0x26B85EE1 EQ PUSH2 0xCC JUMPI DUP1 PUSH4 0x2CB777A6 EQ PUSH2 0xEA JUMPI DUP1 PUSH4 0x492BFA18 EQ PUSH2 0x108 JUMPI DUP1 PUSH4 0x6DEECDBE EQ PUSH2 0x126 JUMPI JUMPDEST PUSH1 0x0 DUP1 REVERT JUMPDEST PUSH2 0xB6 PUSH2 0x1C8 JUMP JUMPDEST PUSH1 0x40 MLOAD PUSH2 0xC3 SWAP2 SWAP1 PUSH2 0x5AE JUMP JUMPDEST PUSH1 0x40 MLOAD DUP1 SWAP2 SUB SWAP1 RETURN JUMPDEST PUSH2 0xD4 PUSH2 0x207 JUMP JUMPDEST PUSH1 0x40 MLOAD PUSH2 0xE1 SWAP2 SWAP1 PUSH2 0x556 JUMP JUMPDEST PUSH1 0x40 MLOAD DUP1 SWAP2 SUB SWAP1 RETURN JUMPDEST PUSH2 0xF2 PUSH2 0x22B JUMP JUMPDEST PUSH1 0x40 MLOAD PUSH2 0xFF SWAP2 SWAP1 PUSH2 0x5AE JUMP JUMPDEST PUSH1 0x40 MLOAD DUP1 SWAP2 SUB SWAP1 RETURN JUMPDEST PUSH2 0x110 PUSH2 0x231 JUMP JUMPDEST PUSH1 0x40 MLOAD PUSH2 0x11D SWAP2 SWAP1 PUSH2 0x58C JUMP JUMPDEST PUSH1 0x40 MLOAD DUP1 SWAP2 SUB SWAP1 RETURN JUMPDEST PUSH2 0x12E PUSH2 0x2BF JUMP JUMPDEST PUSH1 0x40 MLOAD PUSH2 0x13B SWAP2 SWAP1 PUSH2 0x571 JUMP JUMPDEST PUSH1 0x40 MLOAD DUP1 SWAP2 SUB SWAP1 RETURN JUMPDEST PUSH2 0x15E PUSH1 0x4 DUP1 CALLDATASIZE SUB DUP2 ADD SWAP1 PUSH2 0x159 SWAP2 SWAP1 PUSH2 0x47A JUMP JUMPDEST PUSH2 0x2D2 JUMP JUMPDEST STOP JUMPDEST PUSH2 0x168 PUSH2 0x2D5 JUMP JUMPDEST STOP JUMPDEST PUSH2 0x184 PUSH1 0x4 DUP1 CALLDATASIZE SUB DUP2 ADD SWAP1 PUSH2 0x17F SWAP2 SWAP1 PUSH2 0x4C3 JUMP JUMPDEST PUSH2 0x2EE JUMP JUMPDEST STOP JUMPDEST PUSH2 0x1A0 PUSH1 0x4 DUP1 CALLDATASIZE SUB DUP2 ADD SWAP1 PUSH2 0x19B SWAP2 SWAP1 PUSH2 0x420 JUMP JUMPDEST PUSH2 0x2F8 JUMP JUMPDEST STOP JUMPDEST PUSH2 0x1BC PUSH1 0x4 DUP1 CALLDATASIZE SUB DUP2 ADD SWAP1 PUSH2 0x1B7 SWAP2 SWAP1 PUSH2 0x44D JUMP JUMPDEST PUSH2 0x33B JUMP JUMPDEST STOP JUMPDEST PUSH2 0x1C6 PUSH2 0x358 JUMP JUMPDEST STOP JUMPDEST PUSH1 0x0 PUSH1 0x1 DUP1 SLOAD SWAP1 PUSH2 0x100 EXP SWAP1 DIV PUSH20 0xFFFFFFFFFFFFFFFFFFFFFFFFFFFFFFFFFFFFFFFF AND PUSH20 0xFFFFFFFFFFFFFFFFFFFFFFFFFFFFFFFFFFFFFFFF AND BALANCE SWAP1 POP SWAP1 JUMP JUMPDEST PUSH1 0x1 DUP1 SLOAD SWAP1 PUSH2 0x100 EXP SWAP1 DIV PUSH20 0xFFFFFFFFFFFFFFFFFFFFFFFFFFFFFFFFFFFFFFFF AND DUP2 JUMP JUMPDEST PUSH1 0x0 SLOAD DUP2 JUMP JUMPDEST PUSH1 0x2 DUP1 SLOAD PUSH2 0x23E SWAP1 PUSH2 0x6EF JUMP JUMPDEST DUP1 PUSH1 0x1F ADD PUSH1 0x20 DUP1 SWAP2 DIV MUL PUSH1 0x20 ADD PUSH1 0x40 MLOAD SWAP1 DUP2 ADD PUSH1 0x40 MSTORE DUP1 SWAP3 SWAP2 SWAP1 DUP2 DUP2 MSTORE PUSH1 0x20 ADD DUP3 DUP1 SLOAD PUSH2 0x26A SWAP1 PUSH2 0x6EF JUMP JUMPDEST DUP1 ISZERO PUSH2 0x2B7 JUMPI DUP1 PUSH1 0x1F LT PUSH2 0x28C JUMPI PUSH2 0x100 DUP1 DUP4 SLOAD DIV MUL DUP4 MSTORE SWAP2 PUSH1 0x20 ADD SWAP2 PUSH2 0x2B7 JUMP JUMPDEST DUP3 ADD SWAP2 SWAP1 PUSH1 0x0 MSTORE PUSH1 0x20 PUSH1 0x0 KECCAK256 SWAP1 JUMPDEST DUP2 SLOAD DUP2 MSTORE SWAP1 PUSH1 0x1 ADD SWAP1 PUSH1 0x20 ADD DUP1 DUP4 GT PUSH2 0x29A JUMPI DUP3 SWAP1 SUB PUSH1 0x1F AND DUP3 ADD SWAP2 JUMPDEST POP POP POP POP POP DUP2 JUMP JUMPDEST PUSH1 0x1 PUSH1 0x0 SWAP1 SLOAD SWAP1 PUSH2 0x100 EXP SWAP1 DIV PUSH1 0xFF AND DUP2 JUMP JUMPDEST POP JUMP JUMPDEST PUSH1 0x0 DUP1 DUP2 SLOAD DUP1 SWAP3 SWAP2 SWAP1 PUSH2 0x2E7 SWAP1 PUSH2 0x6C5 JUMP JUMPDEST SWAP2 SWAP1 POP SSTORE POP JUMP JUMPDEST DUP1 PUSH1 0x0 DUP2 SWAP1 SSTORE POP POP JUMP JUMPDEST DUP1 PUSH1 0x1 DUP1 PUSH2 0x100 EXP DUP2 SLOAD DUP2 PUSH20 0xFFFFFFFFFFFFFFFFFFFFFFFFFFFFFFFFFFFFFFFF MUL NOT AND SWAP1 DUP4 PUSH20 0xFFFFFFFFFFFFFFFFFFFFFFFFFFFFFFFFFFFFFFFF AND MUL OR SWAP1 SSTORE POP POP JUMP JUMPDEST DUP1 PUSH1 0x1 PUSH1 0x0 PUSH2 0x100 EXP DUP2 SLOAD DUP2 PUSH1 0xFF MUL NOT AND SWAP1 DUP4 ISZERO ISZERO MUL OR SWAP1 SSTORE POP POP JUMP JUMPDEST PUSH1 0x0 DUP1 DUP2 SLOAD DUP1 SWAP3 SWAP2 SWAP1 PUSH2 0x36A SWAP1 PUSH2 0x752 JUMP JUMPDEST SWAP2 SWAP1 POP SSTORE POP JUMP JUMPDEST PUSH1 0x0 PUSH2 0x384 PUSH2 0x37F DUP5 PUSH2 0x5EE JUMP JUMPDEST PUSH2 0x5C9 JUMP JUMPDEST SWAP1 POP DUP3 DUP2 MSTORE PUSH1 0x20 DUP2 ADD DUP5 DUP5 DUP5 ADD GT ISZERO PUSH2 0x3A0 JUMPI PUSH2 0x39F PUSH2 0x82D JUMP JUMPDEST JUMPDEST PUSH2 0x3AB DUP5 DUP3 DUP6 PUSH2 0x683 JUMP JUMPDEST POP SWAP4 SWAP3 POP POP POP JUMP JUMPDEST PUSH1 0x0 DUP2 CALLDATALOAD SWAP1 POP PUSH2 0x3C2 DUP2 PUSH2 0x84D JUMP JUMPDEST SWAP3 SWAP2 POP POP JUMP JUMPDEST PUSH1 0x0 DUP2 CALLDATALOAD SWAP1 POP PUSH2 0x3D7 DUP2 PUSH2 0x864 JUMP JUMPDEST SWAP3 SWAP2 POP POP JUMP JUMPDEST PUSH1 0x0 DUP3 PUSH1 0x1F DUP4 ADD SLT PUSH2 0x3F2 JUMPI PUSH2 0x3F1 PUSH2 0x828 JUMP JUMPDEST JUMPDEST DUP2 CALLDATALOAD PUSH2 0x402 DUP5 DUP3 PUSH1 0x20 DUP7 ADD PUSH2 0x371 JUMP JUMPDEST SWAP2 POP POP SWAP3 SWAP2 POP POP JUMP JUMPDEST PUSH1 0x0 DUP2 CALLDATALOAD SWAP1 POP PUSH2 0x41A DUP2 PUSH2 0x87B JUMP JUMPDEST SWAP3 SWAP2 POP POP JUMP JUMPDEST PUSH1 0x0 PUSH1 0x20 DUP3 DUP5 SUB SLT ISZERO PUSH2 0x436 JUMPI PUSH2 0x435 PUSH2 0x837 JUMP JUMPDEST JUMPDEST PUSH1 0x0 PUSH2 0x444 DUP5 DUP3 DUP6 ADD PUSH2 0x3B3 JUMP JUMPDEST SWAP2 POP POP SWAP3 SWAP2 POP POP JUMP JUMPDEST PUSH1 0x0 PUSH1 0x20 DUP3 DUP5 SUB SLT ISZERO PUSH2 0x463 JUMPI PUSH2 0x462 PUSH2 0x837 JUMP JUMPDEST JUMPDEST PUSH1 0x0 PUSH2 0x471 DUP5 DUP3 DUP6 ADD PUSH2 0x3C8 JUMP JUMPDEST SWAP2 POP POP SWAP3 SWAP2 POP POP JUMP JUMPDEST PUSH1 0x0 PUSH1 0x20 DUP3 DUP5 SUB SLT ISZERO PUSH2 0x490 JUMPI PUSH2 0x48F PUSH2 0x837 JUMP JUMPDEST JUMPDEST PUSH1 0x0 DUP3 ADD CALLDATALOAD PUSH8 0xFFFFFFFFFFFFFFFF DUP2 GT ISZERO PUSH2 0x4AE JUMPI PUSH2 0x4AD PUSH2 0x832 JUMP JUMPDEST JUMPDEST PUSH2 0x4BA DUP5 DUP3 DUP6 ADD PUSH2 0x3DD JUMP JUMPDEST SWAP2 POP POP SWAP3 SWAP2 POP POP JUMP JUMPDEST PUSH1 0x0 PUSH1 0x20 DUP3 DUP5 SUB SLT ISZERO PUSH2 0x4D9 JUMPI PUSH2 0x4D8 PUSH2 0x837 JUMP JUMPDEST JUMPDEST PUSH1 0x0 PUSH2 0x4E7 DUP5 DUP3 DUP6 ADD PUSH2 0x40B JUMP JUMPDEST SWAP2 POP POP SWAP3 SWAP2 POP POP JUMP JUMPDEST PUSH2 0x4F9 DUP2 PUSH2 0x63B JUMP JUMPDEST DUP3 MSTORE POP POP JUMP JUMPDEST PUSH2 0x508 DUP2 PUSH2 0x64D JUMP JUMPDEST DUP3 MSTORE POP POP JUMP JUMPDEST PUSH1 0x0 PUSH2 0x519 DUP3 PUSH2 0x61F JUMP JUMPDEST PUSH2 0x523 DUP2 DUP6 PUSH2 0x62A JUMP JUMPDEST SWAP4 POP PUSH2 0x533 DUP2 DUP6 PUSH1 0x20 DUP7 ADD PUSH2 0x692 JUMP JUMPDEST PUSH2 0x53C DUP2 PUSH2 0x83C JUMP JUMPDEST DUP5 ADD SWAP2 POP POP SWAP3 SWAP2 POP POP JUMP JUMPDEST PUSH2 0x550 DUP2 PUSH2 0x679 JUMP JUMPDEST DUP3 MSTORE POP POP JUMP JUMPDEST PUSH1 0x0 PUSH1 0x20 DUP3 ADD SWAP1 POP PUSH2 0x56B PUSH1 0x0 DUP4 ADD DUP5 PUSH2 0x4F0 JUMP JUMPDEST SWAP3 SWAP2 POP POP JUMP JUMPDEST PUSH1 0x0 PUSH1 0x20 DUP3 ADD SWAP1 POP PUSH2 0x586 PUSH1 0x0 DUP4 ADD DUP5 PUSH2 0x4FF JUMP JUMPDEST SWAP3 SWAP2 POP POP JUMP JUMPDEST PUSH1 0x0 PUSH1 0x20 DUP3 ADD SWAP1 POP DUP2 DUP2 SUB PUSH1 0x0 DUP4 ADD MSTORE PUSH2 0x5A6 DUP2 DUP5 PUSH2 0x50E JUMP JUMPDEST SWAP1 POP SWAP3 SWAP2 POP POP JUMP JUMPDEST PUSH1 0x0 PUSH1 0x20 DUP3 ADD SWAP1 POP PUSH2 0x5C3 PUSH1 0x0 DUP4 ADD DUP5 PUSH2 0x547 JUMP JUMPDEST SWAP3 SWAP2 POP POP JUMP JUMPDEST PUSH1 0x0 PUSH2 0x5D3 PUSH2 0x5E4 JUMP JUMPDEST SWAP1 POP PUSH2 0x5DF DUP3 DUP3 PUSH2 0x721 JUMP JUMPDEST SWAP2 SWAP1 POP JUMP JUMPDEST PUSH1 0x0 PUSH1 0x40 MLOAD SWAP1 POP SWAP1 JUMP JUMPDEST PUSH1 0x0 PUSH8 0xFFFFFFFFFFFFFFFF DUP3 GT ISZERO PUSH2 0x609 JUMPI PUSH2 0x608 PUSH2 0x7F9 JUMP JUMPDEST JUMPDEST PUSH2 0x612 DUP3 PUSH2 0x83C JUMP JUMPDEST SWAP1 POP PUSH1 0x20 DUP2 ADD SWAP1 POP SWAP2 SWAP1 POP JUMP JUMPDEST PUSH1 0x0 DUP2 MLOAD SWAP1 POP SWAP2 SWAP1 POP JUMP JUMPDEST PUSH1 0x0 DUP3 DUP3 MSTORE PUSH1 0x20 DUP3 ADD SWAP1 POP SWAP3 SWAP2 POP POP JUMP JUMPDEST PUSH1 0x0 PUSH2 0x646 DUP3 PUSH2 0x659 JUMP JUMPDEST SWAP1 POP SWAP2 SWAP1 POP JUMP JUMPDEST PUSH1 0x0 DUP2 ISZERO ISZERO SWAP1 POP SWAP2 SWAP1 POP JUMP JUMPDEST PUSH1 0x0 PUSH20 0xFFFFFFFFFFFFFFFFFFFFFFFFFFFFFFFFFFFFFFFF DUP3 AND SWAP1 POP SWAP2 SWAP1 POP JUMP JUMPDEST PUSH1 0x0 DUP2 SWAP1 POP SWAP2 SWAP1 POP JUMP JUMPDEST DUP3 DUP2 DUP4 CALLDATACOPY PUSH1 0x0 DUP4 DUP4 ADD MSTORE POP POP POP JUMP JUMPDEST PUSH1 0x0 JUMPDEST DUP4 DUP2 LT ISZERO PUSH2 0x6B0 JUMPI DUP1 DUP3 ADD MLOAD DUP2 DUP5 ADD MSTORE PUSH1 0x20 DUP2 ADD SWAP1 POP PUSH2 0x695 JUMP JUMPDEST DUP4 DUP2 GT ISZERO PUSH2 0x6BF JUMPI PUSH1 0x0 DUP5 DUP5 ADD MSTORE JUMPDEST POP POP POP POP JUMP JUMPDEST PUSH1 0x0 PUSH2 0x6D0 DUP3 PUSH2 0x679 JUMP JUMPDEST SWAP2 POP PUSH1 0x0 DUP3 EQ ISZERO PUSH2 0x6E4 JUMPI PUSH2 0x6E3 PUSH2 0x79B JUMP JUMPDEST JUMPDEST PUSH1 0x1 DUP3 SUB SWAP1 POP SWAP2 SWAP1 POP JUMP JUMPDEST PUSH1 0x0 PUSH1 0x2 DUP3 DIV SWAP1 POP PUSH1 0x1 DUP3 AND DUP1 PUSH2 0x707 JUMPI PUSH1 0x7F DUP3 AND SWAP2 POP JUMPDEST PUSH1 0x20 DUP3 LT DUP2 EQ ISZERO PUSH2 0x71B JUMPI PUSH2 0x71A PUSH2 0x7CA JUMP JUMPDEST JUMPDEST POP SWAP2 SWAP1 POP JUMP JUMPDEST PUSH2 0x72A DUP3 PUSH2 0x83C JUMP JUMPDEST DUP2 ADD DUP2 DUP2 LT PUSH8 0xFFFFFFFFFFFFFFFF DUP3 GT OR ISZERO PUSH2 0x749 JUMPI PUSH2 0x748 PUSH2 0x7F9 JUMP JUMPDEST JUMPDEST DUP1 PUSH1 0x40 MSTORE POP POP POP JUMP JUMPDEST PUSH1 0x0 PUSH2 0x75D DUP3 PUSH2 0x679 JUMP JUMPDEST SWAP2 POP PUSH32 0xFFFFFFFFFFFFFFFFFFFFFFFFFFFFFFFFFFFFFFFFFFFFFFFFFFFFFFFFFFFFFFFF DUP3 EQ ISZERO PUSH2 0x790 JUMPI PUSH2 0x78F PUSH2 0x79B JUMP JUMPDEST JUMPDEST PUSH1 0x1 DUP3 ADD SWAP1 POP SWAP2 SWAP1 POP JUMP JUMPDEST PUSH32 0x4E487B7100000000000000000000000000000000000000000000000000000000 PUSH1 0x0 MSTORE PUSH1 0x11 PUSH1 0x4 MSTORE PUSH1 0x24 PUSH1 0x0 REVERT JUMPDEST PUSH32 0x4E487B7100000000000000000000000000000000000000000000000000000000 PUSH1 0x0 MSTORE PUSH1 0x22 PUSH1 0x4 MSTORE PUSH1 0x24 PUSH1 0x0 REVERT JUMPDEST PUSH32 0x4E487B7100000000000000000000000000000000000000000000000000000000 PUSH1 0x0 MSTORE PUSH1 0x41 PUSH1 0x4 MSTORE PUSH1 0x24 PUSH1 0x0 REVERT JUMPDEST PUSH1 0x0 DUP1 REVERT JUMPDEST PUSH1 0x0 DUP1 REVERT JUMPDEST PUSH1 0x0 DUP1 REVERT JUMPDEST PUSH1 0x0 DUP1 REVERT JUMPDEST PUSH1 0x0 PUSH1 0x1F NOT PUSH1 0x1F DUP4 ADD AND SWAP1 POP SWAP2 SWAP1 POP JUMP JUMPDEST PUSH2 0x856 DUP2 PUSH2 0x63B JUMP JUMPDEST DUP2 EQ PUSH2 0x861 JUMPI PUSH1 0x0 DUP1 REVERT JUMPDEST POP JUMP JUMPDEST PUSH2 0x86D DUP2 PUSH2 0x64D JUMP JUMPDEST DUP2 EQ PUSH2 0x878 JUMPI PUSH1 0x0 DUP1 REVERT JUMPDEST POP JUMP JUMPDEST PUSH2 0x884 DUP2 PUSH2 0x679 JUMP JUMPDEST DUP2 EQ PUSH2 0x88F JUMPI PUSH1 0x0 DUP1 REVERT JUMPDEST POP JUMP INVALID LOG2 PUSH5 0x6970667358 0x22 SLT KECCAK256 DUP5 SWAP15 0xAC NUMBER PUSH10 0x71A1A463BD97F771BE1 SWAP2 MLOAD SWAP9 0xE PUSH26 0x54F6542E92A0C16AA55474BA64736F6C63430008070033000000 "
				},
				"gasEstimates": {
					"creation": {
						"codeDepositCost": "449600",
						"executionCost": "infinite",
						"totalCost": "infinite"
					},
					"external": {
						"decrementInt()": "24526",
						"getBalanceOfAddress()": "5127",
						"incrementInt()": "24614",
						"myAddress()": "2584",
						"myBool()": "2560",
						"myInt()": "2474",
						"myString()": "infinite",
						"setMyAddress(address)": "24838",
						"setMyBool(bool)": "24767",
						"setMyInt(uint256)": "22564",
						"setMyString(string)": "infinite"
					}
				},
				"methodIdentifiers": {
					"decrementInt()": "8d5833cb",
					"getBalanceOfAddress()": "15502612",
					"incrementInt()": "f102a71d",
					"myAddress()": "26b85ee1",
					"myBool()": "6deecdbe",
					"myInt()": "2cb777a6",
					"myString()": "492bfa18",
					"setMyAddress(address)": "a8a7b895",
					"setMyBool(bool)": "eb1b30d9",
					"setMyInt(uint256)": "a6504657",
					"setMyString(string)": "82180568"
				}
			},
			"storageLayout": {
				"storage": [
					{
						"astId": 3,
						"contract": "contracts/basics/artifacts/Variables.sol:Variables",
						"label": "myInt",
						"offset": 0,
						"slot": "0",
						"type": "t_uint256"
					},
					{
						"astId": 15,
						"contract": "contracts/basics/artifacts/Variables.sol:Variables",
						"label": "myBool",
						"offset": 0,
						"slot": "1",
						"type": "t_bool"
					},
					{
						"astId": 41,
						"contract": "contracts/basics/artifacts/Variables.sol:Variables",
						"label": "myAddress",
						"offset": 1,
						"slot": "1",
						"type": "t_address"
					},
					{
						"astId": 63,
						"contract": "contracts/basics/artifacts/Variables.sol:Variables",
						"label": "myString",
						"offset": 0,
						"slot": "2",
						"type": "t_string_storage"
					}
				],
				"types": {
					"t_address": {
						"encoding": "inplace",
						"label": "address",
						"numberOfBytes": "20"
					},
					"t_bool": {
						"encoding": "inplace",
						"label": "bool",
						"numberOfBytes": "1"
					},
					"t_string_storage": {
						"encoding": "bytes",
						"label": "string",
						"numberOfBytes": "32"
					},
					"t_uint256": {
						"encoding": "inplace",
						"label": "uint256",
						"numberOfBytes": "32"
					}
				}
			},
			"userdoc": {
				"kind": "user",
				"methods": {},
				"version": 1
			}
		}
	}
}