{
	"contracts/basics/artifacts/Variables.sol": {
		"Variables": {
			"abi": [
				{
					"inputs": [],
					"name": "decrementInt",
					"outputs": [],
					"stateMutability": "nonpayable",
					"type": "function"
				},
				{
					"inputs": [],
					"name": "getBalanceOfAddress",
					"outputs": [
						{
							"internalType": "uint256",
							"name": "",
							"type": "uint256"
						}
					],
					"stateMutability": "view",
					"type": "function"
				},
				{
					"inputs": [],
					"name": "incrementInt",
					"outputs": [],
					"stateMutability": "nonpayable",
					"type": "function"
				},
				{
					"inputs": [],
					"name": "myAddress",
					"outputs": [
						{
							"internalType": "address",
							"name": "",
							"type": "address"
						}
					],
					"stateMutability": "view",
					"type": "function"
				},
				{
					"inputs": [],
					"name": "myBool",
					"outputs": [
						{
							"internalType": "bool",
							"name": "",
							"type": "bool"
						}
					],
					"stateMutability": "view",
					"type": "function"
				},
				{
					"inputs": [],
					"name": "myInt",
					"outputs": [
						{
							"internalType": "uint256",
							"name": "",
							"type": "uint256"
						}
					],
					"stateMutability": "view",
					"type": "function"
				},
				{
					"inputs": [
						{
							"internalType": "address",
							"name": "_myAddress",
							"type": "address"
						}
					],
					"name": "setMyAddress",
					"outputs": [],
					"stateMutability": "nonpayable",
					"type": "function"
				},
				{
					"inputs": [
						{
							"internalType": "bool",
							"name": "_myBool",
							"type": "bool"
						}
					],
					"name": "setMyBool",
					"outputs": [],
					"stateMutability": "nonpayable",
					"type": "function"
				},
				{
					"inputs": [
						{
							"internalType": "uint256",
							"name": "_myInt",
							"type": "uint256"
						}
					],
					"name": "setMyInt",
					"outputs": [],
					"stateMutability": "nonpayable",
					"type": "function"
				}
			],
			"devdoc": {
				"kind": "dev",
				"methods": {},
				"version": 1
			},
			"evm": {
				"assembly": "    /* \"contracts/basics/artifacts/Variables.sol\":58:631  contract Variables{\r... */\n  mstore(0x40, 0x80)\n  callvalue\n  dup1\n  iszero\n  tag_1\n  jumpi\n  0x00\n  dup1\n  revert\ntag_1:\n  pop\n  dataSize(sub_0)\n  dup1\n  dataOffset(sub_0)\n  0x00\n  codecopy\n  0x00\n  return\nstop\n\nsub_0: assembly {\n        /* \"contracts/basics/artifacts/Variables.sol\":58:631  contract Variables{\r... */\n      mstore(0x40, 0x80)\n      callvalue\n      dup1\n      iszero\n      tag_1\n      jumpi\n      0x00\n      dup1\n      revert\n    tag_1:\n      pop\n      jumpi(tag_2, lt(calldatasize, 0x04))\n      shr(0xe0, calldataload(0x00))\n      dup1\n      0x8d5833cb\n      gt\n      tag_12\n      jumpi\n      dup1\n      0x8d5833cb\n      eq\n      tag_7\n      jumpi\n      dup1\n      0xa6504657\n      eq\n      tag_8\n      jumpi\n      dup1\n      0xa8a7b895\n      eq\n      tag_9\n      jumpi\n      dup1\n      0xeb1b30d9\n      eq\n      tag_10\n      jumpi\n      dup1\n      0xf102a71d\n      eq\n      tag_11\n      jumpi\n      jump(tag_2)\n    tag_12:\n      dup1\n      0x15502612\n      eq\n      tag_3\n      jumpi\n      dup1\n      0x26b85ee1\n      eq\n      tag_4\n      jumpi\n      dup1\n      0x2cb777a6\n      eq\n      tag_5\n      jumpi\n      dup1\n      0x6deecdbe\n      eq\n      tag_6\n      jumpi\n    tag_2:\n      0x00\n      dup1\n      revert\n        /* \"contracts/basics/artifacts/Variables.sol\":560:626  function getBalanceOfAddress() public view returns(uint){\r... */\n    tag_3:\n      tag_13\n      tag_14\n      jump\t// in\n    tag_13:\n      mload(0x40)\n      tag_15\n      swap2\n      swap1\n      tag_16\n      jump\t// in\n    tag_15:\n      mload(0x40)\n      dup1\n      swap2\n      sub\n      swap1\n      return\n        /* \"contracts/basics/artifacts/Variables.sol\":430:454  address public myAddress */\n    tag_4:\n      tag_17\n      tag_18\n      jump\t// in\n    tag_17:\n      mload(0x40)\n      tag_19\n      swap2\n      swap1\n      tag_20\n      jump\t// in\n    tag_19:\n      mload(0x40)\n      dup1\n      swap2\n      sub\n      swap1\n      return\n        /* \"contracts/basics/artifacts/Variables.sol\":83:103  uint256 public myInt */\n    tag_5:\n      tag_21\n      tag_22\n      jump\t// in\n    tag_21:\n      mload(0x40)\n      tag_23\n      swap2\n      swap1\n      tag_16\n      jump\t// in\n    tag_23:\n      mload(0x40)\n      dup1\n      swap2\n      sub\n      swap1\n      return\n        /* \"contracts/basics/artifacts/Variables.sol\":192:210  bool public myBool */\n    tag_6:\n      tag_24\n      tag_25\n      jump\t// in\n    tag_24:\n      mload(0x40)\n      tag_26\n      swap2\n      swap1\n      tag_27\n      jump\t// in\n    tag_26:\n      mload(0x40)\n      dup1\n      swap2\n      sub\n      swap1\n      return\n        /* \"contracts/basics/artifacts/Variables.sol\":366:422  function decrementInt() public{\r... */\n    tag_7:\n      tag_28\n      tag_29\n      jump\t// in\n    tag_28:\n      stop\n        /* \"contracts/basics/artifacts/Variables.sol\":116:186  function setMyInt(uint _myInt) public{\r... */\n    tag_8:\n      tag_30\n      0x04\n      dup1\n      calldatasize\n      sub\n      dup2\n      add\n      swap1\n      tag_31\n      swap2\n      swap1\n      tag_32\n      jump\t// in\n    tag_31:\n      tag_33\n      jump\t// in\n    tag_30:\n      stop\n        /* \"contracts/basics/artifacts/Variables.sol\":463:552  function setMyAddress(address _myAddress) public{\r... */\n    tag_9:\n      tag_34\n      0x04\n      dup1\n      calldatasize\n      sub\n      dup2\n      add\n      swap1\n      tag_35\n      swap2\n      swap1\n      tag_36\n      jump\t// in\n    tag_35:\n      tag_37\n      jump\t// in\n    tag_34:\n      stop\n        /* \"contracts/basics/artifacts/Variables.sol\":219:294  function setMyBool(bool _myBool) public {\r... */\n    tag_10:\n      tag_38\n      0x04\n      dup1\n      calldatasize\n      sub\n      dup2\n      add\n      swap1\n      tag_39\n      swap2\n      swap1\n      tag_40\n      jump\t// in\n    tag_39:\n      tag_41\n      jump\t// in\n    tag_38:\n      stop\n        /* \"contracts/basics/artifacts/Variables.sol\":302:358  function incrementInt() public{\r... */\n    tag_11:\n      tag_42\n      tag_43\n      jump\t// in\n    tag_42:\n      stop\n        /* \"contracts/basics/artifacts/Variables.sol\":560:626  function getBalanceOfAddress() public view returns(uint){\r... */\n    tag_14:\n        /* \"contracts/basics/artifacts/Variables.sol\":611:615  uint */\n      0x00\n        /* \"contracts/basics/artifacts/Variables.sol\":560:626  function getBalanceOfAddress() public view returns(uint){\r... */\n      swap1\n      jump\t// out\n        /* \"contracts/basics/artifacts/Variables.sol\":430:454  address public myAddress */\n    tag_18:\n      0x01\n      dup1\n      sload\n      swap1\n      0x0100\n      exp\n      swap1\n      div\n      0xffffffffffffffffffffffffffffffffffffffff\n      and\n      dup2\n      jump\t// out\n        /* \"contracts/basics/artifacts/Variables.sol\":83:103  uint256 public myInt */\n    tag_22:\n      sload(0x00)\n      dup2\n      jump\t// out\n        /* \"contracts/basics/artifacts/Variables.sol\":192:210  bool public myBool */\n    tag_25:\n      0x01\n      0x00\n      swap1\n      sload\n      swap1\n      0x0100\n      exp\n      swap1\n      div\n      0xff\n      and\n      dup2\n      jump\t// out\n        /* \"contracts/basics/artifacts/Variables.sol\":366:422  function decrementInt() public{\r... */\n    tag_29:\n        /* \"contracts/basics/artifacts/Variables.sol\":407:412  myInt */\n      0x00\n      dup1\n        /* \"contracts/basics/artifacts/Variables.sol\":407:414  myInt-- */\n      dup2\n      sload\n      dup1\n      swap3\n      swap2\n      swap1\n      tag_46\n      swap1\n      tag_47\n      jump\t// in\n    tag_46:\n      swap2\n      swap1\n      pop\n      sstore\n      pop\n        /* \"contracts/basics/artifacts/Variables.sol\":366:422  function decrementInt() public{\r... */\n      jump\t// out\n        /* \"contracts/basics/artifacts/Variables.sol\":116:186  function setMyInt(uint _myInt) public{\r... */\n    tag_33:\n        /* \"contracts/basics/artifacts/Variables.sol\":172:178  _myInt */\n      dup1\n        /* \"contracts/basics/artifacts/Variables.sol\":164:169  myInt */\n      0x00\n        /* \"contracts/basics/artifacts/Variables.sol\":164:178  myInt = _myInt */\n      dup2\n      swap1\n      sstore\n      pop\n        /* \"contracts/basics/artifacts/Variables.sol\":116:186  function setMyInt(uint _myInt) public{\r... */\n      pop\n      jump\t// out\n        /* \"contracts/basics/artifacts/Variables.sol\":463:552  function setMyAddress(address _myAddress) public{\r... */\n    tag_37:\n        /* \"contracts/basics/artifacts/Variables.sol\":534:544  _myAddress */\n      dup1\n        /* \"contracts/basics/artifacts/Variables.sol\":522:531  myAddress */\n      0x01\n      dup1\n        /* \"contracts/basics/artifacts/Variables.sol\":522:544  myAddress = _myAddress */\n      0x0100\n      exp\n      dup2\n      sload\n      dup2\n      0xffffffffffffffffffffffffffffffffffffffff\n      mul\n      not\n      and\n      swap1\n      dup4\n      0xffffffffffffffffffffffffffffffffffffffff\n      and\n      mul\n      or\n      swap1\n      sstore\n      pop\n        /* \"contracts/basics/artifacts/Variables.sol\":463:552  function setMyAddress(address _myAddress) public{\r... */\n      pop\n      jump\t// out\n        /* \"contracts/basics/artifacts/Variables.sol\":219:294  function setMyBool(bool _myBool) public {\r... */\n    tag_41:\n        /* \"contracts/basics/artifacts/Variables.sol\":279:286  _myBool */\n      dup1\n        /* \"contracts/basics/artifacts/Variables.sol\":270:276  myBool */\n      0x01\n      0x00\n        /* \"contracts/basics/artifacts/Variables.sol\":270:286  myBool = _myBool */\n      0x0100\n      exp\n      dup2\n      sload\n      dup2\n      0xff\n      mul\n      not\n      and\n      swap1\n      dup4\n      iszero\n      iszero\n      mul\n      or\n      swap1\n      sstore\n      pop\n        /* \"contracts/basics/artifacts/Variables.sol\":219:294  function setMyBool(bool _myBool) public {\r... */\n      pop\n      jump\t// out\n        /* \"contracts/basics/artifacts/Variables.sol\":302:358  function incrementInt() public{\r... */\n    tag_43:\n        /* \"contracts/basics/artifacts/Variables.sol\":343:348  myInt */\n      0x00\n      dup1\n        /* \"contracts/basics/artifacts/Variables.sol\":343:350  myInt++ */\n      dup2\n      sload\n      dup1\n      swap3\n      swap2\n      swap1\n      tag_52\n      swap1\n      tag_53\n      jump\t// in\n    tag_52:\n      swap2\n      swap1\n      pop\n      sstore\n      pop\n        /* \"contracts/basics/artifacts/Variables.sol\":302:358  function incrementInt() public{\r... */\n      jump\t// out\n        /* \"#utility.yul\":7:146   */\n    tag_55:\n        /* \"#utility.yul\":53:58   */\n      0x00\n        /* \"#utility.yul\":91:97   */\n      dup2\n        /* \"#utility.yul\":78:98   */\n      calldataload\n        /* \"#utility.yul\":69:98   */\n      swap1\n      pop\n        /* \"#utility.yul\":107:140   */\n      tag_57\n        /* \"#utility.yul\":134:139   */\n      dup2\n        /* \"#utility.yul\":107:140   */\n      tag_58\n      jump\t// in\n    tag_57:\n        /* \"#utility.yul\":7:146   */\n      swap3\n      swap2\n      pop\n      pop\n      jump\t// out\n        /* \"#utility.yul\":152:285   */\n    tag_59:\n        /* \"#utility.yul\":195:200   */\n      0x00\n        /* \"#utility.yul\":233:239   */\n      dup2\n        /* \"#utility.yul\":220:240   */\n      calldataload\n        /* \"#utility.yul\":211:240   */\n      swap1\n      pop\n        /* \"#utility.yul\":249:279   */\n      tag_61\n        /* \"#utility.yul\":273:278   */\n      dup2\n        /* \"#utility.yul\":249:279   */\n      tag_62\n      jump\t// in\n    tag_61:\n        /* \"#utility.yul\":152:285   */\n      swap3\n      swap2\n      pop\n      pop\n      jump\t// out\n        /* \"#utility.yul\":291:430   */\n    tag_63:\n        /* \"#utility.yul\":337:342   */\n      0x00\n        /* \"#utility.yul\":375:381   */\n      dup2\n        /* \"#utility.yul\":362:382   */\n      calldataload\n        /* \"#utility.yul\":353:382   */\n      swap1\n      pop\n        /* \"#utility.yul\":391:424   */\n      tag_65\n        /* \"#utility.yul\":418:423   */\n      dup2\n        /* \"#utility.yul\":391:424   */\n      tag_66\n      jump\t// in\n    tag_65:\n        /* \"#utility.yul\":291:430   */\n      swap3\n      swap2\n      pop\n      pop\n      jump\t// out\n        /* \"#utility.yul\":436:765   */\n    tag_36:\n        /* \"#utility.yul\":495:501   */\n      0x00\n        /* \"#utility.yul\":544:546   */\n      0x20\n        /* \"#utility.yul\":532:541   */\n      dup3\n        /* \"#utility.yul\":523:530   */\n      dup5\n        /* \"#utility.yul\":519:542   */\n      sub\n        /* \"#utility.yul\":515:547   */\n      slt\n        /* \"#utility.yul\":512:631   */\n      iszero\n      tag_68\n      jumpi\n        /* \"#utility.yul\":550:629   */\n      tag_69\n      tag_70\n      jump\t// in\n    tag_69:\n        /* \"#utility.yul\":512:631   */\n    tag_68:\n        /* \"#utility.yul\":670:671   */\n      0x00\n        /* \"#utility.yul\":695:748   */\n      tag_71\n        /* \"#utility.yul\":740:747   */\n      dup5\n        /* \"#utility.yul\":731:737   */\n      dup3\n        /* \"#utility.yul\":720:729   */\n      dup6\n        /* \"#utility.yul\":716:738   */\n      add\n        /* \"#utility.yul\":695:748   */\n      tag_55\n      jump\t// in\n    tag_71:\n        /* \"#utility.yul\":685:748   */\n      swap2\n      pop\n        /* \"#utility.yul\":641:758   */\n      pop\n        /* \"#utility.yul\":436:765   */\n      swap3\n      swap2\n      pop\n      pop\n      jump\t// out\n        /* \"#utility.yul\":771:1094   */\n    tag_40:\n        /* \"#utility.yul\":827:833   */\n      0x00\n        /* \"#utility.yul\":876:878   */\n      0x20\n        /* \"#utility.yul\":864:873   */\n      dup3\n        /* \"#utility.yul\":855:862   */\n      dup5\n        /* \"#utility.yul\":851:874   */\n      sub\n        /* \"#utility.yul\":847:879   */\n      slt\n        /* \"#utility.yul\":844:963   */\n      iszero\n      tag_73\n      jumpi\n        /* \"#utility.yul\":882:961   */\n      tag_74\n      tag_70\n      jump\t// in\n    tag_74:\n        /* \"#utility.yul\":844:963   */\n    tag_73:\n        /* \"#utility.yul\":1002:1003   */\n      0x00\n        /* \"#utility.yul\":1027:1077   */\n      tag_75\n        /* \"#utility.yul\":1069:1076   */\n      dup5\n        /* \"#utility.yul\":1060:1066   */\n      dup3\n        /* \"#utility.yul\":1049:1058   */\n      dup6\n        /* \"#utility.yul\":1045:1067   */\n      add\n        /* \"#utility.yul\":1027:1077   */\n      tag_59\n      jump\t// in\n    tag_75:\n        /* \"#utility.yul\":1017:1077   */\n      swap2\n      pop\n        /* \"#utility.yul\":973:1087   */\n      pop\n        /* \"#utility.yul\":771:1094   */\n      swap3\n      swap2\n      pop\n      pop\n      jump\t// out\n        /* \"#utility.yul\":1100:1429   */\n    tag_32:\n        /* \"#utility.yul\":1159:1165   */\n      0x00\n        /* \"#utility.yul\":1208:1210   */\n      0x20\n        /* \"#utility.yul\":1196:1205   */\n      dup3\n        /* \"#utility.yul\":1187:1194   */\n      dup5\n        /* \"#utility.yul\":1183:1206   */\n      sub\n        /* \"#utility.yul\":1179:1211   */\n      slt\n        /* \"#utility.yul\":1176:1295   */\n      iszero\n      tag_77\n      jumpi\n        /* \"#utility.yul\":1214:1293   */\n      tag_78\n      tag_70\n      jump\t// in\n    tag_78:\n        /* \"#utility.yul\":1176:1295   */\n    tag_77:\n        /* \"#utility.yul\":1334:1335   */\n      0x00\n        /* \"#utility.yul\":1359:1412   */\n      tag_79\n        /* \"#utility.yul\":1404:1411   */\n      dup5\n        /* \"#utility.yul\":1395:1401   */\n      dup3\n        /* \"#utility.yul\":1384:1393   */\n      dup6\n        /* \"#utility.yul\":1380:1402   */\n      add\n        /* \"#utility.yul\":1359:1412   */\n      tag_63\n      jump\t// in\n    tag_79:\n        /* \"#utility.yul\":1349:1412   */\n      swap2\n      pop\n        /* \"#utility.yul\":1305:1422   */\n      pop\n        /* \"#utility.yul\":1100:1429   */\n      swap3\n      swap2\n      pop\n      pop\n      jump\t// out\n        /* \"#utility.yul\":1435:1553   */\n    tag_80:\n        /* \"#utility.yul\":1522:1546   */\n      tag_82\n        /* \"#utility.yul\":1540:1545   */\n      dup2\n        /* \"#utility.yul\":1522:1546   */\n      tag_83\n      jump\t// in\n    tag_82:\n        /* \"#utility.yul\":1517:1520   */\n      dup3\n        /* \"#utility.yul\":1510:1547   */\n      mstore\n        /* \"#utility.yul\":1435:1553   */\n      pop\n      pop\n      jump\t// out\n        /* \"#utility.yul\":1559:1668   */\n    tag_84:\n        /* \"#utility.yul\":1640:1661   */\n      tag_86\n        /* \"#utility.yul\":1655:1660   */\n      dup2\n        /* \"#utility.yul\":1640:1661   */\n      tag_87\n      jump\t// in\n    tag_86:\n        /* \"#utility.yul\":1635:1638   */\n      dup3\n        /* \"#utility.yul\":1628:1662   */\n      mstore\n        /* \"#utility.yul\":1559:1668   */\n      pop\n      pop\n      jump\t// out\n        /* \"#utility.yul\":1674:1792   */\n    tag_88:\n        /* \"#utility.yul\":1761:1785   */\n      tag_90\n        /* \"#utility.yul\":1779:1784   */\n      dup2\n        /* \"#utility.yul\":1761:1785   */\n      tag_91\n      jump\t// in\n    tag_90:\n        /* \"#utility.yul\":1756:1759   */\n      dup3\n        /* \"#utility.yul\":1749:1786   */\n      mstore\n        /* \"#utility.yul\":1674:1792   */\n      pop\n      pop\n      jump\t// out\n        /* \"#utility.yul\":1798:2020   */\n    tag_20:\n        /* \"#utility.yul\":1891:1895   */\n      0x00\n        /* \"#utility.yul\":1929:1931   */\n      0x20\n        /* \"#utility.yul\":1918:1927   */\n      dup3\n        /* \"#utility.yul\":1914:1932   */\n      add\n        /* \"#utility.yul\":1906:1932   */\n      swap1\n      pop\n        /* \"#utility.yul\":1942:2013   */\n      tag_93\n        /* \"#utility.yul\":2010:2011   */\n      0x00\n        /* \"#utility.yul\":1999:2008   */\n      dup4\n        /* \"#utility.yul\":1995:2012   */\n      add\n        /* \"#utility.yul\":1986:1992   */\n      dup5\n        /* \"#utility.yul\":1942:2013   */\n      tag_80\n      jump\t// in\n    tag_93:\n        /* \"#utility.yul\":1798:2020   */\n      swap3\n      swap2\n      pop\n      pop\n      jump\t// out\n        /* \"#utility.yul\":2026:2236   */\n    tag_27:\n        /* \"#utility.yul\":2113:2117   */\n      0x00\n        /* \"#utility.yul\":2151:2153   */\n      0x20\n        /* \"#utility.yul\":2140:2149   */\n      dup3\n        /* \"#utility.yul\":2136:2154   */\n      add\n        /* \"#utility.yul\":2128:2154   */\n      swap1\n      pop\n        /* \"#utility.yul\":2164:2229   */\n      tag_95\n        /* \"#utility.yul\":2226:2227   */\n      0x00\n        /* \"#utility.yul\":2215:2224   */\n      dup4\n        /* \"#utility.yul\":2211:2228   */\n      add\n        /* \"#utility.yul\":2202:2208   */\n      dup5\n        /* \"#utility.yul\":2164:2229   */\n      tag_84\n      jump\t// in\n    tag_95:\n        /* \"#utility.yul\":2026:2236   */\n      swap3\n      swap2\n      pop\n      pop\n      jump\t// out\n        /* \"#utility.yul\":2242:2464   */\n    tag_16:\n        /* \"#utility.yul\":2335:2339   */\n      0x00\n        /* \"#utility.yul\":2373:2375   */\n      0x20\n        /* \"#utility.yul\":2362:2371   */\n      dup3\n        /* \"#utility.yul\":2358:2376   */\n      add\n        /* \"#utility.yul\":2350:2376   */\n      swap1\n      pop\n        /* \"#utility.yul\":2386:2457   */\n      tag_97\n        /* \"#utility.yul\":2454:2455   */\n      0x00\n        /* \"#utility.yul\":2443:2452   */\n      dup4\n        /* \"#utility.yul\":2439:2456   */\n      add\n        /* \"#utility.yul\":2430:2436   */\n      dup5\n        /* \"#utility.yul\":2386:2457   */\n      tag_88\n      jump\t// in\n    tag_97:\n        /* \"#utility.yul\":2242:2464   */\n      swap3\n      swap2\n      pop\n      pop\n      jump\t// out\n        /* \"#utility.yul\":2551:2647   */\n    tag_83:\n        /* \"#utility.yul\":2588:2595   */\n      0x00\n        /* \"#utility.yul\":2617:2641   */\n      tag_101\n        /* \"#utility.yul\":2635:2640   */\n      dup3\n        /* \"#utility.yul\":2617:2641   */\n      tag_102\n      jump\t// in\n    tag_101:\n        /* \"#utility.yul\":2606:2641   */\n      swap1\n      pop\n        /* \"#utility.yul\":2551:2647   */\n      swap2\n      swap1\n      pop\n      jump\t// out\n        /* \"#utility.yul\":2653:2743   */\n    tag_87:\n        /* \"#utility.yul\":2687:2694   */\n      0x00\n        /* \"#utility.yul\":2730:2735   */\n      dup2\n        /* \"#utility.yul\":2723:2736   */\n      iszero\n        /* \"#utility.yul\":2716:2737   */\n      iszero\n        /* \"#utility.yul\":2705:2737   */\n      swap1\n      pop\n        /* \"#utility.yul\":2653:2743   */\n      swap2\n      swap1\n      pop\n      jump\t// out\n        /* \"#utility.yul\":2749:2875   */\n    tag_102:\n        /* \"#utility.yul\":2786:2793   */\n      0x00\n        /* \"#utility.yul\":2826:2868   */\n      0xffffffffffffffffffffffffffffffffffffffff\n        /* \"#utility.yul\":2819:2824   */\n      dup3\n        /* \"#utility.yul\":2815:2869   */\n      and\n        /* \"#utility.yul\":2804:2869   */\n      swap1\n      pop\n        /* \"#utility.yul\":2749:2875   */\n      swap2\n      swap1\n      pop\n      jump\t// out\n        /* \"#utility.yul\":2881:2958   */\n    tag_91:\n        /* \"#utility.yul\":2918:2925   */\n      0x00\n        /* \"#utility.yul\":2947:2952   */\n      dup2\n        /* \"#utility.yul\":2936:2952   */\n      swap1\n      pop\n        /* \"#utility.yul\":2881:2958   */\n      swap2\n      swap1\n      pop\n      jump\t// out\n        /* \"#utility.yul\":2964:3135   */\n    tag_47:\n        /* \"#utility.yul\":3003:3006   */\n      0x00\n        /* \"#utility.yul\":3026:3050   */\n      tag_107\n        /* \"#utility.yul\":3044:3049   */\n      dup3\n        /* \"#utility.yul\":3026:3050   */\n      tag_91\n      jump\t// in\n    tag_107:\n        /* \"#utility.yul\":3017:3050   */\n      swap2\n      pop\n        /* \"#utility.yul\":3072:3076   */\n      0x00\n        /* \"#utility.yul\":3065:3070   */\n      dup3\n        /* \"#utility.yul\":3062:3077   */\n      eq\n        /* \"#utility.yul\":3059:3100   */\n      iszero\n      tag_108\n      jumpi\n        /* \"#utility.yul\":3080:3098   */\n      tag_109\n      tag_110\n      jump\t// in\n    tag_109:\n        /* \"#utility.yul\":3059:3100   */\n    tag_108:\n        /* \"#utility.yul\":3127:3128   */\n      0x01\n        /* \"#utility.yul\":3120:3125   */\n      dup3\n        /* \"#utility.yul\":3116:3129   */\n      sub\n        /* \"#utility.yul\":3109:3129   */\n      swap1\n      pop\n        /* \"#utility.yul\":2964:3135   */\n      swap2\n      swap1\n      pop\n      jump\t// out\n        /* \"#utility.yul\":3141:3374   */\n    tag_53:\n        /* \"#utility.yul\":3180:3183   */\n      0x00\n        /* \"#utility.yul\":3203:3227   */\n      tag_112\n        /* \"#utility.yul\":3221:3226   */\n      dup3\n        /* \"#utility.yul\":3203:3227   */\n      tag_91\n      jump\t// in\n    tag_112:\n        /* \"#utility.yul\":3194:3227   */\n      swap2\n      pop\n        /* \"#utility.yul\":3249:3315   */\n      0xffffffffffffffffffffffffffffffffffffffffffffffffffffffffffffffff\n        /* \"#utility.yul\":3242:3247   */\n      dup3\n        /* \"#utility.yul\":3239:3316   */\n      eq\n        /* \"#utility.yul\":3236:3339   */\n      iszero\n      tag_113\n      jumpi\n        /* \"#utility.yul\":3319:3337   */\n      tag_114\n      tag_110\n      jump\t// in\n    tag_114:\n        /* \"#utility.yul\":3236:3339   */\n    tag_113:\n        /* \"#utility.yul\":3366:3367   */\n      0x01\n        /* \"#utility.yul\":3359:3364   */\n      dup3\n        /* \"#utility.yul\":3355:3368   */\n      add\n        /* \"#utility.yul\":3348:3368   */\n      swap1\n      pop\n        /* \"#utility.yul\":3141:3374   */\n      swap2\n      swap1\n      pop\n      jump\t// out\n        /* \"#utility.yul\":3380:3560   */\n    tag_110:\n        /* \"#utility.yul\":3428:3505   */\n      0x4e487b7100000000000000000000000000000000000000000000000000000000\n        /* \"#utility.yul\":3425:3426   */\n      0x00\n        /* \"#utility.yul\":3418:3506   */\n      mstore\n        /* \"#utility.yul\":3525:3529   */\n      0x11\n        /* \"#utility.yul\":3522:3523   */\n      0x04\n        /* \"#utility.yul\":3515:3530   */\n      mstore\n        /* \"#utility.yul\":3549:3553   */\n      0x24\n        /* \"#utility.yul\":3546:3547   */\n      0x00\n        /* \"#utility.yul\":3539:3554   */\n      revert\n        /* \"#utility.yul\":3689:3806   */\n    tag_70:\n        /* \"#utility.yul\":3798:3799   */\n      0x00\n        /* \"#utility.yul\":3795:3796   */\n      dup1\n        /* \"#utility.yul\":3788:3800   */\n      revert\n        /* \"#utility.yul\":3812:3934   */\n    tag_58:\n        /* \"#utility.yul\":3885:3909   */\n      tag_120\n        /* \"#utility.yul\":3903:3908   */\n      dup2\n        /* \"#utility.yul\":3885:3909   */\n      tag_83\n      jump\t// in\n    tag_120:\n        /* \"#utility.yul\":3878:3883   */\n      dup2\n        /* \"#utility.yul\":3875:3910   */\n      eq\n        /* \"#utility.yul\":3865:3928   */\n      tag_121\n      jumpi\n        /* \"#utility.yul\":3924:3925   */\n      0x00\n        /* \"#utility.yul\":3921:3922   */\n      dup1\n        /* \"#utility.yul\":3914:3926   */\n      revert\n        /* \"#utility.yul\":3865:3928   */\n    tag_121:\n        /* \"#utility.yul\":3812:3934   */\n      pop\n      jump\t// out\n        /* \"#utility.yul\":3940:4056   */\n    tag_62:\n        /* \"#utility.yul\":4010:4031   */\n      tag_123\n        /* \"#utility.yul\":4025:4030   */\n      dup2\n        /* \"#utility.yul\":4010:4031   */\n      tag_87\n      jump\t// in\n    tag_123:\n        /* \"#utility.yul\":4003:4008   */\n      dup2\n        /* \"#utility.yul\":4000:4032   */\n      eq\n        /* \"#utility.yul\":3990:4050   */\n      tag_124\n      jumpi\n        /* \"#utility.yul\":4046:4047   */\n      0x00\n        /* \"#utility.yul\":4043:4044   */\n      dup1\n        /* \"#utility.yul\":4036:4048   */\n      revert\n        /* \"#utility.yul\":3990:4050   */\n    tag_124:\n        /* \"#utility.yul\":3940:4056   */\n      pop\n      jump\t// out\n        /* \"#utility.yul\":4062:4184   */\n    tag_66:\n        /* \"#utility.yul\":4135:4159   */\n      tag_126\n        /* \"#utility.yul\":4153:4158   */\n      dup2\n        /* \"#utility.yul\":4135:4159   */\n      tag_91\n      jump\t// in\n    tag_126:\n        /* \"#utility.yul\":4128:4133   */\n      dup2\n        /* \"#utility.yul\":4125:4160   */\n      eq\n        /* \"#utility.yul\":4115:4178   */\n      tag_127\n      jumpi\n        /* \"#utility.yul\":4174:4175   */\n      0x00\n        /* \"#utility.yul\":4171:4172   */\n      dup1\n        /* \"#utility.yul\":4164:4176   */\n      revert\n        /* \"#utility.yul\":4115:4178   */\n    tag_127:\n        /* \"#utility.yul\":4062:4184   */\n      pop\n      jump\t// out\n\n    auxdata: 0xa2646970667358221220eed00a097b1011c7e68ff21b257e6048f67e1d0ac34bc2a87a2aaf8e3d91237764736f6c63430008070033\n}\n",
				"bytecode": {
					"linkReferences": {},
					"object": "608060405234801561001057600080fd5b50610504806100206000396000f3fe608060405234801561001057600080fd5b50600436106100935760003560e01c80638d5833cb116100665780638d5833cb14610110578063a65046571461011a578063a8a7b89514610136578063eb1b30d914610152578063f102a71d1461016e57610093565b8063155026121461009857806326b85ee1146100b65780632cb777a6146100d45780636deecdbe146100f2575b600080fd5b6100a0610178565b6040516100ad919061037f565b60405180910390f35b6100be61017d565b6040516100cb9190610349565b60405180910390f35b6100dc6101a1565b6040516100e9919061037f565b60405180910390f35b6100fa6101a7565b6040516101079190610364565b60405180910390f35b6101186101ba565b005b610134600480360381019061012f91906102ef565b6101d3565b005b610150600480360381019061014b9190610295565b6101dd565b005b61016c600480360381019061016791906102c2565b610220565b005b61017661023d565b005b600090565b60018054906101000a900473ffffffffffffffffffffffffffffffffffffffff1681565b60005481565b600160009054906101000a900460ff1681565b6000808154809291906101cc906103e2565b9190505550565b8060008190555050565b806001806101000a81548173ffffffffffffffffffffffffffffffffffffffff021916908373ffffffffffffffffffffffffffffffffffffffff16021790555050565b80600160006101000a81548160ff02191690831515021790555050565b60008081548092919061024f9061040c565b9190505550565b60008135905061026581610489565b92915050565b60008135905061027a816104a0565b92915050565b60008135905061028f816104b7565b92915050565b6000602082840312156102ab576102aa610484565b5b60006102b984828501610256565b91505092915050565b6000602082840312156102d8576102d7610484565b5b60006102e68482850161026b565b91505092915050565b60006020828403121561030557610304610484565b5b600061031384828501610280565b91505092915050565b6103258161039a565b82525050565b610334816103ac565b82525050565b610343816103d8565b82525050565b600060208201905061035e600083018461031c565b92915050565b6000602082019050610379600083018461032b565b92915050565b6000602082019050610394600083018461033a565b92915050565b60006103a5826103b8565b9050919050565b60008115159050919050565b600073ffffffffffffffffffffffffffffffffffffffff82169050919050565b6000819050919050565b60006103ed826103d8565b9150600082141561040157610400610455565b5b600182039050919050565b6000610417826103d8565b91507fffffffffffffffffffffffffffffffffffffffffffffffffffffffffffffffff82141561044a57610449610455565b5b600182019050919050565b7f4e487b7100000000000000000000000000000000000000000000000000000000600052601160045260246000fd5b600080fd5b6104928161039a565b811461049d57600080fd5b50565b6104a9816103ac565b81146104b457600080fd5b50565b6104c0816103d8565b81146104cb57600080fd5b5056fea2646970667358221220eed00a097b1011c7e68ff21b257e6048f67e1d0ac34bc2a87a2aaf8e3d91237764736f6c63430008070033",
					"opcodes": "PUSH1 0x80 PUSH1 0x40 MSTORE CALLVALUE DUP1 ISZERO PUSH2 0x10 JUMPI PUSH1 0x0 DUP1 REVERT JUMPDEST POP PUSH2 0x504 DUP1 PUSH2 0x20 PUSH1 0x0 CODECOPY PUSH1 0x0 RETURN INVALID PUSH1 0x80 PUSH1 0x40 MSTORE CALLVALUE DUP1 ISZERO PUSH2 0x10 JUMPI PUSH1 0x0 DUP1 REVERT JUMPDEST POP PUSH1 0x4 CALLDATASIZE LT PUSH2 0x93 JUMPI PUSH1 0x0 CALLDATALOAD PUSH1 0xE0 SHR DUP1 PUSH4 0x8D5833CB GT PUSH2 0x66 JUMPI DUP1 PUSH4 0x8D5833CB EQ PUSH2 0x110 JUMPI DUP1 PUSH4 0xA6504657 EQ PUSH2 0x11A JUMPI DUP1 PUSH4 0xA8A7B895 EQ PUSH2 0x136 JUMPI DUP1 PUSH4 0xEB1B30D9 EQ PUSH2 0x152 JUMPI DUP1 PUSH4 0xF102A71D EQ PUSH2 0x16E JUMPI PUSH2 0x93 JUMP JUMPDEST DUP1 PUSH4 0x15502612 EQ PUSH2 0x98 JUMPI DUP1 PUSH4 0x26B85EE1 EQ PUSH2 0xB6 JUMPI DUP1 PUSH4 0x2CB777A6 EQ PUSH2 0xD4 JUMPI DUP1 PUSH4 0x6DEECDBE EQ PUSH2 0xF2 JUMPI JUMPDEST PUSH1 0x0 DUP1 REVERT JUMPDEST PUSH2 0xA0 PUSH2 0x178 JUMP JUMPDEST PUSH1 0x40 MLOAD PUSH2 0xAD SWAP2 SWAP1 PUSH2 0x37F JUMP JUMPDEST PUSH1 0x40 MLOAD DUP1 SWAP2 SUB SWAP1 RETURN JUMPDEST PUSH2 0xBE PUSH2 0x17D JUMP JUMPDEST PUSH1 0x40 MLOAD PUSH2 0xCB SWAP2 SWAP1 PUSH2 0x349 JUMP JUMPDEST PUSH1 0x40 MLOAD DUP1 SWAP2 SUB SWAP1 RETURN JUMPDEST PUSH2 0xDC PUSH2 0x1A1 JUMP JUMPDEST PUSH1 0x40 MLOAD PUSH2 0xE9 SWAP2 SWAP1 PUSH2 0x37F JUMP JUMPDEST PUSH1 0x40 MLOAD DUP1 SWAP2 SUB SWAP1 RETURN JUMPDEST PUSH2 0xFA PUSH2 0x1A7 JUMP JUMPDEST PUSH1 0x40 MLOAD PUSH2 0x107 SWAP2 SWAP1 PUSH2 0x364 JUMP JUMPDEST PUSH1 0x40 MLOAD DUP1 SWAP2 SUB SWAP1 RETURN JUMPDEST PUSH2 0x118 PUSH2 0x1BA JUMP JUMPDEST STOP JUMPDEST PUSH2 0x134 PUSH1 0x4 DUP1 CALLDATASIZE SUB DUP2 ADD SWAP1 PUSH2 0x12F SWAP2 SWAP1 PUSH2 0x2EF JUMP JUMPDEST PUSH2 0x1D3 JUMP JUMPDEST STOP JUMPDEST PUSH2 0x150 PUSH1 0x4 DUP1 CALLDATASIZE SUB DUP2 ADD SWAP1 PUSH2 0x14B SWAP2 SWAP1 PUSH2 0x295 JUMP JUMPDEST PUSH2 0x1DD JUMP JUMPDEST STOP JUMPDEST PUSH2 0x16C PUSH1 0x4 DUP1 CALLDATASIZE SUB DUP2 ADD SWAP1 PUSH2 0x167 SWAP2 SWAP1 PUSH2 0x2C2 JUMP JUMPDEST PUSH2 0x220 JUMP JUMPDEST STOP JUMPDEST PUSH2 0x176 PUSH2 0x23D JUMP JUMPDEST STOP JUMPDEST PUSH1 0x0 SWAP1 JUMP JUMPDEST PUSH1 0x1 DUP1 SLOAD SWAP1 PUSH2 0x100 EXP SWAP1 DIV PUSH20 0xFFFFFFFFFFFFFFFFFFFFFFFFFFFFFFFFFFFFFFFF AND DUP2 JUMP JUMPDEST PUSH1 0x0 SLOAD DUP2 JUMP JUMPDEST PUSH1 0x1 PUSH1 0x0 SWAP1 SLOAD SWAP1 PUSH2 0x100 EXP SWAP1 DIV PUSH1 0xFF AND DUP2 JUMP JUMPDEST PUSH1 0x0 DUP1 DUP2 SLOAD DUP1 SWAP3 SWAP2 SWAP1 PUSH2 0x1CC SWAP1 PUSH2 0x3E2 JUMP JUMPDEST SWAP2 SWAP1 POP SSTORE POP JUMP JUMPDEST DUP1 PUSH1 0x0 DUP2 SWAP1 SSTORE POP POP JUMP JUMPDEST DUP1 PUSH1 0x1 DUP1 PUSH2 0x100 EXP DUP2 SLOAD DUP2 PUSH20 0xFFFFFFFFFFFFFFFFFFFFFFFFFFFFFFFFFFFFFFFF MUL NOT AND SWAP1 DUP4 PUSH20 0xFFFFFFFFFFFFFFFFFFFFFFFFFFFFFFFFFFFFFFFF AND MUL OR SWAP1 SSTORE POP POP JUMP JUMPDEST DUP1 PUSH1 0x1 PUSH1 0x0 PUSH2 0x100 EXP DUP2 SLOAD DUP2 PUSH1 0xFF MUL NOT AND SWAP1 DUP4 ISZERO ISZERO MUL OR SWAP1 SSTORE POP POP JUMP JUMPDEST PUSH1 0x0 DUP1 DUP2 SLOAD DUP1 SWAP3 SWAP2 SWAP1 PUSH2 0x24F SWAP1 PUSH2 0x40C JUMP JUMPDEST SWAP2 SWAP1 POP SSTORE POP JUMP JUMPDEST PUSH1 0x0 DUP2 CALLDATALOAD SWAP1 POP PUSH2 0x265 DUP2 PUSH2 0x489 JUMP JUMPDEST SWAP3 SWAP2 POP POP JUMP JUMPDEST PUSH1 0x0 DUP2 CALLDATALOAD SWAP1 POP PUSH2 0x27A DUP2 PUSH2 0x4A0 JUMP JUMPDEST SWAP3 SWAP2 POP POP JUMP JUMPDEST PUSH1 0x0 DUP2 CALLDATALOAD SWAP1 POP PUSH2 0x28F DUP2 PUSH2 0x4B7 JUMP JUMPDEST SWAP3 SWAP2 POP POP JUMP JUMPDEST PUSH1 0x0 PUSH1 0x20 DUP3 DUP5 SUB SLT ISZERO PUSH2 0x2AB JUMPI PUSH2 0x2AA PUSH2 0x484 JUMP JUMPDEST JUMPDEST PUSH1 0x0 PUSH2 0x2B9 DUP5 DUP3 DUP6 ADD PUSH2 0x256 JUMP JUMPDEST SWAP2 POP POP SWAP3 SWAP2 POP POP JUMP JUMPDEST PUSH1 0x0 PUSH1 0x20 DUP3 DUP5 SUB SLT ISZERO PUSH2 0x2D8 JUMPI PUSH2 0x2D7 PUSH2 0x484 JUMP JUMPDEST JUMPDEST PUSH1 0x0 PUSH2 0x2E6 DUP5 DUP3 DUP6 ADD PUSH2 0x26B JUMP JUMPDEST SWAP2 POP POP SWAP3 SWAP2 POP POP JUMP JUMPDEST PUSH1 0x0 PUSH1 0x20 DUP3 DUP5 SUB SLT ISZERO PUSH2 0x305 JUMPI PUSH2 0x304 PUSH2 0x484 JUMP JUMPDEST JUMPDEST PUSH1 0x0 PUSH2 0x313 DUP5 DUP3 DUP6 ADD PUSH2 0x280 JUMP JUMPDEST SWAP2 POP POP SWAP3 SWAP2 POP POP JUMP JUMPDEST PUSH2 0x325 DUP2 PUSH2 0x39A JUMP JUMPDEST DUP3 MSTORE POP POP JUMP JUMPDEST PUSH2 0x334 DUP2 PUSH2 0x3AC JUMP JUMPDEST DUP3 MSTORE POP POP JUMP JUMPDEST PUSH2 0x343 DUP2 PUSH2 0x3D8 JUMP JUMPDEST DUP3 MSTORE POP POP JUMP JUMPDEST PUSH1 0x0 PUSH1 0x20 DUP3 ADD SWAP1 POP PUSH2 0x35E PUSH1 0x0 DUP4 ADD DUP5 PUSH2 0x31C JUMP JUMPDEST SWAP3 SWAP2 POP POP JUMP JUMPDEST PUSH1 0x0 PUSH1 0x20 DUP3 ADD SWAP1 POP PUSH2 0x379 PUSH1 0x0 DUP4 ADD DUP5 PUSH2 0x32B JUMP JUMPDEST SWAP3 SWAP2 POP POP JUMP JUMPDEST PUSH1 0x0 PUSH1 0x20 DUP3 ADD SWAP1 POP PUSH2 0x394 PUSH1 0x0 DUP4 ADD DUP5 PUSH2 0x33A JUMP JUMPDEST SWAP3 SWAP2 POP POP JUMP JUMPDEST PUSH1 0x0 PUSH2 0x3A5 DUP3 PUSH2 0x3B8 JUMP JUMPDEST SWAP1 POP SWAP2 SWAP1 POP JUMP JUMPDEST PUSH1 0x0 DUP2 ISZERO ISZERO SWAP1 POP SWAP2 SWAP1 POP JUMP JUMPDEST PUSH1 0x0 PUSH20 0xFFFFFFFFFFFFFFFFFFFFFFFFFFFFFFFFFFFFFFFF DUP3 AND SWAP1 POP SWAP2 SWAP1 POP JUMP JUMPDEST PUSH1 0x0 DUP2 SWAP1 POP SWAP2 SWAP1 POP JUMP JUMPDEST PUSH1 0x0 PUSH2 0x3ED DUP3 PUSH2 0x3D8 JUMP JUMPDEST SWAP2 POP PUSH1 0x0 DUP3 EQ ISZERO PUSH2 0x401 JUMPI PUSH2 0x400 PUSH2 0x455 JUMP JUMPDEST JUMPDEST PUSH1 0x1 DUP3 SUB SWAP1 POP SWAP2 SWAP1 POP JUMP JUMPDEST PUSH1 0x0 PUSH2 0x417 DUP3 PUSH2 0x3D8 JUMP JUMPDEST SWAP2 POP PUSH32 0xFFFFFFFFFFFFFFFFFFFFFFFFFFFFFFFFFFFFFFFFFFFFFFFFFFFFFFFFFFFFFFFF DUP3 EQ ISZERO PUSH2 0x44A JUMPI PUSH2 0x449 PUSH2 0x455 JUMP JUMPDEST JUMPDEST PUSH1 0x1 DUP3 ADD SWAP1 POP SWAP2 SWAP1 POP JUMP JUMPDEST PUSH32 0x4E487B7100000000000000000000000000000000000000000000000000000000 PUSH1 0x0 MSTORE PUSH1 0x11 PUSH1 0x4 MSTORE PUSH1 0x24 PUSH1 0x0 REVERT JUMPDEST PUSH1 0x0 DUP1 REVERT JUMPDEST PUSH2 0x492 DUP2 PUSH2 0x39A JUMP JUMPDEST DUP2 EQ PUSH2 0x49D JUMPI PUSH1 0x0 DUP1 REVERT JUMPDEST POP JUMP JUMPDEST PUSH2 0x4A9 DUP2 PUSH2 0x3AC JUMP JUMPDEST DUP2 EQ PUSH2 0x4B4 JUMPI PUSH1 0x0 DUP1 REVERT JUMPDEST POP JUMP JUMPDEST PUSH2 0x4C0 DUP2 PUSH2 0x3D8 JUMP JUMPDEST DUP2 EQ PUSH2 0x4CB JUMPI PUSH1 0x0 DUP1 REVERT JUMPDEST POP JUMP INVALID LOG2 PUSH5 0x6970667358 0x22 SLT KECCAK256 0xEE 0xD0 EXP MULMOD PUSH28 0x1011C7E68FF21B257E6048F67E1D0AC34BC2A87A2AAF8E3D91237764 PUSH20 0x6F6C634300080700330000000000000000000000 "
				},
				"gasEstimates": {
					"creation": {
						"codeDepositCost": "256800",
						"executionCost": "300",
						"totalCost": "257100"
					},
					"external": {
						"decrementInt()": "24504",
						"getBalanceOfAddress()": "330",
						"incrementInt()": "24592",
						"myAddress()": "2584",
						"myBool()": "2538",
						"myInt()": "2474",
						"setMyAddress(address)": "24816",
						"setMyBool(bool)": "24745",
						"setMyInt(uint256)": "22542"
					}
				},
				"methodIdentifiers": {
					"decrementInt()": "8d5833cb",
					"getBalanceOfAddress()": "15502612",
					"incrementInt()": "f102a71d",
					"myAddress()": "26b85ee1",
					"myBool()": "6deecdbe",
					"myInt()": "2cb777a6",
					"setMyAddress(address)": "a8a7b895",
					"setMyBool(bool)": "eb1b30d9",
					"setMyInt(uint256)": "a6504657"
				}
			},
			"storageLayout": {
				"storage": [
					{
						"astId": 3,
						"contract": "contracts/basics/artifacts/Variables.sol:Variables",
						"label": "myInt",
						"offset": 0,
						"slot": "0",
						"type": "t_uint256"
					},
					{
						"astId": 15,
						"contract": "contracts/basics/artifacts/Variables.sol:Variables",
						"label": "myBool",
						"offset": 0,
						"slot": "1",
						"type": "t_bool"
					},
					{
						"astId": 41,
						"contract": "contracts/basics/artifacts/Variables.sol:Variables",
						"label": "myAddress",
						"offset": 1,
						"slot": "1",
						"type": "t_address"
					}
				],
				"types": {
					"t_address": {
						"encoding": "inplace",
						"label": "address",
						"numberOfBytes": "20"
					},
					"t_bool": {
						"encoding": "inplace",
						"label": "bool",
						"numberOfBytes": "1"
					},
					"t_uint256": {
						"encoding": "inplace",
						"label": "uint256",
						"numberOfBytes": "32"
					}
				}
			},
			"userdoc": {
				"kind": "user",
				"methods": {},
				"version": 1
			}
		}
	}
}