{
	"contracts/basics/artifacts/Variables.sol": {
		"Variables": {
			"abi": [
				{
					"inputs": [],
					"name": "incrementInt",
					"outputs": [],
					"stateMutability": "nonpayable",
					"type": "function"
				},
				{
					"inputs": [],
					"name": "myBool",
					"outputs": [
						{
							"internalType": "bool",
							"name": "",
							"type": "bool"
						}
					],
					"stateMutability": "view",
					"type": "function"
				},
				{
					"inputs": [],
					"name": "myInt",
					"outputs": [
						{
							"internalType": "uint256",
							"name": "",
							"type": "uint256"
						}
					],
					"stateMutability": "view",
					"type": "function"
				},
				{
					"inputs": [
						{
							"internalType": "bool",
							"name": "_myBool",
							"type": "bool"
						}
					],
					"name": "setMyBool",
					"outputs": [],
					"stateMutability": "nonpayable",
					"type": "function"
				},
				{
					"inputs": [
						{
							"internalType": "uint256",
							"name": "_myInt",
							"type": "uint256"
						}
					],
					"name": "setMyInt",
					"outputs": [],
					"stateMutability": "nonpayable",
					"type": "function"
				}
			],
			"devdoc": {
				"kind": "dev",
				"methods": {},
				"version": 1
			},
			"evm": {
				"assembly": "    /* \"contracts/basics/artifacts/Variables.sol\":58:369  contract Variables{\r... */\n  mstore(0x40, 0x80)\n  callvalue\n  dup1\n  iszero\n  tag_1\n  jumpi\n  0x00\n  dup1\n  revert\ntag_1:\n  pop\n  dataSize(sub_0)\n  dup1\n  dataOffset(sub_0)\n  0x00\n  codecopy\n  0x00\n  return\nstop\n\nsub_0: assembly {\n        /* \"contracts/basics/artifacts/Variables.sol\":58:369  contract Variables{\r... */\n      mstore(0x40, 0x80)\n      callvalue\n      dup1\n      iszero\n      tag_1\n      jumpi\n      0x00\n      dup1\n      revert\n    tag_1:\n      pop\n      jumpi(tag_2, lt(calldatasize, 0x04))\n      shr(0xe0, calldataload(0x00))\n      dup1\n      0x2cb777a6\n      eq\n      tag_3\n      jumpi\n      dup1\n      0x6deecdbe\n      eq\n      tag_4\n      jumpi\n      dup1\n      0xa6504657\n      eq\n      tag_5\n      jumpi\n      dup1\n      0xeb1b30d9\n      eq\n      tag_6\n      jumpi\n      dup1\n      0xf102a71d\n      eq\n      tag_7\n      jumpi\n    tag_2:\n      0x00\n      dup1\n      revert\n        /* \"contracts/basics/artifacts/Variables.sol\":83:103  uint256 public myInt */\n    tag_3:\n      tag_8\n      tag_9\n      jump\t// in\n    tag_8:\n      mload(0x40)\n      tag_10\n      swap2\n      swap1\n      tag_11\n      jump\t// in\n    tag_10:\n      mload(0x40)\n      dup1\n      swap2\n      sub\n      swap1\n      return\n        /* \"contracts/basics/artifacts/Variables.sol\":192:210  bool public myBool */\n    tag_4:\n      tag_12\n      tag_13\n      jump\t// in\n    tag_12:\n      mload(0x40)\n      tag_14\n      swap2\n      swap1\n      tag_15\n      jump\t// in\n    tag_14:\n      mload(0x40)\n      dup1\n      swap2\n      sub\n      swap1\n      return\n        /* \"contracts/basics/artifacts/Variables.sol\":116:186  function setMyInt(uint _myInt) public{\r... */\n    tag_5:\n      tag_16\n      0x04\n      dup1\n      calldatasize\n      sub\n      dup2\n      add\n      swap1\n      tag_17\n      swap2\n      swap1\n      tag_18\n      jump\t// in\n    tag_17:\n      tag_19\n      jump\t// in\n    tag_16:\n      stop\n        /* \"contracts/basics/artifacts/Variables.sol\":219:294  function setMyBool(bool _myBool) public {\r... */\n    tag_6:\n      tag_20\n      0x04\n      dup1\n      calldatasize\n      sub\n      dup2\n      add\n      swap1\n      tag_21\n      swap2\n      swap1\n      tag_22\n      jump\t// in\n    tag_21:\n      tag_23\n      jump\t// in\n    tag_20:\n      stop\n        /* \"contracts/basics/artifacts/Variables.sol\":302:358  function incrementInt() public{\r... */\n    tag_7:\n      tag_24\n      tag_25\n      jump\t// in\n    tag_24:\n      stop\n        /* \"contracts/basics/artifacts/Variables.sol\":83:103  uint256 public myInt */\n    tag_9:\n      sload(0x00)\n      dup2\n      jump\t// out\n        /* \"contracts/basics/artifacts/Variables.sol\":192:210  bool public myBool */\n    tag_13:\n      0x01\n      0x00\n      swap1\n      sload\n      swap1\n      0x0100\n      exp\n      swap1\n      div\n      0xff\n      and\n      dup2\n      jump\t// out\n        /* \"contracts/basics/artifacts/Variables.sol\":116:186  function setMyInt(uint _myInt) public{\r... */\n    tag_19:\n        /* \"contracts/basics/artifacts/Variables.sol\":172:178  _myInt */\n      dup1\n        /* \"contracts/basics/artifacts/Variables.sol\":164:169  myInt */\n      0x00\n        /* \"contracts/basics/artifacts/Variables.sol\":164:178  myInt = _myInt */\n      dup2\n      swap1\n      sstore\n      pop\n        /* \"contracts/basics/artifacts/Variables.sol\":116:186  function setMyInt(uint _myInt) public{\r... */\n      pop\n      jump\t// out\n        /* \"contracts/basics/artifacts/Variables.sol\":219:294  function setMyBool(bool _myBool) public {\r... */\n    tag_23:\n        /* \"contracts/basics/artifacts/Variables.sol\":279:286  _myBool */\n      dup1\n        /* \"contracts/basics/artifacts/Variables.sol\":270:276  myBool */\n      0x01\n      0x00\n        /* \"contracts/basics/artifacts/Variables.sol\":270:286  myBool = _myBool */\n      0x0100\n      exp\n      dup2\n      sload\n      dup2\n      0xff\n      mul\n      not\n      and\n      swap1\n      dup4\n      iszero\n      iszero\n      mul\n      or\n      swap1\n      sstore\n      pop\n        /* \"contracts/basics/artifacts/Variables.sol\":219:294  function setMyBool(bool _myBool) public {\r... */\n      pop\n      jump\t// out\n        /* \"contracts/basics/artifacts/Variables.sol\":302:358  function incrementInt() public{\r... */\n    tag_25:\n        /* \"contracts/basics/artifacts/Variables.sol\":343:348  myInt */\n      0x00\n      dup1\n        /* \"contracts/basics/artifacts/Variables.sol\":343:350  myInt++ */\n      dup2\n      sload\n      dup1\n      swap3\n      swap2\n      swap1\n      tag_29\n      swap1\n      tag_30\n      jump\t// in\n    tag_29:\n      swap2\n      swap1\n      pop\n      sstore\n      pop\n        /* \"contracts/basics/artifacts/Variables.sol\":302:358  function incrementInt() public{\r... */\n      jump\t// out\n        /* \"#utility.yul\":7:140   */\n    tag_32:\n        /* \"#utility.yul\":50:55   */\n      0x00\n        /* \"#utility.yul\":88:94   */\n      dup2\n        /* \"#utility.yul\":75:95   */\n      calldataload\n        /* \"#utility.yul\":66:95   */\n      swap1\n      pop\n        /* \"#utility.yul\":104:134   */\n      tag_34\n        /* \"#utility.yul\":128:133   */\n      dup2\n        /* \"#utility.yul\":104:134   */\n      tag_35\n      jump\t// in\n    tag_34:\n        /* \"#utility.yul\":7:140   */\n      swap3\n      swap2\n      pop\n      pop\n      jump\t// out\n        /* \"#utility.yul\":146:285   */\n    tag_36:\n        /* \"#utility.yul\":192:197   */\n      0x00\n        /* \"#utility.yul\":230:236   */\n      dup2\n        /* \"#utility.yul\":217:237   */\n      calldataload\n        /* \"#utility.yul\":208:237   */\n      swap1\n      pop\n        /* \"#utility.yul\":246:279   */\n      tag_38\n        /* \"#utility.yul\":273:278   */\n      dup2\n        /* \"#utility.yul\":246:279   */\n      tag_39\n      jump\t// in\n    tag_38:\n        /* \"#utility.yul\":146:285   */\n      swap3\n      swap2\n      pop\n      pop\n      jump\t// out\n        /* \"#utility.yul\":291:614   */\n    tag_22:\n        /* \"#utility.yul\":347:353   */\n      0x00\n        /* \"#utility.yul\":396:398   */\n      0x20\n        /* \"#utility.yul\":384:393   */\n      dup3\n        /* \"#utility.yul\":375:382   */\n      dup5\n        /* \"#utility.yul\":371:394   */\n      sub\n        /* \"#utility.yul\":367:399   */\n      slt\n        /* \"#utility.yul\":364:483   */\n      iszero\n      tag_41\n      jumpi\n        /* \"#utility.yul\":402:481   */\n      tag_42\n      tag_43\n      jump\t// in\n    tag_42:\n        /* \"#utility.yul\":364:483   */\n    tag_41:\n        /* \"#utility.yul\":522:523   */\n      0x00\n        /* \"#utility.yul\":547:597   */\n      tag_44\n        /* \"#utility.yul\":589:596   */\n      dup5\n        /* \"#utility.yul\":580:586   */\n      dup3\n        /* \"#utility.yul\":569:578   */\n      dup6\n        /* \"#utility.yul\":565:587   */\n      add\n        /* \"#utility.yul\":547:597   */\n      tag_32\n      jump\t// in\n    tag_44:\n        /* \"#utility.yul\":537:597   */\n      swap2\n      pop\n        /* \"#utility.yul\":493:607   */\n      pop\n        /* \"#utility.yul\":291:614   */\n      swap3\n      swap2\n      pop\n      pop\n      jump\t// out\n        /* \"#utility.yul\":620:949   */\n    tag_18:\n        /* \"#utility.yul\":679:685   */\n      0x00\n        /* \"#utility.yul\":728:730   */\n      0x20\n        /* \"#utility.yul\":716:725   */\n      dup3\n        /* \"#utility.yul\":707:714   */\n      dup5\n        /* \"#utility.yul\":703:726   */\n      sub\n        /* \"#utility.yul\":699:731   */\n      slt\n        /* \"#utility.yul\":696:815   */\n      iszero\n      tag_46\n      jumpi\n        /* \"#utility.yul\":734:813   */\n      tag_47\n      tag_43\n      jump\t// in\n    tag_47:\n        /* \"#utility.yul\":696:815   */\n    tag_46:\n        /* \"#utility.yul\":854:855   */\n      0x00\n        /* \"#utility.yul\":879:932   */\n      tag_48\n        /* \"#utility.yul\":924:931   */\n      dup5\n        /* \"#utility.yul\":915:921   */\n      dup3\n        /* \"#utility.yul\":904:913   */\n      dup6\n        /* \"#utility.yul\":900:922   */\n      add\n        /* \"#utility.yul\":879:932   */\n      tag_36\n      jump\t// in\n    tag_48:\n        /* \"#utility.yul\":869:932   */\n      swap2\n      pop\n        /* \"#utility.yul\":825:942   */\n      pop\n        /* \"#utility.yul\":620:949   */\n      swap3\n      swap2\n      pop\n      pop\n      jump\t// out\n        /* \"#utility.yul\":955:1064   */\n    tag_49:\n        /* \"#utility.yul\":1036:1057   */\n      tag_51\n        /* \"#utility.yul\":1051:1056   */\n      dup2\n        /* \"#utility.yul\":1036:1057   */\n      tag_52\n      jump\t// in\n    tag_51:\n        /* \"#utility.yul\":1031:1034   */\n      dup3\n        /* \"#utility.yul\":1024:1058   */\n      mstore\n        /* \"#utility.yul\":955:1064   */\n      pop\n      pop\n      jump\t// out\n        /* \"#utility.yul\":1070:1188   */\n    tag_53:\n        /* \"#utility.yul\":1157:1181   */\n      tag_55\n        /* \"#utility.yul\":1175:1180   */\n      dup2\n        /* \"#utility.yul\":1157:1181   */\n      tag_56\n      jump\t// in\n    tag_55:\n        /* \"#utility.yul\":1152:1155   */\n      dup3\n        /* \"#utility.yul\":1145:1182   */\n      mstore\n        /* \"#utility.yul\":1070:1188   */\n      pop\n      pop\n      jump\t// out\n        /* \"#utility.yul\":1194:1404   */\n    tag_15:\n        /* \"#utility.yul\":1281:1285   */\n      0x00\n        /* \"#utility.yul\":1319:1321   */\n      0x20\n        /* \"#utility.yul\":1308:1317   */\n      dup3\n        /* \"#utility.yul\":1304:1322   */\n      add\n        /* \"#utility.yul\":1296:1322   */\n      swap1\n      pop\n        /* \"#utility.yul\":1332:1397   */\n      tag_58\n        /* \"#utility.yul\":1394:1395   */\n      0x00\n        /* \"#utility.yul\":1383:1392   */\n      dup4\n        /* \"#utility.yul\":1379:1396   */\n      add\n        /* \"#utility.yul\":1370:1376   */\n      dup5\n        /* \"#utility.yul\":1332:1397   */\n      tag_49\n      jump\t// in\n    tag_58:\n        /* \"#utility.yul\":1194:1404   */\n      swap3\n      swap2\n      pop\n      pop\n      jump\t// out\n        /* \"#utility.yul\":1410:1632   */\n    tag_11:\n        /* \"#utility.yul\":1503:1507   */\n      0x00\n        /* \"#utility.yul\":1541:1543   */\n      0x20\n        /* \"#utility.yul\":1530:1539   */\n      dup3\n        /* \"#utility.yul\":1526:1544   */\n      add\n        /* \"#utility.yul\":1518:1544   */\n      swap1\n      pop\n        /* \"#utility.yul\":1554:1625   */\n      tag_60\n        /* \"#utility.yul\":1622:1623   */\n      0x00\n        /* \"#utility.yul\":1611:1620   */\n      dup4\n        /* \"#utility.yul\":1607:1624   */\n      add\n        /* \"#utility.yul\":1598:1604   */\n      dup5\n        /* \"#utility.yul\":1554:1625   */\n      tag_53\n      jump\t// in\n    tag_60:\n        /* \"#utility.yul\":1410:1632   */\n      swap3\n      swap2\n      pop\n      pop\n      jump\t// out\n        /* \"#utility.yul\":1719:1809   */\n    tag_52:\n        /* \"#utility.yul\":1753:1760   */\n      0x00\n        /* \"#utility.yul\":1796:1801   */\n      dup2\n        /* \"#utility.yul\":1789:1802   */\n      iszero\n        /* \"#utility.yul\":1782:1803   */\n      iszero\n        /* \"#utility.yul\":1771:1803   */\n      swap1\n      pop\n        /* \"#utility.yul\":1719:1809   */\n      swap2\n      swap1\n      pop\n      jump\t// out\n        /* \"#utility.yul\":1815:1892   */\n    tag_56:\n        /* \"#utility.yul\":1852:1859   */\n      0x00\n        /* \"#utility.yul\":1881:1886   */\n      dup2\n        /* \"#utility.yul\":1870:1886   */\n      swap1\n      pop\n        /* \"#utility.yul\":1815:1892   */\n      swap2\n      swap1\n      pop\n      jump\t// out\n        /* \"#utility.yul\":1898:2131   */\n    tag_30:\n        /* \"#utility.yul\":1937:1940   */\n      0x00\n        /* \"#utility.yul\":1960:1984   */\n      tag_66\n        /* \"#utility.yul\":1978:1983   */\n      dup3\n        /* \"#utility.yul\":1960:1984   */\n      tag_56\n      jump\t// in\n    tag_66:\n        /* \"#utility.yul\":1951:1984   */\n      swap2\n      pop\n        /* \"#utility.yul\":2006:2072   */\n      0xffffffffffffffffffffffffffffffffffffffffffffffffffffffffffffffff\n        /* \"#utility.yul\":1999:2004   */\n      dup3\n        /* \"#utility.yul\":1996:2073   */\n      eq\n        /* \"#utility.yul\":1993:2096   */\n      iszero\n      tag_67\n      jumpi\n        /* \"#utility.yul\":2076:2094   */\n      tag_68\n      tag_69\n      jump\t// in\n    tag_68:\n        /* \"#utility.yul\":1993:2096   */\n    tag_67:\n        /* \"#utility.yul\":2123:2124   */\n      0x01\n        /* \"#utility.yul\":2116:2121   */\n      dup3\n        /* \"#utility.yul\":2112:2125   */\n      add\n        /* \"#utility.yul\":2105:2125   */\n      swap1\n      pop\n        /* \"#utility.yul\":1898:2131   */\n      swap2\n      swap1\n      pop\n      jump\t// out\n        /* \"#utility.yul\":2137:2317   */\n    tag_69:\n        /* \"#utility.yul\":2185:2262   */\n      0x4e487b7100000000000000000000000000000000000000000000000000000000\n        /* \"#utility.yul\":2182:2183   */\n      0x00\n        /* \"#utility.yul\":2175:2263   */\n      mstore\n        /* \"#utility.yul\":2282:2286   */\n      0x11\n        /* \"#utility.yul\":2279:2280   */\n      0x04\n        /* \"#utility.yul\":2272:2287   */\n      mstore\n        /* \"#utility.yul\":2306:2310   */\n      0x24\n        /* \"#utility.yul\":2303:2304   */\n      0x00\n        /* \"#utility.yul\":2296:2311   */\n      revert\n        /* \"#utility.yul\":2446:2563   */\n    tag_43:\n        /* \"#utility.yul\":2555:2556   */\n      0x00\n        /* \"#utility.yul\":2552:2553   */\n      dup1\n        /* \"#utility.yul\":2545:2557   */\n      revert\n        /* \"#utility.yul\":2569:2685   */\n    tag_35:\n        /* \"#utility.yul\":2639:2660   */\n      tag_75\n        /* \"#utility.yul\":2654:2659   */\n      dup2\n        /* \"#utility.yul\":2639:2660   */\n      tag_52\n      jump\t// in\n    tag_75:\n        /* \"#utility.yul\":2632:2637   */\n      dup2\n        /* \"#utility.yul\":2629:2661   */\n      eq\n        /* \"#utility.yul\":2619:2679   */\n      tag_76\n      jumpi\n        /* \"#utility.yul\":2675:2676   */\n      0x00\n        /* \"#utility.yul\":2672:2673   */\n      dup1\n        /* \"#utility.yul\":2665:2677   */\n      revert\n        /* \"#utility.yul\":2619:2679   */\n    tag_76:\n        /* \"#utility.yul\":2569:2685   */\n      pop\n      jump\t// out\n        /* \"#utility.yul\":2691:2813   */\n    tag_39:\n        /* \"#utility.yul\":2764:2788   */\n      tag_78\n        /* \"#utility.yul\":2782:2787   */\n      dup2\n        /* \"#utility.yul\":2764:2788   */\n      tag_56\n      jump\t// in\n    tag_78:\n        /* \"#utility.yul\":2757:2762   */\n      dup2\n        /* \"#utility.yul\":2754:2789   */\n      eq\n        /* \"#utility.yul\":2744:2807   */\n      tag_79\n      jumpi\n        /* \"#utility.yul\":2803:2804   */\n      0x00\n        /* \"#utility.yul\":2800:2801   */\n      dup1\n        /* \"#utility.yul\":2793:2805   */\n      revert\n        /* \"#utility.yul\":2744:2807   */\n    tag_79:\n        /* \"#utility.yul\":2691:2813   */\n      pop\n      jump\t// out\n\n    auxdata: 0xa26469706673582212206e020b22f5df17d78ea554b5e87f4a66d478a53cb81827d721482c562f6b6d1664736f6c63430008070033\n}\n",
				"bytecode": {
					"linkReferences": {},
					"object": "608060405234801561001057600080fd5b50610302806100206000396000f3fe608060405234801561001057600080fd5b50600436106100575760003560e01c80632cb777a61461005c5780636deecdbe1461007a578063a650465714610098578063eb1b30d9146100b4578063f102a71d146100d0575b600080fd5b6100646100da565b60405161007191906101f0565b60405180910390f35b6100826100e0565b60405161008f91906101d5565b60405180910390f35b6100b260048036038101906100ad919061018a565b6100f3565b005b6100ce60048036038101906100c9919061015d565b6100fd565b005b6100d861011a565b005b60005481565b600160009054906101000a900460ff1681565b8060008190555050565b80600160006101000a81548160ff02191690831515021790555050565b60008081548092919061012c90610221565b9190505550565b6000813590506101428161029e565b92915050565b600081359050610157816102b5565b92915050565b60006020828403121561017357610172610299565b5b600061018184828501610133565b91505092915050565b6000602082840312156101a05761019f610299565b5b60006101ae84828501610148565b91505092915050565b6101c08161020b565b82525050565b6101cf81610217565b82525050565b60006020820190506101ea60008301846101b7565b92915050565b600060208201905061020560008301846101c6565b92915050565b60008115159050919050565b6000819050919050565b600061022c82610217565b91507fffffffffffffffffffffffffffffffffffffffffffffffffffffffffffffffff82141561025f5761025e61026a565b5b600182019050919050565b7f4e487b7100000000000000000000000000000000000000000000000000000000600052601160045260246000fd5b600080fd5b6102a78161020b565b81146102b257600080fd5b50565b6102be81610217565b81146102c957600080fd5b5056fea26469706673582212206e020b22f5df17d78ea554b5e87f4a66d478a53cb81827d721482c562f6b6d1664736f6c63430008070033",
					"opcodes": "PUSH1 0x80 PUSH1 0x40 MSTORE CALLVALUE DUP1 ISZERO PUSH2 0x10 JUMPI PUSH1 0x0 DUP1 REVERT JUMPDEST POP PUSH2 0x302 DUP1 PUSH2 0x20 PUSH1 0x0 CODECOPY PUSH1 0x0 RETURN INVALID PUSH1 0x80 PUSH1 0x40 MSTORE CALLVALUE DUP1 ISZERO PUSH2 0x10 JUMPI PUSH1 0x0 DUP1 REVERT JUMPDEST POP PUSH1 0x4 CALLDATASIZE LT PUSH2 0x57 JUMPI PUSH1 0x0 CALLDATALOAD PUSH1 0xE0 SHR DUP1 PUSH4 0x2CB777A6 EQ PUSH2 0x5C JUMPI DUP1 PUSH4 0x6DEECDBE EQ PUSH2 0x7A JUMPI DUP1 PUSH4 0xA6504657 EQ PUSH2 0x98 JUMPI DUP1 PUSH4 0xEB1B30D9 EQ PUSH2 0xB4 JUMPI DUP1 PUSH4 0xF102A71D EQ PUSH2 0xD0 JUMPI JUMPDEST PUSH1 0x0 DUP1 REVERT JUMPDEST PUSH2 0x64 PUSH2 0xDA JUMP JUMPDEST PUSH1 0x40 MLOAD PUSH2 0x71 SWAP2 SWAP1 PUSH2 0x1F0 JUMP JUMPDEST PUSH1 0x40 MLOAD DUP1 SWAP2 SUB SWAP1 RETURN JUMPDEST PUSH2 0x82 PUSH2 0xE0 JUMP JUMPDEST PUSH1 0x40 MLOAD PUSH2 0x8F SWAP2 SWAP1 PUSH2 0x1D5 JUMP JUMPDEST PUSH1 0x40 MLOAD DUP1 SWAP2 SUB SWAP1 RETURN JUMPDEST PUSH2 0xB2 PUSH1 0x4 DUP1 CALLDATASIZE SUB DUP2 ADD SWAP1 PUSH2 0xAD SWAP2 SWAP1 PUSH2 0x18A JUMP JUMPDEST PUSH2 0xF3 JUMP JUMPDEST STOP JUMPDEST PUSH2 0xCE PUSH1 0x4 DUP1 CALLDATASIZE SUB DUP2 ADD SWAP1 PUSH2 0xC9 SWAP2 SWAP1 PUSH2 0x15D JUMP JUMPDEST PUSH2 0xFD JUMP JUMPDEST STOP JUMPDEST PUSH2 0xD8 PUSH2 0x11A JUMP JUMPDEST STOP JUMPDEST PUSH1 0x0 SLOAD DUP2 JUMP JUMPDEST PUSH1 0x1 PUSH1 0x0 SWAP1 SLOAD SWAP1 PUSH2 0x100 EXP SWAP1 DIV PUSH1 0xFF AND DUP2 JUMP JUMPDEST DUP1 PUSH1 0x0 DUP2 SWAP1 SSTORE POP POP JUMP JUMPDEST DUP1 PUSH1 0x1 PUSH1 0x0 PUSH2 0x100 EXP DUP2 SLOAD DUP2 PUSH1 0xFF MUL NOT AND SWAP1 DUP4 ISZERO ISZERO MUL OR SWAP1 SSTORE POP POP JUMP JUMPDEST PUSH1 0x0 DUP1 DUP2 SLOAD DUP1 SWAP3 SWAP2 SWAP1 PUSH2 0x12C SWAP1 PUSH2 0x221 JUMP JUMPDEST SWAP2 SWAP1 POP SSTORE POP JUMP JUMPDEST PUSH1 0x0 DUP2 CALLDATALOAD SWAP1 POP PUSH2 0x142 DUP2 PUSH2 0x29E JUMP JUMPDEST SWAP3 SWAP2 POP POP JUMP JUMPDEST PUSH1 0x0 DUP2 CALLDATALOAD SWAP1 POP PUSH2 0x157 DUP2 PUSH2 0x2B5 JUMP JUMPDEST SWAP3 SWAP2 POP POP JUMP JUMPDEST PUSH1 0x0 PUSH1 0x20 DUP3 DUP5 SUB SLT ISZERO PUSH2 0x173 JUMPI PUSH2 0x172 PUSH2 0x299 JUMP JUMPDEST JUMPDEST PUSH1 0x0 PUSH2 0x181 DUP5 DUP3 DUP6 ADD PUSH2 0x133 JUMP JUMPDEST SWAP2 POP POP SWAP3 SWAP2 POP POP JUMP JUMPDEST PUSH1 0x0 PUSH1 0x20 DUP3 DUP5 SUB SLT ISZERO PUSH2 0x1A0 JUMPI PUSH2 0x19F PUSH2 0x299 JUMP JUMPDEST JUMPDEST PUSH1 0x0 PUSH2 0x1AE DUP5 DUP3 DUP6 ADD PUSH2 0x148 JUMP JUMPDEST SWAP2 POP POP SWAP3 SWAP2 POP POP JUMP JUMPDEST PUSH2 0x1C0 DUP2 PUSH2 0x20B JUMP JUMPDEST DUP3 MSTORE POP POP JUMP JUMPDEST PUSH2 0x1CF DUP2 PUSH2 0x217 JUMP JUMPDEST DUP3 MSTORE POP POP JUMP JUMPDEST PUSH1 0x0 PUSH1 0x20 DUP3 ADD SWAP1 POP PUSH2 0x1EA PUSH1 0x0 DUP4 ADD DUP5 PUSH2 0x1B7 JUMP JUMPDEST SWAP3 SWAP2 POP POP JUMP JUMPDEST PUSH1 0x0 PUSH1 0x20 DUP3 ADD SWAP1 POP PUSH2 0x205 PUSH1 0x0 DUP4 ADD DUP5 PUSH2 0x1C6 JUMP JUMPDEST SWAP3 SWAP2 POP POP JUMP JUMPDEST PUSH1 0x0 DUP2 ISZERO ISZERO SWAP1 POP SWAP2 SWAP1 POP JUMP JUMPDEST PUSH1 0x0 DUP2 SWAP1 POP SWAP2 SWAP1 POP JUMP JUMPDEST PUSH1 0x0 PUSH2 0x22C DUP3 PUSH2 0x217 JUMP JUMPDEST SWAP2 POP PUSH32 0xFFFFFFFFFFFFFFFFFFFFFFFFFFFFFFFFFFFFFFFFFFFFFFFFFFFFFFFFFFFFFFFF DUP3 EQ ISZERO PUSH2 0x25F JUMPI PUSH2 0x25E PUSH2 0x26A JUMP JUMPDEST JUMPDEST PUSH1 0x1 DUP3 ADD SWAP1 POP SWAP2 SWAP1 POP JUMP JUMPDEST PUSH32 0x4E487B7100000000000000000000000000000000000000000000000000000000 PUSH1 0x0 MSTORE PUSH1 0x11 PUSH1 0x4 MSTORE PUSH1 0x24 PUSH1 0x0 REVERT JUMPDEST PUSH1 0x0 DUP1 REVERT JUMPDEST PUSH2 0x2A7 DUP2 PUSH2 0x20B JUMP JUMPDEST DUP2 EQ PUSH2 0x2B2 JUMPI PUSH1 0x0 DUP1 REVERT JUMPDEST POP JUMP JUMPDEST PUSH2 0x2BE DUP2 PUSH2 0x217 JUMP JUMPDEST DUP2 EQ PUSH2 0x2C9 JUMPI PUSH1 0x0 DUP1 REVERT JUMPDEST POP JUMP INVALID LOG2 PUSH5 0x6970667358 0x22 SLT KECCAK256 PUSH15 0x20B22F5DF17D78EA554B5E87F4A66 0xD4 PUSH25 0xA53CB81827D721482C562F6B6D1664736F6C63430008070033 "
				},
				"gasEstimates": {
					"creation": {
						"codeDepositCost": "154000",
						"executionCost": "202",
						"totalCost": "154202"
					},
					"external": {
						"incrementInt()": "24570",
						"myBool()": "2471",
						"myInt()": "2407",
						"setMyBool(bool)": "24723",
						"setMyInt(uint256)": "22542"
					}
				},
				"methodIdentifiers": {
					"incrementInt()": "f102a71d",
					"myBool()": "6deecdbe",
					"myInt()": "2cb777a6",
					"setMyBool(bool)": "eb1b30d9",
					"setMyInt(uint256)": "a6504657"
				}
			},
			"storageLayout": {
				"storage": [
					{
						"astId": 3,
						"contract": "contracts/basics/artifacts/Variables.sol:Variables",
						"label": "myInt",
						"offset": 0,
						"slot": "0",
						"type": "t_uint256"
					},
					{
						"astId": 15,
						"contract": "contracts/basics/artifacts/Variables.sol:Variables",
						"label": "myBool",
						"offset": 0,
						"slot": "1",
						"type": "t_bool"
					}
				],
				"types": {
					"t_bool": {
						"encoding": "inplace",
						"label": "bool",
						"numberOfBytes": "1"
					},
					"t_uint256": {
						"encoding": "inplace",
						"label": "uint256",
						"numberOfBytes": "32"
					}
				}
			},
			"userdoc": {
				"kind": "user",
				"methods": {},
				"version": 1
			}
		}
	}
}