{
	"contracts/basics/artifacts/Variables.sol": {
		"Variables": {
			"abi": [
				{
					"inputs": [],
					"name": "decrementInt",
					"outputs": [],
					"stateMutability": "nonpayable",
					"type": "function"
				},
				{
					"inputs": [],
					"name": "incrementInt",
					"outputs": [],
					"stateMutability": "nonpayable",
					"type": "function"
				},
				{
					"inputs": [],
					"name": "myBool",
					"outputs": [
						{
							"internalType": "bool",
							"name": "",
							"type": "bool"
						}
					],
					"stateMutability": "view",
					"type": "function"
				},
				{
					"inputs": [],
					"name": "myInt",
					"outputs": [
						{
							"internalType": "uint256",
							"name": "",
							"type": "uint256"
						}
					],
					"stateMutability": "view",
					"type": "function"
				},
				{
					"inputs": [
						{
							"internalType": "address",
							"name": "_myAddress",
							"type": "address"
						}
					],
					"name": "setMyAddress",
					"outputs": [],
					"stateMutability": "nonpayable",
					"type": "function"
				},
				{
					"inputs": [
						{
							"internalType": "bool",
							"name": "_myBool",
							"type": "bool"
						}
					],
					"name": "setMyBool",
					"outputs": [],
					"stateMutability": "nonpayable",
					"type": "function"
				},
				{
					"inputs": [
						{
							"internalType": "uint256",
							"name": "_myInt",
							"type": "uint256"
						}
					],
					"name": "setMyInt",
					"outputs": [],
					"stateMutability": "nonpayable",
					"type": "function"
				}
			],
			"devdoc": {
				"kind": "dev",
				"methods": {},
				"version": 1
			},
			"evm": {
				"assembly": "    /* \"contracts/basics/artifacts/Variables.sol\":58:527  contract Variables{\r... */\n  mstore(0x40, 0x80)\n  callvalue\n  dup1\n  iszero\n  tag_1\n  jumpi\n  0x00\n  dup1\n  revert\ntag_1:\n  pop\n  dataSize(sub_0)\n  dup1\n  dataOffset(sub_0)\n  0x00\n  codecopy\n  0x00\n  return\nstop\n\nsub_0: assembly {\n        /* \"contracts/basics/artifacts/Variables.sol\":58:527  contract Variables{\r... */\n      mstore(0x40, 0x80)\n      callvalue\n      dup1\n      iszero\n      tag_1\n      jumpi\n      0x00\n      dup1\n      revert\n    tag_1:\n      pop\n      jumpi(tag_2, lt(calldatasize, 0x04))\n      shr(0xe0, calldataload(0x00))\n      dup1\n      0xa6504657\n      gt\n      tag_10\n      jumpi\n      dup1\n      0xa6504657\n      eq\n      tag_6\n      jumpi\n      dup1\n      0xa8a7b895\n      eq\n      tag_7\n      jumpi\n      dup1\n      0xeb1b30d9\n      eq\n      tag_8\n      jumpi\n      dup1\n      0xf102a71d\n      eq\n      tag_9\n      jumpi\n      jump(tag_2)\n    tag_10:\n      dup1\n      0x2cb777a6\n      eq\n      tag_3\n      jumpi\n      dup1\n      0x6deecdbe\n      eq\n      tag_4\n      jumpi\n      dup1\n      0x8d5833cb\n      eq\n      tag_5\n      jumpi\n    tag_2:\n      0x00\n      dup1\n      revert\n        /* \"contracts/basics/artifacts/Variables.sol\":83:103  uint256 public myInt */\n    tag_3:\n      tag_11\n      tag_12\n      jump\t// in\n    tag_11:\n      mload(0x40)\n      tag_13\n      swap2\n      swap1\n      tag_14\n      jump\t// in\n    tag_13:\n      mload(0x40)\n      dup1\n      swap2\n      sub\n      swap1\n      return\n        /* \"contracts/basics/artifacts/Variables.sol\":192:210  bool public myBool */\n    tag_4:\n      tag_15\n      tag_16\n      jump\t// in\n    tag_15:\n      mload(0x40)\n      tag_17\n      swap2\n      swap1\n      tag_18\n      jump\t// in\n    tag_17:\n      mload(0x40)\n      dup1\n      swap2\n      sub\n      swap1\n      return\n        /* \"contracts/basics/artifacts/Variables.sol\":366:422  function decrementInt() public{\r... */\n    tag_5:\n      tag_19\n      tag_20\n      jump\t// in\n    tag_19:\n      stop\n        /* \"contracts/basics/artifacts/Variables.sol\":116:186  function setMyInt(uint _myInt) public{\r... */\n    tag_6:\n      tag_21\n      0x04\n      dup1\n      calldatasize\n      sub\n      dup2\n      add\n      swap1\n      tag_22\n      swap2\n      swap1\n      tag_23\n      jump\t// in\n    tag_22:\n      tag_24\n      jump\t// in\n    tag_21:\n      stop\n        /* \"contracts/basics/artifacts/Variables.sol\":456:522  function setMyAddress(address _myAddress) public{\r... */\n    tag_7:\n      tag_25\n      0x04\n      dup1\n      calldatasize\n      sub\n      dup2\n      add\n      swap1\n      tag_26\n      swap2\n      swap1\n      tag_27\n      jump\t// in\n    tag_26:\n      tag_28\n      jump\t// in\n    tag_25:\n      stop\n        /* \"contracts/basics/artifacts/Variables.sol\":219:294  function setMyBool(bool _myBool) public {\r... */\n    tag_8:\n      tag_29\n      0x04\n      dup1\n      calldatasize\n      sub\n      dup2\n      add\n      swap1\n      tag_30\n      swap2\n      swap1\n      tag_31\n      jump\t// in\n    tag_30:\n      tag_32\n      jump\t// in\n    tag_29:\n      stop\n        /* \"contracts/basics/artifacts/Variables.sol\":302:358  function incrementInt() public{\r... */\n    tag_9:\n      tag_33\n      tag_34\n      jump\t// in\n    tag_33:\n      stop\n        /* \"contracts/basics/artifacts/Variables.sol\":83:103  uint256 public myInt */\n    tag_12:\n      sload(0x00)\n      dup2\n      jump\t// out\n        /* \"contracts/basics/artifacts/Variables.sol\":192:210  bool public myBool */\n    tag_16:\n      0x01\n      0x00\n      swap1\n      sload\n      swap1\n      0x0100\n      exp\n      swap1\n      div\n      0xff\n      and\n      dup2\n      jump\t// out\n        /* \"contracts/basics/artifacts/Variables.sol\":366:422  function decrementInt() public{\r... */\n    tag_20:\n        /* \"contracts/basics/artifacts/Variables.sol\":407:412  myInt */\n      0x00\n      dup1\n        /* \"contracts/basics/artifacts/Variables.sol\":407:414  myInt-- */\n      dup2\n      sload\n      dup1\n      swap3\n      swap2\n      swap1\n      tag_36\n      swap1\n      tag_37\n      jump\t// in\n    tag_36:\n      swap2\n      swap1\n      pop\n      sstore\n      pop\n        /* \"contracts/basics/artifacts/Variables.sol\":366:422  function decrementInt() public{\r... */\n      jump\t// out\n        /* \"contracts/basics/artifacts/Variables.sol\":116:186  function setMyInt(uint _myInt) public{\r... */\n    tag_24:\n        /* \"contracts/basics/artifacts/Variables.sol\":172:178  _myInt */\n      dup1\n        /* \"contracts/basics/artifacts/Variables.sol\":164:169  myInt */\n      0x00\n        /* \"contracts/basics/artifacts/Variables.sol\":164:178  myInt = _myInt */\n      dup2\n      swap1\n      sstore\n      pop\n        /* \"contracts/basics/artifacts/Variables.sol\":116:186  function setMyInt(uint _myInt) public{\r... */\n      pop\n      jump\t// out\n        /* \"contracts/basics/artifacts/Variables.sol\":456:522  function setMyAddress(address _myAddress) public{\r... */\n    tag_28:\n      pop\n      jump\t// out\n        /* \"contracts/basics/artifacts/Variables.sol\":219:294  function setMyBool(bool _myBool) public {\r... */\n    tag_32:\n        /* \"contracts/basics/artifacts/Variables.sol\":279:286  _myBool */\n      dup1\n        /* \"contracts/basics/artifacts/Variables.sol\":270:276  myBool */\n      0x01\n      0x00\n        /* \"contracts/basics/artifacts/Variables.sol\":270:286  myBool = _myBool */\n      0x0100\n      exp\n      dup2\n      sload\n      dup2\n      0xff\n      mul\n      not\n      and\n      swap1\n      dup4\n      iszero\n      iszero\n      mul\n      or\n      swap1\n      sstore\n      pop\n        /* \"contracts/basics/artifacts/Variables.sol\":219:294  function setMyBool(bool _myBool) public {\r... */\n      pop\n      jump\t// out\n        /* \"contracts/basics/artifacts/Variables.sol\":302:358  function incrementInt() public{\r... */\n    tag_34:\n        /* \"contracts/basics/artifacts/Variables.sol\":343:348  myInt */\n      0x00\n      dup1\n        /* \"contracts/basics/artifacts/Variables.sol\":343:350  myInt++ */\n      dup2\n      sload\n      dup1\n      swap3\n      swap2\n      swap1\n      tag_42\n      swap1\n      tag_43\n      jump\t// in\n    tag_42:\n      swap2\n      swap1\n      pop\n      sstore\n      pop\n        /* \"contracts/basics/artifacts/Variables.sol\":302:358  function incrementInt() public{\r... */\n      jump\t// out\n        /* \"#utility.yul\":7:146   */\n    tag_45:\n        /* \"#utility.yul\":53:58   */\n      0x00\n        /* \"#utility.yul\":91:97   */\n      dup2\n        /* \"#utility.yul\":78:98   */\n      calldataload\n        /* \"#utility.yul\":69:98   */\n      swap1\n      pop\n        /* \"#utility.yul\":107:140   */\n      tag_47\n        /* \"#utility.yul\":134:139   */\n      dup2\n        /* \"#utility.yul\":107:140   */\n      tag_48\n      jump\t// in\n    tag_47:\n        /* \"#utility.yul\":7:146   */\n      swap3\n      swap2\n      pop\n      pop\n      jump\t// out\n        /* \"#utility.yul\":152:285   */\n    tag_49:\n        /* \"#utility.yul\":195:200   */\n      0x00\n        /* \"#utility.yul\":233:239   */\n      dup2\n        /* \"#utility.yul\":220:240   */\n      calldataload\n        /* \"#utility.yul\":211:240   */\n      swap1\n      pop\n        /* \"#utility.yul\":249:279   */\n      tag_51\n        /* \"#utility.yul\":273:278   */\n      dup2\n        /* \"#utility.yul\":249:279   */\n      tag_52\n      jump\t// in\n    tag_51:\n        /* \"#utility.yul\":152:285   */\n      swap3\n      swap2\n      pop\n      pop\n      jump\t// out\n        /* \"#utility.yul\":291:430   */\n    tag_53:\n        /* \"#utility.yul\":337:342   */\n      0x00\n        /* \"#utility.yul\":375:381   */\n      dup2\n        /* \"#utility.yul\":362:382   */\n      calldataload\n        /* \"#utility.yul\":353:382   */\n      swap1\n      pop\n        /* \"#utility.yul\":391:424   */\n      tag_55\n        /* \"#utility.yul\":418:423   */\n      dup2\n        /* \"#utility.yul\":391:424   */\n      tag_56\n      jump\t// in\n    tag_55:\n        /* \"#utility.yul\":291:430   */\n      swap3\n      swap2\n      pop\n      pop\n      jump\t// out\n        /* \"#utility.yul\":436:765   */\n    tag_27:\n        /* \"#utility.yul\":495:501   */\n      0x00\n        /* \"#utility.yul\":544:546   */\n      0x20\n        /* \"#utility.yul\":532:541   */\n      dup3\n        /* \"#utility.yul\":523:530   */\n      dup5\n        /* \"#utility.yul\":519:542   */\n      sub\n        /* \"#utility.yul\":515:547   */\n      slt\n        /* \"#utility.yul\":512:631   */\n      iszero\n      tag_58\n      jumpi\n        /* \"#utility.yul\":550:629   */\n      tag_59\n      tag_60\n      jump\t// in\n    tag_59:\n        /* \"#utility.yul\":512:631   */\n    tag_58:\n        /* \"#utility.yul\":670:671   */\n      0x00\n        /* \"#utility.yul\":695:748   */\n      tag_61\n        /* \"#utility.yul\":740:747   */\n      dup5\n        /* \"#utility.yul\":731:737   */\n      dup3\n        /* \"#utility.yul\":720:729   */\n      dup6\n        /* \"#utility.yul\":716:738   */\n      add\n        /* \"#utility.yul\":695:748   */\n      tag_45\n      jump\t// in\n    tag_61:\n        /* \"#utility.yul\":685:748   */\n      swap2\n      pop\n        /* \"#utility.yul\":641:758   */\n      pop\n        /* \"#utility.yul\":436:765   */\n      swap3\n      swap2\n      pop\n      pop\n      jump\t// out\n        /* \"#utility.yul\":771:1094   */\n    tag_31:\n        /* \"#utility.yul\":827:833   */\n      0x00\n        /* \"#utility.yul\":876:878   */\n      0x20\n        /* \"#utility.yul\":864:873   */\n      dup3\n        /* \"#utility.yul\":855:862   */\n      dup5\n        /* \"#utility.yul\":851:874   */\n      sub\n        /* \"#utility.yul\":847:879   */\n      slt\n        /* \"#utility.yul\":844:963   */\n      iszero\n      tag_63\n      jumpi\n        /* \"#utility.yul\":882:961   */\n      tag_64\n      tag_60\n      jump\t// in\n    tag_64:\n        /* \"#utility.yul\":844:963   */\n    tag_63:\n        /* \"#utility.yul\":1002:1003   */\n      0x00\n        /* \"#utility.yul\":1027:1077   */\n      tag_65\n        /* \"#utility.yul\":1069:1076   */\n      dup5\n        /* \"#utility.yul\":1060:1066   */\n      dup3\n        /* \"#utility.yul\":1049:1058   */\n      dup6\n        /* \"#utility.yul\":1045:1067   */\n      add\n        /* \"#utility.yul\":1027:1077   */\n      tag_49\n      jump\t// in\n    tag_65:\n        /* \"#utility.yul\":1017:1077   */\n      swap2\n      pop\n        /* \"#utility.yul\":973:1087   */\n      pop\n        /* \"#utility.yul\":771:1094   */\n      swap3\n      swap2\n      pop\n      pop\n      jump\t// out\n        /* \"#utility.yul\":1100:1429   */\n    tag_23:\n        /* \"#utility.yul\":1159:1165   */\n      0x00\n        /* \"#utility.yul\":1208:1210   */\n      0x20\n        /* \"#utility.yul\":1196:1205   */\n      dup3\n        /* \"#utility.yul\":1187:1194   */\n      dup5\n        /* \"#utility.yul\":1183:1206   */\n      sub\n        /* \"#utility.yul\":1179:1211   */\n      slt\n        /* \"#utility.yul\":1176:1295   */\n      iszero\n      tag_67\n      jumpi\n        /* \"#utility.yul\":1214:1293   */\n      tag_68\n      tag_60\n      jump\t// in\n    tag_68:\n        /* \"#utility.yul\":1176:1295   */\n    tag_67:\n        /* \"#utility.yul\":1334:1335   */\n      0x00\n        /* \"#utility.yul\":1359:1412   */\n      tag_69\n        /* \"#utility.yul\":1404:1411   */\n      dup5\n        /* \"#utility.yul\":1395:1401   */\n      dup3\n        /* \"#utility.yul\":1384:1393   */\n      dup6\n        /* \"#utility.yul\":1380:1402   */\n      add\n        /* \"#utility.yul\":1359:1412   */\n      tag_53\n      jump\t// in\n    tag_69:\n        /* \"#utility.yul\":1349:1412   */\n      swap2\n      pop\n        /* \"#utility.yul\":1305:1422   */\n      pop\n        /* \"#utility.yul\":1100:1429   */\n      swap3\n      swap2\n      pop\n      pop\n      jump\t// out\n        /* \"#utility.yul\":1435:1544   */\n    tag_70:\n        /* \"#utility.yul\":1516:1537   */\n      tag_72\n        /* \"#utility.yul\":1531:1536   */\n      dup2\n        /* \"#utility.yul\":1516:1537   */\n      tag_73\n      jump\t// in\n    tag_72:\n        /* \"#utility.yul\":1511:1514   */\n      dup3\n        /* \"#utility.yul\":1504:1538   */\n      mstore\n        /* \"#utility.yul\":1435:1544   */\n      pop\n      pop\n      jump\t// out\n        /* \"#utility.yul\":1550:1668   */\n    tag_74:\n        /* \"#utility.yul\":1637:1661   */\n      tag_76\n        /* \"#utility.yul\":1655:1660   */\n      dup2\n        /* \"#utility.yul\":1637:1661   */\n      tag_77\n      jump\t// in\n    tag_76:\n        /* \"#utility.yul\":1632:1635   */\n      dup3\n        /* \"#utility.yul\":1625:1662   */\n      mstore\n        /* \"#utility.yul\":1550:1668   */\n      pop\n      pop\n      jump\t// out\n        /* \"#utility.yul\":1674:1884   */\n    tag_18:\n        /* \"#utility.yul\":1761:1765   */\n      0x00\n        /* \"#utility.yul\":1799:1801   */\n      0x20\n        /* \"#utility.yul\":1788:1797   */\n      dup3\n        /* \"#utility.yul\":1784:1802   */\n      add\n        /* \"#utility.yul\":1776:1802   */\n      swap1\n      pop\n        /* \"#utility.yul\":1812:1877   */\n      tag_79\n        /* \"#utility.yul\":1874:1875   */\n      0x00\n        /* \"#utility.yul\":1863:1872   */\n      dup4\n        /* \"#utility.yul\":1859:1876   */\n      add\n        /* \"#utility.yul\":1850:1856   */\n      dup5\n        /* \"#utility.yul\":1812:1877   */\n      tag_70\n      jump\t// in\n    tag_79:\n        /* \"#utility.yul\":1674:1884   */\n      swap3\n      swap2\n      pop\n      pop\n      jump\t// out\n        /* \"#utility.yul\":1890:2112   */\n    tag_14:\n        /* \"#utility.yul\":1983:1987   */\n      0x00\n        /* \"#utility.yul\":2021:2023   */\n      0x20\n        /* \"#utility.yul\":2010:2019   */\n      dup3\n        /* \"#utility.yul\":2006:2024   */\n      add\n        /* \"#utility.yul\":1998:2024   */\n      swap1\n      pop\n        /* \"#utility.yul\":2034:2105   */\n      tag_81\n        /* \"#utility.yul\":2102:2103   */\n      0x00\n        /* \"#utility.yul\":2091:2100   */\n      dup4\n        /* \"#utility.yul\":2087:2104   */\n      add\n        /* \"#utility.yul\":2078:2084   */\n      dup5\n        /* \"#utility.yul\":2034:2105   */\n      tag_74\n      jump\t// in\n    tag_81:\n        /* \"#utility.yul\":1890:2112   */\n      swap3\n      swap2\n      pop\n      pop\n      jump\t// out\n        /* \"#utility.yul\":2199:2295   */\n    tag_84:\n        /* \"#utility.yul\":2236:2243   */\n      0x00\n        /* \"#utility.yul\":2265:2289   */\n      tag_86\n        /* \"#utility.yul\":2283:2288   */\n      dup3\n        /* \"#utility.yul\":2265:2289   */\n      tag_87\n      jump\t// in\n    tag_86:\n        /* \"#utility.yul\":2254:2289   */\n      swap1\n      pop\n        /* \"#utility.yul\":2199:2295   */\n      swap2\n      swap1\n      pop\n      jump\t// out\n        /* \"#utility.yul\":2301:2391   */\n    tag_73:\n        /* \"#utility.yul\":2335:2342   */\n      0x00\n        /* \"#utility.yul\":2378:2383   */\n      dup2\n        /* \"#utility.yul\":2371:2384   */\n      iszero\n        /* \"#utility.yul\":2364:2385   */\n      iszero\n        /* \"#utility.yul\":2353:2385   */\n      swap1\n      pop\n        /* \"#utility.yul\":2301:2391   */\n      swap2\n      swap1\n      pop\n      jump\t// out\n        /* \"#utility.yul\":2397:2523   */\n    tag_87:\n        /* \"#utility.yul\":2434:2441   */\n      0x00\n        /* \"#utility.yul\":2474:2516   */\n      0xffffffffffffffffffffffffffffffffffffffff\n        /* \"#utility.yul\":2467:2472   */\n      dup3\n        /* \"#utility.yul\":2463:2517   */\n      and\n        /* \"#utility.yul\":2452:2517   */\n      swap1\n      pop\n        /* \"#utility.yul\":2397:2523   */\n      swap2\n      swap1\n      pop\n      jump\t// out\n        /* \"#utility.yul\":2529:2606   */\n    tag_77:\n        /* \"#utility.yul\":2566:2573   */\n      0x00\n        /* \"#utility.yul\":2595:2600   */\n      dup2\n        /* \"#utility.yul\":2584:2600   */\n      swap1\n      pop\n        /* \"#utility.yul\":2529:2606   */\n      swap2\n      swap1\n      pop\n      jump\t// out\n        /* \"#utility.yul\":2612:2783   */\n    tag_37:\n        /* \"#utility.yul\":2651:2654   */\n      0x00\n        /* \"#utility.yul\":2674:2698   */\n      tag_92\n        /* \"#utility.yul\":2692:2697   */\n      dup3\n        /* \"#utility.yul\":2674:2698   */\n      tag_77\n      jump\t// in\n    tag_92:\n        /* \"#utility.yul\":2665:2698   */\n      swap2\n      pop\n        /* \"#utility.yul\":2720:2724   */\n      0x00\n        /* \"#utility.yul\":2713:2718   */\n      dup3\n        /* \"#utility.yul\":2710:2725   */\n      eq\n        /* \"#utility.yul\":2707:2748   */\n      iszero\n      tag_93\n      jumpi\n        /* \"#utility.yul\":2728:2746   */\n      tag_94\n      tag_95\n      jump\t// in\n    tag_94:\n        /* \"#utility.yul\":2707:2748   */\n    tag_93:\n        /* \"#utility.yul\":2775:2776   */\n      0x01\n        /* \"#utility.yul\":2768:2773   */\n      dup3\n        /* \"#utility.yul\":2764:2777   */\n      sub\n        /* \"#utility.yul\":2757:2777   */\n      swap1\n      pop\n        /* \"#utility.yul\":2612:2783   */\n      swap2\n      swap1\n      pop\n      jump\t// out\n        /* \"#utility.yul\":2789:3022   */\n    tag_43:\n        /* \"#utility.yul\":2828:2831   */\n      0x00\n        /* \"#utility.yul\":2851:2875   */\n      tag_97\n        /* \"#utility.yul\":2869:2874   */\n      dup3\n        /* \"#utility.yul\":2851:2875   */\n      tag_77\n      jump\t// in\n    tag_97:\n        /* \"#utility.yul\":2842:2875   */\n      swap2\n      pop\n        /* \"#utility.yul\":2897:2963   */\n      0xffffffffffffffffffffffffffffffffffffffffffffffffffffffffffffffff\n        /* \"#utility.yul\":2890:2895   */\n      dup3\n        /* \"#utility.yul\":2887:2964   */\n      eq\n        /* \"#utility.yul\":2884:2987   */\n      iszero\n      tag_98\n      jumpi\n        /* \"#utility.yul\":2967:2985   */\n      tag_99\n      tag_95\n      jump\t// in\n    tag_99:\n        /* \"#utility.yul\":2884:2987   */\n    tag_98:\n        /* \"#utility.yul\":3014:3015   */\n      0x01\n        /* \"#utility.yul\":3007:3012   */\n      dup3\n        /* \"#utility.yul\":3003:3016   */\n      add\n        /* \"#utility.yul\":2996:3016   */\n      swap1\n      pop\n        /* \"#utility.yul\":2789:3022   */\n      swap2\n      swap1\n      pop\n      jump\t// out\n        /* \"#utility.yul\":3028:3208   */\n    tag_95:\n        /* \"#utility.yul\":3076:3153   */\n      0x4e487b7100000000000000000000000000000000000000000000000000000000\n        /* \"#utility.yul\":3073:3074   */\n      0x00\n        /* \"#utility.yul\":3066:3154   */\n      mstore\n        /* \"#utility.yul\":3173:3177   */\n      0x11\n        /* \"#utility.yul\":3170:3171   */\n      0x04\n        /* \"#utility.yul\":3163:3178   */\n      mstore\n        /* \"#utility.yul\":3197:3201   */\n      0x24\n        /* \"#utility.yul\":3194:3195   */\n      0x00\n        /* \"#utility.yul\":3187:3202   */\n      revert\n        /* \"#utility.yul\":3337:3454   */\n    tag_60:\n        /* \"#utility.yul\":3446:3447   */\n      0x00\n        /* \"#utility.yul\":3443:3444   */\n      dup1\n        /* \"#utility.yul\":3436:3448   */\n      revert\n        /* \"#utility.yul\":3460:3582   */\n    tag_48:\n        /* \"#utility.yul\":3533:3557   */\n      tag_105\n        /* \"#utility.yul\":3551:3556   */\n      dup2\n        /* \"#utility.yul\":3533:3557   */\n      tag_84\n      jump\t// in\n    tag_105:\n        /* \"#utility.yul\":3526:3531   */\n      dup2\n        /* \"#utility.yul\":3523:3558   */\n      eq\n        /* \"#utility.yul\":3513:3576   */\n      tag_106\n      jumpi\n        /* \"#utility.yul\":3572:3573   */\n      0x00\n        /* \"#utility.yul\":3569:3570   */\n      dup1\n        /* \"#utility.yul\":3562:3574   */\n      revert\n        /* \"#utility.yul\":3513:3576   */\n    tag_106:\n        /* \"#utility.yul\":3460:3582   */\n      pop\n      jump\t// out\n        /* \"#utility.yul\":3588:3704   */\n    tag_52:\n        /* \"#utility.yul\":3658:3679   */\n      tag_108\n        /* \"#utility.yul\":3673:3678   */\n      dup2\n        /* \"#utility.yul\":3658:3679   */\n      tag_73\n      jump\t// in\n    tag_108:\n        /* \"#utility.yul\":3651:3656   */\n      dup2\n        /* \"#utility.yul\":3648:3680   */\n      eq\n        /* \"#utility.yul\":3638:3698   */\n      tag_109\n      jumpi\n        /* \"#utility.yul\":3694:3695   */\n      0x00\n        /* \"#utility.yul\":3691:3692   */\n      dup1\n        /* \"#utility.yul\":3684:3696   */\n      revert\n        /* \"#utility.yul\":3638:3698   */\n    tag_109:\n        /* \"#utility.yul\":3588:3704   */\n      pop\n      jump\t// out\n        /* \"#utility.yul\":3710:3832   */\n    tag_56:\n        /* \"#utility.yul\":3783:3807   */\n      tag_111\n        /* \"#utility.yul\":3801:3806   */\n      dup2\n        /* \"#utility.yul\":3783:3807   */\n      tag_77\n      jump\t// in\n    tag_111:\n        /* \"#utility.yul\":3776:3781   */\n      dup2\n        /* \"#utility.yul\":3773:3808   */\n      eq\n        /* \"#utility.yul\":3763:3826   */\n      tag_112\n      jumpi\n        /* \"#utility.yul\":3822:3823   */\n      0x00\n        /* \"#utility.yul\":3819:3820   */\n      dup1\n        /* \"#utility.yul\":3812:3824   */\n      revert\n        /* \"#utility.yul\":3763:3826   */\n    tag_112:\n        /* \"#utility.yul\":3710:3832   */\n      pop\n      jump\t// out\n\n    auxdata: 0xa2646970667358221220fa67a03fe9fcf8468fd6aefbefdf1e30e86c2a919ce600321c1a2c18e29666c264736f6c63430008070033\n}\n",
				"bytecode": {
					"linkReferences": {},
					"object": "608060405234801561001057600080fd5b5061041f806100206000396000f3fe608060405234801561001057600080fd5b506004361061007d5760003560e01c8063a65046571161005b578063a6504657146100c8578063a8a7b895146100e4578063eb1b30d914610100578063f102a71d1461011c5761007d565b80632cb777a6146100825780636deecdbe146100a05780638d5833cb146100be575b600080fd5b61008a610126565b604051610097919061029a565b60405180910390f35b6100a861012c565b6040516100b5919061027f565b60405180910390f35b6100c661013f565b005b6100e260048036038101906100dd9190610234565b610158565b005b6100fe60048036038101906100f991906101da565b610162565b005b61011a60048036038101906101159190610207565b610165565b005b610124610182565b005b60005481565b600160009054906101000a900460ff1681565b600080815480929190610151906102fd565b9190505550565b8060008190555050565b50565b80600160006101000a81548160ff02191690831515021790555050565b60008081548092919061019490610327565b9190505550565b6000813590506101aa816103a4565b92915050565b6000813590506101bf816103bb565b92915050565b6000813590506101d4816103d2565b92915050565b6000602082840312156101f0576101ef61039f565b5b60006101fe8482850161019b565b91505092915050565b60006020828403121561021d5761021c61039f565b5b600061022b848285016101b0565b91505092915050565b60006020828403121561024a5761024961039f565b5b6000610258848285016101c5565b91505092915050565b61026a816102c7565b82525050565b610279816102f3565b82525050565b60006020820190506102946000830184610261565b92915050565b60006020820190506102af6000830184610270565b92915050565b60006102c0826102d3565b9050919050565b60008115159050919050565b600073ffffffffffffffffffffffffffffffffffffffff82169050919050565b6000819050919050565b6000610308826102f3565b9150600082141561031c5761031b610370565b5b600182039050919050565b6000610332826102f3565b91507fffffffffffffffffffffffffffffffffffffffffffffffffffffffffffffffff82141561036557610364610370565b5b600182019050919050565b7f4e487b7100000000000000000000000000000000000000000000000000000000600052601160045260246000fd5b600080fd5b6103ad816102b5565b81146103b857600080fd5b50565b6103c4816102c7565b81146103cf57600080fd5b50565b6103db816102f3565b81146103e657600080fd5b5056fea2646970667358221220fa67a03fe9fcf8468fd6aefbefdf1e30e86c2a919ce600321c1a2c18e29666c264736f6c63430008070033",
					"opcodes": "PUSH1 0x80 PUSH1 0x40 MSTORE CALLVALUE DUP1 ISZERO PUSH2 0x10 JUMPI PUSH1 0x0 DUP1 REVERT JUMPDEST POP PUSH2 0x41F DUP1 PUSH2 0x20 PUSH1 0x0 CODECOPY PUSH1 0x0 RETURN INVALID PUSH1 0x80 PUSH1 0x40 MSTORE CALLVALUE DUP1 ISZERO PUSH2 0x10 JUMPI PUSH1 0x0 DUP1 REVERT JUMPDEST POP PUSH1 0x4 CALLDATASIZE LT PUSH2 0x7D JUMPI PUSH1 0x0 CALLDATALOAD PUSH1 0xE0 SHR DUP1 PUSH4 0xA6504657 GT PUSH2 0x5B JUMPI DUP1 PUSH4 0xA6504657 EQ PUSH2 0xC8 JUMPI DUP1 PUSH4 0xA8A7B895 EQ PUSH2 0xE4 JUMPI DUP1 PUSH4 0xEB1B30D9 EQ PUSH2 0x100 JUMPI DUP1 PUSH4 0xF102A71D EQ PUSH2 0x11C JUMPI PUSH2 0x7D JUMP JUMPDEST DUP1 PUSH4 0x2CB777A6 EQ PUSH2 0x82 JUMPI DUP1 PUSH4 0x6DEECDBE EQ PUSH2 0xA0 JUMPI DUP1 PUSH4 0x8D5833CB EQ PUSH2 0xBE JUMPI JUMPDEST PUSH1 0x0 DUP1 REVERT JUMPDEST PUSH2 0x8A PUSH2 0x126 JUMP JUMPDEST PUSH1 0x40 MLOAD PUSH2 0x97 SWAP2 SWAP1 PUSH2 0x29A JUMP JUMPDEST PUSH1 0x40 MLOAD DUP1 SWAP2 SUB SWAP1 RETURN JUMPDEST PUSH2 0xA8 PUSH2 0x12C JUMP JUMPDEST PUSH1 0x40 MLOAD PUSH2 0xB5 SWAP2 SWAP1 PUSH2 0x27F JUMP JUMPDEST PUSH1 0x40 MLOAD DUP1 SWAP2 SUB SWAP1 RETURN JUMPDEST PUSH2 0xC6 PUSH2 0x13F JUMP JUMPDEST STOP JUMPDEST PUSH2 0xE2 PUSH1 0x4 DUP1 CALLDATASIZE SUB DUP2 ADD SWAP1 PUSH2 0xDD SWAP2 SWAP1 PUSH2 0x234 JUMP JUMPDEST PUSH2 0x158 JUMP JUMPDEST STOP JUMPDEST PUSH2 0xFE PUSH1 0x4 DUP1 CALLDATASIZE SUB DUP2 ADD SWAP1 PUSH2 0xF9 SWAP2 SWAP1 PUSH2 0x1DA JUMP JUMPDEST PUSH2 0x162 JUMP JUMPDEST STOP JUMPDEST PUSH2 0x11A PUSH1 0x4 DUP1 CALLDATASIZE SUB DUP2 ADD SWAP1 PUSH2 0x115 SWAP2 SWAP1 PUSH2 0x207 JUMP JUMPDEST PUSH2 0x165 JUMP JUMPDEST STOP JUMPDEST PUSH2 0x124 PUSH2 0x182 JUMP JUMPDEST STOP JUMPDEST PUSH1 0x0 SLOAD DUP2 JUMP JUMPDEST PUSH1 0x1 PUSH1 0x0 SWAP1 SLOAD SWAP1 PUSH2 0x100 EXP SWAP1 DIV PUSH1 0xFF AND DUP2 JUMP JUMPDEST PUSH1 0x0 DUP1 DUP2 SLOAD DUP1 SWAP3 SWAP2 SWAP1 PUSH2 0x151 SWAP1 PUSH2 0x2FD JUMP JUMPDEST SWAP2 SWAP1 POP SSTORE POP JUMP JUMPDEST DUP1 PUSH1 0x0 DUP2 SWAP1 SSTORE POP POP JUMP JUMPDEST POP JUMP JUMPDEST DUP1 PUSH1 0x1 PUSH1 0x0 PUSH2 0x100 EXP DUP2 SLOAD DUP2 PUSH1 0xFF MUL NOT AND SWAP1 DUP4 ISZERO ISZERO MUL OR SWAP1 SSTORE POP POP JUMP JUMPDEST PUSH1 0x0 DUP1 DUP2 SLOAD DUP1 SWAP3 SWAP2 SWAP1 PUSH2 0x194 SWAP1 PUSH2 0x327 JUMP JUMPDEST SWAP2 SWAP1 POP SSTORE POP JUMP JUMPDEST PUSH1 0x0 DUP2 CALLDATALOAD SWAP1 POP PUSH2 0x1AA DUP2 PUSH2 0x3A4 JUMP JUMPDEST SWAP3 SWAP2 POP POP JUMP JUMPDEST PUSH1 0x0 DUP2 CALLDATALOAD SWAP1 POP PUSH2 0x1BF DUP2 PUSH2 0x3BB JUMP JUMPDEST SWAP3 SWAP2 POP POP JUMP JUMPDEST PUSH1 0x0 DUP2 CALLDATALOAD SWAP1 POP PUSH2 0x1D4 DUP2 PUSH2 0x3D2 JUMP JUMPDEST SWAP3 SWAP2 POP POP JUMP JUMPDEST PUSH1 0x0 PUSH1 0x20 DUP3 DUP5 SUB SLT ISZERO PUSH2 0x1F0 JUMPI PUSH2 0x1EF PUSH2 0x39F JUMP JUMPDEST JUMPDEST PUSH1 0x0 PUSH2 0x1FE DUP5 DUP3 DUP6 ADD PUSH2 0x19B JUMP JUMPDEST SWAP2 POP POP SWAP3 SWAP2 POP POP JUMP JUMPDEST PUSH1 0x0 PUSH1 0x20 DUP3 DUP5 SUB SLT ISZERO PUSH2 0x21D JUMPI PUSH2 0x21C PUSH2 0x39F JUMP JUMPDEST JUMPDEST PUSH1 0x0 PUSH2 0x22B DUP5 DUP3 DUP6 ADD PUSH2 0x1B0 JUMP JUMPDEST SWAP2 POP POP SWAP3 SWAP2 POP POP JUMP JUMPDEST PUSH1 0x0 PUSH1 0x20 DUP3 DUP5 SUB SLT ISZERO PUSH2 0x24A JUMPI PUSH2 0x249 PUSH2 0x39F JUMP JUMPDEST JUMPDEST PUSH1 0x0 PUSH2 0x258 DUP5 DUP3 DUP6 ADD PUSH2 0x1C5 JUMP JUMPDEST SWAP2 POP POP SWAP3 SWAP2 POP POP JUMP JUMPDEST PUSH2 0x26A DUP2 PUSH2 0x2C7 JUMP JUMPDEST DUP3 MSTORE POP POP JUMP JUMPDEST PUSH2 0x279 DUP2 PUSH2 0x2F3 JUMP JUMPDEST DUP3 MSTORE POP POP JUMP JUMPDEST PUSH1 0x0 PUSH1 0x20 DUP3 ADD SWAP1 POP PUSH2 0x294 PUSH1 0x0 DUP4 ADD DUP5 PUSH2 0x261 JUMP JUMPDEST SWAP3 SWAP2 POP POP JUMP JUMPDEST PUSH1 0x0 PUSH1 0x20 DUP3 ADD SWAP1 POP PUSH2 0x2AF PUSH1 0x0 DUP4 ADD DUP5 PUSH2 0x270 JUMP JUMPDEST SWAP3 SWAP2 POP POP JUMP JUMPDEST PUSH1 0x0 PUSH2 0x2C0 DUP3 PUSH2 0x2D3 JUMP JUMPDEST SWAP1 POP SWAP2 SWAP1 POP JUMP JUMPDEST PUSH1 0x0 DUP2 ISZERO ISZERO SWAP1 POP SWAP2 SWAP1 POP JUMP JUMPDEST PUSH1 0x0 PUSH20 0xFFFFFFFFFFFFFFFFFFFFFFFFFFFFFFFFFFFFFFFF DUP3 AND SWAP1 POP SWAP2 SWAP1 POP JUMP JUMPDEST PUSH1 0x0 DUP2 SWAP1 POP SWAP2 SWAP1 POP JUMP JUMPDEST PUSH1 0x0 PUSH2 0x308 DUP3 PUSH2 0x2F3 JUMP JUMPDEST SWAP2 POP PUSH1 0x0 DUP3 EQ ISZERO PUSH2 0x31C JUMPI PUSH2 0x31B PUSH2 0x370 JUMP JUMPDEST JUMPDEST PUSH1 0x1 DUP3 SUB SWAP1 POP SWAP2 SWAP1 POP JUMP JUMPDEST PUSH1 0x0 PUSH2 0x332 DUP3 PUSH2 0x2F3 JUMP JUMPDEST SWAP2 POP PUSH32 0xFFFFFFFFFFFFFFFFFFFFFFFFFFFFFFFFFFFFFFFFFFFFFFFFFFFFFFFFFFFFFFFF DUP3 EQ ISZERO PUSH2 0x365 JUMPI PUSH2 0x364 PUSH2 0x370 JUMP JUMPDEST JUMPDEST PUSH1 0x1 DUP3 ADD SWAP1 POP SWAP2 SWAP1 POP JUMP JUMPDEST PUSH32 0x4E487B7100000000000000000000000000000000000000000000000000000000 PUSH1 0x0 MSTORE PUSH1 0x11 PUSH1 0x4 MSTORE PUSH1 0x24 PUSH1 0x0 REVERT JUMPDEST PUSH1 0x0 DUP1 REVERT JUMPDEST PUSH2 0x3AD DUP2 PUSH2 0x2B5 JUMP JUMPDEST DUP2 EQ PUSH2 0x3B8 JUMPI PUSH1 0x0 DUP1 REVERT JUMPDEST POP JUMP JUMPDEST PUSH2 0x3C4 DUP2 PUSH2 0x2C7 JUMP JUMPDEST DUP2 EQ PUSH2 0x3CF JUMPI PUSH1 0x0 DUP1 REVERT JUMPDEST POP JUMP JUMPDEST PUSH2 0x3DB DUP2 PUSH2 0x2F3 JUMP JUMPDEST DUP2 EQ PUSH2 0x3E6 JUMPI PUSH1 0x0 DUP1 REVERT JUMPDEST POP JUMP INVALID LOG2 PUSH5 0x6970667358 0x22 SLT KECCAK256 STATICCALL PUSH8 0xA03FE9FCF8468FD6 0xAE 0xFB 0xEF 0xDF 0x1E ADDRESS 0xE8 PUSH13 0x2A919CE600321C1A2C18E29666 0xC2 PUSH5 0x736F6C6343 STOP ADDMOD SMOD STOP CALLER "
				},
				"gasEstimates": {
					"creation": {
						"codeDepositCost": "211000",
						"executionCost": "251",
						"totalCost": "211251"
					},
					"external": {
						"decrementInt()": "24549",
						"incrementInt()": "24570",
						"myBool()": "2494",
						"myInt()": "2430",
						"setMyAddress(address)": "477",
						"setMyBool(bool)": "24723",
						"setMyInt(uint256)": "22520"
					}
				},
				"methodIdentifiers": {
					"decrementInt()": "8d5833cb",
					"incrementInt()": "f102a71d",
					"myBool()": "6deecdbe",
					"myInt()": "2cb777a6",
					"setMyAddress(address)": "a8a7b895",
					"setMyBool(bool)": "eb1b30d9",
					"setMyInt(uint256)": "a6504657"
				}
			},
			"storageLayout": {
				"storage": [
					{
						"astId": 3,
						"contract": "contracts/basics/artifacts/Variables.sol:Variables",
						"label": "myInt",
						"offset": 0,
						"slot": "0",
						"type": "t_uint256"
					},
					{
						"astId": 15,
						"contract": "contracts/basics/artifacts/Variables.sol:Variables",
						"label": "myBool",
						"offset": 0,
						"slot": "1",
						"type": "t_bool"
					},
					{
						"astId": 41,
						"contract": "contracts/basics/artifacts/Variables.sol:Variables",
						"label": "myAddress",
						"offset": 1,
						"slot": "1",
						"type": "t_address"
					}
				],
				"types": {
					"t_address": {
						"encoding": "inplace",
						"label": "address",
						"numberOfBytes": "20"
					},
					"t_bool": {
						"encoding": "inplace",
						"label": "bool",
						"numberOfBytes": "1"
					},
					"t_uint256": {
						"encoding": "inplace",
						"label": "uint256",
						"numberOfBytes": "32"
					}
				}
			},
			"userdoc": {
				"kind": "user",
				"methods": {},
				"version": 1
			}
		}
	}
}