{
	"contracts/basics/artifacts/Variables.sol": {
		"Variables": {
			"abi": [
				{
					"inputs": [],
					"name": "decrementInt",
					"outputs": [],
					"stateMutability": "nonpayable",
					"type": "function"
				},
				{
					"inputs": [],
					"name": "incrementInt",
					"outputs": [],
					"stateMutability": "nonpayable",
					"type": "function"
				},
				{
					"inputs": [],
					"name": "myBool",
					"outputs": [
						{
							"internalType": "bool",
							"name": "",
							"type": "bool"
						}
					],
					"stateMutability": "view",
					"type": "function"
				},
				{
					"inputs": [],
					"name": "myInt",
					"outputs": [
						{
							"internalType": "uint256",
							"name": "",
							"type": "uint256"
						}
					],
					"stateMutability": "view",
					"type": "function"
				},
				{
					"inputs": [
						{
							"internalType": "bool",
							"name": "_myBool",
							"type": "bool"
						}
					],
					"name": "setMyBool",
					"outputs": [],
					"stateMutability": "nonpayable",
					"type": "function"
				},
				{
					"inputs": [
						{
							"internalType": "uint256",
							"name": "_myInt",
							"type": "uint256"
						}
					],
					"name": "setMyInt",
					"outputs": [],
					"stateMutability": "nonpayable",
					"type": "function"
				}
			],
			"devdoc": {
				"kind": "dev",
				"methods": {},
				"version": 1
			},
			"evm": {
				"assembly": "    /* \"contracts/basics/artifacts/Variables.sol\":58:461  contract Variables{\r... */\n  mstore(0x40, 0x80)\n  callvalue\n  dup1\n  iszero\n  tag_1\n  jumpi\n  0x00\n  dup1\n  revert\ntag_1:\n  pop\n  dataSize(sub_0)\n  dup1\n  dataOffset(sub_0)\n  0x00\n  codecopy\n  0x00\n  return\nstop\n\nsub_0: assembly {\n        /* \"contracts/basics/artifacts/Variables.sol\":58:461  contract Variables{\r... */\n      mstore(0x40, 0x80)\n      callvalue\n      dup1\n      iszero\n      tag_1\n      jumpi\n      0x00\n      dup1\n      revert\n    tag_1:\n      pop\n      jumpi(tag_2, lt(calldatasize, 0x04))\n      shr(0xe0, calldataload(0x00))\n      dup1\n      0x2cb777a6\n      eq\n      tag_3\n      jumpi\n      dup1\n      0x6deecdbe\n      eq\n      tag_4\n      jumpi\n      dup1\n      0x8d5833cb\n      eq\n      tag_5\n      jumpi\n      dup1\n      0xa6504657\n      eq\n      tag_6\n      jumpi\n      dup1\n      0xeb1b30d9\n      eq\n      tag_7\n      jumpi\n      dup1\n      0xf102a71d\n      eq\n      tag_8\n      jumpi\n    tag_2:\n      0x00\n      dup1\n      revert\n        /* \"contracts/basics/artifacts/Variables.sol\":83:103  uint256 public myInt */\n    tag_3:\n      tag_9\n      tag_10\n      jump\t// in\n    tag_9:\n      mload(0x40)\n      tag_11\n      swap2\n      swap1\n      tag_12\n      jump\t// in\n    tag_11:\n      mload(0x40)\n      dup1\n      swap2\n      sub\n      swap1\n      return\n        /* \"contracts/basics/artifacts/Variables.sol\":192:210  bool public myBool */\n    tag_4:\n      tag_13\n      tag_14\n      jump\t// in\n    tag_13:\n      mload(0x40)\n      tag_15\n      swap2\n      swap1\n      tag_16\n      jump\t// in\n    tag_15:\n      mload(0x40)\n      dup1\n      swap2\n      sub\n      swap1\n      return\n        /* \"contracts/basics/artifacts/Variables.sol\":366:422  function decrementInt() public{\r... */\n    tag_5:\n      tag_17\n      tag_18\n      jump\t// in\n    tag_17:\n      stop\n        /* \"contracts/basics/artifacts/Variables.sol\":116:186  function setMyInt(uint _myInt) public{\r... */\n    tag_6:\n      tag_19\n      0x04\n      dup1\n      calldatasize\n      sub\n      dup2\n      add\n      swap1\n      tag_20\n      swap2\n      swap1\n      tag_21\n      jump\t// in\n    tag_20:\n      tag_22\n      jump\t// in\n    tag_19:\n      stop\n        /* \"contracts/basics/artifacts/Variables.sol\":219:294  function setMyBool(bool _myBool) public {\r... */\n    tag_7:\n      tag_23\n      0x04\n      dup1\n      calldatasize\n      sub\n      dup2\n      add\n      swap1\n      tag_24\n      swap2\n      swap1\n      tag_25\n      jump\t// in\n    tag_24:\n      tag_26\n      jump\t// in\n    tag_23:\n      stop\n        /* \"contracts/basics/artifacts/Variables.sol\":302:358  function incrementInt() public{\r... */\n    tag_8:\n      tag_27\n      tag_28\n      jump\t// in\n    tag_27:\n      stop\n        /* \"contracts/basics/artifacts/Variables.sol\":83:103  uint256 public myInt */\n    tag_10:\n      sload(0x00)\n      dup2\n      jump\t// out\n        /* \"contracts/basics/artifacts/Variables.sol\":192:210  bool public myBool */\n    tag_14:\n      0x01\n      0x00\n      swap1\n      sload\n      swap1\n      0x0100\n      exp\n      swap1\n      div\n      0xff\n      and\n      dup2\n      jump\t// out\n        /* \"contracts/basics/artifacts/Variables.sol\":366:422  function decrementInt() public{\r... */\n    tag_18:\n        /* \"contracts/basics/artifacts/Variables.sol\":407:412  myInt */\n      0x00\n      dup1\n        /* \"contracts/basics/artifacts/Variables.sol\":407:414  myInt-- */\n      dup2\n      sload\n      dup1\n      swap3\n      swap2\n      swap1\n      tag_30\n      swap1\n      tag_31\n      jump\t// in\n    tag_30:\n      swap2\n      swap1\n      pop\n      sstore\n      pop\n        /* \"contracts/basics/artifacts/Variables.sol\":366:422  function decrementInt() public{\r... */\n      jump\t// out\n        /* \"contracts/basics/artifacts/Variables.sol\":116:186  function setMyInt(uint _myInt) public{\r... */\n    tag_22:\n        /* \"contracts/basics/artifacts/Variables.sol\":172:178  _myInt */\n      dup1\n        /* \"contracts/basics/artifacts/Variables.sol\":164:169  myInt */\n      0x00\n        /* \"contracts/basics/artifacts/Variables.sol\":164:178  myInt = _myInt */\n      dup2\n      swap1\n      sstore\n      pop\n        /* \"contracts/basics/artifacts/Variables.sol\":116:186  function setMyInt(uint _myInt) public{\r... */\n      pop\n      jump\t// out\n        /* \"contracts/basics/artifacts/Variables.sol\":219:294  function setMyBool(bool _myBool) public {\r... */\n    tag_26:\n        /* \"contracts/basics/artifacts/Variables.sol\":279:286  _myBool */\n      dup1\n        /* \"contracts/basics/artifacts/Variables.sol\":270:276  myBool */\n      0x01\n      0x00\n        /* \"contracts/basics/artifacts/Variables.sol\":270:286  myBool = _myBool */\n      0x0100\n      exp\n      dup2\n      sload\n      dup2\n      0xff\n      mul\n      not\n      and\n      swap1\n      dup4\n      iszero\n      iszero\n      mul\n      or\n      swap1\n      sstore\n      pop\n        /* \"contracts/basics/artifacts/Variables.sol\":219:294  function setMyBool(bool _myBool) public {\r... */\n      pop\n      jump\t// out\n        /* \"contracts/basics/artifacts/Variables.sol\":302:358  function incrementInt() public{\r... */\n    tag_28:\n        /* \"contracts/basics/artifacts/Variables.sol\":343:348  myInt */\n      0x00\n      dup1\n        /* \"contracts/basics/artifacts/Variables.sol\":343:350  myInt++ */\n      dup2\n      sload\n      dup1\n      swap3\n      swap2\n      swap1\n      tag_35\n      swap1\n      tag_36\n      jump\t// in\n    tag_35:\n      swap2\n      swap1\n      pop\n      sstore\n      pop\n        /* \"contracts/basics/artifacts/Variables.sol\":302:358  function incrementInt() public{\r... */\n      jump\t// out\n        /* \"#utility.yul\":7:140   */\n    tag_38:\n        /* \"#utility.yul\":50:55   */\n      0x00\n        /* \"#utility.yul\":88:94   */\n      dup2\n        /* \"#utility.yul\":75:95   */\n      calldataload\n        /* \"#utility.yul\":66:95   */\n      swap1\n      pop\n        /* \"#utility.yul\":104:134   */\n      tag_40\n        /* \"#utility.yul\":128:133   */\n      dup2\n        /* \"#utility.yul\":104:134   */\n      tag_41\n      jump\t// in\n    tag_40:\n        /* \"#utility.yul\":7:140   */\n      swap3\n      swap2\n      pop\n      pop\n      jump\t// out\n        /* \"#utility.yul\":146:285   */\n    tag_42:\n        /* \"#utility.yul\":192:197   */\n      0x00\n        /* \"#utility.yul\":230:236   */\n      dup2\n        /* \"#utility.yul\":217:237   */\n      calldataload\n        /* \"#utility.yul\":208:237   */\n      swap1\n      pop\n        /* \"#utility.yul\":246:279   */\n      tag_44\n        /* \"#utility.yul\":273:278   */\n      dup2\n        /* \"#utility.yul\":246:279   */\n      tag_45\n      jump\t// in\n    tag_44:\n        /* \"#utility.yul\":146:285   */\n      swap3\n      swap2\n      pop\n      pop\n      jump\t// out\n        /* \"#utility.yul\":291:614   */\n    tag_25:\n        /* \"#utility.yul\":347:353   */\n      0x00\n        /* \"#utility.yul\":396:398   */\n      0x20\n        /* \"#utility.yul\":384:393   */\n      dup3\n        /* \"#utility.yul\":375:382   */\n      dup5\n        /* \"#utility.yul\":371:394   */\n      sub\n        /* \"#utility.yul\":367:399   */\n      slt\n        /* \"#utility.yul\":364:483   */\n      iszero\n      tag_47\n      jumpi\n        /* \"#utility.yul\":402:481   */\n      tag_48\n      tag_49\n      jump\t// in\n    tag_48:\n        /* \"#utility.yul\":364:483   */\n    tag_47:\n        /* \"#utility.yul\":522:523   */\n      0x00\n        /* \"#utility.yul\":547:597   */\n      tag_50\n        /* \"#utility.yul\":589:596   */\n      dup5\n        /* \"#utility.yul\":580:586   */\n      dup3\n        /* \"#utility.yul\":569:578   */\n      dup6\n        /* \"#utility.yul\":565:587   */\n      add\n        /* \"#utility.yul\":547:597   */\n      tag_38\n      jump\t// in\n    tag_50:\n        /* \"#utility.yul\":537:597   */\n      swap2\n      pop\n        /* \"#utility.yul\":493:607   */\n      pop\n        /* \"#utility.yul\":291:614   */\n      swap3\n      swap2\n      pop\n      pop\n      jump\t// out\n        /* \"#utility.yul\":620:949   */\n    tag_21:\n        /* \"#utility.yul\":679:685   */\n      0x00\n        /* \"#utility.yul\":728:730   */\n      0x20\n        /* \"#utility.yul\":716:725   */\n      dup3\n        /* \"#utility.yul\":707:714   */\n      dup5\n        /* \"#utility.yul\":703:726   */\n      sub\n        /* \"#utility.yul\":699:731   */\n      slt\n        /* \"#utility.yul\":696:815   */\n      iszero\n      tag_52\n      jumpi\n        /* \"#utility.yul\":734:813   */\n      tag_53\n      tag_49\n      jump\t// in\n    tag_53:\n        /* \"#utility.yul\":696:815   */\n    tag_52:\n        /* \"#utility.yul\":854:855   */\n      0x00\n        /* \"#utility.yul\":879:932   */\n      tag_54\n        /* \"#utility.yul\":924:931   */\n      dup5\n        /* \"#utility.yul\":915:921   */\n      dup3\n        /* \"#utility.yul\":904:913   */\n      dup6\n        /* \"#utility.yul\":900:922   */\n      add\n        /* \"#utility.yul\":879:932   */\n      tag_42\n      jump\t// in\n    tag_54:\n        /* \"#utility.yul\":869:932   */\n      swap2\n      pop\n        /* \"#utility.yul\":825:942   */\n      pop\n        /* \"#utility.yul\":620:949   */\n      swap3\n      swap2\n      pop\n      pop\n      jump\t// out\n        /* \"#utility.yul\":955:1064   */\n    tag_55:\n        /* \"#utility.yul\":1036:1057   */\n      tag_57\n        /* \"#utility.yul\":1051:1056   */\n      dup2\n        /* \"#utility.yul\":1036:1057   */\n      tag_58\n      jump\t// in\n    tag_57:\n        /* \"#utility.yul\":1031:1034   */\n      dup3\n        /* \"#utility.yul\":1024:1058   */\n      mstore\n        /* \"#utility.yul\":955:1064   */\n      pop\n      pop\n      jump\t// out\n        /* \"#utility.yul\":1070:1188   */\n    tag_59:\n        /* \"#utility.yul\":1157:1181   */\n      tag_61\n        /* \"#utility.yul\":1175:1180   */\n      dup2\n        /* \"#utility.yul\":1157:1181   */\n      tag_62\n      jump\t// in\n    tag_61:\n        /* \"#utility.yul\":1152:1155   */\n      dup3\n        /* \"#utility.yul\":1145:1182   */\n      mstore\n        /* \"#utility.yul\":1070:1188   */\n      pop\n      pop\n      jump\t// out\n        /* \"#utility.yul\":1194:1404   */\n    tag_16:\n        /* \"#utility.yul\":1281:1285   */\n      0x00\n        /* \"#utility.yul\":1319:1321   */\n      0x20\n        /* \"#utility.yul\":1308:1317   */\n      dup3\n        /* \"#utility.yul\":1304:1322   */\n      add\n        /* \"#utility.yul\":1296:1322   */\n      swap1\n      pop\n        /* \"#utility.yul\":1332:1397   */\n      tag_64\n        /* \"#utility.yul\":1394:1395   */\n      0x00\n        /* \"#utility.yul\":1383:1392   */\n      dup4\n        /* \"#utility.yul\":1379:1396   */\n      add\n        /* \"#utility.yul\":1370:1376   */\n      dup5\n        /* \"#utility.yul\":1332:1397   */\n      tag_55\n      jump\t// in\n    tag_64:\n        /* \"#utility.yul\":1194:1404   */\n      swap3\n      swap2\n      pop\n      pop\n      jump\t// out\n        /* \"#utility.yul\":1410:1632   */\n    tag_12:\n        /* \"#utility.yul\":1503:1507   */\n      0x00\n        /* \"#utility.yul\":1541:1543   */\n      0x20\n        /* \"#utility.yul\":1530:1539   */\n      dup3\n        /* \"#utility.yul\":1526:1544   */\n      add\n        /* \"#utility.yul\":1518:1544   */\n      swap1\n      pop\n        /* \"#utility.yul\":1554:1625   */\n      tag_66\n        /* \"#utility.yul\":1622:1623   */\n      0x00\n        /* \"#utility.yul\":1611:1620   */\n      dup4\n        /* \"#utility.yul\":1607:1624   */\n      add\n        /* \"#utility.yul\":1598:1604   */\n      dup5\n        /* \"#utility.yul\":1554:1625   */\n      tag_59\n      jump\t// in\n    tag_66:\n        /* \"#utility.yul\":1410:1632   */\n      swap3\n      swap2\n      pop\n      pop\n      jump\t// out\n        /* \"#utility.yul\":1719:1809   */\n    tag_58:\n        /* \"#utility.yul\":1753:1760   */\n      0x00\n        /* \"#utility.yul\":1796:1801   */\n      dup2\n        /* \"#utility.yul\":1789:1802   */\n      iszero\n        /* \"#utility.yul\":1782:1803   */\n      iszero\n        /* \"#utility.yul\":1771:1803   */\n      swap1\n      pop\n        /* \"#utility.yul\":1719:1809   */\n      swap2\n      swap1\n      pop\n      jump\t// out\n        /* \"#utility.yul\":1815:1892   */\n    tag_62:\n        /* \"#utility.yul\":1852:1859   */\n      0x00\n        /* \"#utility.yul\":1881:1886   */\n      dup2\n        /* \"#utility.yul\":1870:1886   */\n      swap1\n      pop\n        /* \"#utility.yul\":1815:1892   */\n      swap2\n      swap1\n      pop\n      jump\t// out\n        /* \"#utility.yul\":1898:2069   */\n    tag_31:\n        /* \"#utility.yul\":1937:1940   */\n      0x00\n        /* \"#utility.yul\":1960:1984   */\n      tag_72\n        /* \"#utility.yul\":1978:1983   */\n      dup3\n        /* \"#utility.yul\":1960:1984   */\n      tag_62\n      jump\t// in\n    tag_72:\n        /* \"#utility.yul\":1951:1984   */\n      swap2\n      pop\n        /* \"#utility.yul\":2006:2010   */\n      0x00\n        /* \"#utility.yul\":1999:2004   */\n      dup3\n        /* \"#utility.yul\":1996:2011   */\n      eq\n        /* \"#utility.yul\":1993:2034   */\n      iszero\n      tag_73\n      jumpi\n        /* \"#utility.yul\":2014:2032   */\n      tag_74\n      tag_75\n      jump\t// in\n    tag_74:\n        /* \"#utility.yul\":1993:2034   */\n    tag_73:\n        /* \"#utility.yul\":2061:2062   */\n      0x01\n        /* \"#utility.yul\":2054:2059   */\n      dup3\n        /* \"#utility.yul\":2050:2063   */\n      sub\n        /* \"#utility.yul\":2043:2063   */\n      swap1\n      pop\n        /* \"#utility.yul\":1898:2069   */\n      swap2\n      swap1\n      pop\n      jump\t// out\n        /* \"#utility.yul\":2075:2308   */\n    tag_36:\n        /* \"#utility.yul\":2114:2117   */\n      0x00\n        /* \"#utility.yul\":2137:2161   */\n      tag_77\n        /* \"#utility.yul\":2155:2160   */\n      dup3\n        /* \"#utility.yul\":2137:2161   */\n      tag_62\n      jump\t// in\n    tag_77:\n        /* \"#utility.yul\":2128:2161   */\n      swap2\n      pop\n        /* \"#utility.yul\":2183:2249   */\n      0xffffffffffffffffffffffffffffffffffffffffffffffffffffffffffffffff\n        /* \"#utility.yul\":2176:2181   */\n      dup3\n        /* \"#utility.yul\":2173:2250   */\n      eq\n        /* \"#utility.yul\":2170:2273   */\n      iszero\n      tag_78\n      jumpi\n        /* \"#utility.yul\":2253:2271   */\n      tag_79\n      tag_75\n      jump\t// in\n    tag_79:\n        /* \"#utility.yul\":2170:2273   */\n    tag_78:\n        /* \"#utility.yul\":2300:2301   */\n      0x01\n        /* \"#utility.yul\":2293:2298   */\n      dup3\n        /* \"#utility.yul\":2289:2302   */\n      add\n        /* \"#utility.yul\":2282:2302   */\n      swap1\n      pop\n        /* \"#utility.yul\":2075:2308   */\n      swap2\n      swap1\n      pop\n      jump\t// out\n        /* \"#utility.yul\":2314:2494   */\n    tag_75:\n        /* \"#utility.yul\":2362:2439   */\n      0x4e487b7100000000000000000000000000000000000000000000000000000000\n        /* \"#utility.yul\":2359:2360   */\n      0x00\n        /* \"#utility.yul\":2352:2440   */\n      mstore\n        /* \"#utility.yul\":2459:2463   */\n      0x11\n        /* \"#utility.yul\":2456:2457   */\n      0x04\n        /* \"#utility.yul\":2449:2464   */\n      mstore\n        /* \"#utility.yul\":2483:2487   */\n      0x24\n        /* \"#utility.yul\":2480:2481   */\n      0x00\n        /* \"#utility.yul\":2473:2488   */\n      revert\n        /* \"#utility.yul\":2623:2740   */\n    tag_49:\n        /* \"#utility.yul\":2732:2733   */\n      0x00\n        /* \"#utility.yul\":2729:2730   */\n      dup1\n        /* \"#utility.yul\":2722:2734   */\n      revert\n        /* \"#utility.yul\":2746:2862   */\n    tag_41:\n        /* \"#utility.yul\":2816:2837   */\n      tag_85\n        /* \"#utility.yul\":2831:2836   */\n      dup2\n        /* \"#utility.yul\":2816:2837   */\n      tag_58\n      jump\t// in\n    tag_85:\n        /* \"#utility.yul\":2809:2814   */\n      dup2\n        /* \"#utility.yul\":2806:2838   */\n      eq\n        /* \"#utility.yul\":2796:2856   */\n      tag_86\n      jumpi\n        /* \"#utility.yul\":2852:2853   */\n      0x00\n        /* \"#utility.yul\":2849:2850   */\n      dup1\n        /* \"#utility.yul\":2842:2854   */\n      revert\n        /* \"#utility.yul\":2796:2856   */\n    tag_86:\n        /* \"#utility.yul\":2746:2862   */\n      pop\n      jump\t// out\n        /* \"#utility.yul\":2868:2990   */\n    tag_45:\n        /* \"#utility.yul\":2941:2965   */\n      tag_88\n        /* \"#utility.yul\":2959:2964   */\n      dup2\n        /* \"#utility.yul\":2941:2965   */\n      tag_62\n      jump\t// in\n    tag_88:\n        /* \"#utility.yul\":2934:2939   */\n      dup2\n        /* \"#utility.yul\":2931:2966   */\n      eq\n        /* \"#utility.yul\":2921:2984   */\n      tag_89\n      jumpi\n        /* \"#utility.yul\":2980:2981   */\n      0x00\n        /* \"#utility.yul\":2977:2978   */\n      dup1\n        /* \"#utility.yul\":2970:2982   */\n      revert\n        /* \"#utility.yul\":2921:2984   */\n    tag_89:\n        /* \"#utility.yul\":2868:2990   */\n      pop\n      jump\t// out\n\n    auxdata: 0xa2646970667358221220895ebd9384f65df713392651679b9a7b62a588b0fd0f46457d84f5fff25de3a964736f6c63430008070033\n}\n",
				"bytecode": {
					"linkReferences": {},
					"object": "608060405234801561001057600080fd5b5061035a806100206000396000f3fe608060405234801561001057600080fd5b50600436106100625760003560e01c80632cb777a6146100675780636deecdbe146100855780638d5833cb146100a3578063a6504657146100ad578063eb1b30d9146100c9578063f102a71d146100e5575b600080fd5b61006f6100ef565b60405161007c919061021e565b60405180910390f35b61008d6100f5565b60405161009a9190610203565b60405180910390f35b6100ab610108565b005b6100c760048036038101906100c291906101b8565b610121565b005b6100e360048036038101906100de919061018b565b61012b565b005b6100ed610148565b005b60005481565b600160009054906101000a900460ff1681565b60008081548092919061011a9061024f565b9190505550565b8060008190555050565b80600160006101000a81548160ff02191690831515021790555050565b60008081548092919061015a90610279565b9190505550565b600081359050610170816102f6565b92915050565b6000813590506101858161030d565b92915050565b6000602082840312156101a1576101a06102f1565b5b60006101af84828501610161565b91505092915050565b6000602082840312156101ce576101cd6102f1565b5b60006101dc84828501610176565b91505092915050565b6101ee81610239565b82525050565b6101fd81610245565b82525050565b600060208201905061021860008301846101e5565b92915050565b600060208201905061023360008301846101f4565b92915050565b60008115159050919050565b6000819050919050565b600061025a82610245565b9150600082141561026e5761026d6102c2565b5b600182039050919050565b600061028482610245565b91507fffffffffffffffffffffffffffffffffffffffffffffffffffffffffffffffff8214156102b7576102b66102c2565b5b600182019050919050565b7f4e487b7100000000000000000000000000000000000000000000000000000000600052601160045260246000fd5b600080fd5b6102ff81610239565b811461030a57600080fd5b50565b61031681610245565b811461032157600080fd5b5056fea2646970667358221220895ebd9384f65df713392651679b9a7b62a588b0fd0f46457d84f5fff25de3a964736f6c63430008070033",
					"opcodes": "PUSH1 0x80 PUSH1 0x40 MSTORE CALLVALUE DUP1 ISZERO PUSH2 0x10 JUMPI PUSH1 0x0 DUP1 REVERT JUMPDEST POP PUSH2 0x35A DUP1 PUSH2 0x20 PUSH1 0x0 CODECOPY PUSH1 0x0 RETURN INVALID PUSH1 0x80 PUSH1 0x40 MSTORE CALLVALUE DUP1 ISZERO PUSH2 0x10 JUMPI PUSH1 0x0 DUP1 REVERT JUMPDEST POP PUSH1 0x4 CALLDATASIZE LT PUSH2 0x62 JUMPI PUSH1 0x0 CALLDATALOAD PUSH1 0xE0 SHR DUP1 PUSH4 0x2CB777A6 EQ PUSH2 0x67 JUMPI DUP1 PUSH4 0x6DEECDBE EQ PUSH2 0x85 JUMPI DUP1 PUSH4 0x8D5833CB EQ PUSH2 0xA3 JUMPI DUP1 PUSH4 0xA6504657 EQ PUSH2 0xAD JUMPI DUP1 PUSH4 0xEB1B30D9 EQ PUSH2 0xC9 JUMPI DUP1 PUSH4 0xF102A71D EQ PUSH2 0xE5 JUMPI JUMPDEST PUSH1 0x0 DUP1 REVERT JUMPDEST PUSH2 0x6F PUSH2 0xEF JUMP JUMPDEST PUSH1 0x40 MLOAD PUSH2 0x7C SWAP2 SWAP1 PUSH2 0x21E JUMP JUMPDEST PUSH1 0x40 MLOAD DUP1 SWAP2 SUB SWAP1 RETURN JUMPDEST PUSH2 0x8D PUSH2 0xF5 JUMP JUMPDEST PUSH1 0x40 MLOAD PUSH2 0x9A SWAP2 SWAP1 PUSH2 0x203 JUMP JUMPDEST PUSH1 0x40 MLOAD DUP1 SWAP2 SUB SWAP1 RETURN JUMPDEST PUSH2 0xAB PUSH2 0x108 JUMP JUMPDEST STOP JUMPDEST PUSH2 0xC7 PUSH1 0x4 DUP1 CALLDATASIZE SUB DUP2 ADD SWAP1 PUSH2 0xC2 SWAP2 SWAP1 PUSH2 0x1B8 JUMP JUMPDEST PUSH2 0x121 JUMP JUMPDEST STOP JUMPDEST PUSH2 0xE3 PUSH1 0x4 DUP1 CALLDATASIZE SUB DUP2 ADD SWAP1 PUSH2 0xDE SWAP2 SWAP1 PUSH2 0x18B JUMP JUMPDEST PUSH2 0x12B JUMP JUMPDEST STOP JUMPDEST PUSH2 0xED PUSH2 0x148 JUMP JUMPDEST STOP JUMPDEST PUSH1 0x0 SLOAD DUP2 JUMP JUMPDEST PUSH1 0x1 PUSH1 0x0 SWAP1 SLOAD SWAP1 PUSH2 0x100 EXP SWAP1 DIV PUSH1 0xFF AND DUP2 JUMP JUMPDEST PUSH1 0x0 DUP1 DUP2 SLOAD DUP1 SWAP3 SWAP2 SWAP1 PUSH2 0x11A SWAP1 PUSH2 0x24F JUMP JUMPDEST SWAP2 SWAP1 POP SSTORE POP JUMP JUMPDEST DUP1 PUSH1 0x0 DUP2 SWAP1 SSTORE POP POP JUMP JUMPDEST DUP1 PUSH1 0x1 PUSH1 0x0 PUSH2 0x100 EXP DUP2 SLOAD DUP2 PUSH1 0xFF MUL NOT AND SWAP1 DUP4 ISZERO ISZERO MUL OR SWAP1 SSTORE POP POP JUMP JUMPDEST PUSH1 0x0 DUP1 DUP2 SLOAD DUP1 SWAP3 SWAP2 SWAP1 PUSH2 0x15A SWAP1 PUSH2 0x279 JUMP JUMPDEST SWAP2 SWAP1 POP SSTORE POP JUMP JUMPDEST PUSH1 0x0 DUP2 CALLDATALOAD SWAP1 POP PUSH2 0x170 DUP2 PUSH2 0x2F6 JUMP JUMPDEST SWAP3 SWAP2 POP POP JUMP JUMPDEST PUSH1 0x0 DUP2 CALLDATALOAD SWAP1 POP PUSH2 0x185 DUP2 PUSH2 0x30D JUMP JUMPDEST SWAP3 SWAP2 POP POP JUMP JUMPDEST PUSH1 0x0 PUSH1 0x20 DUP3 DUP5 SUB SLT ISZERO PUSH2 0x1A1 JUMPI PUSH2 0x1A0 PUSH2 0x2F1 JUMP JUMPDEST JUMPDEST PUSH1 0x0 PUSH2 0x1AF DUP5 DUP3 DUP6 ADD PUSH2 0x161 JUMP JUMPDEST SWAP2 POP POP SWAP3 SWAP2 POP POP JUMP JUMPDEST PUSH1 0x0 PUSH1 0x20 DUP3 DUP5 SUB SLT ISZERO PUSH2 0x1CE JUMPI PUSH2 0x1CD PUSH2 0x2F1 JUMP JUMPDEST JUMPDEST PUSH1 0x0 PUSH2 0x1DC DUP5 DUP3 DUP6 ADD PUSH2 0x176 JUMP JUMPDEST SWAP2 POP POP SWAP3 SWAP2 POP POP JUMP JUMPDEST PUSH2 0x1EE DUP2 PUSH2 0x239 JUMP JUMPDEST DUP3 MSTORE POP POP JUMP JUMPDEST PUSH2 0x1FD DUP2 PUSH2 0x245 JUMP JUMPDEST DUP3 MSTORE POP POP JUMP JUMPDEST PUSH1 0x0 PUSH1 0x20 DUP3 ADD SWAP1 POP PUSH2 0x218 PUSH1 0x0 DUP4 ADD DUP5 PUSH2 0x1E5 JUMP JUMPDEST SWAP3 SWAP2 POP POP JUMP JUMPDEST PUSH1 0x0 PUSH1 0x20 DUP3 ADD SWAP1 POP PUSH2 0x233 PUSH1 0x0 DUP4 ADD DUP5 PUSH2 0x1F4 JUMP JUMPDEST SWAP3 SWAP2 POP POP JUMP JUMPDEST PUSH1 0x0 DUP2 ISZERO ISZERO SWAP1 POP SWAP2 SWAP1 POP JUMP JUMPDEST PUSH1 0x0 DUP2 SWAP1 POP SWAP2 SWAP1 POP JUMP JUMPDEST PUSH1 0x0 PUSH2 0x25A DUP3 PUSH2 0x245 JUMP JUMPDEST SWAP2 POP PUSH1 0x0 DUP3 EQ ISZERO PUSH2 0x26E JUMPI PUSH2 0x26D PUSH2 0x2C2 JUMP JUMPDEST JUMPDEST PUSH1 0x1 DUP3 SUB SWAP1 POP SWAP2 SWAP1 POP JUMP JUMPDEST PUSH1 0x0 PUSH2 0x284 DUP3 PUSH2 0x245 JUMP JUMPDEST SWAP2 POP PUSH32 0xFFFFFFFFFFFFFFFFFFFFFFFFFFFFFFFFFFFFFFFFFFFFFFFFFFFFFFFFFFFFFFFF DUP3 EQ ISZERO PUSH2 0x2B7 JUMPI PUSH2 0x2B6 PUSH2 0x2C2 JUMP JUMPDEST JUMPDEST PUSH1 0x1 DUP3 ADD SWAP1 POP SWAP2 SWAP1 POP JUMP JUMPDEST PUSH32 0x4E487B7100000000000000000000000000000000000000000000000000000000 PUSH1 0x0 MSTORE PUSH1 0x11 PUSH1 0x4 MSTORE PUSH1 0x24 PUSH1 0x0 REVERT JUMPDEST PUSH1 0x0 DUP1 REVERT JUMPDEST PUSH2 0x2FF DUP2 PUSH2 0x239 JUMP JUMPDEST DUP2 EQ PUSH2 0x30A JUMPI PUSH1 0x0 DUP1 REVERT JUMPDEST POP JUMP JUMPDEST PUSH2 0x316 DUP2 PUSH2 0x245 JUMP JUMPDEST DUP2 EQ PUSH2 0x321 JUMPI PUSH1 0x0 DUP1 REVERT JUMPDEST POP JUMP INVALID LOG2 PUSH5 0x6970667358 0x22 SLT KECCAK256 DUP10 0x5E 0xBD SWAP4 DUP5 0xF6 0x5D 0xF7 SGT CODECOPY 0x26 MLOAD PUSH8 0x9B9A7B62A588B0FD 0xF CHAINID GASLIMIT PUSH30 0x84F5FFF25DE3A964736F6C63430008070033000000000000000000000000 "
				},
				"gasEstimates": {
					"creation": {
						"codeDepositCost": "171600",
						"executionCost": "214",
						"totalCost": "171814"
					},
					"external": {
						"decrementInt()": "24526",
						"incrementInt()": "24592",
						"myBool()": "2471",
						"myInt()": "2407",
						"setMyBool(bool)": "24745",
						"setMyInt(uint256)": "22564"
					}
				},
				"methodIdentifiers": {
					"decrementInt()": "8d5833cb",
					"incrementInt()": "f102a71d",
					"myBool()": "6deecdbe",
					"myInt()": "2cb777a6",
					"setMyBool(bool)": "eb1b30d9",
					"setMyInt(uint256)": "a6504657"
				}
			},
			"storageLayout": {
				"storage": [
					{
						"astId": 3,
						"contract": "contracts/basics/artifacts/Variables.sol:Variables",
						"label": "myInt",
						"offset": 0,
						"slot": "0",
						"type": "t_uint256"
					},
					{
						"astId": 15,
						"contract": "contracts/basics/artifacts/Variables.sol:Variables",
						"label": "myBool",
						"offset": 0,
						"slot": "1",
						"type": "t_bool"
					},
					{
						"astId": 41,
						"contract": "contracts/basics/artifacts/Variables.sol:Variables",
						"label": "myAddress",
						"offset": 1,
						"slot": "1",
						"type": "t_address"
					}
				],
				"types": {
					"t_address": {
						"encoding": "inplace",
						"label": "address",
						"numberOfBytes": "20"
					},
					"t_bool": {
						"encoding": "inplace",
						"label": "bool",
						"numberOfBytes": "1"
					},
					"t_uint256": {
						"encoding": "inplace",
						"label": "uint256",
						"numberOfBytes": "32"
					}
				}
			},
			"userdoc": {
				"kind": "user",
				"methods": {},
				"version": 1
			}
		}
	}
}